{
	"contracts/item.sol": {
		"Item": {
			"abi": [
				{
					"inputs": [
						{
							"internalType": "uint256",
							"name": "",
							"type": "uint256"
						}
					],
					"name": "Items",
					"outputs": [
						{
							"internalType": "string",
							"name": "product_name",
							"type": "string"
						},
						{
							"internalType": "uint256",
							"name": "productId",
							"type": "uint256"
						},
						{
							"internalType": "address",
							"name": "itemOwner",
							"type": "address"
						},
						{
							"internalType": "enum Item.state",
							"name": "itemState",
							"type": "uint8"
						},
						{
							"internalType": "uint256",
							"name": "cost",
							"type": "uint256"
						}
					],
					"stateMutability": "view",
					"type": "function"
				}
			],
			"devdoc": {
				"kind": "dev",
				"methods": {},
				"version": 1
			},
			"evm": {
				"assembly": "    /* \"contracts/item.sol\":27:426  contract Item{\r... */\n  mstore(0x40, 0x80)\n    /* \"contracts/item.sol\":54:55  0 */\n  0x00\n    /* \"contracts/item.sol\":46:55  uint ic=0 */\n  dup1\n  sstore\n    /* \"contracts/item.sol\":27:426  contract Item{\r... */\n  callvalue\n  dup1\n  iszero\n  tag_1\n  jumpi\n  0x00\n  dup1\n  revert\ntag_1:\n  pop\n  dataSize(sub_0)\n  dup1\n  dataOffset(sub_0)\n  0x00\n  codecopy\n  0x00\n  return\nstop\n\nsub_0: assembly {\n        /* \"contracts/item.sol\":27:426  contract Item{\r... */\n      mstore(0x40, 0x80)\n      callvalue\n      dup1\n      iszero\n      tag_1\n      jumpi\n      0x00\n      dup1\n      revert\n    tag_1:\n      pop\n      jumpi(tag_2, lt(calldatasize, 0x04))\n      shr(0xe0, calldataload(0x00))\n      dup1\n      0x17b47cc4\n      eq\n      tag_3\n      jumpi\n    tag_2:\n      0x00\n      dup1\n      revert\n        /* \"contracts/item.sol\":386:418  mapping(uint=>item) public Items */\n    tag_3:\n      tag_4\n      0x04\n      dup1\n      calldatasize\n      sub\n      dup2\n      add\n      swap1\n      tag_5\n      swap2\n      swap1\n      tag_6\n      jump\t// in\n    tag_5:\n      tag_7\n      jump\t// in\n    tag_4:\n      mload(0x40)\n      tag_8\n      swap6\n      swap5\n      swap4\n      swap3\n      swap2\n      swap1\n      tag_9\n      jump\t// in\n    tag_8:\n      mload(0x40)\n      dup1\n      swap2\n      sub\n      swap1\n      return\n    tag_7:\n      mstore(0x20, 0x01)\n      dup1\n      0x00\n      mstore\n      keccak256(0x00, 0x40)\n      0x00\n      swap2\n      pop\n      swap1\n      pop\n      dup1\n      0x00\n      add\n      dup1\n      sload\n      tag_10\n      swap1\n      tag_11\n      jump\t// in\n    tag_10:\n      dup1\n      0x1f\n      add\n      0x20\n      dup1\n      swap2\n      div\n      mul\n      0x20\n      add\n      mload(0x40)\n      swap1\n      dup2\n      add\n      0x40\n      mstore\n      dup1\n      swap3\n      swap2\n      swap1\n      dup2\n      dup2\n      mstore\n      0x20\n      add\n      dup3\n      dup1\n      sload\n      tag_12\n      swap1\n      tag_11\n      jump\t// in\n    tag_12:\n      dup1\n      iszero\n      tag_13\n      jumpi\n      dup1\n      0x1f\n      lt\n      tag_14\n      jumpi\n      0x0100\n      dup1\n      dup4\n      sload\n      div\n      mul\n      dup4\n      mstore\n      swap2\n      0x20\n      add\n      swap2\n      jump(tag_13)\n    tag_14:\n      dup3\n      add\n      swap2\n      swap1\n      0x00\n      mstore\n      keccak256(0x00, 0x20)\n      swap1\n    tag_15:\n      dup2\n      sload\n      dup2\n      mstore\n      swap1\n      0x01\n      add\n      swap1\n      0x20\n      add\n      dup1\n      dup4\n      gt\n      tag_15\n      jumpi\n      dup3\n      swap1\n      sub\n      0x1f\n      and\n      dup3\n      add\n      swap2\n    tag_13:\n      pop\n      pop\n      pop\n      pop\n      pop\n      swap1\n      dup1\n      0x01\n      add\n      sload\n      swap1\n      dup1\n      0x02\n      add\n      0x00\n      swap1\n      sload\n      swap1\n      0x0100\n      exp\n      swap1\n      div\n      0xffffffffffffffffffffffffffffffffffffffff\n      and\n      swap1\n      dup1\n      0x02\n      add\n      0x14\n      swap1\n      sload\n      swap1\n      0x0100\n      exp\n      swap1\n      div\n      0xff\n      and\n      swap1\n      dup1\n      0x03\n      add\n      sload\n      swap1\n      pop\n      dup6\n      jump\t// out\n        /* \"#utility.yul\":7:146   */\n    tag_17:\n      0x00\n        /* \"#utility.yul\":91:97   */\n      dup2\n        /* \"#utility.yul\":78:98   */\n      calldataload\n        /* \"#utility.yul\":69:98   */\n      swap1\n      pop\n        /* \"#utility.yul\":107:140   */\n      tag_19\n        /* \"#utility.yul\":134:139   */\n      dup2\n        /* \"#utility.yul\":107:140   */\n      tag_20\n      jump\t// in\n    tag_19:\n        /* \"#utility.yul\":59:146   */\n      swap3\n      swap2\n      pop\n      pop\n      jump\t// out\n        /* \"#utility.yul\":152:414   */\n    tag_6:\n      0x00\n        /* \"#utility.yul\":260:262   */\n      0x20\n        /* \"#utility.yul\":248:257   */\n      dup3\n        /* \"#utility.yul\":239:246   */\n      dup5\n        /* \"#utility.yul\":235:258   */\n      sub\n        /* \"#utility.yul\":231:263   */\n      slt\n        /* \"#utility.yul\":228:230   */\n      iszero\n      tag_22\n      jumpi\n        /* \"#utility.yul\":276:277   */\n      0x00\n        /* \"#utility.yul\":273:274   */\n      dup1\n        /* \"#utility.yul\":266:278   */\n      revert\n        /* \"#utility.yul\":228:230   */\n    tag_22:\n        /* \"#utility.yul\":319:320   */\n      0x00\n        /* \"#utility.yul\":344:397   */\n      tag_23\n        /* \"#utility.yul\":389:396   */\n      dup5\n        /* \"#utility.yul\":380:386   */\n      dup3\n        /* \"#utility.yul\":369:378   */\n      dup6\n        /* \"#utility.yul\":365:387   */\n      add\n        /* \"#utility.yul\":344:397   */\n      tag_17\n      jump\t// in\n    tag_23:\n        /* \"#utility.yul\":334:397   */\n      swap2\n      pop\n        /* \"#utility.yul\":290:407   */\n      pop\n        /* \"#utility.yul\":218:414   */\n      swap3\n      swap2\n      pop\n      pop\n      jump\t// out\n        /* \"#utility.yul\":420:538   */\n    tag_24:\n        /* \"#utility.yul\":507:531   */\n      tag_26\n        /* \"#utility.yul\":525:530   */\n      dup2\n        /* \"#utility.yul\":507:531   */\n      tag_27\n      jump\t// in\n    tag_26:\n        /* \"#utility.yul\":502:505   */\n      dup3\n        /* \"#utility.yul\":495:532   */\n      mstore\n        /* \"#utility.yul\":485:538   */\n      pop\n      pop\n      jump\t// out\n        /* \"#utility.yul\":544:687   */\n    tag_28:\n        /* \"#utility.yul\":637:680   */\n      tag_30\n        /* \"#utility.yul\":674:679   */\n      dup2\n        /* \"#utility.yul\":637:680   */\n      tag_31\n      jump\t// in\n    tag_30:\n        /* \"#utility.yul\":632:635   */\n      dup3\n        /* \"#utility.yul\":625:681   */\n      mstore\n        /* \"#utility.yul\":615:687   */\n      pop\n      pop\n      jump\t// out\n        /* \"#utility.yul\":693:1057   */\n    tag_32:\n      0x00\n        /* \"#utility.yul\":809:848   */\n      tag_34\n        /* \"#utility.yul\":842:847   */\n      dup3\n        /* \"#utility.yul\":809:848   */\n      tag_35\n      jump\t// in\n    tag_34:\n        /* \"#utility.yul\":864:935   */\n      tag_36\n        /* \"#utility.yul\":928:934   */\n      dup2\n        /* \"#utility.yul\":923:926   */\n      dup6\n        /* \"#utility.yul\":864:935   */\n      tag_37\n      jump\t// in\n    tag_36:\n        /* \"#utility.yul\":857:935   */\n      swap4\n      pop\n        /* \"#utility.yul\":944:996   */\n      tag_38\n        /* \"#utility.yul\":989:995   */\n      dup2\n        /* \"#utility.yul\":984:987   */\n      dup6\n        /* \"#utility.yul\":977:981   */\n      0x20\n        /* \"#utility.yul\":970:975   */\n      dup7\n        /* \"#utility.yul\":966:982   */\n      add\n        /* \"#utility.yul\":944:996   */\n      tag_39\n      jump\t// in\n    tag_38:\n        /* \"#utility.yul\":1021:1050   */\n      tag_40\n        /* \"#utility.yul\":1043:1049   */\n      dup2\n        /* \"#utility.yul\":1021:1050   */\n      tag_41\n      jump\t// in\n    tag_40:\n        /* \"#utility.yul\":1016:1019   */\n      dup5\n        /* \"#utility.yul\":1012:1051   */\n      add\n        /* \"#utility.yul\":1005:1051   */\n      swap2\n      pop\n        /* \"#utility.yul\":785:1057   */\n      pop\n      swap3\n      swap2\n      pop\n      pop\n      jump\t// out\n        /* \"#utility.yul\":1063:1181   */\n    tag_42:\n        /* \"#utility.yul\":1150:1174   */\n      tag_44\n        /* \"#utility.yul\":1168:1173   */\n      dup2\n        /* \"#utility.yul\":1150:1174   */\n      tag_45\n      jump\t// in\n    tag_44:\n        /* \"#utility.yul\":1145:1148   */\n      dup3\n        /* \"#utility.yul\":1138:1175   */\n      mstore\n        /* \"#utility.yul\":1128:1181   */\n      pop\n      pop\n      jump\t// out\n        /* \"#utility.yul\":1187:1954   */\n    tag_9:\n      0x00\n        /* \"#utility.yul\":1456:1459   */\n      0xa0\n        /* \"#utility.yul\":1445:1454   */\n      dup3\n        /* \"#utility.yul\":1441:1460   */\n      add\n        /* \"#utility.yul\":1433:1460   */\n      swap1\n      pop\n        /* \"#utility.yul\":1506:1515   */\n      dup2\n        /* \"#utility.yul\":1500:1504   */\n      dup2\n        /* \"#utility.yul\":1496:1516   */\n      sub\n        /* \"#utility.yul\":1492:1493   */\n      0x00\n        /* \"#utility.yul\":1481:1490   */\n      dup4\n        /* \"#utility.yul\":1477:1494   */\n      add\n        /* \"#utility.yul\":1470:1517   */\n      mstore\n        /* \"#utility.yul\":1534:1612   */\n      tag_47\n        /* \"#utility.yul\":1607:1611   */\n      dup2\n        /* \"#utility.yul\":1598:1604   */\n      dup9\n        /* \"#utility.yul\":1534:1612   */\n      tag_32\n      jump\t// in\n    tag_47:\n        /* \"#utility.yul\":1526:1612   */\n      swap1\n      pop\n        /* \"#utility.yul\":1622:1694   */\n      tag_48\n        /* \"#utility.yul\":1690:1692   */\n      0x20\n        /* \"#utility.yul\":1679:1688   */\n      dup4\n        /* \"#utility.yul\":1675:1693   */\n      add\n        /* \"#utility.yul\":1666:1672   */\n      dup8\n        /* \"#utility.yul\":1622:1694   */\n      tag_42\n      jump\t// in\n    tag_48:\n        /* \"#utility.yul\":1704:1776   */\n      tag_49\n        /* \"#utility.yul\":1772:1774   */\n      0x40\n        /* \"#utility.yul\":1761:1770   */\n      dup4\n        /* \"#utility.yul\":1757:1775   */\n      add\n        /* \"#utility.yul\":1748:1754   */\n      dup7\n        /* \"#utility.yul\":1704:1776   */\n      tag_24\n      jump\t// in\n    tag_49:\n        /* \"#utility.yul\":1786:1864   */\n      tag_50\n        /* \"#utility.yul\":1860:1862   */\n      0x60\n        /* \"#utility.yul\":1849:1858   */\n      dup4\n        /* \"#utility.yul\":1845:1863   */\n      add\n        /* \"#utility.yul\":1836:1842   */\n      dup6\n        /* \"#utility.yul\":1786:1864   */\n      tag_28\n      jump\t// in\n    tag_50:\n        /* \"#utility.yul\":1874:1947   */\n      tag_51\n        /* \"#utility.yul\":1942:1945   */\n      0x80\n        /* \"#utility.yul\":1931:1940   */\n      dup4\n        /* \"#utility.yul\":1927:1946   */\n      add\n        /* \"#utility.yul\":1918:1924   */\n      dup5\n        /* \"#utility.yul\":1874:1947   */\n      tag_42\n      jump\t// in\n    tag_51:\n        /* \"#utility.yul\":1423:1954   */\n      swap7\n      swap6\n      pop\n      pop\n      pop\n      pop\n      pop\n      pop\n      jump\t// out\n        /* \"#utility.yul\":1960:2059   */\n    tag_35:\n      0x00\n        /* \"#utility.yul\":2046:2051   */\n      dup2\n        /* \"#utility.yul\":2040:2052   */\n      mload\n        /* \"#utility.yul\":2030:2052   */\n      swap1\n      pop\n        /* \"#utility.yul\":2019:2059   */\n      swap2\n      swap1\n      pop\n      jump\t// out\n        /* \"#utility.yul\":2065:2234   */\n    tag_37:\n      0x00\n        /* \"#utility.yul\":2183:2189   */\n      dup3\n        /* \"#utility.yul\":2178:2181   */\n      dup3\n        /* \"#utility.yul\":2171:2190   */\n      mstore\n        /* \"#utility.yul\":2223:2227   */\n      0x20\n        /* \"#utility.yul\":2218:2221   */\n      dup3\n        /* \"#utility.yul\":2214:2228   */\n      add\n        /* \"#utility.yul\":2199:2228   */\n      swap1\n      pop\n        /* \"#utility.yul\":2161:2234   */\n      swap3\n      swap2\n      pop\n      pop\n      jump\t// out\n        /* \"#utility.yul\":2240:2336   */\n    tag_27:\n      0x00\n        /* \"#utility.yul\":2306:2330   */\n      tag_55\n        /* \"#utility.yul\":2324:2329   */\n      dup3\n        /* \"#utility.yul\":2306:2330   */\n      tag_56\n      jump\t// in\n    tag_55:\n        /* \"#utility.yul\":2295:2330   */\n      swap1\n      pop\n        /* \"#utility.yul\":2285:2336   */\n      swap2\n      swap1\n      pop\n      jump\t// out\n        /* \"#utility.yul\":2342:2469   */\n    tag_57:\n      0x00\n        /* \"#utility.yul\":2416:2421   */\n      dup2\n        /* \"#utility.yul\":2405:2421   */\n      swap1\n      pop\n        /* \"#utility.yul\":2422:2463   */\n      tag_59\n        /* \"#utility.yul\":2457:2462   */\n      dup3\n        /* \"#utility.yul\":2422:2463   */\n      tag_60\n      jump\t// in\n    tag_59:\n        /* \"#utility.yul\":2395:2469   */\n      swap2\n      swap1\n      pop\n      jump\t// out\n        /* \"#utility.yul\":2475:2601   */\n    tag_56:\n      0x00\n        /* \"#utility.yul\":2552:2594   */\n      0xffffffffffffffffffffffffffffffffffffffff\n        /* \"#utility.yul\":2545:2550   */\n      dup3\n        /* \"#utility.yul\":2541:2595   */\n      and\n        /* \"#utility.yul\":2530:2595   */\n      swap1\n      pop\n        /* \"#utility.yul\":2520:2601   */\n      swap2\n      swap1\n      pop\n      jump\t// out\n        /* \"#utility.yul\":2607:2684   */\n    tag_45:\n      0x00\n        /* \"#utility.yul\":2673:2678   */\n      dup2\n        /* \"#utility.yul\":2662:2678   */\n      swap1\n      pop\n        /* \"#utility.yul\":2652:2684   */\n      swap2\n      swap1\n      pop\n      jump\t// out\n        /* \"#utility.yul\":2690:2817   */\n    tag_31:\n      0x00\n        /* \"#utility.yul\":2779:2811   */\n      tag_64\n        /* \"#utility.yul\":2805:2810   */\n      dup3\n        /* \"#utility.yul\":2779:2811   */\n      tag_57\n      jump\t// in\n    tag_64:\n        /* \"#utility.yul\":2766:2811   */\n      swap1\n      pop\n        /* \"#utility.yul\":2756:2817   */\n      swap2\n      swap1\n      pop\n      jump\t// out\n        /* \"#utility.yul\":2823:3130   */\n    tag_39:\n        /* \"#utility.yul\":2891:2892   */\n      0x00\n        /* \"#utility.yul\":2901:3014   */\n    tag_66:\n        /* \"#utility.yul\":2915:2921   */\n      dup4\n        /* \"#utility.yul\":2912:2913   */\n      dup2\n        /* \"#utility.yul\":2909:2922   */\n      lt\n        /* \"#utility.yul\":2901:3014   */\n      iszero\n      tag_68\n      jumpi\n        /* \"#utility.yul\":3000:3001   */\n      dup1\n        /* \"#utility.yul\":2995:2998   */\n      dup3\n        /* \"#utility.yul\":2991:3002   */\n      add\n        /* \"#utility.yul\":2985:3003   */\n      mload\n        /* \"#utility.yul\":2981:2982   */\n      dup2\n        /* \"#utility.yul\":2976:2979   */\n      dup5\n        /* \"#utility.yul\":2972:2983   */\n      add\n        /* \"#utility.yul\":2965:3004   */\n      mstore\n        /* \"#utility.yul\":2937:2939   */\n      0x20\n        /* \"#utility.yul\":2934:2935   */\n      dup2\n        /* \"#utility.yul\":2930:2940   */\n      add\n        /* \"#utility.yul\":2925:2940   */\n      swap1\n      pop\n        /* \"#utility.yul\":2901:3014   */\n      jump(tag_66)\n    tag_68:\n        /* \"#utility.yul\":3032:3038   */\n      dup4\n        /* \"#utility.yul\":3029:3030   */\n      dup2\n        /* \"#utility.yul\":3026:3039   */\n      gt\n        /* \"#utility.yul\":3023:3025   */\n      iszero\n      tag_69\n      jumpi\n        /* \"#utility.yul\":3112:3113   */\n      0x00\n        /* \"#utility.yul\":3103:3109   */\n      dup5\n        /* \"#utility.yul\":3098:3101   */\n      dup5\n        /* \"#utility.yul\":3094:3110   */\n      add\n        /* \"#utility.yul\":3087:3114   */\n      mstore\n        /* \"#utility.yul\":3023:3025   */\n    tag_69:\n        /* \"#utility.yul\":2872:3130   */\n      pop\n      pop\n      pop\n      pop\n      jump\t// out\n        /* \"#utility.yul\":3136:3456   */\n    tag_11:\n      0x00\n        /* \"#utility.yul\":3217:3218   */\n      0x02\n        /* \"#utility.yul\":3211:3215   */\n      dup3\n        /* \"#utility.yul\":3207:3219   */\n      div\n        /* \"#utility.yul\":3197:3219   */\n      swap1\n      pop\n        /* \"#utility.yul\":3264:3265   */\n      0x01\n        /* \"#utility.yul\":3258:3262   */\n      dup3\n        /* \"#utility.yul\":3254:3266   */\n      and\n        /* \"#utility.yul\":3285:3303   */\n      dup1\n        /* \"#utility.yul\":3275:3277   */\n      tag_71\n      jumpi\n        /* \"#utility.yul\":3341:3345   */\n      0x7f\n        /* \"#utility.yul\":3333:3339   */\n      dup3\n        /* \"#utility.yul\":3329:3346   */\n      and\n        /* \"#utility.yul\":3319:3346   */\n      swap2\n      pop\n        /* \"#utility.yul\":3275:3277   */\n    tag_71:\n        /* \"#utility.yul\":3403:3405   */\n      0x20\n        /* \"#utility.yul\":3395:3401   */\n      dup3\n        /* \"#utility.yul\":3392:3406   */\n      lt\n        /* \"#utility.yul\":3372:3390   */\n      dup2\n        /* \"#utility.yul\":3369:3407   */\n      eq\n        /* \"#utility.yul\":3366:3368   */\n      iszero\n      tag_72\n      jumpi\n        /* \"#utility.yul\":3422:3440   */\n      tag_73\n      tag_74\n      jump\t// in\n    tag_73:\n        /* \"#utility.yul\":3366:3368   */\n    tag_72:\n        /* \"#utility.yul\":3187:3456   */\n      pop\n      swap2\n      swap1\n      pop\n      jump\t// out\n        /* \"#utility.yul\":3462:3642   */\n    tag_75:\n        /* \"#utility.yul\":3510:3587   */\n      0x4e487b7100000000000000000000000000000000000000000000000000000000\n        /* \"#utility.yul\":3507:3508   */\n      0x00\n        /* \"#utility.yul\":3500:3588   */\n      mstore\n        /* \"#utility.yul\":3607:3611   */\n      0x21\n        /* \"#utility.yul\":3604:3605   */\n      0x04\n        /* \"#utility.yul\":3597:3612   */\n      mstore\n        /* \"#utility.yul\":3631:3635   */\n      0x24\n        /* \"#utility.yul\":3628:3629   */\n      0x00\n        /* \"#utility.yul\":3621:3636   */\n      revert\n        /* \"#utility.yul\":3648:3828   */\n    tag_74:\n        /* \"#utility.yul\":3696:3773   */\n      0x4e487b7100000000000000000000000000000000000000000000000000000000\n        /* \"#utility.yul\":3693:3694   */\n      0x00\n        /* \"#utility.yul\":3686:3774   */\n      mstore\n        /* \"#utility.yul\":3793:3797   */\n      0x22\n        /* \"#utility.yul\":3790:3791   */\n      0x04\n        /* \"#utility.yul\":3783:3798   */\n      mstore\n        /* \"#utility.yul\":3817:3821   */\n      0x24\n        /* \"#utility.yul\":3814:3815   */\n      0x00\n        /* \"#utility.yul\":3807:3822   */\n      revert\n        /* \"#utility.yul\":3834:3936   */\n    tag_41:\n      0x00\n        /* \"#utility.yul\":3926:3928   */\n      0x1f\n        /* \"#utility.yul\":3922:3929   */\n      not\n        /* \"#utility.yul\":3917:3919   */\n      0x1f\n        /* \"#utility.yul\":3910:3915   */\n      dup4\n        /* \"#utility.yul\":3906:3920   */\n      add\n        /* \"#utility.yul\":3902:3930   */\n      and\n        /* \"#utility.yul\":3892:3930   */\n      swap1\n      pop\n        /* \"#utility.yul\":3882:3936   */\n      swap2\n      swap1\n      pop\n      jump\t// out\n        /* \"#utility.yul\":3942:4055   */\n    tag_60:\n        /* \"#utility.yul\":4023:4024   */\n      0x07\n        /* \"#utility.yul\":4016:4021   */\n      dup2\n        /* \"#utility.yul\":4013:4025   */\n      lt\n        /* \"#utility.yul\":4003:4005   */\n      tag_80\n      jumpi\n        /* \"#utility.yul\":4029:4047   */\n      tag_81\n      tag_75\n      jump\t// in\n    tag_81:\n        /* \"#utility.yul\":4003:4005   */\n    tag_80:\n        /* \"#utility.yul\":3993:4055   */\n      pop\n      jump\t// out\n        /* \"#utility.yul\":4061:4183   */\n    tag_20:\n        /* \"#utility.yul\":4134:4158   */\n      tag_83\n        /* \"#utility.yul\":4152:4157   */\n      dup2\n        /* \"#utility.yul\":4134:4158   */\n      tag_45\n      jump\t// in\n    tag_83:\n        /* \"#utility.yul\":4127:4132   */\n      dup2\n        /* \"#utility.yul\":4124:4159   */\n      eq\n        /* \"#utility.yul\":4114:4116   */\n      tag_84\n      jumpi\n        /* \"#utility.yul\":4173:4174   */\n      0x00\n        /* \"#utility.yul\":4170:4171   */\n      dup1\n        /* \"#utility.yul\":4163:4175   */\n      revert\n        /* \"#utility.yul\":4114:4116   */\n    tag_84:\n        /* \"#utility.yul\":4104:4183   */\n      pop\n      jump\t// out\n\n    auxdata: 0xa264697066735822122006fe7d57aefd00315b7b6a956a3de386a7380ffe3859e92a90f6e774150a37a964736f6c63430008000033\n}\n",
				"bytecode": {
					"linkReferences": {},
					"object": "60806040526000805534801561001457600080fd5b506103ff806100246000396000f3fe608060405234801561001057600080fd5b506004361061002b5760003560e01c806317b47cc414610030575b600080fd5b61004a60048036038101906100459190610164565b610064565b60405161005b9594939291906101f3565b60405180910390f35b6001602052806000526040600020600091509050806000018054610087906102fd565b80601f01602080910402602001604051908101604052809291908181526020018280546100b3906102fd565b80156101005780601f106100d557610100808354040283529160200191610100565b820191906000526020600020905b8154815290600101906020018083116100e357829003601f168201915b5050505050908060010154908060020160009054906101000a900473ffffffffffffffffffffffffffffffffffffffff16908060020160149054906101000a900460ff16908060030154905085565b60008135905061015e816103b2565b92915050565b60006020828403121561017657600080fd5b60006101848482850161014f565b91505092915050565b61019681610269565b82525050565b6101a5816102b8565b82525050565b60006101b68261024d565b6101c08185610258565b93506101d08185602086016102ca565b6101d98161038d565b840191505092915050565b6101ed816102ae565b82525050565b600060a082019050818103600083015261020d81886101ab565b905061021c60208301876101e4565b610229604083018661018d565b610236606083018561019c565b61024360808301846101e4565b9695505050505050565b600081519050919050565b600082825260208201905092915050565b60006102748261028e565b9050919050565b60008190506102898261039e565b919050565b600073ffffffffffffffffffffffffffffffffffffffff82169050919050565b6000819050919050565b60006102c38261027b565b9050919050565b60005b838110156102e85780820151818401526020810190506102cd565b838111156102f7576000848401525b50505050565b6000600282049050600182168061031557607f821691505b602082108114156103295761032861035e565b5b50919050565b7f4e487b7100000000000000000000000000000000000000000000000000000000600052602160045260246000fd5b7f4e487b7100000000000000000000000000000000000000000000000000000000600052602260045260246000fd5b6000601f19601f8301169050919050565b600781106103af576103ae61032f565b5b50565b6103bb816102ae565b81146103c657600080fd5b5056fea264697066735822122006fe7d57aefd00315b7b6a956a3de386a7380ffe3859e92a90f6e774150a37a964736f6c63430008000033",
					"opcodes": "PUSH1 0x80 PUSH1 0x40 MSTORE PUSH1 0x0 DUP1 SSTORE CALLVALUE DUP1 ISZERO PUSH2 0x14 JUMPI PUSH1 0x0 DUP1 REVERT JUMPDEST POP PUSH2 0x3FF DUP1 PUSH2 0x24 PUSH1 0x0 CODECOPY PUSH1 0x0 RETURN INVALID PUSH1 0x80 PUSH1 0x40 MSTORE CALLVALUE DUP1 ISZERO PUSH2 0x10 JUMPI PUSH1 0x0 DUP1 REVERT JUMPDEST POP PUSH1 0x4 CALLDATASIZE LT PUSH2 0x2B JUMPI PUSH1 0x0 CALLDATALOAD PUSH1 0xE0 SHR DUP1 PUSH4 0x17B47CC4 EQ PUSH2 0x30 JUMPI JUMPDEST PUSH1 0x0 DUP1 REVERT JUMPDEST PUSH2 0x4A PUSH1 0x4 DUP1 CALLDATASIZE SUB DUP2 ADD SWAP1 PUSH2 0x45 SWAP2 SWAP1 PUSH2 0x164 JUMP JUMPDEST PUSH2 0x64 JUMP JUMPDEST PUSH1 0x40 MLOAD PUSH2 0x5B SWAP6 SWAP5 SWAP4 SWAP3 SWAP2 SWAP1 PUSH2 0x1F3 JUMP JUMPDEST PUSH1 0x40 MLOAD DUP1 SWAP2 SUB SWAP1 RETURN JUMPDEST PUSH1 0x1 PUSH1 0x20 MSTORE DUP1 PUSH1 0x0 MSTORE PUSH1 0x40 PUSH1 0x0 KECCAK256 PUSH1 0x0 SWAP2 POP SWAP1 POP DUP1 PUSH1 0x0 ADD DUP1 SLOAD PUSH2 0x87 SWAP1 PUSH2 0x2FD JUMP JUMPDEST DUP1 PUSH1 0x1F ADD PUSH1 0x20 DUP1 SWAP2 DIV MUL PUSH1 0x20 ADD PUSH1 0x40 MLOAD SWAP1 DUP2 ADD PUSH1 0x40 MSTORE DUP1 SWAP3 SWAP2 SWAP1 DUP2 DUP2 MSTORE PUSH1 0x20 ADD DUP3 DUP1 SLOAD PUSH2 0xB3 SWAP1 PUSH2 0x2FD JUMP JUMPDEST DUP1 ISZERO PUSH2 0x100 JUMPI DUP1 PUSH1 0x1F LT PUSH2 0xD5 JUMPI PUSH2 0x100 DUP1 DUP4 SLOAD DIV MUL DUP4 MSTORE SWAP2 PUSH1 0x20 ADD SWAP2 PUSH2 0x100 JUMP JUMPDEST DUP3 ADD SWAP2 SWAP1 PUSH1 0x0 MSTORE PUSH1 0x20 PUSH1 0x0 KECCAK256 SWAP1 JUMPDEST DUP2 SLOAD DUP2 MSTORE SWAP1 PUSH1 0x1 ADD SWAP1 PUSH1 0x20 ADD DUP1 DUP4 GT PUSH2 0xE3 JUMPI DUP3 SWAP1 SUB PUSH1 0x1F AND DUP3 ADD SWAP2 JUMPDEST POP POP POP POP POP SWAP1 DUP1 PUSH1 0x1 ADD SLOAD SWAP1 DUP1 PUSH1 0x2 ADD PUSH1 0x0 SWAP1 SLOAD SWAP1 PUSH2 0x100 EXP SWAP1 DIV PUSH20 0xFFFFFFFFFFFFFFFFFFFFFFFFFFFFFFFFFFFFFFFF AND SWAP1 DUP1 PUSH1 0x2 ADD PUSH1 0x14 SWAP1 SLOAD SWAP1 PUSH2 0x100 EXP SWAP1 DIV PUSH1 0xFF AND SWAP1 DUP1 PUSH1 0x3 ADD SLOAD SWAP1 POP DUP6 JUMP JUMPDEST PUSH1 0x0 DUP2 CALLDATALOAD SWAP1 POP PUSH2 0x15E DUP2 PUSH2 0x3B2 JUMP JUMPDEST SWAP3 SWAP2 POP POP JUMP JUMPDEST PUSH1 0x0 PUSH1 0x20 DUP3 DUP5 SUB SLT ISZERO PUSH2 0x176 JUMPI PUSH1 0x0 DUP1 REVERT JUMPDEST PUSH1 0x0 PUSH2 0x184 DUP5 DUP3 DUP6 ADD PUSH2 0x14F JUMP JUMPDEST SWAP2 POP POP SWAP3 SWAP2 POP POP JUMP JUMPDEST PUSH2 0x196 DUP2 PUSH2 0x269 JUMP JUMPDEST DUP3 MSTORE POP POP JUMP JUMPDEST PUSH2 0x1A5 DUP2 PUSH2 0x2B8 JUMP JUMPDEST DUP3 MSTORE POP POP JUMP JUMPDEST PUSH1 0x0 PUSH2 0x1B6 DUP3 PUSH2 0x24D JUMP JUMPDEST PUSH2 0x1C0 DUP2 DUP6 PUSH2 0x258 JUMP JUMPDEST SWAP4 POP PUSH2 0x1D0 DUP2 DUP6 PUSH1 0x20 DUP7 ADD PUSH2 0x2CA JUMP JUMPDEST PUSH2 0x1D9 DUP2 PUSH2 0x38D JUMP JUMPDEST DUP5 ADD SWAP2 POP POP SWAP3 SWAP2 POP POP JUMP JUMPDEST PUSH2 0x1ED DUP2 PUSH2 0x2AE JUMP JUMPDEST DUP3 MSTORE POP POP JUMP JUMPDEST PUSH1 0x0 PUSH1 0xA0 DUP3 ADD SWAP1 POP DUP2 DUP2 SUB PUSH1 0x0 DUP4 ADD MSTORE PUSH2 0x20D DUP2 DUP9 PUSH2 0x1AB JUMP JUMPDEST SWAP1 POP PUSH2 0x21C PUSH1 0x20 DUP4 ADD DUP8 PUSH2 0x1E4 JUMP JUMPDEST PUSH2 0x229 PUSH1 0x40 DUP4 ADD DUP7 PUSH2 0x18D JUMP JUMPDEST PUSH2 0x236 PUSH1 0x60 DUP4 ADD DUP6 PUSH2 0x19C JUMP JUMPDEST PUSH2 0x243 PUSH1 0x80 DUP4 ADD DUP5 PUSH2 0x1E4 JUMP JUMPDEST SWAP7 SWAP6 POP POP POP POP POP POP JUMP JUMPDEST PUSH1 0x0 DUP2 MLOAD SWAP1 POP SWAP2 SWAP1 POP JUMP JUMPDEST PUSH1 0x0 DUP3 DUP3 MSTORE PUSH1 0x20 DUP3 ADD SWAP1 POP SWAP3 SWAP2 POP POP JUMP JUMPDEST PUSH1 0x0 PUSH2 0x274 DUP3 PUSH2 0x28E JUMP JUMPDEST SWAP1 POP SWAP2 SWAP1 POP JUMP JUMPDEST PUSH1 0x0 DUP2 SWAP1 POP PUSH2 0x289 DUP3 PUSH2 0x39E JUMP JUMPDEST SWAP2 SWAP1 POP JUMP JUMPDEST PUSH1 0x0 PUSH20 0xFFFFFFFFFFFFFFFFFFFFFFFFFFFFFFFFFFFFFFFF DUP3 AND SWAP1 POP SWAP2 SWAP1 POP JUMP JUMPDEST PUSH1 0x0 DUP2 SWAP1 POP SWAP2 SWAP1 POP JUMP JUMPDEST PUSH1 0x0 PUSH2 0x2C3 DUP3 PUSH2 0x27B JUMP JUMPDEST SWAP1 POP SWAP2 SWAP1 POP JUMP JUMPDEST PUSH1 0x0 JUMPDEST DUP4 DUP2 LT ISZERO PUSH2 0x2E8 JUMPI DUP1 DUP3 ADD MLOAD DUP2 DUP5 ADD MSTORE PUSH1 0x20 DUP2 ADD SWAP1 POP PUSH2 0x2CD JUMP JUMPDEST DUP4 DUP2 GT ISZERO PUSH2 0x2F7 JUMPI PUSH1 0x0 DUP5 DUP5 ADD MSTORE JUMPDEST POP POP POP POP JUMP JUMPDEST PUSH1 0x0 PUSH1 0x2 DUP3 DIV SWAP1 POP PUSH1 0x1 DUP3 AND DUP1 PUSH2 0x315 JUMPI PUSH1 0x7F DUP3 AND SWAP2 POP JUMPDEST PUSH1 0x20 DUP3 LT DUP2 EQ ISZERO PUSH2 0x329 JUMPI PUSH2 0x328 PUSH2 0x35E JUMP JUMPDEST JUMPDEST POP SWAP2 SWAP1 POP JUMP JUMPDEST PUSH32 0x4E487B7100000000000000000000000000000000000000000000000000000000 PUSH1 0x0 MSTORE PUSH1 0x21 PUSH1 0x4 MSTORE PUSH1 0x24 PUSH1 0x0 REVERT JUMPDEST PUSH32 0x4E487B7100000000000000000000000000000000000000000000000000000000 PUSH1 0x0 MSTORE PUSH1 0x22 PUSH1 0x4 MSTORE PUSH1 0x24 PUSH1 0x0 REVERT JUMPDEST PUSH1 0x0 PUSH1 0x1F NOT PUSH1 0x1F DUP4 ADD AND SWAP1 POP SWAP2 SWAP1 POP JUMP JUMPDEST PUSH1 0x7 DUP2 LT PUSH2 0x3AF JUMPI PUSH2 0x3AE PUSH2 0x32F JUMP JUMPDEST JUMPDEST POP JUMP JUMPDEST PUSH2 0x3BB DUP2 PUSH2 0x2AE JUMP JUMPDEST DUP2 EQ PUSH2 0x3C6 JUMPI PUSH1 0x0 DUP1 REVERT JUMPDEST POP JUMP INVALID LOG2 PUSH5 0x6970667358 0x22 SLT KECCAK256 MOD INVALID PUSH30 0x57AEFD00315B7B6A956A3DE386A7380FFE3859E92A90F6E774150A37A964 PUSH20 0x6F6C634300080000330000000000000000000000 "
				},
				"gasEstimates": {
					"creation": {
						"codeDepositCost": "204600",
						"executionCost": "5251",
						"totalCost": "209851"
					},
					"external": {
						"Items(uint256)": "infinite"
					}
				},
				"methodIdentifiers": {
					"Items(uint256)": "17b47cc4"
				}
			},
			"userdoc": {
				"kind": "user",
				"methods": {},
				"version": 1
			}
		}
	}
}