{
	"contracts/main.sol": {
		"Supplychain": {
			"abi": [
				{
					"anonymous": false,
					"inputs": [
						{
							"indexed": false,
							"internalType": "uint256",
							"name": "upc",
							"type": "uint256"
						}
					],
					"name": "checked",
					"type": "event"
				},
				{
					"anonymous": false,
					"inputs": [
						{
							"indexed": false,
							"internalType": "uint256",
							"name": "upc",
							"type": "uint256"
						},
						{
							"indexed": false,
							"internalType": "address",
							"name": "_address",
							"type": "address"
						}
					],
					"name": "itemcreated",
					"type": "event"
				},
				{
					"anonymous": false,
					"inputs": [
						{
							"indexed": false,
							"internalType": "uint256",
							"name": "upc",
							"type": "uint256"
						}
					],
					"name": "openForSale",
					"type": "event"
				},
				{
					"anonymous": false,
					"inputs": [
						{
							"indexed": false,
							"internalType": "uint256",
							"name": "upc",
							"type": "uint256"
						},
						{
							"indexed": false,
							"internalType": "address",
							"name": "_address",
							"type": "address"
						}
					],
					"name": "orderPlaced",
					"type": "event"
				},
				{
					"anonymous": false,
					"inputs": [
						{
							"indexed": false,
							"internalType": "uint256",
							"name": "upc",
							"type": "uint256"
						},
						{
							"indexed": false,
							"internalType": "address",
							"name": "_address",
							"type": "address"
						}
					],
					"name": "received",
					"type": "event"
				},
				{
					"anonymous": false,
					"inputs": [
						{
							"indexed": false,
							"internalType": "uint256",
							"name": "upc",
							"type": "uint256"
						},
						{
							"indexed": false,
							"internalType": "address",
							"name": "_address",
							"type": "address"
						}
					],
					"name": "shipped",
					"type": "event"
				},
				{
					"inputs": [
						{
							"internalType": "uint256",
							"name": "",
							"type": "uint256"
						}
					],
					"name": "Items",
					"outputs": [
						{
							"internalType": "string",
							"name": "product_name",
							"type": "string"
						},
						{
							"internalType": "uint256",
							"name": "productId",
							"type": "uint256"
						},
						{
							"internalType": "address",
							"name": "itemOwner",
							"type": "address"
						},
						{
							"internalType": "enum Item.state",
							"name": "itemState",
							"type": "uint8"
						},
						{
							"internalType": "uint256",
							"name": "cost",
							"type": "uint256"
						}
					],
					"stateMutability": "view",
					"type": "function"
				},
				{
					"inputs": [
						{
							"internalType": "string",
							"name": "_uname",
							"type": "string"
						}
					],
					"name": "addSupplier",
					"outputs": [],
					"stateMutability": "nonpayable",
					"type": "function"
				},
				{
					"inputs": [
						{
							"internalType": "uint256",
							"name": "",
							"type": "uint256"
						}
					],
					"name": "participants",
					"outputs": [
						{
							"internalType": "string",
							"name": "username",
							"type": "string"
						},
						{
							"internalType": "uint256",
							"name": "userId",
							"type": "uint256"
						},
						{
							"internalType": "enum participant.user_type",
							"name": "utype",
							"type": "uint8"
						},
						{
							"internalType": "address",
							"name": "user_address",
							"type": "address"
						},
						{
							"internalType": "uint256",
							"name": "money",
							"type": "uint256"
						}
					],
					"stateMutability": "view",
					"type": "function"
				}
			],
			"devdoc": {
				"kind": "dev",
				"methods": {},
				"version": 1
			},
			"evm": {
				"assembly": "    /* \"contracts/main.sol\":77:592  contract Supplychain is participant , Item{\r... */\n  mstore(0x40, 0x80)\n    /* \"contracts/member.sol\":62:63  0 */\n  0x00\n    /* \"contracts/member.sol\":54:63  uint pc=0 */\n  dup1\n  sstore\n    /* \"contracts/item.sol\":54:55  0 */\n  0x00\n    /* \"contracts/item.sol\":46:55  uint ic=0 */\n  0x03\n  sstore\n    /* \"contracts/main.sol\":77:592  contract Supplychain is participant , Item{\r... */\n  callvalue\n  dup1\n  iszero\n  tag_1\n  jumpi\n  0x00\n  dup1\n  revert\ntag_1:\n  pop\n  dataSize(sub_0)\n  dup1\n  dataOffset(sub_0)\n  0x00\n  codecopy\n  0x00\n  return\nstop\n\nsub_0: assembly {\n        /* \"contracts/main.sol\":77:592  contract Supplychain is participant , Item{\r... */\n      mstore(0x40, 0x80)\n      callvalue\n      dup1\n      iszero\n      tag_1\n      jumpi\n      0x00\n      dup1\n      revert\n    tag_1:\n      pop\n      jumpi(tag_2, lt(calldatasize, 0x04))\n      shr(0xe0, calldataload(0x00))\n      dup1\n      0x15533a27\n      eq\n      tag_3\n      jumpi\n      dup1\n      0x17b47cc4\n      eq\n      tag_4\n      jumpi\n      dup1\n      0x35c1d349\n      eq\n      tag_5\n      jumpi\n    tag_2:\n      0x00\n      dup1\n      revert\n        /* \"contracts/main.sol\":397:585  function addSupplier(string memory _uname) public{\r... */\n    tag_3:\n      tag_6\n      0x04\n      dup1\n      calldatasize\n      sub\n      dup2\n      add\n      swap1\n      tag_7\n      swap2\n      swap1\n      tag_8\n      jump\t// in\n    tag_7:\n      tag_9\n      jump\t// in\n    tag_6:\n      stop\n        /* \"contracts/item.sol\":386:418  mapping(uint=>item) public Items */\n    tag_4:\n      tag_10\n      0x04\n      dup1\n      calldatasize\n      sub\n      dup2\n      add\n      swap1\n      tag_11\n      swap2\n      swap1\n      tag_12\n      jump\t// in\n    tag_11:\n      tag_13\n      jump\t// in\n    tag_10:\n      mload(0x40)\n      tag_14\n      swap6\n      swap5\n      swap4\n      swap3\n      swap2\n      swap1\n      tag_15\n      jump\t// in\n    tag_14:\n      mload(0x40)\n      dup1\n      swap2\n      sub\n      swap1\n      return\n        /* \"contracts/member.sol\":347:393  mapping(uint=>participant) public participants */\n    tag_5:\n      tag_16\n      0x04\n      dup1\n      calldatasize\n      sub\n      dup2\n      add\n      swap1\n      tag_17\n      swap2\n      swap1\n      tag_12\n      jump\t// in\n    tag_17:\n      tag_18\n      jump\t// in\n    tag_16:\n      mload(0x40)\n      tag_19\n      swap6\n      swap5\n      swap4\n      swap3\n      swap2\n      swap1\n      tag_20\n      jump\t// in\n    tag_19:\n      mload(0x40)\n      dup1\n      swap2\n      sub\n      swap1\n      return\n        /* \"contracts/main.sol\":397:585  function addSupplier(string memory _uname) public{\r... */\n    tag_9:\n        /* \"contracts/main.sol\":456:490  participant memory  newParticipant */\n      tag_22\n      tag_23\n      jump\t// in\n    tag_22:\n        /* \"contracts/main.sol\":525:531  _uname */\n      dup2\n        /* \"contracts/main.sol\":500:514  newParticipant */\n      dup2\n        /* \"contracts/main.sol\":500:523  newParticipant.username */\n      0x00\n      add\n        /* \"contracts/main.sol\":500:531  newParticipant.username =_uname */\n      dup2\n      swap1\n      mstore\n      pop\n        /* \"contracts/main.sol\":565:567  pc */\n      sload(0x00)\n        /* \"contracts/main.sol\":541:555  newParticipant */\n      dup2\n        /* \"contracts/main.sol\":541:562  newParticipant.userId */\n      0x20\n      add\n        /* \"contracts/main.sol\":541:567  newParticipant.userId = pc */\n      dup2\n      dup2\n      mstore\n      pop\n      pop\n        /* \"contracts/main.sol\":397:585  function addSupplier(string memory _uname) public{\r... */\n      pop\n      pop\n      jump\t// out\n        /* \"contracts/item.sol\":386:418  mapping(uint=>item) public Items */\n    tag_13:\n      mstore(0x20, 0x04)\n      dup1\n      0x00\n      mstore\n      keccak256(0x00, 0x40)\n      0x00\n      swap2\n      pop\n      swap1\n      pop\n      dup1\n      0x00\n      add\n      dup1\n      sload\n      tag_24\n      swap1\n      tag_25\n      jump\t// in\n    tag_24:\n      dup1\n      0x1f\n      add\n      0x20\n      dup1\n      swap2\n      div\n      mul\n      0x20\n      add\n      mload(0x40)\n      swap1\n      dup2\n      add\n      0x40\n      mstore\n      dup1\n      swap3\n      swap2\n      swap1\n      dup2\n      dup2\n      mstore\n      0x20\n      add\n      dup3\n      dup1\n      sload\n      tag_26\n      swap1\n      tag_25\n      jump\t// in\n    tag_26:\n      dup1\n      iszero\n      tag_27\n      jumpi\n      dup1\n      0x1f\n      lt\n      tag_28\n      jumpi\n      0x0100\n      dup1\n      dup4\n      sload\n      div\n      mul\n      dup4\n      mstore\n      swap2\n      0x20\n      add\n      swap2\n      jump(tag_27)\n    tag_28:\n      dup3\n      add\n      swap2\n      swap1\n      0x00\n      mstore\n      keccak256(0x00, 0x20)\n      swap1\n    tag_29:\n      dup2\n      sload\n      dup2\n      mstore\n      swap1\n      0x01\n      add\n      swap1\n      0x20\n      add\n      dup1\n      dup4\n      gt\n      tag_29\n      jumpi\n      dup3\n      swap1\n      sub\n      0x1f\n      and\n      dup3\n      add\n      swap2\n    tag_27:\n      pop\n      pop\n      pop\n      pop\n      pop\n      swap1\n      dup1\n      0x01\n      add\n      sload\n      swap1\n      dup1\n      0x02\n      add\n      0x00\n      swap1\n      sload\n      swap1\n      0x0100\n      exp\n      swap1\n      div\n      0xffffffffffffffffffffffffffffffffffffffff\n      and\n      swap1\n      dup1\n      0x02\n      add\n      0x14\n      swap1\n      sload\n      swap1\n      0x0100\n      exp\n      swap1\n      div\n      0xff\n      and\n      swap1\n      dup1\n      0x03\n      add\n      sload\n      swap1\n      pop\n      dup6\n      jump\t// out\n        /* \"contracts/member.sol\":347:393  mapping(uint=>participant) public participants */\n    tag_18:\n      mstore(0x20, 0x01)\n      dup1\n      0x00\n      mstore\n      keccak256(0x00, 0x40)\n      0x00\n      swap2\n      pop\n      swap1\n      pop\n      dup1\n      0x00\n      add\n      dup1\n      sload\n      tag_30\n      swap1\n      tag_25\n      jump\t// in\n    tag_30:\n      dup1\n      0x1f\n      add\n      0x20\n      dup1\n      swap2\n      div\n      mul\n      0x20\n      add\n      mload(0x40)\n      swap1\n      dup2\n      add\n      0x40\n      mstore\n      dup1\n      swap3\n      swap2\n      swap1\n      dup2\n      dup2\n      mstore\n      0x20\n      add\n      dup3\n      dup1\n      sload\n      tag_31\n      swap1\n      tag_25\n      jump\t// in\n    tag_31:\n      dup1\n      iszero\n      tag_32\n      jumpi\n      dup1\n      0x1f\n      lt\n      tag_33\n      jumpi\n      0x0100\n      dup1\n      dup4\n      sload\n      div\n      mul\n      dup4\n      mstore\n      swap2\n      0x20\n      add\n      swap2\n      jump(tag_32)\n    tag_33:\n      dup3\n      add\n      swap2\n      swap1\n      0x00\n      mstore\n      keccak256(0x00, 0x20)\n      swap1\n    tag_34:\n      dup2\n      sload\n      dup2\n      mstore\n      swap1\n      0x01\n      add\n      swap1\n      0x20\n      add\n      dup1\n      dup4\n      gt\n      tag_34\n      jumpi\n      dup3\n      swap1\n      sub\n      0x1f\n      and\n      dup3\n      add\n      swap2\n    tag_32:\n      pop\n      pop\n      pop\n      pop\n      pop\n      swap1\n      dup1\n      0x01\n      add\n      sload\n      swap1\n      dup1\n      0x02\n      add\n      0x00\n      swap1\n      sload\n      swap1\n      0x0100\n      exp\n      swap1\n      div\n      0xff\n      and\n      swap1\n      dup1\n      0x02\n      add\n      0x01\n      swap1\n      sload\n      swap1\n      0x0100\n      exp\n      swap1\n      div\n      0xffffffffffffffffffffffffffffffffffffffff\n      and\n      swap1\n      dup1\n      0x03\n      add\n      sload\n      swap1\n      pop\n      dup6\n      jump\t// out\n    tag_23:\n      mload(0x40)\n      dup1\n      0xa0\n      add\n      0x40\n      mstore\n      dup1\n      0x60\n      dup2\n      mstore\n      0x20\n      add\n      0x00\n      dup2\n      mstore\n      0x20\n      add\n      0x00\n      0x03\n      dup2\n      gt\n      iszero\n      tag_35\n      jumpi\n      mstore(0x00, 0x4e487b7100000000000000000000000000000000000000000000000000000000)\n      mstore(0x04, 0x21)\n      revert(0x00, 0x24)\n    tag_35:\n      dup2\n      mstore\n      0x20\n      add\n      and(0xffffffffffffffffffffffffffffffffffffffff, 0x00)\n      dup2\n      mstore\n      0x20\n      add\n      0x00\n      dup2\n      mstore\n      pop\n      swap1\n      jump\t// out\n        /* \"#utility.yul\":7:351   */\n    tag_37:\n      0x00\n        /* \"#utility.yul\":110:175   */\n      tag_39\n        /* \"#utility.yul\":125:174   */\n      tag_40\n        /* \"#utility.yul\":167:173   */\n      dup5\n        /* \"#utility.yul\":125:174   */\n      tag_41\n      jump\t// in\n    tag_40:\n        /* \"#utility.yul\":110:175   */\n      tag_42\n      jump\t// in\n    tag_39:\n        /* \"#utility.yul\":101:175   */\n      swap1\n      pop\n        /* \"#utility.yul\":198:204   */\n      dup3\n        /* \"#utility.yul\":191:196   */\n      dup2\n        /* \"#utility.yul\":184:205   */\n      mstore\n        /* \"#utility.yul\":236:240   */\n      0x20\n        /* \"#utility.yul\":229:234   */\n      dup2\n        /* \"#utility.yul\":225:241   */\n      add\n        /* \"#utility.yul\":274:277   */\n      dup5\n        /* \"#utility.yul\":265:271   */\n      dup5\n        /* \"#utility.yul\":260:263   */\n      dup5\n        /* \"#utility.yul\":256:272   */\n      add\n        /* \"#utility.yul\":253:278   */\n      gt\n        /* \"#utility.yul\":250:252   */\n      iszero\n      tag_43\n      jumpi\n        /* \"#utility.yul\":291:292   */\n      0x00\n        /* \"#utility.yul\":288:289   */\n      dup1\n        /* \"#utility.yul\":281:293   */\n      revert\n        /* \"#utility.yul\":250:252   */\n    tag_43:\n        /* \"#utility.yul\":304:345   */\n      tag_44\n        /* \"#utility.yul\":338:344   */\n      dup5\n        /* \"#utility.yul\":333:336   */\n      dup3\n        /* \"#utility.yul\":328:331   */\n      dup6\n        /* \"#utility.yul\":304:345   */\n      tag_45\n      jump\t// in\n    tag_44:\n        /* \"#utility.yul\":91:351   */\n      pop\n      swap4\n      swap3\n      pop\n      pop\n      pop\n      jump\t// out\n        /* \"#utility.yul\":371:644   */\n    tag_46:\n      0x00\n        /* \"#utility.yul\":476:479   */\n      dup3\n        /* \"#utility.yul\":469:473   */\n      0x1f\n        /* \"#utility.yul\":461:467   */\n      dup4\n        /* \"#utility.yul\":457:474   */\n      add\n        /* \"#utility.yul\":453:480   */\n      slt\n        /* \"#utility.yul\":443:445   */\n      tag_48\n      jumpi\n        /* \"#utility.yul\":494:495   */\n      0x00\n        /* \"#utility.yul\":491:492   */\n      dup1\n        /* \"#utility.yul\":484:496   */\n      revert\n        /* \"#utility.yul\":443:445   */\n    tag_48:\n        /* \"#utility.yul\":534:540   */\n      dup2\n        /* \"#utility.yul\":521:541   */\n      calldataload\n        /* \"#utility.yul\":559:638   */\n      tag_49\n        /* \"#utility.yul\":634:637   */\n      dup5\n        /* \"#utility.yul\":626:632   */\n      dup3\n        /* \"#utility.yul\":619:623   */\n      0x20\n        /* \"#utility.yul\":611:617   */\n      dup7\n        /* \"#utility.yul\":607:624   */\n      add\n        /* \"#utility.yul\":559:638   */\n      tag_37\n      jump\t// in\n    tag_49:\n        /* \"#utility.yul\":550:638   */\n      swap2\n      pop\n        /* \"#utility.yul\":433:644   */\n      pop\n      swap3\n      swap2\n      pop\n      pop\n      jump\t// out\n        /* \"#utility.yul\":650:789   */\n    tag_50:\n      0x00\n        /* \"#utility.yul\":734:740   */\n      dup2\n        /* \"#utility.yul\":721:741   */\n      calldataload\n        /* \"#utility.yul\":712:741   */\n      swap1\n      pop\n        /* \"#utility.yul\":750:783   */\n      tag_52\n        /* \"#utility.yul\":777:782   */\n      dup2\n        /* \"#utility.yul\":750:783   */\n      tag_53\n      jump\t// in\n    tag_52:\n        /* \"#utility.yul\":702:789   */\n      swap3\n      swap2\n      pop\n      pop\n      jump\t// out\n        /* \"#utility.yul\":795:1170   */\n    tag_8:\n      0x00\n        /* \"#utility.yul\":913:915   */\n      0x20\n        /* \"#utility.yul\":901:910   */\n      dup3\n        /* \"#utility.yul\":892:899   */\n      dup5\n        /* \"#utility.yul\":888:911   */\n      sub\n        /* \"#utility.yul\":884:916   */\n      slt\n        /* \"#utility.yul\":881:883   */\n      iszero\n      tag_55\n      jumpi\n        /* \"#utility.yul\":929:930   */\n      0x00\n        /* \"#utility.yul\":926:927   */\n      dup1\n        /* \"#utility.yul\":919:931   */\n      revert\n        /* \"#utility.yul\":881:883   */\n    tag_55:\n        /* \"#utility.yul\":1000:1001   */\n      0x00\n        /* \"#utility.yul\":989:998   */\n      dup3\n        /* \"#utility.yul\":985:1002   */\n      add\n        /* \"#utility.yul\":972:1003   */\n      calldataload\n        /* \"#utility.yul\":1030:1048   */\n      0xffffffffffffffff\n        /* \"#utility.yul\":1022:1028   */\n      dup2\n        /* \"#utility.yul\":1019:1049   */\n      gt\n        /* \"#utility.yul\":1016:1018   */\n      iszero\n      tag_56\n      jumpi\n        /* \"#utility.yul\":1062:1063   */\n      0x00\n        /* \"#utility.yul\":1059:1060   */\n      dup1\n        /* \"#utility.yul\":1052:1064   */\n      revert\n        /* \"#utility.yul\":1016:1018   */\n    tag_56:\n        /* \"#utility.yul\":1090:1153   */\n      tag_57\n        /* \"#utility.yul\":1145:1152   */\n      dup5\n        /* \"#utility.yul\":1136:1142   */\n      dup3\n        /* \"#utility.yul\":1125:1134   */\n      dup6\n        /* \"#utility.yul\":1121:1143   */\n      add\n        /* \"#utility.yul\":1090:1153   */\n      tag_46\n      jump\t// in\n    tag_57:\n        /* \"#utility.yul\":1080:1153   */\n      swap2\n      pop\n        /* \"#utility.yul\":943:1163   */\n      pop\n        /* \"#utility.yul\":871:1170   */\n      swap3\n      swap2\n      pop\n      pop\n      jump\t// out\n        /* \"#utility.yul\":1176:1438   */\n    tag_12:\n      0x00\n        /* \"#utility.yul\":1284:1286   */\n      0x20\n        /* \"#utility.yul\":1272:1281   */\n      dup3\n        /* \"#utility.yul\":1263:1270   */\n      dup5\n        /* \"#utility.yul\":1259:1282   */\n      sub\n        /* \"#utility.yul\":1255:1287   */\n      slt\n        /* \"#utility.yul\":1252:1254   */\n      iszero\n      tag_59\n      jumpi\n        /* \"#utility.yul\":1300:1301   */\n      0x00\n        /* \"#utility.yul\":1297:1298   */\n      dup1\n        /* \"#utility.yul\":1290:1302   */\n      revert\n        /* \"#utility.yul\":1252:1254   */\n    tag_59:\n        /* \"#utility.yul\":1343:1344   */\n      0x00\n        /* \"#utility.yul\":1368:1421   */\n      tag_60\n        /* \"#utility.yul\":1413:1420   */\n      dup5\n        /* \"#utility.yul\":1404:1410   */\n      dup3\n        /* \"#utility.yul\":1393:1402   */\n      dup6\n        /* \"#utility.yul\":1389:1411   */\n      add\n        /* \"#utility.yul\":1368:1421   */\n      tag_50\n      jump\t// in\n    tag_60:\n        /* \"#utility.yul\":1358:1421   */\n      swap2\n      pop\n        /* \"#utility.yul\":1314:1431   */\n      pop\n        /* \"#utility.yul\":1242:1438   */\n      swap3\n      swap2\n      pop\n      pop\n      jump\t// out\n        /* \"#utility.yul\":1444:1562   */\n    tag_61:\n        /* \"#utility.yul\":1531:1555   */\n      tag_63\n        /* \"#utility.yul\":1549:1554   */\n      dup2\n        /* \"#utility.yul\":1531:1555   */\n      tag_64\n      jump\t// in\n    tag_63:\n        /* \"#utility.yul\":1526:1529   */\n      dup3\n        /* \"#utility.yul\":1519:1556   */\n      mstore\n        /* \"#utility.yul\":1509:1562   */\n      pop\n      pop\n      jump\t// out\n        /* \"#utility.yul\":1568:1711   */\n    tag_65:\n        /* \"#utility.yul\":1661:1704   */\n      tag_67\n        /* \"#utility.yul\":1698:1703   */\n      dup2\n        /* \"#utility.yul\":1661:1704   */\n      tag_68\n      jump\t// in\n    tag_67:\n        /* \"#utility.yul\":1656:1659   */\n      dup3\n        /* \"#utility.yul\":1649:1705   */\n      mstore\n        /* \"#utility.yul\":1639:1711   */\n      pop\n      pop\n      jump\t// out\n        /* \"#utility.yul\":1717:1870   */\n    tag_69:\n        /* \"#utility.yul\":1815:1863   */\n      tag_71\n        /* \"#utility.yul\":1857:1862   */\n      dup2\n        /* \"#utility.yul\":1815:1863   */\n      tag_72\n      jump\t// in\n    tag_71:\n        /* \"#utility.yul\":1810:1813   */\n      dup3\n        /* \"#utility.yul\":1803:1864   */\n      mstore\n        /* \"#utility.yul\":1793:1870   */\n      pop\n      pop\n      jump\t// out\n        /* \"#utility.yul\":1876:2240   */\n    tag_73:\n      0x00\n        /* \"#utility.yul\":1992:2031   */\n      tag_75\n        /* \"#utility.yul\":2025:2030   */\n      dup3\n        /* \"#utility.yul\":1992:2031   */\n      tag_76\n      jump\t// in\n    tag_75:\n        /* \"#utility.yul\":2047:2118   */\n      tag_77\n        /* \"#utility.yul\":2111:2117   */\n      dup2\n        /* \"#utility.yul\":2106:2109   */\n      dup6\n        /* \"#utility.yul\":2047:2118   */\n      tag_78\n      jump\t// in\n    tag_77:\n        /* \"#utility.yul\":2040:2118   */\n      swap4\n      pop\n        /* \"#utility.yul\":2127:2179   */\n      tag_79\n        /* \"#utility.yul\":2172:2178   */\n      dup2\n        /* \"#utility.yul\":2167:2170   */\n      dup6\n        /* \"#utility.yul\":2160:2164   */\n      0x20\n        /* \"#utility.yul\":2153:2158   */\n      dup7\n        /* \"#utility.yul\":2149:2165   */\n      add\n        /* \"#utility.yul\":2127:2179   */\n      tag_80\n      jump\t// in\n    tag_79:\n        /* \"#utility.yul\":2204:2233   */\n      tag_81\n        /* \"#utility.yul\":2226:2232   */\n      dup2\n        /* \"#utility.yul\":2204:2233   */\n      tag_82\n      jump\t// in\n    tag_81:\n        /* \"#utility.yul\":2199:2202   */\n      dup5\n        /* \"#utility.yul\":2195:2234   */\n      add\n        /* \"#utility.yul\":2188:2234   */\n      swap2\n      pop\n        /* \"#utility.yul\":1968:2240   */\n      pop\n      swap3\n      swap2\n      pop\n      pop\n      jump\t// out\n        /* \"#utility.yul\":2246:2364   */\n    tag_83:\n        /* \"#utility.yul\":2333:2357   */\n      tag_85\n        /* \"#utility.yul\":2351:2356   */\n      dup2\n        /* \"#utility.yul\":2333:2357   */\n      tag_86\n      jump\t// in\n    tag_85:\n        /* \"#utility.yul\":2328:2331   */\n      dup3\n        /* \"#utility.yul\":2321:2358   */\n      mstore\n        /* \"#utility.yul\":2311:2364   */\n      pop\n      pop\n      jump\t// out\n        /* \"#utility.yul\":2370:3137   */\n    tag_15:\n      0x00\n        /* \"#utility.yul\":2639:2642   */\n      0xa0\n        /* \"#utility.yul\":2628:2637   */\n      dup3\n        /* \"#utility.yul\":2624:2643   */\n      add\n        /* \"#utility.yul\":2616:2643   */\n      swap1\n      pop\n        /* \"#utility.yul\":2689:2698   */\n      dup2\n        /* \"#utility.yul\":2683:2687   */\n      dup2\n        /* \"#utility.yul\":2679:2699   */\n      sub\n        /* \"#utility.yul\":2675:2676   */\n      0x00\n        /* \"#utility.yul\":2664:2673   */\n      dup4\n        /* \"#utility.yul\":2660:2677   */\n      add\n        /* \"#utility.yul\":2653:2700   */\n      mstore\n        /* \"#utility.yul\":2717:2795   */\n      tag_88\n        /* \"#utility.yul\":2790:2794   */\n      dup2\n        /* \"#utility.yul\":2781:2787   */\n      dup9\n        /* \"#utility.yul\":2717:2795   */\n      tag_73\n      jump\t// in\n    tag_88:\n        /* \"#utility.yul\":2709:2795   */\n      swap1\n      pop\n        /* \"#utility.yul\":2805:2877   */\n      tag_89\n        /* \"#utility.yul\":2873:2875   */\n      0x20\n        /* \"#utility.yul\":2862:2871   */\n      dup4\n        /* \"#utility.yul\":2858:2876   */\n      add\n        /* \"#utility.yul\":2849:2855   */\n      dup8\n        /* \"#utility.yul\":2805:2877   */\n      tag_83\n      jump\t// in\n    tag_89:\n        /* \"#utility.yul\":2887:2959   */\n      tag_90\n        /* \"#utility.yul\":2955:2957   */\n      0x40\n        /* \"#utility.yul\":2944:2953   */\n      dup4\n        /* \"#utility.yul\":2940:2958   */\n      add\n        /* \"#utility.yul\":2931:2937   */\n      dup7\n        /* \"#utility.yul\":2887:2959   */\n      tag_61\n      jump\t// in\n    tag_90:\n        /* \"#utility.yul\":2969:3047   */\n      tag_91\n        /* \"#utility.yul\":3043:3045   */\n      0x60\n        /* \"#utility.yul\":3032:3041   */\n      dup4\n        /* \"#utility.yul\":3028:3046   */\n      add\n        /* \"#utility.yul\":3019:3025   */\n      dup6\n        /* \"#utility.yul\":2969:3047   */\n      tag_65\n      jump\t// in\n    tag_91:\n        /* \"#utility.yul\":3057:3130   */\n      tag_92\n        /* \"#utility.yul\":3125:3128   */\n      0x80\n        /* \"#utility.yul\":3114:3123   */\n      dup4\n        /* \"#utility.yul\":3110:3129   */\n      add\n        /* \"#utility.yul\":3101:3107   */\n      dup5\n        /* \"#utility.yul\":3057:3130   */\n      tag_83\n      jump\t// in\n    tag_92:\n        /* \"#utility.yul\":2606:3137   */\n      swap7\n      swap6\n      pop\n      pop\n      pop\n      pop\n      pop\n      pop\n      jump\t// out\n        /* \"#utility.yul\":3143:3920   */\n    tag_20:\n      0x00\n        /* \"#utility.yul\":3417:3420   */\n      0xa0\n        /* \"#utility.yul\":3406:3415   */\n      dup3\n        /* \"#utility.yul\":3402:3421   */\n      add\n        /* \"#utility.yul\":3394:3421   */\n      swap1\n      pop\n        /* \"#utility.yul\":3467:3476   */\n      dup2\n        /* \"#utility.yul\":3461:3465   */\n      dup2\n        /* \"#utility.yul\":3457:3477   */\n      sub\n        /* \"#utility.yul\":3453:3454   */\n      0x00\n        /* \"#utility.yul\":3442:3451   */\n      dup4\n        /* \"#utility.yul\":3438:3455   */\n      add\n        /* \"#utility.yul\":3431:3478   */\n      mstore\n        /* \"#utility.yul\":3495:3573   */\n      tag_94\n        /* \"#utility.yul\":3568:3572   */\n      dup2\n        /* \"#utility.yul\":3559:3565   */\n      dup9\n        /* \"#utility.yul\":3495:3573   */\n      tag_73\n      jump\t// in\n    tag_94:\n        /* \"#utility.yul\":3487:3573   */\n      swap1\n      pop\n        /* \"#utility.yul\":3583:3655   */\n      tag_95\n        /* \"#utility.yul\":3651:3653   */\n      0x20\n        /* \"#utility.yul\":3640:3649   */\n      dup4\n        /* \"#utility.yul\":3636:3654   */\n      add\n        /* \"#utility.yul\":3627:3633   */\n      dup8\n        /* \"#utility.yul\":3583:3655   */\n      tag_83\n      jump\t// in\n    tag_95:\n        /* \"#utility.yul\":3665:3748   */\n      tag_96\n        /* \"#utility.yul\":3744:3746   */\n      0x40\n        /* \"#utility.yul\":3733:3742   */\n      dup4\n        /* \"#utility.yul\":3729:3747   */\n      add\n        /* \"#utility.yul\":3720:3726   */\n      dup7\n        /* \"#utility.yul\":3665:3748   */\n      tag_69\n      jump\t// in\n    tag_96:\n        /* \"#utility.yul\":3758:3830   */\n      tag_97\n        /* \"#utility.yul\":3826:3828   */\n      0x60\n        /* \"#utility.yul\":3815:3824   */\n      dup4\n        /* \"#utility.yul\":3811:3829   */\n      add\n        /* \"#utility.yul\":3802:3808   */\n      dup6\n        /* \"#utility.yul\":3758:3830   */\n      tag_61\n      jump\t// in\n    tag_97:\n        /* \"#utility.yul\":3840:3913   */\n      tag_98\n        /* \"#utility.yul\":3908:3911   */\n      0x80\n        /* \"#utility.yul\":3897:3906   */\n      dup4\n        /* \"#utility.yul\":3893:3912   */\n      add\n        /* \"#utility.yul\":3884:3890   */\n      dup5\n        /* \"#utility.yul\":3840:3913   */\n      tag_83\n      jump\t// in\n    tag_98:\n        /* \"#utility.yul\":3384:3920   */\n      swap7\n      swap6\n      pop\n      pop\n      pop\n      pop\n      pop\n      pop\n      jump\t// out\n        /* \"#utility.yul\":3926:4209   */\n    tag_42:\n      0x00\n        /* \"#utility.yul\":3992:3994   */\n      0x40\n        /* \"#utility.yul\":3986:3995   */\n      mload\n        /* \"#utility.yul\":3976:3995   */\n      swap1\n      pop\n        /* \"#utility.yul\":4034:4038   */\n      dup2\n        /* \"#utility.yul\":4026:4032   */\n      dup2\n        /* \"#utility.yul\":4022:4039   */\n      add\n        /* \"#utility.yul\":4141:4147   */\n      dup2\n        /* \"#utility.yul\":4129:4139   */\n      dup2\n        /* \"#utility.yul\":4126:4148   */\n      lt\n        /* \"#utility.yul\":4105:4123   */\n      0xffffffffffffffff\n        /* \"#utility.yul\":4093:4103   */\n      dup3\n        /* \"#utility.yul\":4090:4124   */\n      gt\n        /* \"#utility.yul\":4087:4149   */\n      or\n        /* \"#utility.yul\":4084:4086   */\n      iszero\n      tag_100\n      jumpi\n        /* \"#utility.yul\":4152:4170   */\n      tag_101\n      tag_102\n      jump\t// in\n    tag_101:\n        /* \"#utility.yul\":4084:4086   */\n    tag_100:\n        /* \"#utility.yul\":4192:4202   */\n      dup1\n        /* \"#utility.yul\":4188:4190   */\n      0x40\n        /* \"#utility.yul\":4181:4203   */\n      mstore\n        /* \"#utility.yul\":3966:4209   */\n      pop\n      swap2\n      swap1\n      pop\n      jump\t// out\n        /* \"#utility.yul\":4215:4547   */\n    tag_41:\n      0x00\n        /* \"#utility.yul\":4367:4385   */\n      0xffffffffffffffff\n        /* \"#utility.yul\":4359:4365   */\n      dup3\n        /* \"#utility.yul\":4356:4386   */\n      gt\n        /* \"#utility.yul\":4353:4355   */\n      iszero\n      tag_104\n      jumpi\n        /* \"#utility.yul\":4389:4407   */\n      tag_105\n      tag_102\n      jump\t// in\n    tag_105:\n        /* \"#utility.yul\":4353:4355   */\n    tag_104:\n        /* \"#utility.yul\":4474:4478   */\n      0x1f\n        /* \"#utility.yul\":4470:4479   */\n      not\n        /* \"#utility.yul\":4463:4467   */\n      0x1f\n        /* \"#utility.yul\":4455:4461   */\n      dup4\n        /* \"#utility.yul\":4451:4468   */\n      add\n        /* \"#utility.yul\":4447:4480   */\n      and\n        /* \"#utility.yul\":4439:4480   */\n      swap1\n      pop\n        /* \"#utility.yul\":4535:4539   */\n      0x20\n        /* \"#utility.yul\":4529:4533   */\n      dup2\n        /* \"#utility.yul\":4525:4540   */\n      add\n        /* \"#utility.yul\":4517:4540   */\n      swap1\n      pop\n        /* \"#utility.yul\":4282:4547   */\n      swap2\n      swap1\n      pop\n      jump\t// out\n        /* \"#utility.yul\":4553:4652   */\n    tag_76:\n      0x00\n        /* \"#utility.yul\":4639:4644   */\n      dup2\n        /* \"#utility.yul\":4633:4645   */\n      mload\n        /* \"#utility.yul\":4623:4645   */\n      swap1\n      pop\n        /* \"#utility.yul\":4612:4652   */\n      swap2\n      swap1\n      pop\n      jump\t// out\n        /* \"#utility.yul\":4658:4827   */\n    tag_78:\n      0x00\n        /* \"#utility.yul\":4776:4782   */\n      dup3\n        /* \"#utility.yul\":4771:4774   */\n      dup3\n        /* \"#utility.yul\":4764:4783   */\n      mstore\n        /* \"#utility.yul\":4816:4820   */\n      0x20\n        /* \"#utility.yul\":4811:4814   */\n      dup3\n        /* \"#utility.yul\":4807:4821   */\n      add\n        /* \"#utility.yul\":4792:4821   */\n      swap1\n      pop\n        /* \"#utility.yul\":4754:4827   */\n      swap3\n      swap2\n      pop\n      pop\n      jump\t// out\n        /* \"#utility.yul\":4833:4929   */\n    tag_64:\n      0x00\n        /* \"#utility.yul\":4899:4923   */\n      tag_109\n        /* \"#utility.yul\":4917:4922   */\n      dup3\n        /* \"#utility.yul\":4899:4923   */\n      tag_110\n      jump\t// in\n    tag_109:\n        /* \"#utility.yul\":4888:4923   */\n      swap1\n      pop\n        /* \"#utility.yul\":4878:4929   */\n      swap2\n      swap1\n      pop\n      jump\t// out\n        /* \"#utility.yul\":4935:5062   */\n    tag_111:\n      0x00\n        /* \"#utility.yul\":5009:5014   */\n      dup2\n        /* \"#utility.yul\":4998:5014   */\n      swap1\n      pop\n        /* \"#utility.yul\":5015:5056   */\n      tag_113\n        /* \"#utility.yul\":5050:5055   */\n      dup3\n        /* \"#utility.yul\":5015:5056   */\n      tag_114\n      jump\t// in\n    tag_113:\n        /* \"#utility.yul\":4988:5062   */\n      swap2\n      swap1\n      pop\n      jump\t// out\n        /* \"#utility.yul\":5068:5205   */\n    tag_115:\n      0x00\n        /* \"#utility.yul\":5147:5152   */\n      dup2\n        /* \"#utility.yul\":5136:5152   */\n      swap1\n      pop\n        /* \"#utility.yul\":5153:5199   */\n      tag_117\n        /* \"#utility.yul\":5193:5198   */\n      dup3\n        /* \"#utility.yul\":5153:5199   */\n      tag_118\n      jump\t// in\n    tag_117:\n        /* \"#utility.yul\":5126:5205   */\n      swap2\n      swap1\n      pop\n      jump\t// out\n        /* \"#utility.yul\":5211:5337   */\n    tag_110:\n      0x00\n        /* \"#utility.yul\":5288:5330   */\n      0xffffffffffffffffffffffffffffffffffffffff\n        /* \"#utility.yul\":5281:5286   */\n      dup3\n        /* \"#utility.yul\":5277:5331   */\n      and\n        /* \"#utility.yul\":5266:5331   */\n      swap1\n      pop\n        /* \"#utility.yul\":5256:5337   */\n      swap2\n      swap1\n      pop\n      jump\t// out\n        /* \"#utility.yul\":5343:5420   */\n    tag_86:\n      0x00\n        /* \"#utility.yul\":5409:5414   */\n      dup2\n        /* \"#utility.yul\":5398:5414   */\n      swap1\n      pop\n        /* \"#utility.yul\":5388:5420   */\n      swap2\n      swap1\n      pop\n      jump\t// out\n        /* \"#utility.yul\":5426:5553   */\n    tag_68:\n      0x00\n        /* \"#utility.yul\":5515:5547   */\n      tag_122\n        /* \"#utility.yul\":5541:5546   */\n      dup3\n        /* \"#utility.yul\":5515:5547   */\n      tag_111\n      jump\t// in\n    tag_122:\n        /* \"#utility.yul\":5502:5547   */\n      swap1\n      pop\n        /* \"#utility.yul\":5492:5553   */\n      swap2\n      swap1\n      pop\n      jump\t// out\n        /* \"#utility.yul\":5559:5696   */\n    tag_72:\n      0x00\n        /* \"#utility.yul\":5653:5690   */\n      tag_124\n        /* \"#utility.yul\":5684:5689   */\n      dup3\n        /* \"#utility.yul\":5653:5690   */\n      tag_115\n      jump\t// in\n    tag_124:\n        /* \"#utility.yul\":5640:5690   */\n      swap1\n      pop\n        /* \"#utility.yul\":5630:5696   */\n      swap2\n      swap1\n      pop\n      jump\t// out\n        /* \"#utility.yul\":5702:5856   */\n    tag_45:\n        /* \"#utility.yul\":5786:5792   */\n      dup3\n        /* \"#utility.yul\":5781:5784   */\n      dup2\n        /* \"#utility.yul\":5776:5779   */\n      dup4\n        /* \"#utility.yul\":5763:5793   */\n      calldatacopy\n        /* \"#utility.yul\":5848:5849   */\n      0x00\n        /* \"#utility.yul\":5839:5845   */\n      dup4\n        /* \"#utility.yul\":5834:5837   */\n      dup4\n        /* \"#utility.yul\":5830:5846   */\n      add\n        /* \"#utility.yul\":5823:5850   */\n      mstore\n        /* \"#utility.yul\":5753:5856   */\n      pop\n      pop\n      pop\n      jump\t// out\n        /* \"#utility.yul\":5862:6169   */\n    tag_80:\n        /* \"#utility.yul\":5930:5931   */\n      0x00\n        /* \"#utility.yul\":5940:6053   */\n    tag_127:\n        /* \"#utility.yul\":5954:5960   */\n      dup4\n        /* \"#utility.yul\":5951:5952   */\n      dup2\n        /* \"#utility.yul\":5948:5961   */\n      lt\n        /* \"#utility.yul\":5940:6053   */\n      iszero\n      tag_129\n      jumpi\n        /* \"#utility.yul\":6039:6040   */\n      dup1\n        /* \"#utility.yul\":6034:6037   */\n      dup3\n        /* \"#utility.yul\":6030:6041   */\n      add\n        /* \"#utility.yul\":6024:6042   */\n      mload\n        /* \"#utility.yul\":6020:6021   */\n      dup2\n        /* \"#utility.yul\":6015:6018   */\n      dup5\n        /* \"#utility.yul\":6011:6022   */\n      add\n        /* \"#utility.yul\":6004:6043   */\n      mstore\n        /* \"#utility.yul\":5976:5978   */\n      0x20\n        /* \"#utility.yul\":5973:5974   */\n      dup2\n        /* \"#utility.yul\":5969:5979   */\n      add\n        /* \"#utility.yul\":5964:5979   */\n      swap1\n      pop\n        /* \"#utility.yul\":5940:6053   */\n      jump(tag_127)\n    tag_129:\n        /* \"#utility.yul\":6071:6077   */\n      dup4\n        /* \"#utility.yul\":6068:6069   */\n      dup2\n        /* \"#utility.yul\":6065:6078   */\n      gt\n        /* \"#utility.yul\":6062:6064   */\n      iszero\n      tag_130\n      jumpi\n        /* \"#utility.yul\":6151:6152   */\n      0x00\n        /* \"#utility.yul\":6142:6148   */\n      dup5\n        /* \"#utility.yul\":6137:6140   */\n      dup5\n        /* \"#utility.yul\":6133:6149   */\n      add\n        /* \"#utility.yul\":6126:6153   */\n      mstore\n        /* \"#utility.yul\":6062:6064   */\n    tag_130:\n        /* \"#utility.yul\":5911:6169   */\n      pop\n      pop\n      pop\n      pop\n      jump\t// out\n        /* \"#utility.yul\":6175:6495   */\n    tag_25:\n      0x00\n        /* \"#utility.yul\":6256:6257   */\n      0x02\n        /* \"#utility.yul\":6250:6254   */\n      dup3\n        /* \"#utility.yul\":6246:6258   */\n      div\n        /* \"#utility.yul\":6236:6258   */\n      swap1\n      pop\n        /* \"#utility.yul\":6303:6304   */\n      0x01\n        /* \"#utility.yul\":6297:6301   */\n      dup3\n        /* \"#utility.yul\":6293:6305   */\n      and\n        /* \"#utility.yul\":6324:6342   */\n      dup1\n        /* \"#utility.yul\":6314:6316   */\n      tag_132\n      jumpi\n        /* \"#utility.yul\":6380:6384   */\n      0x7f\n        /* \"#utility.yul\":6372:6378   */\n      dup3\n        /* \"#utility.yul\":6368:6385   */\n      and\n        /* \"#utility.yul\":6358:6385   */\n      swap2\n      pop\n        /* \"#utility.yul\":6314:6316   */\n    tag_132:\n        /* \"#utility.yul\":6442:6444   */\n      0x20\n        /* \"#utility.yul\":6434:6440   */\n      dup3\n        /* \"#utility.yul\":6431:6445   */\n      lt\n        /* \"#utility.yul\":6411:6429   */\n      dup2\n        /* \"#utility.yul\":6408:6446   */\n      eq\n        /* \"#utility.yul\":6405:6407   */\n      iszero\n      tag_133\n      jumpi\n        /* \"#utility.yul\":6461:6479   */\n      tag_134\n      tag_135\n      jump\t// in\n    tag_134:\n        /* \"#utility.yul\":6405:6407   */\n    tag_133:\n        /* \"#utility.yul\":6226:6495   */\n      pop\n      swap2\n      swap1\n      pop\n      jump\t// out\n        /* \"#utility.yul\":6501:6681   */\n    tag_136:\n        /* \"#utility.yul\":6549:6626   */\n      0x4e487b7100000000000000000000000000000000000000000000000000000000\n        /* \"#utility.yul\":6546:6547   */\n      0x00\n        /* \"#utility.yul\":6539:6627   */\n      mstore\n        /* \"#utility.yul\":6646:6650   */\n      0x21\n        /* \"#utility.yul\":6643:6644   */\n      0x04\n        /* \"#utility.yul\":6636:6651   */\n      mstore\n        /* \"#utility.yul\":6670:6674   */\n      0x24\n        /* \"#utility.yul\":6667:6668   */\n      0x00\n        /* \"#utility.yul\":6660:6675   */\n      revert\n        /* \"#utility.yul\":6687:6867   */\n    tag_135:\n        /* \"#utility.yul\":6735:6812   */\n      0x4e487b7100000000000000000000000000000000000000000000000000000000\n        /* \"#utility.yul\":6732:6733   */\n      0x00\n        /* \"#utility.yul\":6725:6813   */\n      mstore\n        /* \"#utility.yul\":6832:6836   */\n      0x22\n        /* \"#utility.yul\":6829:6830   */\n      0x04\n        /* \"#utility.yul\":6822:6837   */\n      mstore\n        /* \"#utility.yul\":6856:6860   */\n      0x24\n        /* \"#utility.yul\":6853:6854   */\n      0x00\n        /* \"#utility.yul\":6846:6861   */\n      revert\n        /* \"#utility.yul\":6873:7053   */\n    tag_102:\n        /* \"#utility.yul\":6921:6998   */\n      0x4e487b7100000000000000000000000000000000000000000000000000000000\n        /* \"#utility.yul\":6918:6919   */\n      0x00\n        /* \"#utility.yul\":6911:6999   */\n      mstore\n        /* \"#utility.yul\":7018:7022   */\n      0x41\n        /* \"#utility.yul\":7015:7016   */\n      0x04\n        /* \"#utility.yul\":7008:7023   */\n      mstore\n        /* \"#utility.yul\":7042:7046   */\n      0x24\n        /* \"#utility.yul\":7039:7040   */\n      0x00\n        /* \"#utility.yul\":7032:7047   */\n      revert\n        /* \"#utility.yul\":7059:7161   */\n    tag_82:\n      0x00\n        /* \"#utility.yul\":7151:7153   */\n      0x1f\n        /* \"#utility.yul\":7147:7154   */\n      not\n        /* \"#utility.yul\":7142:7144   */\n      0x1f\n        /* \"#utility.yul\":7135:7140   */\n      dup4\n        /* \"#utility.yul\":7131:7145   */\n      add\n        /* \"#utility.yul\":7127:7155   */\n      and\n        /* \"#utility.yul\":7117:7155   */\n      swap1\n      pop\n        /* \"#utility.yul\":7107:7161   */\n      swap2\n      swap1\n      pop\n      jump\t// out\n        /* \"#utility.yul\":7167:7280   */\n    tag_114:\n        /* \"#utility.yul\":7248:7249   */\n      0x07\n        /* \"#utility.yul\":7241:7246   */\n      dup2\n        /* \"#utility.yul\":7238:7250   */\n      lt\n        /* \"#utility.yul\":7228:7230   */\n      tag_142\n      jumpi\n        /* \"#utility.yul\":7254:7272   */\n      tag_143\n      tag_136\n      jump\t// in\n    tag_143:\n        /* \"#utility.yul\":7228:7230   */\n    tag_142:\n        /* \"#utility.yul\":7218:7280   */\n      pop\n      jump\t// out\n        /* \"#utility.yul\":7286:7404   */\n    tag_118:\n        /* \"#utility.yul\":7372:7373   */\n      0x04\n        /* \"#utility.yul\":7365:7370   */\n      dup2\n        /* \"#utility.yul\":7362:7374   */\n      lt\n        /* \"#utility.yul\":7352:7354   */\n      tag_145\n      jumpi\n        /* \"#utility.yul\":7378:7396   */\n      tag_146\n      tag_136\n      jump\t// in\n    tag_146:\n        /* \"#utility.yul\":7352:7354   */\n    tag_145:\n        /* \"#utility.yul\":7342:7404   */\n      pop\n      jump\t// out\n        /* \"#utility.yul\":7410:7532   */\n    tag_53:\n        /* \"#utility.yul\":7483:7507   */\n      tag_148\n        /* \"#utility.yul\":7501:7506   */\n      dup2\n        /* \"#utility.yul\":7483:7507   */\n      tag_86\n      jump\t// in\n    tag_148:\n        /* \"#utility.yul\":7476:7481   */\n      dup2\n        /* \"#utility.yul\":7473:7508   */\n      eq\n        /* \"#utility.yul\":7463:7465   */\n      tag_149\n      jumpi\n        /* \"#utility.yul\":7522:7523   */\n      0x00\n        /* \"#utility.yul\":7519:7520   */\n      dup1\n        /* \"#utility.yul\":7512:7524   */\n      revert\n        /* \"#utility.yul\":7463:7465   */\n    tag_149:\n        /* \"#utility.yul\":7453:7532   */\n      pop\n      jump\t// out\n\n    auxdata: 0xa2646970667358221220170177ac1c290943ac25b02d7db4fada8900279358c5ccc63f6eac8c83a3ac3464736f6c63430008000033\n}\n",
				"bytecode": {
					"linkReferences": {},
					"object": "608060405260008055600060035534801561001957600080fd5b506107d8806100296000396000f3fe608060405234801561001057600080fd5b50600436106100415760003560e01c806315533a271461004657806317b47cc41461006257806335c1d34914610096575b600080fd5b610060600480360381019061005b91906103bb565b6100ca565b005b61007c600480360381019061007791906103fc565b6100eb565b60405161008d95949392919061049a565b60405180910390f35b6100b060048036038101906100ab91906103fc565b6101d6565b6040516100c19594939291906104f4565b60405180910390f35b6100d26102c1565b8181600001819052506000548160200181815250505050565b600460205280600052604060002060009150905080600001805461010e90610693565b80601f016020809104026020016040519081016040528092919081815260200182805461013a90610693565b80156101875780601f1061015c57610100808354040283529160200191610187565b820191906000526020600020905b81548152906001019060200180831161016a57829003601f168201915b5050505050908060010154908060020160009054906101000a900473ffffffffffffffffffffffffffffffffffffffff16908060020160149054906101000a900460ff16908060030154905085565b60016020528060005260406000206000915090508060000180546101f990610693565b80601f016020809104026020016040519081016040528092919081815260200182805461022590610693565b80156102725780601f1061024757610100808354040283529160200191610272565b820191906000526020600020905b81548152906001019060200180831161025557829003601f168201915b5050505050908060010154908060020160009054906101000a900460ff16908060020160019054906101000a900473ffffffffffffffffffffffffffffffffffffffff16908060030154905085565b6040518060a00160405280606081526020016000815260200160006003811115610314577f4e487b7100000000000000000000000000000000000000000000000000000000600052602160045260246000fd5b8152602001600073ffffffffffffffffffffffffffffffffffffffff168152602001600081525090565b600061035161034c8461057f565b61054e565b90508281526020810184848401111561036957600080fd5b610374848285610651565b509392505050565b600082601f83011261038d57600080fd5b813561039d84826020860161033e565b91505092915050565b6000813590506103b58161078b565b92915050565b6000602082840312156103cd57600080fd5b600082013567ffffffffffffffff8111156103e757600080fd5b6103f38482850161037c565b91505092915050565b60006020828403121561040e57600080fd5b600061041c848285016103a6565b91505092915050565b61042e816105cb565b82525050565b61043d8161062d565b82525050565b61044c8161063f565b82525050565b600061045d826105af565b61046781856105ba565b9350610477818560208601610660565b61048081610752565b840191505092915050565b61049481610623565b82525050565b600060a08201905081810360008301526104b48188610452565b90506104c3602083018761048b565b6104d06040830186610425565b6104dd6060830185610434565b6104ea608083018461048b565b9695505050505050565b600060a082019050818103600083015261050e8188610452565b905061051d602083018761048b565b61052a6040830186610443565b6105376060830185610425565b610544608083018461048b565b9695505050505050565b6000604051905081810181811067ffffffffffffffff8211171561057557610574610723565b5b8060405250919050565b600067ffffffffffffffff82111561059a57610599610723565b5b601f19601f8301169050602081019050919050565b600081519050919050565b600082825260208201905092915050565b60006105d682610603565b9050919050565b60008190506105eb82610763565b919050565b60008190506105fe82610777565b919050565b600073ffffffffffffffffffffffffffffffffffffffff82169050919050565b6000819050919050565b6000610638826105dd565b9050919050565b600061064a826105f0565b9050919050565b82818337600083830152505050565b60005b8381101561067e578082015181840152602081019050610663565b8381111561068d576000848401525b50505050565b600060028204905060018216806106ab57607f821691505b602082108114156106bf576106be6106f4565b5b50919050565b7f4e487b7100000000000000000000000000000000000000000000000000000000600052602160045260246000fd5b7f4e487b7100000000000000000000000000000000000000000000000000000000600052602260045260246000fd5b7f4e487b7100000000000000000000000000000000000000000000000000000000600052604160045260246000fd5b6000601f19601f8301169050919050565b60078110610774576107736106c5565b5b50565b60048110610788576107876106c5565b5b50565b61079481610623565b811461079f57600080fd5b5056fea2646970667358221220170177ac1c290943ac25b02d7db4fada8900279358c5ccc63f6eac8c83a3ac3464736f6c63430008000033",
					"opcodes": "PUSH1 0x80 PUSH1 0x40 MSTORE PUSH1 0x0 DUP1 SSTORE PUSH1 0x0 PUSH1 0x3 SSTORE CALLVALUE DUP1 ISZERO PUSH2 0x19 JUMPI PUSH1 0x0 DUP1 REVERT JUMPDEST POP PUSH2 0x7D8 DUP1 PUSH2 0x29 PUSH1 0x0 CODECOPY PUSH1 0x0 RETURN INVALID PUSH1 0x80 PUSH1 0x40 MSTORE CALLVALUE DUP1 ISZERO PUSH2 0x10 JUMPI PUSH1 0x0 DUP1 REVERT JUMPDEST POP PUSH1 0x4 CALLDATASIZE LT PUSH2 0x41 JUMPI PUSH1 0x0 CALLDATALOAD PUSH1 0xE0 SHR DUP1 PUSH4 0x15533A27 EQ PUSH2 0x46 JUMPI DUP1 PUSH4 0x17B47CC4 EQ PUSH2 0x62 JUMPI DUP1 PUSH4 0x35C1D349 EQ PUSH2 0x96 JUMPI JUMPDEST PUSH1 0x0 DUP1 REVERT JUMPDEST PUSH2 0x60 PUSH1 0x4 DUP1 CALLDATASIZE SUB DUP2 ADD SWAP1 PUSH2 0x5B SWAP2 SWAP1 PUSH2 0x3BB JUMP JUMPDEST PUSH2 0xCA JUMP JUMPDEST STOP JUMPDEST PUSH2 0x7C PUSH1 0x4 DUP1 CALLDATASIZE SUB DUP2 ADD SWAP1 PUSH2 0x77 SWAP2 SWAP1 PUSH2 0x3FC JUMP JUMPDEST PUSH2 0xEB JUMP JUMPDEST PUSH1 0x40 MLOAD PUSH2 0x8D SWAP6 SWAP5 SWAP4 SWAP3 SWAP2 SWAP1 PUSH2 0x49A JUMP JUMPDEST PUSH1 0x40 MLOAD DUP1 SWAP2 SUB SWAP1 RETURN JUMPDEST PUSH2 0xB0 PUSH1 0x4 DUP1 CALLDATASIZE SUB DUP2 ADD SWAP1 PUSH2 0xAB SWAP2 SWAP1 PUSH2 0x3FC JUMP JUMPDEST PUSH2 0x1D6 JUMP JUMPDEST PUSH1 0x40 MLOAD PUSH2 0xC1 SWAP6 SWAP5 SWAP4 SWAP3 SWAP2 SWAP1 PUSH2 0x4F4 JUMP JUMPDEST PUSH1 0x40 MLOAD DUP1 SWAP2 SUB SWAP1 RETURN JUMPDEST PUSH2 0xD2 PUSH2 0x2C1 JUMP JUMPDEST DUP2 DUP2 PUSH1 0x0 ADD DUP2 SWAP1 MSTORE POP PUSH1 0x0 SLOAD DUP2 PUSH1 0x20 ADD DUP2 DUP2 MSTORE POP POP POP POP JUMP JUMPDEST PUSH1 0x4 PUSH1 0x20 MSTORE DUP1 PUSH1 0x0 MSTORE PUSH1 0x40 PUSH1 0x0 KECCAK256 PUSH1 0x0 SWAP2 POP SWAP1 POP DUP1 PUSH1 0x0 ADD DUP1 SLOAD PUSH2 0x10E SWAP1 PUSH2 0x693 JUMP JUMPDEST DUP1 PUSH1 0x1F ADD PUSH1 0x20 DUP1 SWAP2 DIV MUL PUSH1 0x20 ADD PUSH1 0x40 MLOAD SWAP1 DUP2 ADD PUSH1 0x40 MSTORE DUP1 SWAP3 SWAP2 SWAP1 DUP2 DUP2 MSTORE PUSH1 0x20 ADD DUP3 DUP1 SLOAD PUSH2 0x13A SWAP1 PUSH2 0x693 JUMP JUMPDEST DUP1 ISZERO PUSH2 0x187 JUMPI DUP1 PUSH1 0x1F LT PUSH2 0x15C JUMPI PUSH2 0x100 DUP1 DUP4 SLOAD DIV MUL DUP4 MSTORE SWAP2 PUSH1 0x20 ADD SWAP2 PUSH2 0x187 JUMP JUMPDEST DUP3 ADD SWAP2 SWAP1 PUSH1 0x0 MSTORE PUSH1 0x20 PUSH1 0x0 KECCAK256 SWAP1 JUMPDEST DUP2 SLOAD DUP2 MSTORE SWAP1 PUSH1 0x1 ADD SWAP1 PUSH1 0x20 ADD DUP1 DUP4 GT PUSH2 0x16A JUMPI DUP3 SWAP1 SUB PUSH1 0x1F AND DUP3 ADD SWAP2 JUMPDEST POP POP POP POP POP SWAP1 DUP1 PUSH1 0x1 ADD SLOAD SWAP1 DUP1 PUSH1 0x2 ADD PUSH1 0x0 SWAP1 SLOAD SWAP1 PUSH2 0x100 EXP SWAP1 DIV PUSH20 0xFFFFFFFFFFFFFFFFFFFFFFFFFFFFFFFFFFFFFFFF AND SWAP1 DUP1 PUSH1 0x2 ADD PUSH1 0x14 SWAP1 SLOAD SWAP1 PUSH2 0x100 EXP SWAP1 DIV PUSH1 0xFF AND SWAP1 DUP1 PUSH1 0x3 ADD SLOAD SWAP1 POP DUP6 JUMP JUMPDEST PUSH1 0x1 PUSH1 0x20 MSTORE DUP1 PUSH1 0x0 MSTORE PUSH1 0x40 PUSH1 0x0 KECCAK256 PUSH1 0x0 SWAP2 POP SWAP1 POP DUP1 PUSH1 0x0 ADD DUP1 SLOAD PUSH2 0x1F9 SWAP1 PUSH2 0x693 JUMP JUMPDEST DUP1 PUSH1 0x1F ADD PUSH1 0x20 DUP1 SWAP2 DIV MUL PUSH1 0x20 ADD PUSH1 0x40 MLOAD SWAP1 DUP2 ADD PUSH1 0x40 MSTORE DUP1 SWAP3 SWAP2 SWAP1 DUP2 DUP2 MSTORE PUSH1 0x20 ADD DUP3 DUP1 SLOAD PUSH2 0x225 SWAP1 PUSH2 0x693 JUMP JUMPDEST DUP1 ISZERO PUSH2 0x272 JUMPI DUP1 PUSH1 0x1F LT PUSH2 0x247 JUMPI PUSH2 0x100 DUP1 DUP4 SLOAD DIV MUL DUP4 MSTORE SWAP2 PUSH1 0x20 ADD SWAP2 PUSH2 0x272 JUMP JUMPDEST DUP3 ADD SWAP2 SWAP1 PUSH1 0x0 MSTORE PUSH1 0x20 PUSH1 0x0 KECCAK256 SWAP1 JUMPDEST DUP2 SLOAD DUP2 MSTORE SWAP1 PUSH1 0x1 ADD SWAP1 PUSH1 0x20 ADD DUP1 DUP4 GT PUSH2 0x255 JUMPI DUP3 SWAP1 SUB PUSH1 0x1F AND DUP3 ADD SWAP2 JUMPDEST POP POP POP POP POP SWAP1 DUP1 PUSH1 0x1 ADD SLOAD SWAP1 DUP1 PUSH1 0x2 ADD PUSH1 0x0 SWAP1 SLOAD SWAP1 PUSH2 0x100 EXP SWAP1 DIV PUSH1 0xFF AND SWAP1 DUP1 PUSH1 0x2 ADD PUSH1 0x1 SWAP1 SLOAD SWAP1 PUSH2 0x100 EXP SWAP1 DIV PUSH20 0xFFFFFFFFFFFFFFFFFFFFFFFFFFFFFFFFFFFFFFFF AND SWAP1 DUP1 PUSH1 0x3 ADD SLOAD SWAP1 POP DUP6 JUMP JUMPDEST PUSH1 0x40 MLOAD DUP1 PUSH1 0xA0 ADD PUSH1 0x40 MSTORE DUP1 PUSH1 0x60 DUP2 MSTORE PUSH1 0x20 ADD PUSH1 0x0 DUP2 MSTORE PUSH1 0x20 ADD PUSH1 0x0 PUSH1 0x3 DUP2 GT ISZERO PUSH2 0x314 JUMPI PUSH32 0x4E487B7100000000000000000000000000000000000000000000000000000000 PUSH1 0x0 MSTORE PUSH1 0x21 PUSH1 0x4 MSTORE PUSH1 0x24 PUSH1 0x0 REVERT JUMPDEST DUP2 MSTORE PUSH1 0x20 ADD PUSH1 0x0 PUSH20 0xFFFFFFFFFFFFFFFFFFFFFFFFFFFFFFFFFFFFFFFF AND DUP2 MSTORE PUSH1 0x20 ADD PUSH1 0x0 DUP2 MSTORE POP SWAP1 JUMP JUMPDEST PUSH1 0x0 PUSH2 0x351 PUSH2 0x34C DUP5 PUSH2 0x57F JUMP JUMPDEST PUSH2 0x54E JUMP JUMPDEST SWAP1 POP DUP3 DUP2 MSTORE PUSH1 0x20 DUP2 ADD DUP5 DUP5 DUP5 ADD GT ISZERO PUSH2 0x369 JUMPI PUSH1 0x0 DUP1 REVERT JUMPDEST PUSH2 0x374 DUP5 DUP3 DUP6 PUSH2 0x651 JUMP JUMPDEST POP SWAP4 SWAP3 POP POP POP JUMP JUMPDEST PUSH1 0x0 DUP3 PUSH1 0x1F DUP4 ADD SLT PUSH2 0x38D JUMPI PUSH1 0x0 DUP1 REVERT JUMPDEST DUP2 CALLDATALOAD PUSH2 0x39D DUP5 DUP3 PUSH1 0x20 DUP7 ADD PUSH2 0x33E JUMP JUMPDEST SWAP2 POP POP SWAP3 SWAP2 POP POP JUMP JUMPDEST PUSH1 0x0 DUP2 CALLDATALOAD SWAP1 POP PUSH2 0x3B5 DUP2 PUSH2 0x78B JUMP JUMPDEST SWAP3 SWAP2 POP POP JUMP JUMPDEST PUSH1 0x0 PUSH1 0x20 DUP3 DUP5 SUB SLT ISZERO PUSH2 0x3CD JUMPI PUSH1 0x0 DUP1 REVERT JUMPDEST PUSH1 0x0 DUP3 ADD CALLDATALOAD PUSH8 0xFFFFFFFFFFFFFFFF DUP2 GT ISZERO PUSH2 0x3E7 JUMPI PUSH1 0x0 DUP1 REVERT JUMPDEST PUSH2 0x3F3 DUP5 DUP3 DUP6 ADD PUSH2 0x37C JUMP JUMPDEST SWAP2 POP POP SWAP3 SWAP2 POP POP JUMP JUMPDEST PUSH1 0x0 PUSH1 0x20 DUP3 DUP5 SUB SLT ISZERO PUSH2 0x40E JUMPI PUSH1 0x0 DUP1 REVERT JUMPDEST PUSH1 0x0 PUSH2 0x41C DUP5 DUP3 DUP6 ADD PUSH2 0x3A6 JUMP JUMPDEST SWAP2 POP POP SWAP3 SWAP2 POP POP JUMP JUMPDEST PUSH2 0x42E DUP2 PUSH2 0x5CB JUMP JUMPDEST DUP3 MSTORE POP POP JUMP JUMPDEST PUSH2 0x43D DUP2 PUSH2 0x62D JUMP JUMPDEST DUP3 MSTORE POP POP JUMP JUMPDEST PUSH2 0x44C DUP2 PUSH2 0x63F JUMP JUMPDEST DUP3 MSTORE POP POP JUMP JUMPDEST PUSH1 0x0 PUSH2 0x45D DUP3 PUSH2 0x5AF JUMP JUMPDEST PUSH2 0x467 DUP2 DUP6 PUSH2 0x5BA JUMP JUMPDEST SWAP4 POP PUSH2 0x477 DUP2 DUP6 PUSH1 0x20 DUP7 ADD PUSH2 0x660 JUMP JUMPDEST PUSH2 0x480 DUP2 PUSH2 0x752 JUMP JUMPDEST DUP5 ADD SWAP2 POP POP SWAP3 SWAP2 POP POP JUMP JUMPDEST PUSH2 0x494 DUP2 PUSH2 0x623 JUMP JUMPDEST DUP3 MSTORE POP POP JUMP JUMPDEST PUSH1 0x0 PUSH1 0xA0 DUP3 ADD SWAP1 POP DUP2 DUP2 SUB PUSH1 0x0 DUP4 ADD MSTORE PUSH2 0x4B4 DUP2 DUP9 PUSH2 0x452 JUMP JUMPDEST SWAP1 POP PUSH2 0x4C3 PUSH1 0x20 DUP4 ADD DUP8 PUSH2 0x48B JUMP JUMPDEST PUSH2 0x4D0 PUSH1 0x40 DUP4 ADD DUP7 PUSH2 0x425 JUMP JUMPDEST PUSH2 0x4DD PUSH1 0x60 DUP4 ADD DUP6 PUSH2 0x434 JUMP JUMPDEST PUSH2 0x4EA PUSH1 0x80 DUP4 ADD DUP5 PUSH2 0x48B JUMP JUMPDEST SWAP7 SWAP6 POP POP POP POP POP POP JUMP JUMPDEST PUSH1 0x0 PUSH1 0xA0 DUP3 ADD SWAP1 POP DUP2 DUP2 SUB PUSH1 0x0 DUP4 ADD MSTORE PUSH2 0x50E DUP2 DUP9 PUSH2 0x452 JUMP JUMPDEST SWAP1 POP PUSH2 0x51D PUSH1 0x20 DUP4 ADD DUP8 PUSH2 0x48B JUMP JUMPDEST PUSH2 0x52A PUSH1 0x40 DUP4 ADD DUP7 PUSH2 0x443 JUMP JUMPDEST PUSH2 0x537 PUSH1 0x60 DUP4 ADD DUP6 PUSH2 0x425 JUMP JUMPDEST PUSH2 0x544 PUSH1 0x80 DUP4 ADD DUP5 PUSH2 0x48B JUMP JUMPDEST SWAP7 SWAP6 POP POP POP POP POP POP JUMP JUMPDEST PUSH1 0x0 PUSH1 0x40 MLOAD SWAP1 POP DUP2 DUP2 ADD DUP2 DUP2 LT PUSH8 0xFFFFFFFFFFFFFFFF DUP3 GT OR ISZERO PUSH2 0x575 JUMPI PUSH2 0x574 PUSH2 0x723 JUMP JUMPDEST JUMPDEST DUP1 PUSH1 0x40 MSTORE POP SWAP2 SWAP1 POP JUMP JUMPDEST PUSH1 0x0 PUSH8 0xFFFFFFFFFFFFFFFF DUP3 GT ISZERO PUSH2 0x59A JUMPI PUSH2 0x599 PUSH2 0x723 JUMP JUMPDEST JUMPDEST PUSH1 0x1F NOT PUSH1 0x1F DUP4 ADD AND SWAP1 POP PUSH1 0x20 DUP2 ADD SWAP1 POP SWAP2 SWAP1 POP JUMP JUMPDEST PUSH1 0x0 DUP2 MLOAD SWAP1 POP SWAP2 SWAP1 POP JUMP JUMPDEST PUSH1 0x0 DUP3 DUP3 MSTORE PUSH1 0x20 DUP3 ADD SWAP1 POP SWAP3 SWAP2 POP POP JUMP JUMPDEST PUSH1 0x0 PUSH2 0x5D6 DUP3 PUSH2 0x603 JUMP JUMPDEST SWAP1 POP SWAP2 SWAP1 POP JUMP JUMPDEST PUSH1 0x0 DUP2 SWAP1 POP PUSH2 0x5EB DUP3 PUSH2 0x763 JUMP JUMPDEST SWAP2 SWAP1 POP JUMP JUMPDEST PUSH1 0x0 DUP2 SWAP1 POP PUSH2 0x5FE DUP3 PUSH2 0x777 JUMP JUMPDEST SWAP2 SWAP1 POP JUMP JUMPDEST PUSH1 0x0 PUSH20 0xFFFFFFFFFFFFFFFFFFFFFFFFFFFFFFFFFFFFFFFF DUP3 AND SWAP1 POP SWAP2 SWAP1 POP JUMP JUMPDEST PUSH1 0x0 DUP2 SWAP1 POP SWAP2 SWAP1 POP JUMP JUMPDEST PUSH1 0x0 PUSH2 0x638 DUP3 PUSH2 0x5DD JUMP JUMPDEST SWAP1 POP SWAP2 SWAP1 POP JUMP JUMPDEST PUSH1 0x0 PUSH2 0x64A DUP3 PUSH2 0x5F0 JUMP JUMPDEST SWAP1 POP SWAP2 SWAP1 POP JUMP JUMPDEST DUP3 DUP2 DUP4 CALLDATACOPY PUSH1 0x0 DUP4 DUP4 ADD MSTORE POP POP POP JUMP JUMPDEST PUSH1 0x0 JUMPDEST DUP4 DUP2 LT ISZERO PUSH2 0x67E JUMPI DUP1 DUP3 ADD MLOAD DUP2 DUP5 ADD MSTORE PUSH1 0x20 DUP2 ADD SWAP1 POP PUSH2 0x663 JUMP JUMPDEST DUP4 DUP2 GT ISZERO PUSH2 0x68D JUMPI PUSH1 0x0 DUP5 DUP5 ADD MSTORE JUMPDEST POP POP POP POP JUMP JUMPDEST PUSH1 0x0 PUSH1 0x2 DUP3 DIV SWAP1 POP PUSH1 0x1 DUP3 AND DUP1 PUSH2 0x6AB JUMPI PUSH1 0x7F DUP3 AND SWAP2 POP JUMPDEST PUSH1 0x20 DUP3 LT DUP2 EQ ISZERO PUSH2 0x6BF JUMPI PUSH2 0x6BE PUSH2 0x6F4 JUMP JUMPDEST JUMPDEST POP SWAP2 SWAP1 POP JUMP JUMPDEST PUSH32 0x4E487B7100000000000000000000000000000000000000000000000000000000 PUSH1 0x0 MSTORE PUSH1 0x21 PUSH1 0x4 MSTORE PUSH1 0x24 PUSH1 0x0 REVERT JUMPDEST PUSH32 0x4E487B7100000000000000000000000000000000000000000000000000000000 PUSH1 0x0 MSTORE PUSH1 0x22 PUSH1 0x4 MSTORE PUSH1 0x24 PUSH1 0x0 REVERT JUMPDEST PUSH32 0x4E487B7100000000000000000000000000000000000000000000000000000000 PUSH1 0x0 MSTORE PUSH1 0x41 PUSH1 0x4 MSTORE PUSH1 0x24 PUSH1 0x0 REVERT JUMPDEST PUSH1 0x0 PUSH1 0x1F NOT PUSH1 0x1F DUP4 ADD AND SWAP1 POP SWAP2 SWAP1 POP JUMP JUMPDEST PUSH1 0x7 DUP2 LT PUSH2 0x774 JUMPI PUSH2 0x773 PUSH2 0x6C5 JUMP JUMPDEST JUMPDEST POP JUMP JUMPDEST PUSH1 0x4 DUP2 LT PUSH2 0x788 JUMPI PUSH2 0x787 PUSH2 0x6C5 JUMP JUMPDEST JUMPDEST POP JUMP JUMPDEST PUSH2 0x794 DUP2 PUSH2 0x623 JUMP JUMPDEST DUP2 EQ PUSH2 0x79F JUMPI PUSH1 0x0 DUP1 REVERT JUMPDEST POP JUMP INVALID LOG2 PUSH5 0x6970667358 0x22 SLT KECCAK256 OR ADD PUSH24 0xAC1C290943AC25B02D7DB4FADA8900279358C5CCC63F6EAC DUP13 DUP4 LOG3 0xAC CALLVALUE PUSH5 0x736F6C6343 STOP ADDMOD STOP STOP CALLER "
				},
				"gasEstimates": {
					"creation": {
						"codeDepositCost": "401600",
						"executionCost": "10448",
						"totalCost": "412048"
					},
					"external": {
						"Items(uint256)": "infinite",
						"addSupplier(string)": "infinite",
						"participants(uint256)": "infinite"
					}
				},
				"methodIdentifiers": {
					"Items(uint256)": "17b47cc4",
					"addSupplier(string)": "15533a27",
					"participants(uint256)": "35c1d349"
				}
			},
			"userdoc": {
				"kind": "user",
				"methods": {},
				"version": 1
			}
		}
	}
}