{
	"contracts/main.sol": {
		"Supplychain": {
			"abi": [
				{
					"anonymous": false,
					"inputs": [
						{
							"indexed": false,
							"internalType": "uint256",
							"name": "upc",
							"type": "uint256"
						}
					],
					"name": "checked",
					"type": "event"
				},
				{
					"anonymous": false,
					"inputs": [
						{
							"indexed": false,
							"internalType": "uint256",
							"name": "upc",
							"type": "uint256"
						},
						{
							"indexed": false,
							"internalType": "address",
							"name": "_address",
							"type": "address"
						}
					],
					"name": "itemcreated",
					"type": "event"
				},
				{
					"anonymous": false,
					"inputs": [
						{
							"indexed": false,
							"internalType": "uint256",
							"name": "upc",
							"type": "uint256"
						}
					],
					"name": "openForSale",
					"type": "event"
				},
				{
					"anonymous": false,
					"inputs": [
						{
							"indexed": false,
							"internalType": "uint256",
							"name": "upc",
							"type": "uint256"
						},
						{
							"indexed": false,
							"internalType": "address",
							"name": "_address",
							"type": "address"
						}
					],
					"name": "orderPlaced",
					"type": "event"
				},
				{
					"anonymous": false,
					"inputs": [
						{
							"indexed": false,
							"internalType": "uint256",
							"name": "upc",
							"type": "uint256"
						},
						{
							"indexed": false,
							"internalType": "address",
							"name": "_address",
							"type": "address"
						}
					],
					"name": "received",
					"type": "event"
				},
				{
					"anonymous": false,
					"inputs": [
						{
							"indexed": false,
							"internalType": "uint256",
							"name": "upc",
							"type": "uint256"
						},
						{
							"indexed": false,
							"internalType": "address",
							"name": "_address",
							"type": "address"
						}
					],
					"name": "shipped",
					"type": "event"
				},
				{
					"inputs": [
						{
							"internalType": "uint256",
							"name": "",
							"type": "uint256"
						}
					],
					"name": "Items",
					"outputs": [
						{
							"internalType": "string",
							"name": "product_name",
							"type": "string"
						},
						{
							"internalType": "uint256",
							"name": "productId",
							"type": "uint256"
						},
						{
							"internalType": "address",
							"name": "itemOwner",
							"type": "address"
						},
						{
							"internalType": "enum Item.state",
							"name": "productState",
							"type": "uint8"
						},
						{
							"internalType": "uint256",
							"name": "cost",
							"type": "uint256"
						}
					],
					"stateMutability": "view",
					"type": "function"
				},
				{
					"inputs": [
						{
							"internalType": "string",
							"name": "_product_name",
							"type": "string"
						},
						{
							"internalType": "uint256",
							"name": "cost",
							"type": "uint256"
						}
					],
					"name": "addItem",
					"outputs": [],
					"stateMutability": "nonpayable",
					"type": "function"
				},
				{
					"inputs": [
						{
							"internalType": "string",
							"name": "_uname",
							"type": "string"
						}
					],
					"name": "addManufacturer",
					"outputs": [],
					"stateMutability": "nonpayable",
					"type": "function"
				},
				{
					"inputs": [
						{
							"internalType": "string",
							"name": "_uname",
							"type": "string"
						}
					],
					"name": "addSupplier",
					"outputs": [],
					"stateMutability": "nonpayable",
					"type": "function"
				},
				{
					"inputs": [
						{
							"internalType": "string",
							"name": "_uname",
							"type": "string"
						}
					],
					"name": "addtransporter",
					"outputs": [],
					"stateMutability": "nonpayable",
					"type": "function"
				},
				{
					"inputs": [
						{
							"internalType": "uint256",
							"name": "_id",
							"type": "uint256"
						}
					],
					"name": "avaliableforsale",
					"outputs": [],
					"stateMutability": "nonpayable",
					"type": "function"
				},
				{
					"inputs": [
						{
							"internalType": "uint256",
							"name": "_id",
							"type": "uint256"
						}
					],
					"name": "currentState",
					"outputs": [
						{
							"internalType": "enum Item.state",
							"name": "",
							"type": "uint8"
						}
					],
					"stateMutability": "view",
					"type": "function"
				},
				{
					"inputs": [
						{
							"internalType": "uint256",
							"name": "_id",
							"type": "uint256"
						}
					],
					"name": "order",
					"outputs": [],
					"stateMutability": "nonpayable",
					"type": "function"
				},
				{
					"inputs": [],
					"name": "owner",
					"outputs": [
						{
							"internalType": "address",
							"name": "",
							"type": "address"
						}
					],
					"stateMutability": "view",
					"type": "function"
				},
				{
					"inputs": [
						{
							"internalType": "uint256",
							"name": "",
							"type": "uint256"
						}
					],
					"name": "participants",
					"outputs": [
						{
							"internalType": "string",
							"name": "username",
							"type": "string"
						},
						{
							"internalType": "uint256",
							"name": "userId",
							"type": "uint256"
						},
						{
							"internalType": "enum participant.user_type",
							"name": "utype",
							"type": "uint8"
						},
						{
							"internalType": "address",
							"name": "user_address",
							"type": "address"
						},
						{
							"internalType": "uint256",
							"name": "money",
							"type": "uint256"
						}
					],
					"stateMutability": "view",
					"type": "function"
				},
				{
					"inputs": [
						{
							"internalType": "uint256",
							"name": "_id",
							"type": "uint256"
						}
					],
					"name": "personDetail",
					"outputs": [
						{
							"components": [
								{
									"internalType": "string",
									"name": "username",
									"type": "string"
								},
								{
									"internalType": "uint256",
									"name": "userId",
									"type": "uint256"
								},
								{
									"internalType": "enum participant.user_type",
									"name": "utype",
									"type": "uint8"
								},
								{
									"internalType": "address",
									"name": "user_address",
									"type": "address"
								},
								{
									"internalType": "uint256",
									"name": "money",
									"type": "uint256"
								}
							],
							"internalType": "struct participant.participant",
							"name": "",
							"type": "tuple"
						}
					],
					"stateMutability": "view",
					"type": "function"
				},
				{
					"inputs": [
						{
							"internalType": "uint256",
							"name": "_id",
							"type": "uint256"
						}
					],
					"name": "productDetail",
					"outputs": [
						{
							"components": [
								{
									"internalType": "string",
									"name": "product_name",
									"type": "string"
								},
								{
									"internalType": "uint256",
									"name": "productId",
									"type": "uint256"
								},
								{
									"internalType": "address",
									"name": "itemOwner",
									"type": "address"
								},
								{
									"internalType": "enum Item.state",
									"name": "productState",
									"type": "uint8"
								},
								{
									"internalType": "uint256",
									"name": "cost",
									"type": "uint256"
								}
							],
							"internalType": "struct Item.item",
							"name": "",
							"type": "tuple"
						}
					],
					"stateMutability": "view",
					"type": "function"
				},
				{
					"inputs": [
						{
							"internalType": "uint256",
							"name": "_id",
							"type": "uint256"
						},
						{
							"internalType": "address",
							"name": "_transporter_address",
							"type": "address"
						}
					],
					"name": "ship_product",
					"outputs": [],
					"stateMutability": "nonpayable",
					"type": "function"
				}
			],
			"devdoc": {
				"kind": "dev",
				"methods": {},
				"version": 1
			},
			"evm": {
				"assembly": "    /* \"contracts/main.sol\":103:3222  contract Supplychain is  Modifier{\r... */\n  mstore(0x40, 0x80)\n    /* \"contracts/item.sol\":54:55  0 */\n  0x00\n    /* \"contracts/item.sol\":46:55  uint ic=0 */\n  dup1\n  sstore\n    /* \"contracts/member.sol\":62:63  0 */\n  0x00\n    /* \"contracts/member.sol\":54:63  uint pc=0 */\n  0x02\n  sstore\n    /* \"contracts/order.sol\":126:127  0 */\n  0x00\n    /* \"contracts/order.sol\":117:127  uint on =0 */\n  0x05\n  sstore\n    /* \"contracts/main.sol\":103:3222  contract Supplychain is  Modifier{\r... */\n  callvalue\n  dup1\n  iszero\n  tag_1\n  jumpi\n  0x00\n  dup1\n  revert\ntag_1:\n  pop\n    /* \"contracts/modifier.sol\":201:211  msg.sender */\n  caller\n    /* \"contracts/modifier.sol\":193:198  owner */\n  0x07\n  0x00\n    /* \"contracts/modifier.sol\":193:211  owner = msg.sender */\n  0x0100\n  exp\n  dup2\n  sload\n  dup2\n  0xffffffffffffffffffffffffffffffffffffffff\n  mul\n  not\n  and\n  swap1\n  dup4\n  0xffffffffffffffffffffffffffffffffffffffff\n  and\n  mul\n  or\n  swap1\n  sstore\n  pop\n    /* \"contracts/main.sol\":103:3222  contract Supplychain is  Modifier{\r... */\n  dataSize(sub_0)\n  dup1\n  dataOffset(sub_0)\n  0x00\n  codecopy\n  0x00\n  return\nstop\n\nsub_0: assembly {\n        /* \"contracts/main.sol\":103:3222  contract Supplychain is  Modifier{\r... */\n      mstore(0x40, 0x80)\n      callvalue\n      dup1\n      iszero\n      tag_1\n      jumpi\n      0x00\n      dup1\n      revert\n    tag_1:\n      pop\n      jumpi(tag_2, lt(calldatasize, 0x04))\n      shr(0xe0, calldataload(0x00))\n      dup1\n      0x43c4c53e\n      gt\n      tag_16\n      jumpi\n      dup1\n      0x8da5cb5b\n      gt\n      tag_17\n      jumpi\n      dup1\n      0x8da5cb5b\n      eq\n      tag_12\n      jumpi\n      dup1\n      0x8f5ae799\n      eq\n      tag_13\n      jumpi\n      dup1\n      0xb57c7609\n      eq\n      tag_14\n      jumpi\n      dup1\n      0xd3de074c\n      eq\n      tag_15\n      jumpi\n      jump(tag_2)\n    tag_17:\n      dup1\n      0x43c4c53e\n      eq\n      tag_9\n      jumpi\n      dup1\n      0x54a153e9\n      eq\n      tag_10\n      jumpi\n      dup1\n      0x62d6bbdf\n      eq\n      tag_11\n      jumpi\n      jump(tag_2)\n    tag_16:\n      dup1\n      0x15533a27\n      eq\n      tag_3\n      jumpi\n      dup1\n      0x17b47cc4\n      eq\n      tag_4\n      jumpi\n      dup1\n      0x21603f43\n      eq\n      tag_5\n      jumpi\n      dup1\n      0x2fa5ad1a\n      eq\n      tag_6\n      jumpi\n      dup1\n      0x35c1d349\n      eq\n      tag_7\n      jumpi\n      dup1\n      0x42f35885\n      eq\n      tag_8\n      jumpi\n    tag_2:\n      0x00\n      dup1\n      revert\n        /* \"contracts/main.sol\":414:836  function addSupplier(string memory _uname) public{\r... */\n    tag_3:\n      tag_18\n      0x04\n      dup1\n      calldatasize\n      sub\n      dup2\n      add\n      swap1\n      tag_19\n      swap2\n      swap1\n      tag_20\n      jump\t// in\n    tag_19:\n      tag_21\n      jump\t// in\n    tag_18:\n      stop\n        /* \"contracts/item.sol\":389:421  mapping(uint=>item) public Items */\n    tag_4:\n      tag_22\n      0x04\n      dup1\n      calldatasize\n      sub\n      dup2\n      add\n      swap1\n      tag_23\n      swap2\n      swap1\n      tag_24\n      jump\t// in\n    tag_23:\n      tag_25\n      jump\t// in\n    tag_22:\n      mload(0x40)\n      tag_26\n      swap6\n      swap5\n      swap4\n      swap3\n      swap2\n      swap1\n      tag_27\n      jump\t// in\n    tag_26:\n      mload(0x40)\n      dup1\n      swap2\n      sub\n      swap1\n      return\n        /* \"contracts/main.sol\":2298:2644  function order(uint _id) public hasMoney(0,0)\r... */\n    tag_5:\n      tag_28\n      0x04\n      dup1\n      calldatasize\n      sub\n      dup2\n      add\n      swap1\n      tag_29\n      swap2\n      swap1\n      tag_24\n      jump\t// in\n    tag_29:\n      tag_30\n      jump\t// in\n    tag_28:\n      stop\n        /* \"contracts/main.sol\":841:1280  function addtransporter(string memory _uname) public {\r... */\n    tag_6:\n      tag_31\n      0x04\n      dup1\n      calldatasize\n      sub\n      dup2\n      add\n      swap1\n      tag_32\n      swap2\n      swap1\n      tag_20\n      jump\t// in\n    tag_32:\n      tag_33\n      jump\t// in\n    tag_31:\n      stop\n        /* \"contracts/member.sol\":347:393  mapping(uint=>participant) public participants */\n    tag_7:\n      tag_34\n      0x04\n      dup1\n      calldatasize\n      sub\n      dup2\n      add\n      swap1\n      tag_35\n      swap2\n      swap1\n      tag_24\n      jump\t// in\n    tag_35:\n      tag_36\n      jump\t// in\n    tag_34:\n      mload(0x40)\n      tag_37\n      swap6\n      swap5\n      swap4\n      swap3\n      swap2\n      swap1\n      tag_38\n      jump\t// in\n    tag_37:\n      mload(0x40)\n      dup1\n      swap2\n      sub\n      swap1\n      return\n        /* \"contracts/main.sol\":2860:2968  function productDetail(uint _id) public view returns (item memory)\r... */\n    tag_8:\n      tag_39\n      0x04\n      dup1\n      calldatasize\n      sub\n      dup2\n      add\n      swap1\n      tag_40\n      swap2\n      swap1\n      tag_24\n      jump\t// in\n    tag_40:\n      tag_41\n      jump\t// in\n    tag_39:\n      mload(0x40)\n      tag_42\n      swap2\n      swap1\n      tag_43\n      jump\t// in\n    tag_42:\n      mload(0x40)\n      dup1\n      swap2\n      sub\n      swap1\n      return\n        /* \"contracts/main.sol\":2656:2852  function ship_product(uint _id,address _transporter_address) public productowner(_id)\r... */\n    tag_9:\n      tag_44\n      0x04\n      dup1\n      calldatasize\n      sub\n      dup2\n      add\n      swap1\n      tag_45\n      swap2\n      swap1\n      tag_46\n      jump\t// in\n    tag_45:\n      tag_47\n      jump\t// in\n    tag_44:\n      stop\n        /* \"contracts/main.sol\":3095:3215  function personDetail(uint _id) public view returns(participant memory)\r... */\n    tag_10:\n      tag_48\n      0x04\n      dup1\n      calldatasize\n      sub\n      dup2\n      add\n      swap1\n      tag_49\n      swap2\n      swap1\n      tag_24\n      jump\t// in\n    tag_49:\n      tag_50\n      jump\t// in\n    tag_48:\n      mload(0x40)\n      tag_51\n      swap2\n      swap1\n      tag_52\n      jump\t// in\n    tag_51:\n      mload(0x40)\n      dup1\n      swap2\n      sub\n      swap1\n      return\n        /* \"contracts/main.sol\":1733:2130  function addItem(string memory _product_name , uint cost) public onlyDistributor(msg.sender)\r... */\n    tag_11:\n      tag_53\n      0x04\n      dup1\n      calldatasize\n      sub\n      dup2\n      add\n      swap1\n      tag_54\n      swap2\n      swap1\n      tag_55\n      jump\t// in\n    tag_54:\n      tag_56\n      jump\t// in\n    tag_53:\n      stop\n        /* \"contracts/modifier.sol\":133:153  address public owner */\n    tag_12:\n      tag_57\n      tag_58\n      jump\t// in\n    tag_57:\n      mload(0x40)\n      tag_59\n      swap2\n      swap1\n      tag_60\n      jump\t// in\n    tag_59:\n      mload(0x40)\n      dup1\n      swap2\n      sub\n      swap1\n      return\n        /* \"contracts/main.sol\":1286:1727  function addManufacturer(string memory _uname) public {\r... */\n    tag_13:\n      tag_61\n      0x04\n      dup1\n      calldatasize\n      sub\n      dup2\n      add\n      swap1\n      tag_62\n      swap2\n      swap1\n      tag_20\n      jump\t// in\n    tag_62:\n      tag_63\n      jump\t// in\n    tag_61:\n      stop\n        /* \"contracts/main.sol\":2974:3087  function currentState(uint _id)public view returns(state )\r... */\n    tag_14:\n      tag_64\n      0x04\n      dup1\n      calldatasize\n      sub\n      dup2\n      add\n      swap1\n      tag_65\n      swap2\n      swap1\n      tag_24\n      jump\t// in\n    tag_65:\n      tag_66\n      jump\t// in\n    tag_64:\n      mload(0x40)\n      tag_67\n      swap2\n      swap1\n      tag_68\n      jump\t// in\n    tag_67:\n      mload(0x40)\n      dup1\n      swap2\n      sub\n      swap1\n      return\n        /* \"contracts/main.sol\":2136:2292  function avaliableforsale(uint _id) public productowner(_id)\r... */\n    tag_15:\n      tag_69\n      0x04\n      dup1\n      calldatasize\n      sub\n      dup2\n      add\n      swap1\n      tag_70\n      swap2\n      swap1\n      tag_24\n      jump\t// in\n    tag_70:\n      tag_71\n      jump\t// in\n    tag_69:\n      stop\n        /* \"contracts/main.sol\":414:836  function addSupplier(string memory _uname) public{\r... */\n    tag_21:\n        /* \"contracts/main.sol\":473:507  participant memory  newParticipant */\n      tag_73\n      tag_74\n      jump\t// in\n    tag_73:\n        /* \"contracts/main.sol\":542:548  _uname */\n      dup2\n        /* \"contracts/main.sol\":517:531  newParticipant */\n      dup2\n        /* \"contracts/main.sol\":517:540  newParticipant.username */\n      0x00\n      add\n        /* \"contracts/main.sol\":517:548  newParticipant.username =_uname */\n      dup2\n      swap1\n      mstore\n      pop\n        /* \"contracts/main.sol\":582:584  pc */\n      sload(0x02)\n        /* \"contracts/main.sol\":558:572  newParticipant */\n      dup2\n        /* \"contracts/main.sol\":558:579  newParticipant.userId */\n      0x20\n      add\n        /* \"contracts/main.sol\":558:584  newParticipant.userId = pc */\n      dup2\n      dup2\n      mstore\n      pop\n      pop\n        /* \"contracts/main.sol\":617:635  user_type.supplier */\n      0x00\n        /* \"contracts/main.sol\":594:608  newParticipant */\n      dup2\n        /* \"contracts/main.sol\":594:614  newParticipant.utype */\n      0x40\n      add\n        /* \"contracts/main.sol\":594:635  newParticipant.utype = user_type.supplier */\n      swap1\n      0x03\n      dup2\n      gt\n      iszero\n      tag_75\n      jumpi\n      mstore(0x00, 0x4e487b7100000000000000000000000000000000000000000000000000000000)\n      mstore(0x04, 0x21)\n      revert(0x00, 0x24)\n    tag_75:\n      swap1\n      dup2\n      0x03\n      dup2\n      gt\n      iszero\n      tag_76\n      jumpi\n      mstore(0x00, 0x4e487b7100000000000000000000000000000000000000000000000000000000)\n      mstore(0x04, 0x21)\n      revert(0x00, 0x24)\n    tag_76:\n      dup2\n      mstore\n      pop\n      pop\n        /* \"contracts/main.sol\":674:684  msg.sender */\n      caller\n        /* \"contracts/main.sol\":645:659  newParticipant */\n      dup2\n        /* \"contracts/main.sol\":645:672  newParticipant.user_address */\n      0x60\n      add\n        /* \"contracts/main.sol\":645:684  newParticipant.user_address =msg.sender */\n      swap1\n      0xffffffffffffffffffffffffffffffffffffffff\n      and\n      swap1\n      dup2\n      0xffffffffffffffffffffffffffffffffffffffff\n      and\n      dup2\n      mstore\n      pop\n      pop\n        /* \"contracts/main.sol\":717:718  0 */\n      0x00\n        /* \"contracts/main.sol\":694:708  newParticipant */\n      dup2\n        /* \"contracts/main.sol\":694:714  newParticipant.money */\n      0x80\n      add\n        /* \"contracts/main.sol\":694:718  newParticipant.money = 0 */\n      dup2\n      dup2\n      mstore\n      pop\n      pop\n        /* \"contracts/main.sol\":745:759  newParticipant */\n      dup1\n        /* \"contracts/main.sol\":728:740  participants */\n      0x03\n        /* \"contracts/main.sol\":728:744  participants[pc] */\n      0x00\n        /* \"contracts/main.sol\":741:743  pc */\n      sload(0x02)\n        /* \"contracts/main.sol\":728:744  participants[pc] */\n      dup2\n      mstore\n      0x20\n      add\n      swap1\n      dup2\n      mstore\n      0x20\n      add\n      0x00\n      keccak256\n        /* \"contracts/main.sol\":728:759  participants[pc]=newParticipant */\n      0x00\n      dup3\n      add\n      mload\n      dup2\n      0x00\n      add\n      swap1\n      dup1\n      mload\n      swap1\n      0x20\n      add\n      swap1\n      tag_77\n      swap3\n      swap2\n      swap1\n      tag_78\n      jump\t// in\n    tag_77:\n      pop\n      0x20\n      dup3\n      add\n      mload\n      dup2\n      0x01\n      add\n      sstore\n      0x40\n      dup3\n      add\n      mload\n      dup2\n      0x02\n      add\n      exp(0x0100, 0x00)\n      dup2\n      sload\n      dup2\n      0xff\n      mul\n      not\n      and\n      swap1\n      dup4\n      0x03\n      dup2\n      gt\n      iszero\n      tag_79\n      jumpi\n      mstore(0x00, 0x4e487b7100000000000000000000000000000000000000000000000000000000)\n      mstore(0x04, 0x21)\n      revert(0x00, 0x24)\n    tag_79:\n      mul\n      or\n      swap1\n      sstore\n      pop\n      0x60\n      dup3\n      add\n      mload\n      dup2\n      0x02\n      add\n      exp(0x0100, 0x01)\n      dup2\n      sload\n      dup2\n      0xffffffffffffffffffffffffffffffffffffffff\n      mul\n      not\n      and\n      swap1\n      dup4\n      0xffffffffffffffffffffffffffffffffffffffff\n      and\n      mul\n      or\n      swap1\n      sstore\n      pop\n      0x80\n      dup3\n      add\n      mload\n      dup2\n      0x03\n      add\n      sstore\n      swap1\n      pop\n      pop\n        /* \"contracts/main.sol\":796:810  newParticipant */\n      dup1\n        /* \"contracts/main.sol\":769:783  participantsId */\n      0x04\n        /* \"contracts/main.sol\":769:795  participantsId[msg.sender] */\n      0x00\n        /* \"contracts/main.sol\":784:794  msg.sender */\n      caller\n        /* \"contracts/main.sol\":769:795  participantsId[msg.sender] */\n      0xffffffffffffffffffffffffffffffffffffffff\n      and\n      0xffffffffffffffffffffffffffffffffffffffff\n      and\n      dup2\n      mstore\n      0x20\n      add\n      swap1\n      dup2\n      mstore\n      0x20\n      add\n      0x00\n      keccak256\n        /* \"contracts/main.sol\":769:810  participantsId[msg.sender]=newParticipant */\n      0x00\n      dup3\n      add\n      mload\n      dup2\n      0x00\n      add\n      swap1\n      dup1\n      mload\n      swap1\n      0x20\n      add\n      swap1\n      tag_80\n      swap3\n      swap2\n      swap1\n      tag_78\n      jump\t// in\n    tag_80:\n      pop\n      0x20\n      dup3\n      add\n      mload\n      dup2\n      0x01\n      add\n      sstore\n      0x40\n      dup3\n      add\n      mload\n      dup2\n      0x02\n      add\n      exp(0x0100, 0x00)\n      dup2\n      sload\n      dup2\n      0xff\n      mul\n      not\n      and\n      swap1\n      dup4\n      0x03\n      dup2\n      gt\n      iszero\n      tag_81\n      jumpi\n      mstore(0x00, 0x4e487b7100000000000000000000000000000000000000000000000000000000)\n      mstore(0x04, 0x21)\n      revert(0x00, 0x24)\n    tag_81:\n      mul\n      or\n      swap1\n      sstore\n      pop\n      0x60\n      dup3\n      add\n      mload\n      dup2\n      0x02\n      add\n      exp(0x0100, 0x01)\n      dup2\n      sload\n      dup2\n      0xffffffffffffffffffffffffffffffffffffffff\n      mul\n      not\n      and\n      swap1\n      dup4\n      0xffffffffffffffffffffffffffffffffffffffff\n      and\n      mul\n      or\n      swap1\n      sstore\n      pop\n      0x80\n      dup3\n      add\n      mload\n      dup2\n      0x03\n      add\n      sstore\n      swap1\n      pop\n      pop\n        /* \"contracts/main.sol\":826:827  1 */\n      0x01\n        /* \"contracts/main.sol\":823:825  pc */\n      sload(0x02)\n        /* \"contracts/main.sol\":823:827  pc+1 */\n      tag_82\n      swap2\n      swap1\n      tag_83\n      jump\t// in\n    tag_82:\n        /* \"contracts/main.sol\":820:822  pc */\n      0x02\n        /* \"contracts/main.sol\":820:827  pc=pc+1 */\n      dup2\n      swap1\n      sstore\n      pop\n        /* \"contracts/main.sol\":414:836  function addSupplier(string memory _uname) public{\r... */\n      pop\n      pop\n      jump\t// out\n        /* \"contracts/item.sol\":389:421  mapping(uint=>item) public Items */\n    tag_25:\n      mstore(0x20, 0x01)\n      dup1\n      0x00\n      mstore\n      keccak256(0x00, 0x40)\n      0x00\n      swap2\n      pop\n      swap1\n      pop\n      dup1\n      0x00\n      add\n      dup1\n      sload\n      tag_84\n      swap1\n      tag_85\n      jump\t// in\n    tag_84:\n      dup1\n      0x1f\n      add\n      0x20\n      dup1\n      swap2\n      div\n      mul\n      0x20\n      add\n      mload(0x40)\n      swap1\n      dup2\n      add\n      0x40\n      mstore\n      dup1\n      swap3\n      swap2\n      swap1\n      dup2\n      dup2\n      mstore\n      0x20\n      add\n      dup3\n      dup1\n      sload\n      tag_86\n      swap1\n      tag_85\n      jump\t// in\n    tag_86:\n      dup1\n      iszero\n      tag_87\n      jumpi\n      dup1\n      0x1f\n      lt\n      tag_88\n      jumpi\n      0x0100\n      dup1\n      dup4\n      sload\n      div\n      mul\n      dup4\n      mstore\n      swap2\n      0x20\n      add\n      swap2\n      jump(tag_87)\n    tag_88:\n      dup3\n      add\n      swap2\n      swap1\n      0x00\n      mstore\n      keccak256(0x00, 0x20)\n      swap1\n    tag_89:\n      dup2\n      sload\n      dup2\n      mstore\n      swap1\n      0x01\n      add\n      swap1\n      0x20\n      add\n      dup1\n      dup4\n      gt\n      tag_89\n      jumpi\n      dup3\n      swap1\n      sub\n      0x1f\n      and\n      dup3\n      add\n      swap2\n    tag_87:\n      pop\n      pop\n      pop\n      pop\n      pop\n      swap1\n      dup1\n      0x01\n      add\n      sload\n      swap1\n      dup1\n      0x02\n      add\n      0x00\n      swap1\n      sload\n      swap1\n      0x0100\n      exp\n      swap1\n      div\n      0xffffffffffffffffffffffffffffffffffffffff\n      and\n      swap1\n      dup1\n      0x02\n      add\n      0x14\n      swap1\n      sload\n      swap1\n      0x0100\n      exp\n      swap1\n      div\n      0xff\n      and\n      swap1\n      dup1\n      0x03\n      add\n      sload\n      swap1\n      pop\n      dup6\n      jump\t// out\n        /* \"contracts/main.sol\":2298:2644  function order(uint _id) public hasMoney(0,0)\r... */\n    tag_30:\n        /* \"contracts/main.sol\":2339:2340  0 */\n      0x00\n        /* \"contracts/main.sol\":2341:2342  0 */\n      dup1\n        /* \"contracts/modifier.sol\":1257:1263  _value */\n      dup2\n        /* \"contracts/modifier.sol\":1239:1244  Items */\n      0x01\n        /* \"contracts/modifier.sol\":1239:1249  Items[_ic] */\n      0x00\n        /* \"contracts/modifier.sol\":1245:1248  _ic */\n      dup4\n        /* \"contracts/modifier.sol\":1239:1249  Items[_ic] */\n      dup2\n      mstore\n      0x20\n      add\n      swap1\n      dup2\n      mstore\n      0x20\n      add\n      0x00\n      keccak256\n        /* \"contracts/modifier.sol\":1239:1254  Items[_ic].cost */\n      0x03\n      add\n      sload\n        /* \"contracts/modifier.sol\":1239:1263  Items[_ic].cost <=_value */\n      gt\n      iszero\n        /* \"contracts/modifier.sol\":1231:1313  require(Items[_ic].cost <=_value, \"you dont have enough money to buy the product\") */\n      tag_91\n      jumpi\n      mload(0x40)\n      0x08c379a000000000000000000000000000000000000000000000000000000000\n      dup2\n      mstore\n      0x04\n      add\n      tag_92\n      swap1\n      tag_93\n      jump\t// in\n    tag_92:\n      mload(0x40)\n      dup1\n      swap2\n      sub\n      swap1\n      revert\n    tag_91:\n        /* \"contracts/main.sol\":2361:2382  Order memory newOrder */\n      tag_95\n      tag_96\n      jump\t// in\n    tag_95:\n        /* \"contracts/main.sol\":2409:2419  msg.sender */\n      caller\n        /* \"contracts/main.sol\":2392:2400  newOrder */\n      dup2\n        /* \"contracts/main.sol\":2392:2406  newOrder.buyer */\n      0x40\n      add\n        /* \"contracts/main.sol\":2392:2419  newOrder.buyer = msg.sender */\n      swap1\n      0xffffffffffffffffffffffffffffffffffffffff\n      and\n      swap1\n      dup2\n      0xffffffffffffffffffffffffffffffffffffffff\n      and\n      dup2\n      mstore\n      pop\n      pop\n        /* \"contracts/main.sol\":2448:2450  on */\n      sload(0x05)\n        /* \"contracts/main.sol\":2429:2437  newOrder */\n      dup2\n        /* \"contracts/main.sol\":2429:2445  newOrder.orderId */\n      0x00\n      add\n        /* \"contracts/main.sol\":2429:2450  newOrder.orderId = on */\n      dup2\n      dup2\n      mstore\n      pop\n      pop\n        /* \"contracts/main.sol\":2483:2507  Order_state.order_placed */\n      0x00\n        /* \"contracts/main.sol\":2460:2468  newOrder */\n      dup2\n        /* \"contracts/main.sol\":2460:2480  newOrder.order_state */\n      0x60\n      add\n        /* \"contracts/main.sol\":2460:2507  newOrder.order_state = Order_state.order_placed */\n      swap1\n      0x02\n      dup2\n      gt\n      iszero\n      tag_97\n      jumpi\n      mstore(0x00, 0x4e487b7100000000000000000000000000000000000000000000000000000000)\n      mstore(0x04, 0x21)\n      revert(0x00, 0x24)\n    tag_97:\n      swap1\n      dup2\n      0x02\n      dup2\n      gt\n      iszero\n      tag_98\n      jumpi\n      mstore(0x00, 0x4e487b7100000000000000000000000000000000000000000000000000000000)\n      mstore(0x04, 0x21)\n      revert(0x00, 0x24)\n    tag_98:\n      dup2\n      mstore\n      pop\n      pop\n        /* \"contracts/main.sol\":2538:2543  Items */\n      0x01\n        /* \"contracts/main.sol\":2538:2548  Items[_id] */\n      0x00\n        /* \"contracts/main.sol\":2544:2547  _id */\n      dup6\n        /* \"contracts/main.sol\":2538:2548  Items[_id] */\n      dup2\n      mstore\n      0x20\n      add\n      swap1\n      dup2\n      mstore\n      0x20\n      add\n      0x00\n      keccak256\n        /* \"contracts/main.sol\":2517:2548  newOrder.orderItem = Items[_id] */\n      mload(0x40)\n      dup1\n      0xa0\n      add\n      0x40\n      mstore\n      swap1\n      dup2\n      0x00\n      dup3\n      add\n      dup1\n      sload\n      tag_99\n      swap1\n      tag_85\n      jump\t// in\n    tag_99:\n      dup1\n      0x1f\n      add\n      0x20\n      dup1\n      swap2\n      div\n      mul\n      0x20\n      add\n      mload(0x40)\n      swap1\n      dup2\n      add\n      0x40\n      mstore\n      dup1\n      swap3\n      swap2\n      swap1\n      dup2\n      dup2\n      mstore\n      0x20\n      add\n      dup3\n      dup1\n      sload\n      tag_100\n      swap1\n      tag_85\n      jump\t// in\n    tag_100:\n      dup1\n      iszero\n      tag_101\n      jumpi\n      dup1\n      0x1f\n      lt\n      tag_102\n      jumpi\n      0x0100\n      dup1\n      dup4\n      sload\n      div\n      mul\n      dup4\n      mstore\n      swap2\n      0x20\n      add\n      swap2\n      jump(tag_101)\n    tag_102:\n      dup3\n      add\n      swap2\n      swap1\n      0x00\n      mstore\n      keccak256(0x00, 0x20)\n      swap1\n    tag_103:\n      dup2\n      sload\n      dup2\n      mstore\n      swap1\n      0x01\n      add\n      swap1\n      0x20\n      add\n      dup1\n      dup4\n      gt\n      tag_103\n      jumpi\n      dup3\n      swap1\n      sub\n      0x1f\n      and\n      dup3\n      add\n      swap2\n    tag_101:\n      pop\n      pop\n      pop\n      pop\n      pop\n      dup2\n      mstore\n      0x20\n      add\n      0x01\n      dup3\n      add\n      sload\n      dup2\n      mstore\n      0x20\n      add\n      0x02\n      dup3\n      add\n      0x00\n      swap1\n      sload\n      swap1\n      0x0100\n      exp\n      swap1\n      div\n      0xffffffffffffffffffffffffffffffffffffffff\n      and\n      0xffffffffffffffffffffffffffffffffffffffff\n      and\n      0xffffffffffffffffffffffffffffffffffffffff\n      and\n      dup2\n      mstore\n      0x20\n      add\n      0x02\n      dup3\n      add\n      0x14\n      swap1\n      sload\n      swap1\n      0x0100\n      exp\n      swap1\n      div\n      0xff\n      and\n      0x06\n      dup2\n      gt\n      iszero\n      tag_104\n      jumpi\n      mstore(0x00, 0x4e487b7100000000000000000000000000000000000000000000000000000000)\n      mstore(0x04, 0x21)\n      revert(0x00, 0x24)\n    tag_104:\n      0x06\n      dup2\n      gt\n      iszero\n      tag_105\n      jumpi\n      mstore(0x00, 0x4e487b7100000000000000000000000000000000000000000000000000000000)\n      mstore(0x04, 0x21)\n      revert(0x00, 0x24)\n    tag_105:\n      dup2\n      mstore\n      0x20\n      add\n      0x03\n      dup3\n      add\n      sload\n      dup2\n      mstore\n      pop\n      pop\n        /* \"contracts/main.sol\":2517:2525  newOrder */\n      dup2\n        /* \"contracts/main.sol\":2517:2535  newOrder.orderItem */\n      0x20\n      add\n        /* \"contracts/main.sol\":2517:2548  newOrder.orderItem = Items[_id] */\n      dup2\n      swap1\n      mstore\n      pop\n        /* \"contracts/main.sol\":2569:2577  newOrder */\n      dup1\n        /* \"contracts/main.sol\":2558:2564  orders */\n      0x06\n        /* \"contracts/main.sol\":2558:2568  orders[on] */\n      0x00\n        /* \"contracts/main.sol\":2565:2567  on */\n      sload(0x05)\n        /* \"contracts/main.sol\":2558:2568  orders[on] */\n      dup2\n      mstore\n      0x20\n      add\n      swap1\n      dup2\n      mstore\n      0x20\n      add\n      0x00\n      keccak256\n        /* \"contracts/main.sol\":2558:2577  orders[on]=newOrder */\n      0x00\n      dup3\n      add\n      mload\n      dup2\n      0x00\n      add\n      sstore\n      0x20\n      dup3\n      add\n      mload\n      dup2\n      0x01\n      add\n      0x00\n      dup3\n      add\n      mload\n      dup2\n      0x00\n      add\n      swap1\n      dup1\n      mload\n      swap1\n      0x20\n      add\n      swap1\n      tag_106\n      swap3\n      swap2\n      swap1\n      tag_78\n      jump\t// in\n    tag_106:\n      pop\n      0x20\n      dup3\n      add\n      mload\n      dup2\n      0x01\n      add\n      sstore\n      0x40\n      dup3\n      add\n      mload\n      dup2\n      0x02\n      add\n      exp(0x0100, 0x00)\n      dup2\n      sload\n      dup2\n      0xffffffffffffffffffffffffffffffffffffffff\n      mul\n      not\n      and\n      swap1\n      dup4\n      0xffffffffffffffffffffffffffffffffffffffff\n      and\n      mul\n      or\n      swap1\n      sstore\n      pop\n      0x60\n      dup3\n      add\n      mload\n      dup2\n      0x02\n      add\n      exp(0x0100, 0x14)\n      dup2\n      sload\n      dup2\n      0xff\n      mul\n      not\n      and\n      swap1\n      dup4\n      0x06\n      dup2\n      gt\n      iszero\n      tag_107\n      jumpi\n      mstore(0x00, 0x4e487b7100000000000000000000000000000000000000000000000000000000)\n      mstore(0x04, 0x21)\n      revert(0x00, 0x24)\n    tag_107:\n      mul\n      or\n      swap1\n      sstore\n      pop\n      0x80\n      dup3\n      add\n      mload\n      dup2\n      0x03\n      add\n      sstore\n      pop\n      pop\n      0x40\n      dup3\n      add\n      mload\n      dup2\n      0x05\n      add\n      exp(0x0100, 0x00)\n      dup2\n      sload\n      dup2\n      0xffffffffffffffffffffffffffffffffffffffff\n      mul\n      not\n      and\n      swap1\n      dup4\n      0xffffffffffffffffffffffffffffffffffffffff\n      and\n      mul\n      or\n      swap1\n      sstore\n      pop\n      0x60\n      dup3\n      add\n      mload\n      dup2\n      0x05\n      add\n      exp(0x0100, 0x14)\n      dup2\n      sload\n      dup2\n      0xff\n      mul\n      not\n      and\n      swap1\n      dup4\n      0x02\n      dup2\n      gt\n      iszero\n      tag_108\n      jumpi\n      mstore(0x00, 0x4e487b7100000000000000000000000000000000000000000000000000000000)\n      mstore(0x04, 0x21)\n      revert(0x00, 0x24)\n    tag_108:\n      mul\n      or\n      swap1\n      sstore\n      pop\n      swap1\n      pop\n      pop\n        /* \"contracts/main.sol\":2592:2619  orderPlaced(_id,msg.sender) */\n      0xef7b116480495ad6b1c6479820e4a0140e78de3846e138c5d055ad601408725e\n        /* \"contracts/main.sol\":2604:2607  _id */\n      dup5\n        /* \"contracts/main.sol\":2608:2618  msg.sender */\n      caller\n        /* \"contracts/main.sol\":2592:2619  orderPlaced(_id,msg.sender) */\n      mload(0x40)\n      tag_109\n      swap3\n      swap2\n      swap1\n      tag_110\n      jump\t// in\n    tag_109:\n      mload(0x40)\n      dup1\n      swap2\n      sub\n      swap1\n      log1\n        /* \"contracts/main.sol\":2635:2636  1 */\n      0x01\n        /* \"contracts/main.sol\":2632:2634  on */\n      sload(0x05)\n        /* \"contracts/main.sol\":2632:2636  on+1 */\n      tag_111\n      swap2\n      swap1\n      tag_83\n      jump\t// in\n    tag_111:\n        /* \"contracts/main.sol\":2629:2631  on */\n      0x05\n        /* \"contracts/main.sol\":2629:2636  on=on+1 */\n      dup2\n      swap1\n      sstore\n      pop\n        /* \"contracts/modifier.sol\":1325:1326  _ */\n      pop\n        /* \"contracts/main.sol\":2298:2644  function order(uint _id) public hasMoney(0,0)\r... */\n      pop\n      pop\n      pop\n      jump\t// out\n        /* \"contracts/main.sol\":841:1280  function addtransporter(string memory _uname) public {\r... */\n    tag_33:\n        /* \"contracts/main.sol\":905:938  participant memory newParticipant */\n      tag_113\n      tag_74\n      jump\t// in\n    tag_113:\n        /* \"contracts/main.sol\":975:981  _uname */\n      dup2\n        /* \"contracts/main.sol\":950:964  newParticipant */\n      dup2\n        /* \"contracts/main.sol\":950:973  newParticipant.username */\n      0x00\n      add\n        /* \"contracts/main.sol\":950:981  newParticipant.username =_uname */\n      dup2\n      swap1\n      mstore\n      pop\n        /* \"contracts/main.sol\":1016:1018  pc */\n      sload(0x02)\n        /* \"contracts/main.sol\":992:1006  newParticipant */\n      dup2\n        /* \"contracts/main.sol\":992:1013  newParticipant.userId */\n      0x20\n      add\n        /* \"contracts/main.sol\":992:1018  newParticipant.userId = pc */\n      dup2\n      dup2\n      mstore\n      pop\n      pop\n        /* \"contracts/main.sol\":1052:1053  0 */\n      0x00\n        /* \"contracts/main.sol\":1029:1043  newParticipant */\n      dup2\n        /* \"contracts/main.sol\":1029:1049  newParticipant.money */\n      0x80\n      add\n        /* \"contracts/main.sol\":1029:1053  newParticipant.money = 0 */\n      dup2\n      dup2\n      mstore\n      pop\n      pop\n        /* \"contracts/main.sol\":1086:1107  user_type.transporter */\n      0x01\n        /* \"contracts/main.sol\":1064:1078  newParticipant */\n      dup2\n        /* \"contracts/main.sol\":1064:1084  newParticipant.utype */\n      0x40\n      add\n        /* \"contracts/main.sol\":1064:1107  newParticipant.utype= user_type.transporter */\n      swap1\n      0x03\n      dup2\n      gt\n      iszero\n      tag_114\n      jumpi\n      mstore(0x00, 0x4e487b7100000000000000000000000000000000000000000000000000000000)\n      mstore(0x04, 0x21)\n      revert(0x00, 0x24)\n    tag_114:\n      swap1\n      dup2\n      0x03\n      dup2\n      gt\n      iszero\n      tag_115\n      jumpi\n      mstore(0x00, 0x4e487b7100000000000000000000000000000000000000000000000000000000)\n      mstore(0x04, 0x21)\n      revert(0x00, 0x24)\n    tag_115:\n      dup2\n      mstore\n      pop\n      pop\n        /* \"contracts/main.sol\":1148:1158  msg.sender */\n      caller\n        /* \"contracts/main.sol\":1118:1132  newParticipant */\n      dup2\n        /* \"contracts/main.sol\":1118:1145  newParticipant.user_address */\n      0x60\n      add\n        /* \"contracts/main.sol\":1118:1158  newParticipant.user_address = msg.sender */\n      swap1\n      0xffffffffffffffffffffffffffffffffffffffff\n      and\n      swap1\n      dup2\n      0xffffffffffffffffffffffffffffffffffffffff\n      and\n      dup2\n      mstore\n      pop\n      pop\n        /* \"contracts/main.sol\":1186:1200  newParticipant */\n      dup1\n        /* \"contracts/main.sol\":1169:1181  participants */\n      0x03\n        /* \"contracts/main.sol\":1169:1185  participants[pc] */\n      0x00\n        /* \"contracts/main.sol\":1182:1184  pc */\n      sload(0x02)\n        /* \"contracts/main.sol\":1169:1185  participants[pc] */\n      dup2\n      mstore\n      0x20\n      add\n      swap1\n      dup2\n      mstore\n      0x20\n      add\n      0x00\n      keccak256\n        /* \"contracts/main.sol\":1169:1200  participants[pc]=newParticipant */\n      0x00\n      dup3\n      add\n      mload\n      dup2\n      0x00\n      add\n      swap1\n      dup1\n      mload\n      swap1\n      0x20\n      add\n      swap1\n      tag_116\n      swap3\n      swap2\n      swap1\n      tag_78\n      jump\t// in\n    tag_116:\n      pop\n      0x20\n      dup3\n      add\n      mload\n      dup2\n      0x01\n      add\n      sstore\n      0x40\n      dup3\n      add\n      mload\n      dup2\n      0x02\n      add\n      exp(0x0100, 0x00)\n      dup2\n      sload\n      dup2\n      0xff\n      mul\n      not\n      and\n      swap1\n      dup4\n      0x03\n      dup2\n      gt\n      iszero\n      tag_117\n      jumpi\n      mstore(0x00, 0x4e487b7100000000000000000000000000000000000000000000000000000000)\n      mstore(0x04, 0x21)\n      revert(0x00, 0x24)\n    tag_117:\n      mul\n      or\n      swap1\n      sstore\n      pop\n      0x60\n      dup3\n      add\n      mload\n      dup2\n      0x02\n      add\n      exp(0x0100, 0x01)\n      dup2\n      sload\n      dup2\n      0xffffffffffffffffffffffffffffffffffffffff\n      mul\n      not\n      and\n      swap1\n      dup4\n      0xffffffffffffffffffffffffffffffffffffffff\n      and\n      mul\n      or\n      swap1\n      sstore\n      pop\n      0x80\n      dup3\n      add\n      mload\n      dup2\n      0x03\n      add\n      sstore\n      swap1\n      pop\n      pop\n        /* \"contracts/main.sol\":1238:1252  newParticipant */\n      dup1\n        /* \"contracts/main.sol\":1211:1225  participantsId */\n      0x04\n        /* \"contracts/main.sol\":1211:1237  participantsId[msg.sender] */\n      0x00\n        /* \"contracts/main.sol\":1226:1236  msg.sender */\n      caller\n        /* \"contracts/main.sol\":1211:1237  participantsId[msg.sender] */\n      0xffffffffffffffffffffffffffffffffffffffff\n      and\n      0xffffffffffffffffffffffffffffffffffffffff\n      and\n      dup2\n      mstore\n      0x20\n      add\n      swap1\n      dup2\n      mstore\n      0x20\n      add\n      0x00\n      keccak256\n        /* \"contracts/main.sol\":1211:1252  participantsId[msg.sender]=newParticipant */\n      0x00\n      dup3\n      add\n      mload\n      dup2\n      0x00\n      add\n      swap1\n      dup1\n      mload\n      swap1\n      0x20\n      add\n      swap1\n      tag_118\n      swap3\n      swap2\n      swap1\n      tag_78\n      jump\t// in\n    tag_118:\n      pop\n      0x20\n      dup3\n      add\n      mload\n      dup2\n      0x01\n      add\n      sstore\n      0x40\n      dup3\n      add\n      mload\n      dup2\n      0x02\n      add\n      exp(0x0100, 0x00)\n      dup2\n      sload\n      dup2\n      0xff\n      mul\n      not\n      and\n      swap1\n      dup4\n      0x03\n      dup2\n      gt\n      iszero\n      tag_119\n      jumpi\n      mstore(0x00, 0x4e487b7100000000000000000000000000000000000000000000000000000000)\n      mstore(0x04, 0x21)\n      revert(0x00, 0x24)\n    tag_119:\n      mul\n      or\n      swap1\n      sstore\n      pop\n      0x60\n      dup3\n      add\n      mload\n      dup2\n      0x02\n      add\n      exp(0x0100, 0x01)\n      dup2\n      sload\n      dup2\n      0xffffffffffffffffffffffffffffffffffffffff\n      mul\n      not\n      and\n      swap1\n      dup4\n      0xffffffffffffffffffffffffffffffffffffffff\n      and\n      mul\n      or\n      swap1\n      sstore\n      pop\n      0x80\n      dup3\n      add\n      mload\n      dup2\n      0x03\n      add\n      sstore\n      swap1\n      pop\n      pop\n        /* \"contracts/main.sol\":1269:1270  1 */\n      0x01\n        /* \"contracts/main.sol\":1266:1268  pc */\n      sload(0x02)\n        /* \"contracts/main.sol\":1266:1270  pc+1 */\n      tag_120\n      swap2\n      swap1\n      tag_83\n      jump\t// in\n    tag_120:\n        /* \"contracts/main.sol\":1263:1265  pc */\n      0x02\n        /* \"contracts/main.sol\":1263:1270  pc=pc+1 */\n      dup2\n      swap1\n      sstore\n      pop\n        /* \"contracts/main.sol\":841:1280  function addtransporter(string memory _uname) public {\r... */\n      pop\n      pop\n      jump\t// out\n        /* \"contracts/member.sol\":347:393  mapping(uint=>participant) public participants */\n    tag_36:\n      mstore(0x20, 0x03)\n      dup1\n      0x00\n      mstore\n      keccak256(0x00, 0x40)\n      0x00\n      swap2\n      pop\n      swap1\n      pop\n      dup1\n      0x00\n      add\n      dup1\n      sload\n      tag_121\n      swap1\n      tag_85\n      jump\t// in\n    tag_121:\n      dup1\n      0x1f\n      add\n      0x20\n      dup1\n      swap2\n      div\n      mul\n      0x20\n      add\n      mload(0x40)\n      swap1\n      dup2\n      add\n      0x40\n      mstore\n      dup1\n      swap3\n      swap2\n      swap1\n      dup2\n      dup2\n      mstore\n      0x20\n      add\n      dup3\n      dup1\n      sload\n      tag_122\n      swap1\n      tag_85\n      jump\t// in\n    tag_122:\n      dup1\n      iszero\n      tag_123\n      jumpi\n      dup1\n      0x1f\n      lt\n      tag_124\n      jumpi\n      0x0100\n      dup1\n      dup4\n      sload\n      div\n      mul\n      dup4\n      mstore\n      swap2\n      0x20\n      add\n      swap2\n      jump(tag_123)\n    tag_124:\n      dup3\n      add\n      swap2\n      swap1\n      0x00\n      mstore\n      keccak256(0x00, 0x20)\n      swap1\n    tag_125:\n      dup2\n      sload\n      dup2\n      mstore\n      swap1\n      0x01\n      add\n      swap1\n      0x20\n      add\n      dup1\n      dup4\n      gt\n      tag_125\n      jumpi\n      dup3\n      swap1\n      sub\n      0x1f\n      and\n      dup3\n      add\n      swap2\n    tag_123:\n      pop\n      pop\n      pop\n      pop\n      pop\n      swap1\n      dup1\n      0x01\n      add\n      sload\n      swap1\n      dup1\n      0x02\n      add\n      0x00\n      swap1\n      sload\n      swap1\n      0x0100\n      exp\n      swap1\n      div\n      0xff\n      and\n      swap1\n      dup1\n      0x02\n      add\n      0x01\n      swap1\n      sload\n      swap1\n      0x0100\n      exp\n      swap1\n      div\n      0xffffffffffffffffffffffffffffffffffffffff\n      and\n      swap1\n      dup1\n      0x03\n      add\n      sload\n      swap1\n      pop\n      dup6\n      jump\t// out\n        /* \"contracts/main.sol\":2860:2968  function productDetail(uint _id) public view returns (item memory)\r... */\n    tag_41:\n        /* \"contracts/main.sol\":2914:2925  item memory */\n      tag_126\n      tag_127\n      jump\t// in\n    tag_126:\n        /* \"contracts/main.sol\":2950:2955  Items */\n      0x01\n        /* \"contracts/main.sol\":2950:2960  Items[_id] */\n      0x00\n        /* \"contracts/main.sol\":2956:2959  _id */\n      dup4\n        /* \"contracts/main.sol\":2950:2960  Items[_id] */\n      dup2\n      mstore\n      0x20\n      add\n      swap1\n      dup2\n      mstore\n      0x20\n      add\n      0x00\n      keccak256\n        /* \"contracts/main.sol\":2943:2960  return Items[_id] */\n      mload(0x40)\n      dup1\n      0xa0\n      add\n      0x40\n      mstore\n      swap1\n      dup2\n      0x00\n      dup3\n      add\n      dup1\n      sload\n      tag_129\n      swap1\n      tag_85\n      jump\t// in\n    tag_129:\n      dup1\n      0x1f\n      add\n      0x20\n      dup1\n      swap2\n      div\n      mul\n      0x20\n      add\n      mload(0x40)\n      swap1\n      dup2\n      add\n      0x40\n      mstore\n      dup1\n      swap3\n      swap2\n      swap1\n      dup2\n      dup2\n      mstore\n      0x20\n      add\n      dup3\n      dup1\n      sload\n      tag_130\n      swap1\n      tag_85\n      jump\t// in\n    tag_130:\n      dup1\n      iszero\n      tag_131\n      jumpi\n      dup1\n      0x1f\n      lt\n      tag_132\n      jumpi\n      0x0100\n      dup1\n      dup4\n      sload\n      div\n      mul\n      dup4\n      mstore\n      swap2\n      0x20\n      add\n      swap2\n      jump(tag_131)\n    tag_132:\n      dup3\n      add\n      swap2\n      swap1\n      0x00\n      mstore\n      keccak256(0x00, 0x20)\n      swap1\n    tag_133:\n      dup2\n      sload\n      dup2\n      mstore\n      swap1\n      0x01\n      add\n      swap1\n      0x20\n      add\n      dup1\n      dup4\n      gt\n      tag_133\n      jumpi\n      dup3\n      swap1\n      sub\n      0x1f\n      and\n      dup3\n      add\n      swap2\n    tag_131:\n      pop\n      pop\n      pop\n      pop\n      pop\n      dup2\n      mstore\n      0x20\n      add\n      0x01\n      dup3\n      add\n      sload\n      dup2\n      mstore\n      0x20\n      add\n      0x02\n      dup3\n      add\n      0x00\n      swap1\n      sload\n      swap1\n      0x0100\n      exp\n      swap1\n      div\n      0xffffffffffffffffffffffffffffffffffffffff\n      and\n      0xffffffffffffffffffffffffffffffffffffffff\n      and\n      0xffffffffffffffffffffffffffffffffffffffff\n      and\n      dup2\n      mstore\n      0x20\n      add\n      0x02\n      dup3\n      add\n      0x14\n      swap1\n      sload\n      swap1\n      0x0100\n      exp\n      swap1\n      div\n      0xff\n      and\n      0x06\n      dup2\n      gt\n      iszero\n      tag_134\n      jumpi\n      mstore(0x00, 0x4e487b7100000000000000000000000000000000000000000000000000000000)\n      mstore(0x04, 0x21)\n      revert(0x00, 0x24)\n    tag_134:\n      0x06\n      dup2\n      gt\n      iszero\n      tag_135\n      jumpi\n      mstore(0x00, 0x4e487b7100000000000000000000000000000000000000000000000000000000)\n      mstore(0x04, 0x21)\n      revert(0x00, 0x24)\n    tag_135:\n      dup2\n      mstore\n      0x20\n      add\n      0x03\n      dup3\n      add\n      sload\n      dup2\n      mstore\n      pop\n      pop\n      swap1\n      pop\n        /* \"contracts/main.sol\":2860:2968  function productDetail(uint _id) public view returns (item memory)\r... */\n      swap2\n      swap1\n      pop\n      jump\t// out\n        /* \"contracts/main.sol\":2656:2852  function ship_product(uint _id,address _transporter_address) public productowner(_id)\r... */\n    tag_47:\n        /* \"contracts/main.sol\":2737:2740  _id */\n      dup2\n        /* \"contracts/modifier.sol\":1424:1434  msg.sender */\n      caller\n        /* \"contracts/modifier.sol\":1400:1434  Items[_id].itemOwner == msg.sender */\n      0xffffffffffffffffffffffffffffffffffffffff\n      and\n        /* \"contracts/modifier.sol\":1400:1405  Items */\n      0x01\n        /* \"contracts/modifier.sol\":1400:1410  Items[_id] */\n      0x00\n        /* \"contracts/modifier.sol\":1406:1409  _id */\n      dup4\n        /* \"contracts/modifier.sol\":1400:1410  Items[_id] */\n      dup2\n      mstore\n      0x20\n      add\n      swap1\n      dup2\n      mstore\n      0x20\n      add\n      0x00\n      keccak256\n        /* \"contracts/modifier.sol\":1400:1420  Items[_id].itemOwner */\n      0x02\n      add\n      0x00\n      swap1\n      sload\n      swap1\n      0x0100\n      exp\n      swap1\n      div\n      0xffffffffffffffffffffffffffffffffffffffff\n      and\n        /* \"contracts/modifier.sol\":1400:1434  Items[_id].itemOwner == msg.sender */\n      0xffffffffffffffffffffffffffffffffffffffff\n      and\n      eq\n        /* \"contracts/modifier.sol\":1392:1472  require(Items[_id].itemOwner == msg.sender ,\"you are not owner of this product\") */\n      tag_137\n      jumpi\n      mload(0x40)\n      0x08c379a000000000000000000000000000000000000000000000000000000000\n      dup2\n      mstore\n      0x04\n      add\n      tag_138\n      swap1\n      tag_139\n      jump\t// in\n    tag_138:\n      mload(0x40)\n      dup1\n      swap2\n      sub\n      swap1\n      revert\n    tag_137:\n        /* \"contracts/main.sol\":2783:2796  state.shipped */\n      0x03\n        /* \"contracts/main.sol\":2757:2762  Items */\n      0x01\n        /* \"contracts/main.sol\":2757:2767  Items[_id] */\n      0x00\n        /* \"contracts/main.sol\":2763:2766  _id */\n      dup6\n        /* \"contracts/main.sol\":2757:2767  Items[_id] */\n      dup2\n      mstore\n      0x20\n      add\n      swap1\n      dup2\n      mstore\n      0x20\n      add\n      0x00\n      keccak256\n        /* \"contracts/main.sol\":2757:2780  Items[_id].productState */\n      0x02\n      add\n      0x14\n        /* \"contracts/main.sol\":2757:2796  Items[_id].productState = state.shipped */\n      0x0100\n      exp\n      dup2\n      sload\n      dup2\n      0xff\n      mul\n      not\n      and\n      swap1\n      dup4\n      0x06\n      dup2\n      gt\n      iszero\n      tag_141\n      jumpi\n      mstore(0x00, 0x4e487b7100000000000000000000000000000000000000000000000000000000)\n      mstore(0x04, 0x21)\n      revert(0x00, 0x24)\n    tag_141:\n      mul\n      or\n      swap1\n      sstore\n      pop\n        /* \"contracts/main.sol\":2811:2844  shipped(_id,_transporter_address) */\n      0x45af58aaf003ac2ec2ad90282f8d3d79ede476b3e19183acb4abdebf6553b6a9\n        /* \"contracts/main.sol\":2819:2822  _id */\n      dup4\n        /* \"contracts/main.sol\":2823:2843  _transporter_address */\n      dup4\n        /* \"contracts/main.sol\":2811:2844  shipped(_id,_transporter_address) */\n      mload(0x40)\n      tag_142\n      swap3\n      swap2\n      swap1\n      tag_110\n      jump\t// in\n    tag_142:\n      mload(0x40)\n      dup1\n      swap2\n      sub\n      swap1\n      log1\n        /* \"contracts/main.sol\":2656:2852  function ship_product(uint _id,address _transporter_address) public productowner(_id)\r... */\n      pop\n      pop\n      pop\n      jump\t// out\n        /* \"contracts/main.sol\":3095:3215  function personDetail(uint _id) public view returns(participant memory)\r... */\n    tag_50:\n        /* \"contracts/main.sol\":3147:3165  participant memory */\n      tag_143\n      tag_74\n      jump\t// in\n    tag_143:\n        /* \"contracts/main.sol\":3190:3202  participants */\n      0x03\n        /* \"contracts/main.sol\":3190:3207  participants[_id] */\n      0x00\n        /* \"contracts/main.sol\":3203:3206  _id */\n      dup4\n        /* \"contracts/main.sol\":3190:3207  participants[_id] */\n      dup2\n      mstore\n      0x20\n      add\n      swap1\n      dup2\n      mstore\n      0x20\n      add\n      0x00\n      keccak256\n        /* \"contracts/main.sol\":3183:3207  return participants[_id] */\n      mload(0x40)\n      dup1\n      0xa0\n      add\n      0x40\n      mstore\n      swap1\n      dup2\n      0x00\n      dup3\n      add\n      dup1\n      sload\n      tag_145\n      swap1\n      tag_85\n      jump\t// in\n    tag_145:\n      dup1\n      0x1f\n      add\n      0x20\n      dup1\n      swap2\n      div\n      mul\n      0x20\n      add\n      mload(0x40)\n      swap1\n      dup2\n      add\n      0x40\n      mstore\n      dup1\n      swap3\n      swap2\n      swap1\n      dup2\n      dup2\n      mstore\n      0x20\n      add\n      dup3\n      dup1\n      sload\n      tag_146\n      swap1\n      tag_85\n      jump\t// in\n    tag_146:\n      dup1\n      iszero\n      tag_147\n      jumpi\n      dup1\n      0x1f\n      lt\n      tag_148\n      jumpi\n      0x0100\n      dup1\n      dup4\n      sload\n      div\n      mul\n      dup4\n      mstore\n      swap2\n      0x20\n      add\n      swap2\n      jump(tag_147)\n    tag_148:\n      dup3\n      add\n      swap2\n      swap1\n      0x00\n      mstore\n      keccak256(0x00, 0x20)\n      swap1\n    tag_149:\n      dup2\n      sload\n      dup2\n      mstore\n      swap1\n      0x01\n      add\n      swap1\n      0x20\n      add\n      dup1\n      dup4\n      gt\n      tag_149\n      jumpi\n      dup3\n      swap1\n      sub\n      0x1f\n      and\n      dup3\n      add\n      swap2\n    tag_147:\n      pop\n      pop\n      pop\n      pop\n      pop\n      dup2\n      mstore\n      0x20\n      add\n      0x01\n      dup3\n      add\n      sload\n      dup2\n      mstore\n      0x20\n      add\n      0x02\n      dup3\n      add\n      0x00\n      swap1\n      sload\n      swap1\n      0x0100\n      exp\n      swap1\n      div\n      0xff\n      and\n      0x03\n      dup2\n      gt\n      iszero\n      tag_150\n      jumpi\n      mstore(0x00, 0x4e487b7100000000000000000000000000000000000000000000000000000000)\n      mstore(0x04, 0x21)\n      revert(0x00, 0x24)\n    tag_150:\n      0x03\n      dup2\n      gt\n      iszero\n      tag_151\n      jumpi\n      mstore(0x00, 0x4e487b7100000000000000000000000000000000000000000000000000000000)\n      mstore(0x04, 0x21)\n      revert(0x00, 0x24)\n    tag_151:\n      dup2\n      mstore\n      0x20\n      add\n      0x02\n      dup3\n      add\n      0x01\n      swap1\n      sload\n      swap1\n      0x0100\n      exp\n      swap1\n      div\n      0xffffffffffffffffffffffffffffffffffffffff\n      and\n      0xffffffffffffffffffffffffffffffffffffffff\n      and\n      0xffffffffffffffffffffffffffffffffffffffff\n      and\n      dup2\n      mstore\n      0x20\n      add\n      0x03\n      dup3\n      add\n      sload\n      dup2\n      mstore\n      pop\n      pop\n      swap1\n      pop\n        /* \"contracts/main.sol\":3095:3215  function personDetail(uint _id) public view returns(participant memory)\r... */\n      swap2\n      swap1\n      pop\n      jump\t// out\n        /* \"contracts/main.sol\":1733:2130  function addItem(string memory _product_name , uint cost) public onlyDistributor(msg.sender)\r... */\n    tag_56:\n        /* \"contracts/main.sol\":1814:1824  msg.sender */\n      caller\n        /* \"contracts/modifier.sol\":428:446  user_type.supplier */\n      0x00\n        /* \"contracts/modifier.sol\":394:446  participantsId[_address].utype == user_type.supplier */\n      0x03\n      dup2\n      gt\n      iszero\n      tag_153\n      jumpi\n      mstore(0x00, 0x4e487b7100000000000000000000000000000000000000000000000000000000)\n      mstore(0x04, 0x21)\n      revert(0x00, 0x24)\n    tag_153:\n        /* \"contracts/modifier.sol\":394:408  participantsId */\n      0x04\n        /* \"contracts/modifier.sol\":394:418  participantsId[_address] */\n      0x00\n        /* \"contracts/modifier.sol\":409:417  _address */\n      dup4\n        /* \"contracts/modifier.sol\":394:418  participantsId[_address] */\n      0xffffffffffffffffffffffffffffffffffffffff\n      and\n      0xffffffffffffffffffffffffffffffffffffffff\n      and\n      dup2\n      mstore\n      0x20\n      add\n      swap1\n      dup2\n      mstore\n      0x20\n      add\n      0x00\n      keccak256\n        /* \"contracts/modifier.sol\":394:424  participantsId[_address].utype */\n      0x02\n      add\n      0x00\n      swap1\n      sload\n      swap1\n      0x0100\n      exp\n      swap1\n      div\n      0xff\n      and\n        /* \"contracts/modifier.sol\":394:446  participantsId[_address].utype == user_type.supplier */\n      0x03\n      dup2\n      gt\n      iszero\n      tag_154\n      jumpi\n      mstore(0x00, 0x4e487b7100000000000000000000000000000000000000000000000000000000)\n      mstore(0x04, 0x21)\n      revert(0x00, 0x24)\n    tag_154:\n      eq\n        /* \"contracts/modifier.sol\":386:477  require(participantsId[_address].utype == user_type.supplier ,\"you cannot add new product\") */\n      tag_155\n      jumpi\n      mload(0x40)\n      0x08c379a000000000000000000000000000000000000000000000000000000000\n      dup2\n      mstore\n      0x04\n      add\n      tag_156\n      swap1\n      tag_157\n      jump\t// in\n    tag_156:\n      mload(0x40)\n      dup1\n      swap2\n      sub\n      swap1\n      revert\n    tag_155:\n        /* \"contracts/main.sol\":1842:1861  item memory newItem */\n      tag_159\n      tag_127\n      jump\t// in\n    tag_159:\n        /* \"contracts/main.sol\":1894:1907  _product_name */\n      dup4\n        /* \"contracts/main.sol\":1872:1879  newItem */\n      dup2\n        /* \"contracts/main.sol\":1872:1892  newItem.product_name */\n      0x00\n      add\n        /* \"contracts/main.sol\":1872:1907  newItem.product_name =_product_name */\n      dup2\n      swap1\n      mstore\n      pop\n        /* \"contracts/main.sol\":1938:1940  ic */\n      sload(0x00)\n        /* \"contracts/main.sol\":1918:1925  newItem */\n      dup2\n        /* \"contracts/main.sol\":1918:1935  newItem.productId */\n      0x20\n      add\n        /* \"contracts/main.sol\":1918:1940  newItem.productId = ic */\n      dup2\n      dup2\n      mstore\n      pop\n      pop\n        /* \"contracts/main.sol\":1971:1981  msg.sender */\n      caller\n        /* \"contracts/main.sol\":1951:1958  newItem */\n      dup2\n        /* \"contracts/main.sol\":1951:1968  newItem.itemOwner */\n      0x40\n      add\n        /* \"contracts/main.sol\":1951:1981  newItem.itemOwner = msg.sender */\n      swap1\n      0xffffffffffffffffffffffffffffffffffffffff\n      and\n      swap1\n      dup2\n      0xffffffffffffffffffffffffffffffffffffffff\n      and\n      dup2\n      mstore\n      pop\n      pop\n        /* \"contracts/main.sol\":2015:2031  state.AtSupplier */\n      0x00\n        /* \"contracts/main.sol\":1992:1999  newItem */\n      dup2\n        /* \"contracts/main.sol\":1992:2012  newItem.productState */\n      0x60\n      add\n        /* \"contracts/main.sol\":1992:2031  newItem.productState = state.AtSupplier */\n      swap1\n      0x06\n      dup2\n      gt\n      iszero\n      tag_160\n      jumpi\n      mstore(0x00, 0x4e487b7100000000000000000000000000000000000000000000000000000000)\n      mstore(0x04, 0x21)\n      revert(0x00, 0x24)\n    tag_160:\n      swap1\n      dup2\n      0x06\n      dup2\n      gt\n      iszero\n      tag_161\n      jumpi\n      mstore(0x00, 0x4e487b7100000000000000000000000000000000000000000000000000000000)\n      mstore(0x04, 0x21)\n      revert(0x00, 0x24)\n    tag_161:\n      dup2\n      mstore\n      pop\n      pop\n        /* \"contracts/main.sol\":2052:2059  newItem */\n      dup1\n        /* \"contracts/main.sol\":2042:2047  Items */\n      0x01\n        /* \"contracts/main.sol\":2042:2051  Items[ic] */\n      0x00\n        /* \"contracts/main.sol\":2048:2050  ic */\n      dup1\n      sload\n        /* \"contracts/main.sol\":2042:2051  Items[ic] */\n      dup2\n      mstore\n      0x20\n      add\n      swap1\n      dup2\n      mstore\n      0x20\n      add\n      0x00\n      keccak256\n        /* \"contracts/main.sol\":2042:2059  Items[ic]=newItem */\n      0x00\n      dup3\n      add\n      mload\n      dup2\n      0x00\n      add\n      swap1\n      dup1\n      mload\n      swap1\n      0x20\n      add\n      swap1\n      tag_162\n      swap3\n      swap2\n      swap1\n      tag_78\n      jump\t// in\n    tag_162:\n      pop\n      0x20\n      dup3\n      add\n      mload\n      dup2\n      0x01\n      add\n      sstore\n      0x40\n      dup3\n      add\n      mload\n      dup2\n      0x02\n      add\n      exp(0x0100, 0x00)\n      dup2\n      sload\n      dup2\n      0xffffffffffffffffffffffffffffffffffffffff\n      mul\n      not\n      and\n      swap1\n      dup4\n      0xffffffffffffffffffffffffffffffffffffffff\n      and\n      mul\n      or\n      swap1\n      sstore\n      pop\n      0x60\n      dup3\n      add\n      mload\n      dup2\n      0x02\n      add\n      exp(0x0100, 0x14)\n      dup2\n      sload\n      dup2\n      0xff\n      mul\n      not\n      and\n      swap1\n      dup4\n      0x06\n      dup2\n      gt\n      iszero\n      tag_163\n      jumpi\n      mstore(0x00, 0x4e487b7100000000000000000000000000000000000000000000000000000000)\n      mstore(0x04, 0x21)\n      revert(0x00, 0x24)\n    tag_163:\n      mul\n      or\n      swap1\n      sstore\n      pop\n      0x80\n      dup3\n      add\n      mload\n      dup2\n      0x03\n      add\n      sstore\n      swap1\n      pop\n      pop\n        /* \"contracts/main.sol\":2075:2102  itemcreated(ic ,msg.sender) */\n      0x4e95503bf2c40739506d6f0afb0fe6be42ce748d90f3f516386892fb6096e5bc\n        /* \"contracts/main.sol\":2087:2089  ic */\n      sload(0x00)\n        /* \"contracts/main.sol\":2091:2101  msg.sender */\n      caller\n        /* \"contracts/main.sol\":2075:2102  itemcreated(ic ,msg.sender) */\n      mload(0x40)\n      tag_164\n      swap3\n      swap2\n      swap1\n      tag_110\n      jump\t// in\n    tag_164:\n      mload(0x40)\n      dup1\n      swap2\n      sub\n      swap1\n      log1\n        /* \"contracts/main.sol\":2119:2120  1 */\n      0x01\n        /* \"contracts/main.sol\":2116:2118  ic */\n      sload(0x00)\n        /* \"contracts/main.sol\":2116:2120  ic+1 */\n      tag_165\n      swap2\n      swap1\n      tag_83\n      jump\t// in\n    tag_165:\n        /* \"contracts/main.sol\":2113:2115  ic */\n      0x00\n        /* \"contracts/main.sol\":2113:2120  ic=ic+1 */\n      dup2\n      swap1\n      sstore\n      pop\n        /* \"contracts/modifier.sol\":489:490  _ */\n      pop\n        /* \"contracts/main.sol\":1733:2130  function addItem(string memory _product_name , uint cost) public onlyDistributor(msg.sender)\r... */\n      pop\n      pop\n      pop\n      jump\t// out\n        /* \"contracts/modifier.sol\":133:153  address public owner */\n    tag_58:\n      0x07\n      0x00\n      swap1\n      sload\n      swap1\n      0x0100\n      exp\n      swap1\n      div\n      0xffffffffffffffffffffffffffffffffffffffff\n      and\n      dup2\n      jump\t// out\n        /* \"contracts/main.sol\":1286:1727  function addManufacturer(string memory _uname) public {\r... */\n    tag_63:\n        /* \"contracts/main.sol\":1351:1384  participant memory newParticipant */\n      tag_167\n      tag_74\n      jump\t// in\n    tag_167:\n        /* \"contracts/main.sol\":1421:1427  _uname */\n      dup2\n        /* \"contracts/main.sol\":1396:1410  newParticipant */\n      dup2\n        /* \"contracts/main.sol\":1396:1419  newParticipant.username */\n      0x00\n      add\n        /* \"contracts/main.sol\":1396:1427  newParticipant.username =_uname */\n      dup2\n      swap1\n      mstore\n      pop\n        /* \"contracts/main.sol\":1462:1464  pc */\n      sload(0x02)\n        /* \"contracts/main.sol\":1438:1452  newParticipant */\n      dup2\n        /* \"contracts/main.sol\":1438:1459  newParticipant.userId */\n      0x20\n      add\n        /* \"contracts/main.sol\":1438:1464  newParticipant.userId = pc */\n      dup2\n      dup2\n      mstore\n      pop\n      pop\n        /* \"contracts/main.sol\":1498:1499  0 */\n      0x00\n        /* \"contracts/main.sol\":1475:1489  newParticipant */\n      dup2\n        /* \"contracts/main.sol\":1475:1495  newParticipant.money */\n      0x80\n      add\n        /* \"contracts/main.sol\":1475:1499  newParticipant.money = 0 */\n      dup2\n      dup2\n      mstore\n      pop\n      pop\n        /* \"contracts/main.sol\":1532:1554  user_type.manufacturer */\n      0x03\n        /* \"contracts/main.sol\":1510:1524  newParticipant */\n      dup2\n        /* \"contracts/main.sol\":1510:1530  newParticipant.utype */\n      0x40\n      add\n        /* \"contracts/main.sol\":1510:1554  newParticipant.utype= user_type.manufacturer */\n      swap1\n      0x03\n      dup2\n      gt\n      iszero\n      tag_168\n      jumpi\n      mstore(0x00, 0x4e487b7100000000000000000000000000000000000000000000000000000000)\n      mstore(0x04, 0x21)\n      revert(0x00, 0x24)\n    tag_168:\n      swap1\n      dup2\n      0x03\n      dup2\n      gt\n      iszero\n      tag_169\n      jumpi\n      mstore(0x00, 0x4e487b7100000000000000000000000000000000000000000000000000000000)\n      mstore(0x04, 0x21)\n      revert(0x00, 0x24)\n    tag_169:\n      dup2\n      mstore\n      pop\n      pop\n        /* \"contracts/main.sol\":1595:1605  msg.sender */\n      caller\n        /* \"contracts/main.sol\":1565:1579  newParticipant */\n      dup2\n        /* \"contracts/main.sol\":1565:1592  newParticipant.user_address */\n      0x60\n      add\n        /* \"contracts/main.sol\":1565:1605  newParticipant.user_address = msg.sender */\n      swap1\n      0xffffffffffffffffffffffffffffffffffffffff\n      and\n      swap1\n      dup2\n      0xffffffffffffffffffffffffffffffffffffffff\n      and\n      dup2\n      mstore\n      pop\n      pop\n        /* \"contracts/main.sol\":1633:1647  newParticipant */\n      dup1\n        /* \"contracts/main.sol\":1616:1628  participants */\n      0x03\n        /* \"contracts/main.sol\":1616:1632  participants[pc] */\n      0x00\n        /* \"contracts/main.sol\":1629:1631  pc */\n      sload(0x02)\n        /* \"contracts/main.sol\":1616:1632  participants[pc] */\n      dup2\n      mstore\n      0x20\n      add\n      swap1\n      dup2\n      mstore\n      0x20\n      add\n      0x00\n      keccak256\n        /* \"contracts/main.sol\":1616:1647  participants[pc]=newParticipant */\n      0x00\n      dup3\n      add\n      mload\n      dup2\n      0x00\n      add\n      swap1\n      dup1\n      mload\n      swap1\n      0x20\n      add\n      swap1\n      tag_170\n      swap3\n      swap2\n      swap1\n      tag_78\n      jump\t// in\n    tag_170:\n      pop\n      0x20\n      dup3\n      add\n      mload\n      dup2\n      0x01\n      add\n      sstore\n      0x40\n      dup3\n      add\n      mload\n      dup2\n      0x02\n      add\n      exp(0x0100, 0x00)\n      dup2\n      sload\n      dup2\n      0xff\n      mul\n      not\n      and\n      swap1\n      dup4\n      0x03\n      dup2\n      gt\n      iszero\n      tag_171\n      jumpi\n      mstore(0x00, 0x4e487b7100000000000000000000000000000000000000000000000000000000)\n      mstore(0x04, 0x21)\n      revert(0x00, 0x24)\n    tag_171:\n      mul\n      or\n      swap1\n      sstore\n      pop\n      0x60\n      dup3\n      add\n      mload\n      dup2\n      0x02\n      add\n      exp(0x0100, 0x01)\n      dup2\n      sload\n      dup2\n      0xffffffffffffffffffffffffffffffffffffffff\n      mul\n      not\n      and\n      swap1\n      dup4\n      0xffffffffffffffffffffffffffffffffffffffff\n      and\n      mul\n      or\n      swap1\n      sstore\n      pop\n      0x80\n      dup3\n      add\n      mload\n      dup2\n      0x03\n      add\n      sstore\n      swap1\n      pop\n      pop\n        /* \"contracts/main.sol\":1685:1699  newParticipant */\n      dup1\n        /* \"contracts/main.sol\":1658:1672  participantsId */\n      0x04\n        /* \"contracts/main.sol\":1658:1684  participantsId[msg.sender] */\n      0x00\n        /* \"contracts/main.sol\":1673:1683  msg.sender */\n      caller\n        /* \"contracts/main.sol\":1658:1684  participantsId[msg.sender] */\n      0xffffffffffffffffffffffffffffffffffffffff\n      and\n      0xffffffffffffffffffffffffffffffffffffffff\n      and\n      dup2\n      mstore\n      0x20\n      add\n      swap1\n      dup2\n      mstore\n      0x20\n      add\n      0x00\n      keccak256\n        /* \"contracts/main.sol\":1658:1699  participantsId[msg.sender]=newParticipant */\n      0x00\n      dup3\n      add\n      mload\n      dup2\n      0x00\n      add\n      swap1\n      dup1\n      mload\n      swap1\n      0x20\n      add\n      swap1\n      tag_172\n      swap3\n      swap2\n      swap1\n      tag_78\n      jump\t// in\n    tag_172:\n      pop\n      0x20\n      dup3\n      add\n      mload\n      dup2\n      0x01\n      add\n      sstore\n      0x40\n      dup3\n      add\n      mload\n      dup2\n      0x02\n      add\n      exp(0x0100, 0x00)\n      dup2\n      sload\n      dup2\n      0xff\n      mul\n      not\n      and\n      swap1\n      dup4\n      0x03\n      dup2\n      gt\n      iszero\n      tag_173\n      jumpi\n      mstore(0x00, 0x4e487b7100000000000000000000000000000000000000000000000000000000)\n      mstore(0x04, 0x21)\n      revert(0x00, 0x24)\n    tag_173:\n      mul\n      or\n      swap1\n      sstore\n      pop\n      0x60\n      dup3\n      add\n      mload\n      dup2\n      0x02\n      add\n      exp(0x0100, 0x01)\n      dup2\n      sload\n      dup2\n      0xffffffffffffffffffffffffffffffffffffffff\n      mul\n      not\n      and\n      swap1\n      dup4\n      0xffffffffffffffffffffffffffffffffffffffff\n      and\n      mul\n      or\n      swap1\n      sstore\n      pop\n      0x80\n      dup3\n      add\n      mload\n      dup2\n      0x03\n      add\n      sstore\n      swap1\n      pop\n      pop\n        /* \"contracts/main.sol\":1716:1717  1 */\n      0x01\n        /* \"contracts/main.sol\":1713:1715  pc */\n      sload(0x02)\n        /* \"contracts/main.sol\":1713:1717  pc+1 */\n      tag_174\n      swap2\n      swap1\n      tag_83\n      jump\t// in\n    tag_174:\n        /* \"contracts/main.sol\":1710:1712  pc */\n      0x02\n        /* \"contracts/main.sol\":1710:1717  pc=pc+1 */\n      dup2\n      swap1\n      sstore\n      pop\n        /* \"contracts/main.sol\":1286:1727  function addManufacturer(string memory _uname) public {\r... */\n      pop\n      pop\n      jump\t// out\n        /* \"contracts/main.sol\":2974:3087  function currentState(uint _id)public view returns(state )\r... */\n    tag_66:\n        /* \"contracts/main.sol\":3025:3030  state */\n      0x00\n        /* \"contracts/main.sol\":3056:3061  Items */\n      0x01\n        /* \"contracts/main.sol\":3056:3066  Items[_id] */\n      0x00\n        /* \"contracts/main.sol\":3062:3065  _id */\n      dup4\n        /* \"contracts/main.sol\":3056:3066  Items[_id] */\n      dup2\n      mstore\n      0x20\n      add\n      swap1\n      dup2\n      mstore\n      0x20\n      add\n      0x00\n      keccak256\n        /* \"contracts/main.sol\":3056:3079  Items[_id].productState */\n      0x02\n      add\n      0x14\n      swap1\n      sload\n      swap1\n      0x0100\n      exp\n      swap1\n      div\n      0xff\n      and\n        /* \"contracts/main.sol\":3049:3079  return Items[_id].productState */\n      swap1\n      pop\n        /* \"contracts/main.sol\":2974:3087  function currentState(uint _id)public view returns(state )\r... */\n      swap2\n      swap1\n      pop\n      jump\t// out\n        /* \"contracts/main.sol\":2136:2292  function avaliableforsale(uint _id) public productowner(_id)\r... */\n    tag_71:\n        /* \"contracts/main.sol\":2192:2195  _id */\n      dup1\n        /* \"contracts/modifier.sol\":1424:1434  msg.sender */\n      caller\n        /* \"contracts/modifier.sol\":1400:1434  Items[_id].itemOwner == msg.sender */\n      0xffffffffffffffffffffffffffffffffffffffff\n      and\n        /* \"contracts/modifier.sol\":1400:1405  Items */\n      0x01\n        /* \"contracts/modifier.sol\":1400:1410  Items[_id] */\n      0x00\n        /* \"contracts/modifier.sol\":1406:1409  _id */\n      dup4\n        /* \"contracts/modifier.sol\":1400:1410  Items[_id] */\n      dup2\n      mstore\n      0x20\n      add\n      swap1\n      dup2\n      mstore\n      0x20\n      add\n      0x00\n      keccak256\n        /* \"contracts/modifier.sol\":1400:1420  Items[_id].itemOwner */\n      0x02\n      add\n      0x00\n      swap1\n      sload\n      swap1\n      0x0100\n      exp\n      swap1\n      div\n      0xffffffffffffffffffffffffffffffffffffffff\n      and\n        /* \"contracts/modifier.sol\":1400:1434  Items[_id].itemOwner == msg.sender */\n      0xffffffffffffffffffffffffffffffffffffffff\n      and\n      eq\n        /* \"contracts/modifier.sol\":1392:1472  require(Items[_id].itemOwner == msg.sender ,\"you are not owner of this product\") */\n      tag_177\n      jumpi\n      mload(0x40)\n      0x08c379a000000000000000000000000000000000000000000000000000000000\n      dup2\n      mstore\n      0x04\n      add\n      tag_178\n      swap1\n      tag_139\n      jump\t// in\n    tag_178:\n      mload(0x40)\n      dup1\n      swap2\n      sub\n      swap1\n      revert\n    tag_177:\n        /* \"contracts/main.sol\":2239:2252  state.ForSale */\n      0x01\n        /* \"contracts/main.sol\":2213:2218  Items */\n      dup1\n        /* \"contracts/main.sol\":2213:2223  Items[_id] */\n      0x00\n        /* \"contracts/main.sol\":2219:2222  _id */\n      dup5\n        /* \"contracts/main.sol\":2213:2223  Items[_id] */\n      dup2\n      mstore\n      0x20\n      add\n      swap1\n      dup2\n      mstore\n      0x20\n      add\n      0x00\n      keccak256\n        /* \"contracts/main.sol\":2213:2236  Items[_id].productState */\n      0x02\n      add\n      0x14\n        /* \"contracts/main.sol\":2213:2252  Items[_id].productState = state.ForSale */\n      0x0100\n      exp\n      dup2\n      sload\n      dup2\n      0xff\n      mul\n      not\n      and\n      swap1\n      dup4\n      0x06\n      dup2\n      gt\n      iszero\n      tag_180\n      jumpi\n      mstore(0x00, 0x4e487b7100000000000000000000000000000000000000000000000000000000)\n      mstore(0x04, 0x21)\n      revert(0x00, 0x24)\n    tag_180:\n      mul\n      or\n      swap1\n      sstore\n      pop\n        /* \"contracts/main.sol\":2268:2284  openForSale(_id) */\n      0x15f51416bf6f180a7f06ab542b87dacc1363e503b8df75d711f9aaedc5c48a70\n        /* \"contracts/main.sol\":2280:2283  _id */\n      dup3\n        /* \"contracts/main.sol\":2268:2284  openForSale(_id) */\n      mload(0x40)\n      tag_181\n      swap2\n      swap1\n      tag_182\n      jump\t// in\n    tag_181:\n      mload(0x40)\n      dup1\n      swap2\n      sub\n      swap1\n      log1\n        /* \"contracts/main.sol\":2136:2292  function avaliableforsale(uint _id) public productowner(_id)\r... */\n      pop\n      pop\n      jump\t// out\n    tag_74:\n      mload(0x40)\n      dup1\n      0xa0\n      add\n      0x40\n      mstore\n      dup1\n      0x60\n      dup2\n      mstore\n      0x20\n      add\n      0x00\n      dup2\n      mstore\n      0x20\n      add\n      0x00\n      0x03\n      dup2\n      gt\n      iszero\n      tag_183\n      jumpi\n      mstore(0x00, 0x4e487b7100000000000000000000000000000000000000000000000000000000)\n      mstore(0x04, 0x21)\n      revert(0x00, 0x24)\n    tag_183:\n      dup2\n      mstore\n      0x20\n      add\n      and(0xffffffffffffffffffffffffffffffffffffffff, 0x00)\n      dup2\n      mstore\n      0x20\n      add\n      0x00\n      dup2\n      mstore\n      pop\n      swap1\n      jump\t// out\n    tag_78:\n      dup3\n      dup1\n      sload\n      tag_184\n      swap1\n      tag_85\n      jump\t// in\n    tag_184:\n      swap1\n      0x00\n      mstore\n      keccak256(0x00, 0x20)\n      swap1\n      0x1f\n      add\n      0x20\n      swap1\n      div\n      dup2\n      add\n      swap3\n      dup3\n      tag_186\n      jumpi\n      0x00\n      dup6\n      sstore\n      jump(tag_185)\n    tag_186:\n      dup3\n      0x1f\n      lt\n      tag_187\n      jumpi\n      dup1\n      mload\n      not(0xff)\n      and\n      dup4\n      dup1\n      add\n      or\n      dup6\n      sstore\n      jump(tag_185)\n    tag_187:\n      dup3\n      dup1\n      add\n      0x01\n      add\n      dup6\n      sstore\n      dup3\n      iszero\n      tag_185\n      jumpi\n      swap2\n      dup3\n      add\n    tag_188:\n      dup3\n      dup2\n      gt\n      iszero\n      tag_189\n      jumpi\n      dup3\n      mload\n      dup3\n      sstore\n      swap2\n      0x20\n      add\n      swap2\n      swap1\n      0x01\n      add\n      swap1\n      jump(tag_188)\n    tag_189:\n    tag_185:\n      pop\n      swap1\n      pop\n      tag_190\n      swap2\n      swap1\n      tag_191\n      jump\t// in\n    tag_190:\n      pop\n      swap1\n      jump\t// out\n    tag_96:\n      mload(0x40)\n      dup1\n      0x80\n      add\n      0x40\n      mstore\n      dup1\n      0x00\n      dup2\n      mstore\n      0x20\n      add\n      tag_192\n      tag_127\n      jump\t// in\n    tag_192:\n      dup2\n      mstore\n      0x20\n      add\n      and(0xffffffffffffffffffffffffffffffffffffffff, 0x00)\n      dup2\n      mstore\n      0x20\n      add\n      0x00\n      0x02\n      dup2\n      gt\n      iszero\n      tag_193\n      jumpi\n      mstore(0x00, 0x4e487b7100000000000000000000000000000000000000000000000000000000)\n      mstore(0x04, 0x21)\n      revert(0x00, 0x24)\n    tag_193:\n      dup2\n      mstore\n      pop\n      swap1\n      jump\t// out\n    tag_127:\n      mload(0x40)\n      dup1\n      0xa0\n      add\n      0x40\n      mstore\n      dup1\n      0x60\n      dup2\n      mstore\n      0x20\n      add\n      0x00\n      dup2\n      mstore\n      0x20\n      add\n      and(0xffffffffffffffffffffffffffffffffffffffff, 0x00)\n      dup2\n      mstore\n      0x20\n      add\n      0x00\n      0x06\n      dup2\n      gt\n      iszero\n      tag_194\n      jumpi\n      mstore(0x00, 0x4e487b7100000000000000000000000000000000000000000000000000000000)\n      mstore(0x04, 0x21)\n      revert(0x00, 0x24)\n    tag_194:\n      dup2\n      mstore\n      0x20\n      add\n      0x00\n      dup2\n      mstore\n      pop\n      swap1\n      jump\t// out\n    tag_191:\n    tag_195:\n      dup1\n      dup3\n      gt\n      iszero\n      tag_196\n      jumpi\n      0x00\n      dup2\n      0x00\n      swap1\n      sstore\n      pop\n      0x01\n      add\n      jump(tag_195)\n    tag_196:\n      pop\n      swap1\n      jump\t// out\n        /* \"#utility.yul\":7:351   */\n    tag_198:\n      0x00\n        /* \"#utility.yul\":110:175   */\n      tag_200\n        /* \"#utility.yul\":125:174   */\n      tag_201\n        /* \"#utility.yul\":167:173   */\n      dup5\n        /* \"#utility.yul\":125:174   */\n      tag_202\n      jump\t// in\n    tag_201:\n        /* \"#utility.yul\":110:175   */\n      tag_203\n      jump\t// in\n    tag_200:\n        /* \"#utility.yul\":101:175   */\n      swap1\n      pop\n        /* \"#utility.yul\":198:204   */\n      dup3\n        /* \"#utility.yul\":191:196   */\n      dup2\n        /* \"#utility.yul\":184:205   */\n      mstore\n        /* \"#utility.yul\":236:240   */\n      0x20\n        /* \"#utility.yul\":229:234   */\n      dup2\n        /* \"#utility.yul\":225:241   */\n      add\n        /* \"#utility.yul\":274:277   */\n      dup5\n        /* \"#utility.yul\":265:271   */\n      dup5\n        /* \"#utility.yul\":260:263   */\n      dup5\n        /* \"#utility.yul\":256:272   */\n      add\n        /* \"#utility.yul\":253:278   */\n      gt\n        /* \"#utility.yul\":250:252   */\n      iszero\n      tag_204\n      jumpi\n        /* \"#utility.yul\":291:292   */\n      0x00\n        /* \"#utility.yul\":288:289   */\n      dup1\n        /* \"#utility.yul\":281:293   */\n      revert\n        /* \"#utility.yul\":250:252   */\n    tag_204:\n        /* \"#utility.yul\":304:345   */\n      tag_205\n        /* \"#utility.yul\":338:344   */\n      dup5\n        /* \"#utility.yul\":333:336   */\n      dup3\n        /* \"#utility.yul\":328:331   */\n      dup6\n        /* \"#utility.yul\":304:345   */\n      tag_206\n      jump\t// in\n    tag_205:\n        /* \"#utility.yul\":91:351   */\n      pop\n      swap4\n      swap3\n      pop\n      pop\n      pop\n      jump\t// out\n        /* \"#utility.yul\":357:496   */\n    tag_207:\n      0x00\n        /* \"#utility.yul\":441:447   */\n      dup2\n        /* \"#utility.yul\":428:448   */\n      calldataload\n        /* \"#utility.yul\":419:448   */\n      swap1\n      pop\n        /* \"#utility.yul\":457:490   */\n      tag_209\n        /* \"#utility.yul\":484:489   */\n      dup2\n        /* \"#utility.yul\":457:490   */\n      tag_210\n      jump\t// in\n    tag_209:\n        /* \"#utility.yul\":409:496   */\n      swap3\n      swap2\n      pop\n      pop\n      jump\t// out\n        /* \"#utility.yul\":516:789   */\n    tag_211:\n      0x00\n        /* \"#utility.yul\":621:624   */\n      dup3\n        /* \"#utility.yul\":614:618   */\n      0x1f\n        /* \"#utility.yul\":606:612   */\n      dup4\n        /* \"#utility.yul\":602:619   */\n      add\n        /* \"#utility.yul\":598:625   */\n      slt\n        /* \"#utility.yul\":588:590   */\n      tag_213\n      jumpi\n        /* \"#utility.yul\":639:640   */\n      0x00\n        /* \"#utility.yul\":636:637   */\n      dup1\n        /* \"#utility.yul\":629:641   */\n      revert\n        /* \"#utility.yul\":588:590   */\n    tag_213:\n        /* \"#utility.yul\":679:685   */\n      dup2\n        /* \"#utility.yul\":666:686   */\n      calldataload\n        /* \"#utility.yul\":704:783   */\n      tag_214\n        /* \"#utility.yul\":779:782   */\n      dup5\n        /* \"#utility.yul\":771:777   */\n      dup3\n        /* \"#utility.yul\":764:768   */\n      0x20\n        /* \"#utility.yul\":756:762   */\n      dup7\n        /* \"#utility.yul\":752:769   */\n      add\n        /* \"#utility.yul\":704:783   */\n      tag_198\n      jump\t// in\n    tag_214:\n        /* \"#utility.yul\":695:783   */\n      swap2\n      pop\n        /* \"#utility.yul\":578:789   */\n      pop\n      swap3\n      swap2\n      pop\n      pop\n      jump\t// out\n        /* \"#utility.yul\":795:934   */\n    tag_215:\n      0x00\n        /* \"#utility.yul\":879:885   */\n      dup2\n        /* \"#utility.yul\":866:886   */\n      calldataload\n        /* \"#utility.yul\":857:886   */\n      swap1\n      pop\n        /* \"#utility.yul\":895:928   */\n      tag_217\n        /* \"#utility.yul\":922:927   */\n      dup2\n        /* \"#utility.yul\":895:928   */\n      tag_218\n      jump\t// in\n    tag_217:\n        /* \"#utility.yul\":847:934   */\n      swap3\n      swap2\n      pop\n      pop\n      jump\t// out\n        /* \"#utility.yul\":940:1315   */\n    tag_20:\n      0x00\n        /* \"#utility.yul\":1058:1060   */\n      0x20\n        /* \"#utility.yul\":1046:1055   */\n      dup3\n        /* \"#utility.yul\":1037:1044   */\n      dup5\n        /* \"#utility.yul\":1033:1056   */\n      sub\n        /* \"#utility.yul\":1029:1061   */\n      slt\n        /* \"#utility.yul\":1026:1028   */\n      iszero\n      tag_220\n      jumpi\n        /* \"#utility.yul\":1074:1075   */\n      0x00\n        /* \"#utility.yul\":1071:1072   */\n      dup1\n        /* \"#utility.yul\":1064:1076   */\n      revert\n        /* \"#utility.yul\":1026:1028   */\n    tag_220:\n        /* \"#utility.yul\":1145:1146   */\n      0x00\n        /* \"#utility.yul\":1134:1143   */\n      dup3\n        /* \"#utility.yul\":1130:1147   */\n      add\n        /* \"#utility.yul\":1117:1148   */\n      calldataload\n        /* \"#utility.yul\":1175:1193   */\n      0xffffffffffffffff\n        /* \"#utility.yul\":1167:1173   */\n      dup2\n        /* \"#utility.yul\":1164:1194   */\n      gt\n        /* \"#utility.yul\":1161:1163   */\n      iszero\n      tag_221\n      jumpi\n        /* \"#utility.yul\":1207:1208   */\n      0x00\n        /* \"#utility.yul\":1204:1205   */\n      dup1\n        /* \"#utility.yul\":1197:1209   */\n      revert\n        /* \"#utility.yul\":1161:1163   */\n    tag_221:\n        /* \"#utility.yul\":1235:1298   */\n      tag_222\n        /* \"#utility.yul\":1290:1297   */\n      dup5\n        /* \"#utility.yul\":1281:1287   */\n      dup3\n        /* \"#utility.yul\":1270:1279   */\n      dup6\n        /* \"#utility.yul\":1266:1288   */\n      add\n        /* \"#utility.yul\":1235:1298   */\n      tag_211\n      jump\t// in\n    tag_222:\n        /* \"#utility.yul\":1225:1298   */\n      swap2\n      pop\n        /* \"#utility.yul\":1088:1308   */\n      pop\n        /* \"#utility.yul\":1016:1315   */\n      swap3\n      swap2\n      pop\n      pop\n      jump\t// out\n        /* \"#utility.yul\":1321:1841   */\n    tag_55:\n      0x00\n      dup1\n        /* \"#utility.yul\":1456:1458   */\n      0x40\n        /* \"#utility.yul\":1444:1453   */\n      dup4\n        /* \"#utility.yul\":1435:1442   */\n      dup6\n        /* \"#utility.yul\":1431:1454   */\n      sub\n        /* \"#utility.yul\":1427:1459   */\n      slt\n        /* \"#utility.yul\":1424:1426   */\n      iszero\n      tag_224\n      jumpi\n        /* \"#utility.yul\":1472:1473   */\n      0x00\n        /* \"#utility.yul\":1469:1470   */\n      dup1\n        /* \"#utility.yul\":1462:1474   */\n      revert\n        /* \"#utility.yul\":1424:1426   */\n    tag_224:\n        /* \"#utility.yul\":1543:1544   */\n      0x00\n        /* \"#utility.yul\":1532:1541   */\n      dup4\n        /* \"#utility.yul\":1528:1545   */\n      add\n        /* \"#utility.yul\":1515:1546   */\n      calldataload\n        /* \"#utility.yul\":1573:1591   */\n      0xffffffffffffffff\n        /* \"#utility.yul\":1565:1571   */\n      dup2\n        /* \"#utility.yul\":1562:1592   */\n      gt\n        /* \"#utility.yul\":1559:1561   */\n      iszero\n      tag_225\n      jumpi\n        /* \"#utility.yul\":1605:1606   */\n      0x00\n        /* \"#utility.yul\":1602:1603   */\n      dup1\n        /* \"#utility.yul\":1595:1607   */\n      revert\n        /* \"#utility.yul\":1559:1561   */\n    tag_225:\n        /* \"#utility.yul\":1633:1696   */\n      tag_226\n        /* \"#utility.yul\":1688:1695   */\n      dup6\n        /* \"#utility.yul\":1679:1685   */\n      dup3\n        /* \"#utility.yul\":1668:1677   */\n      dup7\n        /* \"#utility.yul\":1664:1686   */\n      add\n        /* \"#utility.yul\":1633:1696   */\n      tag_211\n      jump\t// in\n    tag_226:\n        /* \"#utility.yul\":1623:1696   */\n      swap3\n      pop\n        /* \"#utility.yul\":1486:1706   */\n      pop\n        /* \"#utility.yul\":1745:1747   */\n      0x20\n        /* \"#utility.yul\":1771:1824   */\n      tag_227\n        /* \"#utility.yul\":1816:1823   */\n      dup6\n        /* \"#utility.yul\":1807:1813   */\n      dup3\n        /* \"#utility.yul\":1796:1805   */\n      dup7\n        /* \"#utility.yul\":1792:1814   */\n      add\n        /* \"#utility.yul\":1771:1824   */\n      tag_215\n      jump\t// in\n    tag_227:\n        /* \"#utility.yul\":1761:1824   */\n      swap2\n      pop\n        /* \"#utility.yul\":1716:1834   */\n      pop\n        /* \"#utility.yul\":1414:1841   */\n      swap3\n      pop\n      swap3\n      swap1\n      pop\n      jump\t// out\n        /* \"#utility.yul\":1847:2109   */\n    tag_24:\n      0x00\n        /* \"#utility.yul\":1955:1957   */\n      0x20\n        /* \"#utility.yul\":1943:1952   */\n      dup3\n        /* \"#utility.yul\":1934:1941   */\n      dup5\n        /* \"#utility.yul\":1930:1953   */\n      sub\n        /* \"#utility.yul\":1926:1958   */\n      slt\n        /* \"#utility.yul\":1923:1925   */\n      iszero\n      tag_229\n      jumpi\n        /* \"#utility.yul\":1971:1972   */\n      0x00\n        /* \"#utility.yul\":1968:1969   */\n      dup1\n        /* \"#utility.yul\":1961:1973   */\n      revert\n        /* \"#utility.yul\":1923:1925   */\n    tag_229:\n        /* \"#utility.yul\":2014:2015   */\n      0x00\n        /* \"#utility.yul\":2039:2092   */\n      tag_230\n        /* \"#utility.yul\":2084:2091   */\n      dup5\n        /* \"#utility.yul\":2075:2081   */\n      dup3\n        /* \"#utility.yul\":2064:2073   */\n      dup6\n        /* \"#utility.yul\":2060:2082   */\n      add\n        /* \"#utility.yul\":2039:2092   */\n      tag_215\n      jump\t// in\n    tag_230:\n        /* \"#utility.yul\":2029:2092   */\n      swap2\n      pop\n        /* \"#utility.yul\":1985:2102   */\n      pop\n        /* \"#utility.yul\":1913:2109   */\n      swap3\n      swap2\n      pop\n      pop\n      jump\t// out\n        /* \"#utility.yul\":2115:2522   */\n    tag_46:\n      0x00\n      dup1\n        /* \"#utility.yul\":2240:2242   */\n      0x40\n        /* \"#utility.yul\":2228:2237   */\n      dup4\n        /* \"#utility.yul\":2219:2226   */\n      dup6\n        /* \"#utility.yul\":2215:2238   */\n      sub\n        /* \"#utility.yul\":2211:2243   */\n      slt\n        /* \"#utility.yul\":2208:2210   */\n      iszero\n      tag_232\n      jumpi\n        /* \"#utility.yul\":2256:2257   */\n      0x00\n        /* \"#utility.yul\":2253:2254   */\n      dup1\n        /* \"#utility.yul\":2246:2258   */\n      revert\n        /* \"#utility.yul\":2208:2210   */\n    tag_232:\n        /* \"#utility.yul\":2299:2300   */\n      0x00\n        /* \"#utility.yul\":2324:2377   */\n      tag_233\n        /* \"#utility.yul\":2369:2376   */\n      dup6\n        /* \"#utility.yul\":2360:2366   */\n      dup3\n        /* \"#utility.yul\":2349:2358   */\n      dup7\n        /* \"#utility.yul\":2345:2367   */\n      add\n        /* \"#utility.yul\":2324:2377   */\n      tag_215\n      jump\t// in\n    tag_233:\n        /* \"#utility.yul\":2314:2377   */\n      swap3\n      pop\n        /* \"#utility.yul\":2270:2387   */\n      pop\n        /* \"#utility.yul\":2426:2428   */\n      0x20\n        /* \"#utility.yul\":2452:2505   */\n      tag_234\n        /* \"#utility.yul\":2497:2504   */\n      dup6\n        /* \"#utility.yul\":2488:2494   */\n      dup3\n        /* \"#utility.yul\":2477:2486   */\n      dup7\n        /* \"#utility.yul\":2473:2495   */\n      add\n        /* \"#utility.yul\":2452:2505   */\n      tag_207\n      jump\t// in\n    tag_234:\n        /* \"#utility.yul\":2442:2505   */\n      swap2\n      pop\n        /* \"#utility.yul\":2397:2515   */\n      pop\n        /* \"#utility.yul\":2198:2522   */\n      swap3\n      pop\n      swap3\n      swap1\n      pop\n      jump\t// out\n        /* \"#utility.yul\":2528:2636   */\n    tag_235:\n        /* \"#utility.yul\":2605:2629   */\n      tag_237\n        /* \"#utility.yul\":2623:2628   */\n      dup2\n        /* \"#utility.yul\":2605:2629   */\n      tag_238\n      jump\t// in\n    tag_237:\n        /* \"#utility.yul\":2600:2603   */\n      dup3\n        /* \"#utility.yul\":2593:2630   */\n      mstore\n        /* \"#utility.yul\":2583:2636   */\n      pop\n      pop\n      jump\t// out\n        /* \"#utility.yul\":2642:2760   */\n    tag_239:\n        /* \"#utility.yul\":2729:2753   */\n      tag_241\n        /* \"#utility.yul\":2747:2752   */\n      dup2\n        /* \"#utility.yul\":2729:2753   */\n      tag_238\n      jump\t// in\n    tag_241:\n        /* \"#utility.yul\":2724:2727   */\n      dup3\n        /* \"#utility.yul\":2717:2754   */\n      mstore\n        /* \"#utility.yul\":2707:2760   */\n      pop\n      pop\n      jump\t// out\n        /* \"#utility.yul\":2766:2899   */\n    tag_242:\n        /* \"#utility.yul\":2849:2892   */\n      tag_244\n        /* \"#utility.yul\":2886:2891   */\n      dup2\n        /* \"#utility.yul\":2849:2892   */\n      tag_245\n      jump\t// in\n    tag_244:\n        /* \"#utility.yul\":2844:2847   */\n      dup3\n        /* \"#utility.yul\":2837:2893   */\n      mstore\n        /* \"#utility.yul\":2827:2899   */\n      pop\n      pop\n      jump\t// out\n        /* \"#utility.yul\":2905:3048   */\n    tag_246:\n        /* \"#utility.yul\":2998:3041   */\n      tag_248\n        /* \"#utility.yul\":3035:3040   */\n      dup2\n        /* \"#utility.yul\":2998:3041   */\n      tag_245\n      jump\t// in\n    tag_248:\n        /* \"#utility.yul\":2993:2996   */\n      dup3\n        /* \"#utility.yul\":2986:3042   */\n      mstore\n        /* \"#utility.yul\":2976:3048   */\n      pop\n      pop\n      jump\t// out\n        /* \"#utility.yul\":3054:3197   */\n    tag_249:\n        /* \"#utility.yul\":3142:3190   */\n      tag_251\n        /* \"#utility.yul\":3184:3189   */\n      dup2\n        /* \"#utility.yul\":3142:3190   */\n      tag_252\n      jump\t// in\n    tag_251:\n        /* \"#utility.yul\":3137:3140   */\n      dup3\n        /* \"#utility.yul\":3130:3191   */\n      mstore\n        /* \"#utility.yul\":3120:3197   */\n      pop\n      pop\n      jump\t// out\n        /* \"#utility.yul\":3203:3356   */\n    tag_253:\n        /* \"#utility.yul\":3301:3349   */\n      tag_255\n        /* \"#utility.yul\":3343:3348   */\n      dup2\n        /* \"#utility.yul\":3301:3349   */\n      tag_252\n      jump\t// in\n    tag_255:\n        /* \"#utility.yul\":3296:3299   */\n      dup3\n        /* \"#utility.yul\":3289:3350   */\n      mstore\n        /* \"#utility.yul\":3279:3356   */\n      pop\n      pop\n      jump\t// out\n        /* \"#utility.yul\":3362:3706   */\n    tag_256:\n      0x00\n        /* \"#utility.yul\":3468:3507   */\n      tag_258\n        /* \"#utility.yul\":3501:3506   */\n      dup3\n        /* \"#utility.yul\":3468:3507   */\n      tag_259\n      jump\t// in\n    tag_258:\n        /* \"#utility.yul\":3523:3584   */\n      tag_260\n        /* \"#utility.yul\":3577:3583   */\n      dup2\n        /* \"#utility.yul\":3572:3575   */\n      dup6\n        /* \"#utility.yul\":3523:3584   */\n      tag_261\n      jump\t// in\n    tag_260:\n        /* \"#utility.yul\":3516:3584   */\n      swap4\n      pop\n        /* \"#utility.yul\":3593:3645   */\n      tag_262\n        /* \"#utility.yul\":3638:3644   */\n      dup2\n        /* \"#utility.yul\":3633:3636   */\n      dup6\n        /* \"#utility.yul\":3626:3630   */\n      0x20\n        /* \"#utility.yul\":3619:3624   */\n      dup7\n        /* \"#utility.yul\":3615:3631   */\n      add\n        /* \"#utility.yul\":3593:3645   */\n      tag_263\n      jump\t// in\n    tag_262:\n        /* \"#utility.yul\":3670:3699   */\n      tag_264\n        /* \"#utility.yul\":3692:3698   */\n      dup2\n        /* \"#utility.yul\":3670:3699   */\n      tag_265\n      jump\t// in\n    tag_264:\n        /* \"#utility.yul\":3665:3668   */\n      dup5\n        /* \"#utility.yul\":3661:3700   */\n      add\n        /* \"#utility.yul\":3654:3700   */\n      swap2\n      pop\n        /* \"#utility.yul\":3444:3706   */\n      pop\n      swap3\n      swap2\n      pop\n      pop\n      jump\t// out\n        /* \"#utility.yul\":3712:4076   */\n    tag_266:\n      0x00\n        /* \"#utility.yul\":3828:3867   */\n      tag_268\n        /* \"#utility.yul\":3861:3866   */\n      dup3\n        /* \"#utility.yul\":3828:3867   */\n      tag_259\n      jump\t// in\n    tag_268:\n        /* \"#utility.yul\":3883:3954   */\n      tag_269\n        /* \"#utility.yul\":3947:3953   */\n      dup2\n        /* \"#utility.yul\":3942:3945   */\n      dup6\n        /* \"#utility.yul\":3883:3954   */\n      tag_270\n      jump\t// in\n    tag_269:\n        /* \"#utility.yul\":3876:3954   */\n      swap4\n      pop\n        /* \"#utility.yul\":3963:4015   */\n      tag_271\n        /* \"#utility.yul\":4008:4014   */\n      dup2\n        /* \"#utility.yul\":4003:4006   */\n      dup6\n        /* \"#utility.yul\":3996:4000   */\n      0x20\n        /* \"#utility.yul\":3989:3994   */\n      dup7\n        /* \"#utility.yul\":3985:4001   */\n      add\n        /* \"#utility.yul\":3963:4015   */\n      tag_263\n      jump\t// in\n    tag_271:\n        /* \"#utility.yul\":4040:4069   */\n      tag_272\n        /* \"#utility.yul\":4062:4068   */\n      dup2\n        /* \"#utility.yul\":4040:4069   */\n      tag_265\n      jump\t// in\n    tag_272:\n        /* \"#utility.yul\":4035:4038   */\n      dup5\n        /* \"#utility.yul\":4031:4070   */\n      add\n        /* \"#utility.yul\":4024:4070   */\n      swap2\n      pop\n        /* \"#utility.yul\":3804:4076   */\n      pop\n      swap3\n      swap2\n      pop\n      pop\n      jump\t// out\n        /* \"#utility.yul\":4082:4406   */\n    tag_273:\n      0x00\n        /* \"#utility.yul\":4245:4312   */\n      tag_275\n        /* \"#utility.yul\":4309:4311   */\n      0x1a\n        /* \"#utility.yul\":4304:4307   */\n      dup4\n        /* \"#utility.yul\":4245:4312   */\n      tag_270\n      jump\t// in\n    tag_275:\n        /* \"#utility.yul\":4238:4312   */\n      swap2\n      pop\n        /* \"#utility.yul\":4342:4370   */\n      0x796f752063616e6e6f7420616464206e65772070726f64756374000000000000\n        /* \"#utility.yul\":4338:4339   */\n      0x00\n        /* \"#utility.yul\":4333:4336   */\n      dup4\n        /* \"#utility.yul\":4329:4340   */\n      add\n        /* \"#utility.yul\":4322:4371   */\n      mstore\n        /* \"#utility.yul\":4397:4399   */\n      0x20\n        /* \"#utility.yul\":4392:4395   */\n      dup3\n        /* \"#utility.yul\":4388:4400   */\n      add\n        /* \"#utility.yul\":4381:4400   */\n      swap1\n      pop\n        /* \"#utility.yul\":4228:4406   */\n      swap2\n      swap1\n      pop\n      jump\t// out\n        /* \"#utility.yul\":4412:4789   */\n    tag_276:\n      0x00\n        /* \"#utility.yul\":4575:4642   */\n      tag_278\n        /* \"#utility.yul\":4639:4641   */\n      0x2d\n        /* \"#utility.yul\":4634:4637   */\n      dup4\n        /* \"#utility.yul\":4575:4642   */\n      tag_270\n      jump\t// in\n    tag_278:\n        /* \"#utility.yul\":4568:4642   */\n      swap2\n      pop\n        /* \"#utility.yul\":4672:4706   */\n      0x796f7520646f6e74206861766520656e6f756768206d6f6e657920746f206275\n        /* \"#utility.yul\":4668:4669   */\n      0x00\n        /* \"#utility.yul\":4663:4666   */\n      dup4\n        /* \"#utility.yul\":4659:4670   */\n      add\n        /* \"#utility.yul\":4652:4707   */\n      mstore\n        /* \"#utility.yul\":4738:4753   */\n      0x79207468652070726f6475637400000000000000000000000000000000000000\n        /* \"#utility.yul\":4733:4735   */\n      0x20\n        /* \"#utility.yul\":4728:4731   */\n      dup4\n        /* \"#utility.yul\":4724:4736   */\n      add\n        /* \"#utility.yul\":4717:4754   */\n      mstore\n        /* \"#utility.yul\":4780:4782   */\n      0x40\n        /* \"#utility.yul\":4775:4778   */\n      dup3\n        /* \"#utility.yul\":4771:4783   */\n      add\n        /* \"#utility.yul\":4764:4783   */\n      swap1\n      pop\n        /* \"#utility.yul\":4558:4789   */\n      swap2\n      swap1\n      pop\n      jump\t// out\n        /* \"#utility.yul\":4795:5160   */\n    tag_279:\n      0x00\n        /* \"#utility.yul\":4958:5025   */\n      tag_281\n        /* \"#utility.yul\":5022:5024   */\n      0x21\n        /* \"#utility.yul\":5017:5020   */\n      dup4\n        /* \"#utility.yul\":4958:5025   */\n      tag_270\n      jump\t// in\n    tag_281:\n        /* \"#utility.yul\":4951:5025   */\n      swap2\n      pop\n        /* \"#utility.yul\":5055:5089   */\n      0x796f7520617265206e6f74206f776e6572206f6620746869732070726f647563\n        /* \"#utility.yul\":5051:5052   */\n      0x00\n        /* \"#utility.yul\":5046:5049   */\n      dup4\n        /* \"#utility.yul\":5042:5053   */\n      add\n        /* \"#utility.yul\":5035:5090   */\n      mstore\n        /* \"#utility.yul\":5121:5124   */\n      0x7400000000000000000000000000000000000000000000000000000000000000\n        /* \"#utility.yul\":5116:5118   */\n      0x20\n        /* \"#utility.yul\":5111:5114   */\n      dup4\n        /* \"#utility.yul\":5107:5119   */\n      add\n        /* \"#utility.yul\":5100:5125   */\n      mstore\n        /* \"#utility.yul\":5151:5153   */\n      0x40\n        /* \"#utility.yul\":5146:5149   */\n      dup3\n        /* \"#utility.yul\":5142:5154   */\n      add\n        /* \"#utility.yul\":5135:5154   */\n      swap1\n      pop\n        /* \"#utility.yul\":4941:5160   */\n      swap2\n      swap1\n      pop\n      jump\t// out\n        /* \"#utility.yul\":5210:6360   */\n    tag_282:\n      0x00\n        /* \"#utility.yul\":5355:5359   */\n      0xa0\n        /* \"#utility.yul\":5350:5353   */\n      dup4\n        /* \"#utility.yul\":5346:5360   */\n      add\n        /* \"#utility.yul\":5450:5454   */\n      0x00\n        /* \"#utility.yul\":5443:5448   */\n      dup4\n        /* \"#utility.yul\":5439:5455   */\n      add\n        /* \"#utility.yul\":5433:5456   */\n      mload\n        /* \"#utility.yul\":5503:5506   */\n      dup5\n        /* \"#utility.yul\":5497:5501   */\n      dup3\n        /* \"#utility.yul\":5493:5507   */\n      sub\n        /* \"#utility.yul\":5486:5490   */\n      0x00\n        /* \"#utility.yul\":5481:5484   */\n      dup7\n        /* \"#utility.yul\":5477:5491   */\n      add\n        /* \"#utility.yul\":5470:5508   */\n      mstore\n        /* \"#utility.yul\":5529:5602   */\n      tag_284\n        /* \"#utility.yul\":5597:5601   */\n      dup3\n        /* \"#utility.yul\":5583:5595   */\n      dup3\n        /* \"#utility.yul\":5529:5602   */\n      tag_256\n      jump\t// in\n    tag_284:\n        /* \"#utility.yul\":5521:5602   */\n      swap2\n      pop\n        /* \"#utility.yul\":5370:5613   */\n      pop\n        /* \"#utility.yul\":5700:5704   */\n      0x20\n        /* \"#utility.yul\":5693:5698   */\n      dup4\n        /* \"#utility.yul\":5689:5705   */\n      add\n        /* \"#utility.yul\":5683:5706   */\n      mload\n        /* \"#utility.yul\":5719:5782   */\n      tag_285\n        /* \"#utility.yul\":5776:5780   */\n      0x20\n        /* \"#utility.yul\":5771:5774   */\n      dup7\n        /* \"#utility.yul\":5767:5781   */\n      add\n        /* \"#utility.yul\":5753:5765   */\n      dup3\n        /* \"#utility.yul\":5719:5782   */\n      tag_286\n      jump\t// in\n    tag_285:\n        /* \"#utility.yul\":5623:5792   */\n      pop\n        /* \"#utility.yul\":5879:5883   */\n      0x40\n        /* \"#utility.yul\":5872:5877   */\n      dup4\n        /* \"#utility.yul\":5868:5884   */\n      add\n        /* \"#utility.yul\":5862:5885   */\n      mload\n        /* \"#utility.yul\":5898:5961   */\n      tag_287\n        /* \"#utility.yul\":5955:5959   */\n      0x40\n        /* \"#utility.yul\":5950:5953   */\n      dup7\n        /* \"#utility.yul\":5946:5960   */\n      add\n        /* \"#utility.yul\":5932:5944   */\n      dup3\n        /* \"#utility.yul\":5898:5961   */\n      tag_235\n      jump\t// in\n    tag_287:\n        /* \"#utility.yul\":5802:5971   */\n      pop\n        /* \"#utility.yul\":6061:6065   */\n      0x60\n        /* \"#utility.yul\":6054:6059   */\n      dup4\n        /* \"#utility.yul\":6050:6066   */\n      add\n        /* \"#utility.yul\":6044:6067   */\n      mload\n        /* \"#utility.yul\":6080:6149   */\n      tag_288\n        /* \"#utility.yul\":6143:6147   */\n      0x60\n        /* \"#utility.yul\":6138:6141   */\n      dup7\n        /* \"#utility.yul\":6134:6148   */\n      add\n        /* \"#utility.yul\":6120:6132   */\n      dup3\n        /* \"#utility.yul\":6080:6149   */\n      tag_242\n      jump\t// in\n    tag_288:\n        /* \"#utility.yul\":5981:6159   */\n      pop\n        /* \"#utility.yul\":6241:6245   */\n      0x80\n        /* \"#utility.yul\":6234:6239   */\n      dup4\n        /* \"#utility.yul\":6230:6246   */\n      add\n        /* \"#utility.yul\":6224:6247   */\n      mload\n        /* \"#utility.yul\":6260:6323   */\n      tag_289\n        /* \"#utility.yul\":6317:6321   */\n      0x80\n        /* \"#utility.yul\":6312:6315   */\n      dup7\n        /* \"#utility.yul\":6308:6322   */\n      add\n        /* \"#utility.yul\":6294:6306   */\n      dup3\n        /* \"#utility.yul\":6260:6323   */\n      tag_286\n      jump\t// in\n    tag_289:\n        /* \"#utility.yul\":6169:6333   */\n      pop\n        /* \"#utility.yul\":6350:6354   */\n      dup1\n        /* \"#utility.yul\":6343:6354   */\n      swap2\n      pop\n        /* \"#utility.yul\":5324:6360   */\n      pop\n      swap3\n      swap2\n      pop\n      pop\n      jump\t// out\n        /* \"#utility.yul\":6438:7599   */\n    tag_290:\n      0x00\n        /* \"#utility.yul\":6599:6603   */\n      0xa0\n        /* \"#utility.yul\":6594:6597   */\n      dup4\n        /* \"#utility.yul\":6590:6604   */\n      add\n        /* \"#utility.yul\":6690:6694   */\n      0x00\n        /* \"#utility.yul\":6683:6688   */\n      dup4\n        /* \"#utility.yul\":6679:6695   */\n      add\n        /* \"#utility.yul\":6673:6696   */\n      mload\n        /* \"#utility.yul\":6743:6746   */\n      dup5\n        /* \"#utility.yul\":6737:6741   */\n      dup3\n        /* \"#utility.yul\":6733:6747   */\n      sub\n        /* \"#utility.yul\":6726:6730   */\n      0x00\n        /* \"#utility.yul\":6721:6724   */\n      dup7\n        /* \"#utility.yul\":6717:6731   */\n      add\n        /* \"#utility.yul\":6710:6748   */\n      mstore\n        /* \"#utility.yul\":6769:6842   */\n      tag_292\n        /* \"#utility.yul\":6837:6841   */\n      dup3\n        /* \"#utility.yul\":6823:6835   */\n      dup3\n        /* \"#utility.yul\":6769:6842   */\n      tag_256\n      jump\t// in\n    tag_292:\n        /* \"#utility.yul\":6761:6842   */\n      swap2\n      pop\n        /* \"#utility.yul\":6614:6853   */\n      pop\n        /* \"#utility.yul\":6937:6941   */\n      0x20\n        /* \"#utility.yul\":6930:6935   */\n      dup4\n        /* \"#utility.yul\":6926:6942   */\n      add\n        /* \"#utility.yul\":6920:6943   */\n      mload\n        /* \"#utility.yul\":6956:7019   */\n      tag_293\n        /* \"#utility.yul\":7013:7017   */\n      0x20\n        /* \"#utility.yul\":7008:7011   */\n      dup7\n        /* \"#utility.yul\":7004:7018   */\n      add\n        /* \"#utility.yul\":6990:7002   */\n      dup3\n        /* \"#utility.yul\":6956:7019   */\n      tag_286\n      jump\t// in\n    tag_293:\n        /* \"#utility.yul\":6863:7029   */\n      pop\n        /* \"#utility.yul\":7112:7116   */\n      0x40\n        /* \"#utility.yul\":7105:7110   */\n      dup4\n        /* \"#utility.yul\":7101:7117   */\n      add\n        /* \"#utility.yul\":7095:7118   */\n      mload\n        /* \"#utility.yul\":7131:7205   */\n      tag_294\n        /* \"#utility.yul\":7199:7203   */\n      0x40\n        /* \"#utility.yul\":7194:7197   */\n      dup7\n        /* \"#utility.yul\":7190:7204   */\n      add\n        /* \"#utility.yul\":7176:7188   */\n      dup3\n        /* \"#utility.yul\":7131:7205   */\n      tag_249\n      jump\t// in\n    tag_294:\n        /* \"#utility.yul\":7039:7215   */\n      pop\n        /* \"#utility.yul\":7305:7309   */\n      0x60\n        /* \"#utility.yul\":7298:7303   */\n      dup4\n        /* \"#utility.yul\":7294:7310   */\n      add\n        /* \"#utility.yul\":7288:7311   */\n      mload\n        /* \"#utility.yul\":7324:7387   */\n      tag_295\n        /* \"#utility.yul\":7381:7385   */\n      0x60\n        /* \"#utility.yul\":7376:7379   */\n      dup7\n        /* \"#utility.yul\":7372:7386   */\n      add\n        /* \"#utility.yul\":7358:7370   */\n      dup3\n        /* \"#utility.yul\":7324:7387   */\n      tag_235\n      jump\t// in\n    tag_295:\n        /* \"#utility.yul\":7225:7397   */\n      pop\n        /* \"#utility.yul\":7480:7484   */\n      0x80\n        /* \"#utility.yul\":7473:7478   */\n      dup4\n        /* \"#utility.yul\":7469:7485   */\n      add\n        /* \"#utility.yul\":7463:7486   */\n      mload\n        /* \"#utility.yul\":7499:7562   */\n      tag_296\n        /* \"#utility.yul\":7556:7560   */\n      0x80\n        /* \"#utility.yul\":7551:7554   */\n      dup7\n        /* \"#utility.yul\":7547:7561   */\n      add\n        /* \"#utility.yul\":7533:7545   */\n      dup3\n        /* \"#utility.yul\":7499:7562   */\n      tag_286\n      jump\t// in\n    tag_296:\n        /* \"#utility.yul\":7407:7572   */\n      pop\n        /* \"#utility.yul\":7589:7593   */\n      dup1\n        /* \"#utility.yul\":7582:7593   */\n      swap2\n      pop\n        /* \"#utility.yul\":6568:7599   */\n      pop\n      swap3\n      swap2\n      pop\n      pop\n      jump\t// out\n        /* \"#utility.yul\":7605:7713   */\n    tag_286:\n        /* \"#utility.yul\":7682:7706   */\n      tag_298\n        /* \"#utility.yul\":7700:7705   */\n      dup2\n        /* \"#utility.yul\":7682:7706   */\n      tag_299\n      jump\t// in\n    tag_298:\n        /* \"#utility.yul\":7677:7680   */\n      dup3\n        /* \"#utility.yul\":7670:7707   */\n      mstore\n        /* \"#utility.yul\":7660:7713   */\n      pop\n      pop\n      jump\t// out\n        /* \"#utility.yul\":7719:7837   */\n    tag_300:\n        /* \"#utility.yul\":7806:7830   */\n      tag_302\n        /* \"#utility.yul\":7824:7829   */\n      dup2\n        /* \"#utility.yul\":7806:7830   */\n      tag_299\n      jump\t// in\n    tag_302:\n        /* \"#utility.yul\":7801:7804   */\n      dup3\n        /* \"#utility.yul\":7794:7831   */\n      mstore\n        /* \"#utility.yul\":7784:7837   */\n      pop\n      pop\n      jump\t// out\n        /* \"#utility.yul\":7843:8065   */\n    tag_60:\n      0x00\n        /* \"#utility.yul\":7974:7976   */\n      0x20\n        /* \"#utility.yul\":7963:7972   */\n      dup3\n        /* \"#utility.yul\":7959:7977   */\n      add\n        /* \"#utility.yul\":7951:7977   */\n      swap1\n      pop\n        /* \"#utility.yul\":7987:8058   */\n      tag_304\n        /* \"#utility.yul\":8055:8056   */\n      0x00\n        /* \"#utility.yul\":8044:8053   */\n      dup4\n        /* \"#utility.yul\":8040:8057   */\n      add\n        /* \"#utility.yul\":8031:8037   */\n      dup5\n        /* \"#utility.yul\":7987:8058   */\n      tag_239\n      jump\t// in\n    tag_304:\n        /* \"#utility.yul\":7941:8065   */\n      swap3\n      swap2\n      pop\n      pop\n      jump\t// out\n        /* \"#utility.yul\":8071:8305   */\n    tag_68:\n      0x00\n        /* \"#utility.yul\":8208:8210   */\n      0x20\n        /* \"#utility.yul\":8197:8206   */\n      dup3\n        /* \"#utility.yul\":8193:8211   */\n      add\n        /* \"#utility.yul\":8185:8211   */\n      swap1\n      pop\n        /* \"#utility.yul\":8221:8298   */\n      tag_306\n        /* \"#utility.yul\":8295:8296   */\n      0x00\n        /* \"#utility.yul\":8284:8293   */\n      dup4\n        /* \"#utility.yul\":8280:8297   */\n      add\n        /* \"#utility.yul\":8271:8277   */\n      dup5\n        /* \"#utility.yul\":8221:8298   */\n      tag_246\n      jump\t// in\n    tag_306:\n        /* \"#utility.yul\":8175:8305   */\n      swap3\n      swap2\n      pop\n      pop\n      jump\t// out\n        /* \"#utility.yul\":8311:9078   */\n    tag_27:\n      0x00\n        /* \"#utility.yul\":8580:8583   */\n      0xa0\n        /* \"#utility.yul\":8569:8578   */\n      dup3\n        /* \"#utility.yul\":8565:8584   */\n      add\n        /* \"#utility.yul\":8557:8584   */\n      swap1\n      pop\n        /* \"#utility.yul\":8630:8639   */\n      dup2\n        /* \"#utility.yul\":8624:8628   */\n      dup2\n        /* \"#utility.yul\":8620:8640   */\n      sub\n        /* \"#utility.yul\":8616:8617   */\n      0x00\n        /* \"#utility.yul\":8605:8614   */\n      dup4\n        /* \"#utility.yul\":8601:8618   */\n      add\n        /* \"#utility.yul\":8594:8641   */\n      mstore\n        /* \"#utility.yul\":8658:8736   */\n      tag_308\n        /* \"#utility.yul\":8731:8735   */\n      dup2\n        /* \"#utility.yul\":8722:8728   */\n      dup9\n        /* \"#utility.yul\":8658:8736   */\n      tag_266\n      jump\t// in\n    tag_308:\n        /* \"#utility.yul\":8650:8736   */\n      swap1\n      pop\n        /* \"#utility.yul\":8746:8818   */\n      tag_309\n        /* \"#utility.yul\":8814:8816   */\n      0x20\n        /* \"#utility.yul\":8803:8812   */\n      dup4\n        /* \"#utility.yul\":8799:8817   */\n      add\n        /* \"#utility.yul\":8790:8796   */\n      dup8\n        /* \"#utility.yul\":8746:8818   */\n      tag_300\n      jump\t// in\n    tag_309:\n        /* \"#utility.yul\":8828:8900   */\n      tag_310\n        /* \"#utility.yul\":8896:8898   */\n      0x40\n        /* \"#utility.yul\":8885:8894   */\n      dup4\n        /* \"#utility.yul\":8881:8899   */\n      add\n        /* \"#utility.yul\":8872:8878   */\n      dup7\n        /* \"#utility.yul\":8828:8900   */\n      tag_239\n      jump\t// in\n    tag_310:\n        /* \"#utility.yul\":8910:8988   */\n      tag_311\n        /* \"#utility.yul\":8984:8986   */\n      0x60\n        /* \"#utility.yul\":8973:8982   */\n      dup4\n        /* \"#utility.yul\":8969:8987   */\n      add\n        /* \"#utility.yul\":8960:8966   */\n      dup6\n        /* \"#utility.yul\":8910:8988   */\n      tag_246\n      jump\t// in\n    tag_311:\n        /* \"#utility.yul\":8998:9071   */\n      tag_312\n        /* \"#utility.yul\":9066:9069   */\n      0x80\n        /* \"#utility.yul\":9055:9064   */\n      dup4\n        /* \"#utility.yul\":9051:9070   */\n      add\n        /* \"#utility.yul\":9042:9048   */\n      dup5\n        /* \"#utility.yul\":8998:9071   */\n      tag_300\n      jump\t// in\n    tag_312:\n        /* \"#utility.yul\":8547:9078   */\n      swap7\n      swap6\n      pop\n      pop\n      pop\n      pop\n      pop\n      pop\n      jump\t// out\n        /* \"#utility.yul\":9084:9861   */\n    tag_38:\n      0x00\n        /* \"#utility.yul\":9358:9361   */\n      0xa0\n        /* \"#utility.yul\":9347:9356   */\n      dup3\n        /* \"#utility.yul\":9343:9362   */\n      add\n        /* \"#utility.yul\":9335:9362   */\n      swap1\n      pop\n        /* \"#utility.yul\":9408:9417   */\n      dup2\n        /* \"#utility.yul\":9402:9406   */\n      dup2\n        /* \"#utility.yul\":9398:9418   */\n      sub\n        /* \"#utility.yul\":9394:9395   */\n      0x00\n        /* \"#utility.yul\":9383:9392   */\n      dup4\n        /* \"#utility.yul\":9379:9396   */\n      add\n        /* \"#utility.yul\":9372:9419   */\n      mstore\n        /* \"#utility.yul\":9436:9514   */\n      tag_314\n        /* \"#utility.yul\":9509:9513   */\n      dup2\n        /* \"#utility.yul\":9500:9506   */\n      dup9\n        /* \"#utility.yul\":9436:9514   */\n      tag_266\n      jump\t// in\n    tag_314:\n        /* \"#utility.yul\":9428:9514   */\n      swap1\n      pop\n        /* \"#utility.yul\":9524:9596   */\n      tag_315\n        /* \"#utility.yul\":9592:9594   */\n      0x20\n        /* \"#utility.yul\":9581:9590   */\n      dup4\n        /* \"#utility.yul\":9577:9595   */\n      add\n        /* \"#utility.yul\":9568:9574   */\n      dup8\n        /* \"#utility.yul\":9524:9596   */\n      tag_300\n      jump\t// in\n    tag_315:\n        /* \"#utility.yul\":9606:9689   */\n      tag_316\n        /* \"#utility.yul\":9685:9687   */\n      0x40\n        /* \"#utility.yul\":9674:9683   */\n      dup4\n        /* \"#utility.yul\":9670:9688   */\n      add\n        /* \"#utility.yul\":9661:9667   */\n      dup7\n        /* \"#utility.yul\":9606:9689   */\n      tag_253\n      jump\t// in\n    tag_316:\n        /* \"#utility.yul\":9699:9771   */\n      tag_317\n        /* \"#utility.yul\":9767:9769   */\n      0x60\n        /* \"#utility.yul\":9756:9765   */\n      dup4\n        /* \"#utility.yul\":9752:9770   */\n      add\n        /* \"#utility.yul\":9743:9749   */\n      dup6\n        /* \"#utility.yul\":9699:9771   */\n      tag_239\n      jump\t// in\n    tag_317:\n        /* \"#utility.yul\":9781:9854   */\n      tag_318\n        /* \"#utility.yul\":9849:9852   */\n      0x80\n        /* \"#utility.yul\":9838:9847   */\n      dup4\n        /* \"#utility.yul\":9834:9853   */\n      add\n        /* \"#utility.yul\":9825:9831   */\n      dup5\n        /* \"#utility.yul\":9781:9854   */\n      tag_300\n      jump\t// in\n    tag_318:\n        /* \"#utility.yul\":9325:9861   */\n      swap7\n      swap6\n      pop\n      pop\n      pop\n      pop\n      pop\n      pop\n      jump\t// out\n        /* \"#utility.yul\":9867:10286   */\n    tag_157:\n      0x00\n        /* \"#utility.yul\":10071:10073   */\n      0x20\n        /* \"#utility.yul\":10060:10069   */\n      dup3\n        /* \"#utility.yul\":10056:10074   */\n      add\n        /* \"#utility.yul\":10048:10074   */\n      swap1\n      pop\n        /* \"#utility.yul\":10120:10129   */\n      dup2\n        /* \"#utility.yul\":10114:10118   */\n      dup2\n        /* \"#utility.yul\":10110:10130   */\n      sub\n        /* \"#utility.yul\":10106:10107   */\n      0x00\n        /* \"#utility.yul\":10095:10104   */\n      dup4\n        /* \"#utility.yul\":10091:10108   */\n      add\n        /* \"#utility.yul\":10084:10131   */\n      mstore\n        /* \"#utility.yul\":10148:10279   */\n      tag_320\n        /* \"#utility.yul\":10274:10278   */\n      dup2\n        /* \"#utility.yul\":10148:10279   */\n      tag_273\n      jump\t// in\n    tag_320:\n        /* \"#utility.yul\":10140:10279   */\n      swap1\n      pop\n        /* \"#utility.yul\":10038:10286   */\n      swap2\n      swap1\n      pop\n      jump\t// out\n        /* \"#utility.yul\":10292:10711   */\n    tag_93:\n      0x00\n        /* \"#utility.yul\":10496:10498   */\n      0x20\n        /* \"#utility.yul\":10485:10494   */\n      dup3\n        /* \"#utility.yul\":10481:10499   */\n      add\n        /* \"#utility.yul\":10473:10499   */\n      swap1\n      pop\n        /* \"#utility.yul\":10545:10554   */\n      dup2\n        /* \"#utility.yul\":10539:10543   */\n      dup2\n        /* \"#utility.yul\":10535:10555   */\n      sub\n        /* \"#utility.yul\":10531:10532   */\n      0x00\n        /* \"#utility.yul\":10520:10529   */\n      dup4\n        /* \"#utility.yul\":10516:10533   */\n      add\n        /* \"#utility.yul\":10509:10556   */\n      mstore\n        /* \"#utility.yul\":10573:10704   */\n      tag_322\n        /* \"#utility.yul\":10699:10703   */\n      dup2\n        /* \"#utility.yul\":10573:10704   */\n      tag_276\n      jump\t// in\n    tag_322:\n        /* \"#utility.yul\":10565:10704   */\n      swap1\n      pop\n        /* \"#utility.yul\":10463:10711   */\n      swap2\n      swap1\n      pop\n      jump\t// out\n        /* \"#utility.yul\":10717:11136   */\n    tag_139:\n      0x00\n        /* \"#utility.yul\":10921:10923   */\n      0x20\n        /* \"#utility.yul\":10910:10919   */\n      dup3\n        /* \"#utility.yul\":10906:10924   */\n      add\n        /* \"#utility.yul\":10898:10924   */\n      swap1\n      pop\n        /* \"#utility.yul\":10970:10979   */\n      dup2\n        /* \"#utility.yul\":10964:10968   */\n      dup2\n        /* \"#utility.yul\":10960:10980   */\n      sub\n        /* \"#utility.yul\":10956:10957   */\n      0x00\n        /* \"#utility.yul\":10945:10954   */\n      dup4\n        /* \"#utility.yul\":10941:10958   */\n      add\n        /* \"#utility.yul\":10934:10981   */\n      mstore\n        /* \"#utility.yul\":10998:11129   */\n      tag_324\n        /* \"#utility.yul\":11124:11128   */\n      dup2\n        /* \"#utility.yul\":10998:11129   */\n      tag_279\n      jump\t// in\n    tag_324:\n        /* \"#utility.yul\":10990:11129   */\n      swap1\n      pop\n        /* \"#utility.yul\":10888:11136   */\n      swap2\n      swap1\n      pop\n      jump\t// out\n        /* \"#utility.yul\":11142:11495   */\n    tag_43:\n      0x00\n        /* \"#utility.yul\":11313:11315   */\n      0x20\n        /* \"#utility.yul\":11302:11311   */\n      dup3\n        /* \"#utility.yul\":11298:11316   */\n      add\n        /* \"#utility.yul\":11290:11316   */\n      swap1\n      pop\n        /* \"#utility.yul\":11362:11371   */\n      dup2\n        /* \"#utility.yul\":11356:11360   */\n      dup2\n        /* \"#utility.yul\":11352:11372   */\n      sub\n        /* \"#utility.yul\":11348:11349   */\n      0x00\n        /* \"#utility.yul\":11337:11346   */\n      dup4\n        /* \"#utility.yul\":11333:11350   */\n      add\n        /* \"#utility.yul\":11326:11373   */\n      mstore\n        /* \"#utility.yul\":11390:11488   */\n      tag_326\n        /* \"#utility.yul\":11483:11487   */\n      dup2\n        /* \"#utility.yul\":11474:11480   */\n      dup5\n        /* \"#utility.yul\":11390:11488   */\n      tag_282\n      jump\t// in\n    tag_326:\n        /* \"#utility.yul\":11382:11488   */\n      swap1\n      pop\n        /* \"#utility.yul\":11280:11495   */\n      swap3\n      swap2\n      pop\n      pop\n      jump\t// out\n        /* \"#utility.yul\":11501:11886   */\n    tag_52:\n      0x00\n        /* \"#utility.yul\":11688:11690   */\n      0x20\n        /* \"#utility.yul\":11677:11686   */\n      dup3\n        /* \"#utility.yul\":11673:11691   */\n      add\n        /* \"#utility.yul\":11665:11691   */\n      swap1\n      pop\n        /* \"#utility.yul\":11737:11746   */\n      dup2\n        /* \"#utility.yul\":11731:11735   */\n      dup2\n        /* \"#utility.yul\":11727:11747   */\n      sub\n        /* \"#utility.yul\":11723:11724   */\n      0x00\n        /* \"#utility.yul\":11712:11721   */\n      dup4\n        /* \"#utility.yul\":11708:11725   */\n      add\n        /* \"#utility.yul\":11701:11748   */\n      mstore\n        /* \"#utility.yul\":11765:11879   */\n      tag_328\n        /* \"#utility.yul\":11874:11878   */\n      dup2\n        /* \"#utility.yul\":11865:11871   */\n      dup5\n        /* \"#utility.yul\":11765:11879   */\n      tag_290\n      jump\t// in\n    tag_328:\n        /* \"#utility.yul\":11757:11879   */\n      swap1\n      pop\n        /* \"#utility.yul\":11655:11886   */\n      swap3\n      swap2\n      pop\n      pop\n      jump\t// out\n        /* \"#utility.yul\":11892:12114   */\n    tag_182:\n      0x00\n        /* \"#utility.yul\":12023:12025   */\n      0x20\n        /* \"#utility.yul\":12012:12021   */\n      dup3\n        /* \"#utility.yul\":12008:12026   */\n      add\n        /* \"#utility.yul\":12000:12026   */\n      swap1\n      pop\n        /* \"#utility.yul\":12036:12107   */\n      tag_330\n        /* \"#utility.yul\":12104:12105   */\n      0x00\n        /* \"#utility.yul\":12093:12102   */\n      dup4\n        /* \"#utility.yul\":12089:12106   */\n      add\n        /* \"#utility.yul\":12080:12086   */\n      dup5\n        /* \"#utility.yul\":12036:12107   */\n      tag_300\n      jump\t// in\n    tag_330:\n        /* \"#utility.yul\":11990:12114   */\n      swap3\n      swap2\n      pop\n      pop\n      jump\t// out\n        /* \"#utility.yul\":12120:12452   */\n    tag_110:\n      0x00\n        /* \"#utility.yul\":12279:12281   */\n      0x40\n        /* \"#utility.yul\":12268:12277   */\n      dup3\n        /* \"#utility.yul\":12264:12282   */\n      add\n        /* \"#utility.yul\":12256:12282   */\n      swap1\n      pop\n        /* \"#utility.yul\":12292:12363   */\n      tag_332\n        /* \"#utility.yul\":12360:12361   */\n      0x00\n        /* \"#utility.yul\":12349:12358   */\n      dup4\n        /* \"#utility.yul\":12345:12362   */\n      add\n        /* \"#utility.yul\":12336:12342   */\n      dup6\n        /* \"#utility.yul\":12292:12363   */\n      tag_300\n      jump\t// in\n    tag_332:\n        /* \"#utility.yul\":12373:12445   */\n      tag_333\n        /* \"#utility.yul\":12441:12443   */\n      0x20\n        /* \"#utility.yul\":12430:12439   */\n      dup4\n        /* \"#utility.yul\":12426:12444   */\n      add\n        /* \"#utility.yul\":12417:12423   */\n      dup5\n        /* \"#utility.yul\":12373:12445   */\n      tag_239\n      jump\t// in\n    tag_333:\n        /* \"#utility.yul\":12246:12452   */\n      swap4\n      swap3\n      pop\n      pop\n      pop\n      jump\t// out\n        /* \"#utility.yul\":12458:12741   */\n    tag_203:\n      0x00\n        /* \"#utility.yul\":12524:12526   */\n      0x40\n        /* \"#utility.yul\":12518:12527   */\n      mload\n        /* \"#utility.yul\":12508:12527   */\n      swap1\n      pop\n        /* \"#utility.yul\":12566:12570   */\n      dup2\n        /* \"#utility.yul\":12558:12564   */\n      dup2\n        /* \"#utility.yul\":12554:12571   */\n      add\n        /* \"#utility.yul\":12673:12679   */\n      dup2\n        /* \"#utility.yul\":12661:12671   */\n      dup2\n        /* \"#utility.yul\":12658:12680   */\n      lt\n        /* \"#utility.yul\":12637:12655   */\n      0xffffffffffffffff\n        /* \"#utility.yul\":12625:12635   */\n      dup3\n        /* \"#utility.yul\":12622:12656   */\n      gt\n        /* \"#utility.yul\":12619:12681   */\n      or\n        /* \"#utility.yul\":12616:12618   */\n      iszero\n      tag_335\n      jumpi\n        /* \"#utility.yul\":12684:12702   */\n      tag_336\n      tag_337\n      jump\t// in\n    tag_336:\n        /* \"#utility.yul\":12616:12618   */\n    tag_335:\n        /* \"#utility.yul\":12724:12734   */\n      dup1\n        /* \"#utility.yul\":12720:12722   */\n      0x40\n        /* \"#utility.yul\":12713:12735   */\n      mstore\n        /* \"#utility.yul\":12498:12741   */\n      pop\n      swap2\n      swap1\n      pop\n      jump\t// out\n        /* \"#utility.yul\":12747:13079   */\n    tag_202:\n      0x00\n        /* \"#utility.yul\":12899:12917   */\n      0xffffffffffffffff\n        /* \"#utility.yul\":12891:12897   */\n      dup3\n        /* \"#utility.yul\":12888:12918   */\n      gt\n        /* \"#utility.yul\":12885:12887   */\n      iszero\n      tag_339\n      jumpi\n        /* \"#utility.yul\":12921:12939   */\n      tag_340\n      tag_337\n      jump\t// in\n    tag_340:\n        /* \"#utility.yul\":12885:12887   */\n    tag_339:\n        /* \"#utility.yul\":13006:13010   */\n      0x1f\n        /* \"#utility.yul\":13002:13011   */\n      not\n        /* \"#utility.yul\":12995:12999   */\n      0x1f\n        /* \"#utility.yul\":12987:12993   */\n      dup4\n        /* \"#utility.yul\":12983:13000   */\n      add\n        /* \"#utility.yul\":12979:13012   */\n      and\n        /* \"#utility.yul\":12971:13012   */\n      swap1\n      pop\n        /* \"#utility.yul\":13067:13071   */\n      0x20\n        /* \"#utility.yul\":13061:13065   */\n      dup2\n        /* \"#utility.yul\":13057:13072   */\n      add\n        /* \"#utility.yul\":13049:13072   */\n      swap1\n      pop\n        /* \"#utility.yul\":12814:13079   */\n      swap2\n      swap1\n      pop\n      jump\t// out\n        /* \"#utility.yul\":13085:13184   */\n    tag_259:\n      0x00\n        /* \"#utility.yul\":13171:13176   */\n      dup2\n        /* \"#utility.yul\":13165:13177   */\n      mload\n        /* \"#utility.yul\":13155:13177   */\n      swap1\n      pop\n        /* \"#utility.yul\":13144:13184   */\n      swap2\n      swap1\n      pop\n      jump\t// out\n        /* \"#utility.yul\":13190:13349   */\n    tag_261:\n      0x00\n        /* \"#utility.yul\":13298:13304   */\n      dup3\n        /* \"#utility.yul\":13293:13296   */\n      dup3\n        /* \"#utility.yul\":13286:13305   */\n      mstore\n        /* \"#utility.yul\":13338:13342   */\n      0x20\n        /* \"#utility.yul\":13333:13336   */\n      dup3\n        /* \"#utility.yul\":13329:13343   */\n      add\n        /* \"#utility.yul\":13314:13343   */\n      swap1\n      pop\n        /* \"#utility.yul\":13276:13349   */\n      swap3\n      swap2\n      pop\n      pop\n      jump\t// out\n        /* \"#utility.yul\":13355:13524   */\n    tag_270:\n      0x00\n        /* \"#utility.yul\":13473:13479   */\n      dup3\n        /* \"#utility.yul\":13468:13471   */\n      dup3\n        /* \"#utility.yul\":13461:13480   */\n      mstore\n        /* \"#utility.yul\":13513:13517   */\n      0x20\n        /* \"#utility.yul\":13508:13511   */\n      dup3\n        /* \"#utility.yul\":13504:13518   */\n      add\n        /* \"#utility.yul\":13489:13518   */\n      swap1\n      pop\n        /* \"#utility.yul\":13451:13524   */\n      swap3\n      swap2\n      pop\n      pop\n      jump\t// out\n        /* \"#utility.yul\":13530:13835   */\n    tag_83:\n      0x00\n        /* \"#utility.yul\":13589:13609   */\n      tag_345\n        /* \"#utility.yul\":13607:13608   */\n      dup3\n        /* \"#utility.yul\":13589:13609   */\n      tag_299\n      jump\t// in\n    tag_345:\n        /* \"#utility.yul\":13584:13609   */\n      swap2\n      pop\n        /* \"#utility.yul\":13623:13643   */\n      tag_346\n        /* \"#utility.yul\":13641:13642   */\n      dup4\n        /* \"#utility.yul\":13623:13643   */\n      tag_299\n      jump\t// in\n    tag_346:\n        /* \"#utility.yul\":13618:13643   */\n      swap3\n      pop\n        /* \"#utility.yul\":13777:13778   */\n      dup3\n        /* \"#utility.yul\":13709:13775   */\n      0xffffffffffffffffffffffffffffffffffffffffffffffffffffffffffffffff\n        /* \"#utility.yul\":13705:13779   */\n      sub\n        /* \"#utility.yul\":13702:13703   */\n      dup3\n        /* \"#utility.yul\":13699:13780   */\n      gt\n        /* \"#utility.yul\":13696:13698   */\n      iszero\n      tag_347\n      jumpi\n        /* \"#utility.yul\":13783:13801   */\n      tag_348\n      tag_349\n      jump\t// in\n    tag_348:\n        /* \"#utility.yul\":13696:13698   */\n    tag_347:\n        /* \"#utility.yul\":13827:13828   */\n      dup3\n        /* \"#utility.yul\":13824:13825   */\n      dup3\n        /* \"#utility.yul\":13820:13829   */\n      add\n        /* \"#utility.yul\":13813:13829   */\n      swap1\n      pop\n        /* \"#utility.yul\":13574:13835   */\n      swap3\n      swap2\n      pop\n      pop\n      jump\t// out\n        /* \"#utility.yul\":13841:13937   */\n    tag_238:\n      0x00\n        /* \"#utility.yul\":13907:13931   */\n      tag_351\n        /* \"#utility.yul\":13925:13930   */\n      dup3\n        /* \"#utility.yul\":13907:13931   */\n      tag_352\n      jump\t// in\n    tag_351:\n        /* \"#utility.yul\":13896:13931   */\n      swap1\n      pop\n        /* \"#utility.yul\":13886:13937   */\n      swap2\n      swap1\n      pop\n      jump\t// out\n        /* \"#utility.yul\":13943:14070   */\n    tag_353:\n      0x00\n        /* \"#utility.yul\":14017:14022   */\n      dup2\n        /* \"#utility.yul\":14006:14022   */\n      swap1\n      pop\n        /* \"#utility.yul\":14023:14064   */\n      tag_355\n        /* \"#utility.yul\":14058:14063   */\n      dup3\n        /* \"#utility.yul\":14023:14064   */\n      tag_356\n      jump\t// in\n    tag_355:\n        /* \"#utility.yul\":13996:14070   */\n      swap2\n      swap1\n      pop\n      jump\t// out\n        /* \"#utility.yul\":14076:14213   */\n    tag_357:\n      0x00\n        /* \"#utility.yul\":14155:14160   */\n      dup2\n        /* \"#utility.yul\":14144:14160   */\n      swap1\n      pop\n        /* \"#utility.yul\":14161:14207   */\n      tag_359\n        /* \"#utility.yul\":14201:14206   */\n      dup3\n        /* \"#utility.yul\":14161:14207   */\n      tag_360\n      jump\t// in\n    tag_359:\n        /* \"#utility.yul\":14134:14213   */\n      swap2\n      swap1\n      pop\n      jump\t// out\n        /* \"#utility.yul\":14219:14345   */\n    tag_352:\n      0x00\n        /* \"#utility.yul\":14296:14338   */\n      0xffffffffffffffffffffffffffffffffffffffff\n        /* \"#utility.yul\":14289:14294   */\n      dup3\n        /* \"#utility.yul\":14285:14339   */\n      and\n        /* \"#utility.yul\":14274:14339   */\n      swap1\n      pop\n        /* \"#utility.yul\":14264:14345   */\n      swap2\n      swap1\n      pop\n      jump\t// out\n        /* \"#utility.yul\":14351:14428   */\n    tag_299:\n      0x00\n        /* \"#utility.yul\":14417:14422   */\n      dup2\n        /* \"#utility.yul\":14406:14422   */\n      swap1\n      pop\n        /* \"#utility.yul\":14396:14428   */\n      swap2\n      swap1\n      pop\n      jump\t// out\n        /* \"#utility.yul\":14434:14561   */\n    tag_245:\n      0x00\n        /* \"#utility.yul\":14523:14555   */\n      tag_364\n        /* \"#utility.yul\":14549:14554   */\n      dup3\n        /* \"#utility.yul\":14523:14555   */\n      tag_353\n      jump\t// in\n    tag_364:\n        /* \"#utility.yul\":14510:14555   */\n      swap1\n      pop\n        /* \"#utility.yul\":14500:14561   */\n      swap2\n      swap1\n      pop\n      jump\t// out\n        /* \"#utility.yul\":14567:14704   */\n    tag_252:\n      0x00\n        /* \"#utility.yul\":14661:14698   */\n      tag_366\n        /* \"#utility.yul\":14692:14697   */\n      dup3\n        /* \"#utility.yul\":14661:14698   */\n      tag_357\n      jump\t// in\n    tag_366:\n        /* \"#utility.yul\":14648:14698   */\n      swap1\n      pop\n        /* \"#utility.yul\":14638:14704   */\n      swap2\n      swap1\n      pop\n      jump\t// out\n        /* \"#utility.yul\":14710:14864   */\n    tag_206:\n        /* \"#utility.yul\":14794:14800   */\n      dup3\n        /* \"#utility.yul\":14789:14792   */\n      dup2\n        /* \"#utility.yul\":14784:14787   */\n      dup4\n        /* \"#utility.yul\":14771:14801   */\n      calldatacopy\n        /* \"#utility.yul\":14856:14857   */\n      0x00\n        /* \"#utility.yul\":14847:14853   */\n      dup4\n        /* \"#utility.yul\":14842:14845   */\n      dup4\n        /* \"#utility.yul\":14838:14854   */\n      add\n        /* \"#utility.yul\":14831:14858   */\n      mstore\n        /* \"#utility.yul\":14761:14864   */\n      pop\n      pop\n      pop\n      jump\t// out\n        /* \"#utility.yul\":14870:15177   */\n    tag_263:\n        /* \"#utility.yul\":14938:14939   */\n      0x00\n        /* \"#utility.yul\":14948:15061   */\n    tag_369:\n        /* \"#utility.yul\":14962:14968   */\n      dup4\n        /* \"#utility.yul\":14959:14960   */\n      dup2\n        /* \"#utility.yul\":14956:14969   */\n      lt\n        /* \"#utility.yul\":14948:15061   */\n      iszero\n      tag_371\n      jumpi\n        /* \"#utility.yul\":15047:15048   */\n      dup1\n        /* \"#utility.yul\":15042:15045   */\n      dup3\n        /* \"#utility.yul\":15038:15049   */\n      add\n        /* \"#utility.yul\":15032:15050   */\n      mload\n        /* \"#utility.yul\":15028:15029   */\n      dup2\n        /* \"#utility.yul\":15023:15026   */\n      dup5\n        /* \"#utility.yul\":15019:15030   */\n      add\n        /* \"#utility.yul\":15012:15051   */\n      mstore\n        /* \"#utility.yul\":14984:14986   */\n      0x20\n        /* \"#utility.yul\":14981:14982   */\n      dup2\n        /* \"#utility.yul\":14977:14987   */\n      add\n        /* \"#utility.yul\":14972:14987   */\n      swap1\n      pop\n        /* \"#utility.yul\":14948:15061   */\n      jump(tag_369)\n    tag_371:\n        /* \"#utility.yul\":15079:15085   */\n      dup4\n        /* \"#utility.yul\":15076:15077   */\n      dup2\n        /* \"#utility.yul\":15073:15086   */\n      gt\n        /* \"#utility.yul\":15070:15072   */\n      iszero\n      tag_372\n      jumpi\n        /* \"#utility.yul\":15159:15160   */\n      0x00\n        /* \"#utility.yul\":15150:15156   */\n      dup5\n        /* \"#utility.yul\":15145:15148   */\n      dup5\n        /* \"#utility.yul\":15141:15157   */\n      add\n        /* \"#utility.yul\":15134:15161   */\n      mstore\n        /* \"#utility.yul\":15070:15072   */\n    tag_372:\n        /* \"#utility.yul\":14919:15177   */\n      pop\n      pop\n      pop\n      pop\n      jump\t// out\n        /* \"#utility.yul\":15183:15503   */\n    tag_85:\n      0x00\n        /* \"#utility.yul\":15264:15265   */\n      0x02\n        /* \"#utility.yul\":15258:15262   */\n      dup3\n        /* \"#utility.yul\":15254:15266   */\n      div\n        /* \"#utility.yul\":15244:15266   */\n      swap1\n      pop\n        /* \"#utility.yul\":15311:15312   */\n      0x01\n        /* \"#utility.yul\":15305:15309   */\n      dup3\n        /* \"#utility.yul\":15301:15313   */\n      and\n        /* \"#utility.yul\":15332:15350   */\n      dup1\n        /* \"#utility.yul\":15322:15324   */\n      tag_374\n      jumpi\n        /* \"#utility.yul\":15388:15392   */\n      0x7f\n        /* \"#utility.yul\":15380:15386   */\n      dup3\n        /* \"#utility.yul\":15376:15393   */\n      and\n        /* \"#utility.yul\":15366:15393   */\n      swap2\n      pop\n        /* \"#utility.yul\":15322:15324   */\n    tag_374:\n        /* \"#utility.yul\":15450:15452   */\n      0x20\n        /* \"#utility.yul\":15442:15448   */\n      dup3\n        /* \"#utility.yul\":15439:15453   */\n      lt\n        /* \"#utility.yul\":15419:15437   */\n      dup2\n        /* \"#utility.yul\":15416:15454   */\n      eq\n        /* \"#utility.yul\":15413:15415   */\n      iszero\n      tag_375\n      jumpi\n        /* \"#utility.yul\":15469:15487   */\n      tag_376\n      tag_377\n      jump\t// in\n    tag_376:\n        /* \"#utility.yul\":15413:15415   */\n    tag_375:\n        /* \"#utility.yul\":15234:15503   */\n      pop\n      swap2\n      swap1\n      pop\n      jump\t// out\n        /* \"#utility.yul\":15509:15689   */\n    tag_349:\n        /* \"#utility.yul\":15557:15634   */\n      0x4e487b7100000000000000000000000000000000000000000000000000000000\n        /* \"#utility.yul\":15554:15555   */\n      0x00\n        /* \"#utility.yul\":15547:15635   */\n      mstore\n        /* \"#utility.yul\":15654:15658   */\n      0x11\n        /* \"#utility.yul\":15651:15652   */\n      0x04\n        /* \"#utility.yul\":15644:15659   */\n      mstore\n        /* \"#utility.yul\":15678:15682   */\n      0x24\n        /* \"#utility.yul\":15675:15676   */\n      0x00\n        /* \"#utility.yul\":15668:15683   */\n      revert\n        /* \"#utility.yul\":15695:15875   */\n    tag_379:\n        /* \"#utility.yul\":15743:15820   */\n      0x4e487b7100000000000000000000000000000000000000000000000000000000\n        /* \"#utility.yul\":15740:15741   */\n      0x00\n        /* \"#utility.yul\":15733:15821   */\n      mstore\n        /* \"#utility.yul\":15840:15844   */\n      0x21\n        /* \"#utility.yul\":15837:15838   */\n      0x04\n        /* \"#utility.yul\":15830:15845   */\n      mstore\n        /* \"#utility.yul\":15864:15868   */\n      0x24\n        /* \"#utility.yul\":15861:15862   */\n      0x00\n        /* \"#utility.yul\":15854:15869   */\n      revert\n        /* \"#utility.yul\":15881:16061   */\n    tag_377:\n        /* \"#utility.yul\":15929:16006   */\n      0x4e487b7100000000000000000000000000000000000000000000000000000000\n        /* \"#utility.yul\":15926:15927   */\n      0x00\n        /* \"#utility.yul\":15919:16007   */\n      mstore\n        /* \"#utility.yul\":16026:16030   */\n      0x22\n        /* \"#utility.yul\":16023:16024   */\n      0x04\n        /* \"#utility.yul\":16016:16031   */\n      mstore\n        /* \"#utility.yul\":16050:16054   */\n      0x24\n        /* \"#utility.yul\":16047:16048   */\n      0x00\n        /* \"#utility.yul\":16040:16055   */\n      revert\n        /* \"#utility.yul\":16067:16247   */\n    tag_337:\n        /* \"#utility.yul\":16115:16192   */\n      0x4e487b7100000000000000000000000000000000000000000000000000000000\n        /* \"#utility.yul\":16112:16113   */\n      0x00\n        /* \"#utility.yul\":16105:16193   */\n      mstore\n        /* \"#utility.yul\":16212:16216   */\n      0x41\n        /* \"#utility.yul\":16209:16210   */\n      0x04\n        /* \"#utility.yul\":16202:16217   */\n      mstore\n        /* \"#utility.yul\":16236:16240   */\n      0x24\n        /* \"#utility.yul\":16233:16234   */\n      0x00\n        /* \"#utility.yul\":16226:16241   */\n      revert\n        /* \"#utility.yul\":16253:16355   */\n    tag_265:\n      0x00\n        /* \"#utility.yul\":16345:16347   */\n      0x1f\n        /* \"#utility.yul\":16341:16348   */\n      not\n        /* \"#utility.yul\":16336:16338   */\n      0x1f\n        /* \"#utility.yul\":16329:16334   */\n      dup4\n        /* \"#utility.yul\":16325:16339   */\n      add\n        /* \"#utility.yul\":16321:16349   */\n      and\n        /* \"#utility.yul\":16311:16349   */\n      swap1\n      pop\n        /* \"#utility.yul\":16301:16355   */\n      swap2\n      swap1\n      pop\n      jump\t// out\n        /* \"#utility.yul\":16361:16474   */\n    tag_356:\n        /* \"#utility.yul\":16442:16443   */\n      0x07\n        /* \"#utility.yul\":16435:16440   */\n      dup2\n        /* \"#utility.yul\":16432:16444   */\n      lt\n        /* \"#utility.yul\":16422:16424   */\n      tag_385\n      jumpi\n        /* \"#utility.yul\":16448:16466   */\n      tag_386\n      tag_379\n      jump\t// in\n    tag_386:\n        /* \"#utility.yul\":16422:16424   */\n    tag_385:\n        /* \"#utility.yul\":16412:16474   */\n      pop\n      jump\t// out\n        /* \"#utility.yul\":16480:16598   */\n    tag_360:\n        /* \"#utility.yul\":16566:16567   */\n      0x04\n        /* \"#utility.yul\":16559:16564   */\n      dup2\n        /* \"#utility.yul\":16556:16568   */\n      lt\n        /* \"#utility.yul\":16546:16548   */\n      tag_388\n      jumpi\n        /* \"#utility.yul\":16572:16590   */\n      tag_389\n      tag_379\n      jump\t// in\n    tag_389:\n        /* \"#utility.yul\":16546:16548   */\n    tag_388:\n        /* \"#utility.yul\":16536:16598   */\n      pop\n      jump\t// out\n        /* \"#utility.yul\":16604:16726   */\n    tag_210:\n        /* \"#utility.yul\":16677:16701   */\n      tag_391\n        /* \"#utility.yul\":16695:16700   */\n      dup2\n        /* \"#utility.yul\":16677:16701   */\n      tag_238\n      jump\t// in\n    tag_391:\n        /* \"#utility.yul\":16670:16675   */\n      dup2\n        /* \"#utility.yul\":16667:16702   */\n      eq\n        /* \"#utility.yul\":16657:16659   */\n      tag_392\n      jumpi\n        /* \"#utility.yul\":16716:16717   */\n      0x00\n        /* \"#utility.yul\":16713:16714   */\n      dup1\n        /* \"#utility.yul\":16706:16718   */\n      revert\n        /* \"#utility.yul\":16657:16659   */\n    tag_392:\n        /* \"#utility.yul\":16647:16726   */\n      pop\n      jump\t// out\n        /* \"#utility.yul\":16732:16854   */\n    tag_218:\n        /* \"#utility.yul\":16805:16829   */\n      tag_394\n        /* \"#utility.yul\":16823:16828   */\n      dup2\n        /* \"#utility.yul\":16805:16829   */\n      tag_299\n      jump\t// in\n    tag_394:\n        /* \"#utility.yul\":16798:16803   */\n      dup2\n        /* \"#utility.yul\":16795:16830   */\n      eq\n        /* \"#utility.yul\":16785:16787   */\n      tag_395\n      jumpi\n        /* \"#utility.yul\":16844:16845   */\n      0x00\n        /* \"#utility.yul\":16841:16842   */\n      dup1\n        /* \"#utility.yul\":16834:16846   */\n      revert\n        /* \"#utility.yul\":16785:16787   */\n    tag_395:\n        /* \"#utility.yul\":16775:16854   */\n      pop\n      jump\t// out\n\n    auxdata: 0xa2646970667358221220d6f651cb5e6ac34c412c749fd6f25b750f4edecd5ef1eac434f340002f0ae90664736f6c63430008000033\n}\n",
				"bytecode": {
					"linkReferences": {},
					"object": "6080604052600080556000600255600060055534801561001e57600080fd5b5033600760006101000a81548173ffffffffffffffffffffffffffffffffffffffff021916908373ffffffffffffffffffffffffffffffffffffffff1602179055506126e98061006f6000396000f3fe608060405234801561001057600080fd5b50600436106100cf5760003560e01c806343c4c53e1161008c5780638da5cb5b116100665780638da5cb5b146102285780638f5ae79914610246578063b57c760914610262578063d3de074c14610292576100cf565b806343c4c53e146101c057806354a153e9146101dc57806362d6bbdf1461020c576100cf565b806315533a27146100d457806317b47cc4146100f057806321603f43146101245780632fa5ad1a1461014057806335c1d3491461015c57806342f3588514610190575b600080fd5b6100ee60048036038101906100e99190611e04565b6102ae565b005b61010a60048036038101906101059190611e99565b61059c565b60405161011b959493929190612216565b60405180910390f35b61013e60048036038101906101399190611e99565b610687565b005b61015a60048036038101906101559190611e04565b610b42565b005b61017660048036038101906101719190611e99565b610e30565b604051610187959493929190612270565b60405180910390f35b6101aa60048036038101906101a59190611e99565b610f1b565b6040516101b7919061232a565b60405180910390f35b6101da60048036038101906101d59190611ec2565b6110cb565b005b6101f660048036038101906101f19190611e99565b611213565b604051610203919061234c565b60405180910390f35b61022660048036038101906102219190611e45565b6113c3565b005b6102306116d4565b60405161023d91906121e0565b60405180910390f35b610260600480360381019061025b9190611e04565b6116fa565b005b61027c60048036038101906102779190611e99565b6119e8565b60405161028991906121fb565b60405180910390f35b6102ac60048036038101906102a79190611e99565b611a15565b005b6102b6611b59565b81816000018190525060025481602001818152505060008160400190600381111561030a577f4e487b7100000000000000000000000000000000000000000000000000000000600052602160045260246000fd5b90816003811115610344577f4e487b7100000000000000000000000000000000000000000000000000000000600052602160045260246000fd5b8152505033816060019073ffffffffffffffffffffffffffffffffffffffff16908173ffffffffffffffffffffffffffffffffffffffff168152505060008160800181815250508060036000600254815260200190815260200160002060008201518160000190805190602001906103bd929190611bd6565b506020820151816001015560408201518160020160006101000a81548160ff02191690836003811115610419577f4e487b7100000000000000000000000000000000000000000000000000000000600052602160045260246000fd5b021790555060608201518160020160016101000a81548173ffffffffffffffffffffffffffffffffffffffff021916908373ffffffffffffffffffffffffffffffffffffffff1602179055506080820151816003015590505080600460003373ffffffffffffffffffffffffffffffffffffffff1673ffffffffffffffffffffffffffffffffffffffff16815260200190815260200160002060008201518160000190805190602001906104ce929190611bd6565b506020820151816001015560408201518160020160006101000a81548160ff0219169083600381111561052a577f4e487b7100000000000000000000000000000000000000000000000000000000600052602160045260246000fd5b021790555060608201518160020160016101000a81548173ffffffffffffffffffffffffffffffffffffffff021916908373ffffffffffffffffffffffffffffffffffffffff1602179055506080820151816003015590505060016002546105929190612440565b6002819055505050565b60016020528060005260406000206000915090508060000180546105bf9061255e565b80601f01602080910402602001604051908101604052809291908181526020018280546105eb9061255e565b80156106385780601f1061060d57610100808354040283529160200191610638565b820191906000526020600020905b81548152906001019060200180831161061b57829003601f168201915b5050505050908060010154908060020160009054906101000a900473ffffffffffffffffffffffffffffffffffffffff16908060020160149054906101000a900460ff16908060030154905085565b60008081600160008381526020019081526020016000206003015411156106e3576040517f08c379a00000000000000000000000000000000000000000000000000000000081526004016106da906122ea565b60405180910390fd5b6106eb611c5c565b33816040019073ffffffffffffffffffffffffffffffffffffffff16908173ffffffffffffffffffffffffffffffffffffffff168152505060055481600001818152505060008160600190600281111561076e577f4e487b7100000000000000000000000000000000000000000000000000000000600052602160045260246000fd5b908160028111156107a8577f4e487b7100000000000000000000000000000000000000000000000000000000600052602160045260246000fd5b81525050600160008581526020019081526020016000206040518060a00160405290816000820180546107da9061255e565b80601f01602080910402602001604051908101604052809291908181526020018280546108069061255e565b80156108535780601f1061082857610100808354040283529160200191610853565b820191906000526020600020905b81548152906001019060200180831161083657829003601f168201915b50505050508152602001600182015481526020016002820160009054906101000a900473ffffffffffffffffffffffffffffffffffffffff1673ffffffffffffffffffffffffffffffffffffffff1673ffffffffffffffffffffffffffffffffffffffff1681526020016002820160149054906101000a900460ff166006811115610907577f4e487b7100000000000000000000000000000000000000000000000000000000600052602160045260246000fd5b600681111561093f577f4e487b7100000000000000000000000000000000000000000000000000000000600052602160045260246000fd5b815260200160038201548152505081602001819052508060066000600554815260200190815260200160002060008201518160000155602082015181600101600082015181600001908051906020019061099a929190611bd6565b506020820151816001015560408201518160020160006101000a81548173ffffffffffffffffffffffffffffffffffffffff021916908373ffffffffffffffffffffffffffffffffffffffff16021790555060608201518160020160146101000a81548160ff02191690836006811115610a3d577f4e487b7100000000000000000000000000000000000000000000000000000000600052602160045260246000fd5b021790555060808201518160030155505060408201518160050160006101000a81548173ffffffffffffffffffffffffffffffffffffffff021916908373ffffffffffffffffffffffffffffffffffffffff16021790555060608201518160050160146101000a81548160ff02191690836002811115610ae6577f4e487b7100000000000000000000000000000000000000000000000000000000600052602160045260246000fd5b02179055509050507fef7b116480495ad6b1c6479820e4a0140e78de3846e138c5d055ad601408725e8433604051610b1f929190612389565b60405180910390a16001600554610b369190612440565b60058190555050505050565b610b4a611b59565b8181600001819052506002548160200181815250506000816080018181525050600181604001906003811115610ba9577f4e487b7100000000000000000000000000000000000000000000000000000000600052602160045260246000fd5b90816003811115610be3577f4e487b7100000000000000000000000000000000000000000000000000000000600052602160045260246000fd5b8152505033816060019073ffffffffffffffffffffffffffffffffffffffff16908173ffffffffffffffffffffffffffffffffffffffff1681525050806003600060025481526020019081526020016000206000820151816000019080519060200190610c51929190611bd6565b506020820151816001015560408201518160020160006101000a81548160ff02191690836003811115610cad577f4e487b7100000000000000000000000000000000000000000000000000000000600052602160045260246000fd5b021790555060608201518160020160016101000a81548173ffffffffffffffffffffffffffffffffffffffff021916908373ffffffffffffffffffffffffffffffffffffffff1602179055506080820151816003015590505080600460003373ffffffffffffffffffffffffffffffffffffffff1673ffffffffffffffffffffffffffffffffffffffff1681526020019081526020016000206000820151816000019080519060200190610d62929190611bd6565b506020820151816001015560408201518160020160006101000a81548160ff02191690836003811115610dbe577f4e487b7100000000000000000000000000000000000000000000000000000000600052602160045260246000fd5b021790555060608201518160020160016101000a81548173ffffffffffffffffffffffffffffffffffffffff021916908373ffffffffffffffffffffffffffffffffffffffff160217905550608082015181600301559050506001600254610e269190612440565b6002819055505050565b6003602052806000526040600020600091509050806000018054610e539061255e565b80601f0160208091040260200160405190810160405280929190818152602001828054610e7f9061255e565b8015610ecc5780601f10610ea157610100808354040283529160200191610ecc565b820191906000526020600020905b815481529060010190602001808311610eaf57829003601f168201915b5050505050908060010154908060020160009054906101000a900460ff16908060020160019054906101000a900473ffffffffffffffffffffffffffffffffffffffff16908060030154905085565b610f23611cd8565b600160008381526020019081526020016000206040518060a0016040529081600082018054610f519061255e565b80601f0160208091040260200160405190810160405280929190818152602001828054610f7d9061255e565b8015610fca5780601f10610f9f57610100808354040283529160200191610fca565b820191906000526020600020905b815481529060010190602001808311610fad57829003601f168201915b50505050508152602001600182015481526020016002820160009054906101000a900473ffffffffffffffffffffffffffffffffffffffff1673ffffffffffffffffffffffffffffffffffffffff1673ffffffffffffffffffffffffffffffffffffffff1681526020016002820160149054906101000a900460ff16600681111561107e577f4e487b7100000000000000000000000000000000000000000000000000000000600052602160045260246000fd5b60068111156110b6577f4e487b7100000000000000000000000000000000000000000000000000000000600052602160045260246000fd5b81526020016003820154815250509050919050565b813373ffffffffffffffffffffffffffffffffffffffff166001600083815260200190815260200160002060020160009054906101000a900473ffffffffffffffffffffffffffffffffffffffff1673ffffffffffffffffffffffffffffffffffffffff1614611170576040517f08c379a00000000000000000000000000000000000000000000000000000000081526004016111679061230a565b60405180910390fd5b60036001600085815260200190815260200160002060020160146101000a81548160ff021916908360068111156111d0577f4e487b7100000000000000000000000000000000000000000000000000000000600052602160045260246000fd5b02179055507f45af58aaf003ac2ec2ad90282f8d3d79ede476b3e19183acb4abdebf6553b6a98383604051611206929190612389565b60405180910390a1505050565b61121b611b59565b600360008381526020019081526020016000206040518060a00160405290816000820180546112499061255e565b80601f01602080910402602001604051908101604052809291908181526020018280546112759061255e565b80156112c25780601f10611297576101008083540402835291602001916112c2565b820191906000526020600020905b8154815290600101906020018083116112a557829003601f168201915b50505050508152602001600182015481526020016002820160009054906101000a900460ff166003811115611320577f4e487b7100000000000000000000000000000000000000000000000000000000600052602160045260246000fd5b6003811115611358577f4e487b7100000000000000000000000000000000000000000000000000000000600052602160045260246000fd5b81526020016002820160019054906101000a900473ffffffffffffffffffffffffffffffffffffffff1673ffffffffffffffffffffffffffffffffffffffff1673ffffffffffffffffffffffffffffffffffffffff1681526020016003820154815250509050919050565b33600060038111156113fe577f4e487b7100000000000000000000000000000000000000000000000000000000600052602160045260246000fd5b600460008373ffffffffffffffffffffffffffffffffffffffff1673ffffffffffffffffffffffffffffffffffffffff16815260200190815260200160002060020160009054906101000a900460ff166003811115611486577f4e487b7100000000000000000000000000000000000000000000000000000000600052602160045260246000fd5b146114c6576040517f08c379a00000000000000000000000000000000000000000000000000000000081526004016114bd906122ca565b60405180910390fd5b6114ce611cd8565b83816000018190525060005481602001818152505033816040019073ffffffffffffffffffffffffffffffffffffffff16908173ffffffffffffffffffffffffffffffffffffffff168152505060008160600190600681111561155a577f4e487b7100000000000000000000000000000000000000000000000000000000600052602160045260246000fd5b90816006811115611594577f4e487b7100000000000000000000000000000000000000000000000000000000600052602160045260246000fd5b8152505080600160008054815260200190815260200160002060008201518160000190805190602001906115c9929190611bd6565b506020820151816001015560408201518160020160006101000a81548173ffffffffffffffffffffffffffffffffffffffff021916908373ffffffffffffffffffffffffffffffffffffffff16021790555060608201518160020160146101000a81548160ff0219169083600681111561166c577f4e487b7100000000000000000000000000000000000000000000000000000000600052602160045260246000fd5b0217905550608082015181600301559050507f4e95503bf2c40739506d6f0afb0fe6be42ce748d90f3f516386892fb6096e5bc600054336040516116b1929190612389565b60405180910390a160016000546116c89190612440565b60008190555050505050565b600760009054906101000a900473ffffffffffffffffffffffffffffffffffffffff1681565b611702611b59565b8181600001819052506002548160200181815250506000816080018181525050600381604001906003811115611761577f4e487b7100000000000000000000000000000000000000000000000000000000600052602160045260246000fd5b9081600381111561179b577f4e487b7100000000000000000000000000000000000000000000000000000000600052602160045260246000fd5b8152505033816060019073ffffffffffffffffffffffffffffffffffffffff16908173ffffffffffffffffffffffffffffffffffffffff1681525050806003600060025481526020019081526020016000206000820151816000019080519060200190611809929190611bd6565b506020820151816001015560408201518160020160006101000a81548160ff02191690836003811115611865577f4e487b7100000000000000000000000000000000000000000000000000000000600052602160045260246000fd5b021790555060608201518160020160016101000a81548173ffffffffffffffffffffffffffffffffffffffff021916908373ffffffffffffffffffffffffffffffffffffffff1602179055506080820151816003015590505080600460003373ffffffffffffffffffffffffffffffffffffffff1673ffffffffffffffffffffffffffffffffffffffff168152602001908152602001600020600082015181600001908051906020019061191a929190611bd6565b506020820151816001015560408201518160020160006101000a81548160ff02191690836003811115611976577f4e487b7100000000000000000000000000000000000000000000000000000000600052602160045260246000fd5b021790555060608201518160020160016101000a81548173ffffffffffffffffffffffffffffffffffffffff021916908373ffffffffffffffffffffffffffffffffffffffff1602179055506080820151816003015590505060016002546119de9190612440565b6002819055505050565b60006001600083815260200190815260200160002060020160149054906101000a900460ff169050919050565b803373ffffffffffffffffffffffffffffffffffffffff166001600083815260200190815260200160002060020160009054906101000a900473ffffffffffffffffffffffffffffffffffffffff1673ffffffffffffffffffffffffffffffffffffffff1614611aba576040517f08c379a0000000000000000000000000000000000000000000000000000000008152600401611ab19061230a565b60405180910390fd5b600180600084815260200190815260200160002060020160146101000a81548160ff02191690836006811115611b19577f4e487b7100000000000000000000000000000000000000000000000000000000600052602160045260246000fd5b02179055507f15f51416bf6f180a7f06ab542b87dacc1363e503b8df75d711f9aaedc5c48a7082604051611b4d919061236e565b60405180910390a15050565b6040518060a00160405280606081526020016000815260200160006003811115611bac577f4e487b7100000000000000000000000000000000000000000000000000000000600052602160045260246000fd5b8152602001600073ffffffffffffffffffffffffffffffffffffffff168152602001600081525090565b828054611be29061255e565b90600052602060002090601f016020900481019282611c045760008555611c4b565b82601f10611c1d57805160ff1916838001178555611c4b565b82800160010185558215611c4b579182015b82811115611c4a578251825591602001919060010190611c2f565b5b509050611c589190611d55565b5090565b604051806080016040528060008152602001611c76611cd8565b8152602001600073ffffffffffffffffffffffffffffffffffffffff16815260200160006002811115611cd2577f4e487b7100000000000000000000000000000000000000000000000000000000600052602160045260246000fd5b81525090565b6040518060a001604052806060815260200160008152602001600073ffffffffffffffffffffffffffffffffffffffff16815260200160006006811115611d48577f4e487b7100000000000000000000000000000000000000000000000000000000600052602160045260246000fd5b8152602001600081525090565b5b80821115611d6e576000816000905550600101611d56565b5090565b6000611d85611d80846123e3565b6123b2565b905082815260208101848484011115611d9d57600080fd5b611da884828561251c565b509392505050565b600081359050611dbf81612685565b92915050565b600082601f830112611dd657600080fd5b8135611de6848260208601611d72565b91505092915050565b600081359050611dfe8161269c565b92915050565b600060208284031215611e1657600080fd5b600082013567ffffffffffffffff811115611e3057600080fd5b611e3c84828501611dc5565b91505092915050565b60008060408385031215611e5857600080fd5b600083013567ffffffffffffffff811115611e7257600080fd5b611e7e85828601611dc5565b9250506020611e8f85828601611def565b9150509250929050565b600060208284031215611eab57600080fd5b6000611eb984828501611def565b91505092915050565b60008060408385031215611ed557600080fd5b6000611ee385828601611def565b9250506020611ef485828601611db0565b9150509250929050565b611f0781612496565b82525050565b611f1681612496565b82525050565b611f25816124f8565b82525050565b611f34816124f8565b82525050565b611f438161250a565b82525050565b611f528161250a565b82525050565b6000611f6382612413565b611f6d818561241e565b9350611f7d81856020860161252b565b611f868161264c565b840191505092915050565b6000611f9c82612413565b611fa6818561242f565b9350611fb681856020860161252b565b611fbf8161264c565b840191505092915050565b6000611fd7601a8361242f565b91507f796f752063616e6e6f7420616464206e65772070726f647563740000000000006000830152602082019050919050565b6000612017602d8361242f565b91507f796f7520646f6e74206861766520656e6f756768206d6f6e657920746f20627560008301527f79207468652070726f64756374000000000000000000000000000000000000006020830152604082019050919050565b600061207d60218361242f565b91507f796f7520617265206e6f74206f776e6572206f6620746869732070726f64756360008301527f74000000000000000000000000000000000000000000000000000000000000006020830152604082019050919050565b600060a08301600083015184820360008601526120f38282611f58565b915050602083015161210860208601826121c2565b50604083015161211b6040860182611efe565b50606083015161212e6060860182611f1c565b50608083015161214160808601826121c2565b508091505092915050565b600060a08301600083015184820360008601526121698282611f58565b915050602083015161217e60208601826121c2565b5060408301516121916040860182611f3a565b5060608301516121a46060860182611efe565b5060808301516121b760808601826121c2565b508091505092915050565b6121cb816124ee565b82525050565b6121da816124ee565b82525050565b60006020820190506121f56000830184611f0d565b92915050565b60006020820190506122106000830184611f2b565b92915050565b600060a08201905081810360008301526122308188611f91565b905061223f60208301876121d1565b61224c6040830186611f0d565b6122596060830185611f2b565b61226660808301846121d1565b9695505050505050565b600060a082019050818103600083015261228a8188611f91565b905061229960208301876121d1565b6122a66040830186611f49565b6122b36060830185611f0d565b6122c060808301846121d1565b9695505050505050565b600060208201905081810360008301526122e381611fca565b9050919050565b600060208201905081810360008301526123038161200a565b9050919050565b6000602082019050818103600083015261232381612070565b9050919050565b6000602082019050818103600083015261234481846120d6565b905092915050565b60006020820190508181036000830152612366818461214c565b905092915050565b600060208201905061238360008301846121d1565b92915050565b600060408201905061239e60008301856121d1565b6123ab6020830184611f0d565b9392505050565b6000604051905081810181811067ffffffffffffffff821117156123d9576123d861261d565b5b8060405250919050565b600067ffffffffffffffff8211156123fe576123fd61261d565b5b601f19601f8301169050602081019050919050565b600081519050919050565b600082825260208201905092915050565b600082825260208201905092915050565b600061244b826124ee565b9150612456836124ee565b9250827fffffffffffffffffffffffffffffffffffffffffffffffffffffffffffffffff0382111561248b5761248a612590565b5b828201905092915050565b60006124a1826124ce565b9050919050565b60008190506124b68261265d565b919050565b60008190506124c982612671565b919050565b600073ffffffffffffffffffffffffffffffffffffffff82169050919050565b6000819050919050565b6000612503826124a8565b9050919050565b6000612515826124bb565b9050919050565b82818337600083830152505050565b60005b8381101561254957808201518184015260208101905061252e565b83811115612558576000848401525b50505050565b6000600282049050600182168061257657607f821691505b6020821081141561258a576125896125ee565b5b50919050565b7f4e487b7100000000000000000000000000000000000000000000000000000000600052601160045260246000fd5b7f4e487b7100000000000000000000000000000000000000000000000000000000600052602160045260246000fd5b7f4e487b7100000000000000000000000000000000000000000000000000000000600052602260045260246000fd5b7f4e487b7100000000000000000000000000000000000000000000000000000000600052604160045260246000fd5b6000601f19601f8301169050919050565b6007811061266e5761266d6125bf565b5b50565b60048110612682576126816125bf565b5b50565b61268e81612496565b811461269957600080fd5b50565b6126a5816124ee565b81146126b057600080fd5b5056fea2646970667358221220d6f651cb5e6ac34c412c749fd6f25b750f4edecd5ef1eac434f340002f0ae90664736f6c63430008000033",
					"opcodes": "PUSH1 0x80 PUSH1 0x40 MSTORE PUSH1 0x0 DUP1 SSTORE PUSH1 0x0 PUSH1 0x2 SSTORE PUSH1 0x0 PUSH1 0x5 SSTORE CALLVALUE DUP1 ISZERO PUSH2 0x1E JUMPI PUSH1 0x0 DUP1 REVERT JUMPDEST POP CALLER PUSH1 0x7 PUSH1 0x0 PUSH2 0x100 EXP DUP2 SLOAD DUP2 PUSH20 0xFFFFFFFFFFFFFFFFFFFFFFFFFFFFFFFFFFFFFFFF MUL NOT AND SWAP1 DUP4 PUSH20 0xFFFFFFFFFFFFFFFFFFFFFFFFFFFFFFFFFFFFFFFF AND MUL OR SWAP1 SSTORE POP PUSH2 0x26E9 DUP1 PUSH2 0x6F PUSH1 0x0 CODECOPY PUSH1 0x0 RETURN INVALID PUSH1 0x80 PUSH1 0x40 MSTORE CALLVALUE DUP1 ISZERO PUSH2 0x10 JUMPI PUSH1 0x0 DUP1 REVERT JUMPDEST POP PUSH1 0x4 CALLDATASIZE LT PUSH2 0xCF JUMPI PUSH1 0x0 CALLDATALOAD PUSH1 0xE0 SHR DUP1 PUSH4 0x43C4C53E GT PUSH2 0x8C JUMPI DUP1 PUSH4 0x8DA5CB5B GT PUSH2 0x66 JUMPI DUP1 PUSH4 0x8DA5CB5B EQ PUSH2 0x228 JUMPI DUP1 PUSH4 0x8F5AE799 EQ PUSH2 0x246 JUMPI DUP1 PUSH4 0xB57C7609 EQ PUSH2 0x262 JUMPI DUP1 PUSH4 0xD3DE074C EQ PUSH2 0x292 JUMPI PUSH2 0xCF JUMP JUMPDEST DUP1 PUSH4 0x43C4C53E EQ PUSH2 0x1C0 JUMPI DUP1 PUSH4 0x54A153E9 EQ PUSH2 0x1DC JUMPI DUP1 PUSH4 0x62D6BBDF EQ PUSH2 0x20C JUMPI PUSH2 0xCF JUMP JUMPDEST DUP1 PUSH4 0x15533A27 EQ PUSH2 0xD4 JUMPI DUP1 PUSH4 0x17B47CC4 EQ PUSH2 0xF0 JUMPI DUP1 PUSH4 0x21603F43 EQ PUSH2 0x124 JUMPI DUP1 PUSH4 0x2FA5AD1A EQ PUSH2 0x140 JUMPI DUP1 PUSH4 0x35C1D349 EQ PUSH2 0x15C JUMPI DUP1 PUSH4 0x42F35885 EQ PUSH2 0x190 JUMPI JUMPDEST PUSH1 0x0 DUP1 REVERT JUMPDEST PUSH2 0xEE PUSH1 0x4 DUP1 CALLDATASIZE SUB DUP2 ADD SWAP1 PUSH2 0xE9 SWAP2 SWAP1 PUSH2 0x1E04 JUMP JUMPDEST PUSH2 0x2AE JUMP JUMPDEST STOP JUMPDEST PUSH2 0x10A PUSH1 0x4 DUP1 CALLDATASIZE SUB DUP2 ADD SWAP1 PUSH2 0x105 SWAP2 SWAP1 PUSH2 0x1E99 JUMP JUMPDEST PUSH2 0x59C JUMP JUMPDEST PUSH1 0x40 MLOAD PUSH2 0x11B SWAP6 SWAP5 SWAP4 SWAP3 SWAP2 SWAP1 PUSH2 0x2216 JUMP JUMPDEST PUSH1 0x40 MLOAD DUP1 SWAP2 SUB SWAP1 RETURN JUMPDEST PUSH2 0x13E PUSH1 0x4 DUP1 CALLDATASIZE SUB DUP2 ADD SWAP1 PUSH2 0x139 SWAP2 SWAP1 PUSH2 0x1E99 JUMP JUMPDEST PUSH2 0x687 JUMP JUMPDEST STOP JUMPDEST PUSH2 0x15A PUSH1 0x4 DUP1 CALLDATASIZE SUB DUP2 ADD SWAP1 PUSH2 0x155 SWAP2 SWAP1 PUSH2 0x1E04 JUMP JUMPDEST PUSH2 0xB42 JUMP JUMPDEST STOP JUMPDEST PUSH2 0x176 PUSH1 0x4 DUP1 CALLDATASIZE SUB DUP2 ADD SWAP1 PUSH2 0x171 SWAP2 SWAP1 PUSH2 0x1E99 JUMP JUMPDEST PUSH2 0xE30 JUMP JUMPDEST PUSH1 0x40 MLOAD PUSH2 0x187 SWAP6 SWAP5 SWAP4 SWAP3 SWAP2 SWAP1 PUSH2 0x2270 JUMP JUMPDEST PUSH1 0x40 MLOAD DUP1 SWAP2 SUB SWAP1 RETURN JUMPDEST PUSH2 0x1AA PUSH1 0x4 DUP1 CALLDATASIZE SUB DUP2 ADD SWAP1 PUSH2 0x1A5 SWAP2 SWAP1 PUSH2 0x1E99 JUMP JUMPDEST PUSH2 0xF1B JUMP JUMPDEST PUSH1 0x40 MLOAD PUSH2 0x1B7 SWAP2 SWAP1 PUSH2 0x232A JUMP JUMPDEST PUSH1 0x40 MLOAD DUP1 SWAP2 SUB SWAP1 RETURN JUMPDEST PUSH2 0x1DA PUSH1 0x4 DUP1 CALLDATASIZE SUB DUP2 ADD SWAP1 PUSH2 0x1D5 SWAP2 SWAP1 PUSH2 0x1EC2 JUMP JUMPDEST PUSH2 0x10CB JUMP JUMPDEST STOP JUMPDEST PUSH2 0x1F6 PUSH1 0x4 DUP1 CALLDATASIZE SUB DUP2 ADD SWAP1 PUSH2 0x1F1 SWAP2 SWAP1 PUSH2 0x1E99 JUMP JUMPDEST PUSH2 0x1213 JUMP JUMPDEST PUSH1 0x40 MLOAD PUSH2 0x203 SWAP2 SWAP1 PUSH2 0x234C JUMP JUMPDEST PUSH1 0x40 MLOAD DUP1 SWAP2 SUB SWAP1 RETURN JUMPDEST PUSH2 0x226 PUSH1 0x4 DUP1 CALLDATASIZE SUB DUP2 ADD SWAP1 PUSH2 0x221 SWAP2 SWAP1 PUSH2 0x1E45 JUMP JUMPDEST PUSH2 0x13C3 JUMP JUMPDEST STOP JUMPDEST PUSH2 0x230 PUSH2 0x16D4 JUMP JUMPDEST PUSH1 0x40 MLOAD PUSH2 0x23D SWAP2 SWAP1 PUSH2 0x21E0 JUMP JUMPDEST PUSH1 0x40 MLOAD DUP1 SWAP2 SUB SWAP1 RETURN JUMPDEST PUSH2 0x260 PUSH1 0x4 DUP1 CALLDATASIZE SUB DUP2 ADD SWAP1 PUSH2 0x25B SWAP2 SWAP1 PUSH2 0x1E04 JUMP JUMPDEST PUSH2 0x16FA JUMP JUMPDEST STOP JUMPDEST PUSH2 0x27C PUSH1 0x4 DUP1 CALLDATASIZE SUB DUP2 ADD SWAP1 PUSH2 0x277 SWAP2 SWAP1 PUSH2 0x1E99 JUMP JUMPDEST PUSH2 0x19E8 JUMP JUMPDEST PUSH1 0x40 MLOAD PUSH2 0x289 SWAP2 SWAP1 PUSH2 0x21FB JUMP JUMPDEST PUSH1 0x40 MLOAD DUP1 SWAP2 SUB SWAP1 RETURN JUMPDEST PUSH2 0x2AC PUSH1 0x4 DUP1 CALLDATASIZE SUB DUP2 ADD SWAP1 PUSH2 0x2A7 SWAP2 SWAP1 PUSH2 0x1E99 JUMP JUMPDEST PUSH2 0x1A15 JUMP JUMPDEST STOP JUMPDEST PUSH2 0x2B6 PUSH2 0x1B59 JUMP JUMPDEST DUP2 DUP2 PUSH1 0x0 ADD DUP2 SWAP1 MSTORE POP PUSH1 0x2 SLOAD DUP2 PUSH1 0x20 ADD DUP2 DUP2 MSTORE POP POP PUSH1 0x0 DUP2 PUSH1 0x40 ADD SWAP1 PUSH1 0x3 DUP2 GT ISZERO PUSH2 0x30A JUMPI PUSH32 0x4E487B7100000000000000000000000000000000000000000000000000000000 PUSH1 0x0 MSTORE PUSH1 0x21 PUSH1 0x4 MSTORE PUSH1 0x24 PUSH1 0x0 REVERT JUMPDEST SWAP1 DUP2 PUSH1 0x3 DUP2 GT ISZERO PUSH2 0x344 JUMPI PUSH32 0x4E487B7100000000000000000000000000000000000000000000000000000000 PUSH1 0x0 MSTORE PUSH1 0x21 PUSH1 0x4 MSTORE PUSH1 0x24 PUSH1 0x0 REVERT JUMPDEST DUP2 MSTORE POP POP CALLER DUP2 PUSH1 0x60 ADD SWAP1 PUSH20 0xFFFFFFFFFFFFFFFFFFFFFFFFFFFFFFFFFFFFFFFF AND SWAP1 DUP2 PUSH20 0xFFFFFFFFFFFFFFFFFFFFFFFFFFFFFFFFFFFFFFFF AND DUP2 MSTORE POP POP PUSH1 0x0 DUP2 PUSH1 0x80 ADD DUP2 DUP2 MSTORE POP POP DUP1 PUSH1 0x3 PUSH1 0x0 PUSH1 0x2 SLOAD DUP2 MSTORE PUSH1 0x20 ADD SWAP1 DUP2 MSTORE PUSH1 0x20 ADD PUSH1 0x0 KECCAK256 PUSH1 0x0 DUP3 ADD MLOAD DUP2 PUSH1 0x0 ADD SWAP1 DUP1 MLOAD SWAP1 PUSH1 0x20 ADD SWAP1 PUSH2 0x3BD SWAP3 SWAP2 SWAP1 PUSH2 0x1BD6 JUMP JUMPDEST POP PUSH1 0x20 DUP3 ADD MLOAD DUP2 PUSH1 0x1 ADD SSTORE PUSH1 0x40 DUP3 ADD MLOAD DUP2 PUSH1 0x2 ADD PUSH1 0x0 PUSH2 0x100 EXP DUP2 SLOAD DUP2 PUSH1 0xFF MUL NOT AND SWAP1 DUP4 PUSH1 0x3 DUP2 GT ISZERO PUSH2 0x419 JUMPI PUSH32 0x4E487B7100000000000000000000000000000000000000000000000000000000 PUSH1 0x0 MSTORE PUSH1 0x21 PUSH1 0x4 MSTORE PUSH1 0x24 PUSH1 0x0 REVERT JUMPDEST MUL OR SWAP1 SSTORE POP PUSH1 0x60 DUP3 ADD MLOAD DUP2 PUSH1 0x2 ADD PUSH1 0x1 PUSH2 0x100 EXP DUP2 SLOAD DUP2 PUSH20 0xFFFFFFFFFFFFFFFFFFFFFFFFFFFFFFFFFFFFFFFF MUL NOT AND SWAP1 DUP4 PUSH20 0xFFFFFFFFFFFFFFFFFFFFFFFFFFFFFFFFFFFFFFFF AND MUL OR SWAP1 SSTORE POP PUSH1 0x80 DUP3 ADD MLOAD DUP2 PUSH1 0x3 ADD SSTORE SWAP1 POP POP DUP1 PUSH1 0x4 PUSH1 0x0 CALLER PUSH20 0xFFFFFFFFFFFFFFFFFFFFFFFFFFFFFFFFFFFFFFFF AND PUSH20 0xFFFFFFFFFFFFFFFFFFFFFFFFFFFFFFFFFFFFFFFF AND DUP2 MSTORE PUSH1 0x20 ADD SWAP1 DUP2 MSTORE PUSH1 0x20 ADD PUSH1 0x0 KECCAK256 PUSH1 0x0 DUP3 ADD MLOAD DUP2 PUSH1 0x0 ADD SWAP1 DUP1 MLOAD SWAP1 PUSH1 0x20 ADD SWAP1 PUSH2 0x4CE SWAP3 SWAP2 SWAP1 PUSH2 0x1BD6 JUMP JUMPDEST POP PUSH1 0x20 DUP3 ADD MLOAD DUP2 PUSH1 0x1 ADD SSTORE PUSH1 0x40 DUP3 ADD MLOAD DUP2 PUSH1 0x2 ADD PUSH1 0x0 PUSH2 0x100 EXP DUP2 SLOAD DUP2 PUSH1 0xFF MUL NOT AND SWAP1 DUP4 PUSH1 0x3 DUP2 GT ISZERO PUSH2 0x52A JUMPI PUSH32 0x4E487B7100000000000000000000000000000000000000000000000000000000 PUSH1 0x0 MSTORE PUSH1 0x21 PUSH1 0x4 MSTORE PUSH1 0x24 PUSH1 0x0 REVERT JUMPDEST MUL OR SWAP1 SSTORE POP PUSH1 0x60 DUP3 ADD MLOAD DUP2 PUSH1 0x2 ADD PUSH1 0x1 PUSH2 0x100 EXP DUP2 SLOAD DUP2 PUSH20 0xFFFFFFFFFFFFFFFFFFFFFFFFFFFFFFFFFFFFFFFF MUL NOT AND SWAP1 DUP4 PUSH20 0xFFFFFFFFFFFFFFFFFFFFFFFFFFFFFFFFFFFFFFFF AND MUL OR SWAP1 SSTORE POP PUSH1 0x80 DUP3 ADD MLOAD DUP2 PUSH1 0x3 ADD SSTORE SWAP1 POP POP PUSH1 0x1 PUSH1 0x2 SLOAD PUSH2 0x592 SWAP2 SWAP1 PUSH2 0x2440 JUMP JUMPDEST PUSH1 0x2 DUP2 SWAP1 SSTORE POP POP POP JUMP JUMPDEST PUSH1 0x1 PUSH1 0x20 MSTORE DUP1 PUSH1 0x0 MSTORE PUSH1 0x40 PUSH1 0x0 KECCAK256 PUSH1 0x0 SWAP2 POP SWAP1 POP DUP1 PUSH1 0x0 ADD DUP1 SLOAD PUSH2 0x5BF SWAP1 PUSH2 0x255E JUMP JUMPDEST DUP1 PUSH1 0x1F ADD PUSH1 0x20 DUP1 SWAP2 DIV MUL PUSH1 0x20 ADD PUSH1 0x40 MLOAD SWAP1 DUP2 ADD PUSH1 0x40 MSTORE DUP1 SWAP3 SWAP2 SWAP1 DUP2 DUP2 MSTORE PUSH1 0x20 ADD DUP3 DUP1 SLOAD PUSH2 0x5EB SWAP1 PUSH2 0x255E JUMP JUMPDEST DUP1 ISZERO PUSH2 0x638 JUMPI DUP1 PUSH1 0x1F LT PUSH2 0x60D JUMPI PUSH2 0x100 DUP1 DUP4 SLOAD DIV MUL DUP4 MSTORE SWAP2 PUSH1 0x20 ADD SWAP2 PUSH2 0x638 JUMP JUMPDEST DUP3 ADD SWAP2 SWAP1 PUSH1 0x0 MSTORE PUSH1 0x20 PUSH1 0x0 KECCAK256 SWAP1 JUMPDEST DUP2 SLOAD DUP2 MSTORE SWAP1 PUSH1 0x1 ADD SWAP1 PUSH1 0x20 ADD DUP1 DUP4 GT PUSH2 0x61B JUMPI DUP3 SWAP1 SUB PUSH1 0x1F AND DUP3 ADD SWAP2 JUMPDEST POP POP POP POP POP SWAP1 DUP1 PUSH1 0x1 ADD SLOAD SWAP1 DUP1 PUSH1 0x2 ADD PUSH1 0x0 SWAP1 SLOAD SWAP1 PUSH2 0x100 EXP SWAP1 DIV PUSH20 0xFFFFFFFFFFFFFFFFFFFFFFFFFFFFFFFFFFFFFFFF AND SWAP1 DUP1 PUSH1 0x2 ADD PUSH1 0x14 SWAP1 SLOAD SWAP1 PUSH2 0x100 EXP SWAP1 DIV PUSH1 0xFF AND SWAP1 DUP1 PUSH1 0x3 ADD SLOAD SWAP1 POP DUP6 JUMP JUMPDEST PUSH1 0x0 DUP1 DUP2 PUSH1 0x1 PUSH1 0x0 DUP4 DUP2 MSTORE PUSH1 0x20 ADD SWAP1 DUP2 MSTORE PUSH1 0x20 ADD PUSH1 0x0 KECCAK256 PUSH1 0x3 ADD SLOAD GT ISZERO PUSH2 0x6E3 JUMPI PUSH1 0x40 MLOAD PUSH32 0x8C379A000000000000000000000000000000000000000000000000000000000 DUP2 MSTORE PUSH1 0x4 ADD PUSH2 0x6DA SWAP1 PUSH2 0x22EA JUMP JUMPDEST PUSH1 0x40 MLOAD DUP1 SWAP2 SUB SWAP1 REVERT JUMPDEST PUSH2 0x6EB PUSH2 0x1C5C JUMP JUMPDEST CALLER DUP2 PUSH1 0x40 ADD SWAP1 PUSH20 0xFFFFFFFFFFFFFFFFFFFFFFFFFFFFFFFFFFFFFFFF AND SWAP1 DUP2 PUSH20 0xFFFFFFFFFFFFFFFFFFFFFFFFFFFFFFFFFFFFFFFF AND DUP2 MSTORE POP POP PUSH1 0x5 SLOAD DUP2 PUSH1 0x0 ADD DUP2 DUP2 MSTORE POP POP PUSH1 0x0 DUP2 PUSH1 0x60 ADD SWAP1 PUSH1 0x2 DUP2 GT ISZERO PUSH2 0x76E JUMPI PUSH32 0x4E487B7100000000000000000000000000000000000000000000000000000000 PUSH1 0x0 MSTORE PUSH1 0x21 PUSH1 0x4 MSTORE PUSH1 0x24 PUSH1 0x0 REVERT JUMPDEST SWAP1 DUP2 PUSH1 0x2 DUP2 GT ISZERO PUSH2 0x7A8 JUMPI PUSH32 0x4E487B7100000000000000000000000000000000000000000000000000000000 PUSH1 0x0 MSTORE PUSH1 0x21 PUSH1 0x4 MSTORE PUSH1 0x24 PUSH1 0x0 REVERT JUMPDEST DUP2 MSTORE POP POP PUSH1 0x1 PUSH1 0x0 DUP6 DUP2 MSTORE PUSH1 0x20 ADD SWAP1 DUP2 MSTORE PUSH1 0x20 ADD PUSH1 0x0 KECCAK256 PUSH1 0x40 MLOAD DUP1 PUSH1 0xA0 ADD PUSH1 0x40 MSTORE SWAP1 DUP2 PUSH1 0x0 DUP3 ADD DUP1 SLOAD PUSH2 0x7DA SWAP1 PUSH2 0x255E JUMP JUMPDEST DUP1 PUSH1 0x1F ADD PUSH1 0x20 DUP1 SWAP2 DIV MUL PUSH1 0x20 ADD PUSH1 0x40 MLOAD SWAP1 DUP2 ADD PUSH1 0x40 MSTORE DUP1 SWAP3 SWAP2 SWAP1 DUP2 DUP2 MSTORE PUSH1 0x20 ADD DUP3 DUP1 SLOAD PUSH2 0x806 SWAP1 PUSH2 0x255E JUMP JUMPDEST DUP1 ISZERO PUSH2 0x853 JUMPI DUP1 PUSH1 0x1F LT PUSH2 0x828 JUMPI PUSH2 0x100 DUP1 DUP4 SLOAD DIV MUL DUP4 MSTORE SWAP2 PUSH1 0x20 ADD SWAP2 PUSH2 0x853 JUMP JUMPDEST DUP3 ADD SWAP2 SWAP1 PUSH1 0x0 MSTORE PUSH1 0x20 PUSH1 0x0 KECCAK256 SWAP1 JUMPDEST DUP2 SLOAD DUP2 MSTORE SWAP1 PUSH1 0x1 ADD SWAP1 PUSH1 0x20 ADD DUP1 DUP4 GT PUSH2 0x836 JUMPI DUP3 SWAP1 SUB PUSH1 0x1F AND DUP3 ADD SWAP2 JUMPDEST POP POP POP POP POP DUP2 MSTORE PUSH1 0x20 ADD PUSH1 0x1 DUP3 ADD SLOAD DUP2 MSTORE PUSH1 0x20 ADD PUSH1 0x2 DUP3 ADD PUSH1 0x0 SWAP1 SLOAD SWAP1 PUSH2 0x100 EXP SWAP1 DIV PUSH20 0xFFFFFFFFFFFFFFFFFFFFFFFFFFFFFFFFFFFFFFFF AND PUSH20 0xFFFFFFFFFFFFFFFFFFFFFFFFFFFFFFFFFFFFFFFF AND PUSH20 0xFFFFFFFFFFFFFFFFFFFFFFFFFFFFFFFFFFFFFFFF AND DUP2 MSTORE PUSH1 0x20 ADD PUSH1 0x2 DUP3 ADD PUSH1 0x14 SWAP1 SLOAD SWAP1 PUSH2 0x100 EXP SWAP1 DIV PUSH1 0xFF AND PUSH1 0x6 DUP2 GT ISZERO PUSH2 0x907 JUMPI PUSH32 0x4E487B7100000000000000000000000000000000000000000000000000000000 PUSH1 0x0 MSTORE PUSH1 0x21 PUSH1 0x4 MSTORE PUSH1 0x24 PUSH1 0x0 REVERT JUMPDEST PUSH1 0x6 DUP2 GT ISZERO PUSH2 0x93F JUMPI PUSH32 0x4E487B7100000000000000000000000000000000000000000000000000000000 PUSH1 0x0 MSTORE PUSH1 0x21 PUSH1 0x4 MSTORE PUSH1 0x24 PUSH1 0x0 REVERT JUMPDEST DUP2 MSTORE PUSH1 0x20 ADD PUSH1 0x3 DUP3 ADD SLOAD DUP2 MSTORE POP POP DUP2 PUSH1 0x20 ADD DUP2 SWAP1 MSTORE POP DUP1 PUSH1 0x6 PUSH1 0x0 PUSH1 0x5 SLOAD DUP2 MSTORE PUSH1 0x20 ADD SWAP1 DUP2 MSTORE PUSH1 0x20 ADD PUSH1 0x0 KECCAK256 PUSH1 0x0 DUP3 ADD MLOAD DUP2 PUSH1 0x0 ADD SSTORE PUSH1 0x20 DUP3 ADD MLOAD DUP2 PUSH1 0x1 ADD PUSH1 0x0 DUP3 ADD MLOAD DUP2 PUSH1 0x0 ADD SWAP1 DUP1 MLOAD SWAP1 PUSH1 0x20 ADD SWAP1 PUSH2 0x99A SWAP3 SWAP2 SWAP1 PUSH2 0x1BD6 JUMP JUMPDEST POP PUSH1 0x20 DUP3 ADD MLOAD DUP2 PUSH1 0x1 ADD SSTORE PUSH1 0x40 DUP3 ADD MLOAD DUP2 PUSH1 0x2 ADD PUSH1 0x0 PUSH2 0x100 EXP DUP2 SLOAD DUP2 PUSH20 0xFFFFFFFFFFFFFFFFFFFFFFFFFFFFFFFFFFFFFFFF MUL NOT AND SWAP1 DUP4 PUSH20 0xFFFFFFFFFFFFFFFFFFFFFFFFFFFFFFFFFFFFFFFF AND MUL OR SWAP1 SSTORE POP PUSH1 0x60 DUP3 ADD MLOAD DUP2 PUSH1 0x2 ADD PUSH1 0x14 PUSH2 0x100 EXP DUP2 SLOAD DUP2 PUSH1 0xFF MUL NOT AND SWAP1 DUP4 PUSH1 0x6 DUP2 GT ISZERO PUSH2 0xA3D JUMPI PUSH32 0x4E487B7100000000000000000000000000000000000000000000000000000000 PUSH1 0x0 MSTORE PUSH1 0x21 PUSH1 0x4 MSTORE PUSH1 0x24 PUSH1 0x0 REVERT JUMPDEST MUL OR SWAP1 SSTORE POP PUSH1 0x80 DUP3 ADD MLOAD DUP2 PUSH1 0x3 ADD SSTORE POP POP PUSH1 0x40 DUP3 ADD MLOAD DUP2 PUSH1 0x5 ADD PUSH1 0x0 PUSH2 0x100 EXP DUP2 SLOAD DUP2 PUSH20 0xFFFFFFFFFFFFFFFFFFFFFFFFFFFFFFFFFFFFFFFF MUL NOT AND SWAP1 DUP4 PUSH20 0xFFFFFFFFFFFFFFFFFFFFFFFFFFFFFFFFFFFFFFFF AND MUL OR SWAP1 SSTORE POP PUSH1 0x60 DUP3 ADD MLOAD DUP2 PUSH1 0x5 ADD PUSH1 0x14 PUSH2 0x100 EXP DUP2 SLOAD DUP2 PUSH1 0xFF MUL NOT AND SWAP1 DUP4 PUSH1 0x2 DUP2 GT ISZERO PUSH2 0xAE6 JUMPI PUSH32 0x4E487B7100000000000000000000000000000000000000000000000000000000 PUSH1 0x0 MSTORE PUSH1 0x21 PUSH1 0x4 MSTORE PUSH1 0x24 PUSH1 0x0 REVERT JUMPDEST MUL OR SWAP1 SSTORE POP SWAP1 POP POP PUSH32 0xEF7B116480495AD6B1C6479820E4A0140E78DE3846E138C5D055AD601408725E DUP5 CALLER PUSH1 0x40 MLOAD PUSH2 0xB1F SWAP3 SWAP2 SWAP1 PUSH2 0x2389 JUMP JUMPDEST PUSH1 0x40 MLOAD DUP1 SWAP2 SUB SWAP1 LOG1 PUSH1 0x1 PUSH1 0x5 SLOAD PUSH2 0xB36 SWAP2 SWAP1 PUSH2 0x2440 JUMP JUMPDEST PUSH1 0x5 DUP2 SWAP1 SSTORE POP POP POP POP POP JUMP JUMPDEST PUSH2 0xB4A PUSH2 0x1B59 JUMP JUMPDEST DUP2 DUP2 PUSH1 0x0 ADD DUP2 SWAP1 MSTORE POP PUSH1 0x2 SLOAD DUP2 PUSH1 0x20 ADD DUP2 DUP2 MSTORE POP POP PUSH1 0x0 DUP2 PUSH1 0x80 ADD DUP2 DUP2 MSTORE POP POP PUSH1 0x1 DUP2 PUSH1 0x40 ADD SWAP1 PUSH1 0x3 DUP2 GT ISZERO PUSH2 0xBA9 JUMPI PUSH32 0x4E487B7100000000000000000000000000000000000000000000000000000000 PUSH1 0x0 MSTORE PUSH1 0x21 PUSH1 0x4 MSTORE PUSH1 0x24 PUSH1 0x0 REVERT JUMPDEST SWAP1 DUP2 PUSH1 0x3 DUP2 GT ISZERO PUSH2 0xBE3 JUMPI PUSH32 0x4E487B7100000000000000000000000000000000000000000000000000000000 PUSH1 0x0 MSTORE PUSH1 0x21 PUSH1 0x4 MSTORE PUSH1 0x24 PUSH1 0x0 REVERT JUMPDEST DUP2 MSTORE POP POP CALLER DUP2 PUSH1 0x60 ADD SWAP1 PUSH20 0xFFFFFFFFFFFFFFFFFFFFFFFFFFFFFFFFFFFFFFFF AND SWAP1 DUP2 PUSH20 0xFFFFFFFFFFFFFFFFFFFFFFFFFFFFFFFFFFFFFFFF AND DUP2 MSTORE POP POP DUP1 PUSH1 0x3 PUSH1 0x0 PUSH1 0x2 SLOAD DUP2 MSTORE PUSH1 0x20 ADD SWAP1 DUP2 MSTORE PUSH1 0x20 ADD PUSH1 0x0 KECCAK256 PUSH1 0x0 DUP3 ADD MLOAD DUP2 PUSH1 0x0 ADD SWAP1 DUP1 MLOAD SWAP1 PUSH1 0x20 ADD SWAP1 PUSH2 0xC51 SWAP3 SWAP2 SWAP1 PUSH2 0x1BD6 JUMP JUMPDEST POP PUSH1 0x20 DUP3 ADD MLOAD DUP2 PUSH1 0x1 ADD SSTORE PUSH1 0x40 DUP3 ADD MLOAD DUP2 PUSH1 0x2 ADD PUSH1 0x0 PUSH2 0x100 EXP DUP2 SLOAD DUP2 PUSH1 0xFF MUL NOT AND SWAP1 DUP4 PUSH1 0x3 DUP2 GT ISZERO PUSH2 0xCAD JUMPI PUSH32 0x4E487B7100000000000000000000000000000000000000000000000000000000 PUSH1 0x0 MSTORE PUSH1 0x21 PUSH1 0x4 MSTORE PUSH1 0x24 PUSH1 0x0 REVERT JUMPDEST MUL OR SWAP1 SSTORE POP PUSH1 0x60 DUP3 ADD MLOAD DUP2 PUSH1 0x2 ADD PUSH1 0x1 PUSH2 0x100 EXP DUP2 SLOAD DUP2 PUSH20 0xFFFFFFFFFFFFFFFFFFFFFFFFFFFFFFFFFFFFFFFF MUL NOT AND SWAP1 DUP4 PUSH20 0xFFFFFFFFFFFFFFFFFFFFFFFFFFFFFFFFFFFFFFFF AND MUL OR SWAP1 SSTORE POP PUSH1 0x80 DUP3 ADD MLOAD DUP2 PUSH1 0x3 ADD SSTORE SWAP1 POP POP DUP1 PUSH1 0x4 PUSH1 0x0 CALLER PUSH20 0xFFFFFFFFFFFFFFFFFFFFFFFFFFFFFFFFFFFFFFFF AND PUSH20 0xFFFFFFFFFFFFFFFFFFFFFFFFFFFFFFFFFFFFFFFF AND DUP2 MSTORE PUSH1 0x20 ADD SWAP1 DUP2 MSTORE PUSH1 0x20 ADD PUSH1 0x0 KECCAK256 PUSH1 0x0 DUP3 ADD MLOAD DUP2 PUSH1 0x0 ADD SWAP1 DUP1 MLOAD SWAP1 PUSH1 0x20 ADD SWAP1 PUSH2 0xD62 SWAP3 SWAP2 SWAP1 PUSH2 0x1BD6 JUMP JUMPDEST POP PUSH1 0x20 DUP3 ADD MLOAD DUP2 PUSH1 0x1 ADD SSTORE PUSH1 0x40 DUP3 ADD MLOAD DUP2 PUSH1 0x2 ADD PUSH1 0x0 PUSH2 0x100 EXP DUP2 SLOAD DUP2 PUSH1 0xFF MUL NOT AND SWAP1 DUP4 PUSH1 0x3 DUP2 GT ISZERO PUSH2 0xDBE JUMPI PUSH32 0x4E487B7100000000000000000000000000000000000000000000000000000000 PUSH1 0x0 MSTORE PUSH1 0x21 PUSH1 0x4 MSTORE PUSH1 0x24 PUSH1 0x0 REVERT JUMPDEST MUL OR SWAP1 SSTORE POP PUSH1 0x60 DUP3 ADD MLOAD DUP2 PUSH1 0x2 ADD PUSH1 0x1 PUSH2 0x100 EXP DUP2 SLOAD DUP2 PUSH20 0xFFFFFFFFFFFFFFFFFFFFFFFFFFFFFFFFFFFFFFFF MUL NOT AND SWAP1 DUP4 PUSH20 0xFFFFFFFFFFFFFFFFFFFFFFFFFFFFFFFFFFFFFFFF AND MUL OR SWAP1 SSTORE POP PUSH1 0x80 DUP3 ADD MLOAD DUP2 PUSH1 0x3 ADD SSTORE SWAP1 POP POP PUSH1 0x1 PUSH1 0x2 SLOAD PUSH2 0xE26 SWAP2 SWAP1 PUSH2 0x2440 JUMP JUMPDEST PUSH1 0x2 DUP2 SWAP1 SSTORE POP POP POP JUMP JUMPDEST PUSH1 0x3 PUSH1 0x20 MSTORE DUP1 PUSH1 0x0 MSTORE PUSH1 0x40 PUSH1 0x0 KECCAK256 PUSH1 0x0 SWAP2 POP SWAP1 POP DUP1 PUSH1 0x0 ADD DUP1 SLOAD PUSH2 0xE53 SWAP1 PUSH2 0x255E JUMP JUMPDEST DUP1 PUSH1 0x1F ADD PUSH1 0x20 DUP1 SWAP2 DIV MUL PUSH1 0x20 ADD PUSH1 0x40 MLOAD SWAP1 DUP2 ADD PUSH1 0x40 MSTORE DUP1 SWAP3 SWAP2 SWAP1 DUP2 DUP2 MSTORE PUSH1 0x20 ADD DUP3 DUP1 SLOAD PUSH2 0xE7F SWAP1 PUSH2 0x255E JUMP JUMPDEST DUP1 ISZERO PUSH2 0xECC JUMPI DUP1 PUSH1 0x1F LT PUSH2 0xEA1 JUMPI PUSH2 0x100 DUP1 DUP4 SLOAD DIV MUL DUP4 MSTORE SWAP2 PUSH1 0x20 ADD SWAP2 PUSH2 0xECC JUMP JUMPDEST DUP3 ADD SWAP2 SWAP1 PUSH1 0x0 MSTORE PUSH1 0x20 PUSH1 0x0 KECCAK256 SWAP1 JUMPDEST DUP2 SLOAD DUP2 MSTORE SWAP1 PUSH1 0x1 ADD SWAP1 PUSH1 0x20 ADD DUP1 DUP4 GT PUSH2 0xEAF JUMPI DUP3 SWAP1 SUB PUSH1 0x1F AND DUP3 ADD SWAP2 JUMPDEST POP POP POP POP POP SWAP1 DUP1 PUSH1 0x1 ADD SLOAD SWAP1 DUP1 PUSH1 0x2 ADD PUSH1 0x0 SWAP1 SLOAD SWAP1 PUSH2 0x100 EXP SWAP1 DIV PUSH1 0xFF AND SWAP1 DUP1 PUSH1 0x2 ADD PUSH1 0x1 SWAP1 SLOAD SWAP1 PUSH2 0x100 EXP SWAP1 DIV PUSH20 0xFFFFFFFFFFFFFFFFFFFFFFFFFFFFFFFFFFFFFFFF AND SWAP1 DUP1 PUSH1 0x3 ADD SLOAD SWAP1 POP DUP6 JUMP JUMPDEST PUSH2 0xF23 PUSH2 0x1CD8 JUMP JUMPDEST PUSH1 0x1 PUSH1 0x0 DUP4 DUP2 MSTORE PUSH1 0x20 ADD SWAP1 DUP2 MSTORE PUSH1 0x20 ADD PUSH1 0x0 KECCAK256 PUSH1 0x40 MLOAD DUP1 PUSH1 0xA0 ADD PUSH1 0x40 MSTORE SWAP1 DUP2 PUSH1 0x0 DUP3 ADD DUP1 SLOAD PUSH2 0xF51 SWAP1 PUSH2 0x255E JUMP JUMPDEST DUP1 PUSH1 0x1F ADD PUSH1 0x20 DUP1 SWAP2 DIV MUL PUSH1 0x20 ADD PUSH1 0x40 MLOAD SWAP1 DUP2 ADD PUSH1 0x40 MSTORE DUP1 SWAP3 SWAP2 SWAP1 DUP2 DUP2 MSTORE PUSH1 0x20 ADD DUP3 DUP1 SLOAD PUSH2 0xF7D SWAP1 PUSH2 0x255E JUMP JUMPDEST DUP1 ISZERO PUSH2 0xFCA JUMPI DUP1 PUSH1 0x1F LT PUSH2 0xF9F JUMPI PUSH2 0x100 DUP1 DUP4 SLOAD DIV MUL DUP4 MSTORE SWAP2 PUSH1 0x20 ADD SWAP2 PUSH2 0xFCA JUMP JUMPDEST DUP3 ADD SWAP2 SWAP1 PUSH1 0x0 MSTORE PUSH1 0x20 PUSH1 0x0 KECCAK256 SWAP1 JUMPDEST DUP2 SLOAD DUP2 MSTORE SWAP1 PUSH1 0x1 ADD SWAP1 PUSH1 0x20 ADD DUP1 DUP4 GT PUSH2 0xFAD JUMPI DUP3 SWAP1 SUB PUSH1 0x1F AND DUP3 ADD SWAP2 JUMPDEST POP POP POP POP POP DUP2 MSTORE PUSH1 0x20 ADD PUSH1 0x1 DUP3 ADD SLOAD DUP2 MSTORE PUSH1 0x20 ADD PUSH1 0x2 DUP3 ADD PUSH1 0x0 SWAP1 SLOAD SWAP1 PUSH2 0x100 EXP SWAP1 DIV PUSH20 0xFFFFFFFFFFFFFFFFFFFFFFFFFFFFFFFFFFFFFFFF AND PUSH20 0xFFFFFFFFFFFFFFFFFFFFFFFFFFFFFFFFFFFFFFFF AND PUSH20 0xFFFFFFFFFFFFFFFFFFFFFFFFFFFFFFFFFFFFFFFF AND DUP2 MSTORE PUSH1 0x20 ADD PUSH1 0x2 DUP3 ADD PUSH1 0x14 SWAP1 SLOAD SWAP1 PUSH2 0x100 EXP SWAP1 DIV PUSH1 0xFF AND PUSH1 0x6 DUP2 GT ISZERO PUSH2 0x107E JUMPI PUSH32 0x4E487B7100000000000000000000000000000000000000000000000000000000 PUSH1 0x0 MSTORE PUSH1 0x21 PUSH1 0x4 MSTORE PUSH1 0x24 PUSH1 0x0 REVERT JUMPDEST PUSH1 0x6 DUP2 GT ISZERO PUSH2 0x10B6 JUMPI PUSH32 0x4E487B7100000000000000000000000000000000000000000000000000000000 PUSH1 0x0 MSTORE PUSH1 0x21 PUSH1 0x4 MSTORE PUSH1 0x24 PUSH1 0x0 REVERT JUMPDEST DUP2 MSTORE PUSH1 0x20 ADD PUSH1 0x3 DUP3 ADD SLOAD DUP2 MSTORE POP POP SWAP1 POP SWAP2 SWAP1 POP JUMP JUMPDEST DUP2 CALLER PUSH20 0xFFFFFFFFFFFFFFFFFFFFFFFFFFFFFFFFFFFFFFFF AND PUSH1 0x1 PUSH1 0x0 DUP4 DUP2 MSTORE PUSH1 0x20 ADD SWAP1 DUP2 MSTORE PUSH1 0x20 ADD PUSH1 0x0 KECCAK256 PUSH1 0x2 ADD PUSH1 0x0 SWAP1 SLOAD SWAP1 PUSH2 0x100 EXP SWAP1 DIV PUSH20 0xFFFFFFFFFFFFFFFFFFFFFFFFFFFFFFFFFFFFFFFF AND PUSH20 0xFFFFFFFFFFFFFFFFFFFFFFFFFFFFFFFFFFFFFFFF AND EQ PUSH2 0x1170 JUMPI PUSH1 0x40 MLOAD PUSH32 0x8C379A000000000000000000000000000000000000000000000000000000000 DUP2 MSTORE PUSH1 0x4 ADD PUSH2 0x1167 SWAP1 PUSH2 0x230A JUMP JUMPDEST PUSH1 0x40 MLOAD DUP1 SWAP2 SUB SWAP1 REVERT JUMPDEST PUSH1 0x3 PUSH1 0x1 PUSH1 0x0 DUP6 DUP2 MSTORE PUSH1 0x20 ADD SWAP1 DUP2 MSTORE PUSH1 0x20 ADD PUSH1 0x0 KECCAK256 PUSH1 0x2 ADD PUSH1 0x14 PUSH2 0x100 EXP DUP2 SLOAD DUP2 PUSH1 0xFF MUL NOT AND SWAP1 DUP4 PUSH1 0x6 DUP2 GT ISZERO PUSH2 0x11D0 JUMPI PUSH32 0x4E487B7100000000000000000000000000000000000000000000000000000000 PUSH1 0x0 MSTORE PUSH1 0x21 PUSH1 0x4 MSTORE PUSH1 0x24 PUSH1 0x0 REVERT JUMPDEST MUL OR SWAP1 SSTORE POP PUSH32 0x45AF58AAF003AC2EC2AD90282F8D3D79EDE476B3E19183ACB4ABDEBF6553B6A9 DUP4 DUP4 PUSH1 0x40 MLOAD PUSH2 0x1206 SWAP3 SWAP2 SWAP1 PUSH2 0x2389 JUMP JUMPDEST PUSH1 0x40 MLOAD DUP1 SWAP2 SUB SWAP1 LOG1 POP POP POP JUMP JUMPDEST PUSH2 0x121B PUSH2 0x1B59 JUMP JUMPDEST PUSH1 0x3 PUSH1 0x0 DUP4 DUP2 MSTORE PUSH1 0x20 ADD SWAP1 DUP2 MSTORE PUSH1 0x20 ADD PUSH1 0x0 KECCAK256 PUSH1 0x40 MLOAD DUP1 PUSH1 0xA0 ADD PUSH1 0x40 MSTORE SWAP1 DUP2 PUSH1 0x0 DUP3 ADD DUP1 SLOAD PUSH2 0x1249 SWAP1 PUSH2 0x255E JUMP JUMPDEST DUP1 PUSH1 0x1F ADD PUSH1 0x20 DUP1 SWAP2 DIV MUL PUSH1 0x20 ADD PUSH1 0x40 MLOAD SWAP1 DUP2 ADD PUSH1 0x40 MSTORE DUP1 SWAP3 SWAP2 SWAP1 DUP2 DUP2 MSTORE PUSH1 0x20 ADD DUP3 DUP1 SLOAD PUSH2 0x1275 SWAP1 PUSH2 0x255E JUMP JUMPDEST DUP1 ISZERO PUSH2 0x12C2 JUMPI DUP1 PUSH1 0x1F LT PUSH2 0x1297 JUMPI PUSH2 0x100 DUP1 DUP4 SLOAD DIV MUL DUP4 MSTORE SWAP2 PUSH1 0x20 ADD SWAP2 PUSH2 0x12C2 JUMP JUMPDEST DUP3 ADD SWAP2 SWAP1 PUSH1 0x0 MSTORE PUSH1 0x20 PUSH1 0x0 KECCAK256 SWAP1 JUMPDEST DUP2 SLOAD DUP2 MSTORE SWAP1 PUSH1 0x1 ADD SWAP1 PUSH1 0x20 ADD DUP1 DUP4 GT PUSH2 0x12A5 JUMPI DUP3 SWAP1 SUB PUSH1 0x1F AND DUP3 ADD SWAP2 JUMPDEST POP POP POP POP POP DUP2 MSTORE PUSH1 0x20 ADD PUSH1 0x1 DUP3 ADD SLOAD DUP2 MSTORE PUSH1 0x20 ADD PUSH1 0x2 DUP3 ADD PUSH1 0x0 SWAP1 SLOAD SWAP1 PUSH2 0x100 EXP SWAP1 DIV PUSH1 0xFF AND PUSH1 0x3 DUP2 GT ISZERO PUSH2 0x1320 JUMPI PUSH32 0x4E487B7100000000000000000000000000000000000000000000000000000000 PUSH1 0x0 MSTORE PUSH1 0x21 PUSH1 0x4 MSTORE PUSH1 0x24 PUSH1 0x0 REVERT JUMPDEST PUSH1 0x3 DUP2 GT ISZERO PUSH2 0x1358 JUMPI PUSH32 0x4E487B7100000000000000000000000000000000000000000000000000000000 PUSH1 0x0 MSTORE PUSH1 0x21 PUSH1 0x4 MSTORE PUSH1 0x24 PUSH1 0x0 REVERT JUMPDEST DUP2 MSTORE PUSH1 0x20 ADD PUSH1 0x2 DUP3 ADD PUSH1 0x1 SWAP1 SLOAD SWAP1 PUSH2 0x100 EXP SWAP1 DIV PUSH20 0xFFFFFFFFFFFFFFFFFFFFFFFFFFFFFFFFFFFFFFFF AND PUSH20 0xFFFFFFFFFFFFFFFFFFFFFFFFFFFFFFFFFFFFFFFF AND PUSH20 0xFFFFFFFFFFFFFFFFFFFFFFFFFFFFFFFFFFFFFFFF AND DUP2 MSTORE PUSH1 0x20 ADD PUSH1 0x3 DUP3 ADD SLOAD DUP2 MSTORE POP POP SWAP1 POP SWAP2 SWAP1 POP JUMP JUMPDEST CALLER PUSH1 0x0 PUSH1 0x3 DUP2 GT ISZERO PUSH2 0x13FE JUMPI PUSH32 0x4E487B7100000000000000000000000000000000000000000000000000000000 PUSH1 0x0 MSTORE PUSH1 0x21 PUSH1 0x4 MSTORE PUSH1 0x24 PUSH1 0x0 REVERT JUMPDEST PUSH1 0x4 PUSH1 0x0 DUP4 PUSH20 0xFFFFFFFFFFFFFFFFFFFFFFFFFFFFFFFFFFFFFFFF AND PUSH20 0xFFFFFFFFFFFFFFFFFFFFFFFFFFFFFFFFFFFFFFFF AND DUP2 MSTORE PUSH1 0x20 ADD SWAP1 DUP2 MSTORE PUSH1 0x20 ADD PUSH1 0x0 KECCAK256 PUSH1 0x2 ADD PUSH1 0x0 SWAP1 SLOAD SWAP1 PUSH2 0x100 EXP SWAP1 DIV PUSH1 0xFF AND PUSH1 0x3 DUP2 GT ISZERO PUSH2 0x1486 JUMPI PUSH32 0x4E487B7100000000000000000000000000000000000000000000000000000000 PUSH1 0x0 MSTORE PUSH1 0x21 PUSH1 0x4 MSTORE PUSH1 0x24 PUSH1 0x0 REVERT JUMPDEST EQ PUSH2 0x14C6 JUMPI PUSH1 0x40 MLOAD PUSH32 0x8C379A000000000000000000000000000000000000000000000000000000000 DUP2 MSTORE PUSH1 0x4 ADD PUSH2 0x14BD SWAP1 PUSH2 0x22CA JUMP JUMPDEST PUSH1 0x40 MLOAD DUP1 SWAP2 SUB SWAP1 REVERT JUMPDEST PUSH2 0x14CE PUSH2 0x1CD8 JUMP JUMPDEST DUP4 DUP2 PUSH1 0x0 ADD DUP2 SWAP1 MSTORE POP PUSH1 0x0 SLOAD DUP2 PUSH1 0x20 ADD DUP2 DUP2 MSTORE POP POP CALLER DUP2 PUSH1 0x40 ADD SWAP1 PUSH20 0xFFFFFFFFFFFFFFFFFFFFFFFFFFFFFFFFFFFFFFFF AND SWAP1 DUP2 PUSH20 0xFFFFFFFFFFFFFFFFFFFFFFFFFFFFFFFFFFFFFFFF AND DUP2 MSTORE POP POP PUSH1 0x0 DUP2 PUSH1 0x60 ADD SWAP1 PUSH1 0x6 DUP2 GT ISZERO PUSH2 0x155A JUMPI PUSH32 0x4E487B7100000000000000000000000000000000000000000000000000000000 PUSH1 0x0 MSTORE PUSH1 0x21 PUSH1 0x4 MSTORE PUSH1 0x24 PUSH1 0x0 REVERT JUMPDEST SWAP1 DUP2 PUSH1 0x6 DUP2 GT ISZERO PUSH2 0x1594 JUMPI PUSH32 0x4E487B7100000000000000000000000000000000000000000000000000000000 PUSH1 0x0 MSTORE PUSH1 0x21 PUSH1 0x4 MSTORE PUSH1 0x24 PUSH1 0x0 REVERT JUMPDEST DUP2 MSTORE POP POP DUP1 PUSH1 0x1 PUSH1 0x0 DUP1 SLOAD DUP2 MSTORE PUSH1 0x20 ADD SWAP1 DUP2 MSTORE PUSH1 0x20 ADD PUSH1 0x0 KECCAK256 PUSH1 0x0 DUP3 ADD MLOAD DUP2 PUSH1 0x0 ADD SWAP1 DUP1 MLOAD SWAP1 PUSH1 0x20 ADD SWAP1 PUSH2 0x15C9 SWAP3 SWAP2 SWAP1 PUSH2 0x1BD6 JUMP JUMPDEST POP PUSH1 0x20 DUP3 ADD MLOAD DUP2 PUSH1 0x1 ADD SSTORE PUSH1 0x40 DUP3 ADD MLOAD DUP2 PUSH1 0x2 ADD PUSH1 0x0 PUSH2 0x100 EXP DUP2 SLOAD DUP2 PUSH20 0xFFFFFFFFFFFFFFFFFFFFFFFFFFFFFFFFFFFFFFFF MUL NOT AND SWAP1 DUP4 PUSH20 0xFFFFFFFFFFFFFFFFFFFFFFFFFFFFFFFFFFFFFFFF AND MUL OR SWAP1 SSTORE POP PUSH1 0x60 DUP3 ADD MLOAD DUP2 PUSH1 0x2 ADD PUSH1 0x14 PUSH2 0x100 EXP DUP2 SLOAD DUP2 PUSH1 0xFF MUL NOT AND SWAP1 DUP4 PUSH1 0x6 DUP2 GT ISZERO PUSH2 0x166C JUMPI PUSH32 0x4E487B7100000000000000000000000000000000000000000000000000000000 PUSH1 0x0 MSTORE PUSH1 0x21 PUSH1 0x4 MSTORE PUSH1 0x24 PUSH1 0x0 REVERT JUMPDEST MUL OR SWAP1 SSTORE POP PUSH1 0x80 DUP3 ADD MLOAD DUP2 PUSH1 0x3 ADD SSTORE SWAP1 POP POP PUSH32 0x4E95503BF2C40739506D6F0AFB0FE6BE42CE748D90F3F516386892FB6096E5BC PUSH1 0x0 SLOAD CALLER PUSH1 0x40 MLOAD PUSH2 0x16B1 SWAP3 SWAP2 SWAP1 PUSH2 0x2389 JUMP JUMPDEST PUSH1 0x40 MLOAD DUP1 SWAP2 SUB SWAP1 LOG1 PUSH1 0x1 PUSH1 0x0 SLOAD PUSH2 0x16C8 SWAP2 SWAP1 PUSH2 0x2440 JUMP JUMPDEST PUSH1 0x0 DUP2 SWAP1 SSTORE POP POP POP POP POP JUMP JUMPDEST PUSH1 0x7 PUSH1 0x0 SWAP1 SLOAD SWAP1 PUSH2 0x100 EXP SWAP1 DIV PUSH20 0xFFFFFFFFFFFFFFFFFFFFFFFFFFFFFFFFFFFFFFFF AND DUP2 JUMP JUMPDEST PUSH2 0x1702 PUSH2 0x1B59 JUMP JUMPDEST DUP2 DUP2 PUSH1 0x0 ADD DUP2 SWAP1 MSTORE POP PUSH1 0x2 SLOAD DUP2 PUSH1 0x20 ADD DUP2 DUP2 MSTORE POP POP PUSH1 0x0 DUP2 PUSH1 0x80 ADD DUP2 DUP2 MSTORE POP POP PUSH1 0x3 DUP2 PUSH1 0x40 ADD SWAP1 PUSH1 0x3 DUP2 GT ISZERO PUSH2 0x1761 JUMPI PUSH32 0x4E487B7100000000000000000000000000000000000000000000000000000000 PUSH1 0x0 MSTORE PUSH1 0x21 PUSH1 0x4 MSTORE PUSH1 0x24 PUSH1 0x0 REVERT JUMPDEST SWAP1 DUP2 PUSH1 0x3 DUP2 GT ISZERO PUSH2 0x179B JUMPI PUSH32 0x4E487B7100000000000000000000000000000000000000000000000000000000 PUSH1 0x0 MSTORE PUSH1 0x21 PUSH1 0x4 MSTORE PUSH1 0x24 PUSH1 0x0 REVERT JUMPDEST DUP2 MSTORE POP POP CALLER DUP2 PUSH1 0x60 ADD SWAP1 PUSH20 0xFFFFFFFFFFFFFFFFFFFFFFFFFFFFFFFFFFFFFFFF AND SWAP1 DUP2 PUSH20 0xFFFFFFFFFFFFFFFFFFFFFFFFFFFFFFFFFFFFFFFF AND DUP2 MSTORE POP POP DUP1 PUSH1 0x3 PUSH1 0x0 PUSH1 0x2 SLOAD DUP2 MSTORE PUSH1 0x20 ADD SWAP1 DUP2 MSTORE PUSH1 0x20 ADD PUSH1 0x0 KECCAK256 PUSH1 0x0 DUP3 ADD MLOAD DUP2 PUSH1 0x0 ADD SWAP1 DUP1 MLOAD SWAP1 PUSH1 0x20 ADD SWAP1 PUSH2 0x1809 SWAP3 SWAP2 SWAP1 PUSH2 0x1BD6 JUMP JUMPDEST POP PUSH1 0x20 DUP3 ADD MLOAD DUP2 PUSH1 0x1 ADD SSTORE PUSH1 0x40 DUP3 ADD MLOAD DUP2 PUSH1 0x2 ADD PUSH1 0x0 PUSH2 0x100 EXP DUP2 SLOAD DUP2 PUSH1 0xFF MUL NOT AND SWAP1 DUP4 PUSH1 0x3 DUP2 GT ISZERO PUSH2 0x1865 JUMPI PUSH32 0x4E487B7100000000000000000000000000000000000000000000000000000000 PUSH1 0x0 MSTORE PUSH1 0x21 PUSH1 0x4 MSTORE PUSH1 0x24 PUSH1 0x0 REVERT JUMPDEST MUL OR SWAP1 SSTORE POP PUSH1 0x60 DUP3 ADD MLOAD DUP2 PUSH1 0x2 ADD PUSH1 0x1 PUSH2 0x100 EXP DUP2 SLOAD DUP2 PUSH20 0xFFFFFFFFFFFFFFFFFFFFFFFFFFFFFFFFFFFFFFFF MUL NOT AND SWAP1 DUP4 PUSH20 0xFFFFFFFFFFFFFFFFFFFFFFFFFFFFFFFFFFFFFFFF AND MUL OR SWAP1 SSTORE POP PUSH1 0x80 DUP3 ADD MLOAD DUP2 PUSH1 0x3 ADD SSTORE SWAP1 POP POP DUP1 PUSH1 0x4 PUSH1 0x0 CALLER PUSH20 0xFFFFFFFFFFFFFFFFFFFFFFFFFFFFFFFFFFFFFFFF AND PUSH20 0xFFFFFFFFFFFFFFFFFFFFFFFFFFFFFFFFFFFFFFFF AND DUP2 MSTORE PUSH1 0x20 ADD SWAP1 DUP2 MSTORE PUSH1 0x20 ADD PUSH1 0x0 KECCAK256 PUSH1 0x0 DUP3 ADD MLOAD DUP2 PUSH1 0x0 ADD SWAP1 DUP1 MLOAD SWAP1 PUSH1 0x20 ADD SWAP1 PUSH2 0x191A SWAP3 SWAP2 SWAP1 PUSH2 0x1BD6 JUMP JUMPDEST POP PUSH1 0x20 DUP3 ADD MLOAD DUP2 PUSH1 0x1 ADD SSTORE PUSH1 0x40 DUP3 ADD MLOAD DUP2 PUSH1 0x2 ADD PUSH1 0x0 PUSH2 0x100 EXP DUP2 SLOAD DUP2 PUSH1 0xFF MUL NOT AND SWAP1 DUP4 PUSH1 0x3 DUP2 GT ISZERO PUSH2 0x1976 JUMPI PUSH32 0x4E487B7100000000000000000000000000000000000000000000000000000000 PUSH1 0x0 MSTORE PUSH1 0x21 PUSH1 0x4 MSTORE PUSH1 0x24 PUSH1 0x0 REVERT JUMPDEST MUL OR SWAP1 SSTORE POP PUSH1 0x60 DUP3 ADD MLOAD DUP2 PUSH1 0x2 ADD PUSH1 0x1 PUSH2 0x100 EXP DUP2 SLOAD DUP2 PUSH20 0xFFFFFFFFFFFFFFFFFFFFFFFFFFFFFFFFFFFFFFFF MUL NOT AND SWAP1 DUP4 PUSH20 0xFFFFFFFFFFFFFFFFFFFFFFFFFFFFFFFFFFFFFFFF AND MUL OR SWAP1 SSTORE POP PUSH1 0x80 DUP3 ADD MLOAD DUP2 PUSH1 0x3 ADD SSTORE SWAP1 POP POP PUSH1 0x1 PUSH1 0x2 SLOAD PUSH2 0x19DE SWAP2 SWAP1 PUSH2 0x2440 JUMP JUMPDEST PUSH1 0x2 DUP2 SWAP1 SSTORE POP POP POP JUMP JUMPDEST PUSH1 0x0 PUSH1 0x1 PUSH1 0x0 DUP4 DUP2 MSTORE PUSH1 0x20 ADD SWAP1 DUP2 MSTORE PUSH1 0x20 ADD PUSH1 0x0 KECCAK256 PUSH1 0x2 ADD PUSH1 0x14 SWAP1 SLOAD SWAP1 PUSH2 0x100 EXP SWAP1 DIV PUSH1 0xFF AND SWAP1 POP SWAP2 SWAP1 POP JUMP JUMPDEST DUP1 CALLER PUSH20 0xFFFFFFFFFFFFFFFFFFFFFFFFFFFFFFFFFFFFFFFF AND PUSH1 0x1 PUSH1 0x0 DUP4 DUP2 MSTORE PUSH1 0x20 ADD SWAP1 DUP2 MSTORE PUSH1 0x20 ADD PUSH1 0x0 KECCAK256 PUSH1 0x2 ADD PUSH1 0x0 SWAP1 SLOAD SWAP1 PUSH2 0x100 EXP SWAP1 DIV PUSH20 0xFFFFFFFFFFFFFFFFFFFFFFFFFFFFFFFFFFFFFFFF AND PUSH20 0xFFFFFFFFFFFFFFFFFFFFFFFFFFFFFFFFFFFFFFFF AND EQ PUSH2 0x1ABA JUMPI PUSH1 0x40 MLOAD PUSH32 0x8C379A000000000000000000000000000000000000000000000000000000000 DUP2 MSTORE PUSH1 0x4 ADD PUSH2 0x1AB1 SWAP1 PUSH2 0x230A JUMP JUMPDEST PUSH1 0x40 MLOAD DUP1 SWAP2 SUB SWAP1 REVERT JUMPDEST PUSH1 0x1 DUP1 PUSH1 0x0 DUP5 DUP2 MSTORE PUSH1 0x20 ADD SWAP1 DUP2 MSTORE PUSH1 0x20 ADD PUSH1 0x0 KECCAK256 PUSH1 0x2 ADD PUSH1 0x14 PUSH2 0x100 EXP DUP2 SLOAD DUP2 PUSH1 0xFF MUL NOT AND SWAP1 DUP4 PUSH1 0x6 DUP2 GT ISZERO PUSH2 0x1B19 JUMPI PUSH32 0x4E487B7100000000000000000000000000000000000000000000000000000000 PUSH1 0x0 MSTORE PUSH1 0x21 PUSH1 0x4 MSTORE PUSH1 0x24 PUSH1 0x0 REVERT JUMPDEST MUL OR SWAP1 SSTORE POP PUSH32 0x15F51416BF6F180A7F06AB542B87DACC1363E503B8DF75D711F9AAEDC5C48A70 DUP3 PUSH1 0x40 MLOAD PUSH2 0x1B4D SWAP2 SWAP1 PUSH2 0x236E JUMP JUMPDEST PUSH1 0x40 MLOAD DUP1 SWAP2 SUB SWAP1 LOG1 POP POP JUMP JUMPDEST PUSH1 0x40 MLOAD DUP1 PUSH1 0xA0 ADD PUSH1 0x40 MSTORE DUP1 PUSH1 0x60 DUP2 MSTORE PUSH1 0x20 ADD PUSH1 0x0 DUP2 MSTORE PUSH1 0x20 ADD PUSH1 0x0 PUSH1 0x3 DUP2 GT ISZERO PUSH2 0x1BAC JUMPI PUSH32 0x4E487B7100000000000000000000000000000000000000000000000000000000 PUSH1 0x0 MSTORE PUSH1 0x21 PUSH1 0x4 MSTORE PUSH1 0x24 PUSH1 0x0 REVERT JUMPDEST DUP2 MSTORE PUSH1 0x20 ADD PUSH1 0x0 PUSH20 0xFFFFFFFFFFFFFFFFFFFFFFFFFFFFFFFFFFFFFFFF AND DUP2 MSTORE PUSH1 0x20 ADD PUSH1 0x0 DUP2 MSTORE POP SWAP1 JUMP JUMPDEST DUP3 DUP1 SLOAD PUSH2 0x1BE2 SWAP1 PUSH2 0x255E JUMP JUMPDEST SWAP1 PUSH1 0x0 MSTORE PUSH1 0x20 PUSH1 0x0 KECCAK256 SWAP1 PUSH1 0x1F ADD PUSH1 0x20 SWAP1 DIV DUP2 ADD SWAP3 DUP3 PUSH2 0x1C04 JUMPI PUSH1 0x0 DUP6 SSTORE PUSH2 0x1C4B JUMP JUMPDEST DUP3 PUSH1 0x1F LT PUSH2 0x1C1D JUMPI DUP1 MLOAD PUSH1 0xFF NOT AND DUP4 DUP1 ADD OR DUP6 SSTORE PUSH2 0x1C4B JUMP JUMPDEST DUP3 DUP1 ADD PUSH1 0x1 ADD DUP6 SSTORE DUP3 ISZERO PUSH2 0x1C4B JUMPI SWAP2 DUP3 ADD JUMPDEST DUP3 DUP2 GT ISZERO PUSH2 0x1C4A JUMPI DUP3 MLOAD DUP3 SSTORE SWAP2 PUSH1 0x20 ADD SWAP2 SWAP1 PUSH1 0x1 ADD SWAP1 PUSH2 0x1C2F JUMP JUMPDEST JUMPDEST POP SWAP1 POP PUSH2 0x1C58 SWAP2 SWAP1 PUSH2 0x1D55 JUMP JUMPDEST POP SWAP1 JUMP JUMPDEST PUSH1 0x40 MLOAD DUP1 PUSH1 0x80 ADD PUSH1 0x40 MSTORE DUP1 PUSH1 0x0 DUP2 MSTORE PUSH1 0x20 ADD PUSH2 0x1C76 PUSH2 0x1CD8 JUMP JUMPDEST DUP2 MSTORE PUSH1 0x20 ADD PUSH1 0x0 PUSH20 0xFFFFFFFFFFFFFFFFFFFFFFFFFFFFFFFFFFFFFFFF AND DUP2 MSTORE PUSH1 0x20 ADD PUSH1 0x0 PUSH1 0x2 DUP2 GT ISZERO PUSH2 0x1CD2 JUMPI PUSH32 0x4E487B7100000000000000000000000000000000000000000000000000000000 PUSH1 0x0 MSTORE PUSH1 0x21 PUSH1 0x4 MSTORE PUSH1 0x24 PUSH1 0x0 REVERT JUMPDEST DUP2 MSTORE POP SWAP1 JUMP JUMPDEST PUSH1 0x40 MLOAD DUP1 PUSH1 0xA0 ADD PUSH1 0x40 MSTORE DUP1 PUSH1 0x60 DUP2 MSTORE PUSH1 0x20 ADD PUSH1 0x0 DUP2 MSTORE PUSH1 0x20 ADD PUSH1 0x0 PUSH20 0xFFFFFFFFFFFFFFFFFFFFFFFFFFFFFFFFFFFFFFFF AND DUP2 MSTORE PUSH1 0x20 ADD PUSH1 0x0 PUSH1 0x6 DUP2 GT ISZERO PUSH2 0x1D48 JUMPI PUSH32 0x4E487B7100000000000000000000000000000000000000000000000000000000 PUSH1 0x0 MSTORE PUSH1 0x21 PUSH1 0x4 MSTORE PUSH1 0x24 PUSH1 0x0 REVERT JUMPDEST DUP2 MSTORE PUSH1 0x20 ADD PUSH1 0x0 DUP2 MSTORE POP SWAP1 JUMP JUMPDEST JUMPDEST DUP1 DUP3 GT ISZERO PUSH2 0x1D6E JUMPI PUSH1 0x0 DUP2 PUSH1 0x0 SWAP1 SSTORE POP PUSH1 0x1 ADD PUSH2 0x1D56 JUMP JUMPDEST POP SWAP1 JUMP JUMPDEST PUSH1 0x0 PUSH2 0x1D85 PUSH2 0x1D80 DUP5 PUSH2 0x23E3 JUMP JUMPDEST PUSH2 0x23B2 JUMP JUMPDEST SWAP1 POP DUP3 DUP2 MSTORE PUSH1 0x20 DUP2 ADD DUP5 DUP5 DUP5 ADD GT ISZERO PUSH2 0x1D9D JUMPI PUSH1 0x0 DUP1 REVERT JUMPDEST PUSH2 0x1DA8 DUP5 DUP3 DUP6 PUSH2 0x251C JUMP JUMPDEST POP SWAP4 SWAP3 POP POP POP JUMP JUMPDEST PUSH1 0x0 DUP2 CALLDATALOAD SWAP1 POP PUSH2 0x1DBF DUP2 PUSH2 0x2685 JUMP JUMPDEST SWAP3 SWAP2 POP POP JUMP JUMPDEST PUSH1 0x0 DUP3 PUSH1 0x1F DUP4 ADD SLT PUSH2 0x1DD6 JUMPI PUSH1 0x0 DUP1 REVERT JUMPDEST DUP2 CALLDATALOAD PUSH2 0x1DE6 DUP5 DUP3 PUSH1 0x20 DUP7 ADD PUSH2 0x1D72 JUMP JUMPDEST SWAP2 POP POP SWAP3 SWAP2 POP POP JUMP JUMPDEST PUSH1 0x0 DUP2 CALLDATALOAD SWAP1 POP PUSH2 0x1DFE DUP2 PUSH2 0x269C JUMP JUMPDEST SWAP3 SWAP2 POP POP JUMP JUMPDEST PUSH1 0x0 PUSH1 0x20 DUP3 DUP5 SUB SLT ISZERO PUSH2 0x1E16 JUMPI PUSH1 0x0 DUP1 REVERT JUMPDEST PUSH1 0x0 DUP3 ADD CALLDATALOAD PUSH8 0xFFFFFFFFFFFFFFFF DUP2 GT ISZERO PUSH2 0x1E30 JUMPI PUSH1 0x0 DUP1 REVERT JUMPDEST PUSH2 0x1E3C DUP5 DUP3 DUP6 ADD PUSH2 0x1DC5 JUMP JUMPDEST SWAP2 POP POP SWAP3 SWAP2 POP POP JUMP JUMPDEST PUSH1 0x0 DUP1 PUSH1 0x40 DUP4 DUP6 SUB SLT ISZERO PUSH2 0x1E58 JUMPI PUSH1 0x0 DUP1 REVERT JUMPDEST PUSH1 0x0 DUP4 ADD CALLDATALOAD PUSH8 0xFFFFFFFFFFFFFFFF DUP2 GT ISZERO PUSH2 0x1E72 JUMPI PUSH1 0x0 DUP1 REVERT JUMPDEST PUSH2 0x1E7E DUP6 DUP3 DUP7 ADD PUSH2 0x1DC5 JUMP JUMPDEST SWAP3 POP POP PUSH1 0x20 PUSH2 0x1E8F DUP6 DUP3 DUP7 ADD PUSH2 0x1DEF JUMP JUMPDEST SWAP2 POP POP SWAP3 POP SWAP3 SWAP1 POP JUMP JUMPDEST PUSH1 0x0 PUSH1 0x20 DUP3 DUP5 SUB SLT ISZERO PUSH2 0x1EAB JUMPI PUSH1 0x0 DUP1 REVERT JUMPDEST PUSH1 0x0 PUSH2 0x1EB9 DUP5 DUP3 DUP6 ADD PUSH2 0x1DEF JUMP JUMPDEST SWAP2 POP POP SWAP3 SWAP2 POP POP JUMP JUMPDEST PUSH1 0x0 DUP1 PUSH1 0x40 DUP4 DUP6 SUB SLT ISZERO PUSH2 0x1ED5 JUMPI PUSH1 0x0 DUP1 REVERT JUMPDEST PUSH1 0x0 PUSH2 0x1EE3 DUP6 DUP3 DUP7 ADD PUSH2 0x1DEF JUMP JUMPDEST SWAP3 POP POP PUSH1 0x20 PUSH2 0x1EF4 DUP6 DUP3 DUP7 ADD PUSH2 0x1DB0 JUMP JUMPDEST SWAP2 POP POP SWAP3 POP SWAP3 SWAP1 POP JUMP JUMPDEST PUSH2 0x1F07 DUP2 PUSH2 0x2496 JUMP JUMPDEST DUP3 MSTORE POP POP JUMP JUMPDEST PUSH2 0x1F16 DUP2 PUSH2 0x2496 JUMP JUMPDEST DUP3 MSTORE POP POP JUMP JUMPDEST PUSH2 0x1F25 DUP2 PUSH2 0x24F8 JUMP JUMPDEST DUP3 MSTORE POP POP JUMP JUMPDEST PUSH2 0x1F34 DUP2 PUSH2 0x24F8 JUMP JUMPDEST DUP3 MSTORE POP POP JUMP JUMPDEST PUSH2 0x1F43 DUP2 PUSH2 0x250A JUMP JUMPDEST DUP3 MSTORE POP POP JUMP JUMPDEST PUSH2 0x1F52 DUP2 PUSH2 0x250A JUMP JUMPDEST DUP3 MSTORE POP POP JUMP JUMPDEST PUSH1 0x0 PUSH2 0x1F63 DUP3 PUSH2 0x2413 JUMP JUMPDEST PUSH2 0x1F6D DUP2 DUP6 PUSH2 0x241E JUMP JUMPDEST SWAP4 POP PUSH2 0x1F7D DUP2 DUP6 PUSH1 0x20 DUP7 ADD PUSH2 0x252B JUMP JUMPDEST PUSH2 0x1F86 DUP2 PUSH2 0x264C JUMP JUMPDEST DUP5 ADD SWAP2 POP POP SWAP3 SWAP2 POP POP JUMP JUMPDEST PUSH1 0x0 PUSH2 0x1F9C DUP3 PUSH2 0x2413 JUMP JUMPDEST PUSH2 0x1FA6 DUP2 DUP6 PUSH2 0x242F JUMP JUMPDEST SWAP4 POP PUSH2 0x1FB6 DUP2 DUP6 PUSH1 0x20 DUP7 ADD PUSH2 0x252B JUMP JUMPDEST PUSH2 0x1FBF DUP2 PUSH2 0x264C JUMP JUMPDEST DUP5 ADD SWAP2 POP POP SWAP3 SWAP2 POP POP JUMP JUMPDEST PUSH1 0x0 PUSH2 0x1FD7 PUSH1 0x1A DUP4 PUSH2 0x242F JUMP JUMPDEST SWAP2 POP PUSH32 0x796F752063616E6E6F7420616464206E65772070726F64756374000000000000 PUSH1 0x0 DUP4 ADD MSTORE PUSH1 0x20 DUP3 ADD SWAP1 POP SWAP2 SWAP1 POP JUMP JUMPDEST PUSH1 0x0 PUSH2 0x2017 PUSH1 0x2D DUP4 PUSH2 0x242F JUMP JUMPDEST SWAP2 POP PUSH32 0x796F7520646F6E74206861766520656E6F756768206D6F6E657920746F206275 PUSH1 0x0 DUP4 ADD MSTORE PUSH32 0x79207468652070726F6475637400000000000000000000000000000000000000 PUSH1 0x20 DUP4 ADD MSTORE PUSH1 0x40 DUP3 ADD SWAP1 POP SWAP2 SWAP1 POP JUMP JUMPDEST PUSH1 0x0 PUSH2 0x207D PUSH1 0x21 DUP4 PUSH2 0x242F JUMP JUMPDEST SWAP2 POP PUSH32 0x796F7520617265206E6F74206F776E6572206F6620746869732070726F647563 PUSH1 0x0 DUP4 ADD MSTORE PUSH32 0x7400000000000000000000000000000000000000000000000000000000000000 PUSH1 0x20 DUP4 ADD MSTORE PUSH1 0x40 DUP3 ADD SWAP1 POP SWAP2 SWAP1 POP JUMP JUMPDEST PUSH1 0x0 PUSH1 0xA0 DUP4 ADD PUSH1 0x0 DUP4 ADD MLOAD DUP5 DUP3 SUB PUSH1 0x0 DUP7 ADD MSTORE PUSH2 0x20F3 DUP3 DUP3 PUSH2 0x1F58 JUMP JUMPDEST SWAP2 POP POP PUSH1 0x20 DUP4 ADD MLOAD PUSH2 0x2108 PUSH1 0x20 DUP7 ADD DUP3 PUSH2 0x21C2 JUMP JUMPDEST POP PUSH1 0x40 DUP4 ADD MLOAD PUSH2 0x211B PUSH1 0x40 DUP7 ADD DUP3 PUSH2 0x1EFE JUMP JUMPDEST POP PUSH1 0x60 DUP4 ADD MLOAD PUSH2 0x212E PUSH1 0x60 DUP7 ADD DUP3 PUSH2 0x1F1C JUMP JUMPDEST POP PUSH1 0x80 DUP4 ADD MLOAD PUSH2 0x2141 PUSH1 0x80 DUP7 ADD DUP3 PUSH2 0x21C2 JUMP JUMPDEST POP DUP1 SWAP2 POP POP SWAP3 SWAP2 POP POP JUMP JUMPDEST PUSH1 0x0 PUSH1 0xA0 DUP4 ADD PUSH1 0x0 DUP4 ADD MLOAD DUP5 DUP3 SUB PUSH1 0x0 DUP7 ADD MSTORE PUSH2 0x2169 DUP3 DUP3 PUSH2 0x1F58 JUMP JUMPDEST SWAP2 POP POP PUSH1 0x20 DUP4 ADD MLOAD PUSH2 0x217E PUSH1 0x20 DUP7 ADD DUP3 PUSH2 0x21C2 JUMP JUMPDEST POP PUSH1 0x40 DUP4 ADD MLOAD PUSH2 0x2191 PUSH1 0x40 DUP7 ADD DUP3 PUSH2 0x1F3A JUMP JUMPDEST POP PUSH1 0x60 DUP4 ADD MLOAD PUSH2 0x21A4 PUSH1 0x60 DUP7 ADD DUP3 PUSH2 0x1EFE JUMP JUMPDEST POP PUSH1 0x80 DUP4 ADD MLOAD PUSH2 0x21B7 PUSH1 0x80 DUP7 ADD DUP3 PUSH2 0x21C2 JUMP JUMPDEST POP DUP1 SWAP2 POP POP SWAP3 SWAP2 POP POP JUMP JUMPDEST PUSH2 0x21CB DUP2 PUSH2 0x24EE JUMP JUMPDEST DUP3 MSTORE POP POP JUMP JUMPDEST PUSH2 0x21DA DUP2 PUSH2 0x24EE JUMP JUMPDEST DUP3 MSTORE POP POP JUMP JUMPDEST PUSH1 0x0 PUSH1 0x20 DUP3 ADD SWAP1 POP PUSH2 0x21F5 PUSH1 0x0 DUP4 ADD DUP5 PUSH2 0x1F0D JUMP JUMPDEST SWAP3 SWAP2 POP POP JUMP JUMPDEST PUSH1 0x0 PUSH1 0x20 DUP3 ADD SWAP1 POP PUSH2 0x2210 PUSH1 0x0 DUP4 ADD DUP5 PUSH2 0x1F2B JUMP JUMPDEST SWAP3 SWAP2 POP POP JUMP JUMPDEST PUSH1 0x0 PUSH1 0xA0 DUP3 ADD SWAP1 POP DUP2 DUP2 SUB PUSH1 0x0 DUP4 ADD MSTORE PUSH2 0x2230 DUP2 DUP9 PUSH2 0x1F91 JUMP JUMPDEST SWAP1 POP PUSH2 0x223F PUSH1 0x20 DUP4 ADD DUP8 PUSH2 0x21D1 JUMP JUMPDEST PUSH2 0x224C PUSH1 0x40 DUP4 ADD DUP7 PUSH2 0x1F0D JUMP JUMPDEST PUSH2 0x2259 PUSH1 0x60 DUP4 ADD DUP6 PUSH2 0x1F2B JUMP JUMPDEST PUSH2 0x2266 PUSH1 0x80 DUP4 ADD DUP5 PUSH2 0x21D1 JUMP JUMPDEST SWAP7 SWAP6 POP POP POP POP POP POP JUMP JUMPDEST PUSH1 0x0 PUSH1 0xA0 DUP3 ADD SWAP1 POP DUP2 DUP2 SUB PUSH1 0x0 DUP4 ADD MSTORE PUSH2 0x228A DUP2 DUP9 PUSH2 0x1F91 JUMP JUMPDEST SWAP1 POP PUSH2 0x2299 PUSH1 0x20 DUP4 ADD DUP8 PUSH2 0x21D1 JUMP JUMPDEST PUSH2 0x22A6 PUSH1 0x40 DUP4 ADD DUP7 PUSH2 0x1F49 JUMP JUMPDEST PUSH2 0x22B3 PUSH1 0x60 DUP4 ADD DUP6 PUSH2 0x1F0D JUMP JUMPDEST PUSH2 0x22C0 PUSH1 0x80 DUP4 ADD DUP5 PUSH2 0x21D1 JUMP JUMPDEST SWAP7 SWAP6 POP POP POP POP POP POP JUMP JUMPDEST PUSH1 0x0 PUSH1 0x20 DUP3 ADD SWAP1 POP DUP2 DUP2 SUB PUSH1 0x0 DUP4 ADD MSTORE PUSH2 0x22E3 DUP2 PUSH2 0x1FCA JUMP JUMPDEST SWAP1 POP SWAP2 SWAP1 POP JUMP JUMPDEST PUSH1 0x0 PUSH1 0x20 DUP3 ADD SWAP1 POP DUP2 DUP2 SUB PUSH1 0x0 DUP4 ADD MSTORE PUSH2 0x2303 DUP2 PUSH2 0x200A JUMP JUMPDEST SWAP1 POP SWAP2 SWAP1 POP JUMP JUMPDEST PUSH1 0x0 PUSH1 0x20 DUP3 ADD SWAP1 POP DUP2 DUP2 SUB PUSH1 0x0 DUP4 ADD MSTORE PUSH2 0x2323 DUP2 PUSH2 0x2070 JUMP JUMPDEST SWAP1 POP SWAP2 SWAP1 POP JUMP JUMPDEST PUSH1 0x0 PUSH1 0x20 DUP3 ADD SWAP1 POP DUP2 DUP2 SUB PUSH1 0x0 DUP4 ADD MSTORE PUSH2 0x2344 DUP2 DUP5 PUSH2 0x20D6 JUMP JUMPDEST SWAP1 POP SWAP3 SWAP2 POP POP JUMP JUMPDEST PUSH1 0x0 PUSH1 0x20 DUP3 ADD SWAP1 POP DUP2 DUP2 SUB PUSH1 0x0 DUP4 ADD MSTORE PUSH2 0x2366 DUP2 DUP5 PUSH2 0x214C JUMP JUMPDEST SWAP1 POP SWAP3 SWAP2 POP POP JUMP JUMPDEST PUSH1 0x0 PUSH1 0x20 DUP3 ADD SWAP1 POP PUSH2 0x2383 PUSH1 0x0 DUP4 ADD DUP5 PUSH2 0x21D1 JUMP JUMPDEST SWAP3 SWAP2 POP POP JUMP JUMPDEST PUSH1 0x0 PUSH1 0x40 DUP3 ADD SWAP1 POP PUSH2 0x239E PUSH1 0x0 DUP4 ADD DUP6 PUSH2 0x21D1 JUMP JUMPDEST PUSH2 0x23AB PUSH1 0x20 DUP4 ADD DUP5 PUSH2 0x1F0D JUMP JUMPDEST SWAP4 SWAP3 POP POP POP JUMP JUMPDEST PUSH1 0x0 PUSH1 0x40 MLOAD SWAP1 POP DUP2 DUP2 ADD DUP2 DUP2 LT PUSH8 0xFFFFFFFFFFFFFFFF DUP3 GT OR ISZERO PUSH2 0x23D9 JUMPI PUSH2 0x23D8 PUSH2 0x261D JUMP JUMPDEST JUMPDEST DUP1 PUSH1 0x40 MSTORE POP SWAP2 SWAP1 POP JUMP JUMPDEST PUSH1 0x0 PUSH8 0xFFFFFFFFFFFFFFFF DUP3 GT ISZERO PUSH2 0x23FE JUMPI PUSH2 0x23FD PUSH2 0x261D JUMP JUMPDEST JUMPDEST PUSH1 0x1F NOT PUSH1 0x1F DUP4 ADD AND SWAP1 POP PUSH1 0x20 DUP2 ADD SWAP1 POP SWAP2 SWAP1 POP JUMP JUMPDEST PUSH1 0x0 DUP2 MLOAD SWAP1 POP SWAP2 SWAP1 POP JUMP JUMPDEST PUSH1 0x0 DUP3 DUP3 MSTORE PUSH1 0x20 DUP3 ADD SWAP1 POP SWAP3 SWAP2 POP POP JUMP JUMPDEST PUSH1 0x0 DUP3 DUP3 MSTORE PUSH1 0x20 DUP3 ADD SWAP1 POP SWAP3 SWAP2 POP POP JUMP JUMPDEST PUSH1 0x0 PUSH2 0x244B DUP3 PUSH2 0x24EE JUMP JUMPDEST SWAP2 POP PUSH2 0x2456 DUP4 PUSH2 0x24EE JUMP JUMPDEST SWAP3 POP DUP3 PUSH32 0xFFFFFFFFFFFFFFFFFFFFFFFFFFFFFFFFFFFFFFFFFFFFFFFFFFFFFFFFFFFFFFFF SUB DUP3 GT ISZERO PUSH2 0x248B JUMPI PUSH2 0x248A PUSH2 0x2590 JUMP JUMPDEST JUMPDEST DUP3 DUP3 ADD SWAP1 POP SWAP3 SWAP2 POP POP JUMP JUMPDEST PUSH1 0x0 PUSH2 0x24A1 DUP3 PUSH2 0x24CE JUMP JUMPDEST SWAP1 POP SWAP2 SWAP1 POP JUMP JUMPDEST PUSH1 0x0 DUP2 SWAP1 POP PUSH2 0x24B6 DUP3 PUSH2 0x265D JUMP JUMPDEST SWAP2 SWAP1 POP JUMP JUMPDEST PUSH1 0x0 DUP2 SWAP1 POP PUSH2 0x24C9 DUP3 PUSH2 0x2671 JUMP JUMPDEST SWAP2 SWAP1 POP JUMP JUMPDEST PUSH1 0x0 PUSH20 0xFFFFFFFFFFFFFFFFFFFFFFFFFFFFFFFFFFFFFFFF DUP3 AND SWAP1 POP SWAP2 SWAP1 POP JUMP JUMPDEST PUSH1 0x0 DUP2 SWAP1 POP SWAP2 SWAP1 POP JUMP JUMPDEST PUSH1 0x0 PUSH2 0x2503 DUP3 PUSH2 0x24A8 JUMP JUMPDEST SWAP1 POP SWAP2 SWAP1 POP JUMP JUMPDEST PUSH1 0x0 PUSH2 0x2515 DUP3 PUSH2 0x24BB JUMP JUMPDEST SWAP1 POP SWAP2 SWAP1 POP JUMP JUMPDEST DUP3 DUP2 DUP4 CALLDATACOPY PUSH1 0x0 DUP4 DUP4 ADD MSTORE POP POP POP JUMP JUMPDEST PUSH1 0x0 JUMPDEST DUP4 DUP2 LT ISZERO PUSH2 0x2549 JUMPI DUP1 DUP3 ADD MLOAD DUP2 DUP5 ADD MSTORE PUSH1 0x20 DUP2 ADD SWAP1 POP PUSH2 0x252E JUMP JUMPDEST DUP4 DUP2 GT ISZERO PUSH2 0x2558 JUMPI PUSH1 0x0 DUP5 DUP5 ADD MSTORE JUMPDEST POP POP POP POP JUMP JUMPDEST PUSH1 0x0 PUSH1 0x2 DUP3 DIV SWAP1 POP PUSH1 0x1 DUP3 AND DUP1 PUSH2 0x2576 JUMPI PUSH1 0x7F DUP3 AND SWAP2 POP JUMPDEST PUSH1 0x20 DUP3 LT DUP2 EQ ISZERO PUSH2 0x258A JUMPI PUSH2 0x2589 PUSH2 0x25EE JUMP JUMPDEST JUMPDEST POP SWAP2 SWAP1 POP JUMP JUMPDEST PUSH32 0x4E487B7100000000000000000000000000000000000000000000000000000000 PUSH1 0x0 MSTORE PUSH1 0x11 PUSH1 0x4 MSTORE PUSH1 0x24 PUSH1 0x0 REVERT JUMPDEST PUSH32 0x4E487B7100000000000000000000000000000000000000000000000000000000 PUSH1 0x0 MSTORE PUSH1 0x21 PUSH1 0x4 MSTORE PUSH1 0x24 PUSH1 0x0 REVERT JUMPDEST PUSH32 0x4E487B7100000000000000000000000000000000000000000000000000000000 PUSH1 0x0 MSTORE PUSH1 0x22 PUSH1 0x4 MSTORE PUSH1 0x24 PUSH1 0x0 REVERT JUMPDEST PUSH32 0x4E487B7100000000000000000000000000000000000000000000000000000000 PUSH1 0x0 MSTORE PUSH1 0x41 PUSH1 0x4 MSTORE PUSH1 0x24 PUSH1 0x0 REVERT JUMPDEST PUSH1 0x0 PUSH1 0x1F NOT PUSH1 0x1F DUP4 ADD AND SWAP1 POP SWAP2 SWAP1 POP JUMP JUMPDEST PUSH1 0x7 DUP2 LT PUSH2 0x266E JUMPI PUSH2 0x266D PUSH2 0x25BF JUMP JUMPDEST JUMPDEST POP JUMP JUMPDEST PUSH1 0x4 DUP2 LT PUSH2 0x2682 JUMPI PUSH2 0x2681 PUSH2 0x25BF JUMP JUMPDEST JUMPDEST POP JUMP JUMPDEST PUSH2 0x268E DUP2 PUSH2 0x2496 JUMP JUMPDEST DUP2 EQ PUSH2 0x2699 JUMPI PUSH1 0x0 DUP1 REVERT JUMPDEST POP JUMP JUMPDEST PUSH2 0x26A5 DUP2 PUSH2 0x24EE JUMP JUMPDEST DUP2 EQ PUSH2 0x26B0 JUMPI PUSH1 0x0 DUP1 REVERT JUMPDEST POP JUMP INVALID LOG2 PUSH5 0x6970667358 0x22 SLT KECCAK256 0xD6 0xF6 MLOAD 0xCB 0x5E PUSH11 0xC34C412C749FD6F25B750F 0x4E 0xDE 0xCD 0x5E CALL 0xEA 0xC4 CALLVALUE RETURN BLOCKHASH STOP 0x2F EXP 0xE9 MOD PUSH5 0x736F6C6343 STOP ADDMOD STOP STOP CALLER "
				},
				"gasEstimates": {
					"creation": {
						"codeDepositCost": "1992200",
						"executionCost": "37997",
						"totalCost": "2030197"
					},
					"external": {
						"Items(uint256)": "infinite",
						"addItem(string,uint256)": "infinite",
						"addManufacturer(string)": "infinite",
						"addSupplier(string)": "infinite",
						"addtransporter(string)": "infinite",
						"avaliableforsale(uint256)": "infinite",
						"currentState(uint256)": "1733",
						"order(uint256)": "infinite",
						"owner()": "1236",
						"participants(uint256)": "infinite",
						"personDetail(uint256)": "infinite",
						"productDetail(uint256)": "infinite",
						"ship_product(uint256,address)": "infinite"
					}
				},
				"methodIdentifiers": {
					"Items(uint256)": "17b47cc4",
					"addItem(string,uint256)": "62d6bbdf",
					"addManufacturer(string)": "8f5ae799",
					"addSupplier(string)": "15533a27",
					"addtransporter(string)": "2fa5ad1a",
					"avaliableforsale(uint256)": "d3de074c",
					"currentState(uint256)": "b57c7609",
					"order(uint256)": "21603f43",
					"owner()": "8da5cb5b",
					"participants(uint256)": "35c1d349",
					"personDetail(uint256)": "54a153e9",
					"productDetail(uint256)": "42f35885",
					"ship_product(uint256,address)": "43c4c53e"
				}
			},
			"userdoc": {
				"kind": "user",
				"methods": {},
				"version": 1
			}
		}
	}
}