{
	"contracts/main.sol": {
		"Supplychain": {
			"abi": [
				{
					"anonymous": false,
					"inputs": [
						{
							"indexed": false,
							"internalType": "uint256",
							"name": "upc",
							"type": "uint256"
						}
					],
					"name": "checked",
					"type": "event"
				},
				{
					"anonymous": false,
					"inputs": [
						{
							"indexed": false,
							"internalType": "uint256",
							"name": "upc",
							"type": "uint256"
						},
						{
							"indexed": false,
							"internalType": "address",
							"name": "_address",
							"type": "address"
						}
					],
					"name": "itemcreated",
					"type": "event"
				},
				{
					"anonymous": false,
					"inputs": [
						{
							"indexed": false,
							"internalType": "uint256",
							"name": "upc",
							"type": "uint256"
						}
					],
					"name": "openForSale",
					"type": "event"
				},
				{
					"anonymous": false,
					"inputs": [
						{
							"indexed": false,
							"internalType": "uint256",
							"name": "upc",
							"type": "uint256"
						},
						{
							"indexed": false,
							"internalType": "address",
							"name": "_address",
							"type": "address"
						}
					],
					"name": "orderPlaced",
					"type": "event"
				},
				{
					"anonymous": false,
					"inputs": [
						{
							"indexed": false,
							"internalType": "uint256",
							"name": "upc",
							"type": "uint256"
						},
						{
							"indexed": false,
							"internalType": "address",
							"name": "_address",
							"type": "address"
						}
					],
					"name": "received",
					"type": "event"
				},
				{
					"anonymous": false,
					"inputs": [
						{
							"indexed": false,
							"internalType": "uint256",
							"name": "upc",
							"type": "uint256"
						},
						{
							"indexed": false,
							"internalType": "address",
							"name": "_address",
							"type": "address"
						}
					],
					"name": "shipped",
					"type": "event"
				},
				{
					"inputs": [
						{
							"internalType": "uint256",
							"name": "",
							"type": "uint256"
						}
					],
					"name": "Items",
					"outputs": [
						{
							"internalType": "string",
							"name": "product_name",
							"type": "string"
						},
						{
							"internalType": "uint256",
							"name": "productId",
							"type": "uint256"
						},
						{
							"internalType": "address",
							"name": "itemOwner",
							"type": "address"
						},
						{
							"internalType": "enum Item.state",
							"name": "productState",
							"type": "uint8"
						},
						{
							"internalType": "uint256",
							"name": "cost",
							"type": "uint256"
						}
					],
					"stateMutability": "view",
					"type": "function"
				},
				{
					"inputs": [
						{
							"internalType": "string",
							"name": "_product_name",
							"type": "string"
						},
						{
							"internalType": "uint256",
							"name": "cost",
							"type": "uint256"
						}
					],
					"name": "addItem",
					"outputs": [],
					"stateMutability": "nonpayable",
					"type": "function"
				},
				{
					"inputs": [
						{
							"internalType": "string",
							"name": "_uname",
							"type": "string"
						}
					],
					"name": "addManufacturer",
					"outputs": [],
					"stateMutability": "nonpayable",
					"type": "function"
				},
				{
					"inputs": [
						{
							"internalType": "string",
							"name": "_uname",
							"type": "string"
						}
					],
					"name": "addSupplier",
					"outputs": [],
					"stateMutability": "nonpayable",
					"type": "function"
				},
				{
					"inputs": [
						{
							"internalType": "string",
							"name": "_uname",
							"type": "string"
						}
					],
					"name": "addtransporter",
					"outputs": [],
					"stateMutability": "nonpayable",
					"type": "function"
				},
				{
					"inputs": [
						{
							"internalType": "uint256",
							"name": "_id",
							"type": "uint256"
						}
					],
					"name": "avaliableforsale",
					"outputs": [],
					"stateMutability": "nonpayable",
					"type": "function"
				},
				{
					"inputs": [
						{
							"internalType": "uint256",
							"name": "_id",
							"type": "uint256"
						}
					],
					"name": "order",
					"outputs": [],
					"stateMutability": "nonpayable",
					"type": "function"
				},
				{
					"inputs": [],
					"name": "owner",
					"outputs": [
						{
							"internalType": "address",
							"name": "",
							"type": "address"
						}
					],
					"stateMutability": "view",
					"type": "function"
				},
				{
					"inputs": [
						{
							"internalType": "uint256",
							"name": "",
							"type": "uint256"
						}
					],
					"name": "participants",
					"outputs": [
						{
							"internalType": "string",
							"name": "username",
							"type": "string"
						},
						{
							"internalType": "uint256",
							"name": "userId",
							"type": "uint256"
						},
						{
							"internalType": "enum participant.user_type",
							"name": "utype",
							"type": "uint8"
						},
						{
							"internalType": "address",
							"name": "user_address",
							"type": "address"
						},
						{
							"internalType": "uint256",
							"name": "money",
							"type": "uint256"
						}
					],
					"stateMutability": "view",
					"type": "function"
				},
				{
					"inputs": [
						{
							"internalType": "uint256",
							"name": "_id",
							"type": "uint256"
						}
					],
					"name": "personDetail",
					"outputs": [
						{
							"components": [
								{
									"internalType": "string",
									"name": "username",
									"type": "string"
								},
								{
									"internalType": "uint256",
									"name": "userId",
									"type": "uint256"
								},
								{
									"internalType": "enum participant.user_type",
									"name": "utype",
									"type": "uint8"
								},
								{
									"internalType": "address",
									"name": "user_address",
									"type": "address"
								},
								{
									"internalType": "uint256",
									"name": "money",
									"type": "uint256"
								}
							],
							"internalType": "struct participant.participant",
							"name": "",
							"type": "tuple"
						}
					],
					"stateMutability": "view",
					"type": "function"
				},
				{
					"inputs": [
						{
							"internalType": "uint256",
							"name": "_id",
							"type": "uint256"
						}
					],
					"name": "productDetail",
					"outputs": [
						{
							"components": [
								{
									"internalType": "string",
									"name": "product_name",
									"type": "string"
								},
								{
									"internalType": "uint256",
									"name": "productId",
									"type": "uint256"
								},
								{
									"internalType": "address",
									"name": "itemOwner",
									"type": "address"
								},
								{
									"internalType": "enum Item.state",
									"name": "productState",
									"type": "uint8"
								},
								{
									"internalType": "uint256",
									"name": "cost",
									"type": "uint256"
								}
							],
							"internalType": "struct Item.item",
							"name": "",
							"type": "tuple"
						}
					],
					"stateMutability": "view",
					"type": "function"
				},
				{
					"inputs": [
						{
							"internalType": "uint256",
							"name": "_id",
							"type": "uint256"
						},
						{
							"internalType": "address",
							"name": "_transporter_address",
							"type": "address"
						}
					],
					"name": "ship_product",
					"outputs": [],
					"stateMutability": "nonpayable",
					"type": "function"
				}
			],
			"devdoc": {
				"kind": "dev",
				"methods": {},
				"version": 1
			},
			"evm": {
				"assembly": "    /* \"contracts/main.sol\":103:2846  contract Supplychain is  Modifier{\r... */\n  mstore(0x40, 0x80)\n    /* \"contracts/item.sol\":54:55  0 */\n  0x00\n    /* \"contracts/item.sol\":46:55  uint ic=0 */\n  dup1\n  sstore\n    /* \"contracts/member.sol\":62:63  0 */\n  0x00\n    /* \"contracts/member.sol\":54:63  uint pc=0 */\n  0x02\n  sstore\n    /* \"contracts/main.sol\":103:2846  contract Supplychain is  Modifier{\r... */\n  callvalue\n  dup1\n  iszero\n  tag_1\n  jumpi\n  0x00\n  dup1\n  revert\ntag_1:\n  pop\n    /* \"contracts/modifier.sol\":189:199  msg.sender */\n  caller\n    /* \"contracts/modifier.sol\":181:186  owner */\n  0x05\n  0x00\n    /* \"contracts/modifier.sol\":181:199  owner = msg.sender */\n  0x0100\n  exp\n  dup2\n  sload\n  dup2\n  0xffffffffffffffffffffffffffffffffffffffff\n  mul\n  not\n  and\n  swap1\n  dup4\n  0xffffffffffffffffffffffffffffffffffffffff\n  and\n  mul\n  or\n  swap1\n  sstore\n  pop\n    /* \"contracts/main.sol\":103:2846  contract Supplychain is  Modifier{\r... */\n  dataSize(sub_0)\n  dup1\n  dataOffset(sub_0)\n  0x00\n  codecopy\n  0x00\n  return\nstop\n\nsub_0: assembly {\n        /* \"contracts/main.sol\":103:2846  contract Supplychain is  Modifier{\r... */\n      mstore(0x40, 0x80)\n      callvalue\n      dup1\n      iszero\n      tag_1\n      jumpi\n      0x00\n      dup1\n      revert\n    tag_1:\n      pop\n      jumpi(tag_2, lt(calldatasize, 0x04))\n      shr(0xe0, calldataload(0x00))\n      dup1\n      0x43c4c53e\n      gt\n      tag_15\n      jumpi\n      dup1\n      0x43c4c53e\n      eq\n      tag_9\n      jumpi\n      dup1\n      0x54a153e9\n      eq\n      tag_10\n      jumpi\n      dup1\n      0x62d6bbdf\n      eq\n      tag_11\n      jumpi\n      dup1\n      0x8da5cb5b\n      eq\n      tag_12\n      jumpi\n      dup1\n      0x8f5ae799\n      eq\n      tag_13\n      jumpi\n      dup1\n      0xd3de074c\n      eq\n      tag_14\n      jumpi\n      jump(tag_2)\n    tag_15:\n      dup1\n      0x15533a27\n      eq\n      tag_3\n      jumpi\n      dup1\n      0x17b47cc4\n      eq\n      tag_4\n      jumpi\n      dup1\n      0x21603f43\n      eq\n      tag_5\n      jumpi\n      dup1\n      0x2fa5ad1a\n      eq\n      tag_6\n      jumpi\n      dup1\n      0x35c1d349\n      eq\n      tag_7\n      jumpi\n      dup1\n      0x42f35885\n      eq\n      tag_8\n      jumpi\n    tag_2:\n      0x00\n      dup1\n      revert\n        /* \"contracts/main.sol\":414:836  function addSupplier(string memory _uname) public{\r... */\n    tag_3:\n      tag_16\n      0x04\n      dup1\n      calldatasize\n      sub\n      dup2\n      add\n      swap1\n      tag_17\n      swap2\n      swap1\n      tag_18\n      jump\t// in\n    tag_17:\n      tag_19\n      jump\t// in\n    tag_16:\n      stop\n        /* \"contracts/item.sol\":389:421  mapping(uint=>item) public Items */\n    tag_4:\n      tag_20\n      0x04\n      dup1\n      calldatasize\n      sub\n      dup2\n      add\n      swap1\n      tag_21\n      swap2\n      swap1\n      tag_22\n      jump\t// in\n    tag_21:\n      tag_23\n      jump\t// in\n    tag_20:\n      mload(0x40)\n      tag_24\n      swap6\n      swap5\n      swap4\n      swap3\n      swap2\n      swap1\n      tag_25\n      jump\t// in\n    tag_24:\n      mload(0x40)\n      dup1\n      swap2\n      sub\n      swap1\n      return\n        /* \"contracts/main.sol\":2298:2435  function order(uint _id) public hasMoney(0,0 )\r... */\n    tag_5:\n      tag_26\n      0x04\n      dup1\n      calldatasize\n      sub\n      dup2\n      add\n      swap1\n      tag_27\n      swap2\n      swap1\n      tag_22\n      jump\t// in\n    tag_27:\n      tag_28\n      jump\t// in\n    tag_26:\n      stop\n        /* \"contracts/main.sol\":841:1280  function addtransporter(string memory _uname) public {\r... */\n    tag_6:\n      tag_29\n      0x04\n      dup1\n      calldatasize\n      sub\n      dup2\n      add\n      swap1\n      tag_30\n      swap2\n      swap1\n      tag_18\n      jump\t// in\n    tag_30:\n      tag_31\n      jump\t// in\n    tag_29:\n      stop\n        /* \"contracts/member.sol\":347:393  mapping(uint=>participant) public participants */\n    tag_7:\n      tag_32\n      0x04\n      dup1\n      calldatasize\n      sub\n      dup2\n      add\n      swap1\n      tag_33\n      swap2\n      swap1\n      tag_22\n      jump\t// in\n    tag_33:\n      tag_34\n      jump\t// in\n    tag_32:\n      mload(0x40)\n      tag_35\n      swap6\n      swap5\n      swap4\n      swap3\n      swap2\n      swap1\n      tag_36\n      jump\t// in\n    tag_35:\n      mload(0x40)\n      dup1\n      swap2\n      sub\n      swap1\n      return\n        /* \"contracts/main.sol\":2646:2754  function productDetail(uint _id) public view returns (item memory)\r... */\n    tag_8:\n      tag_37\n      0x04\n      dup1\n      calldatasize\n      sub\n      dup2\n      add\n      swap1\n      tag_38\n      swap2\n      swap1\n      tag_22\n      jump\t// in\n    tag_38:\n      tag_39\n      jump\t// in\n    tag_37:\n      mload(0x40)\n      tag_40\n      swap2\n      swap1\n      tag_41\n      jump\t// in\n    tag_40:\n      mload(0x40)\n      dup1\n      swap2\n      sub\n      swap1\n      return\n        /* \"contracts/main.sol\":2443:2622  function ship_product(uint _id,address _transporter_address) public \r... */\n    tag_9:\n      tag_42\n      0x04\n      dup1\n      calldatasize\n      sub\n      dup2\n      add\n      swap1\n      tag_43\n      swap2\n      swap1\n      tag_44\n      jump\t// in\n    tag_43:\n      tag_45\n      jump\t// in\n    tag_42:\n      stop\n        /* \"contracts/main.sol\":2760:2839  function personDetail(uint _id) public view returns(participant memory)\r... */\n    tag_10:\n      tag_46\n      0x04\n      dup1\n      calldatasize\n      sub\n      dup2\n      add\n      swap1\n      tag_47\n      swap2\n      swap1\n      tag_22\n      jump\t// in\n    tag_47:\n      tag_48\n      jump\t// in\n    tag_46:\n      mload(0x40)\n      tag_49\n      swap2\n      swap1\n      tag_50\n      jump\t// in\n    tag_49:\n      mload(0x40)\n      dup1\n      swap2\n      sub\n      swap1\n      return\n        /* \"contracts/main.sol\":1733:2130  function addItem(string memory _product_name , uint cost) public onlyDistributor(msg.sender)\r... */\n    tag_11:\n      tag_51\n      0x04\n      dup1\n      calldatasize\n      sub\n      dup2\n      add\n      swap1\n      tag_52\n      swap2\n      swap1\n      tag_53\n      jump\t// in\n    tag_52:\n      tag_54\n      jump\t// in\n    tag_51:\n      stop\n        /* \"contracts/modifier.sol\":121:141  address public owner */\n    tag_12:\n      tag_55\n      tag_56\n      jump\t// in\n    tag_55:\n      mload(0x40)\n      tag_57\n      swap2\n      swap1\n      tag_58\n      jump\t// in\n    tag_57:\n      mload(0x40)\n      dup1\n      swap2\n      sub\n      swap1\n      return\n        /* \"contracts/main.sol\":1286:1727  function addManufacturer(string memory _uname) public {\r... */\n    tag_13:\n      tag_59\n      0x04\n      dup1\n      calldatasize\n      sub\n      dup2\n      add\n      swap1\n      tag_60\n      swap2\n      swap1\n      tag_18\n      jump\t// in\n    tag_60:\n      tag_61\n      jump\t// in\n    tag_59:\n      stop\n        /* \"contracts/main.sol\":2136:2292  function avaliableforsale(uint _id) public productowner(_id)\r... */\n    tag_14:\n      tag_62\n      0x04\n      dup1\n      calldatasize\n      sub\n      dup2\n      add\n      swap1\n      tag_63\n      swap2\n      swap1\n      tag_22\n      jump\t// in\n    tag_63:\n      tag_64\n      jump\t// in\n    tag_62:\n      stop\n        /* \"contracts/main.sol\":414:836  function addSupplier(string memory _uname) public{\r... */\n    tag_19:\n        /* \"contracts/main.sol\":473:507  participant memory  newParticipant */\n      tag_66\n      tag_67\n      jump\t// in\n    tag_66:\n        /* \"contracts/main.sol\":542:548  _uname */\n      dup2\n        /* \"contracts/main.sol\":517:531  newParticipant */\n      dup2\n        /* \"contracts/main.sol\":517:540  newParticipant.username */\n      0x00\n      add\n        /* \"contracts/main.sol\":517:548  newParticipant.username =_uname */\n      dup2\n      swap1\n      mstore\n      pop\n        /* \"contracts/main.sol\":582:584  pc */\n      sload(0x02)\n        /* \"contracts/main.sol\":558:572  newParticipant */\n      dup2\n        /* \"contracts/main.sol\":558:579  newParticipant.userId */\n      0x20\n      add\n        /* \"contracts/main.sol\":558:584  newParticipant.userId = pc */\n      dup2\n      dup2\n      mstore\n      pop\n      pop\n        /* \"contracts/main.sol\":617:635  user_type.supplier */\n      0x00\n        /* \"contracts/main.sol\":594:608  newParticipant */\n      dup2\n        /* \"contracts/main.sol\":594:614  newParticipant.utype */\n      0x40\n      add\n        /* \"contracts/main.sol\":594:635  newParticipant.utype = user_type.supplier */\n      swap1\n      0x03\n      dup2\n      gt\n      iszero\n      tag_68\n      jumpi\n      mstore(0x00, 0x4e487b7100000000000000000000000000000000000000000000000000000000)\n      mstore(0x04, 0x21)\n      revert(0x00, 0x24)\n    tag_68:\n      swap1\n      dup2\n      0x03\n      dup2\n      gt\n      iszero\n      tag_69\n      jumpi\n      mstore(0x00, 0x4e487b7100000000000000000000000000000000000000000000000000000000)\n      mstore(0x04, 0x21)\n      revert(0x00, 0x24)\n    tag_69:\n      dup2\n      mstore\n      pop\n      pop\n        /* \"contracts/main.sol\":674:684  msg.sender */\n      caller\n        /* \"contracts/main.sol\":645:659  newParticipant */\n      dup2\n        /* \"contracts/main.sol\":645:672  newParticipant.user_address */\n      0x60\n      add\n        /* \"contracts/main.sol\":645:684  newParticipant.user_address =msg.sender */\n      swap1\n      0xffffffffffffffffffffffffffffffffffffffff\n      and\n      swap1\n      dup2\n      0xffffffffffffffffffffffffffffffffffffffff\n      and\n      dup2\n      mstore\n      pop\n      pop\n        /* \"contracts/main.sol\":717:718  0 */\n      0x00\n        /* \"contracts/main.sol\":694:708  newParticipant */\n      dup2\n        /* \"contracts/main.sol\":694:714  newParticipant.money */\n      0x80\n      add\n        /* \"contracts/main.sol\":694:718  newParticipant.money = 0 */\n      dup2\n      dup2\n      mstore\n      pop\n      pop\n        /* \"contracts/main.sol\":745:759  newParticipant */\n      dup1\n        /* \"contracts/main.sol\":728:740  participants */\n      0x03\n        /* \"contracts/main.sol\":728:744  participants[pc] */\n      0x00\n        /* \"contracts/main.sol\":741:743  pc */\n      sload(0x02)\n        /* \"contracts/main.sol\":728:744  participants[pc] */\n      dup2\n      mstore\n      0x20\n      add\n      swap1\n      dup2\n      mstore\n      0x20\n      add\n      0x00\n      keccak256\n        /* \"contracts/main.sol\":728:759  participants[pc]=newParticipant */\n      0x00\n      dup3\n      add\n      mload\n      dup2\n      0x00\n      add\n      swap1\n      dup1\n      mload\n      swap1\n      0x20\n      add\n      swap1\n      tag_70\n      swap3\n      swap2\n      swap1\n      tag_71\n      jump\t// in\n    tag_70:\n      pop\n      0x20\n      dup3\n      add\n      mload\n      dup2\n      0x01\n      add\n      sstore\n      0x40\n      dup3\n      add\n      mload\n      dup2\n      0x02\n      add\n      exp(0x0100, 0x00)\n      dup2\n      sload\n      dup2\n      0xff\n      mul\n      not\n      and\n      swap1\n      dup4\n      0x03\n      dup2\n      gt\n      iszero\n      tag_72\n      jumpi\n      mstore(0x00, 0x4e487b7100000000000000000000000000000000000000000000000000000000)\n      mstore(0x04, 0x21)\n      revert(0x00, 0x24)\n    tag_72:\n      mul\n      or\n      swap1\n      sstore\n      pop\n      0x60\n      dup3\n      add\n      mload\n      dup2\n      0x02\n      add\n      exp(0x0100, 0x01)\n      dup2\n      sload\n      dup2\n      0xffffffffffffffffffffffffffffffffffffffff\n      mul\n      not\n      and\n      swap1\n      dup4\n      0xffffffffffffffffffffffffffffffffffffffff\n      and\n      mul\n      or\n      swap1\n      sstore\n      pop\n      0x80\n      dup3\n      add\n      mload\n      dup2\n      0x03\n      add\n      sstore\n      swap1\n      pop\n      pop\n        /* \"contracts/main.sol\":796:810  newParticipant */\n      dup1\n        /* \"contracts/main.sol\":769:783  participantsId */\n      0x04\n        /* \"contracts/main.sol\":769:795  participantsId[msg.sender] */\n      0x00\n        /* \"contracts/main.sol\":784:794  msg.sender */\n      caller\n        /* \"contracts/main.sol\":769:795  participantsId[msg.sender] */\n      0xffffffffffffffffffffffffffffffffffffffff\n      and\n      0xffffffffffffffffffffffffffffffffffffffff\n      and\n      dup2\n      mstore\n      0x20\n      add\n      swap1\n      dup2\n      mstore\n      0x20\n      add\n      0x00\n      keccak256\n        /* \"contracts/main.sol\":769:810  participantsId[msg.sender]=newParticipant */\n      0x00\n      dup3\n      add\n      mload\n      dup2\n      0x00\n      add\n      swap1\n      dup1\n      mload\n      swap1\n      0x20\n      add\n      swap1\n      tag_73\n      swap3\n      swap2\n      swap1\n      tag_71\n      jump\t// in\n    tag_73:\n      pop\n      0x20\n      dup3\n      add\n      mload\n      dup2\n      0x01\n      add\n      sstore\n      0x40\n      dup3\n      add\n      mload\n      dup2\n      0x02\n      add\n      exp(0x0100, 0x00)\n      dup2\n      sload\n      dup2\n      0xff\n      mul\n      not\n      and\n      swap1\n      dup4\n      0x03\n      dup2\n      gt\n      iszero\n      tag_74\n      jumpi\n      mstore(0x00, 0x4e487b7100000000000000000000000000000000000000000000000000000000)\n      mstore(0x04, 0x21)\n      revert(0x00, 0x24)\n    tag_74:\n      mul\n      or\n      swap1\n      sstore\n      pop\n      0x60\n      dup3\n      add\n      mload\n      dup2\n      0x02\n      add\n      exp(0x0100, 0x01)\n      dup2\n      sload\n      dup2\n      0xffffffffffffffffffffffffffffffffffffffff\n      mul\n      not\n      and\n      swap1\n      dup4\n      0xffffffffffffffffffffffffffffffffffffffff\n      and\n      mul\n      or\n      swap1\n      sstore\n      pop\n      0x80\n      dup3\n      add\n      mload\n      dup2\n      0x03\n      add\n      sstore\n      swap1\n      pop\n      pop\n        /* \"contracts/main.sol\":826:827  1 */\n      0x01\n        /* \"contracts/main.sol\":823:825  pc */\n      sload(0x02)\n        /* \"contracts/main.sol\":823:827  pc+1 */\n      tag_75\n      swap2\n      swap1\n      tag_76\n      jump\t// in\n    tag_75:\n        /* \"contracts/main.sol\":820:822  pc */\n      0x02\n        /* \"contracts/main.sol\":820:827  pc=pc+1 */\n      dup2\n      swap1\n      sstore\n      pop\n        /* \"contracts/main.sol\":414:836  function addSupplier(string memory _uname) public{\r... */\n      pop\n      pop\n      jump\t// out\n        /* \"contracts/item.sol\":389:421  mapping(uint=>item) public Items */\n    tag_23:\n      mstore(0x20, 0x01)\n      dup1\n      0x00\n      mstore\n      keccak256(0x00, 0x40)\n      0x00\n      swap2\n      pop\n      swap1\n      pop\n      dup1\n      0x00\n      add\n      dup1\n      sload\n      tag_77\n      swap1\n      tag_78\n      jump\t// in\n    tag_77:\n      dup1\n      0x1f\n      add\n      0x20\n      dup1\n      swap2\n      div\n      mul\n      0x20\n      add\n      mload(0x40)\n      swap1\n      dup2\n      add\n      0x40\n      mstore\n      dup1\n      swap3\n      swap2\n      swap1\n      dup2\n      dup2\n      mstore\n      0x20\n      add\n      dup3\n      dup1\n      sload\n      tag_79\n      swap1\n      tag_78\n      jump\t// in\n    tag_79:\n      dup1\n      iszero\n      tag_80\n      jumpi\n      dup1\n      0x1f\n      lt\n      tag_81\n      jumpi\n      0x0100\n      dup1\n      dup4\n      sload\n      div\n      mul\n      dup4\n      mstore\n      swap2\n      0x20\n      add\n      swap2\n      jump(tag_80)\n    tag_81:\n      dup3\n      add\n      swap2\n      swap1\n      0x00\n      mstore\n      keccak256(0x00, 0x20)\n      swap1\n    tag_82:\n      dup2\n      sload\n      dup2\n      mstore\n      swap1\n      0x01\n      add\n      swap1\n      0x20\n      add\n      dup1\n      dup4\n      gt\n      tag_82\n      jumpi\n      dup3\n      swap1\n      sub\n      0x1f\n      and\n      dup3\n      add\n      swap2\n    tag_80:\n      pop\n      pop\n      pop\n      pop\n      pop\n      swap1\n      dup1\n      0x01\n      add\n      sload\n      swap1\n      dup1\n      0x02\n      add\n      0x00\n      swap1\n      sload\n      swap1\n      0x0100\n      exp\n      swap1\n      div\n      0xffffffffffffffffffffffffffffffffffffffff\n      and\n      swap1\n      dup1\n      0x02\n      add\n      0x14\n      swap1\n      sload\n      swap1\n      0x0100\n      exp\n      swap1\n      div\n      0xff\n      and\n      swap1\n      dup1\n      0x03\n      add\n      sload\n      swap1\n      pop\n      dup6\n      jump\t// out\n        /* \"contracts/main.sol\":2298:2435  function order(uint _id) public hasMoney(0,0 )\r... */\n    tag_28:\n        /* \"contracts/main.sol\":2339:2340  0 */\n      0x00\n        /* \"contracts/main.sol\":2341:2342  0 */\n      dup1\n        /* \"contracts/modifier.sol\":1245:1251  _value */\n      dup2\n        /* \"contracts/modifier.sol\":1227:1232  Items */\n      0x01\n        /* \"contracts/modifier.sol\":1227:1237  Items[_ic] */\n      0x00\n        /* \"contracts/modifier.sol\":1233:1236  _ic */\n      dup4\n        /* \"contracts/modifier.sol\":1227:1237  Items[_ic] */\n      dup2\n      mstore\n      0x20\n      add\n      swap1\n      dup2\n      mstore\n      0x20\n      add\n      0x00\n      keccak256\n        /* \"contracts/modifier.sol\":1227:1242  Items[_ic].cost */\n      0x03\n      add\n      sload\n        /* \"contracts/modifier.sol\":1227:1251  Items[_ic].cost <=_value */\n      gt\n      iszero\n        /* \"contracts/modifier.sol\":1219:1301  require(Items[_ic].cost <=_value, \"you dont have enough money to buy the product\") */\n      tag_84\n      jumpi\n      mload(0x40)\n      0x08c379a000000000000000000000000000000000000000000000000000000000\n      dup2\n      mstore\n      0x04\n      add\n      tag_85\n      swap1\n      tag_86\n      jump\t// in\n    tag_85:\n      mload(0x40)\n      dup1\n      swap2\n      sub\n      swap1\n      revert\n    tag_84:\n        /* \"contracts/main.sol\":2362:2375  address buyer */\n      0x00\n        /* \"contracts/main.sol\":2378:2388  msg.sender */\n      caller\n        /* \"contracts/main.sol\":2362:2388  address buyer = msg.sender */\n      swap1\n      pop\n        /* \"contracts/main.sol\":2405:2427  orderPlaced(_id,buyer) */\n      0xef7b116480495ad6b1c6479820e4a0140e78de3846e138c5d055ad601408725e\n        /* \"contracts/main.sol\":2417:2420  _id */\n      dup5\n        /* \"contracts/main.sol\":2421:2426  buyer */\n      dup3\n        /* \"contracts/main.sol\":2405:2427  orderPlaced(_id,buyer) */\n      mload(0x40)\n      tag_88\n      swap3\n      swap2\n      swap1\n      tag_89\n      jump\t// in\n    tag_88:\n      mload(0x40)\n      dup1\n      swap2\n      sub\n      swap1\n      log1\n        /* \"contracts/modifier.sol\":1313:1314  _ */\n      pop\n        /* \"contracts/main.sol\":2298:2435  function order(uint _id) public hasMoney(0,0 )\r... */\n      pop\n      pop\n      pop\n      jump\t// out\n        /* \"contracts/main.sol\":841:1280  function addtransporter(string memory _uname) public {\r... */\n    tag_31:\n        /* \"contracts/main.sol\":905:938  participant memory newParticipant */\n      tag_91\n      tag_67\n      jump\t// in\n    tag_91:\n        /* \"contracts/main.sol\":975:981  _uname */\n      dup2\n        /* \"contracts/main.sol\":950:964  newParticipant */\n      dup2\n        /* \"contracts/main.sol\":950:973  newParticipant.username */\n      0x00\n      add\n        /* \"contracts/main.sol\":950:981  newParticipant.username =_uname */\n      dup2\n      swap1\n      mstore\n      pop\n        /* \"contracts/main.sol\":1016:1018  pc */\n      sload(0x02)\n        /* \"contracts/main.sol\":992:1006  newParticipant */\n      dup2\n        /* \"contracts/main.sol\":992:1013  newParticipant.userId */\n      0x20\n      add\n        /* \"contracts/main.sol\":992:1018  newParticipant.userId = pc */\n      dup2\n      dup2\n      mstore\n      pop\n      pop\n        /* \"contracts/main.sol\":1052:1053  0 */\n      0x00\n        /* \"contracts/main.sol\":1029:1043  newParticipant */\n      dup2\n        /* \"contracts/main.sol\":1029:1049  newParticipant.money */\n      0x80\n      add\n        /* \"contracts/main.sol\":1029:1053  newParticipant.money = 0 */\n      dup2\n      dup2\n      mstore\n      pop\n      pop\n        /* \"contracts/main.sol\":1086:1107  user_type.transporter */\n      0x01\n        /* \"contracts/main.sol\":1064:1078  newParticipant */\n      dup2\n        /* \"contracts/main.sol\":1064:1084  newParticipant.utype */\n      0x40\n      add\n        /* \"contracts/main.sol\":1064:1107  newParticipant.utype= user_type.transporter */\n      swap1\n      0x03\n      dup2\n      gt\n      iszero\n      tag_92\n      jumpi\n      mstore(0x00, 0x4e487b7100000000000000000000000000000000000000000000000000000000)\n      mstore(0x04, 0x21)\n      revert(0x00, 0x24)\n    tag_92:\n      swap1\n      dup2\n      0x03\n      dup2\n      gt\n      iszero\n      tag_93\n      jumpi\n      mstore(0x00, 0x4e487b7100000000000000000000000000000000000000000000000000000000)\n      mstore(0x04, 0x21)\n      revert(0x00, 0x24)\n    tag_93:\n      dup2\n      mstore\n      pop\n      pop\n        /* \"contracts/main.sol\":1148:1158  msg.sender */\n      caller\n        /* \"contracts/main.sol\":1118:1132  newParticipant */\n      dup2\n        /* \"contracts/main.sol\":1118:1145  newParticipant.user_address */\n      0x60\n      add\n        /* \"contracts/main.sol\":1118:1158  newParticipant.user_address = msg.sender */\n      swap1\n      0xffffffffffffffffffffffffffffffffffffffff\n      and\n      swap1\n      dup2\n      0xffffffffffffffffffffffffffffffffffffffff\n      and\n      dup2\n      mstore\n      pop\n      pop\n        /* \"contracts/main.sol\":1186:1200  newParticipant */\n      dup1\n        /* \"contracts/main.sol\":1169:1181  participants */\n      0x03\n        /* \"contracts/main.sol\":1169:1185  participants[pc] */\n      0x00\n        /* \"contracts/main.sol\":1182:1184  pc */\n      sload(0x02)\n        /* \"contracts/main.sol\":1169:1185  participants[pc] */\n      dup2\n      mstore\n      0x20\n      add\n      swap1\n      dup2\n      mstore\n      0x20\n      add\n      0x00\n      keccak256\n        /* \"contracts/main.sol\":1169:1200  participants[pc]=newParticipant */\n      0x00\n      dup3\n      add\n      mload\n      dup2\n      0x00\n      add\n      swap1\n      dup1\n      mload\n      swap1\n      0x20\n      add\n      swap1\n      tag_94\n      swap3\n      swap2\n      swap1\n      tag_71\n      jump\t// in\n    tag_94:\n      pop\n      0x20\n      dup3\n      add\n      mload\n      dup2\n      0x01\n      add\n      sstore\n      0x40\n      dup3\n      add\n      mload\n      dup2\n      0x02\n      add\n      exp(0x0100, 0x00)\n      dup2\n      sload\n      dup2\n      0xff\n      mul\n      not\n      and\n      swap1\n      dup4\n      0x03\n      dup2\n      gt\n      iszero\n      tag_95\n      jumpi\n      mstore(0x00, 0x4e487b7100000000000000000000000000000000000000000000000000000000)\n      mstore(0x04, 0x21)\n      revert(0x00, 0x24)\n    tag_95:\n      mul\n      or\n      swap1\n      sstore\n      pop\n      0x60\n      dup3\n      add\n      mload\n      dup2\n      0x02\n      add\n      exp(0x0100, 0x01)\n      dup2\n      sload\n      dup2\n      0xffffffffffffffffffffffffffffffffffffffff\n      mul\n      not\n      and\n      swap1\n      dup4\n      0xffffffffffffffffffffffffffffffffffffffff\n      and\n      mul\n      or\n      swap1\n      sstore\n      pop\n      0x80\n      dup3\n      add\n      mload\n      dup2\n      0x03\n      add\n      sstore\n      swap1\n      pop\n      pop\n        /* \"contracts/main.sol\":1238:1252  newParticipant */\n      dup1\n        /* \"contracts/main.sol\":1211:1225  participantsId */\n      0x04\n        /* \"contracts/main.sol\":1211:1237  participantsId[msg.sender] */\n      0x00\n        /* \"contracts/main.sol\":1226:1236  msg.sender */\n      caller\n        /* \"contracts/main.sol\":1211:1237  participantsId[msg.sender] */\n      0xffffffffffffffffffffffffffffffffffffffff\n      and\n      0xffffffffffffffffffffffffffffffffffffffff\n      and\n      dup2\n      mstore\n      0x20\n      add\n      swap1\n      dup2\n      mstore\n      0x20\n      add\n      0x00\n      keccak256\n        /* \"contracts/main.sol\":1211:1252  participantsId[msg.sender]=newParticipant */\n      0x00\n      dup3\n      add\n      mload\n      dup2\n      0x00\n      add\n      swap1\n      dup1\n      mload\n      swap1\n      0x20\n      add\n      swap1\n      tag_96\n      swap3\n      swap2\n      swap1\n      tag_71\n      jump\t// in\n    tag_96:\n      pop\n      0x20\n      dup3\n      add\n      mload\n      dup2\n      0x01\n      add\n      sstore\n      0x40\n      dup3\n      add\n      mload\n      dup2\n      0x02\n      add\n      exp(0x0100, 0x00)\n      dup2\n      sload\n      dup2\n      0xff\n      mul\n      not\n      and\n      swap1\n      dup4\n      0x03\n      dup2\n      gt\n      iszero\n      tag_97\n      jumpi\n      mstore(0x00, 0x4e487b7100000000000000000000000000000000000000000000000000000000)\n      mstore(0x04, 0x21)\n      revert(0x00, 0x24)\n    tag_97:\n      mul\n      or\n      swap1\n      sstore\n      pop\n      0x60\n      dup3\n      add\n      mload\n      dup2\n      0x02\n      add\n      exp(0x0100, 0x01)\n      dup2\n      sload\n      dup2\n      0xffffffffffffffffffffffffffffffffffffffff\n      mul\n      not\n      and\n      swap1\n      dup4\n      0xffffffffffffffffffffffffffffffffffffffff\n      and\n      mul\n      or\n      swap1\n      sstore\n      pop\n      0x80\n      dup3\n      add\n      mload\n      dup2\n      0x03\n      add\n      sstore\n      swap1\n      pop\n      pop\n        /* \"contracts/main.sol\":1269:1270  1 */\n      0x01\n        /* \"contracts/main.sol\":1266:1268  pc */\n      sload(0x02)\n        /* \"contracts/main.sol\":1266:1270  pc+1 */\n      tag_98\n      swap2\n      swap1\n      tag_76\n      jump\t// in\n    tag_98:\n        /* \"contracts/main.sol\":1263:1265  pc */\n      0x02\n        /* \"contracts/main.sol\":1263:1270  pc=pc+1 */\n      dup2\n      swap1\n      sstore\n      pop\n        /* \"contracts/main.sol\":841:1280  function addtransporter(string memory _uname) public {\r... */\n      pop\n      pop\n      jump\t// out\n        /* \"contracts/member.sol\":347:393  mapping(uint=>participant) public participants */\n    tag_34:\n      mstore(0x20, 0x03)\n      dup1\n      0x00\n      mstore\n      keccak256(0x00, 0x40)\n      0x00\n      swap2\n      pop\n      swap1\n      pop\n      dup1\n      0x00\n      add\n      dup1\n      sload\n      tag_99\n      swap1\n      tag_78\n      jump\t// in\n    tag_99:\n      dup1\n      0x1f\n      add\n      0x20\n      dup1\n      swap2\n      div\n      mul\n      0x20\n      add\n      mload(0x40)\n      swap1\n      dup2\n      add\n      0x40\n      mstore\n      dup1\n      swap3\n      swap2\n      swap1\n      dup2\n      dup2\n      mstore\n      0x20\n      add\n      dup3\n      dup1\n      sload\n      tag_100\n      swap1\n      tag_78\n      jump\t// in\n    tag_100:\n      dup1\n      iszero\n      tag_101\n      jumpi\n      dup1\n      0x1f\n      lt\n      tag_102\n      jumpi\n      0x0100\n      dup1\n      dup4\n      sload\n      div\n      mul\n      dup4\n      mstore\n      swap2\n      0x20\n      add\n      swap2\n      jump(tag_101)\n    tag_102:\n      dup3\n      add\n      swap2\n      swap1\n      0x00\n      mstore\n      keccak256(0x00, 0x20)\n      swap1\n    tag_103:\n      dup2\n      sload\n      dup2\n      mstore\n      swap1\n      0x01\n      add\n      swap1\n      0x20\n      add\n      dup1\n      dup4\n      gt\n      tag_103\n      jumpi\n      dup3\n      swap1\n      sub\n      0x1f\n      and\n      dup3\n      add\n      swap2\n    tag_101:\n      pop\n      pop\n      pop\n      pop\n      pop\n      swap1\n      dup1\n      0x01\n      add\n      sload\n      swap1\n      dup1\n      0x02\n      add\n      0x00\n      swap1\n      sload\n      swap1\n      0x0100\n      exp\n      swap1\n      div\n      0xff\n      and\n      swap1\n      dup1\n      0x02\n      add\n      0x01\n      swap1\n      sload\n      swap1\n      0x0100\n      exp\n      swap1\n      div\n      0xffffffffffffffffffffffffffffffffffffffff\n      and\n      swap1\n      dup1\n      0x03\n      add\n      sload\n      swap1\n      pop\n      dup6\n      jump\t// out\n        /* \"contracts/main.sol\":2646:2754  function productDetail(uint _id) public view returns (item memory)\r... */\n    tag_39:\n        /* \"contracts/main.sol\":2700:2711  item memory */\n      tag_104\n      tag_105\n      jump\t// in\n    tag_104:\n        /* \"contracts/main.sol\":2736:2741  Items */\n      0x01\n        /* \"contracts/main.sol\":2736:2746  Items[_id] */\n      0x00\n        /* \"contracts/main.sol\":2742:2745  _id */\n      dup4\n        /* \"contracts/main.sol\":2736:2746  Items[_id] */\n      dup2\n      mstore\n      0x20\n      add\n      swap1\n      dup2\n      mstore\n      0x20\n      add\n      0x00\n      keccak256\n        /* \"contracts/main.sol\":2729:2746  return Items[_id] */\n      mload(0x40)\n      dup1\n      0xa0\n      add\n      0x40\n      mstore\n      swap1\n      dup2\n      0x00\n      dup3\n      add\n      dup1\n      sload\n      tag_107\n      swap1\n      tag_78\n      jump\t// in\n    tag_107:\n      dup1\n      0x1f\n      add\n      0x20\n      dup1\n      swap2\n      div\n      mul\n      0x20\n      add\n      mload(0x40)\n      swap1\n      dup2\n      add\n      0x40\n      mstore\n      dup1\n      swap3\n      swap2\n      swap1\n      dup2\n      dup2\n      mstore\n      0x20\n      add\n      dup3\n      dup1\n      sload\n      tag_108\n      swap1\n      tag_78\n      jump\t// in\n    tag_108:\n      dup1\n      iszero\n      tag_109\n      jumpi\n      dup1\n      0x1f\n      lt\n      tag_110\n      jumpi\n      0x0100\n      dup1\n      dup4\n      sload\n      div\n      mul\n      dup4\n      mstore\n      swap2\n      0x20\n      add\n      swap2\n      jump(tag_109)\n    tag_110:\n      dup3\n      add\n      swap2\n      swap1\n      0x00\n      mstore\n      keccak256(0x00, 0x20)\n      swap1\n    tag_111:\n      dup2\n      sload\n      dup2\n      mstore\n      swap1\n      0x01\n      add\n      swap1\n      0x20\n      add\n      dup1\n      dup4\n      gt\n      tag_111\n      jumpi\n      dup3\n      swap1\n      sub\n      0x1f\n      and\n      dup3\n      add\n      swap2\n    tag_109:\n      pop\n      pop\n      pop\n      pop\n      pop\n      dup2\n      mstore\n      0x20\n      add\n      0x01\n      dup3\n      add\n      sload\n      dup2\n      mstore\n      0x20\n      add\n      0x02\n      dup3\n      add\n      0x00\n      swap1\n      sload\n      swap1\n      0x0100\n      exp\n      swap1\n      div\n      0xffffffffffffffffffffffffffffffffffffffff\n      and\n      0xffffffffffffffffffffffffffffffffffffffff\n      and\n      0xffffffffffffffffffffffffffffffffffffffff\n      and\n      dup2\n      mstore\n      0x20\n      add\n      0x02\n      dup3\n      add\n      0x14\n      swap1\n      sload\n      swap1\n      0x0100\n      exp\n      swap1\n      div\n      0xff\n      and\n      0x06\n      dup2\n      gt\n      iszero\n      tag_112\n      jumpi\n      mstore(0x00, 0x4e487b7100000000000000000000000000000000000000000000000000000000)\n      mstore(0x04, 0x21)\n      revert(0x00, 0x24)\n    tag_112:\n      0x06\n      dup2\n      gt\n      iszero\n      tag_113\n      jumpi\n      mstore(0x00, 0x4e487b7100000000000000000000000000000000000000000000000000000000)\n      mstore(0x04, 0x21)\n      revert(0x00, 0x24)\n    tag_113:\n      dup2\n      mstore\n      0x20\n      add\n      0x03\n      dup3\n      add\n      sload\n      dup2\n      mstore\n      pop\n      pop\n      swap1\n      pop\n        /* \"contracts/main.sol\":2646:2754  function productDetail(uint _id) public view returns (item memory)\r... */\n      swap2\n      swap1\n      pop\n      jump\t// out\n        /* \"contracts/main.sol\":2443:2622  function ship_product(uint _id,address _transporter_address) public \r... */\n    tag_45:\n        /* \"contracts/main.sol\":2553:2566  state.shipped */\n      0x03\n        /* \"contracts/main.sol\":2527:2532  Items */\n      0x01\n        /* \"contracts/main.sol\":2527:2537  Items[_id] */\n      0x00\n        /* \"contracts/main.sol\":2533:2536  _id */\n      dup5\n        /* \"contracts/main.sol\":2527:2537  Items[_id] */\n      dup2\n      mstore\n      0x20\n      add\n      swap1\n      dup2\n      mstore\n      0x20\n      add\n      0x00\n      keccak256\n        /* \"contracts/main.sol\":2527:2550  Items[_id].productState */\n      0x02\n      add\n      0x14\n        /* \"contracts/main.sol\":2527:2566  Items[_id].productState = state.shipped */\n      0x0100\n      exp\n      dup2\n      sload\n      dup2\n      0xff\n      mul\n      not\n      and\n      swap1\n      dup4\n      0x06\n      dup2\n      gt\n      iszero\n      tag_115\n      jumpi\n      mstore(0x00, 0x4e487b7100000000000000000000000000000000000000000000000000000000)\n      mstore(0x04, 0x21)\n      revert(0x00, 0x24)\n    tag_115:\n      mul\n      or\n      swap1\n      sstore\n      pop\n        /* \"contracts/main.sol\":2581:2614  shipped(_id,_transporter_address) */\n      0x45af58aaf003ac2ec2ad90282f8d3d79ede476b3e19183acb4abdebf6553b6a9\n        /* \"contracts/main.sol\":2589:2592  _id */\n      dup3\n        /* \"contracts/main.sol\":2593:2613  _transporter_address */\n      dup3\n        /* \"contracts/main.sol\":2581:2614  shipped(_id,_transporter_address) */\n      mload(0x40)\n      tag_116\n      swap3\n      swap2\n      swap1\n      tag_89\n      jump\t// in\n    tag_116:\n      mload(0x40)\n      dup1\n      swap2\n      sub\n      swap1\n      log1\n        /* \"contracts/main.sol\":2443:2622  function ship_product(uint _id,address _transporter_address) public \r... */\n      pop\n      pop\n      jump\t// out\n        /* \"contracts/main.sol\":2760:2839  function personDetail(uint _id) public view returns(participant memory)\r... */\n    tag_48:\n        /* \"contracts/main.sol\":2812:2830  participant memory */\n      tag_117\n      tag_67\n      jump\t// in\n    tag_117:\n        /* \"contracts/main.sol\":2760:2839  function personDetail(uint _id) public view returns(participant memory)\r... */\n      swap2\n      swap1\n      pop\n      jump\t// out\n        /* \"contracts/main.sol\":1733:2130  function addItem(string memory _product_name , uint cost) public onlyDistributor(msg.sender)\r... */\n    tag_54:\n        /* \"contracts/main.sol\":1814:1824  msg.sender */\n      caller\n        /* \"contracts/modifier.sol\":416:434  user_type.supplier */\n      0x00\n        /* \"contracts/modifier.sol\":382:434  participantsId[_address].utype == user_type.supplier */\n      0x03\n      dup2\n      gt\n      iszero\n      tag_120\n      jumpi\n      mstore(0x00, 0x4e487b7100000000000000000000000000000000000000000000000000000000)\n      mstore(0x04, 0x21)\n      revert(0x00, 0x24)\n    tag_120:\n        /* \"contracts/modifier.sol\":382:396  participantsId */\n      0x04\n        /* \"contracts/modifier.sol\":382:406  participantsId[_address] */\n      0x00\n        /* \"contracts/modifier.sol\":397:405  _address */\n      dup4\n        /* \"contracts/modifier.sol\":382:406  participantsId[_address] */\n      0xffffffffffffffffffffffffffffffffffffffff\n      and\n      0xffffffffffffffffffffffffffffffffffffffff\n      and\n      dup2\n      mstore\n      0x20\n      add\n      swap1\n      dup2\n      mstore\n      0x20\n      add\n      0x00\n      keccak256\n        /* \"contracts/modifier.sol\":382:412  participantsId[_address].utype */\n      0x02\n      add\n      0x00\n      swap1\n      sload\n      swap1\n      0x0100\n      exp\n      swap1\n      div\n      0xff\n      and\n        /* \"contracts/modifier.sol\":382:434  participantsId[_address].utype == user_type.supplier */\n      0x03\n      dup2\n      gt\n      iszero\n      tag_121\n      jumpi\n      mstore(0x00, 0x4e487b7100000000000000000000000000000000000000000000000000000000)\n      mstore(0x04, 0x21)\n      revert(0x00, 0x24)\n    tag_121:\n      eq\n        /* \"contracts/modifier.sol\":374:465  require(participantsId[_address].utype == user_type.supplier ,\"you cannot add new product\") */\n      tag_122\n      jumpi\n      mload(0x40)\n      0x08c379a000000000000000000000000000000000000000000000000000000000\n      dup2\n      mstore\n      0x04\n      add\n      tag_123\n      swap1\n      tag_124\n      jump\t// in\n    tag_123:\n      mload(0x40)\n      dup1\n      swap2\n      sub\n      swap1\n      revert\n    tag_122:\n        /* \"contracts/main.sol\":1842:1861  item memory newItem */\n      tag_126\n      tag_105\n      jump\t// in\n    tag_126:\n        /* \"contracts/main.sol\":1894:1907  _product_name */\n      dup4\n        /* \"contracts/main.sol\":1872:1879  newItem */\n      dup2\n        /* \"contracts/main.sol\":1872:1892  newItem.product_name */\n      0x00\n      add\n        /* \"contracts/main.sol\":1872:1907  newItem.product_name =_product_name */\n      dup2\n      swap1\n      mstore\n      pop\n        /* \"contracts/main.sol\":1938:1940  ic */\n      sload(0x00)\n        /* \"contracts/main.sol\":1918:1925  newItem */\n      dup2\n        /* \"contracts/main.sol\":1918:1935  newItem.productId */\n      0x20\n      add\n        /* \"contracts/main.sol\":1918:1940  newItem.productId = ic */\n      dup2\n      dup2\n      mstore\n      pop\n      pop\n        /* \"contracts/main.sol\":1971:1981  msg.sender */\n      caller\n        /* \"contracts/main.sol\":1951:1958  newItem */\n      dup2\n        /* \"contracts/main.sol\":1951:1968  newItem.itemOwner */\n      0x40\n      add\n        /* \"contracts/main.sol\":1951:1981  newItem.itemOwner = msg.sender */\n      swap1\n      0xffffffffffffffffffffffffffffffffffffffff\n      and\n      swap1\n      dup2\n      0xffffffffffffffffffffffffffffffffffffffff\n      and\n      dup2\n      mstore\n      pop\n      pop\n        /* \"contracts/main.sol\":2015:2031  state.AtSupplier */\n      0x00\n        /* \"contracts/main.sol\":1992:1999  newItem */\n      dup2\n        /* \"contracts/main.sol\":1992:2012  newItem.productState */\n      0x60\n      add\n        /* \"contracts/main.sol\":1992:2031  newItem.productState = state.AtSupplier */\n      swap1\n      0x06\n      dup2\n      gt\n      iszero\n      tag_127\n      jumpi\n      mstore(0x00, 0x4e487b7100000000000000000000000000000000000000000000000000000000)\n      mstore(0x04, 0x21)\n      revert(0x00, 0x24)\n    tag_127:\n      swap1\n      dup2\n      0x06\n      dup2\n      gt\n      iszero\n      tag_128\n      jumpi\n      mstore(0x00, 0x4e487b7100000000000000000000000000000000000000000000000000000000)\n      mstore(0x04, 0x21)\n      revert(0x00, 0x24)\n    tag_128:\n      dup2\n      mstore\n      pop\n      pop\n        /* \"contracts/main.sol\":2052:2059  newItem */\n      dup1\n        /* \"contracts/main.sol\":2042:2047  Items */\n      0x01\n        /* \"contracts/main.sol\":2042:2051  Items[ic] */\n      0x00\n        /* \"contracts/main.sol\":2048:2050  ic */\n      dup1\n      sload\n        /* \"contracts/main.sol\":2042:2051  Items[ic] */\n      dup2\n      mstore\n      0x20\n      add\n      swap1\n      dup2\n      mstore\n      0x20\n      add\n      0x00\n      keccak256\n        /* \"contracts/main.sol\":2042:2059  Items[ic]=newItem */\n      0x00\n      dup3\n      add\n      mload\n      dup2\n      0x00\n      add\n      swap1\n      dup1\n      mload\n      swap1\n      0x20\n      add\n      swap1\n      tag_129\n      swap3\n      swap2\n      swap1\n      tag_71\n      jump\t// in\n    tag_129:\n      pop\n      0x20\n      dup3\n      add\n      mload\n      dup2\n      0x01\n      add\n      sstore\n      0x40\n      dup3\n      add\n      mload\n      dup2\n      0x02\n      add\n      exp(0x0100, 0x00)\n      dup2\n      sload\n      dup2\n      0xffffffffffffffffffffffffffffffffffffffff\n      mul\n      not\n      and\n      swap1\n      dup4\n      0xffffffffffffffffffffffffffffffffffffffff\n      and\n      mul\n      or\n      swap1\n      sstore\n      pop\n      0x60\n      dup3\n      add\n      mload\n      dup2\n      0x02\n      add\n      exp(0x0100, 0x14)\n      dup2\n      sload\n      dup2\n      0xff\n      mul\n      not\n      and\n      swap1\n      dup4\n      0x06\n      dup2\n      gt\n      iszero\n      tag_130\n      jumpi\n      mstore(0x00, 0x4e487b7100000000000000000000000000000000000000000000000000000000)\n      mstore(0x04, 0x21)\n      revert(0x00, 0x24)\n    tag_130:\n      mul\n      or\n      swap1\n      sstore\n      pop\n      0x80\n      dup3\n      add\n      mload\n      dup2\n      0x03\n      add\n      sstore\n      swap1\n      pop\n      pop\n        /* \"contracts/main.sol\":2075:2102  itemcreated(ic ,msg.sender) */\n      0x4e95503bf2c40739506d6f0afb0fe6be42ce748d90f3f516386892fb6096e5bc\n        /* \"contracts/main.sol\":2087:2089  ic */\n      sload(0x00)\n        /* \"contracts/main.sol\":2091:2101  msg.sender */\n      caller\n        /* \"contracts/main.sol\":2075:2102  itemcreated(ic ,msg.sender) */\n      mload(0x40)\n      tag_131\n      swap3\n      swap2\n      swap1\n      tag_89\n      jump\t// in\n    tag_131:\n      mload(0x40)\n      dup1\n      swap2\n      sub\n      swap1\n      log1\n        /* \"contracts/main.sol\":2119:2120  1 */\n      0x01\n        /* \"contracts/main.sol\":2116:2118  ic */\n      sload(0x00)\n        /* \"contracts/main.sol\":2116:2120  ic+1 */\n      tag_132\n      swap2\n      swap1\n      tag_76\n      jump\t// in\n    tag_132:\n        /* \"contracts/main.sol\":2113:2115  ic */\n      0x00\n        /* \"contracts/main.sol\":2113:2120  ic=ic+1 */\n      dup2\n      swap1\n      sstore\n      pop\n        /* \"contracts/modifier.sol\":477:478  _ */\n      pop\n        /* \"contracts/main.sol\":1733:2130  function addItem(string memory _product_name , uint cost) public onlyDistributor(msg.sender)\r... */\n      pop\n      pop\n      pop\n      jump\t// out\n        /* \"contracts/modifier.sol\":121:141  address public owner */\n    tag_56:\n      0x05\n      0x00\n      swap1\n      sload\n      swap1\n      0x0100\n      exp\n      swap1\n      div\n      0xffffffffffffffffffffffffffffffffffffffff\n      and\n      dup2\n      jump\t// out\n        /* \"contracts/main.sol\":1286:1727  function addManufacturer(string memory _uname) public {\r... */\n    tag_61:\n        /* \"contracts/main.sol\":1351:1384  participant memory newParticipant */\n      tag_134\n      tag_67\n      jump\t// in\n    tag_134:\n        /* \"contracts/main.sol\":1421:1427  _uname */\n      dup2\n        /* \"contracts/main.sol\":1396:1410  newParticipant */\n      dup2\n        /* \"contracts/main.sol\":1396:1419  newParticipant.username */\n      0x00\n      add\n        /* \"contracts/main.sol\":1396:1427  newParticipant.username =_uname */\n      dup2\n      swap1\n      mstore\n      pop\n        /* \"contracts/main.sol\":1462:1464  pc */\n      sload(0x02)\n        /* \"contracts/main.sol\":1438:1452  newParticipant */\n      dup2\n        /* \"contracts/main.sol\":1438:1459  newParticipant.userId */\n      0x20\n      add\n        /* \"contracts/main.sol\":1438:1464  newParticipant.userId = pc */\n      dup2\n      dup2\n      mstore\n      pop\n      pop\n        /* \"contracts/main.sol\":1498:1499  0 */\n      0x00\n        /* \"contracts/main.sol\":1475:1489  newParticipant */\n      dup2\n        /* \"contracts/main.sol\":1475:1495  newParticipant.money */\n      0x80\n      add\n        /* \"contracts/main.sol\":1475:1499  newParticipant.money = 0 */\n      dup2\n      dup2\n      mstore\n      pop\n      pop\n        /* \"contracts/main.sol\":1532:1554  user_type.manufacturer */\n      0x03\n        /* \"contracts/main.sol\":1510:1524  newParticipant */\n      dup2\n        /* \"contracts/main.sol\":1510:1530  newParticipant.utype */\n      0x40\n      add\n        /* \"contracts/main.sol\":1510:1554  newParticipant.utype= user_type.manufacturer */\n      swap1\n      0x03\n      dup2\n      gt\n      iszero\n      tag_135\n      jumpi\n      mstore(0x00, 0x4e487b7100000000000000000000000000000000000000000000000000000000)\n      mstore(0x04, 0x21)\n      revert(0x00, 0x24)\n    tag_135:\n      swap1\n      dup2\n      0x03\n      dup2\n      gt\n      iszero\n      tag_136\n      jumpi\n      mstore(0x00, 0x4e487b7100000000000000000000000000000000000000000000000000000000)\n      mstore(0x04, 0x21)\n      revert(0x00, 0x24)\n    tag_136:\n      dup2\n      mstore\n      pop\n      pop\n        /* \"contracts/main.sol\":1595:1605  msg.sender */\n      caller\n        /* \"contracts/main.sol\":1565:1579  newParticipant */\n      dup2\n        /* \"contracts/main.sol\":1565:1592  newParticipant.user_address */\n      0x60\n      add\n        /* \"contracts/main.sol\":1565:1605  newParticipant.user_address = msg.sender */\n      swap1\n      0xffffffffffffffffffffffffffffffffffffffff\n      and\n      swap1\n      dup2\n      0xffffffffffffffffffffffffffffffffffffffff\n      and\n      dup2\n      mstore\n      pop\n      pop\n        /* \"contracts/main.sol\":1633:1647  newParticipant */\n      dup1\n        /* \"contracts/main.sol\":1616:1628  participants */\n      0x03\n        /* \"contracts/main.sol\":1616:1632  participants[pc] */\n      0x00\n        /* \"contracts/main.sol\":1629:1631  pc */\n      sload(0x02)\n        /* \"contracts/main.sol\":1616:1632  participants[pc] */\n      dup2\n      mstore\n      0x20\n      add\n      swap1\n      dup2\n      mstore\n      0x20\n      add\n      0x00\n      keccak256\n        /* \"contracts/main.sol\":1616:1647  participants[pc]=newParticipant */\n      0x00\n      dup3\n      add\n      mload\n      dup2\n      0x00\n      add\n      swap1\n      dup1\n      mload\n      swap1\n      0x20\n      add\n      swap1\n      tag_137\n      swap3\n      swap2\n      swap1\n      tag_71\n      jump\t// in\n    tag_137:\n      pop\n      0x20\n      dup3\n      add\n      mload\n      dup2\n      0x01\n      add\n      sstore\n      0x40\n      dup3\n      add\n      mload\n      dup2\n      0x02\n      add\n      exp(0x0100, 0x00)\n      dup2\n      sload\n      dup2\n      0xff\n      mul\n      not\n      and\n      swap1\n      dup4\n      0x03\n      dup2\n      gt\n      iszero\n      tag_138\n      jumpi\n      mstore(0x00, 0x4e487b7100000000000000000000000000000000000000000000000000000000)\n      mstore(0x04, 0x21)\n      revert(0x00, 0x24)\n    tag_138:\n      mul\n      or\n      swap1\n      sstore\n      pop\n      0x60\n      dup3\n      add\n      mload\n      dup2\n      0x02\n      add\n      exp(0x0100, 0x01)\n      dup2\n      sload\n      dup2\n      0xffffffffffffffffffffffffffffffffffffffff\n      mul\n      not\n      and\n      swap1\n      dup4\n      0xffffffffffffffffffffffffffffffffffffffff\n      and\n      mul\n      or\n      swap1\n      sstore\n      pop\n      0x80\n      dup3\n      add\n      mload\n      dup2\n      0x03\n      add\n      sstore\n      swap1\n      pop\n      pop\n        /* \"contracts/main.sol\":1685:1699  newParticipant */\n      dup1\n        /* \"contracts/main.sol\":1658:1672  participantsId */\n      0x04\n        /* \"contracts/main.sol\":1658:1684  participantsId[msg.sender] */\n      0x00\n        /* \"contracts/main.sol\":1673:1683  msg.sender */\n      caller\n        /* \"contracts/main.sol\":1658:1684  participantsId[msg.sender] */\n      0xffffffffffffffffffffffffffffffffffffffff\n      and\n      0xffffffffffffffffffffffffffffffffffffffff\n      and\n      dup2\n      mstore\n      0x20\n      add\n      swap1\n      dup2\n      mstore\n      0x20\n      add\n      0x00\n      keccak256\n        /* \"contracts/main.sol\":1658:1699  participantsId[msg.sender]=newParticipant */\n      0x00\n      dup3\n      add\n      mload\n      dup2\n      0x00\n      add\n      swap1\n      dup1\n      mload\n      swap1\n      0x20\n      add\n      swap1\n      tag_139\n      swap3\n      swap2\n      swap1\n      tag_71\n      jump\t// in\n    tag_139:\n      pop\n      0x20\n      dup3\n      add\n      mload\n      dup2\n      0x01\n      add\n      sstore\n      0x40\n      dup3\n      add\n      mload\n      dup2\n      0x02\n      add\n      exp(0x0100, 0x00)\n      dup2\n      sload\n      dup2\n      0xff\n      mul\n      not\n      and\n      swap1\n      dup4\n      0x03\n      dup2\n      gt\n      iszero\n      tag_140\n      jumpi\n      mstore(0x00, 0x4e487b7100000000000000000000000000000000000000000000000000000000)\n      mstore(0x04, 0x21)\n      revert(0x00, 0x24)\n    tag_140:\n      mul\n      or\n      swap1\n      sstore\n      pop\n      0x60\n      dup3\n      add\n      mload\n      dup2\n      0x02\n      add\n      exp(0x0100, 0x01)\n      dup2\n      sload\n      dup2\n      0xffffffffffffffffffffffffffffffffffffffff\n      mul\n      not\n      and\n      swap1\n      dup4\n      0xffffffffffffffffffffffffffffffffffffffff\n      and\n      mul\n      or\n      swap1\n      sstore\n      pop\n      0x80\n      dup3\n      add\n      mload\n      dup2\n      0x03\n      add\n      sstore\n      swap1\n      pop\n      pop\n        /* \"contracts/main.sol\":1716:1717  1 */\n      0x01\n        /* \"contracts/main.sol\":1713:1715  pc */\n      sload(0x02)\n        /* \"contracts/main.sol\":1713:1717  pc+1 */\n      tag_141\n      swap2\n      swap1\n      tag_76\n      jump\t// in\n    tag_141:\n        /* \"contracts/main.sol\":1710:1712  pc */\n      0x02\n        /* \"contracts/main.sol\":1710:1717  pc=pc+1 */\n      dup2\n      swap1\n      sstore\n      pop\n        /* \"contracts/main.sol\":1286:1727  function addManufacturer(string memory _uname) public {\r... */\n      pop\n      pop\n      jump\t// out\n        /* \"contracts/main.sol\":2136:2292  function avaliableforsale(uint _id) public productowner(_id)\r... */\n    tag_64:\n        /* \"contracts/main.sol\":2192:2195  _id */\n      dup1\n        /* \"contracts/modifier.sol\":1412:1422  msg.sender */\n      caller\n        /* \"contracts/modifier.sol\":1388:1422  Items[_id].itemOwner == msg.sender */\n      0xffffffffffffffffffffffffffffffffffffffff\n      and\n        /* \"contracts/modifier.sol\":1388:1393  Items */\n      0x01\n        /* \"contracts/modifier.sol\":1388:1398  Items[_id] */\n      0x00\n        /* \"contracts/modifier.sol\":1394:1397  _id */\n      dup4\n        /* \"contracts/modifier.sol\":1388:1398  Items[_id] */\n      dup2\n      mstore\n      0x20\n      add\n      swap1\n      dup2\n      mstore\n      0x20\n      add\n      0x00\n      keccak256\n        /* \"contracts/modifier.sol\":1388:1408  Items[_id].itemOwner */\n      0x02\n      add\n      0x00\n      swap1\n      sload\n      swap1\n      0x0100\n      exp\n      swap1\n      div\n      0xffffffffffffffffffffffffffffffffffffffff\n      and\n        /* \"contracts/modifier.sol\":1388:1422  Items[_id].itemOwner == msg.sender */\n      0xffffffffffffffffffffffffffffffffffffffff\n      and\n      eq\n        /* \"contracts/modifier.sol\":1380:1460  require(Items[_id].itemOwner == msg.sender ,\"you are not owner of this product\") */\n      tag_143\n      jumpi\n      mload(0x40)\n      0x08c379a000000000000000000000000000000000000000000000000000000000\n      dup2\n      mstore\n      0x04\n      add\n      tag_144\n      swap1\n      tag_145\n      jump\t// in\n    tag_144:\n      mload(0x40)\n      dup1\n      swap2\n      sub\n      swap1\n      revert\n    tag_143:\n        /* \"contracts/main.sol\":2239:2252  state.ForSale */\n      0x01\n        /* \"contracts/main.sol\":2213:2218  Items */\n      dup1\n        /* \"contracts/main.sol\":2213:2223  Items[_id] */\n      0x00\n        /* \"contracts/main.sol\":2219:2222  _id */\n      dup5\n        /* \"contracts/main.sol\":2213:2223  Items[_id] */\n      dup2\n      mstore\n      0x20\n      add\n      swap1\n      dup2\n      mstore\n      0x20\n      add\n      0x00\n      keccak256\n        /* \"contracts/main.sol\":2213:2236  Items[_id].productState */\n      0x02\n      add\n      0x14\n        /* \"contracts/main.sol\":2213:2252  Items[_id].productState = state.ForSale */\n      0x0100\n      exp\n      dup2\n      sload\n      dup2\n      0xff\n      mul\n      not\n      and\n      swap1\n      dup4\n      0x06\n      dup2\n      gt\n      iszero\n      tag_147\n      jumpi\n      mstore(0x00, 0x4e487b7100000000000000000000000000000000000000000000000000000000)\n      mstore(0x04, 0x21)\n      revert(0x00, 0x24)\n    tag_147:\n      mul\n      or\n      swap1\n      sstore\n      pop\n        /* \"contracts/main.sol\":2268:2284  openForSale(_id) */\n      0x15f51416bf6f180a7f06ab542b87dacc1363e503b8df75d711f9aaedc5c48a70\n        /* \"contracts/main.sol\":2280:2283  _id */\n      dup3\n        /* \"contracts/main.sol\":2268:2284  openForSale(_id) */\n      mload(0x40)\n      tag_148\n      swap2\n      swap1\n      tag_149\n      jump\t// in\n    tag_148:\n      mload(0x40)\n      dup1\n      swap2\n      sub\n      swap1\n      log1\n        /* \"contracts/main.sol\":2136:2292  function avaliableforsale(uint _id) public productowner(_id)\r... */\n      pop\n      pop\n      jump\t// out\n    tag_67:\n      mload(0x40)\n      dup1\n      0xa0\n      add\n      0x40\n      mstore\n      dup1\n      0x60\n      dup2\n      mstore\n      0x20\n      add\n      0x00\n      dup2\n      mstore\n      0x20\n      add\n      0x00\n      0x03\n      dup2\n      gt\n      iszero\n      tag_150\n      jumpi\n      mstore(0x00, 0x4e487b7100000000000000000000000000000000000000000000000000000000)\n      mstore(0x04, 0x21)\n      revert(0x00, 0x24)\n    tag_150:\n      dup2\n      mstore\n      0x20\n      add\n      and(0xffffffffffffffffffffffffffffffffffffffff, 0x00)\n      dup2\n      mstore\n      0x20\n      add\n      0x00\n      dup2\n      mstore\n      pop\n      swap1\n      jump\t// out\n    tag_71:\n      dup3\n      dup1\n      sload\n      tag_151\n      swap1\n      tag_78\n      jump\t// in\n    tag_151:\n      swap1\n      0x00\n      mstore\n      keccak256(0x00, 0x20)\n      swap1\n      0x1f\n      add\n      0x20\n      swap1\n      div\n      dup2\n      add\n      swap3\n      dup3\n      tag_153\n      jumpi\n      0x00\n      dup6\n      sstore\n      jump(tag_152)\n    tag_153:\n      dup3\n      0x1f\n      lt\n      tag_154\n      jumpi\n      dup1\n      mload\n      not(0xff)\n      and\n      dup4\n      dup1\n      add\n      or\n      dup6\n      sstore\n      jump(tag_152)\n    tag_154:\n      dup3\n      dup1\n      add\n      0x01\n      add\n      dup6\n      sstore\n      dup3\n      iszero\n      tag_152\n      jumpi\n      swap2\n      dup3\n      add\n    tag_155:\n      dup3\n      dup2\n      gt\n      iszero\n      tag_156\n      jumpi\n      dup3\n      mload\n      dup3\n      sstore\n      swap2\n      0x20\n      add\n      swap2\n      swap1\n      0x01\n      add\n      swap1\n      jump(tag_155)\n    tag_156:\n    tag_152:\n      pop\n      swap1\n      pop\n      tag_157\n      swap2\n      swap1\n      tag_158\n      jump\t// in\n    tag_157:\n      pop\n      swap1\n      jump\t// out\n    tag_105:\n      mload(0x40)\n      dup1\n      0xa0\n      add\n      0x40\n      mstore\n      dup1\n      0x60\n      dup2\n      mstore\n      0x20\n      add\n      0x00\n      dup2\n      mstore\n      0x20\n      add\n      and(0xffffffffffffffffffffffffffffffffffffffff, 0x00)\n      dup2\n      mstore\n      0x20\n      add\n      0x00\n      0x06\n      dup2\n      gt\n      iszero\n      tag_159\n      jumpi\n      mstore(0x00, 0x4e487b7100000000000000000000000000000000000000000000000000000000)\n      mstore(0x04, 0x21)\n      revert(0x00, 0x24)\n    tag_159:\n      dup2\n      mstore\n      0x20\n      add\n      0x00\n      dup2\n      mstore\n      pop\n      swap1\n      jump\t// out\n    tag_158:\n    tag_160:\n      dup1\n      dup3\n      gt\n      iszero\n      tag_161\n      jumpi\n      0x00\n      dup2\n      0x00\n      swap1\n      sstore\n      pop\n      0x01\n      add\n      jump(tag_160)\n    tag_161:\n      pop\n      swap1\n      jump\t// out\n        /* \"#utility.yul\":7:351   */\n    tag_163:\n      0x00\n        /* \"#utility.yul\":110:175   */\n      tag_165\n        /* \"#utility.yul\":125:174   */\n      tag_166\n        /* \"#utility.yul\":167:173   */\n      dup5\n        /* \"#utility.yul\":125:174   */\n      tag_167\n      jump\t// in\n    tag_166:\n        /* \"#utility.yul\":110:175   */\n      tag_168\n      jump\t// in\n    tag_165:\n        /* \"#utility.yul\":101:175   */\n      swap1\n      pop\n        /* \"#utility.yul\":198:204   */\n      dup3\n        /* \"#utility.yul\":191:196   */\n      dup2\n        /* \"#utility.yul\":184:205   */\n      mstore\n        /* \"#utility.yul\":236:240   */\n      0x20\n        /* \"#utility.yul\":229:234   */\n      dup2\n        /* \"#utility.yul\":225:241   */\n      add\n        /* \"#utility.yul\":274:277   */\n      dup5\n        /* \"#utility.yul\":265:271   */\n      dup5\n        /* \"#utility.yul\":260:263   */\n      dup5\n        /* \"#utility.yul\":256:272   */\n      add\n        /* \"#utility.yul\":253:278   */\n      gt\n        /* \"#utility.yul\":250:252   */\n      iszero\n      tag_169\n      jumpi\n        /* \"#utility.yul\":291:292   */\n      0x00\n        /* \"#utility.yul\":288:289   */\n      dup1\n        /* \"#utility.yul\":281:293   */\n      revert\n        /* \"#utility.yul\":250:252   */\n    tag_169:\n        /* \"#utility.yul\":304:345   */\n      tag_170\n        /* \"#utility.yul\":338:344   */\n      dup5\n        /* \"#utility.yul\":333:336   */\n      dup3\n        /* \"#utility.yul\":328:331   */\n      dup6\n        /* \"#utility.yul\":304:345   */\n      tag_171\n      jump\t// in\n    tag_170:\n        /* \"#utility.yul\":91:351   */\n      pop\n      swap4\n      swap3\n      pop\n      pop\n      pop\n      jump\t// out\n        /* \"#utility.yul\":357:496   */\n    tag_172:\n      0x00\n        /* \"#utility.yul\":441:447   */\n      dup2\n        /* \"#utility.yul\":428:448   */\n      calldataload\n        /* \"#utility.yul\":419:448   */\n      swap1\n      pop\n        /* \"#utility.yul\":457:490   */\n      tag_174\n        /* \"#utility.yul\":484:489   */\n      dup2\n        /* \"#utility.yul\":457:490   */\n      tag_175\n      jump\t// in\n    tag_174:\n        /* \"#utility.yul\":409:496   */\n      swap3\n      swap2\n      pop\n      pop\n      jump\t// out\n        /* \"#utility.yul\":516:789   */\n    tag_176:\n      0x00\n        /* \"#utility.yul\":621:624   */\n      dup3\n        /* \"#utility.yul\":614:618   */\n      0x1f\n        /* \"#utility.yul\":606:612   */\n      dup4\n        /* \"#utility.yul\":602:619   */\n      add\n        /* \"#utility.yul\":598:625   */\n      slt\n        /* \"#utility.yul\":588:590   */\n      tag_178\n      jumpi\n        /* \"#utility.yul\":639:640   */\n      0x00\n        /* \"#utility.yul\":636:637   */\n      dup1\n        /* \"#utility.yul\":629:641   */\n      revert\n        /* \"#utility.yul\":588:590   */\n    tag_178:\n        /* \"#utility.yul\":679:685   */\n      dup2\n        /* \"#utility.yul\":666:686   */\n      calldataload\n        /* \"#utility.yul\":704:783   */\n      tag_179\n        /* \"#utility.yul\":779:782   */\n      dup5\n        /* \"#utility.yul\":771:777   */\n      dup3\n        /* \"#utility.yul\":764:768   */\n      0x20\n        /* \"#utility.yul\":756:762   */\n      dup7\n        /* \"#utility.yul\":752:769   */\n      add\n        /* \"#utility.yul\":704:783   */\n      tag_163\n      jump\t// in\n    tag_179:\n        /* \"#utility.yul\":695:783   */\n      swap2\n      pop\n        /* \"#utility.yul\":578:789   */\n      pop\n      swap3\n      swap2\n      pop\n      pop\n      jump\t// out\n        /* \"#utility.yul\":795:934   */\n    tag_180:\n      0x00\n        /* \"#utility.yul\":879:885   */\n      dup2\n        /* \"#utility.yul\":866:886   */\n      calldataload\n        /* \"#utility.yul\":857:886   */\n      swap1\n      pop\n        /* \"#utility.yul\":895:928   */\n      tag_182\n        /* \"#utility.yul\":922:927   */\n      dup2\n        /* \"#utility.yul\":895:928   */\n      tag_183\n      jump\t// in\n    tag_182:\n        /* \"#utility.yul\":847:934   */\n      swap3\n      swap2\n      pop\n      pop\n      jump\t// out\n        /* \"#utility.yul\":940:1315   */\n    tag_18:\n      0x00\n        /* \"#utility.yul\":1058:1060   */\n      0x20\n        /* \"#utility.yul\":1046:1055   */\n      dup3\n        /* \"#utility.yul\":1037:1044   */\n      dup5\n        /* \"#utility.yul\":1033:1056   */\n      sub\n        /* \"#utility.yul\":1029:1061   */\n      slt\n        /* \"#utility.yul\":1026:1028   */\n      iszero\n      tag_185\n      jumpi\n        /* \"#utility.yul\":1074:1075   */\n      0x00\n        /* \"#utility.yul\":1071:1072   */\n      dup1\n        /* \"#utility.yul\":1064:1076   */\n      revert\n        /* \"#utility.yul\":1026:1028   */\n    tag_185:\n        /* \"#utility.yul\":1145:1146   */\n      0x00\n        /* \"#utility.yul\":1134:1143   */\n      dup3\n        /* \"#utility.yul\":1130:1147   */\n      add\n        /* \"#utility.yul\":1117:1148   */\n      calldataload\n        /* \"#utility.yul\":1175:1193   */\n      0xffffffffffffffff\n        /* \"#utility.yul\":1167:1173   */\n      dup2\n        /* \"#utility.yul\":1164:1194   */\n      gt\n        /* \"#utility.yul\":1161:1163   */\n      iszero\n      tag_186\n      jumpi\n        /* \"#utility.yul\":1207:1208   */\n      0x00\n        /* \"#utility.yul\":1204:1205   */\n      dup1\n        /* \"#utility.yul\":1197:1209   */\n      revert\n        /* \"#utility.yul\":1161:1163   */\n    tag_186:\n        /* \"#utility.yul\":1235:1298   */\n      tag_187\n        /* \"#utility.yul\":1290:1297   */\n      dup5\n        /* \"#utility.yul\":1281:1287   */\n      dup3\n        /* \"#utility.yul\":1270:1279   */\n      dup6\n        /* \"#utility.yul\":1266:1288   */\n      add\n        /* \"#utility.yul\":1235:1298   */\n      tag_176\n      jump\t// in\n    tag_187:\n        /* \"#utility.yul\":1225:1298   */\n      swap2\n      pop\n        /* \"#utility.yul\":1088:1308   */\n      pop\n        /* \"#utility.yul\":1016:1315   */\n      swap3\n      swap2\n      pop\n      pop\n      jump\t// out\n        /* \"#utility.yul\":1321:1841   */\n    tag_53:\n      0x00\n      dup1\n        /* \"#utility.yul\":1456:1458   */\n      0x40\n        /* \"#utility.yul\":1444:1453   */\n      dup4\n        /* \"#utility.yul\":1435:1442   */\n      dup6\n        /* \"#utility.yul\":1431:1454   */\n      sub\n        /* \"#utility.yul\":1427:1459   */\n      slt\n        /* \"#utility.yul\":1424:1426   */\n      iszero\n      tag_189\n      jumpi\n        /* \"#utility.yul\":1472:1473   */\n      0x00\n        /* \"#utility.yul\":1469:1470   */\n      dup1\n        /* \"#utility.yul\":1462:1474   */\n      revert\n        /* \"#utility.yul\":1424:1426   */\n    tag_189:\n        /* \"#utility.yul\":1543:1544   */\n      0x00\n        /* \"#utility.yul\":1532:1541   */\n      dup4\n        /* \"#utility.yul\":1528:1545   */\n      add\n        /* \"#utility.yul\":1515:1546   */\n      calldataload\n        /* \"#utility.yul\":1573:1591   */\n      0xffffffffffffffff\n        /* \"#utility.yul\":1565:1571   */\n      dup2\n        /* \"#utility.yul\":1562:1592   */\n      gt\n        /* \"#utility.yul\":1559:1561   */\n      iszero\n      tag_190\n      jumpi\n        /* \"#utility.yul\":1605:1606   */\n      0x00\n        /* \"#utility.yul\":1602:1603   */\n      dup1\n        /* \"#utility.yul\":1595:1607   */\n      revert\n        /* \"#utility.yul\":1559:1561   */\n    tag_190:\n        /* \"#utility.yul\":1633:1696   */\n      tag_191\n        /* \"#utility.yul\":1688:1695   */\n      dup6\n        /* \"#utility.yul\":1679:1685   */\n      dup3\n        /* \"#utility.yul\":1668:1677   */\n      dup7\n        /* \"#utility.yul\":1664:1686   */\n      add\n        /* \"#utility.yul\":1633:1696   */\n      tag_176\n      jump\t// in\n    tag_191:\n        /* \"#utility.yul\":1623:1696   */\n      swap3\n      pop\n        /* \"#utility.yul\":1486:1706   */\n      pop\n        /* \"#utility.yul\":1745:1747   */\n      0x20\n        /* \"#utility.yul\":1771:1824   */\n      tag_192\n        /* \"#utility.yul\":1816:1823   */\n      dup6\n        /* \"#utility.yul\":1807:1813   */\n      dup3\n        /* \"#utility.yul\":1796:1805   */\n      dup7\n        /* \"#utility.yul\":1792:1814   */\n      add\n        /* \"#utility.yul\":1771:1824   */\n      tag_180\n      jump\t// in\n    tag_192:\n        /* \"#utility.yul\":1761:1824   */\n      swap2\n      pop\n        /* \"#utility.yul\":1716:1834   */\n      pop\n        /* \"#utility.yul\":1414:1841   */\n      swap3\n      pop\n      swap3\n      swap1\n      pop\n      jump\t// out\n        /* \"#utility.yul\":1847:2109   */\n    tag_22:\n      0x00\n        /* \"#utility.yul\":1955:1957   */\n      0x20\n        /* \"#utility.yul\":1943:1952   */\n      dup3\n        /* \"#utility.yul\":1934:1941   */\n      dup5\n        /* \"#utility.yul\":1930:1953   */\n      sub\n        /* \"#utility.yul\":1926:1958   */\n      slt\n        /* \"#utility.yul\":1923:1925   */\n      iszero\n      tag_194\n      jumpi\n        /* \"#utility.yul\":1971:1972   */\n      0x00\n        /* \"#utility.yul\":1968:1969   */\n      dup1\n        /* \"#utility.yul\":1961:1973   */\n      revert\n        /* \"#utility.yul\":1923:1925   */\n    tag_194:\n        /* \"#utility.yul\":2014:2015   */\n      0x00\n        /* \"#utility.yul\":2039:2092   */\n      tag_195\n        /* \"#utility.yul\":2084:2091   */\n      dup5\n        /* \"#utility.yul\":2075:2081   */\n      dup3\n        /* \"#utility.yul\":2064:2073   */\n      dup6\n        /* \"#utility.yul\":2060:2082   */\n      add\n        /* \"#utility.yul\":2039:2092   */\n      tag_180\n      jump\t// in\n    tag_195:\n        /* \"#utility.yul\":2029:2092   */\n      swap2\n      pop\n        /* \"#utility.yul\":1985:2102   */\n      pop\n        /* \"#utility.yul\":1913:2109   */\n      swap3\n      swap2\n      pop\n      pop\n      jump\t// out\n        /* \"#utility.yul\":2115:2522   */\n    tag_44:\n      0x00\n      dup1\n        /* \"#utility.yul\":2240:2242   */\n      0x40\n        /* \"#utility.yul\":2228:2237   */\n      dup4\n        /* \"#utility.yul\":2219:2226   */\n      dup6\n        /* \"#utility.yul\":2215:2238   */\n      sub\n        /* \"#utility.yul\":2211:2243   */\n      slt\n        /* \"#utility.yul\":2208:2210   */\n      iszero\n      tag_197\n      jumpi\n        /* \"#utility.yul\":2256:2257   */\n      0x00\n        /* \"#utility.yul\":2253:2254   */\n      dup1\n        /* \"#utility.yul\":2246:2258   */\n      revert\n        /* \"#utility.yul\":2208:2210   */\n    tag_197:\n        /* \"#utility.yul\":2299:2300   */\n      0x00\n        /* \"#utility.yul\":2324:2377   */\n      tag_198\n        /* \"#utility.yul\":2369:2376   */\n      dup6\n        /* \"#utility.yul\":2360:2366   */\n      dup3\n        /* \"#utility.yul\":2349:2358   */\n      dup7\n        /* \"#utility.yul\":2345:2367   */\n      add\n        /* \"#utility.yul\":2324:2377   */\n      tag_180\n      jump\t// in\n    tag_198:\n        /* \"#utility.yul\":2314:2377   */\n      swap3\n      pop\n        /* \"#utility.yul\":2270:2387   */\n      pop\n        /* \"#utility.yul\":2426:2428   */\n      0x20\n        /* \"#utility.yul\":2452:2505   */\n      tag_199\n        /* \"#utility.yul\":2497:2504   */\n      dup6\n        /* \"#utility.yul\":2488:2494   */\n      dup3\n        /* \"#utility.yul\":2477:2486   */\n      dup7\n        /* \"#utility.yul\":2473:2495   */\n      add\n        /* \"#utility.yul\":2452:2505   */\n      tag_172\n      jump\t// in\n    tag_199:\n        /* \"#utility.yul\":2442:2505   */\n      swap2\n      pop\n        /* \"#utility.yul\":2397:2515   */\n      pop\n        /* \"#utility.yul\":2198:2522   */\n      swap3\n      pop\n      swap3\n      swap1\n      pop\n      jump\t// out\n        /* \"#utility.yul\":2528:2636   */\n    tag_200:\n        /* \"#utility.yul\":2605:2629   */\n      tag_202\n        /* \"#utility.yul\":2623:2628   */\n      dup2\n        /* \"#utility.yul\":2605:2629   */\n      tag_203\n      jump\t// in\n    tag_202:\n        /* \"#utility.yul\":2600:2603   */\n      dup3\n        /* \"#utility.yul\":2593:2630   */\n      mstore\n        /* \"#utility.yul\":2583:2636   */\n      pop\n      pop\n      jump\t// out\n        /* \"#utility.yul\":2642:2760   */\n    tag_204:\n        /* \"#utility.yul\":2729:2753   */\n      tag_206\n        /* \"#utility.yul\":2747:2752   */\n      dup2\n        /* \"#utility.yul\":2729:2753   */\n      tag_203\n      jump\t// in\n    tag_206:\n        /* \"#utility.yul\":2724:2727   */\n      dup3\n        /* \"#utility.yul\":2717:2754   */\n      mstore\n        /* \"#utility.yul\":2707:2760   */\n      pop\n      pop\n      jump\t// out\n        /* \"#utility.yul\":2766:2899   */\n    tag_207:\n        /* \"#utility.yul\":2849:2892   */\n      tag_209\n        /* \"#utility.yul\":2886:2891   */\n      dup2\n        /* \"#utility.yul\":2849:2892   */\n      tag_210\n      jump\t// in\n    tag_209:\n        /* \"#utility.yul\":2844:2847   */\n      dup3\n        /* \"#utility.yul\":2837:2893   */\n      mstore\n        /* \"#utility.yul\":2827:2899   */\n      pop\n      pop\n      jump\t// out\n        /* \"#utility.yul\":2905:3048   */\n    tag_211:\n        /* \"#utility.yul\":2998:3041   */\n      tag_213\n        /* \"#utility.yul\":3035:3040   */\n      dup2\n        /* \"#utility.yul\":2998:3041   */\n      tag_210\n      jump\t// in\n    tag_213:\n        /* \"#utility.yul\":2993:2996   */\n      dup3\n        /* \"#utility.yul\":2986:3042   */\n      mstore\n        /* \"#utility.yul\":2976:3048   */\n      pop\n      pop\n      jump\t// out\n        /* \"#utility.yul\":3054:3197   */\n    tag_214:\n        /* \"#utility.yul\":3142:3190   */\n      tag_216\n        /* \"#utility.yul\":3184:3189   */\n      dup2\n        /* \"#utility.yul\":3142:3190   */\n      tag_217\n      jump\t// in\n    tag_216:\n        /* \"#utility.yul\":3137:3140   */\n      dup3\n        /* \"#utility.yul\":3130:3191   */\n      mstore\n        /* \"#utility.yul\":3120:3197   */\n      pop\n      pop\n      jump\t// out\n        /* \"#utility.yul\":3203:3356   */\n    tag_218:\n        /* \"#utility.yul\":3301:3349   */\n      tag_220\n        /* \"#utility.yul\":3343:3348   */\n      dup2\n        /* \"#utility.yul\":3301:3349   */\n      tag_217\n      jump\t// in\n    tag_220:\n        /* \"#utility.yul\":3296:3299   */\n      dup3\n        /* \"#utility.yul\":3289:3350   */\n      mstore\n        /* \"#utility.yul\":3279:3356   */\n      pop\n      pop\n      jump\t// out\n        /* \"#utility.yul\":3362:3706   */\n    tag_221:\n      0x00\n        /* \"#utility.yul\":3468:3507   */\n      tag_223\n        /* \"#utility.yul\":3501:3506   */\n      dup3\n        /* \"#utility.yul\":3468:3507   */\n      tag_224\n      jump\t// in\n    tag_223:\n        /* \"#utility.yul\":3523:3584   */\n      tag_225\n        /* \"#utility.yul\":3577:3583   */\n      dup2\n        /* \"#utility.yul\":3572:3575   */\n      dup6\n        /* \"#utility.yul\":3523:3584   */\n      tag_226\n      jump\t// in\n    tag_225:\n        /* \"#utility.yul\":3516:3584   */\n      swap4\n      pop\n        /* \"#utility.yul\":3593:3645   */\n      tag_227\n        /* \"#utility.yul\":3638:3644   */\n      dup2\n        /* \"#utility.yul\":3633:3636   */\n      dup6\n        /* \"#utility.yul\":3626:3630   */\n      0x20\n        /* \"#utility.yul\":3619:3624   */\n      dup7\n        /* \"#utility.yul\":3615:3631   */\n      add\n        /* \"#utility.yul\":3593:3645   */\n      tag_228\n      jump\t// in\n    tag_227:\n        /* \"#utility.yul\":3670:3699   */\n      tag_229\n        /* \"#utility.yul\":3692:3698   */\n      dup2\n        /* \"#utility.yul\":3670:3699   */\n      tag_230\n      jump\t// in\n    tag_229:\n        /* \"#utility.yul\":3665:3668   */\n      dup5\n        /* \"#utility.yul\":3661:3700   */\n      add\n        /* \"#utility.yul\":3654:3700   */\n      swap2\n      pop\n        /* \"#utility.yul\":3444:3706   */\n      pop\n      swap3\n      swap2\n      pop\n      pop\n      jump\t// out\n        /* \"#utility.yul\":3712:4076   */\n    tag_231:\n      0x00\n        /* \"#utility.yul\":3828:3867   */\n      tag_233\n        /* \"#utility.yul\":3861:3866   */\n      dup3\n        /* \"#utility.yul\":3828:3867   */\n      tag_224\n      jump\t// in\n    tag_233:\n        /* \"#utility.yul\":3883:3954   */\n      tag_234\n        /* \"#utility.yul\":3947:3953   */\n      dup2\n        /* \"#utility.yul\":3942:3945   */\n      dup6\n        /* \"#utility.yul\":3883:3954   */\n      tag_235\n      jump\t// in\n    tag_234:\n        /* \"#utility.yul\":3876:3954   */\n      swap4\n      pop\n        /* \"#utility.yul\":3963:4015   */\n      tag_236\n        /* \"#utility.yul\":4008:4014   */\n      dup2\n        /* \"#utility.yul\":4003:4006   */\n      dup6\n        /* \"#utility.yul\":3996:4000   */\n      0x20\n        /* \"#utility.yul\":3989:3994   */\n      dup7\n        /* \"#utility.yul\":3985:4001   */\n      add\n        /* \"#utility.yul\":3963:4015   */\n      tag_228\n      jump\t// in\n    tag_236:\n        /* \"#utility.yul\":4040:4069   */\n      tag_237\n        /* \"#utility.yul\":4062:4068   */\n      dup2\n        /* \"#utility.yul\":4040:4069   */\n      tag_230\n      jump\t// in\n    tag_237:\n        /* \"#utility.yul\":4035:4038   */\n      dup5\n        /* \"#utility.yul\":4031:4070   */\n      add\n        /* \"#utility.yul\":4024:4070   */\n      swap2\n      pop\n        /* \"#utility.yul\":3804:4076   */\n      pop\n      swap3\n      swap2\n      pop\n      pop\n      jump\t// out\n        /* \"#utility.yul\":4082:4406   */\n    tag_238:\n      0x00\n        /* \"#utility.yul\":4245:4312   */\n      tag_240\n        /* \"#utility.yul\":4309:4311   */\n      0x1a\n        /* \"#utility.yul\":4304:4307   */\n      dup4\n        /* \"#utility.yul\":4245:4312   */\n      tag_235\n      jump\t// in\n    tag_240:\n        /* \"#utility.yul\":4238:4312   */\n      swap2\n      pop\n        /* \"#utility.yul\":4342:4370   */\n      0x796f752063616e6e6f7420616464206e65772070726f64756374000000000000\n        /* \"#utility.yul\":4338:4339   */\n      0x00\n        /* \"#utility.yul\":4333:4336   */\n      dup4\n        /* \"#utility.yul\":4329:4340   */\n      add\n        /* \"#utility.yul\":4322:4371   */\n      mstore\n        /* \"#utility.yul\":4397:4399   */\n      0x20\n        /* \"#utility.yul\":4392:4395   */\n      dup3\n        /* \"#utility.yul\":4388:4400   */\n      add\n        /* \"#utility.yul\":4381:4400   */\n      swap1\n      pop\n        /* \"#utility.yul\":4228:4406   */\n      swap2\n      swap1\n      pop\n      jump\t// out\n        /* \"#utility.yul\":4412:4789   */\n    tag_241:\n      0x00\n        /* \"#utility.yul\":4575:4642   */\n      tag_243\n        /* \"#utility.yul\":4639:4641   */\n      0x2d\n        /* \"#utility.yul\":4634:4637   */\n      dup4\n        /* \"#utility.yul\":4575:4642   */\n      tag_235\n      jump\t// in\n    tag_243:\n        /* \"#utility.yul\":4568:4642   */\n      swap2\n      pop\n        /* \"#utility.yul\":4672:4706   */\n      0x796f7520646f6e74206861766520656e6f756768206d6f6e657920746f206275\n        /* \"#utility.yul\":4668:4669   */\n      0x00\n        /* \"#utility.yul\":4663:4666   */\n      dup4\n        /* \"#utility.yul\":4659:4670   */\n      add\n        /* \"#utility.yul\":4652:4707   */\n      mstore\n        /* \"#utility.yul\":4738:4753   */\n      0x79207468652070726f6475637400000000000000000000000000000000000000\n        /* \"#utility.yul\":4733:4735   */\n      0x20\n        /* \"#utility.yul\":4728:4731   */\n      dup4\n        /* \"#utility.yul\":4724:4736   */\n      add\n        /* \"#utility.yul\":4717:4754   */\n      mstore\n        /* \"#utility.yul\":4780:4782   */\n      0x40\n        /* \"#utility.yul\":4775:4778   */\n      dup3\n        /* \"#utility.yul\":4771:4783   */\n      add\n        /* \"#utility.yul\":4764:4783   */\n      swap1\n      pop\n        /* \"#utility.yul\":4558:4789   */\n      swap2\n      swap1\n      pop\n      jump\t// out\n        /* \"#utility.yul\":4795:5160   */\n    tag_244:\n      0x00\n        /* \"#utility.yul\":4958:5025   */\n      tag_246\n        /* \"#utility.yul\":5022:5024   */\n      0x21\n        /* \"#utility.yul\":5017:5020   */\n      dup4\n        /* \"#utility.yul\":4958:5025   */\n      tag_235\n      jump\t// in\n    tag_246:\n        /* \"#utility.yul\":4951:5025   */\n      swap2\n      pop\n        /* \"#utility.yul\":5055:5089   */\n      0x796f7520617265206e6f74206f776e6572206f6620746869732070726f647563\n        /* \"#utility.yul\":5051:5052   */\n      0x00\n        /* \"#utility.yul\":5046:5049   */\n      dup4\n        /* \"#utility.yul\":5042:5053   */\n      add\n        /* \"#utility.yul\":5035:5090   */\n      mstore\n        /* \"#utility.yul\":5121:5124   */\n      0x7400000000000000000000000000000000000000000000000000000000000000\n        /* \"#utility.yul\":5116:5118   */\n      0x20\n        /* \"#utility.yul\":5111:5114   */\n      dup4\n        /* \"#utility.yul\":5107:5119   */\n      add\n        /* \"#utility.yul\":5100:5125   */\n      mstore\n        /* \"#utility.yul\":5151:5153   */\n      0x40\n        /* \"#utility.yul\":5146:5149   */\n      dup3\n        /* \"#utility.yul\":5142:5154   */\n      add\n        /* \"#utility.yul\":5135:5154   */\n      swap1\n      pop\n        /* \"#utility.yul\":4941:5160   */\n      swap2\n      swap1\n      pop\n      jump\t// out\n        /* \"#utility.yul\":5210:6360   */\n    tag_247:\n      0x00\n        /* \"#utility.yul\":5355:5359   */\n      0xa0\n        /* \"#utility.yul\":5350:5353   */\n      dup4\n        /* \"#utility.yul\":5346:5360   */\n      add\n        /* \"#utility.yul\":5450:5454   */\n      0x00\n        /* \"#utility.yul\":5443:5448   */\n      dup4\n        /* \"#utility.yul\":5439:5455   */\n      add\n        /* \"#utility.yul\":5433:5456   */\n      mload\n        /* \"#utility.yul\":5503:5506   */\n      dup5\n        /* \"#utility.yul\":5497:5501   */\n      dup3\n        /* \"#utility.yul\":5493:5507   */\n      sub\n        /* \"#utility.yul\":5486:5490   */\n      0x00\n        /* \"#utility.yul\":5481:5484   */\n      dup7\n        /* \"#utility.yul\":5477:5491   */\n      add\n        /* \"#utility.yul\":5470:5508   */\n      mstore\n        /* \"#utility.yul\":5529:5602   */\n      tag_249\n        /* \"#utility.yul\":5597:5601   */\n      dup3\n        /* \"#utility.yul\":5583:5595   */\n      dup3\n        /* \"#utility.yul\":5529:5602   */\n      tag_221\n      jump\t// in\n    tag_249:\n        /* \"#utility.yul\":5521:5602   */\n      swap2\n      pop\n        /* \"#utility.yul\":5370:5613   */\n      pop\n        /* \"#utility.yul\":5700:5704   */\n      0x20\n        /* \"#utility.yul\":5693:5698   */\n      dup4\n        /* \"#utility.yul\":5689:5705   */\n      add\n        /* \"#utility.yul\":5683:5706   */\n      mload\n        /* \"#utility.yul\":5719:5782   */\n      tag_250\n        /* \"#utility.yul\":5776:5780   */\n      0x20\n        /* \"#utility.yul\":5771:5774   */\n      dup7\n        /* \"#utility.yul\":5767:5781   */\n      add\n        /* \"#utility.yul\":5753:5765   */\n      dup3\n        /* \"#utility.yul\":5719:5782   */\n      tag_251\n      jump\t// in\n    tag_250:\n        /* \"#utility.yul\":5623:5792   */\n      pop\n        /* \"#utility.yul\":5879:5883   */\n      0x40\n        /* \"#utility.yul\":5872:5877   */\n      dup4\n        /* \"#utility.yul\":5868:5884   */\n      add\n        /* \"#utility.yul\":5862:5885   */\n      mload\n        /* \"#utility.yul\":5898:5961   */\n      tag_252\n        /* \"#utility.yul\":5955:5959   */\n      0x40\n        /* \"#utility.yul\":5950:5953   */\n      dup7\n        /* \"#utility.yul\":5946:5960   */\n      add\n        /* \"#utility.yul\":5932:5944   */\n      dup3\n        /* \"#utility.yul\":5898:5961   */\n      tag_200\n      jump\t// in\n    tag_252:\n        /* \"#utility.yul\":5802:5971   */\n      pop\n        /* \"#utility.yul\":6061:6065   */\n      0x60\n        /* \"#utility.yul\":6054:6059   */\n      dup4\n        /* \"#utility.yul\":6050:6066   */\n      add\n        /* \"#utility.yul\":6044:6067   */\n      mload\n        /* \"#utility.yul\":6080:6149   */\n      tag_253\n        /* \"#utility.yul\":6143:6147   */\n      0x60\n        /* \"#utility.yul\":6138:6141   */\n      dup7\n        /* \"#utility.yul\":6134:6148   */\n      add\n        /* \"#utility.yul\":6120:6132   */\n      dup3\n        /* \"#utility.yul\":6080:6149   */\n      tag_207\n      jump\t// in\n    tag_253:\n        /* \"#utility.yul\":5981:6159   */\n      pop\n        /* \"#utility.yul\":6241:6245   */\n      0x80\n        /* \"#utility.yul\":6234:6239   */\n      dup4\n        /* \"#utility.yul\":6230:6246   */\n      add\n        /* \"#utility.yul\":6224:6247   */\n      mload\n        /* \"#utility.yul\":6260:6323   */\n      tag_254\n        /* \"#utility.yul\":6317:6321   */\n      0x80\n        /* \"#utility.yul\":6312:6315   */\n      dup7\n        /* \"#utility.yul\":6308:6322   */\n      add\n        /* \"#utility.yul\":6294:6306   */\n      dup3\n        /* \"#utility.yul\":6260:6323   */\n      tag_251\n      jump\t// in\n    tag_254:\n        /* \"#utility.yul\":6169:6333   */\n      pop\n        /* \"#utility.yul\":6350:6354   */\n      dup1\n        /* \"#utility.yul\":6343:6354   */\n      swap2\n      pop\n        /* \"#utility.yul\":5324:6360   */\n      pop\n      swap3\n      swap2\n      pop\n      pop\n      jump\t// out\n        /* \"#utility.yul\":6438:7599   */\n    tag_255:\n      0x00\n        /* \"#utility.yul\":6599:6603   */\n      0xa0\n        /* \"#utility.yul\":6594:6597   */\n      dup4\n        /* \"#utility.yul\":6590:6604   */\n      add\n        /* \"#utility.yul\":6690:6694   */\n      0x00\n        /* \"#utility.yul\":6683:6688   */\n      dup4\n        /* \"#utility.yul\":6679:6695   */\n      add\n        /* \"#utility.yul\":6673:6696   */\n      mload\n        /* \"#utility.yul\":6743:6746   */\n      dup5\n        /* \"#utility.yul\":6737:6741   */\n      dup3\n        /* \"#utility.yul\":6733:6747   */\n      sub\n        /* \"#utility.yul\":6726:6730   */\n      0x00\n        /* \"#utility.yul\":6721:6724   */\n      dup7\n        /* \"#utility.yul\":6717:6731   */\n      add\n        /* \"#utility.yul\":6710:6748   */\n      mstore\n        /* \"#utility.yul\":6769:6842   */\n      tag_257\n        /* \"#utility.yul\":6837:6841   */\n      dup3\n        /* \"#utility.yul\":6823:6835   */\n      dup3\n        /* \"#utility.yul\":6769:6842   */\n      tag_221\n      jump\t// in\n    tag_257:\n        /* \"#utility.yul\":6761:6842   */\n      swap2\n      pop\n        /* \"#utility.yul\":6614:6853   */\n      pop\n        /* \"#utility.yul\":6937:6941   */\n      0x20\n        /* \"#utility.yul\":6930:6935   */\n      dup4\n        /* \"#utility.yul\":6926:6942   */\n      add\n        /* \"#utility.yul\":6920:6943   */\n      mload\n        /* \"#utility.yul\":6956:7019   */\n      tag_258\n        /* \"#utility.yul\":7013:7017   */\n      0x20\n        /* \"#utility.yul\":7008:7011   */\n      dup7\n        /* \"#utility.yul\":7004:7018   */\n      add\n        /* \"#utility.yul\":6990:7002   */\n      dup3\n        /* \"#utility.yul\":6956:7019   */\n      tag_251\n      jump\t// in\n    tag_258:\n        /* \"#utility.yul\":6863:7029   */\n      pop\n        /* \"#utility.yul\":7112:7116   */\n      0x40\n        /* \"#utility.yul\":7105:7110   */\n      dup4\n        /* \"#utility.yul\":7101:7117   */\n      add\n        /* \"#utility.yul\":7095:7118   */\n      mload\n        /* \"#utility.yul\":7131:7205   */\n      tag_259\n        /* \"#utility.yul\":7199:7203   */\n      0x40\n        /* \"#utility.yul\":7194:7197   */\n      dup7\n        /* \"#utility.yul\":7190:7204   */\n      add\n        /* \"#utility.yul\":7176:7188   */\n      dup3\n        /* \"#utility.yul\":7131:7205   */\n      tag_214\n      jump\t// in\n    tag_259:\n        /* \"#utility.yul\":7039:7215   */\n      pop\n        /* \"#utility.yul\":7305:7309   */\n      0x60\n        /* \"#utility.yul\":7298:7303   */\n      dup4\n        /* \"#utility.yul\":7294:7310   */\n      add\n        /* \"#utility.yul\":7288:7311   */\n      mload\n        /* \"#utility.yul\":7324:7387   */\n      tag_260\n        /* \"#utility.yul\":7381:7385   */\n      0x60\n        /* \"#utility.yul\":7376:7379   */\n      dup7\n        /* \"#utility.yul\":7372:7386   */\n      add\n        /* \"#utility.yul\":7358:7370   */\n      dup3\n        /* \"#utility.yul\":7324:7387   */\n      tag_200\n      jump\t// in\n    tag_260:\n        /* \"#utility.yul\":7225:7397   */\n      pop\n        /* \"#utility.yul\":7480:7484   */\n      0x80\n        /* \"#utility.yul\":7473:7478   */\n      dup4\n        /* \"#utility.yul\":7469:7485   */\n      add\n        /* \"#utility.yul\":7463:7486   */\n      mload\n        /* \"#utility.yul\":7499:7562   */\n      tag_261\n        /* \"#utility.yul\":7556:7560   */\n      0x80\n        /* \"#utility.yul\":7551:7554   */\n      dup7\n        /* \"#utility.yul\":7547:7561   */\n      add\n        /* \"#utility.yul\":7533:7545   */\n      dup3\n        /* \"#utility.yul\":7499:7562   */\n      tag_251\n      jump\t// in\n    tag_261:\n        /* \"#utility.yul\":7407:7572   */\n      pop\n        /* \"#utility.yul\":7589:7593   */\n      dup1\n        /* \"#utility.yul\":7582:7593   */\n      swap2\n      pop\n        /* \"#utility.yul\":6568:7599   */\n      pop\n      swap3\n      swap2\n      pop\n      pop\n      jump\t// out\n        /* \"#utility.yul\":7605:7713   */\n    tag_251:\n        /* \"#utility.yul\":7682:7706   */\n      tag_263\n        /* \"#utility.yul\":7700:7705   */\n      dup2\n        /* \"#utility.yul\":7682:7706   */\n      tag_264\n      jump\t// in\n    tag_263:\n        /* \"#utility.yul\":7677:7680   */\n      dup3\n        /* \"#utility.yul\":7670:7707   */\n      mstore\n        /* \"#utility.yul\":7660:7713   */\n      pop\n      pop\n      jump\t// out\n        /* \"#utility.yul\":7719:7837   */\n    tag_265:\n        /* \"#utility.yul\":7806:7830   */\n      tag_267\n        /* \"#utility.yul\":7824:7829   */\n      dup2\n        /* \"#utility.yul\":7806:7830   */\n      tag_264\n      jump\t// in\n    tag_267:\n        /* \"#utility.yul\":7801:7804   */\n      dup3\n        /* \"#utility.yul\":7794:7831   */\n      mstore\n        /* \"#utility.yul\":7784:7837   */\n      pop\n      pop\n      jump\t// out\n        /* \"#utility.yul\":7843:8065   */\n    tag_58:\n      0x00\n        /* \"#utility.yul\":7974:7976   */\n      0x20\n        /* \"#utility.yul\":7963:7972   */\n      dup3\n        /* \"#utility.yul\":7959:7977   */\n      add\n        /* \"#utility.yul\":7951:7977   */\n      swap1\n      pop\n        /* \"#utility.yul\":7987:8058   */\n      tag_269\n        /* \"#utility.yul\":8055:8056   */\n      0x00\n        /* \"#utility.yul\":8044:8053   */\n      dup4\n        /* \"#utility.yul\":8040:8057   */\n      add\n        /* \"#utility.yul\":8031:8037   */\n      dup5\n        /* \"#utility.yul\":7987:8058   */\n      tag_204\n      jump\t// in\n    tag_269:\n        /* \"#utility.yul\":7941:8065   */\n      swap3\n      swap2\n      pop\n      pop\n      jump\t// out\n        /* \"#utility.yul\":8071:8838   */\n    tag_25:\n      0x00\n        /* \"#utility.yul\":8340:8343   */\n      0xa0\n        /* \"#utility.yul\":8329:8338   */\n      dup3\n        /* \"#utility.yul\":8325:8344   */\n      add\n        /* \"#utility.yul\":8317:8344   */\n      swap1\n      pop\n        /* \"#utility.yul\":8390:8399   */\n      dup2\n        /* \"#utility.yul\":8384:8388   */\n      dup2\n        /* \"#utility.yul\":8380:8400   */\n      sub\n        /* \"#utility.yul\":8376:8377   */\n      0x00\n        /* \"#utility.yul\":8365:8374   */\n      dup4\n        /* \"#utility.yul\":8361:8378   */\n      add\n        /* \"#utility.yul\":8354:8401   */\n      mstore\n        /* \"#utility.yul\":8418:8496   */\n      tag_271\n        /* \"#utility.yul\":8491:8495   */\n      dup2\n        /* \"#utility.yul\":8482:8488   */\n      dup9\n        /* \"#utility.yul\":8418:8496   */\n      tag_231\n      jump\t// in\n    tag_271:\n        /* \"#utility.yul\":8410:8496   */\n      swap1\n      pop\n        /* \"#utility.yul\":8506:8578   */\n      tag_272\n        /* \"#utility.yul\":8574:8576   */\n      0x20\n        /* \"#utility.yul\":8563:8572   */\n      dup4\n        /* \"#utility.yul\":8559:8577   */\n      add\n        /* \"#utility.yul\":8550:8556   */\n      dup8\n        /* \"#utility.yul\":8506:8578   */\n      tag_265\n      jump\t// in\n    tag_272:\n        /* \"#utility.yul\":8588:8660   */\n      tag_273\n        /* \"#utility.yul\":8656:8658   */\n      0x40\n        /* \"#utility.yul\":8645:8654   */\n      dup4\n        /* \"#utility.yul\":8641:8659   */\n      add\n        /* \"#utility.yul\":8632:8638   */\n      dup7\n        /* \"#utility.yul\":8588:8660   */\n      tag_204\n      jump\t// in\n    tag_273:\n        /* \"#utility.yul\":8670:8748   */\n      tag_274\n        /* \"#utility.yul\":8744:8746   */\n      0x60\n        /* \"#utility.yul\":8733:8742   */\n      dup4\n        /* \"#utility.yul\":8729:8747   */\n      add\n        /* \"#utility.yul\":8720:8726   */\n      dup6\n        /* \"#utility.yul\":8670:8748   */\n      tag_211\n      jump\t// in\n    tag_274:\n        /* \"#utility.yul\":8758:8831   */\n      tag_275\n        /* \"#utility.yul\":8826:8829   */\n      0x80\n        /* \"#utility.yul\":8815:8824   */\n      dup4\n        /* \"#utility.yul\":8811:8830   */\n      add\n        /* \"#utility.yul\":8802:8808   */\n      dup5\n        /* \"#utility.yul\":8758:8831   */\n      tag_265\n      jump\t// in\n    tag_275:\n        /* \"#utility.yul\":8307:8838   */\n      swap7\n      swap6\n      pop\n      pop\n      pop\n      pop\n      pop\n      pop\n      jump\t// out\n        /* \"#utility.yul\":8844:9621   */\n    tag_36:\n      0x00\n        /* \"#utility.yul\":9118:9121   */\n      0xa0\n        /* \"#utility.yul\":9107:9116   */\n      dup3\n        /* \"#utility.yul\":9103:9122   */\n      add\n        /* \"#utility.yul\":9095:9122   */\n      swap1\n      pop\n        /* \"#utility.yul\":9168:9177   */\n      dup2\n        /* \"#utility.yul\":9162:9166   */\n      dup2\n        /* \"#utility.yul\":9158:9178   */\n      sub\n        /* \"#utility.yul\":9154:9155   */\n      0x00\n        /* \"#utility.yul\":9143:9152   */\n      dup4\n        /* \"#utility.yul\":9139:9156   */\n      add\n        /* \"#utility.yul\":9132:9179   */\n      mstore\n        /* \"#utility.yul\":9196:9274   */\n      tag_277\n        /* \"#utility.yul\":9269:9273   */\n      dup2\n        /* \"#utility.yul\":9260:9266   */\n      dup9\n        /* \"#utility.yul\":9196:9274   */\n      tag_231\n      jump\t// in\n    tag_277:\n        /* \"#utility.yul\":9188:9274   */\n      swap1\n      pop\n        /* \"#utility.yul\":9284:9356   */\n      tag_278\n        /* \"#utility.yul\":9352:9354   */\n      0x20\n        /* \"#utility.yul\":9341:9350   */\n      dup4\n        /* \"#utility.yul\":9337:9355   */\n      add\n        /* \"#utility.yul\":9328:9334   */\n      dup8\n        /* \"#utility.yul\":9284:9356   */\n      tag_265\n      jump\t// in\n    tag_278:\n        /* \"#utility.yul\":9366:9449   */\n      tag_279\n        /* \"#utility.yul\":9445:9447   */\n      0x40\n        /* \"#utility.yul\":9434:9443   */\n      dup4\n        /* \"#utility.yul\":9430:9448   */\n      add\n        /* \"#utility.yul\":9421:9427   */\n      dup7\n        /* \"#utility.yul\":9366:9449   */\n      tag_218\n      jump\t// in\n    tag_279:\n        /* \"#utility.yul\":9459:9531   */\n      tag_280\n        /* \"#utility.yul\":9527:9529   */\n      0x60\n        /* \"#utility.yul\":9516:9525   */\n      dup4\n        /* \"#utility.yul\":9512:9530   */\n      add\n        /* \"#utility.yul\":9503:9509   */\n      dup6\n        /* \"#utility.yul\":9459:9531   */\n      tag_204\n      jump\t// in\n    tag_280:\n        /* \"#utility.yul\":9541:9614   */\n      tag_281\n        /* \"#utility.yul\":9609:9612   */\n      0x80\n        /* \"#utility.yul\":9598:9607   */\n      dup4\n        /* \"#utility.yul\":9594:9613   */\n      add\n        /* \"#utility.yul\":9585:9591   */\n      dup5\n        /* \"#utility.yul\":9541:9614   */\n      tag_265\n      jump\t// in\n    tag_281:\n        /* \"#utility.yul\":9085:9621   */\n      swap7\n      swap6\n      pop\n      pop\n      pop\n      pop\n      pop\n      pop\n      jump\t// out\n        /* \"#utility.yul\":9627:10046   */\n    tag_124:\n      0x00\n        /* \"#utility.yul\":9831:9833   */\n      0x20\n        /* \"#utility.yul\":9820:9829   */\n      dup3\n        /* \"#utility.yul\":9816:9834   */\n      add\n        /* \"#utility.yul\":9808:9834   */\n      swap1\n      pop\n        /* \"#utility.yul\":9880:9889   */\n      dup2\n        /* \"#utility.yul\":9874:9878   */\n      dup2\n        /* \"#utility.yul\":9870:9890   */\n      sub\n        /* \"#utility.yul\":9866:9867   */\n      0x00\n        /* \"#utility.yul\":9855:9864   */\n      dup4\n        /* \"#utility.yul\":9851:9868   */\n      add\n        /* \"#utility.yul\":9844:9891   */\n      mstore\n        /* \"#utility.yul\":9908:10039   */\n      tag_283\n        /* \"#utility.yul\":10034:10038   */\n      dup2\n        /* \"#utility.yul\":9908:10039   */\n      tag_238\n      jump\t// in\n    tag_283:\n        /* \"#utility.yul\":9900:10039   */\n      swap1\n      pop\n        /* \"#utility.yul\":9798:10046   */\n      swap2\n      swap1\n      pop\n      jump\t// out\n        /* \"#utility.yul\":10052:10471   */\n    tag_86:\n      0x00\n        /* \"#utility.yul\":10256:10258   */\n      0x20\n        /* \"#utility.yul\":10245:10254   */\n      dup3\n        /* \"#utility.yul\":10241:10259   */\n      add\n        /* \"#utility.yul\":10233:10259   */\n      swap1\n      pop\n        /* \"#utility.yul\":10305:10314   */\n      dup2\n        /* \"#utility.yul\":10299:10303   */\n      dup2\n        /* \"#utility.yul\":10295:10315   */\n      sub\n        /* \"#utility.yul\":10291:10292   */\n      0x00\n        /* \"#utility.yul\":10280:10289   */\n      dup4\n        /* \"#utility.yul\":10276:10293   */\n      add\n        /* \"#utility.yul\":10269:10316   */\n      mstore\n        /* \"#utility.yul\":10333:10464   */\n      tag_285\n        /* \"#utility.yul\":10459:10463   */\n      dup2\n        /* \"#utility.yul\":10333:10464   */\n      tag_241\n      jump\t// in\n    tag_285:\n        /* \"#utility.yul\":10325:10464   */\n      swap1\n      pop\n        /* \"#utility.yul\":10223:10471   */\n      swap2\n      swap1\n      pop\n      jump\t// out\n        /* \"#utility.yul\":10477:10896   */\n    tag_145:\n      0x00\n        /* \"#utility.yul\":10681:10683   */\n      0x20\n        /* \"#utility.yul\":10670:10679   */\n      dup3\n        /* \"#utility.yul\":10666:10684   */\n      add\n        /* \"#utility.yul\":10658:10684   */\n      swap1\n      pop\n        /* \"#utility.yul\":10730:10739   */\n      dup2\n        /* \"#utility.yul\":10724:10728   */\n      dup2\n        /* \"#utility.yul\":10720:10740   */\n      sub\n        /* \"#utility.yul\":10716:10717   */\n      0x00\n        /* \"#utility.yul\":10705:10714   */\n      dup4\n        /* \"#utility.yul\":10701:10718   */\n      add\n        /* \"#utility.yul\":10694:10741   */\n      mstore\n        /* \"#utility.yul\":10758:10889   */\n      tag_287\n        /* \"#utility.yul\":10884:10888   */\n      dup2\n        /* \"#utility.yul\":10758:10889   */\n      tag_244\n      jump\t// in\n    tag_287:\n        /* \"#utility.yul\":10750:10889   */\n      swap1\n      pop\n        /* \"#utility.yul\":10648:10896   */\n      swap2\n      swap1\n      pop\n      jump\t// out\n        /* \"#utility.yul\":10902:11255   */\n    tag_41:\n      0x00\n        /* \"#utility.yul\":11073:11075   */\n      0x20\n        /* \"#utility.yul\":11062:11071   */\n      dup3\n        /* \"#utility.yul\":11058:11076   */\n      add\n        /* \"#utility.yul\":11050:11076   */\n      swap1\n      pop\n        /* \"#utility.yul\":11122:11131   */\n      dup2\n        /* \"#utility.yul\":11116:11120   */\n      dup2\n        /* \"#utility.yul\":11112:11132   */\n      sub\n        /* \"#utility.yul\":11108:11109   */\n      0x00\n        /* \"#utility.yul\":11097:11106   */\n      dup4\n        /* \"#utility.yul\":11093:11110   */\n      add\n        /* \"#utility.yul\":11086:11133   */\n      mstore\n        /* \"#utility.yul\":11150:11248   */\n      tag_289\n        /* \"#utility.yul\":11243:11247   */\n      dup2\n        /* \"#utility.yul\":11234:11240   */\n      dup5\n        /* \"#utility.yul\":11150:11248   */\n      tag_247\n      jump\t// in\n    tag_289:\n        /* \"#utility.yul\":11142:11248   */\n      swap1\n      pop\n        /* \"#utility.yul\":11040:11255   */\n      swap3\n      swap2\n      pop\n      pop\n      jump\t// out\n        /* \"#utility.yul\":11261:11646   */\n    tag_50:\n      0x00\n        /* \"#utility.yul\":11448:11450   */\n      0x20\n        /* \"#utility.yul\":11437:11446   */\n      dup3\n        /* \"#utility.yul\":11433:11451   */\n      add\n        /* \"#utility.yul\":11425:11451   */\n      swap1\n      pop\n        /* \"#utility.yul\":11497:11506   */\n      dup2\n        /* \"#utility.yul\":11491:11495   */\n      dup2\n        /* \"#utility.yul\":11487:11507   */\n      sub\n        /* \"#utility.yul\":11483:11484   */\n      0x00\n        /* \"#utility.yul\":11472:11481   */\n      dup4\n        /* \"#utility.yul\":11468:11485   */\n      add\n        /* \"#utility.yul\":11461:11508   */\n      mstore\n        /* \"#utility.yul\":11525:11639   */\n      tag_291\n        /* \"#utility.yul\":11634:11638   */\n      dup2\n        /* \"#utility.yul\":11625:11631   */\n      dup5\n        /* \"#utility.yul\":11525:11639   */\n      tag_255\n      jump\t// in\n    tag_291:\n        /* \"#utility.yul\":11517:11639   */\n      swap1\n      pop\n        /* \"#utility.yul\":11415:11646   */\n      swap3\n      swap2\n      pop\n      pop\n      jump\t// out\n        /* \"#utility.yul\":11652:11874   */\n    tag_149:\n      0x00\n        /* \"#utility.yul\":11783:11785   */\n      0x20\n        /* \"#utility.yul\":11772:11781   */\n      dup3\n        /* \"#utility.yul\":11768:11786   */\n      add\n        /* \"#utility.yul\":11760:11786   */\n      swap1\n      pop\n        /* \"#utility.yul\":11796:11867   */\n      tag_293\n        /* \"#utility.yul\":11864:11865   */\n      0x00\n        /* \"#utility.yul\":11853:11862   */\n      dup4\n        /* \"#utility.yul\":11849:11866   */\n      add\n        /* \"#utility.yul\":11840:11846   */\n      dup5\n        /* \"#utility.yul\":11796:11867   */\n      tag_265\n      jump\t// in\n    tag_293:\n        /* \"#utility.yul\":11750:11874   */\n      swap3\n      swap2\n      pop\n      pop\n      jump\t// out\n        /* \"#utility.yul\":11880:12212   */\n    tag_89:\n      0x00\n        /* \"#utility.yul\":12039:12041   */\n      0x40\n        /* \"#utility.yul\":12028:12037   */\n      dup3\n        /* \"#utility.yul\":12024:12042   */\n      add\n        /* \"#utility.yul\":12016:12042   */\n      swap1\n      pop\n        /* \"#utility.yul\":12052:12123   */\n      tag_295\n        /* \"#utility.yul\":12120:12121   */\n      0x00\n        /* \"#utility.yul\":12109:12118   */\n      dup4\n        /* \"#utility.yul\":12105:12122   */\n      add\n        /* \"#utility.yul\":12096:12102   */\n      dup6\n        /* \"#utility.yul\":12052:12123   */\n      tag_265\n      jump\t// in\n    tag_295:\n        /* \"#utility.yul\":12133:12205   */\n      tag_296\n        /* \"#utility.yul\":12201:12203   */\n      0x20\n        /* \"#utility.yul\":12190:12199   */\n      dup4\n        /* \"#utility.yul\":12186:12204   */\n      add\n        /* \"#utility.yul\":12177:12183   */\n      dup5\n        /* \"#utility.yul\":12133:12205   */\n      tag_204\n      jump\t// in\n    tag_296:\n        /* \"#utility.yul\":12006:12212   */\n      swap4\n      swap3\n      pop\n      pop\n      pop\n      jump\t// out\n        /* \"#utility.yul\":12218:12501   */\n    tag_168:\n      0x00\n        /* \"#utility.yul\":12284:12286   */\n      0x40\n        /* \"#utility.yul\":12278:12287   */\n      mload\n        /* \"#utility.yul\":12268:12287   */\n      swap1\n      pop\n        /* \"#utility.yul\":12326:12330   */\n      dup2\n        /* \"#utility.yul\":12318:12324   */\n      dup2\n        /* \"#utility.yul\":12314:12331   */\n      add\n        /* \"#utility.yul\":12433:12439   */\n      dup2\n        /* \"#utility.yul\":12421:12431   */\n      dup2\n        /* \"#utility.yul\":12418:12440   */\n      lt\n        /* \"#utility.yul\":12397:12415   */\n      0xffffffffffffffff\n        /* \"#utility.yul\":12385:12395   */\n      dup3\n        /* \"#utility.yul\":12382:12416   */\n      gt\n        /* \"#utility.yul\":12379:12441   */\n      or\n        /* \"#utility.yul\":12376:12378   */\n      iszero\n      tag_298\n      jumpi\n        /* \"#utility.yul\":12444:12462   */\n      tag_299\n      tag_300\n      jump\t// in\n    tag_299:\n        /* \"#utility.yul\":12376:12378   */\n    tag_298:\n        /* \"#utility.yul\":12484:12494   */\n      dup1\n        /* \"#utility.yul\":12480:12482   */\n      0x40\n        /* \"#utility.yul\":12473:12495   */\n      mstore\n        /* \"#utility.yul\":12258:12501   */\n      pop\n      swap2\n      swap1\n      pop\n      jump\t// out\n        /* \"#utility.yul\":12507:12839   */\n    tag_167:\n      0x00\n        /* \"#utility.yul\":12659:12677   */\n      0xffffffffffffffff\n        /* \"#utility.yul\":12651:12657   */\n      dup3\n        /* \"#utility.yul\":12648:12678   */\n      gt\n        /* \"#utility.yul\":12645:12647   */\n      iszero\n      tag_302\n      jumpi\n        /* \"#utility.yul\":12681:12699   */\n      tag_303\n      tag_300\n      jump\t// in\n    tag_303:\n        /* \"#utility.yul\":12645:12647   */\n    tag_302:\n        /* \"#utility.yul\":12766:12770   */\n      0x1f\n        /* \"#utility.yul\":12762:12771   */\n      not\n        /* \"#utility.yul\":12755:12759   */\n      0x1f\n        /* \"#utility.yul\":12747:12753   */\n      dup4\n        /* \"#utility.yul\":12743:12760   */\n      add\n        /* \"#utility.yul\":12739:12772   */\n      and\n        /* \"#utility.yul\":12731:12772   */\n      swap1\n      pop\n        /* \"#utility.yul\":12827:12831   */\n      0x20\n        /* \"#utility.yul\":12821:12825   */\n      dup2\n        /* \"#utility.yul\":12817:12832   */\n      add\n        /* \"#utility.yul\":12809:12832   */\n      swap1\n      pop\n        /* \"#utility.yul\":12574:12839   */\n      swap2\n      swap1\n      pop\n      jump\t// out\n        /* \"#utility.yul\":12845:12944   */\n    tag_224:\n      0x00\n        /* \"#utility.yul\":12931:12936   */\n      dup2\n        /* \"#utility.yul\":12925:12937   */\n      mload\n        /* \"#utility.yul\":12915:12937   */\n      swap1\n      pop\n        /* \"#utility.yul\":12904:12944   */\n      swap2\n      swap1\n      pop\n      jump\t// out\n        /* \"#utility.yul\":12950:13109   */\n    tag_226:\n      0x00\n        /* \"#utility.yul\":13058:13064   */\n      dup3\n        /* \"#utility.yul\":13053:13056   */\n      dup3\n        /* \"#utility.yul\":13046:13065   */\n      mstore\n        /* \"#utility.yul\":13098:13102   */\n      0x20\n        /* \"#utility.yul\":13093:13096   */\n      dup3\n        /* \"#utility.yul\":13089:13103   */\n      add\n        /* \"#utility.yul\":13074:13103   */\n      swap1\n      pop\n        /* \"#utility.yul\":13036:13109   */\n      swap3\n      swap2\n      pop\n      pop\n      jump\t// out\n        /* \"#utility.yul\":13115:13284   */\n    tag_235:\n      0x00\n        /* \"#utility.yul\":13233:13239   */\n      dup3\n        /* \"#utility.yul\":13228:13231   */\n      dup3\n        /* \"#utility.yul\":13221:13240   */\n      mstore\n        /* \"#utility.yul\":13273:13277   */\n      0x20\n        /* \"#utility.yul\":13268:13271   */\n      dup3\n        /* \"#utility.yul\":13264:13278   */\n      add\n        /* \"#utility.yul\":13249:13278   */\n      swap1\n      pop\n        /* \"#utility.yul\":13211:13284   */\n      swap3\n      swap2\n      pop\n      pop\n      jump\t// out\n        /* \"#utility.yul\":13290:13595   */\n    tag_76:\n      0x00\n        /* \"#utility.yul\":13349:13369   */\n      tag_308\n        /* \"#utility.yul\":13367:13368   */\n      dup3\n        /* \"#utility.yul\":13349:13369   */\n      tag_264\n      jump\t// in\n    tag_308:\n        /* \"#utility.yul\":13344:13369   */\n      swap2\n      pop\n        /* \"#utility.yul\":13383:13403   */\n      tag_309\n        /* \"#utility.yul\":13401:13402   */\n      dup4\n        /* \"#utility.yul\":13383:13403   */\n      tag_264\n      jump\t// in\n    tag_309:\n        /* \"#utility.yul\":13378:13403   */\n      swap3\n      pop\n        /* \"#utility.yul\":13537:13538   */\n      dup3\n        /* \"#utility.yul\":13469:13535   */\n      0xffffffffffffffffffffffffffffffffffffffffffffffffffffffffffffffff\n        /* \"#utility.yul\":13465:13539   */\n      sub\n        /* \"#utility.yul\":13462:13463   */\n      dup3\n        /* \"#utility.yul\":13459:13540   */\n      gt\n        /* \"#utility.yul\":13456:13458   */\n      iszero\n      tag_310\n      jumpi\n        /* \"#utility.yul\":13543:13561   */\n      tag_311\n      tag_312\n      jump\t// in\n    tag_311:\n        /* \"#utility.yul\":13456:13458   */\n    tag_310:\n        /* \"#utility.yul\":13587:13588   */\n      dup3\n        /* \"#utility.yul\":13584:13585   */\n      dup3\n        /* \"#utility.yul\":13580:13589   */\n      add\n        /* \"#utility.yul\":13573:13589   */\n      swap1\n      pop\n        /* \"#utility.yul\":13334:13595   */\n      swap3\n      swap2\n      pop\n      pop\n      jump\t// out\n        /* \"#utility.yul\":13601:13697   */\n    tag_203:\n      0x00\n        /* \"#utility.yul\":13667:13691   */\n      tag_314\n        /* \"#utility.yul\":13685:13690   */\n      dup3\n        /* \"#utility.yul\":13667:13691   */\n      tag_315\n      jump\t// in\n    tag_314:\n        /* \"#utility.yul\":13656:13691   */\n      swap1\n      pop\n        /* \"#utility.yul\":13646:13697   */\n      swap2\n      swap1\n      pop\n      jump\t// out\n        /* \"#utility.yul\":13703:13830   */\n    tag_316:\n      0x00\n        /* \"#utility.yul\":13777:13782   */\n      dup2\n        /* \"#utility.yul\":13766:13782   */\n      swap1\n      pop\n        /* \"#utility.yul\":13783:13824   */\n      tag_318\n        /* \"#utility.yul\":13818:13823   */\n      dup3\n        /* \"#utility.yul\":13783:13824   */\n      tag_319\n      jump\t// in\n    tag_318:\n        /* \"#utility.yul\":13756:13830   */\n      swap2\n      swap1\n      pop\n      jump\t// out\n        /* \"#utility.yul\":13836:13973   */\n    tag_320:\n      0x00\n        /* \"#utility.yul\":13915:13920   */\n      dup2\n        /* \"#utility.yul\":13904:13920   */\n      swap1\n      pop\n        /* \"#utility.yul\":13921:13967   */\n      tag_322\n        /* \"#utility.yul\":13961:13966   */\n      dup3\n        /* \"#utility.yul\":13921:13967   */\n      tag_323\n      jump\t// in\n    tag_322:\n        /* \"#utility.yul\":13894:13973   */\n      swap2\n      swap1\n      pop\n      jump\t// out\n        /* \"#utility.yul\":13979:14105   */\n    tag_315:\n      0x00\n        /* \"#utility.yul\":14056:14098   */\n      0xffffffffffffffffffffffffffffffffffffffff\n        /* \"#utility.yul\":14049:14054   */\n      dup3\n        /* \"#utility.yul\":14045:14099   */\n      and\n        /* \"#utility.yul\":14034:14099   */\n      swap1\n      pop\n        /* \"#utility.yul\":14024:14105   */\n      swap2\n      swap1\n      pop\n      jump\t// out\n        /* \"#utility.yul\":14111:14188   */\n    tag_264:\n      0x00\n        /* \"#utility.yul\":14177:14182   */\n      dup2\n        /* \"#utility.yul\":14166:14182   */\n      swap1\n      pop\n        /* \"#utility.yul\":14156:14188   */\n      swap2\n      swap1\n      pop\n      jump\t// out\n        /* \"#utility.yul\":14194:14321   */\n    tag_210:\n      0x00\n        /* \"#utility.yul\":14283:14315   */\n      tag_327\n        /* \"#utility.yul\":14309:14314   */\n      dup3\n        /* \"#utility.yul\":14283:14315   */\n      tag_316\n      jump\t// in\n    tag_327:\n        /* \"#utility.yul\":14270:14315   */\n      swap1\n      pop\n        /* \"#utility.yul\":14260:14321   */\n      swap2\n      swap1\n      pop\n      jump\t// out\n        /* \"#utility.yul\":14327:14464   */\n    tag_217:\n      0x00\n        /* \"#utility.yul\":14421:14458   */\n      tag_329\n        /* \"#utility.yul\":14452:14457   */\n      dup3\n        /* \"#utility.yul\":14421:14458   */\n      tag_320\n      jump\t// in\n    tag_329:\n        /* \"#utility.yul\":14408:14458   */\n      swap1\n      pop\n        /* \"#utility.yul\":14398:14464   */\n      swap2\n      swap1\n      pop\n      jump\t// out\n        /* \"#utility.yul\":14470:14624   */\n    tag_171:\n        /* \"#utility.yul\":14554:14560   */\n      dup3\n        /* \"#utility.yul\":14549:14552   */\n      dup2\n        /* \"#utility.yul\":14544:14547   */\n      dup4\n        /* \"#utility.yul\":14531:14561   */\n      calldatacopy\n        /* \"#utility.yul\":14616:14617   */\n      0x00\n        /* \"#utility.yul\":14607:14613   */\n      dup4\n        /* \"#utility.yul\":14602:14605   */\n      dup4\n        /* \"#utility.yul\":14598:14614   */\n      add\n        /* \"#utility.yul\":14591:14618   */\n      mstore\n        /* \"#utility.yul\":14521:14624   */\n      pop\n      pop\n      pop\n      jump\t// out\n        /* \"#utility.yul\":14630:14937   */\n    tag_228:\n        /* \"#utility.yul\":14698:14699   */\n      0x00\n        /* \"#utility.yul\":14708:14821   */\n    tag_332:\n        /* \"#utility.yul\":14722:14728   */\n      dup4\n        /* \"#utility.yul\":14719:14720   */\n      dup2\n        /* \"#utility.yul\":14716:14729   */\n      lt\n        /* \"#utility.yul\":14708:14821   */\n      iszero\n      tag_334\n      jumpi\n        /* \"#utility.yul\":14807:14808   */\n      dup1\n        /* \"#utility.yul\":14802:14805   */\n      dup3\n        /* \"#utility.yul\":14798:14809   */\n      add\n        /* \"#utility.yul\":14792:14810   */\n      mload\n        /* \"#utility.yul\":14788:14789   */\n      dup2\n        /* \"#utility.yul\":14783:14786   */\n      dup5\n        /* \"#utility.yul\":14779:14790   */\n      add\n        /* \"#utility.yul\":14772:14811   */\n      mstore\n        /* \"#utility.yul\":14744:14746   */\n      0x20\n        /* \"#utility.yul\":14741:14742   */\n      dup2\n        /* \"#utility.yul\":14737:14747   */\n      add\n        /* \"#utility.yul\":14732:14747   */\n      swap1\n      pop\n        /* \"#utility.yul\":14708:14821   */\n      jump(tag_332)\n    tag_334:\n        /* \"#utility.yul\":14839:14845   */\n      dup4\n        /* \"#utility.yul\":14836:14837   */\n      dup2\n        /* \"#utility.yul\":14833:14846   */\n      gt\n        /* \"#utility.yul\":14830:14832   */\n      iszero\n      tag_335\n      jumpi\n        /* \"#utility.yul\":14919:14920   */\n      0x00\n        /* \"#utility.yul\":14910:14916   */\n      dup5\n        /* \"#utility.yul\":14905:14908   */\n      dup5\n        /* \"#utility.yul\":14901:14917   */\n      add\n        /* \"#utility.yul\":14894:14921   */\n      mstore\n        /* \"#utility.yul\":14830:14832   */\n    tag_335:\n        /* \"#utility.yul\":14679:14937   */\n      pop\n      pop\n      pop\n      pop\n      jump\t// out\n        /* \"#utility.yul\":14943:15263   */\n    tag_78:\n      0x00\n        /* \"#utility.yul\":15024:15025   */\n      0x02\n        /* \"#utility.yul\":15018:15022   */\n      dup3\n        /* \"#utility.yul\":15014:15026   */\n      div\n        /* \"#utility.yul\":15004:15026   */\n      swap1\n      pop\n        /* \"#utility.yul\":15071:15072   */\n      0x01\n        /* \"#utility.yul\":15065:15069   */\n      dup3\n        /* \"#utility.yul\":15061:15073   */\n      and\n        /* \"#utility.yul\":15092:15110   */\n      dup1\n        /* \"#utility.yul\":15082:15084   */\n      tag_337\n      jumpi\n        /* \"#utility.yul\":15148:15152   */\n      0x7f\n        /* \"#utility.yul\":15140:15146   */\n      dup3\n        /* \"#utility.yul\":15136:15153   */\n      and\n        /* \"#utility.yul\":15126:15153   */\n      swap2\n      pop\n        /* \"#utility.yul\":15082:15084   */\n    tag_337:\n        /* \"#utility.yul\":15210:15212   */\n      0x20\n        /* \"#utility.yul\":15202:15208   */\n      dup3\n        /* \"#utility.yul\":15199:15213   */\n      lt\n        /* \"#utility.yul\":15179:15197   */\n      dup2\n        /* \"#utility.yul\":15176:15214   */\n      eq\n        /* \"#utility.yul\":15173:15175   */\n      iszero\n      tag_338\n      jumpi\n        /* \"#utility.yul\":15229:15247   */\n      tag_339\n      tag_340\n      jump\t// in\n    tag_339:\n        /* \"#utility.yul\":15173:15175   */\n    tag_338:\n        /* \"#utility.yul\":14994:15263   */\n      pop\n      swap2\n      swap1\n      pop\n      jump\t// out\n        /* \"#utility.yul\":15269:15449   */\n    tag_312:\n        /* \"#utility.yul\":15317:15394   */\n      0x4e487b7100000000000000000000000000000000000000000000000000000000\n        /* \"#utility.yul\":15314:15315   */\n      0x00\n        /* \"#utility.yul\":15307:15395   */\n      mstore\n        /* \"#utility.yul\":15414:15418   */\n      0x11\n        /* \"#utility.yul\":15411:15412   */\n      0x04\n        /* \"#utility.yul\":15404:15419   */\n      mstore\n        /* \"#utility.yul\":15438:15442   */\n      0x24\n        /* \"#utility.yul\":15435:15436   */\n      0x00\n        /* \"#utility.yul\":15428:15443   */\n      revert\n        /* \"#utility.yul\":15455:15635   */\n    tag_342:\n        /* \"#utility.yul\":15503:15580   */\n      0x4e487b7100000000000000000000000000000000000000000000000000000000\n        /* \"#utility.yul\":15500:15501   */\n      0x00\n        /* \"#utility.yul\":15493:15581   */\n      mstore\n        /* \"#utility.yul\":15600:15604   */\n      0x21\n        /* \"#utility.yul\":15597:15598   */\n      0x04\n        /* \"#utility.yul\":15590:15605   */\n      mstore\n        /* \"#utility.yul\":15624:15628   */\n      0x24\n        /* \"#utility.yul\":15621:15622   */\n      0x00\n        /* \"#utility.yul\":15614:15629   */\n      revert\n        /* \"#utility.yul\":15641:15821   */\n    tag_340:\n        /* \"#utility.yul\":15689:15766   */\n      0x4e487b7100000000000000000000000000000000000000000000000000000000\n        /* \"#utility.yul\":15686:15687   */\n      0x00\n        /* \"#utility.yul\":15679:15767   */\n      mstore\n        /* \"#utility.yul\":15786:15790   */\n      0x22\n        /* \"#utility.yul\":15783:15784   */\n      0x04\n        /* \"#utility.yul\":15776:15791   */\n      mstore\n        /* \"#utility.yul\":15810:15814   */\n      0x24\n        /* \"#utility.yul\":15807:15808   */\n      0x00\n        /* \"#utility.yul\":15800:15815   */\n      revert\n        /* \"#utility.yul\":15827:16007   */\n    tag_300:\n        /* \"#utility.yul\":15875:15952   */\n      0x4e487b7100000000000000000000000000000000000000000000000000000000\n        /* \"#utility.yul\":15872:15873   */\n      0x00\n        /* \"#utility.yul\":15865:15953   */\n      mstore\n        /* \"#utility.yul\":15972:15976   */\n      0x41\n        /* \"#utility.yul\":15969:15970   */\n      0x04\n        /* \"#utility.yul\":15962:15977   */\n      mstore\n        /* \"#utility.yul\":15996:16000   */\n      0x24\n        /* \"#utility.yul\":15993:15994   */\n      0x00\n        /* \"#utility.yul\":15986:16001   */\n      revert\n        /* \"#utility.yul\":16013:16115   */\n    tag_230:\n      0x00\n        /* \"#utility.yul\":16105:16107   */\n      0x1f\n        /* \"#utility.yul\":16101:16108   */\n      not\n        /* \"#utility.yul\":16096:16098   */\n      0x1f\n        /* \"#utility.yul\":16089:16094   */\n      dup4\n        /* \"#utility.yul\":16085:16099   */\n      add\n        /* \"#utility.yul\":16081:16109   */\n      and\n        /* \"#utility.yul\":16071:16109   */\n      swap1\n      pop\n        /* \"#utility.yul\":16061:16115   */\n      swap2\n      swap1\n      pop\n      jump\t// out\n        /* \"#utility.yul\":16121:16234   */\n    tag_319:\n        /* \"#utility.yul\":16202:16203   */\n      0x07\n        /* \"#utility.yul\":16195:16200   */\n      dup2\n        /* \"#utility.yul\":16192:16204   */\n      lt\n        /* \"#utility.yul\":16182:16184   */\n      tag_348\n      jumpi\n        /* \"#utility.yul\":16208:16226   */\n      tag_349\n      tag_342\n      jump\t// in\n    tag_349:\n        /* \"#utility.yul\":16182:16184   */\n    tag_348:\n        /* \"#utility.yul\":16172:16234   */\n      pop\n      jump\t// out\n        /* \"#utility.yul\":16240:16358   */\n    tag_323:\n        /* \"#utility.yul\":16326:16327   */\n      0x04\n        /* \"#utility.yul\":16319:16324   */\n      dup2\n        /* \"#utility.yul\":16316:16328   */\n      lt\n        /* \"#utility.yul\":16306:16308   */\n      tag_351\n      jumpi\n        /* \"#utility.yul\":16332:16350   */\n      tag_352\n      tag_342\n      jump\t// in\n    tag_352:\n        /* \"#utility.yul\":16306:16308   */\n    tag_351:\n        /* \"#utility.yul\":16296:16358   */\n      pop\n      jump\t// out\n        /* \"#utility.yul\":16364:16486   */\n    tag_175:\n        /* \"#utility.yul\":16437:16461   */\n      tag_354\n        /* \"#utility.yul\":16455:16460   */\n      dup2\n        /* \"#utility.yul\":16437:16461   */\n      tag_203\n      jump\t// in\n    tag_354:\n        /* \"#utility.yul\":16430:16435   */\n      dup2\n        /* \"#utility.yul\":16427:16462   */\n      eq\n        /* \"#utility.yul\":16417:16419   */\n      tag_355\n      jumpi\n        /* \"#utility.yul\":16476:16477   */\n      0x00\n        /* \"#utility.yul\":16473:16474   */\n      dup1\n        /* \"#utility.yul\":16466:16478   */\n      revert\n        /* \"#utility.yul\":16417:16419   */\n    tag_355:\n        /* \"#utility.yul\":16407:16486   */\n      pop\n      jump\t// out\n        /* \"#utility.yul\":16492:16614   */\n    tag_183:\n        /* \"#utility.yul\":16565:16589   */\n      tag_357\n        /* \"#utility.yul\":16583:16588   */\n      dup2\n        /* \"#utility.yul\":16565:16589   */\n      tag_264\n      jump\t// in\n    tag_357:\n        /* \"#utility.yul\":16558:16563   */\n      dup2\n        /* \"#utility.yul\":16555:16590   */\n      eq\n        /* \"#utility.yul\":16545:16547   */\n      tag_358\n      jumpi\n        /* \"#utility.yul\":16604:16605   */\n      0x00\n        /* \"#utility.yul\":16601:16602   */\n      dup1\n        /* \"#utility.yul\":16594:16606   */\n      revert\n        /* \"#utility.yul\":16545:16547   */\n    tag_358:\n        /* \"#utility.yul\":16535:16614   */\n      pop\n      jump\t// out\n\n    auxdata: 0xa264697066735822122013b759ac7c215a42913a9e0bff5f87e76aa1b72644930f2e7fd9dd3a5a82c43f64736f6c63430008000033\n}\n",
				"bytecode": {
					"linkReferences": {},
					"object": "608060405260008055600060025534801561001957600080fd5b5033600560006101000a81548173ffffffffffffffffffffffffffffffffffffffff021916908373ffffffffffffffffffffffffffffffffffffffff160217905550611f768061006a6000396000f3fe608060405234801561001057600080fd5b50600436106100b45760003560e01c806343c4c53e1161007157806343c4c53e146101a557806354a153e9146101c157806362d6bbdf146101f15780638da5cb5b1461020d5780638f5ae7991461022b578063d3de074c14610247576100b4565b806315533a27146100b957806317b47cc4146100d557806321603f43146101095780632fa5ad1a1461012557806335c1d3491461014157806342f3588514610175575b600080fd5b6100d360048036038101906100ce91906116ac565b610263565b005b6100ef60048036038101906100ea9190611741565b610551565b604051610100959493929190611aa3565b60405180910390f35b610123600480360381019061011e9190611741565b61063c565b005b61013f600480360381019061013a91906116ac565b6106dc565b005b61015b60048036038101906101569190611741565b6109ca565b60405161016c959493929190611afd565b60405180910390f35b61018f600480360381019061018a9190611741565b610ab5565b60405161019c9190611bb7565b60405180910390f35b6101bf60048036038101906101ba919061176a565b610c65565b005b6101db60048036038101906101d69190611741565b610d07565b6040516101e89190611bd9565b60405180910390f35b61020b600480360381019061020691906116ed565b610d14565b005b610215611025565b6040516102229190611a88565b60405180910390f35b610245600480360381019061024091906116ac565b61104b565b005b610261600480360381019061025c9190611741565b611339565b005b61026b61147d565b8181600001819052506002548160200181815250506000816040019060038111156102bf577f4e487b7100000000000000000000000000000000000000000000000000000000600052602160045260246000fd5b908160038111156102f9577f4e487b7100000000000000000000000000000000000000000000000000000000600052602160045260246000fd5b8152505033816060019073ffffffffffffffffffffffffffffffffffffffff16908173ffffffffffffffffffffffffffffffffffffffff168152505060008160800181815250508060036000600254815260200190815260200160002060008201518160000190805190602001906103729291906114fa565b506020820151816001015560408201518160020160006101000a81548160ff021916908360038111156103ce577f4e487b7100000000000000000000000000000000000000000000000000000000600052602160045260246000fd5b021790555060608201518160020160016101000a81548173ffffffffffffffffffffffffffffffffffffffff021916908373ffffffffffffffffffffffffffffffffffffffff1602179055506080820151816003015590505080600460003373ffffffffffffffffffffffffffffffffffffffff1673ffffffffffffffffffffffffffffffffffffffff16815260200190815260200160002060008201518160000190805190602001906104839291906114fa565b506020820151816001015560408201518160020160006101000a81548160ff021916908360038111156104df577f4e487b7100000000000000000000000000000000000000000000000000000000600052602160045260246000fd5b021790555060608201518160020160016101000a81548173ffffffffffffffffffffffffffffffffffffffff021916908373ffffffffffffffffffffffffffffffffffffffff1602179055506080820151816003015590505060016002546105479190611ccd565b6002819055505050565b600160205280600052604060002060009150905080600001805461057490611deb565b80601f01602080910402602001604051908101604052809291908181526020018280546105a090611deb565b80156105ed5780601f106105c2576101008083540402835291602001916105ed565b820191906000526020600020905b8154815290600101906020018083116105d057829003601f168201915b5050505050908060010154908060020160009054906101000a900473ffffffffffffffffffffffffffffffffffffffff16908060020160149054906101000a900460ff16908060030154905085565b6000808160016000838152602001908152602001600020600301541115610698576040517f08c379a000000000000000000000000000000000000000000000000000000000815260040161068f90611b77565b60405180910390fd5b60003390507fef7b116480495ad6b1c6479820e4a0140e78de3846e138c5d055ad601408725e84826040516106ce929190611c16565b60405180910390a150505050565b6106e461147d565b8181600001819052506002548160200181815250506000816080018181525050600181604001906003811115610743577f4e487b7100000000000000000000000000000000000000000000000000000000600052602160045260246000fd5b9081600381111561077d577f4e487b7100000000000000000000000000000000000000000000000000000000600052602160045260246000fd5b8152505033816060019073ffffffffffffffffffffffffffffffffffffffff16908173ffffffffffffffffffffffffffffffffffffffff16815250508060036000600254815260200190815260200160002060008201518160000190805190602001906107eb9291906114fa565b506020820151816001015560408201518160020160006101000a81548160ff02191690836003811115610847577f4e487b7100000000000000000000000000000000000000000000000000000000600052602160045260246000fd5b021790555060608201518160020160016101000a81548173ffffffffffffffffffffffffffffffffffffffff021916908373ffffffffffffffffffffffffffffffffffffffff1602179055506080820151816003015590505080600460003373ffffffffffffffffffffffffffffffffffffffff1673ffffffffffffffffffffffffffffffffffffffff16815260200190815260200160002060008201518160000190805190602001906108fc9291906114fa565b506020820151816001015560408201518160020160006101000a81548160ff02191690836003811115610958577f4e487b7100000000000000000000000000000000000000000000000000000000600052602160045260246000fd5b021790555060608201518160020160016101000a81548173ffffffffffffffffffffffffffffffffffffffff021916908373ffffffffffffffffffffffffffffffffffffffff1602179055506080820151816003015590505060016002546109c09190611ccd565b6002819055505050565b60036020528060005260406000206000915090508060000180546109ed90611deb565b80601f0160208091040260200160405190810160405280929190818152602001828054610a1990611deb565b8015610a665780601f10610a3b57610100808354040283529160200191610a66565b820191906000526020600020905b815481529060010190602001808311610a4957829003601f168201915b5050505050908060010154908060020160009054906101000a900460ff16908060020160019054906101000a900473ffffffffffffffffffffffffffffffffffffffff16908060030154905085565b610abd611580565b600160008381526020019081526020016000206040518060a0016040529081600082018054610aeb90611deb565b80601f0160208091040260200160405190810160405280929190818152602001828054610b1790611deb565b8015610b645780601f10610b3957610100808354040283529160200191610b64565b820191906000526020600020905b815481529060010190602001808311610b4757829003601f168201915b50505050508152602001600182015481526020016002820160009054906101000a900473ffffffffffffffffffffffffffffffffffffffff1673ffffffffffffffffffffffffffffffffffffffff1673ffffffffffffffffffffffffffffffffffffffff1681526020016002820160149054906101000a900460ff166006811115610c18577f4e487b7100000000000000000000000000000000000000000000000000000000600052602160045260246000fd5b6006811115610c50577f4e487b7100000000000000000000000000000000000000000000000000000000600052602160045260246000fd5b81526020016003820154815250509050919050565b60036001600084815260200190815260200160002060020160146101000a81548160ff02191690836006811115610cc5577f4e487b7100000000000000000000000000000000000000000000000000000000600052602160045260246000fd5b02179055507f45af58aaf003ac2ec2ad90282f8d3d79ede476b3e19183acb4abdebf6553b6a98282604051610cfb929190611c16565b60405180910390a15050565b610d0f61147d565b919050565b3360006003811115610d4f577f4e487b7100000000000000000000000000000000000000000000000000000000600052602160045260246000fd5b600460008373ffffffffffffffffffffffffffffffffffffffff1673ffffffffffffffffffffffffffffffffffffffff16815260200190815260200160002060020160009054906101000a900460ff166003811115610dd7577f4e487b7100000000000000000000000000000000000000000000000000000000600052602160045260246000fd5b14610e17576040517f08c379a0000000000000000000000000000000000000000000000000000000008152600401610e0e90611b57565b60405180910390fd5b610e1f611580565b83816000018190525060005481602001818152505033816040019073ffffffffffffffffffffffffffffffffffffffff16908173ffffffffffffffffffffffffffffffffffffffff1681525050600081606001906006811115610eab577f4e487b7100000000000000000000000000000000000000000000000000000000600052602160045260246000fd5b90816006811115610ee5577f4e487b7100000000000000000000000000000000000000000000000000000000600052602160045260246000fd5b815250508060016000805481526020019081526020016000206000820151816000019080519060200190610f1a9291906114fa565b506020820151816001015560408201518160020160006101000a81548173ffffffffffffffffffffffffffffffffffffffff021916908373ffffffffffffffffffffffffffffffffffffffff16021790555060608201518160020160146101000a81548160ff02191690836006811115610fbd577f4e487b7100000000000000000000000000000000000000000000000000000000600052602160045260246000fd5b0217905550608082015181600301559050507f4e95503bf2c40739506d6f0afb0fe6be42ce748d90f3f516386892fb6096e5bc60005433604051611002929190611c16565b60405180910390a160016000546110199190611ccd565b60008190555050505050565b600560009054906101000a900473ffffffffffffffffffffffffffffffffffffffff1681565b61105361147d565b81816000018190525060025481602001818152505060008160800181815250506003816040019060038111156110b2577f4e487b7100000000000000000000000000000000000000000000000000000000600052602160045260246000fd5b908160038111156110ec577f4e487b7100000000000000000000000000000000000000000000000000000000600052602160045260246000fd5b8152505033816060019073ffffffffffffffffffffffffffffffffffffffff16908173ffffffffffffffffffffffffffffffffffffffff168152505080600360006002548152602001908152602001600020600082015181600001908051906020019061115a9291906114fa565b506020820151816001015560408201518160020160006101000a81548160ff021916908360038111156111b6577f4e487b7100000000000000000000000000000000000000000000000000000000600052602160045260246000fd5b021790555060608201518160020160016101000a81548173ffffffffffffffffffffffffffffffffffffffff021916908373ffffffffffffffffffffffffffffffffffffffff1602179055506080820151816003015590505080600460003373ffffffffffffffffffffffffffffffffffffffff1673ffffffffffffffffffffffffffffffffffffffff168152602001908152602001600020600082015181600001908051906020019061126b9291906114fa565b506020820151816001015560408201518160020160006101000a81548160ff021916908360038111156112c7577f4e487b7100000000000000000000000000000000000000000000000000000000600052602160045260246000fd5b021790555060608201518160020160016101000a81548173ffffffffffffffffffffffffffffffffffffffff021916908373ffffffffffffffffffffffffffffffffffffffff16021790555060808201518160030155905050600160025461132f9190611ccd565b6002819055505050565b803373ffffffffffffffffffffffffffffffffffffffff166001600083815260200190815260200160002060020160009054906101000a900473ffffffffffffffffffffffffffffffffffffffff1673ffffffffffffffffffffffffffffffffffffffff16146113de576040517f08c379a00000000000000000000000000000000000000000000000000000000081526004016113d590611b97565b60405180910390fd5b600180600084815260200190815260200160002060020160146101000a81548160ff0219169083600681111561143d577f4e487b7100000000000000000000000000000000000000000000000000000000600052602160045260246000fd5b02179055507f15f51416bf6f180a7f06ab542b87dacc1363e503b8df75d711f9aaedc5c48a70826040516114719190611bfb565b60405180910390a15050565b6040518060a001604052806060815260200160008152602001600060038111156114d0577f4e487b7100000000000000000000000000000000000000000000000000000000600052602160045260246000fd5b8152602001600073ffffffffffffffffffffffffffffffffffffffff168152602001600081525090565b82805461150690611deb565b90600052602060002090601f016020900481019282611528576000855561156f565b82601f1061154157805160ff191683800117855561156f565b8280016001018555821561156f579182015b8281111561156e578251825591602001919060010190611553565b5b50905061157c91906115fd565b5090565b6040518060a001604052806060815260200160008152602001600073ffffffffffffffffffffffffffffffffffffffff168152602001600060068111156115f0577f4e487b7100000000000000000000000000000000000000000000000000000000600052602160045260246000fd5b8152602001600081525090565b5b808211156116165760008160009055506001016115fe565b5090565b600061162d61162884611c70565b611c3f565b90508281526020810184848401111561164557600080fd5b611650848285611da9565b509392505050565b60008135905061166781611f12565b92915050565b600082601f83011261167e57600080fd5b813561168e84826020860161161a565b91505092915050565b6000813590506116a681611f29565b92915050565b6000602082840312156116be57600080fd5b600082013567ffffffffffffffff8111156116d857600080fd5b6116e48482850161166d565b91505092915050565b6000806040838503121561170057600080fd5b600083013567ffffffffffffffff81111561171a57600080fd5b6117268582860161166d565b925050602061173785828601611697565b9150509250929050565b60006020828403121561175357600080fd5b600061176184828501611697565b91505092915050565b6000806040838503121561177d57600080fd5b600061178b85828601611697565b925050602061179c85828601611658565b9150509250929050565b6117af81611d23565b82525050565b6117be81611d23565b82525050565b6117cd81611d85565b82525050565b6117dc81611d85565b82525050565b6117eb81611d97565b82525050565b6117fa81611d97565b82525050565b600061180b82611ca0565b6118158185611cab565b9350611825818560208601611db8565b61182e81611ed9565b840191505092915050565b600061184482611ca0565b61184e8185611cbc565b935061185e818560208601611db8565b61186781611ed9565b840191505092915050565b600061187f601a83611cbc565b91507f796f752063616e6e6f7420616464206e65772070726f647563740000000000006000830152602082019050919050565b60006118bf602d83611cbc565b91507f796f7520646f6e74206861766520656e6f756768206d6f6e657920746f20627560008301527f79207468652070726f64756374000000000000000000000000000000000000006020830152604082019050919050565b6000611925602183611cbc565b91507f796f7520617265206e6f74206f776e6572206f6620746869732070726f64756360008301527f74000000000000000000000000000000000000000000000000000000000000006020830152604082019050919050565b600060a083016000830151848203600086015261199b8282611800565b91505060208301516119b06020860182611a6a565b5060408301516119c360408601826117a6565b5060608301516119d660608601826117c4565b5060808301516119e96080860182611a6a565b508091505092915050565b600060a0830160008301518482036000860152611a118282611800565b9150506020830151611a266020860182611a6a565b506040830151611a3960408601826117e2565b506060830151611a4c60608601826117a6565b506080830151611a5f6080860182611a6a565b508091505092915050565b611a7381611d7b565b82525050565b611a8281611d7b565b82525050565b6000602082019050611a9d60008301846117b5565b92915050565b600060a0820190508181036000830152611abd8188611839565b9050611acc6020830187611a79565b611ad960408301866117b5565b611ae660608301856117d3565b611af36080830184611a79565b9695505050505050565b600060a0820190508181036000830152611b178188611839565b9050611b266020830187611a79565b611b3360408301866117f1565b611b4060608301856117b5565b611b4d6080830184611a79565b9695505050505050565b60006020820190508181036000830152611b7081611872565b9050919050565b60006020820190508181036000830152611b90816118b2565b9050919050565b60006020820190508181036000830152611bb081611918565b9050919050565b60006020820190508181036000830152611bd1818461197e565b905092915050565b60006020820190508181036000830152611bf381846119f4565b905092915050565b6000602082019050611c106000830184611a79565b92915050565b6000604082019050611c2b6000830185611a79565b611c3860208301846117b5565b9392505050565b6000604051905081810181811067ffffffffffffffff82111715611c6657611c65611eaa565b5b8060405250919050565b600067ffffffffffffffff821115611c8b57611c8a611eaa565b5b601f19601f8301169050602081019050919050565b600081519050919050565b600082825260208201905092915050565b600082825260208201905092915050565b6000611cd882611d7b565b9150611ce383611d7b565b9250827fffffffffffffffffffffffffffffffffffffffffffffffffffffffffffffffff03821115611d1857611d17611e1d565b5b828201905092915050565b6000611d2e82611d5b565b9050919050565b6000819050611d4382611eea565b919050565b6000819050611d5682611efe565b919050565b600073ffffffffffffffffffffffffffffffffffffffff82169050919050565b6000819050919050565b6000611d9082611d35565b9050919050565b6000611da282611d48565b9050919050565b82818337600083830152505050565b60005b83811015611dd6578082015181840152602081019050611dbb565b83811115611de5576000848401525b50505050565b60006002820490506001821680611e0357607f821691505b60208210811415611e1757611e16611e7b565b5b50919050565b7f4e487b7100000000000000000000000000000000000000000000000000000000600052601160045260246000fd5b7f4e487b7100000000000000000000000000000000000000000000000000000000600052602160045260246000fd5b7f4e487b7100000000000000000000000000000000000000000000000000000000600052602260045260246000fd5b7f4e487b7100000000000000000000000000000000000000000000000000000000600052604160045260246000fd5b6000601f19601f8301169050919050565b60078110611efb57611efa611e4c565b5b50565b60048110611f0f57611f0e611e4c565b5b50565b611f1b81611d23565b8114611f2657600080fd5b50565b611f3281611d7b565b8114611f3d57600080fd5b5056fea264697066735822122013b759ac7c215a42913a9e0bff5f87e76aa1b72644930f2e7fd9dd3a5a82c43f64736f6c63430008000033",
					"opcodes": "PUSH1 0x80 PUSH1 0x40 MSTORE PUSH1 0x0 DUP1 SSTORE PUSH1 0x0 PUSH1 0x2 SSTORE CALLVALUE DUP1 ISZERO PUSH2 0x19 JUMPI PUSH1 0x0 DUP1 REVERT JUMPDEST POP CALLER PUSH1 0x5 PUSH1 0x0 PUSH2 0x100 EXP DUP2 SLOAD DUP2 PUSH20 0xFFFFFFFFFFFFFFFFFFFFFFFFFFFFFFFFFFFFFFFF MUL NOT AND SWAP1 DUP4 PUSH20 0xFFFFFFFFFFFFFFFFFFFFFFFFFFFFFFFFFFFFFFFF AND MUL OR SWAP1 SSTORE POP PUSH2 0x1F76 DUP1 PUSH2 0x6A PUSH1 0x0 CODECOPY PUSH1 0x0 RETURN INVALID PUSH1 0x80 PUSH1 0x40 MSTORE CALLVALUE DUP1 ISZERO PUSH2 0x10 JUMPI PUSH1 0x0 DUP1 REVERT JUMPDEST POP PUSH1 0x4 CALLDATASIZE LT PUSH2 0xB4 JUMPI PUSH1 0x0 CALLDATALOAD PUSH1 0xE0 SHR DUP1 PUSH4 0x43C4C53E GT PUSH2 0x71 JUMPI DUP1 PUSH4 0x43C4C53E EQ PUSH2 0x1A5 JUMPI DUP1 PUSH4 0x54A153E9 EQ PUSH2 0x1C1 JUMPI DUP1 PUSH4 0x62D6BBDF EQ PUSH2 0x1F1 JUMPI DUP1 PUSH4 0x8DA5CB5B EQ PUSH2 0x20D JUMPI DUP1 PUSH4 0x8F5AE799 EQ PUSH2 0x22B JUMPI DUP1 PUSH4 0xD3DE074C EQ PUSH2 0x247 JUMPI PUSH2 0xB4 JUMP JUMPDEST DUP1 PUSH4 0x15533A27 EQ PUSH2 0xB9 JUMPI DUP1 PUSH4 0x17B47CC4 EQ PUSH2 0xD5 JUMPI DUP1 PUSH4 0x21603F43 EQ PUSH2 0x109 JUMPI DUP1 PUSH4 0x2FA5AD1A EQ PUSH2 0x125 JUMPI DUP1 PUSH4 0x35C1D349 EQ PUSH2 0x141 JUMPI DUP1 PUSH4 0x42F35885 EQ PUSH2 0x175 JUMPI JUMPDEST PUSH1 0x0 DUP1 REVERT JUMPDEST PUSH2 0xD3 PUSH1 0x4 DUP1 CALLDATASIZE SUB DUP2 ADD SWAP1 PUSH2 0xCE SWAP2 SWAP1 PUSH2 0x16AC JUMP JUMPDEST PUSH2 0x263 JUMP JUMPDEST STOP JUMPDEST PUSH2 0xEF PUSH1 0x4 DUP1 CALLDATASIZE SUB DUP2 ADD SWAP1 PUSH2 0xEA SWAP2 SWAP1 PUSH2 0x1741 JUMP JUMPDEST PUSH2 0x551 JUMP JUMPDEST PUSH1 0x40 MLOAD PUSH2 0x100 SWAP6 SWAP5 SWAP4 SWAP3 SWAP2 SWAP1 PUSH2 0x1AA3 JUMP JUMPDEST PUSH1 0x40 MLOAD DUP1 SWAP2 SUB SWAP1 RETURN JUMPDEST PUSH2 0x123 PUSH1 0x4 DUP1 CALLDATASIZE SUB DUP2 ADD SWAP1 PUSH2 0x11E SWAP2 SWAP1 PUSH2 0x1741 JUMP JUMPDEST PUSH2 0x63C JUMP JUMPDEST STOP JUMPDEST PUSH2 0x13F PUSH1 0x4 DUP1 CALLDATASIZE SUB DUP2 ADD SWAP1 PUSH2 0x13A SWAP2 SWAP1 PUSH2 0x16AC JUMP JUMPDEST PUSH2 0x6DC JUMP JUMPDEST STOP JUMPDEST PUSH2 0x15B PUSH1 0x4 DUP1 CALLDATASIZE SUB DUP2 ADD SWAP1 PUSH2 0x156 SWAP2 SWAP1 PUSH2 0x1741 JUMP JUMPDEST PUSH2 0x9CA JUMP JUMPDEST PUSH1 0x40 MLOAD PUSH2 0x16C SWAP6 SWAP5 SWAP4 SWAP3 SWAP2 SWAP1 PUSH2 0x1AFD JUMP JUMPDEST PUSH1 0x40 MLOAD DUP1 SWAP2 SUB SWAP1 RETURN JUMPDEST PUSH2 0x18F PUSH1 0x4 DUP1 CALLDATASIZE SUB DUP2 ADD SWAP1 PUSH2 0x18A SWAP2 SWAP1 PUSH2 0x1741 JUMP JUMPDEST PUSH2 0xAB5 JUMP JUMPDEST PUSH1 0x40 MLOAD PUSH2 0x19C SWAP2 SWAP1 PUSH2 0x1BB7 JUMP JUMPDEST PUSH1 0x40 MLOAD DUP1 SWAP2 SUB SWAP1 RETURN JUMPDEST PUSH2 0x1BF PUSH1 0x4 DUP1 CALLDATASIZE SUB DUP2 ADD SWAP1 PUSH2 0x1BA SWAP2 SWAP1 PUSH2 0x176A JUMP JUMPDEST PUSH2 0xC65 JUMP JUMPDEST STOP JUMPDEST PUSH2 0x1DB PUSH1 0x4 DUP1 CALLDATASIZE SUB DUP2 ADD SWAP1 PUSH2 0x1D6 SWAP2 SWAP1 PUSH2 0x1741 JUMP JUMPDEST PUSH2 0xD07 JUMP JUMPDEST PUSH1 0x40 MLOAD PUSH2 0x1E8 SWAP2 SWAP1 PUSH2 0x1BD9 JUMP JUMPDEST PUSH1 0x40 MLOAD DUP1 SWAP2 SUB SWAP1 RETURN JUMPDEST PUSH2 0x20B PUSH1 0x4 DUP1 CALLDATASIZE SUB DUP2 ADD SWAP1 PUSH2 0x206 SWAP2 SWAP1 PUSH2 0x16ED JUMP JUMPDEST PUSH2 0xD14 JUMP JUMPDEST STOP JUMPDEST PUSH2 0x215 PUSH2 0x1025 JUMP JUMPDEST PUSH1 0x40 MLOAD PUSH2 0x222 SWAP2 SWAP1 PUSH2 0x1A88 JUMP JUMPDEST PUSH1 0x40 MLOAD DUP1 SWAP2 SUB SWAP1 RETURN JUMPDEST PUSH2 0x245 PUSH1 0x4 DUP1 CALLDATASIZE SUB DUP2 ADD SWAP1 PUSH2 0x240 SWAP2 SWAP1 PUSH2 0x16AC JUMP JUMPDEST PUSH2 0x104B JUMP JUMPDEST STOP JUMPDEST PUSH2 0x261 PUSH1 0x4 DUP1 CALLDATASIZE SUB DUP2 ADD SWAP1 PUSH2 0x25C SWAP2 SWAP1 PUSH2 0x1741 JUMP JUMPDEST PUSH2 0x1339 JUMP JUMPDEST STOP JUMPDEST PUSH2 0x26B PUSH2 0x147D JUMP JUMPDEST DUP2 DUP2 PUSH1 0x0 ADD DUP2 SWAP1 MSTORE POP PUSH1 0x2 SLOAD DUP2 PUSH1 0x20 ADD DUP2 DUP2 MSTORE POP POP PUSH1 0x0 DUP2 PUSH1 0x40 ADD SWAP1 PUSH1 0x3 DUP2 GT ISZERO PUSH2 0x2BF JUMPI PUSH32 0x4E487B7100000000000000000000000000000000000000000000000000000000 PUSH1 0x0 MSTORE PUSH1 0x21 PUSH1 0x4 MSTORE PUSH1 0x24 PUSH1 0x0 REVERT JUMPDEST SWAP1 DUP2 PUSH1 0x3 DUP2 GT ISZERO PUSH2 0x2F9 JUMPI PUSH32 0x4E487B7100000000000000000000000000000000000000000000000000000000 PUSH1 0x0 MSTORE PUSH1 0x21 PUSH1 0x4 MSTORE PUSH1 0x24 PUSH1 0x0 REVERT JUMPDEST DUP2 MSTORE POP POP CALLER DUP2 PUSH1 0x60 ADD SWAP1 PUSH20 0xFFFFFFFFFFFFFFFFFFFFFFFFFFFFFFFFFFFFFFFF AND SWAP1 DUP2 PUSH20 0xFFFFFFFFFFFFFFFFFFFFFFFFFFFFFFFFFFFFFFFF AND DUP2 MSTORE POP POP PUSH1 0x0 DUP2 PUSH1 0x80 ADD DUP2 DUP2 MSTORE POP POP DUP1 PUSH1 0x3 PUSH1 0x0 PUSH1 0x2 SLOAD DUP2 MSTORE PUSH1 0x20 ADD SWAP1 DUP2 MSTORE PUSH1 0x20 ADD PUSH1 0x0 KECCAK256 PUSH1 0x0 DUP3 ADD MLOAD DUP2 PUSH1 0x0 ADD SWAP1 DUP1 MLOAD SWAP1 PUSH1 0x20 ADD SWAP1 PUSH2 0x372 SWAP3 SWAP2 SWAP1 PUSH2 0x14FA JUMP JUMPDEST POP PUSH1 0x20 DUP3 ADD MLOAD DUP2 PUSH1 0x1 ADD SSTORE PUSH1 0x40 DUP3 ADD MLOAD DUP2 PUSH1 0x2 ADD PUSH1 0x0 PUSH2 0x100 EXP DUP2 SLOAD DUP2 PUSH1 0xFF MUL NOT AND SWAP1 DUP4 PUSH1 0x3 DUP2 GT ISZERO PUSH2 0x3CE JUMPI PUSH32 0x4E487B7100000000000000000000000000000000000000000000000000000000 PUSH1 0x0 MSTORE PUSH1 0x21 PUSH1 0x4 MSTORE PUSH1 0x24 PUSH1 0x0 REVERT JUMPDEST MUL OR SWAP1 SSTORE POP PUSH1 0x60 DUP3 ADD MLOAD DUP2 PUSH1 0x2 ADD PUSH1 0x1 PUSH2 0x100 EXP DUP2 SLOAD DUP2 PUSH20 0xFFFFFFFFFFFFFFFFFFFFFFFFFFFFFFFFFFFFFFFF MUL NOT AND SWAP1 DUP4 PUSH20 0xFFFFFFFFFFFFFFFFFFFFFFFFFFFFFFFFFFFFFFFF AND MUL OR SWAP1 SSTORE POP PUSH1 0x80 DUP3 ADD MLOAD DUP2 PUSH1 0x3 ADD SSTORE SWAP1 POP POP DUP1 PUSH1 0x4 PUSH1 0x0 CALLER PUSH20 0xFFFFFFFFFFFFFFFFFFFFFFFFFFFFFFFFFFFFFFFF AND PUSH20 0xFFFFFFFFFFFFFFFFFFFFFFFFFFFFFFFFFFFFFFFF AND DUP2 MSTORE PUSH1 0x20 ADD SWAP1 DUP2 MSTORE PUSH1 0x20 ADD PUSH1 0x0 KECCAK256 PUSH1 0x0 DUP3 ADD MLOAD DUP2 PUSH1 0x0 ADD SWAP1 DUP1 MLOAD SWAP1 PUSH1 0x20 ADD SWAP1 PUSH2 0x483 SWAP3 SWAP2 SWAP1 PUSH2 0x14FA JUMP JUMPDEST POP PUSH1 0x20 DUP3 ADD MLOAD DUP2 PUSH1 0x1 ADD SSTORE PUSH1 0x40 DUP3 ADD MLOAD DUP2 PUSH1 0x2 ADD PUSH1 0x0 PUSH2 0x100 EXP DUP2 SLOAD DUP2 PUSH1 0xFF MUL NOT AND SWAP1 DUP4 PUSH1 0x3 DUP2 GT ISZERO PUSH2 0x4DF JUMPI PUSH32 0x4E487B7100000000000000000000000000000000000000000000000000000000 PUSH1 0x0 MSTORE PUSH1 0x21 PUSH1 0x4 MSTORE PUSH1 0x24 PUSH1 0x0 REVERT JUMPDEST MUL OR SWAP1 SSTORE POP PUSH1 0x60 DUP3 ADD MLOAD DUP2 PUSH1 0x2 ADD PUSH1 0x1 PUSH2 0x100 EXP DUP2 SLOAD DUP2 PUSH20 0xFFFFFFFFFFFFFFFFFFFFFFFFFFFFFFFFFFFFFFFF MUL NOT AND SWAP1 DUP4 PUSH20 0xFFFFFFFFFFFFFFFFFFFFFFFFFFFFFFFFFFFFFFFF AND MUL OR SWAP1 SSTORE POP PUSH1 0x80 DUP3 ADD MLOAD DUP2 PUSH1 0x3 ADD SSTORE SWAP1 POP POP PUSH1 0x1 PUSH1 0x2 SLOAD PUSH2 0x547 SWAP2 SWAP1 PUSH2 0x1CCD JUMP JUMPDEST PUSH1 0x2 DUP2 SWAP1 SSTORE POP POP POP JUMP JUMPDEST PUSH1 0x1 PUSH1 0x20 MSTORE DUP1 PUSH1 0x0 MSTORE PUSH1 0x40 PUSH1 0x0 KECCAK256 PUSH1 0x0 SWAP2 POP SWAP1 POP DUP1 PUSH1 0x0 ADD DUP1 SLOAD PUSH2 0x574 SWAP1 PUSH2 0x1DEB JUMP JUMPDEST DUP1 PUSH1 0x1F ADD PUSH1 0x20 DUP1 SWAP2 DIV MUL PUSH1 0x20 ADD PUSH1 0x40 MLOAD SWAP1 DUP2 ADD PUSH1 0x40 MSTORE DUP1 SWAP3 SWAP2 SWAP1 DUP2 DUP2 MSTORE PUSH1 0x20 ADD DUP3 DUP1 SLOAD PUSH2 0x5A0 SWAP1 PUSH2 0x1DEB JUMP JUMPDEST DUP1 ISZERO PUSH2 0x5ED JUMPI DUP1 PUSH1 0x1F LT PUSH2 0x5C2 JUMPI PUSH2 0x100 DUP1 DUP4 SLOAD DIV MUL DUP4 MSTORE SWAP2 PUSH1 0x20 ADD SWAP2 PUSH2 0x5ED JUMP JUMPDEST DUP3 ADD SWAP2 SWAP1 PUSH1 0x0 MSTORE PUSH1 0x20 PUSH1 0x0 KECCAK256 SWAP1 JUMPDEST DUP2 SLOAD DUP2 MSTORE SWAP1 PUSH1 0x1 ADD SWAP1 PUSH1 0x20 ADD DUP1 DUP4 GT PUSH2 0x5D0 JUMPI DUP3 SWAP1 SUB PUSH1 0x1F AND DUP3 ADD SWAP2 JUMPDEST POP POP POP POP POP SWAP1 DUP1 PUSH1 0x1 ADD SLOAD SWAP1 DUP1 PUSH1 0x2 ADD PUSH1 0x0 SWAP1 SLOAD SWAP1 PUSH2 0x100 EXP SWAP1 DIV PUSH20 0xFFFFFFFFFFFFFFFFFFFFFFFFFFFFFFFFFFFFFFFF AND SWAP1 DUP1 PUSH1 0x2 ADD PUSH1 0x14 SWAP1 SLOAD SWAP1 PUSH2 0x100 EXP SWAP1 DIV PUSH1 0xFF AND SWAP1 DUP1 PUSH1 0x3 ADD SLOAD SWAP1 POP DUP6 JUMP JUMPDEST PUSH1 0x0 DUP1 DUP2 PUSH1 0x1 PUSH1 0x0 DUP4 DUP2 MSTORE PUSH1 0x20 ADD SWAP1 DUP2 MSTORE PUSH1 0x20 ADD PUSH1 0x0 KECCAK256 PUSH1 0x3 ADD SLOAD GT ISZERO PUSH2 0x698 JUMPI PUSH1 0x40 MLOAD PUSH32 0x8C379A000000000000000000000000000000000000000000000000000000000 DUP2 MSTORE PUSH1 0x4 ADD PUSH2 0x68F SWAP1 PUSH2 0x1B77 JUMP JUMPDEST PUSH1 0x40 MLOAD DUP1 SWAP2 SUB SWAP1 REVERT JUMPDEST PUSH1 0x0 CALLER SWAP1 POP PUSH32 0xEF7B116480495AD6B1C6479820E4A0140E78DE3846E138C5D055AD601408725E DUP5 DUP3 PUSH1 0x40 MLOAD PUSH2 0x6CE SWAP3 SWAP2 SWAP1 PUSH2 0x1C16 JUMP JUMPDEST PUSH1 0x40 MLOAD DUP1 SWAP2 SUB SWAP1 LOG1 POP POP POP POP JUMP JUMPDEST PUSH2 0x6E4 PUSH2 0x147D JUMP JUMPDEST DUP2 DUP2 PUSH1 0x0 ADD DUP2 SWAP1 MSTORE POP PUSH1 0x2 SLOAD DUP2 PUSH1 0x20 ADD DUP2 DUP2 MSTORE POP POP PUSH1 0x0 DUP2 PUSH1 0x80 ADD DUP2 DUP2 MSTORE POP POP PUSH1 0x1 DUP2 PUSH1 0x40 ADD SWAP1 PUSH1 0x3 DUP2 GT ISZERO PUSH2 0x743 JUMPI PUSH32 0x4E487B7100000000000000000000000000000000000000000000000000000000 PUSH1 0x0 MSTORE PUSH1 0x21 PUSH1 0x4 MSTORE PUSH1 0x24 PUSH1 0x0 REVERT JUMPDEST SWAP1 DUP2 PUSH1 0x3 DUP2 GT ISZERO PUSH2 0x77D JUMPI PUSH32 0x4E487B7100000000000000000000000000000000000000000000000000000000 PUSH1 0x0 MSTORE PUSH1 0x21 PUSH1 0x4 MSTORE PUSH1 0x24 PUSH1 0x0 REVERT JUMPDEST DUP2 MSTORE POP POP CALLER DUP2 PUSH1 0x60 ADD SWAP1 PUSH20 0xFFFFFFFFFFFFFFFFFFFFFFFFFFFFFFFFFFFFFFFF AND SWAP1 DUP2 PUSH20 0xFFFFFFFFFFFFFFFFFFFFFFFFFFFFFFFFFFFFFFFF AND DUP2 MSTORE POP POP DUP1 PUSH1 0x3 PUSH1 0x0 PUSH1 0x2 SLOAD DUP2 MSTORE PUSH1 0x20 ADD SWAP1 DUP2 MSTORE PUSH1 0x20 ADD PUSH1 0x0 KECCAK256 PUSH1 0x0 DUP3 ADD MLOAD DUP2 PUSH1 0x0 ADD SWAP1 DUP1 MLOAD SWAP1 PUSH1 0x20 ADD SWAP1 PUSH2 0x7EB SWAP3 SWAP2 SWAP1 PUSH2 0x14FA JUMP JUMPDEST POP PUSH1 0x20 DUP3 ADD MLOAD DUP2 PUSH1 0x1 ADD SSTORE PUSH1 0x40 DUP3 ADD MLOAD DUP2 PUSH1 0x2 ADD PUSH1 0x0 PUSH2 0x100 EXP DUP2 SLOAD DUP2 PUSH1 0xFF MUL NOT AND SWAP1 DUP4 PUSH1 0x3 DUP2 GT ISZERO PUSH2 0x847 JUMPI PUSH32 0x4E487B7100000000000000000000000000000000000000000000000000000000 PUSH1 0x0 MSTORE PUSH1 0x21 PUSH1 0x4 MSTORE PUSH1 0x24 PUSH1 0x0 REVERT JUMPDEST MUL OR SWAP1 SSTORE POP PUSH1 0x60 DUP3 ADD MLOAD DUP2 PUSH1 0x2 ADD PUSH1 0x1 PUSH2 0x100 EXP DUP2 SLOAD DUP2 PUSH20 0xFFFFFFFFFFFFFFFFFFFFFFFFFFFFFFFFFFFFFFFF MUL NOT AND SWAP1 DUP4 PUSH20 0xFFFFFFFFFFFFFFFFFFFFFFFFFFFFFFFFFFFFFFFF AND MUL OR SWAP1 SSTORE POP PUSH1 0x80 DUP3 ADD MLOAD DUP2 PUSH1 0x3 ADD SSTORE SWAP1 POP POP DUP1 PUSH1 0x4 PUSH1 0x0 CALLER PUSH20 0xFFFFFFFFFFFFFFFFFFFFFFFFFFFFFFFFFFFFFFFF AND PUSH20 0xFFFFFFFFFFFFFFFFFFFFFFFFFFFFFFFFFFFFFFFF AND DUP2 MSTORE PUSH1 0x20 ADD SWAP1 DUP2 MSTORE PUSH1 0x20 ADD PUSH1 0x0 KECCAK256 PUSH1 0x0 DUP3 ADD MLOAD DUP2 PUSH1 0x0 ADD SWAP1 DUP1 MLOAD SWAP1 PUSH1 0x20 ADD SWAP1 PUSH2 0x8FC SWAP3 SWAP2 SWAP1 PUSH2 0x14FA JUMP JUMPDEST POP PUSH1 0x20 DUP3 ADD MLOAD DUP2 PUSH1 0x1 ADD SSTORE PUSH1 0x40 DUP3 ADD MLOAD DUP2 PUSH1 0x2 ADD PUSH1 0x0 PUSH2 0x100 EXP DUP2 SLOAD DUP2 PUSH1 0xFF MUL NOT AND SWAP1 DUP4 PUSH1 0x3 DUP2 GT ISZERO PUSH2 0x958 JUMPI PUSH32 0x4E487B7100000000000000000000000000000000000000000000000000000000 PUSH1 0x0 MSTORE PUSH1 0x21 PUSH1 0x4 MSTORE PUSH1 0x24 PUSH1 0x0 REVERT JUMPDEST MUL OR SWAP1 SSTORE POP PUSH1 0x60 DUP3 ADD MLOAD DUP2 PUSH1 0x2 ADD PUSH1 0x1 PUSH2 0x100 EXP DUP2 SLOAD DUP2 PUSH20 0xFFFFFFFFFFFFFFFFFFFFFFFFFFFFFFFFFFFFFFFF MUL NOT AND SWAP1 DUP4 PUSH20 0xFFFFFFFFFFFFFFFFFFFFFFFFFFFFFFFFFFFFFFFF AND MUL OR SWAP1 SSTORE POP PUSH1 0x80 DUP3 ADD MLOAD DUP2 PUSH1 0x3 ADD SSTORE SWAP1 POP POP PUSH1 0x1 PUSH1 0x2 SLOAD PUSH2 0x9C0 SWAP2 SWAP1 PUSH2 0x1CCD JUMP JUMPDEST PUSH1 0x2 DUP2 SWAP1 SSTORE POP POP POP JUMP JUMPDEST PUSH1 0x3 PUSH1 0x20 MSTORE DUP1 PUSH1 0x0 MSTORE PUSH1 0x40 PUSH1 0x0 KECCAK256 PUSH1 0x0 SWAP2 POP SWAP1 POP DUP1 PUSH1 0x0 ADD DUP1 SLOAD PUSH2 0x9ED SWAP1 PUSH2 0x1DEB JUMP JUMPDEST DUP1 PUSH1 0x1F ADD PUSH1 0x20 DUP1 SWAP2 DIV MUL PUSH1 0x20 ADD PUSH1 0x40 MLOAD SWAP1 DUP2 ADD PUSH1 0x40 MSTORE DUP1 SWAP3 SWAP2 SWAP1 DUP2 DUP2 MSTORE PUSH1 0x20 ADD DUP3 DUP1 SLOAD PUSH2 0xA19 SWAP1 PUSH2 0x1DEB JUMP JUMPDEST DUP1 ISZERO PUSH2 0xA66 JUMPI DUP1 PUSH1 0x1F LT PUSH2 0xA3B JUMPI PUSH2 0x100 DUP1 DUP4 SLOAD DIV MUL DUP4 MSTORE SWAP2 PUSH1 0x20 ADD SWAP2 PUSH2 0xA66 JUMP JUMPDEST DUP3 ADD SWAP2 SWAP1 PUSH1 0x0 MSTORE PUSH1 0x20 PUSH1 0x0 KECCAK256 SWAP1 JUMPDEST DUP2 SLOAD DUP2 MSTORE SWAP1 PUSH1 0x1 ADD SWAP1 PUSH1 0x20 ADD DUP1 DUP4 GT PUSH2 0xA49 JUMPI DUP3 SWAP1 SUB PUSH1 0x1F AND DUP3 ADD SWAP2 JUMPDEST POP POP POP POP POP SWAP1 DUP1 PUSH1 0x1 ADD SLOAD SWAP1 DUP1 PUSH1 0x2 ADD PUSH1 0x0 SWAP1 SLOAD SWAP1 PUSH2 0x100 EXP SWAP1 DIV PUSH1 0xFF AND SWAP1 DUP1 PUSH1 0x2 ADD PUSH1 0x1 SWAP1 SLOAD SWAP1 PUSH2 0x100 EXP SWAP1 DIV PUSH20 0xFFFFFFFFFFFFFFFFFFFFFFFFFFFFFFFFFFFFFFFF AND SWAP1 DUP1 PUSH1 0x3 ADD SLOAD SWAP1 POP DUP6 JUMP JUMPDEST PUSH2 0xABD PUSH2 0x1580 JUMP JUMPDEST PUSH1 0x1 PUSH1 0x0 DUP4 DUP2 MSTORE PUSH1 0x20 ADD SWAP1 DUP2 MSTORE PUSH1 0x20 ADD PUSH1 0x0 KECCAK256 PUSH1 0x40 MLOAD DUP1 PUSH1 0xA0 ADD PUSH1 0x40 MSTORE SWAP1 DUP2 PUSH1 0x0 DUP3 ADD DUP1 SLOAD PUSH2 0xAEB SWAP1 PUSH2 0x1DEB JUMP JUMPDEST DUP1 PUSH1 0x1F ADD PUSH1 0x20 DUP1 SWAP2 DIV MUL PUSH1 0x20 ADD PUSH1 0x40 MLOAD SWAP1 DUP2 ADD PUSH1 0x40 MSTORE DUP1 SWAP3 SWAP2 SWAP1 DUP2 DUP2 MSTORE PUSH1 0x20 ADD DUP3 DUP1 SLOAD PUSH2 0xB17 SWAP1 PUSH2 0x1DEB JUMP JUMPDEST DUP1 ISZERO PUSH2 0xB64 JUMPI DUP1 PUSH1 0x1F LT PUSH2 0xB39 JUMPI PUSH2 0x100 DUP1 DUP4 SLOAD DIV MUL DUP4 MSTORE SWAP2 PUSH1 0x20 ADD SWAP2 PUSH2 0xB64 JUMP JUMPDEST DUP3 ADD SWAP2 SWAP1 PUSH1 0x0 MSTORE PUSH1 0x20 PUSH1 0x0 KECCAK256 SWAP1 JUMPDEST DUP2 SLOAD DUP2 MSTORE SWAP1 PUSH1 0x1 ADD SWAP1 PUSH1 0x20 ADD DUP1 DUP4 GT PUSH2 0xB47 JUMPI DUP3 SWAP1 SUB PUSH1 0x1F AND DUP3 ADD SWAP2 JUMPDEST POP POP POP POP POP DUP2 MSTORE PUSH1 0x20 ADD PUSH1 0x1 DUP3 ADD SLOAD DUP2 MSTORE PUSH1 0x20 ADD PUSH1 0x2 DUP3 ADD PUSH1 0x0 SWAP1 SLOAD SWAP1 PUSH2 0x100 EXP SWAP1 DIV PUSH20 0xFFFFFFFFFFFFFFFFFFFFFFFFFFFFFFFFFFFFFFFF AND PUSH20 0xFFFFFFFFFFFFFFFFFFFFFFFFFFFFFFFFFFFFFFFF AND PUSH20 0xFFFFFFFFFFFFFFFFFFFFFFFFFFFFFFFFFFFFFFFF AND DUP2 MSTORE PUSH1 0x20 ADD PUSH1 0x2 DUP3 ADD PUSH1 0x14 SWAP1 SLOAD SWAP1 PUSH2 0x100 EXP SWAP1 DIV PUSH1 0xFF AND PUSH1 0x6 DUP2 GT ISZERO PUSH2 0xC18 JUMPI PUSH32 0x4E487B7100000000000000000000000000000000000000000000000000000000 PUSH1 0x0 MSTORE PUSH1 0x21 PUSH1 0x4 MSTORE PUSH1 0x24 PUSH1 0x0 REVERT JUMPDEST PUSH1 0x6 DUP2 GT ISZERO PUSH2 0xC50 JUMPI PUSH32 0x4E487B7100000000000000000000000000000000000000000000000000000000 PUSH1 0x0 MSTORE PUSH1 0x21 PUSH1 0x4 MSTORE PUSH1 0x24 PUSH1 0x0 REVERT JUMPDEST DUP2 MSTORE PUSH1 0x20 ADD PUSH1 0x3 DUP3 ADD SLOAD DUP2 MSTORE POP POP SWAP1 POP SWAP2 SWAP1 POP JUMP JUMPDEST PUSH1 0x3 PUSH1 0x1 PUSH1 0x0 DUP5 DUP2 MSTORE PUSH1 0x20 ADD SWAP1 DUP2 MSTORE PUSH1 0x20 ADD PUSH1 0x0 KECCAK256 PUSH1 0x2 ADD PUSH1 0x14 PUSH2 0x100 EXP DUP2 SLOAD DUP2 PUSH1 0xFF MUL NOT AND SWAP1 DUP4 PUSH1 0x6 DUP2 GT ISZERO PUSH2 0xCC5 JUMPI PUSH32 0x4E487B7100000000000000000000000000000000000000000000000000000000 PUSH1 0x0 MSTORE PUSH1 0x21 PUSH1 0x4 MSTORE PUSH1 0x24 PUSH1 0x0 REVERT JUMPDEST MUL OR SWAP1 SSTORE POP PUSH32 0x45AF58AAF003AC2EC2AD90282F8D3D79EDE476B3E19183ACB4ABDEBF6553B6A9 DUP3 DUP3 PUSH1 0x40 MLOAD PUSH2 0xCFB SWAP3 SWAP2 SWAP1 PUSH2 0x1C16 JUMP JUMPDEST PUSH1 0x40 MLOAD DUP1 SWAP2 SUB SWAP1 LOG1 POP POP JUMP JUMPDEST PUSH2 0xD0F PUSH2 0x147D JUMP JUMPDEST SWAP2 SWAP1 POP JUMP JUMPDEST CALLER PUSH1 0x0 PUSH1 0x3 DUP2 GT ISZERO PUSH2 0xD4F JUMPI PUSH32 0x4E487B7100000000000000000000000000000000000000000000000000000000 PUSH1 0x0 MSTORE PUSH1 0x21 PUSH1 0x4 MSTORE PUSH1 0x24 PUSH1 0x0 REVERT JUMPDEST PUSH1 0x4 PUSH1 0x0 DUP4 PUSH20 0xFFFFFFFFFFFFFFFFFFFFFFFFFFFFFFFFFFFFFFFF AND PUSH20 0xFFFFFFFFFFFFFFFFFFFFFFFFFFFFFFFFFFFFFFFF AND DUP2 MSTORE PUSH1 0x20 ADD SWAP1 DUP2 MSTORE PUSH1 0x20 ADD PUSH1 0x0 KECCAK256 PUSH1 0x2 ADD PUSH1 0x0 SWAP1 SLOAD SWAP1 PUSH2 0x100 EXP SWAP1 DIV PUSH1 0xFF AND PUSH1 0x3 DUP2 GT ISZERO PUSH2 0xDD7 JUMPI PUSH32 0x4E487B7100000000000000000000000000000000000000000000000000000000 PUSH1 0x0 MSTORE PUSH1 0x21 PUSH1 0x4 MSTORE PUSH1 0x24 PUSH1 0x0 REVERT JUMPDEST EQ PUSH2 0xE17 JUMPI PUSH1 0x40 MLOAD PUSH32 0x8C379A000000000000000000000000000000000000000000000000000000000 DUP2 MSTORE PUSH1 0x4 ADD PUSH2 0xE0E SWAP1 PUSH2 0x1B57 JUMP JUMPDEST PUSH1 0x40 MLOAD DUP1 SWAP2 SUB SWAP1 REVERT JUMPDEST PUSH2 0xE1F PUSH2 0x1580 JUMP JUMPDEST DUP4 DUP2 PUSH1 0x0 ADD DUP2 SWAP1 MSTORE POP PUSH1 0x0 SLOAD DUP2 PUSH1 0x20 ADD DUP2 DUP2 MSTORE POP POP CALLER DUP2 PUSH1 0x40 ADD SWAP1 PUSH20 0xFFFFFFFFFFFFFFFFFFFFFFFFFFFFFFFFFFFFFFFF AND SWAP1 DUP2 PUSH20 0xFFFFFFFFFFFFFFFFFFFFFFFFFFFFFFFFFFFFFFFF AND DUP2 MSTORE POP POP PUSH1 0x0 DUP2 PUSH1 0x60 ADD SWAP1 PUSH1 0x6 DUP2 GT ISZERO PUSH2 0xEAB JUMPI PUSH32 0x4E487B7100000000000000000000000000000000000000000000000000000000 PUSH1 0x0 MSTORE PUSH1 0x21 PUSH1 0x4 MSTORE PUSH1 0x24 PUSH1 0x0 REVERT JUMPDEST SWAP1 DUP2 PUSH1 0x6 DUP2 GT ISZERO PUSH2 0xEE5 JUMPI PUSH32 0x4E487B7100000000000000000000000000000000000000000000000000000000 PUSH1 0x0 MSTORE PUSH1 0x21 PUSH1 0x4 MSTORE PUSH1 0x24 PUSH1 0x0 REVERT JUMPDEST DUP2 MSTORE POP POP DUP1 PUSH1 0x1 PUSH1 0x0 DUP1 SLOAD DUP2 MSTORE PUSH1 0x20 ADD SWAP1 DUP2 MSTORE PUSH1 0x20 ADD PUSH1 0x0 KECCAK256 PUSH1 0x0 DUP3 ADD MLOAD DUP2 PUSH1 0x0 ADD SWAP1 DUP1 MLOAD SWAP1 PUSH1 0x20 ADD SWAP1 PUSH2 0xF1A SWAP3 SWAP2 SWAP1 PUSH2 0x14FA JUMP JUMPDEST POP PUSH1 0x20 DUP3 ADD MLOAD DUP2 PUSH1 0x1 ADD SSTORE PUSH1 0x40 DUP3 ADD MLOAD DUP2 PUSH1 0x2 ADD PUSH1 0x0 PUSH2 0x100 EXP DUP2 SLOAD DUP2 PUSH20 0xFFFFFFFFFFFFFFFFFFFFFFFFFFFFFFFFFFFFFFFF MUL NOT AND SWAP1 DUP4 PUSH20 0xFFFFFFFFFFFFFFFFFFFFFFFFFFFFFFFFFFFFFFFF AND MUL OR SWAP1 SSTORE POP PUSH1 0x60 DUP3 ADD MLOAD DUP2 PUSH1 0x2 ADD PUSH1 0x14 PUSH2 0x100 EXP DUP2 SLOAD DUP2 PUSH1 0xFF MUL NOT AND SWAP1 DUP4 PUSH1 0x6 DUP2 GT ISZERO PUSH2 0xFBD JUMPI PUSH32 0x4E487B7100000000000000000000000000000000000000000000000000000000 PUSH1 0x0 MSTORE PUSH1 0x21 PUSH1 0x4 MSTORE PUSH1 0x24 PUSH1 0x0 REVERT JUMPDEST MUL OR SWAP1 SSTORE POP PUSH1 0x80 DUP3 ADD MLOAD DUP2 PUSH1 0x3 ADD SSTORE SWAP1 POP POP PUSH32 0x4E95503BF2C40739506D6F0AFB0FE6BE42CE748D90F3F516386892FB6096E5BC PUSH1 0x0 SLOAD CALLER PUSH1 0x40 MLOAD PUSH2 0x1002 SWAP3 SWAP2 SWAP1 PUSH2 0x1C16 JUMP JUMPDEST PUSH1 0x40 MLOAD DUP1 SWAP2 SUB SWAP1 LOG1 PUSH1 0x1 PUSH1 0x0 SLOAD PUSH2 0x1019 SWAP2 SWAP1 PUSH2 0x1CCD JUMP JUMPDEST PUSH1 0x0 DUP2 SWAP1 SSTORE POP POP POP POP POP JUMP JUMPDEST PUSH1 0x5 PUSH1 0x0 SWAP1 SLOAD SWAP1 PUSH2 0x100 EXP SWAP1 DIV PUSH20 0xFFFFFFFFFFFFFFFFFFFFFFFFFFFFFFFFFFFFFFFF AND DUP2 JUMP JUMPDEST PUSH2 0x1053 PUSH2 0x147D JUMP JUMPDEST DUP2 DUP2 PUSH1 0x0 ADD DUP2 SWAP1 MSTORE POP PUSH1 0x2 SLOAD DUP2 PUSH1 0x20 ADD DUP2 DUP2 MSTORE POP POP PUSH1 0x0 DUP2 PUSH1 0x80 ADD DUP2 DUP2 MSTORE POP POP PUSH1 0x3 DUP2 PUSH1 0x40 ADD SWAP1 PUSH1 0x3 DUP2 GT ISZERO PUSH2 0x10B2 JUMPI PUSH32 0x4E487B7100000000000000000000000000000000000000000000000000000000 PUSH1 0x0 MSTORE PUSH1 0x21 PUSH1 0x4 MSTORE PUSH1 0x24 PUSH1 0x0 REVERT JUMPDEST SWAP1 DUP2 PUSH1 0x3 DUP2 GT ISZERO PUSH2 0x10EC JUMPI PUSH32 0x4E487B7100000000000000000000000000000000000000000000000000000000 PUSH1 0x0 MSTORE PUSH1 0x21 PUSH1 0x4 MSTORE PUSH1 0x24 PUSH1 0x0 REVERT JUMPDEST DUP2 MSTORE POP POP CALLER DUP2 PUSH1 0x60 ADD SWAP1 PUSH20 0xFFFFFFFFFFFFFFFFFFFFFFFFFFFFFFFFFFFFFFFF AND SWAP1 DUP2 PUSH20 0xFFFFFFFFFFFFFFFFFFFFFFFFFFFFFFFFFFFFFFFF AND DUP2 MSTORE POP POP DUP1 PUSH1 0x3 PUSH1 0x0 PUSH1 0x2 SLOAD DUP2 MSTORE PUSH1 0x20 ADD SWAP1 DUP2 MSTORE PUSH1 0x20 ADD PUSH1 0x0 KECCAK256 PUSH1 0x0 DUP3 ADD MLOAD DUP2 PUSH1 0x0 ADD SWAP1 DUP1 MLOAD SWAP1 PUSH1 0x20 ADD SWAP1 PUSH2 0x115A SWAP3 SWAP2 SWAP1 PUSH2 0x14FA JUMP JUMPDEST POP PUSH1 0x20 DUP3 ADD MLOAD DUP2 PUSH1 0x1 ADD SSTORE PUSH1 0x40 DUP3 ADD MLOAD DUP2 PUSH1 0x2 ADD PUSH1 0x0 PUSH2 0x100 EXP DUP2 SLOAD DUP2 PUSH1 0xFF MUL NOT AND SWAP1 DUP4 PUSH1 0x3 DUP2 GT ISZERO PUSH2 0x11B6 JUMPI PUSH32 0x4E487B7100000000000000000000000000000000000000000000000000000000 PUSH1 0x0 MSTORE PUSH1 0x21 PUSH1 0x4 MSTORE PUSH1 0x24 PUSH1 0x0 REVERT JUMPDEST MUL OR SWAP1 SSTORE POP PUSH1 0x60 DUP3 ADD MLOAD DUP2 PUSH1 0x2 ADD PUSH1 0x1 PUSH2 0x100 EXP DUP2 SLOAD DUP2 PUSH20 0xFFFFFFFFFFFFFFFFFFFFFFFFFFFFFFFFFFFFFFFF MUL NOT AND SWAP1 DUP4 PUSH20 0xFFFFFFFFFFFFFFFFFFFFFFFFFFFFFFFFFFFFFFFF AND MUL OR SWAP1 SSTORE POP PUSH1 0x80 DUP3 ADD MLOAD DUP2 PUSH1 0x3 ADD SSTORE SWAP1 POP POP DUP1 PUSH1 0x4 PUSH1 0x0 CALLER PUSH20 0xFFFFFFFFFFFFFFFFFFFFFFFFFFFFFFFFFFFFFFFF AND PUSH20 0xFFFFFFFFFFFFFFFFFFFFFFFFFFFFFFFFFFFFFFFF AND DUP2 MSTORE PUSH1 0x20 ADD SWAP1 DUP2 MSTORE PUSH1 0x20 ADD PUSH1 0x0 KECCAK256 PUSH1 0x0 DUP3 ADD MLOAD DUP2 PUSH1 0x0 ADD SWAP1 DUP1 MLOAD SWAP1 PUSH1 0x20 ADD SWAP1 PUSH2 0x126B SWAP3 SWAP2 SWAP1 PUSH2 0x14FA JUMP JUMPDEST POP PUSH1 0x20 DUP3 ADD MLOAD DUP2 PUSH1 0x1 ADD SSTORE PUSH1 0x40 DUP3 ADD MLOAD DUP2 PUSH1 0x2 ADD PUSH1 0x0 PUSH2 0x100 EXP DUP2 SLOAD DUP2 PUSH1 0xFF MUL NOT AND SWAP1 DUP4 PUSH1 0x3 DUP2 GT ISZERO PUSH2 0x12C7 JUMPI PUSH32 0x4E487B7100000000000000000000000000000000000000000000000000000000 PUSH1 0x0 MSTORE PUSH1 0x21 PUSH1 0x4 MSTORE PUSH1 0x24 PUSH1 0x0 REVERT JUMPDEST MUL OR SWAP1 SSTORE POP PUSH1 0x60 DUP3 ADD MLOAD DUP2 PUSH1 0x2 ADD PUSH1 0x1 PUSH2 0x100 EXP DUP2 SLOAD DUP2 PUSH20 0xFFFFFFFFFFFFFFFFFFFFFFFFFFFFFFFFFFFFFFFF MUL NOT AND SWAP1 DUP4 PUSH20 0xFFFFFFFFFFFFFFFFFFFFFFFFFFFFFFFFFFFFFFFF AND MUL OR SWAP1 SSTORE POP PUSH1 0x80 DUP3 ADD MLOAD DUP2 PUSH1 0x3 ADD SSTORE SWAP1 POP POP PUSH1 0x1 PUSH1 0x2 SLOAD PUSH2 0x132F SWAP2 SWAP1 PUSH2 0x1CCD JUMP JUMPDEST PUSH1 0x2 DUP2 SWAP1 SSTORE POP POP POP JUMP JUMPDEST DUP1 CALLER PUSH20 0xFFFFFFFFFFFFFFFFFFFFFFFFFFFFFFFFFFFFFFFF AND PUSH1 0x1 PUSH1 0x0 DUP4 DUP2 MSTORE PUSH1 0x20 ADD SWAP1 DUP2 MSTORE PUSH1 0x20 ADD PUSH1 0x0 KECCAK256 PUSH1 0x2 ADD PUSH1 0x0 SWAP1 SLOAD SWAP1 PUSH2 0x100 EXP SWAP1 DIV PUSH20 0xFFFFFFFFFFFFFFFFFFFFFFFFFFFFFFFFFFFFFFFF AND PUSH20 0xFFFFFFFFFFFFFFFFFFFFFFFFFFFFFFFFFFFFFFFF AND EQ PUSH2 0x13DE JUMPI PUSH1 0x40 MLOAD PUSH32 0x8C379A000000000000000000000000000000000000000000000000000000000 DUP2 MSTORE PUSH1 0x4 ADD PUSH2 0x13D5 SWAP1 PUSH2 0x1B97 JUMP JUMPDEST PUSH1 0x40 MLOAD DUP1 SWAP2 SUB SWAP1 REVERT JUMPDEST PUSH1 0x1 DUP1 PUSH1 0x0 DUP5 DUP2 MSTORE PUSH1 0x20 ADD SWAP1 DUP2 MSTORE PUSH1 0x20 ADD PUSH1 0x0 KECCAK256 PUSH1 0x2 ADD PUSH1 0x14 PUSH2 0x100 EXP DUP2 SLOAD DUP2 PUSH1 0xFF MUL NOT AND SWAP1 DUP4 PUSH1 0x6 DUP2 GT ISZERO PUSH2 0x143D JUMPI PUSH32 0x4E487B7100000000000000000000000000000000000000000000000000000000 PUSH1 0x0 MSTORE PUSH1 0x21 PUSH1 0x4 MSTORE PUSH1 0x24 PUSH1 0x0 REVERT JUMPDEST MUL OR SWAP1 SSTORE POP PUSH32 0x15F51416BF6F180A7F06AB542B87DACC1363E503B8DF75D711F9AAEDC5C48A70 DUP3 PUSH1 0x40 MLOAD PUSH2 0x1471 SWAP2 SWAP1 PUSH2 0x1BFB JUMP JUMPDEST PUSH1 0x40 MLOAD DUP1 SWAP2 SUB SWAP1 LOG1 POP POP JUMP JUMPDEST PUSH1 0x40 MLOAD DUP1 PUSH1 0xA0 ADD PUSH1 0x40 MSTORE DUP1 PUSH1 0x60 DUP2 MSTORE PUSH1 0x20 ADD PUSH1 0x0 DUP2 MSTORE PUSH1 0x20 ADD PUSH1 0x0 PUSH1 0x3 DUP2 GT ISZERO PUSH2 0x14D0 JUMPI PUSH32 0x4E487B7100000000000000000000000000000000000000000000000000000000 PUSH1 0x0 MSTORE PUSH1 0x21 PUSH1 0x4 MSTORE PUSH1 0x24 PUSH1 0x0 REVERT JUMPDEST DUP2 MSTORE PUSH1 0x20 ADD PUSH1 0x0 PUSH20 0xFFFFFFFFFFFFFFFFFFFFFFFFFFFFFFFFFFFFFFFF AND DUP2 MSTORE PUSH1 0x20 ADD PUSH1 0x0 DUP2 MSTORE POP SWAP1 JUMP JUMPDEST DUP3 DUP1 SLOAD PUSH2 0x1506 SWAP1 PUSH2 0x1DEB JUMP JUMPDEST SWAP1 PUSH1 0x0 MSTORE PUSH1 0x20 PUSH1 0x0 KECCAK256 SWAP1 PUSH1 0x1F ADD PUSH1 0x20 SWAP1 DIV DUP2 ADD SWAP3 DUP3 PUSH2 0x1528 JUMPI PUSH1 0x0 DUP6 SSTORE PUSH2 0x156F JUMP JUMPDEST DUP3 PUSH1 0x1F LT PUSH2 0x1541 JUMPI DUP1 MLOAD PUSH1 0xFF NOT AND DUP4 DUP1 ADD OR DUP6 SSTORE PUSH2 0x156F JUMP JUMPDEST DUP3 DUP1 ADD PUSH1 0x1 ADD DUP6 SSTORE DUP3 ISZERO PUSH2 0x156F JUMPI SWAP2 DUP3 ADD JUMPDEST DUP3 DUP2 GT ISZERO PUSH2 0x156E JUMPI DUP3 MLOAD DUP3 SSTORE SWAP2 PUSH1 0x20 ADD SWAP2 SWAP1 PUSH1 0x1 ADD SWAP1 PUSH2 0x1553 JUMP JUMPDEST JUMPDEST POP SWAP1 POP PUSH2 0x157C SWAP2 SWAP1 PUSH2 0x15FD JUMP JUMPDEST POP SWAP1 JUMP JUMPDEST PUSH1 0x40 MLOAD DUP1 PUSH1 0xA0 ADD PUSH1 0x40 MSTORE DUP1 PUSH1 0x60 DUP2 MSTORE PUSH1 0x20 ADD PUSH1 0x0 DUP2 MSTORE PUSH1 0x20 ADD PUSH1 0x0 PUSH20 0xFFFFFFFFFFFFFFFFFFFFFFFFFFFFFFFFFFFFFFFF AND DUP2 MSTORE PUSH1 0x20 ADD PUSH1 0x0 PUSH1 0x6 DUP2 GT ISZERO PUSH2 0x15F0 JUMPI PUSH32 0x4E487B7100000000000000000000000000000000000000000000000000000000 PUSH1 0x0 MSTORE PUSH1 0x21 PUSH1 0x4 MSTORE PUSH1 0x24 PUSH1 0x0 REVERT JUMPDEST DUP2 MSTORE PUSH1 0x20 ADD PUSH1 0x0 DUP2 MSTORE POP SWAP1 JUMP JUMPDEST JUMPDEST DUP1 DUP3 GT ISZERO PUSH2 0x1616 JUMPI PUSH1 0x0 DUP2 PUSH1 0x0 SWAP1 SSTORE POP PUSH1 0x1 ADD PUSH2 0x15FE JUMP JUMPDEST POP SWAP1 JUMP JUMPDEST PUSH1 0x0 PUSH2 0x162D PUSH2 0x1628 DUP5 PUSH2 0x1C70 JUMP JUMPDEST PUSH2 0x1C3F JUMP JUMPDEST SWAP1 POP DUP3 DUP2 MSTORE PUSH1 0x20 DUP2 ADD DUP5 DUP5 DUP5 ADD GT ISZERO PUSH2 0x1645 JUMPI PUSH1 0x0 DUP1 REVERT JUMPDEST PUSH2 0x1650 DUP5 DUP3 DUP6 PUSH2 0x1DA9 JUMP JUMPDEST POP SWAP4 SWAP3 POP POP POP JUMP JUMPDEST PUSH1 0x0 DUP2 CALLDATALOAD SWAP1 POP PUSH2 0x1667 DUP2 PUSH2 0x1F12 JUMP JUMPDEST SWAP3 SWAP2 POP POP JUMP JUMPDEST PUSH1 0x0 DUP3 PUSH1 0x1F DUP4 ADD SLT PUSH2 0x167E JUMPI PUSH1 0x0 DUP1 REVERT JUMPDEST DUP2 CALLDATALOAD PUSH2 0x168E DUP5 DUP3 PUSH1 0x20 DUP7 ADD PUSH2 0x161A JUMP JUMPDEST SWAP2 POP POP SWAP3 SWAP2 POP POP JUMP JUMPDEST PUSH1 0x0 DUP2 CALLDATALOAD SWAP1 POP PUSH2 0x16A6 DUP2 PUSH2 0x1F29 JUMP JUMPDEST SWAP3 SWAP2 POP POP JUMP JUMPDEST PUSH1 0x0 PUSH1 0x20 DUP3 DUP5 SUB SLT ISZERO PUSH2 0x16BE JUMPI PUSH1 0x0 DUP1 REVERT JUMPDEST PUSH1 0x0 DUP3 ADD CALLDATALOAD PUSH8 0xFFFFFFFFFFFFFFFF DUP2 GT ISZERO PUSH2 0x16D8 JUMPI PUSH1 0x0 DUP1 REVERT JUMPDEST PUSH2 0x16E4 DUP5 DUP3 DUP6 ADD PUSH2 0x166D JUMP JUMPDEST SWAP2 POP POP SWAP3 SWAP2 POP POP JUMP JUMPDEST PUSH1 0x0 DUP1 PUSH1 0x40 DUP4 DUP6 SUB SLT ISZERO PUSH2 0x1700 JUMPI PUSH1 0x0 DUP1 REVERT JUMPDEST PUSH1 0x0 DUP4 ADD CALLDATALOAD PUSH8 0xFFFFFFFFFFFFFFFF DUP2 GT ISZERO PUSH2 0x171A JUMPI PUSH1 0x0 DUP1 REVERT JUMPDEST PUSH2 0x1726 DUP6 DUP3 DUP7 ADD PUSH2 0x166D JUMP JUMPDEST SWAP3 POP POP PUSH1 0x20 PUSH2 0x1737 DUP6 DUP3 DUP7 ADD PUSH2 0x1697 JUMP JUMPDEST SWAP2 POP POP SWAP3 POP SWAP3 SWAP1 POP JUMP JUMPDEST PUSH1 0x0 PUSH1 0x20 DUP3 DUP5 SUB SLT ISZERO PUSH2 0x1753 JUMPI PUSH1 0x0 DUP1 REVERT JUMPDEST PUSH1 0x0 PUSH2 0x1761 DUP5 DUP3 DUP6 ADD PUSH2 0x1697 JUMP JUMPDEST SWAP2 POP POP SWAP3 SWAP2 POP POP JUMP JUMPDEST PUSH1 0x0 DUP1 PUSH1 0x40 DUP4 DUP6 SUB SLT ISZERO PUSH2 0x177D JUMPI PUSH1 0x0 DUP1 REVERT JUMPDEST PUSH1 0x0 PUSH2 0x178B DUP6 DUP3 DUP7 ADD PUSH2 0x1697 JUMP JUMPDEST SWAP3 POP POP PUSH1 0x20 PUSH2 0x179C DUP6 DUP3 DUP7 ADD PUSH2 0x1658 JUMP JUMPDEST SWAP2 POP POP SWAP3 POP SWAP3 SWAP1 POP JUMP JUMPDEST PUSH2 0x17AF DUP2 PUSH2 0x1D23 JUMP JUMPDEST DUP3 MSTORE POP POP JUMP JUMPDEST PUSH2 0x17BE DUP2 PUSH2 0x1D23 JUMP JUMPDEST DUP3 MSTORE POP POP JUMP JUMPDEST PUSH2 0x17CD DUP2 PUSH2 0x1D85 JUMP JUMPDEST DUP3 MSTORE POP POP JUMP JUMPDEST PUSH2 0x17DC DUP2 PUSH2 0x1D85 JUMP JUMPDEST DUP3 MSTORE POP POP JUMP JUMPDEST PUSH2 0x17EB DUP2 PUSH2 0x1D97 JUMP JUMPDEST DUP3 MSTORE POP POP JUMP JUMPDEST PUSH2 0x17FA DUP2 PUSH2 0x1D97 JUMP JUMPDEST DUP3 MSTORE POP POP JUMP JUMPDEST PUSH1 0x0 PUSH2 0x180B DUP3 PUSH2 0x1CA0 JUMP JUMPDEST PUSH2 0x1815 DUP2 DUP6 PUSH2 0x1CAB JUMP JUMPDEST SWAP4 POP PUSH2 0x1825 DUP2 DUP6 PUSH1 0x20 DUP7 ADD PUSH2 0x1DB8 JUMP JUMPDEST PUSH2 0x182E DUP2 PUSH2 0x1ED9 JUMP JUMPDEST DUP5 ADD SWAP2 POP POP SWAP3 SWAP2 POP POP JUMP JUMPDEST PUSH1 0x0 PUSH2 0x1844 DUP3 PUSH2 0x1CA0 JUMP JUMPDEST PUSH2 0x184E DUP2 DUP6 PUSH2 0x1CBC JUMP JUMPDEST SWAP4 POP PUSH2 0x185E DUP2 DUP6 PUSH1 0x20 DUP7 ADD PUSH2 0x1DB8 JUMP JUMPDEST PUSH2 0x1867 DUP2 PUSH2 0x1ED9 JUMP JUMPDEST DUP5 ADD SWAP2 POP POP SWAP3 SWAP2 POP POP JUMP JUMPDEST PUSH1 0x0 PUSH2 0x187F PUSH1 0x1A DUP4 PUSH2 0x1CBC JUMP JUMPDEST SWAP2 POP PUSH32 0x796F752063616E6E6F7420616464206E65772070726F64756374000000000000 PUSH1 0x0 DUP4 ADD MSTORE PUSH1 0x20 DUP3 ADD SWAP1 POP SWAP2 SWAP1 POP JUMP JUMPDEST PUSH1 0x0 PUSH2 0x18BF PUSH1 0x2D DUP4 PUSH2 0x1CBC JUMP JUMPDEST SWAP2 POP PUSH32 0x796F7520646F6E74206861766520656E6F756768206D6F6E657920746F206275 PUSH1 0x0 DUP4 ADD MSTORE PUSH32 0x79207468652070726F6475637400000000000000000000000000000000000000 PUSH1 0x20 DUP4 ADD MSTORE PUSH1 0x40 DUP3 ADD SWAP1 POP SWAP2 SWAP1 POP JUMP JUMPDEST PUSH1 0x0 PUSH2 0x1925 PUSH1 0x21 DUP4 PUSH2 0x1CBC JUMP JUMPDEST SWAP2 POP PUSH32 0x796F7520617265206E6F74206F776E6572206F6620746869732070726F647563 PUSH1 0x0 DUP4 ADD MSTORE PUSH32 0x7400000000000000000000000000000000000000000000000000000000000000 PUSH1 0x20 DUP4 ADD MSTORE PUSH1 0x40 DUP3 ADD SWAP1 POP SWAP2 SWAP1 POP JUMP JUMPDEST PUSH1 0x0 PUSH1 0xA0 DUP4 ADD PUSH1 0x0 DUP4 ADD MLOAD DUP5 DUP3 SUB PUSH1 0x0 DUP7 ADD MSTORE PUSH2 0x199B DUP3 DUP3 PUSH2 0x1800 JUMP JUMPDEST SWAP2 POP POP PUSH1 0x20 DUP4 ADD MLOAD PUSH2 0x19B0 PUSH1 0x20 DUP7 ADD DUP3 PUSH2 0x1A6A JUMP JUMPDEST POP PUSH1 0x40 DUP4 ADD MLOAD PUSH2 0x19C3 PUSH1 0x40 DUP7 ADD DUP3 PUSH2 0x17A6 JUMP JUMPDEST POP PUSH1 0x60 DUP4 ADD MLOAD PUSH2 0x19D6 PUSH1 0x60 DUP7 ADD DUP3 PUSH2 0x17C4 JUMP JUMPDEST POP PUSH1 0x80 DUP4 ADD MLOAD PUSH2 0x19E9 PUSH1 0x80 DUP7 ADD DUP3 PUSH2 0x1A6A JUMP JUMPDEST POP DUP1 SWAP2 POP POP SWAP3 SWAP2 POP POP JUMP JUMPDEST PUSH1 0x0 PUSH1 0xA0 DUP4 ADD PUSH1 0x0 DUP4 ADD MLOAD DUP5 DUP3 SUB PUSH1 0x0 DUP7 ADD MSTORE PUSH2 0x1A11 DUP3 DUP3 PUSH2 0x1800 JUMP JUMPDEST SWAP2 POP POP PUSH1 0x20 DUP4 ADD MLOAD PUSH2 0x1A26 PUSH1 0x20 DUP7 ADD DUP3 PUSH2 0x1A6A JUMP JUMPDEST POP PUSH1 0x40 DUP4 ADD MLOAD PUSH2 0x1A39 PUSH1 0x40 DUP7 ADD DUP3 PUSH2 0x17E2 JUMP JUMPDEST POP PUSH1 0x60 DUP4 ADD MLOAD PUSH2 0x1A4C PUSH1 0x60 DUP7 ADD DUP3 PUSH2 0x17A6 JUMP JUMPDEST POP PUSH1 0x80 DUP4 ADD MLOAD PUSH2 0x1A5F PUSH1 0x80 DUP7 ADD DUP3 PUSH2 0x1A6A JUMP JUMPDEST POP DUP1 SWAP2 POP POP SWAP3 SWAP2 POP POP JUMP JUMPDEST PUSH2 0x1A73 DUP2 PUSH2 0x1D7B JUMP JUMPDEST DUP3 MSTORE POP POP JUMP JUMPDEST PUSH2 0x1A82 DUP2 PUSH2 0x1D7B JUMP JUMPDEST DUP3 MSTORE POP POP JUMP JUMPDEST PUSH1 0x0 PUSH1 0x20 DUP3 ADD SWAP1 POP PUSH2 0x1A9D PUSH1 0x0 DUP4 ADD DUP5 PUSH2 0x17B5 JUMP JUMPDEST SWAP3 SWAP2 POP POP JUMP JUMPDEST PUSH1 0x0 PUSH1 0xA0 DUP3 ADD SWAP1 POP DUP2 DUP2 SUB PUSH1 0x0 DUP4 ADD MSTORE PUSH2 0x1ABD DUP2 DUP9 PUSH2 0x1839 JUMP JUMPDEST SWAP1 POP PUSH2 0x1ACC PUSH1 0x20 DUP4 ADD DUP8 PUSH2 0x1A79 JUMP JUMPDEST PUSH2 0x1AD9 PUSH1 0x40 DUP4 ADD DUP7 PUSH2 0x17B5 JUMP JUMPDEST PUSH2 0x1AE6 PUSH1 0x60 DUP4 ADD DUP6 PUSH2 0x17D3 JUMP JUMPDEST PUSH2 0x1AF3 PUSH1 0x80 DUP4 ADD DUP5 PUSH2 0x1A79 JUMP JUMPDEST SWAP7 SWAP6 POP POP POP POP POP POP JUMP JUMPDEST PUSH1 0x0 PUSH1 0xA0 DUP3 ADD SWAP1 POP DUP2 DUP2 SUB PUSH1 0x0 DUP4 ADD MSTORE PUSH2 0x1B17 DUP2 DUP9 PUSH2 0x1839 JUMP JUMPDEST SWAP1 POP PUSH2 0x1B26 PUSH1 0x20 DUP4 ADD DUP8 PUSH2 0x1A79 JUMP JUMPDEST PUSH2 0x1B33 PUSH1 0x40 DUP4 ADD DUP7 PUSH2 0x17F1 JUMP JUMPDEST PUSH2 0x1B40 PUSH1 0x60 DUP4 ADD DUP6 PUSH2 0x17B5 JUMP JUMPDEST PUSH2 0x1B4D PUSH1 0x80 DUP4 ADD DUP5 PUSH2 0x1A79 JUMP JUMPDEST SWAP7 SWAP6 POP POP POP POP POP POP JUMP JUMPDEST PUSH1 0x0 PUSH1 0x20 DUP3 ADD SWAP1 POP DUP2 DUP2 SUB PUSH1 0x0 DUP4 ADD MSTORE PUSH2 0x1B70 DUP2 PUSH2 0x1872 JUMP JUMPDEST SWAP1 POP SWAP2 SWAP1 POP JUMP JUMPDEST PUSH1 0x0 PUSH1 0x20 DUP3 ADD SWAP1 POP DUP2 DUP2 SUB PUSH1 0x0 DUP4 ADD MSTORE PUSH2 0x1B90 DUP2 PUSH2 0x18B2 JUMP JUMPDEST SWAP1 POP SWAP2 SWAP1 POP JUMP JUMPDEST PUSH1 0x0 PUSH1 0x20 DUP3 ADD SWAP1 POP DUP2 DUP2 SUB PUSH1 0x0 DUP4 ADD MSTORE PUSH2 0x1BB0 DUP2 PUSH2 0x1918 JUMP JUMPDEST SWAP1 POP SWAP2 SWAP1 POP JUMP JUMPDEST PUSH1 0x0 PUSH1 0x20 DUP3 ADD SWAP1 POP DUP2 DUP2 SUB PUSH1 0x0 DUP4 ADD MSTORE PUSH2 0x1BD1 DUP2 DUP5 PUSH2 0x197E JUMP JUMPDEST SWAP1 POP SWAP3 SWAP2 POP POP JUMP JUMPDEST PUSH1 0x0 PUSH1 0x20 DUP3 ADD SWAP1 POP DUP2 DUP2 SUB PUSH1 0x0 DUP4 ADD MSTORE PUSH2 0x1BF3 DUP2 DUP5 PUSH2 0x19F4 JUMP JUMPDEST SWAP1 POP SWAP3 SWAP2 POP POP JUMP JUMPDEST PUSH1 0x0 PUSH1 0x20 DUP3 ADD SWAP1 POP PUSH2 0x1C10 PUSH1 0x0 DUP4 ADD DUP5 PUSH2 0x1A79 JUMP JUMPDEST SWAP3 SWAP2 POP POP JUMP JUMPDEST PUSH1 0x0 PUSH1 0x40 DUP3 ADD SWAP1 POP PUSH2 0x1C2B PUSH1 0x0 DUP4 ADD DUP6 PUSH2 0x1A79 JUMP JUMPDEST PUSH2 0x1C38 PUSH1 0x20 DUP4 ADD DUP5 PUSH2 0x17B5 JUMP JUMPDEST SWAP4 SWAP3 POP POP POP JUMP JUMPDEST PUSH1 0x0 PUSH1 0x40 MLOAD SWAP1 POP DUP2 DUP2 ADD DUP2 DUP2 LT PUSH8 0xFFFFFFFFFFFFFFFF DUP3 GT OR ISZERO PUSH2 0x1C66 JUMPI PUSH2 0x1C65 PUSH2 0x1EAA JUMP JUMPDEST JUMPDEST DUP1 PUSH1 0x40 MSTORE POP SWAP2 SWAP1 POP JUMP JUMPDEST PUSH1 0x0 PUSH8 0xFFFFFFFFFFFFFFFF DUP3 GT ISZERO PUSH2 0x1C8B JUMPI PUSH2 0x1C8A PUSH2 0x1EAA JUMP JUMPDEST JUMPDEST PUSH1 0x1F NOT PUSH1 0x1F DUP4 ADD AND SWAP1 POP PUSH1 0x20 DUP2 ADD SWAP1 POP SWAP2 SWAP1 POP JUMP JUMPDEST PUSH1 0x0 DUP2 MLOAD SWAP1 POP SWAP2 SWAP1 POP JUMP JUMPDEST PUSH1 0x0 DUP3 DUP3 MSTORE PUSH1 0x20 DUP3 ADD SWAP1 POP SWAP3 SWAP2 POP POP JUMP JUMPDEST PUSH1 0x0 DUP3 DUP3 MSTORE PUSH1 0x20 DUP3 ADD SWAP1 POP SWAP3 SWAP2 POP POP JUMP JUMPDEST PUSH1 0x0 PUSH2 0x1CD8 DUP3 PUSH2 0x1D7B JUMP JUMPDEST SWAP2 POP PUSH2 0x1CE3 DUP4 PUSH2 0x1D7B JUMP JUMPDEST SWAP3 POP DUP3 PUSH32 0xFFFFFFFFFFFFFFFFFFFFFFFFFFFFFFFFFFFFFFFFFFFFFFFFFFFFFFFFFFFFFFFF SUB DUP3 GT ISZERO PUSH2 0x1D18 JUMPI PUSH2 0x1D17 PUSH2 0x1E1D JUMP JUMPDEST JUMPDEST DUP3 DUP3 ADD SWAP1 POP SWAP3 SWAP2 POP POP JUMP JUMPDEST PUSH1 0x0 PUSH2 0x1D2E DUP3 PUSH2 0x1D5B JUMP JUMPDEST SWAP1 POP SWAP2 SWAP1 POP JUMP JUMPDEST PUSH1 0x0 DUP2 SWAP1 POP PUSH2 0x1D43 DUP3 PUSH2 0x1EEA JUMP JUMPDEST SWAP2 SWAP1 POP JUMP JUMPDEST PUSH1 0x0 DUP2 SWAP1 POP PUSH2 0x1D56 DUP3 PUSH2 0x1EFE JUMP JUMPDEST SWAP2 SWAP1 POP JUMP JUMPDEST PUSH1 0x0 PUSH20 0xFFFFFFFFFFFFFFFFFFFFFFFFFFFFFFFFFFFFFFFF DUP3 AND SWAP1 POP SWAP2 SWAP1 POP JUMP JUMPDEST PUSH1 0x0 DUP2 SWAP1 POP SWAP2 SWAP1 POP JUMP JUMPDEST PUSH1 0x0 PUSH2 0x1D90 DUP3 PUSH2 0x1D35 JUMP JUMPDEST SWAP1 POP SWAP2 SWAP1 POP JUMP JUMPDEST PUSH1 0x0 PUSH2 0x1DA2 DUP3 PUSH2 0x1D48 JUMP JUMPDEST SWAP1 POP SWAP2 SWAP1 POP JUMP JUMPDEST DUP3 DUP2 DUP4 CALLDATACOPY PUSH1 0x0 DUP4 DUP4 ADD MSTORE POP POP POP JUMP JUMPDEST PUSH1 0x0 JUMPDEST DUP4 DUP2 LT ISZERO PUSH2 0x1DD6 JUMPI DUP1 DUP3 ADD MLOAD DUP2 DUP5 ADD MSTORE PUSH1 0x20 DUP2 ADD SWAP1 POP PUSH2 0x1DBB JUMP JUMPDEST DUP4 DUP2 GT ISZERO PUSH2 0x1DE5 JUMPI PUSH1 0x0 DUP5 DUP5 ADD MSTORE JUMPDEST POP POP POP POP JUMP JUMPDEST PUSH1 0x0 PUSH1 0x2 DUP3 DIV SWAP1 POP PUSH1 0x1 DUP3 AND DUP1 PUSH2 0x1E03 JUMPI PUSH1 0x7F DUP3 AND SWAP2 POP JUMPDEST PUSH1 0x20 DUP3 LT DUP2 EQ ISZERO PUSH2 0x1E17 JUMPI PUSH2 0x1E16 PUSH2 0x1E7B JUMP JUMPDEST JUMPDEST POP SWAP2 SWAP1 POP JUMP JUMPDEST PUSH32 0x4E487B7100000000000000000000000000000000000000000000000000000000 PUSH1 0x0 MSTORE PUSH1 0x11 PUSH1 0x4 MSTORE PUSH1 0x24 PUSH1 0x0 REVERT JUMPDEST PUSH32 0x4E487B7100000000000000000000000000000000000000000000000000000000 PUSH1 0x0 MSTORE PUSH1 0x21 PUSH1 0x4 MSTORE PUSH1 0x24 PUSH1 0x0 REVERT JUMPDEST PUSH32 0x4E487B7100000000000000000000000000000000000000000000000000000000 PUSH1 0x0 MSTORE PUSH1 0x22 PUSH1 0x4 MSTORE PUSH1 0x24 PUSH1 0x0 REVERT JUMPDEST PUSH32 0x4E487B7100000000000000000000000000000000000000000000000000000000 PUSH1 0x0 MSTORE PUSH1 0x41 PUSH1 0x4 MSTORE PUSH1 0x24 PUSH1 0x0 REVERT JUMPDEST PUSH1 0x0 PUSH1 0x1F NOT PUSH1 0x1F DUP4 ADD AND SWAP1 POP SWAP2 SWAP1 POP JUMP JUMPDEST PUSH1 0x7 DUP2 LT PUSH2 0x1EFB JUMPI PUSH2 0x1EFA PUSH2 0x1E4C JUMP JUMPDEST JUMPDEST POP JUMP JUMPDEST PUSH1 0x4 DUP2 LT PUSH2 0x1F0F JUMPI PUSH2 0x1F0E PUSH2 0x1E4C JUMP JUMPDEST JUMPDEST POP JUMP JUMPDEST PUSH2 0x1F1B DUP2 PUSH2 0x1D23 JUMP JUMPDEST DUP2 EQ PUSH2 0x1F26 JUMPI PUSH1 0x0 DUP1 REVERT JUMPDEST POP JUMP JUMPDEST PUSH2 0x1F32 DUP2 PUSH2 0x1D7B JUMP JUMPDEST DUP2 EQ PUSH2 0x1F3D JUMPI PUSH1 0x0 DUP1 REVERT JUMPDEST POP JUMP INVALID LOG2 PUSH5 0x6970667358 0x22 SLT KECCAK256 SGT 0xB7 MSIZE 0xAC PUSH29 0x215A42913A9E0BFF5F87E76AA1B72644930F2E7FD9DD3A5A82C43F6473 PUSH16 0x6C634300080000330000000000000000 "
				},
				"gasEstimates": {
					"creation": {
						"codeDepositCost": "1610800",
						"executionCost": "32565",
						"totalCost": "1643365"
					},
					"external": {
						"Items(uint256)": "infinite",
						"addItem(string,uint256)": "infinite",
						"addManufacturer(string)": "infinite",
						"addSupplier(string)": "infinite",
						"addtransporter(string)": "infinite",
						"avaliableforsale(uint256)": "infinite",
						"order(uint256)": "infinite",
						"owner()": "1280",
						"participants(uint256)": "infinite",
						"personDetail(uint256)": "infinite",
						"productDetail(uint256)": "infinite",
						"ship_product(uint256,address)": "infinite"
					}
				},
				"methodIdentifiers": {
					"Items(uint256)": "17b47cc4",
					"addItem(string,uint256)": "62d6bbdf",
					"addManufacturer(string)": "8f5ae799",
					"addSupplier(string)": "15533a27",
					"addtransporter(string)": "2fa5ad1a",
					"avaliableforsale(uint256)": "d3de074c",
					"order(uint256)": "21603f43",
					"owner()": "8da5cb5b",
					"participants(uint256)": "35c1d349",
					"personDetail(uint256)": "54a153e9",
					"productDetail(uint256)": "42f35885",
					"ship_product(uint256,address)": "43c4c53e"
				}
			},
			"userdoc": {
				"kind": "user",
				"methods": {},
				"version": 1
			}
		}
	}
}