{
	"contracts/main.sol": {
		"Supplychain": {
			"abi": [
				{
					"anonymous": false,
					"inputs": [
						{
							"indexed": false,
							"internalType": "uint256",
							"name": "upc",
							"type": "uint256"
						}
					],
					"name": "checked",
					"type": "event"
				},
				{
					"anonymous": false,
					"inputs": [
						{
							"indexed": false,
							"internalType": "uint256",
							"name": "upc",
							"type": "uint256"
						},
						{
							"indexed": false,
							"internalType": "address",
							"name": "_address",
							"type": "address"
						}
					],
					"name": "itemcreated",
					"type": "event"
				},
				{
					"anonymous": false,
					"inputs": [
						{
							"indexed": false,
							"internalType": "uint256",
							"name": "upc",
							"type": "uint256"
						}
					],
					"name": "openForSale",
					"type": "event"
				},
				{
					"anonymous": false,
					"inputs": [
						{
							"indexed": false,
							"internalType": "uint256",
							"name": "upc",
							"type": "uint256"
						},
						{
							"indexed": false,
							"internalType": "address",
							"name": "_address",
							"type": "address"
						}
					],
					"name": "orderPlaced",
					"type": "event"
				},
				{
					"anonymous": false,
					"inputs": [
						{
							"indexed": false,
							"internalType": "uint256",
							"name": "upc",
							"type": "uint256"
						},
						{
							"indexed": false,
							"internalType": "address",
							"name": "_address",
							"type": "address"
						}
					],
					"name": "received",
					"type": "event"
				},
				{
					"anonymous": false,
					"inputs": [
						{
							"indexed": false,
							"internalType": "uint256",
							"name": "upc",
							"type": "uint256"
						},
						{
							"indexed": false,
							"internalType": "address",
							"name": "_address",
							"type": "address"
						}
					],
					"name": "shipped",
					"type": "event"
				},
				{
					"inputs": [
						{
							"internalType": "uint256",
							"name": "",
							"type": "uint256"
						}
					],
					"name": "Items",
					"outputs": [
						{
							"internalType": "string",
							"name": "product_name",
							"type": "string"
						},
						{
							"internalType": "uint256",
							"name": "productId",
							"type": "uint256"
						},
						{
							"internalType": "address",
							"name": "itemOwner",
							"type": "address"
						},
						{
							"internalType": "enum Item.state",
							"name": "itemState",
							"type": "uint8"
						},
						{
							"internalType": "uint256",
							"name": "cost",
							"type": "uint256"
						}
					],
					"stateMutability": "view",
					"type": "function"
				},
				{
					"inputs": [
						{
							"internalType": "string",
							"name": "_uname",
							"type": "string"
						}
					],
					"name": "addSupplier",
					"outputs": [],
					"stateMutability": "nonpayable",
					"type": "function"
				},
				{
					"inputs": [
						{
							"internalType": "uint256",
							"name": "",
							"type": "uint256"
						}
					],
					"name": "participants",
					"outputs": [
						{
							"internalType": "string",
							"name": "username",
							"type": "string"
						},
						{
							"internalType": "uint256",
							"name": "userId",
							"type": "uint256"
						},
						{
							"internalType": "enum participant.user_type",
							"name": "utype",
							"type": "uint8"
						},
						{
							"internalType": "address",
							"name": "user_address",
							"type": "address"
						},
						{
							"internalType": "uint256",
							"name": "money",
							"type": "uint256"
						}
					],
					"stateMutability": "view",
					"type": "function"
				}
			],
			"devdoc": {
				"kind": "dev",
				"methods": {},
				"version": 1
			},
			"evm": {
				"assembly": "    /* \"contracts/main.sol\":77:556  contract Supplychain is participant , Item{\r... */\n  mstore(0x40, 0x80)\n    /* \"contracts/member.sol\":62:63  0 */\n  0x00\n    /* \"contracts/member.sol\":54:63  uint pc=0 */\n  dup1\n  sstore\n    /* \"contracts/item.sol\":54:55  0 */\n  0x00\n    /* \"contracts/item.sol\":46:55  uint ic=0 */\n  0x03\n  sstore\n    /* \"contracts/main.sol\":77:556  contract Supplychain is participant , Item{\r... */\n  callvalue\n  dup1\n  iszero\n  tag_1\n  jumpi\n  0x00\n  dup1\n  revert\ntag_1:\n  pop\n  dataSize(sub_0)\n  dup1\n  dataOffset(sub_0)\n  0x00\n  codecopy\n  0x00\n  return\nstop\n\nsub_0: assembly {\n        /* \"contracts/main.sol\":77:556  contract Supplychain is participant , Item{\r... */\n      mstore(0x40, 0x80)\n      callvalue\n      dup1\n      iszero\n      tag_1\n      jumpi\n      0x00\n      dup1\n      revert\n    tag_1:\n      pop\n      jumpi(tag_2, lt(calldatasize, 0x04))\n      shr(0xe0, calldataload(0x00))\n      dup1\n      0x15533a27\n      eq\n      tag_3\n      jumpi\n      dup1\n      0x17b47cc4\n      eq\n      tag_4\n      jumpi\n      dup1\n      0x35c1d349\n      eq\n      tag_5\n      jumpi\n    tag_2:\n      0x00\n      dup1\n      revert\n        /* \"contracts/main.sol\":397:549  function addSupplier(string memory _uname) public{\r... */\n    tag_3:\n      tag_6\n      0x04\n      dup1\n      calldatasize\n      sub\n      dup2\n      add\n      swap1\n      tag_7\n      swap2\n      swap1\n      tag_8\n      jump\t// in\n    tag_7:\n      tag_9\n      jump\t// in\n    tag_6:\n      stop\n        /* \"contracts/item.sol\":386:418  mapping(uint=>item) public Items */\n    tag_4:\n      tag_10\n      0x04\n      dup1\n      calldatasize\n      sub\n      dup2\n      add\n      swap1\n      tag_11\n      swap2\n      swap1\n      tag_12\n      jump\t// in\n    tag_11:\n      tag_13\n      jump\t// in\n    tag_10:\n      mload(0x40)\n      tag_14\n      swap6\n      swap5\n      swap4\n      swap3\n      swap2\n      swap1\n      tag_15\n      jump\t// in\n    tag_14:\n      mload(0x40)\n      dup1\n      swap2\n      sub\n      swap1\n      return\n        /* \"contracts/member.sol\":347:393  mapping(uint=>participant) public participants */\n    tag_5:\n      tag_16\n      0x04\n      dup1\n      calldatasize\n      sub\n      dup2\n      add\n      swap1\n      tag_17\n      swap2\n      swap1\n      tag_12\n      jump\t// in\n    tag_17:\n      tag_18\n      jump\t// in\n    tag_16:\n      mload(0x40)\n      tag_19\n      swap6\n      swap5\n      swap4\n      swap3\n      swap2\n      swap1\n      tag_20\n      jump\t// in\n    tag_19:\n      mload(0x40)\n      dup1\n      swap2\n      sub\n      swap1\n      return\n        /* \"contracts/main.sol\":397:549  function addSupplier(string memory _uname) public{\r... */\n    tag_9:\n        /* \"contracts/main.sol\":456:490  participant memory  newParticipant */\n      tag_22\n      tag_23\n      jump\t// in\n    tag_22:\n        /* \"contracts/main.sol\":525:531  _uname */\n      dup2\n        /* \"contracts/main.sol\":500:514  newParticipant */\n      dup2\n        /* \"contracts/main.sol\":500:523  newParticipant.username */\n      0x00\n      add\n        /* \"contracts/main.sol\":500:531  newParticipant.username =_uname */\n      dup2\n      swap1\n      mstore\n      pop\n        /* \"contracts/main.sol\":397:549  function addSupplier(string memory _uname) public{\r... */\n      pop\n      pop\n      jump\t// out\n        /* \"contracts/item.sol\":386:418  mapping(uint=>item) public Items */\n    tag_13:\n      mstore(0x20, 0x04)\n      dup1\n      0x00\n      mstore\n      keccak256(0x00, 0x40)\n      0x00\n      swap2\n      pop\n      swap1\n      pop\n      dup1\n      0x00\n      add\n      dup1\n      sload\n      tag_24\n      swap1\n      tag_25\n      jump\t// in\n    tag_24:\n      dup1\n      0x1f\n      add\n      0x20\n      dup1\n      swap2\n      div\n      mul\n      0x20\n      add\n      mload(0x40)\n      swap1\n      dup2\n      add\n      0x40\n      mstore\n      dup1\n      swap3\n      swap2\n      swap1\n      dup2\n      dup2\n      mstore\n      0x20\n      add\n      dup3\n      dup1\n      sload\n      tag_26\n      swap1\n      tag_25\n      jump\t// in\n    tag_26:\n      dup1\n      iszero\n      tag_27\n      jumpi\n      dup1\n      0x1f\n      lt\n      tag_28\n      jumpi\n      0x0100\n      dup1\n      dup4\n      sload\n      div\n      mul\n      dup4\n      mstore\n      swap2\n      0x20\n      add\n      swap2\n      jump(tag_27)\n    tag_28:\n      dup3\n      add\n      swap2\n      swap1\n      0x00\n      mstore\n      keccak256(0x00, 0x20)\n      swap1\n    tag_29:\n      dup2\n      sload\n      dup2\n      mstore\n      swap1\n      0x01\n      add\n      swap1\n      0x20\n      add\n      dup1\n      dup4\n      gt\n      tag_29\n      jumpi\n      dup3\n      swap1\n      sub\n      0x1f\n      and\n      dup3\n      add\n      swap2\n    tag_27:\n      pop\n      pop\n      pop\n      pop\n      pop\n      swap1\n      dup1\n      0x01\n      add\n      sload\n      swap1\n      dup1\n      0x02\n      add\n      0x00\n      swap1\n      sload\n      swap1\n      0x0100\n      exp\n      swap1\n      div\n      0xffffffffffffffffffffffffffffffffffffffff\n      and\n      swap1\n      dup1\n      0x02\n      add\n      0x14\n      swap1\n      sload\n      swap1\n      0x0100\n      exp\n      swap1\n      div\n      0xff\n      and\n      swap1\n      dup1\n      0x03\n      add\n      sload\n      swap1\n      pop\n      dup6\n      jump\t// out\n        /* \"contracts/member.sol\":347:393  mapping(uint=>participant) public participants */\n    tag_18:\n      mstore(0x20, 0x01)\n      dup1\n      0x00\n      mstore\n      keccak256(0x00, 0x40)\n      0x00\n      swap2\n      pop\n      swap1\n      pop\n      dup1\n      0x00\n      add\n      dup1\n      sload\n      tag_30\n      swap1\n      tag_25\n      jump\t// in\n    tag_30:\n      dup1\n      0x1f\n      add\n      0x20\n      dup1\n      swap2\n      div\n      mul\n      0x20\n      add\n      mload(0x40)\n      swap1\n      dup2\n      add\n      0x40\n      mstore\n      dup1\n      swap3\n      swap2\n      swap1\n      dup2\n      dup2\n      mstore\n      0x20\n      add\n      dup3\n      dup1\n      sload\n      tag_31\n      swap1\n      tag_25\n      jump\t// in\n    tag_31:\n      dup1\n      iszero\n      tag_32\n      jumpi\n      dup1\n      0x1f\n      lt\n      tag_33\n      jumpi\n      0x0100\n      dup1\n      dup4\n      sload\n      div\n      mul\n      dup4\n      mstore\n      swap2\n      0x20\n      add\n      swap2\n      jump(tag_32)\n    tag_33:\n      dup3\n      add\n      swap2\n      swap1\n      0x00\n      mstore\n      keccak256(0x00, 0x20)\n      swap1\n    tag_34:\n      dup2\n      sload\n      dup2\n      mstore\n      swap1\n      0x01\n      add\n      swap1\n      0x20\n      add\n      dup1\n      dup4\n      gt\n      tag_34\n      jumpi\n      dup3\n      swap1\n      sub\n      0x1f\n      and\n      dup3\n      add\n      swap2\n    tag_32:\n      pop\n      pop\n      pop\n      pop\n      pop\n      swap1\n      dup1\n      0x01\n      add\n      sload\n      swap1\n      dup1\n      0x02\n      add\n      0x00\n      swap1\n      sload\n      swap1\n      0x0100\n      exp\n      swap1\n      div\n      0xff\n      and\n      swap1\n      dup1\n      0x02\n      add\n      0x01\n      swap1\n      sload\n      swap1\n      0x0100\n      exp\n      swap1\n      div\n      0xffffffffffffffffffffffffffffffffffffffff\n      and\n      swap1\n      dup1\n      0x03\n      add\n      sload\n      swap1\n      pop\n      dup6\n      jump\t// out\n    tag_23:\n      mload(0x40)\n      dup1\n      0xa0\n      add\n      0x40\n      mstore\n      dup1\n      0x60\n      dup2\n      mstore\n      0x20\n      add\n      0x00\n      dup2\n      mstore\n      0x20\n      add\n      0x00\n      0x03\n      dup2\n      gt\n      iszero\n      tag_35\n      jumpi\n      mstore(0x00, 0x4e487b7100000000000000000000000000000000000000000000000000000000)\n      mstore(0x04, 0x21)\n      revert(0x00, 0x24)\n    tag_35:\n      dup2\n      mstore\n      0x20\n      add\n      and(0xffffffffffffffffffffffffffffffffffffffff, 0x00)\n      dup2\n      mstore\n      0x20\n      add\n      0x00\n      dup2\n      mstore\n      pop\n      swap1\n      jump\t// out\n        /* \"#utility.yul\":7:351   */\n    tag_37:\n      0x00\n        /* \"#utility.yul\":110:175   */\n      tag_39\n        /* \"#utility.yul\":125:174   */\n      tag_40\n        /* \"#utility.yul\":167:173   */\n      dup5\n        /* \"#utility.yul\":125:174   */\n      tag_41\n      jump\t// in\n    tag_40:\n        /* \"#utility.yul\":110:175   */\n      tag_42\n      jump\t// in\n    tag_39:\n        /* \"#utility.yul\":101:175   */\n      swap1\n      pop\n        /* \"#utility.yul\":198:204   */\n      dup3\n        /* \"#utility.yul\":191:196   */\n      dup2\n        /* \"#utility.yul\":184:205   */\n      mstore\n        /* \"#utility.yul\":236:240   */\n      0x20\n        /* \"#utility.yul\":229:234   */\n      dup2\n        /* \"#utility.yul\":225:241   */\n      add\n        /* \"#utility.yul\":274:277   */\n      dup5\n        /* \"#utility.yul\":265:271   */\n      dup5\n        /* \"#utility.yul\":260:263   */\n      dup5\n        /* \"#utility.yul\":256:272   */\n      add\n        /* \"#utility.yul\":253:278   */\n      gt\n        /* \"#utility.yul\":250:252   */\n      iszero\n      tag_43\n      jumpi\n        /* \"#utility.yul\":291:292   */\n      0x00\n        /* \"#utility.yul\":288:289   */\n      dup1\n        /* \"#utility.yul\":281:293   */\n      revert\n        /* \"#utility.yul\":250:252   */\n    tag_43:\n        /* \"#utility.yul\":304:345   */\n      tag_44\n        /* \"#utility.yul\":338:344   */\n      dup5\n        /* \"#utility.yul\":333:336   */\n      dup3\n        /* \"#utility.yul\":328:331   */\n      dup6\n        /* \"#utility.yul\":304:345   */\n      tag_45\n      jump\t// in\n    tag_44:\n        /* \"#utility.yul\":91:351   */\n      pop\n      swap4\n      swap3\n      pop\n      pop\n      pop\n      jump\t// out\n        /* \"#utility.yul\":371:644   */\n    tag_46:\n      0x00\n        /* \"#utility.yul\":476:479   */\n      dup3\n        /* \"#utility.yul\":469:473   */\n      0x1f\n        /* \"#utility.yul\":461:467   */\n      dup4\n        /* \"#utility.yul\":457:474   */\n      add\n        /* \"#utility.yul\":453:480   */\n      slt\n        /* \"#utility.yul\":443:445   */\n      tag_48\n      jumpi\n        /* \"#utility.yul\":494:495   */\n      0x00\n        /* \"#utility.yul\":491:492   */\n      dup1\n        /* \"#utility.yul\":484:496   */\n      revert\n        /* \"#utility.yul\":443:445   */\n    tag_48:\n        /* \"#utility.yul\":534:540   */\n      dup2\n        /* \"#utility.yul\":521:541   */\n      calldataload\n        /* \"#utility.yul\":559:638   */\n      tag_49\n        /* \"#utility.yul\":634:637   */\n      dup5\n        /* \"#utility.yul\":626:632   */\n      dup3\n        /* \"#utility.yul\":619:623   */\n      0x20\n        /* \"#utility.yul\":611:617   */\n      dup7\n        /* \"#utility.yul\":607:624   */\n      add\n        /* \"#utility.yul\":559:638   */\n      tag_37\n      jump\t// in\n    tag_49:\n        /* \"#utility.yul\":550:638   */\n      swap2\n      pop\n        /* \"#utility.yul\":433:644   */\n      pop\n      swap3\n      swap2\n      pop\n      pop\n      jump\t// out\n        /* \"#utility.yul\":650:789   */\n    tag_50:\n      0x00\n        /* \"#utility.yul\":734:740   */\n      dup2\n        /* \"#utility.yul\":721:741   */\n      calldataload\n        /* \"#utility.yul\":712:741   */\n      swap1\n      pop\n        /* \"#utility.yul\":750:783   */\n      tag_52\n        /* \"#utility.yul\":777:782   */\n      dup2\n        /* \"#utility.yul\":750:783   */\n      tag_53\n      jump\t// in\n    tag_52:\n        /* \"#utility.yul\":702:789   */\n      swap3\n      swap2\n      pop\n      pop\n      jump\t// out\n        /* \"#utility.yul\":795:1170   */\n    tag_8:\n      0x00\n        /* \"#utility.yul\":913:915   */\n      0x20\n        /* \"#utility.yul\":901:910   */\n      dup3\n        /* \"#utility.yul\":892:899   */\n      dup5\n        /* \"#utility.yul\":888:911   */\n      sub\n        /* \"#utility.yul\":884:916   */\n      slt\n        /* \"#utility.yul\":881:883   */\n      iszero\n      tag_55\n      jumpi\n        /* \"#utility.yul\":929:930   */\n      0x00\n        /* \"#utility.yul\":926:927   */\n      dup1\n        /* \"#utility.yul\":919:931   */\n      revert\n        /* \"#utility.yul\":881:883   */\n    tag_55:\n        /* \"#utility.yul\":1000:1001   */\n      0x00\n        /* \"#utility.yul\":989:998   */\n      dup3\n        /* \"#utility.yul\":985:1002   */\n      add\n        /* \"#utility.yul\":972:1003   */\n      calldataload\n        /* \"#utility.yul\":1030:1048   */\n      0xffffffffffffffff\n        /* \"#utility.yul\":1022:1028   */\n      dup2\n        /* \"#utility.yul\":1019:1049   */\n      gt\n        /* \"#utility.yul\":1016:1018   */\n      iszero\n      tag_56\n      jumpi\n        /* \"#utility.yul\":1062:1063   */\n      0x00\n        /* \"#utility.yul\":1059:1060   */\n      dup1\n        /* \"#utility.yul\":1052:1064   */\n      revert\n        /* \"#utility.yul\":1016:1018   */\n    tag_56:\n        /* \"#utility.yul\":1090:1153   */\n      tag_57\n        /* \"#utility.yul\":1145:1152   */\n      dup5\n        /* \"#utility.yul\":1136:1142   */\n      dup3\n        /* \"#utility.yul\":1125:1134   */\n      dup6\n        /* \"#utility.yul\":1121:1143   */\n      add\n        /* \"#utility.yul\":1090:1153   */\n      tag_46\n      jump\t// in\n    tag_57:\n        /* \"#utility.yul\":1080:1153   */\n      swap2\n      pop\n        /* \"#utility.yul\":943:1163   */\n      pop\n        /* \"#utility.yul\":871:1170   */\n      swap3\n      swap2\n      pop\n      pop\n      jump\t// out\n        /* \"#utility.yul\":1176:1438   */\n    tag_12:\n      0x00\n        /* \"#utility.yul\":1284:1286   */\n      0x20\n        /* \"#utility.yul\":1272:1281   */\n      dup3\n        /* \"#utility.yul\":1263:1270   */\n      dup5\n        /* \"#utility.yul\":1259:1282   */\n      sub\n        /* \"#utility.yul\":1255:1287   */\n      slt\n        /* \"#utility.yul\":1252:1254   */\n      iszero\n      tag_59\n      jumpi\n        /* \"#utility.yul\":1300:1301   */\n      0x00\n        /* \"#utility.yul\":1297:1298   */\n      dup1\n        /* \"#utility.yul\":1290:1302   */\n      revert\n        /* \"#utility.yul\":1252:1254   */\n    tag_59:\n        /* \"#utility.yul\":1343:1344   */\n      0x00\n        /* \"#utility.yul\":1368:1421   */\n      tag_60\n        /* \"#utility.yul\":1413:1420   */\n      dup5\n        /* \"#utility.yul\":1404:1410   */\n      dup3\n        /* \"#utility.yul\":1393:1402   */\n      dup6\n        /* \"#utility.yul\":1389:1411   */\n      add\n        /* \"#utility.yul\":1368:1421   */\n      tag_50\n      jump\t// in\n    tag_60:\n        /* \"#utility.yul\":1358:1421   */\n      swap2\n      pop\n        /* \"#utility.yul\":1314:1431   */\n      pop\n        /* \"#utility.yul\":1242:1438   */\n      swap3\n      swap2\n      pop\n      pop\n      jump\t// out\n        /* \"#utility.yul\":1444:1562   */\n    tag_61:\n        /* \"#utility.yul\":1531:1555   */\n      tag_63\n        /* \"#utility.yul\":1549:1554   */\n      dup2\n        /* \"#utility.yul\":1531:1555   */\n      tag_64\n      jump\t// in\n    tag_63:\n        /* \"#utility.yul\":1526:1529   */\n      dup3\n        /* \"#utility.yul\":1519:1556   */\n      mstore\n        /* \"#utility.yul\":1509:1562   */\n      pop\n      pop\n      jump\t// out\n        /* \"#utility.yul\":1568:1711   */\n    tag_65:\n        /* \"#utility.yul\":1661:1704   */\n      tag_67\n        /* \"#utility.yul\":1698:1703   */\n      dup2\n        /* \"#utility.yul\":1661:1704   */\n      tag_68\n      jump\t// in\n    tag_67:\n        /* \"#utility.yul\":1656:1659   */\n      dup3\n        /* \"#utility.yul\":1649:1705   */\n      mstore\n        /* \"#utility.yul\":1639:1711   */\n      pop\n      pop\n      jump\t// out\n        /* \"#utility.yul\":1717:1868   */\n    tag_69:\n        /* \"#utility.yul\":1814:1861   */\n      tag_71\n        /* \"#utility.yul\":1855:1860   */\n      dup2\n        /* \"#utility.yul\":1814:1861   */\n      tag_72\n      jump\t// in\n    tag_71:\n        /* \"#utility.yul\":1809:1812   */\n      dup3\n        /* \"#utility.yul\":1802:1862   */\n      mstore\n        /* \"#utility.yul\":1792:1868   */\n      pop\n      pop\n      jump\t// out\n        /* \"#utility.yul\":1874:2238   */\n    tag_73:\n      0x00\n        /* \"#utility.yul\":1990:2029   */\n      tag_75\n        /* \"#utility.yul\":2023:2028   */\n      dup3\n        /* \"#utility.yul\":1990:2029   */\n      tag_76\n      jump\t// in\n    tag_75:\n        /* \"#utility.yul\":2045:2116   */\n      tag_77\n        /* \"#utility.yul\":2109:2115   */\n      dup2\n        /* \"#utility.yul\":2104:2107   */\n      dup6\n        /* \"#utility.yul\":2045:2116   */\n      tag_78\n      jump\t// in\n    tag_77:\n        /* \"#utility.yul\":2038:2116   */\n      swap4\n      pop\n        /* \"#utility.yul\":2125:2177   */\n      tag_79\n        /* \"#utility.yul\":2170:2176   */\n      dup2\n        /* \"#utility.yul\":2165:2168   */\n      dup6\n        /* \"#utility.yul\":2158:2162   */\n      0x20\n        /* \"#utility.yul\":2151:2156   */\n      dup7\n        /* \"#utility.yul\":2147:2163   */\n      add\n        /* \"#utility.yul\":2125:2177   */\n      tag_80\n      jump\t// in\n    tag_79:\n        /* \"#utility.yul\":2202:2231   */\n      tag_81\n        /* \"#utility.yul\":2224:2230   */\n      dup2\n        /* \"#utility.yul\":2202:2231   */\n      tag_82\n      jump\t// in\n    tag_81:\n        /* \"#utility.yul\":2197:2200   */\n      dup5\n        /* \"#utility.yul\":2193:2232   */\n      add\n        /* \"#utility.yul\":2186:2232   */\n      swap2\n      pop\n        /* \"#utility.yul\":1966:2238   */\n      pop\n      swap3\n      swap2\n      pop\n      pop\n      jump\t// out\n        /* \"#utility.yul\":2244:2362   */\n    tag_83:\n        /* \"#utility.yul\":2331:2355   */\n      tag_85\n        /* \"#utility.yul\":2349:2354   */\n      dup2\n        /* \"#utility.yul\":2331:2355   */\n      tag_86\n      jump\t// in\n    tag_85:\n        /* \"#utility.yul\":2326:2329   */\n      dup3\n        /* \"#utility.yul\":2319:2356   */\n      mstore\n        /* \"#utility.yul\":2309:2362   */\n      pop\n      pop\n      jump\t// out\n        /* \"#utility.yul\":2368:3135   */\n    tag_15:\n      0x00\n        /* \"#utility.yul\":2637:2640   */\n      0xa0\n        /* \"#utility.yul\":2626:2635   */\n      dup3\n        /* \"#utility.yul\":2622:2641   */\n      add\n        /* \"#utility.yul\":2614:2641   */\n      swap1\n      pop\n        /* \"#utility.yul\":2687:2696   */\n      dup2\n        /* \"#utility.yul\":2681:2685   */\n      dup2\n        /* \"#utility.yul\":2677:2697   */\n      sub\n        /* \"#utility.yul\":2673:2674   */\n      0x00\n        /* \"#utility.yul\":2662:2671   */\n      dup4\n        /* \"#utility.yul\":2658:2675   */\n      add\n        /* \"#utility.yul\":2651:2698   */\n      mstore\n        /* \"#utility.yul\":2715:2793   */\n      tag_88\n        /* \"#utility.yul\":2788:2792   */\n      dup2\n        /* \"#utility.yul\":2779:2785   */\n      dup9\n        /* \"#utility.yul\":2715:2793   */\n      tag_73\n      jump\t// in\n    tag_88:\n        /* \"#utility.yul\":2707:2793   */\n      swap1\n      pop\n        /* \"#utility.yul\":2803:2875   */\n      tag_89\n        /* \"#utility.yul\":2871:2873   */\n      0x20\n        /* \"#utility.yul\":2860:2869   */\n      dup4\n        /* \"#utility.yul\":2856:2874   */\n      add\n        /* \"#utility.yul\":2847:2853   */\n      dup8\n        /* \"#utility.yul\":2803:2875   */\n      tag_83\n      jump\t// in\n    tag_89:\n        /* \"#utility.yul\":2885:2957   */\n      tag_90\n        /* \"#utility.yul\":2953:2955   */\n      0x40\n        /* \"#utility.yul\":2942:2951   */\n      dup4\n        /* \"#utility.yul\":2938:2956   */\n      add\n        /* \"#utility.yul\":2929:2935   */\n      dup7\n        /* \"#utility.yul\":2885:2957   */\n      tag_61\n      jump\t// in\n    tag_90:\n        /* \"#utility.yul\":2967:3045   */\n      tag_91\n        /* \"#utility.yul\":3041:3043   */\n      0x60\n        /* \"#utility.yul\":3030:3039   */\n      dup4\n        /* \"#utility.yul\":3026:3044   */\n      add\n        /* \"#utility.yul\":3017:3023   */\n      dup6\n        /* \"#utility.yul\":2967:3045   */\n      tag_65\n      jump\t// in\n    tag_91:\n        /* \"#utility.yul\":3055:3128   */\n      tag_92\n        /* \"#utility.yul\":3123:3126   */\n      0x80\n        /* \"#utility.yul\":3112:3121   */\n      dup4\n        /* \"#utility.yul\":3108:3127   */\n      add\n        /* \"#utility.yul\":3099:3105   */\n      dup5\n        /* \"#utility.yul\":3055:3128   */\n      tag_83\n      jump\t// in\n    tag_92:\n        /* \"#utility.yul\":2604:3135   */\n      swap7\n      swap6\n      pop\n      pop\n      pop\n      pop\n      pop\n      pop\n      jump\t// out\n        /* \"#utility.yul\":3141:3916   */\n    tag_20:\n      0x00\n        /* \"#utility.yul\":3414:3417   */\n      0xa0\n        /* \"#utility.yul\":3403:3412   */\n      dup3\n        /* \"#utility.yul\":3399:3418   */\n      add\n        /* \"#utility.yul\":3391:3418   */\n      swap1\n      pop\n        /* \"#utility.yul\":3464:3473   */\n      dup2\n        /* \"#utility.yul\":3458:3462   */\n      dup2\n        /* \"#utility.yul\":3454:3474   */\n      sub\n        /* \"#utility.yul\":3450:3451   */\n      0x00\n        /* \"#utility.yul\":3439:3448   */\n      dup4\n        /* \"#utility.yul\":3435:3452   */\n      add\n        /* \"#utility.yul\":3428:3475   */\n      mstore\n        /* \"#utility.yul\":3492:3570   */\n      tag_94\n        /* \"#utility.yul\":3565:3569   */\n      dup2\n        /* \"#utility.yul\":3556:3562   */\n      dup9\n        /* \"#utility.yul\":3492:3570   */\n      tag_73\n      jump\t// in\n    tag_94:\n        /* \"#utility.yul\":3484:3570   */\n      swap1\n      pop\n        /* \"#utility.yul\":3580:3652   */\n      tag_95\n        /* \"#utility.yul\":3648:3650   */\n      0x20\n        /* \"#utility.yul\":3637:3646   */\n      dup4\n        /* \"#utility.yul\":3633:3651   */\n      add\n        /* \"#utility.yul\":3624:3630   */\n      dup8\n        /* \"#utility.yul\":3580:3652   */\n      tag_83\n      jump\t// in\n    tag_95:\n        /* \"#utility.yul\":3662:3744   */\n      tag_96\n        /* \"#utility.yul\":3740:3742   */\n      0x40\n        /* \"#utility.yul\":3729:3738   */\n      dup4\n        /* \"#utility.yul\":3725:3743   */\n      add\n        /* \"#utility.yul\":3716:3722   */\n      dup7\n        /* \"#utility.yul\":3662:3744   */\n      tag_69\n      jump\t// in\n    tag_96:\n        /* \"#utility.yul\":3754:3826   */\n      tag_97\n        /* \"#utility.yul\":3822:3824   */\n      0x60\n        /* \"#utility.yul\":3811:3820   */\n      dup4\n        /* \"#utility.yul\":3807:3825   */\n      add\n        /* \"#utility.yul\":3798:3804   */\n      dup6\n        /* \"#utility.yul\":3754:3826   */\n      tag_61\n      jump\t// in\n    tag_97:\n        /* \"#utility.yul\":3836:3909   */\n      tag_98\n        /* \"#utility.yul\":3904:3907   */\n      0x80\n        /* \"#utility.yul\":3893:3902   */\n      dup4\n        /* \"#utility.yul\":3889:3908   */\n      add\n        /* \"#utility.yul\":3880:3886   */\n      dup5\n        /* \"#utility.yul\":3836:3909   */\n      tag_83\n      jump\t// in\n    tag_98:\n        /* \"#utility.yul\":3381:3916   */\n      swap7\n      swap6\n      pop\n      pop\n      pop\n      pop\n      pop\n      pop\n      jump\t// out\n        /* \"#utility.yul\":3922:4205   */\n    tag_42:\n      0x00\n        /* \"#utility.yul\":3988:3990   */\n      0x40\n        /* \"#utility.yul\":3982:3991   */\n      mload\n        /* \"#utility.yul\":3972:3991   */\n      swap1\n      pop\n        /* \"#utility.yul\":4030:4034   */\n      dup2\n        /* \"#utility.yul\":4022:4028   */\n      dup2\n        /* \"#utility.yul\":4018:4035   */\n      add\n        /* \"#utility.yul\":4137:4143   */\n      dup2\n        /* \"#utility.yul\":4125:4135   */\n      dup2\n        /* \"#utility.yul\":4122:4144   */\n      lt\n        /* \"#utility.yul\":4101:4119   */\n      0xffffffffffffffff\n        /* \"#utility.yul\":4089:4099   */\n      dup3\n        /* \"#utility.yul\":4086:4120   */\n      gt\n        /* \"#utility.yul\":4083:4145   */\n      or\n        /* \"#utility.yul\":4080:4082   */\n      iszero\n      tag_100\n      jumpi\n        /* \"#utility.yul\":4148:4166   */\n      tag_101\n      tag_102\n      jump\t// in\n    tag_101:\n        /* \"#utility.yul\":4080:4082   */\n    tag_100:\n        /* \"#utility.yul\":4188:4198   */\n      dup1\n        /* \"#utility.yul\":4184:4186   */\n      0x40\n        /* \"#utility.yul\":4177:4199   */\n      mstore\n        /* \"#utility.yul\":3962:4205   */\n      pop\n      swap2\n      swap1\n      pop\n      jump\t// out\n        /* \"#utility.yul\":4211:4543   */\n    tag_41:\n      0x00\n        /* \"#utility.yul\":4363:4381   */\n      0xffffffffffffffff\n        /* \"#utility.yul\":4355:4361   */\n      dup3\n        /* \"#utility.yul\":4352:4382   */\n      gt\n        /* \"#utility.yul\":4349:4351   */\n      iszero\n      tag_104\n      jumpi\n        /* \"#utility.yul\":4385:4403   */\n      tag_105\n      tag_102\n      jump\t// in\n    tag_105:\n        /* \"#utility.yul\":4349:4351   */\n    tag_104:\n        /* \"#utility.yul\":4470:4474   */\n      0x1f\n        /* \"#utility.yul\":4466:4475   */\n      not\n        /* \"#utility.yul\":4459:4463   */\n      0x1f\n        /* \"#utility.yul\":4451:4457   */\n      dup4\n        /* \"#utility.yul\":4447:4464   */\n      add\n        /* \"#utility.yul\":4443:4476   */\n      and\n        /* \"#utility.yul\":4435:4476   */\n      swap1\n      pop\n        /* \"#utility.yul\":4531:4535   */\n      0x20\n        /* \"#utility.yul\":4525:4529   */\n      dup2\n        /* \"#utility.yul\":4521:4536   */\n      add\n        /* \"#utility.yul\":4513:4536   */\n      swap1\n      pop\n        /* \"#utility.yul\":4278:4543   */\n      swap2\n      swap1\n      pop\n      jump\t// out\n        /* \"#utility.yul\":4549:4648   */\n    tag_76:\n      0x00\n        /* \"#utility.yul\":4635:4640   */\n      dup2\n        /* \"#utility.yul\":4629:4641   */\n      mload\n        /* \"#utility.yul\":4619:4641   */\n      swap1\n      pop\n        /* \"#utility.yul\":4608:4648   */\n      swap2\n      swap1\n      pop\n      jump\t// out\n        /* \"#utility.yul\":4654:4823   */\n    tag_78:\n      0x00\n        /* \"#utility.yul\":4772:4778   */\n      dup3\n        /* \"#utility.yul\":4767:4770   */\n      dup3\n        /* \"#utility.yul\":4760:4779   */\n      mstore\n        /* \"#utility.yul\":4812:4816   */\n      0x20\n        /* \"#utility.yul\":4807:4810   */\n      dup3\n        /* \"#utility.yul\":4803:4817   */\n      add\n        /* \"#utility.yul\":4788:4817   */\n      swap1\n      pop\n        /* \"#utility.yul\":4750:4823   */\n      swap3\n      swap2\n      pop\n      pop\n      jump\t// out\n        /* \"#utility.yul\":4829:4925   */\n    tag_64:\n      0x00\n        /* \"#utility.yul\":4895:4919   */\n      tag_109\n        /* \"#utility.yul\":4913:4918   */\n      dup3\n        /* \"#utility.yul\":4895:4919   */\n      tag_110\n      jump\t// in\n    tag_109:\n        /* \"#utility.yul\":4884:4919   */\n      swap1\n      pop\n        /* \"#utility.yul\":4874:4925   */\n      swap2\n      swap1\n      pop\n      jump\t// out\n        /* \"#utility.yul\":4931:5058   */\n    tag_111:\n      0x00\n        /* \"#utility.yul\":5005:5010   */\n      dup2\n        /* \"#utility.yul\":4994:5010   */\n      swap1\n      pop\n        /* \"#utility.yul\":5011:5052   */\n      tag_113\n        /* \"#utility.yul\":5046:5051   */\n      dup3\n        /* \"#utility.yul\":5011:5052   */\n      tag_114\n      jump\t// in\n    tag_113:\n        /* \"#utility.yul\":4984:5058   */\n      swap2\n      swap1\n      pop\n      jump\t// out\n        /* \"#utility.yul\":5064:5199   */\n    tag_115:\n      0x00\n        /* \"#utility.yul\":5142:5147   */\n      dup2\n        /* \"#utility.yul\":5131:5147   */\n      swap1\n      pop\n        /* \"#utility.yul\":5148:5193   */\n      tag_117\n        /* \"#utility.yul\":5187:5192   */\n      dup3\n        /* \"#utility.yul\":5148:5193   */\n      tag_118\n      jump\t// in\n    tag_117:\n        /* \"#utility.yul\":5121:5199   */\n      swap2\n      swap1\n      pop\n      jump\t// out\n        /* \"#utility.yul\":5205:5331   */\n    tag_110:\n      0x00\n        /* \"#utility.yul\":5282:5324   */\n      0xffffffffffffffffffffffffffffffffffffffff\n        /* \"#utility.yul\":5275:5280   */\n      dup3\n        /* \"#utility.yul\":5271:5325   */\n      and\n        /* \"#utility.yul\":5260:5325   */\n      swap1\n      pop\n        /* \"#utility.yul\":5250:5331   */\n      swap2\n      swap1\n      pop\n      jump\t// out\n        /* \"#utility.yul\":5337:5414   */\n    tag_86:\n      0x00\n        /* \"#utility.yul\":5403:5408   */\n      dup2\n        /* \"#utility.yul\":5392:5408   */\n      swap1\n      pop\n        /* \"#utility.yul\":5382:5414   */\n      swap2\n      swap1\n      pop\n      jump\t// out\n        /* \"#utility.yul\":5420:5547   */\n    tag_68:\n      0x00\n        /* \"#utility.yul\":5509:5541   */\n      tag_122\n        /* \"#utility.yul\":5535:5540   */\n      dup3\n        /* \"#utility.yul\":5509:5541   */\n      tag_111\n      jump\t// in\n    tag_122:\n        /* \"#utility.yul\":5496:5541   */\n      swap1\n      pop\n        /* \"#utility.yul\":5486:5547   */\n      swap2\n      swap1\n      pop\n      jump\t// out\n        /* \"#utility.yul\":5553:5688   */\n    tag_72:\n      0x00\n        /* \"#utility.yul\":5646:5682   */\n      tag_124\n        /* \"#utility.yul\":5676:5681   */\n      dup3\n        /* \"#utility.yul\":5646:5682   */\n      tag_115\n      jump\t// in\n    tag_124:\n        /* \"#utility.yul\":5633:5682   */\n      swap1\n      pop\n        /* \"#utility.yul\":5623:5688   */\n      swap2\n      swap1\n      pop\n      jump\t// out\n        /* \"#utility.yul\":5694:5848   */\n    tag_45:\n        /* \"#utility.yul\":5778:5784   */\n      dup3\n        /* \"#utility.yul\":5773:5776   */\n      dup2\n        /* \"#utility.yul\":5768:5771   */\n      dup4\n        /* \"#utility.yul\":5755:5785   */\n      calldatacopy\n        /* \"#utility.yul\":5840:5841   */\n      0x00\n        /* \"#utility.yul\":5831:5837   */\n      dup4\n        /* \"#utility.yul\":5826:5829   */\n      dup4\n        /* \"#utility.yul\":5822:5838   */\n      add\n        /* \"#utility.yul\":5815:5842   */\n      mstore\n        /* \"#utility.yul\":5745:5848   */\n      pop\n      pop\n      pop\n      jump\t// out\n        /* \"#utility.yul\":5854:6161   */\n    tag_80:\n        /* \"#utility.yul\":5922:5923   */\n      0x00\n        /* \"#utility.yul\":5932:6045   */\n    tag_127:\n        /* \"#utility.yul\":5946:5952   */\n      dup4\n        /* \"#utility.yul\":5943:5944   */\n      dup2\n        /* \"#utility.yul\":5940:5953   */\n      lt\n        /* \"#utility.yul\":5932:6045   */\n      iszero\n      tag_129\n      jumpi\n        /* \"#utility.yul\":6031:6032   */\n      dup1\n        /* \"#utility.yul\":6026:6029   */\n      dup3\n        /* \"#utility.yul\":6022:6033   */\n      add\n        /* \"#utility.yul\":6016:6034   */\n      mload\n        /* \"#utility.yul\":6012:6013   */\n      dup2\n        /* \"#utility.yul\":6007:6010   */\n      dup5\n        /* \"#utility.yul\":6003:6014   */\n      add\n        /* \"#utility.yul\":5996:6035   */\n      mstore\n        /* \"#utility.yul\":5968:5970   */\n      0x20\n        /* \"#utility.yul\":5965:5966   */\n      dup2\n        /* \"#utility.yul\":5961:5971   */\n      add\n        /* \"#utility.yul\":5956:5971   */\n      swap1\n      pop\n        /* \"#utility.yul\":5932:6045   */\n      jump(tag_127)\n    tag_129:\n        /* \"#utility.yul\":6063:6069   */\n      dup4\n        /* \"#utility.yul\":6060:6061   */\n      dup2\n        /* \"#utility.yul\":6057:6070   */\n      gt\n        /* \"#utility.yul\":6054:6056   */\n      iszero\n      tag_130\n      jumpi\n        /* \"#utility.yul\":6143:6144   */\n      0x00\n        /* \"#utility.yul\":6134:6140   */\n      dup5\n        /* \"#utility.yul\":6129:6132   */\n      dup5\n        /* \"#utility.yul\":6125:6141   */\n      add\n        /* \"#utility.yul\":6118:6145   */\n      mstore\n        /* \"#utility.yul\":6054:6056   */\n    tag_130:\n        /* \"#utility.yul\":5903:6161   */\n      pop\n      pop\n      pop\n      pop\n      jump\t// out\n        /* \"#utility.yul\":6167:6487   */\n    tag_25:\n      0x00\n        /* \"#utility.yul\":6248:6249   */\n      0x02\n        /* \"#utility.yul\":6242:6246   */\n      dup3\n        /* \"#utility.yul\":6238:6250   */\n      div\n        /* \"#utility.yul\":6228:6250   */\n      swap1\n      pop\n        /* \"#utility.yul\":6295:6296   */\n      0x01\n        /* \"#utility.yul\":6289:6293   */\n      dup3\n        /* \"#utility.yul\":6285:6297   */\n      and\n        /* \"#utility.yul\":6316:6334   */\n      dup1\n        /* \"#utility.yul\":6306:6308   */\n      tag_132\n      jumpi\n        /* \"#utility.yul\":6372:6376   */\n      0x7f\n        /* \"#utility.yul\":6364:6370   */\n      dup3\n        /* \"#utility.yul\":6360:6377   */\n      and\n        /* \"#utility.yul\":6350:6377   */\n      swap2\n      pop\n        /* \"#utility.yul\":6306:6308   */\n    tag_132:\n        /* \"#utility.yul\":6434:6436   */\n      0x20\n        /* \"#utility.yul\":6426:6432   */\n      dup3\n        /* \"#utility.yul\":6423:6437   */\n      lt\n        /* \"#utility.yul\":6403:6421   */\n      dup2\n        /* \"#utility.yul\":6400:6438   */\n      eq\n        /* \"#utility.yul\":6397:6399   */\n      iszero\n      tag_133\n      jumpi\n        /* \"#utility.yul\":6453:6471   */\n      tag_134\n      tag_135\n      jump\t// in\n    tag_134:\n        /* \"#utility.yul\":6397:6399   */\n    tag_133:\n        /* \"#utility.yul\":6218:6487   */\n      pop\n      swap2\n      swap1\n      pop\n      jump\t// out\n        /* \"#utility.yul\":6493:6673   */\n    tag_136:\n        /* \"#utility.yul\":6541:6618   */\n      0x4e487b7100000000000000000000000000000000000000000000000000000000\n        /* \"#utility.yul\":6538:6539   */\n      0x00\n        /* \"#utility.yul\":6531:6619   */\n      mstore\n        /* \"#utility.yul\":6638:6642   */\n      0x21\n        /* \"#utility.yul\":6635:6636   */\n      0x04\n        /* \"#utility.yul\":6628:6643   */\n      mstore\n        /* \"#utility.yul\":6662:6666   */\n      0x24\n        /* \"#utility.yul\":6659:6660   */\n      0x00\n        /* \"#utility.yul\":6652:6667   */\n      revert\n        /* \"#utility.yul\":6679:6859   */\n    tag_135:\n        /* \"#utility.yul\":6727:6804   */\n      0x4e487b7100000000000000000000000000000000000000000000000000000000\n        /* \"#utility.yul\":6724:6725   */\n      0x00\n        /* \"#utility.yul\":6717:6805   */\n      mstore\n        /* \"#utility.yul\":6824:6828   */\n      0x22\n        /* \"#utility.yul\":6821:6822   */\n      0x04\n        /* \"#utility.yul\":6814:6829   */\n      mstore\n        /* \"#utility.yul\":6848:6852   */\n      0x24\n        /* \"#utility.yul\":6845:6846   */\n      0x00\n        /* \"#utility.yul\":6838:6853   */\n      revert\n        /* \"#utility.yul\":6865:7045   */\n    tag_102:\n        /* \"#utility.yul\":6913:6990   */\n      0x4e487b7100000000000000000000000000000000000000000000000000000000\n        /* \"#utility.yul\":6910:6911   */\n      0x00\n        /* \"#utility.yul\":6903:6991   */\n      mstore\n        /* \"#utility.yul\":7010:7014   */\n      0x41\n        /* \"#utility.yul\":7007:7008   */\n      0x04\n        /* \"#utility.yul\":7000:7015   */\n      mstore\n        /* \"#utility.yul\":7034:7038   */\n      0x24\n        /* \"#utility.yul\":7031:7032   */\n      0x00\n        /* \"#utility.yul\":7024:7039   */\n      revert\n        /* \"#utility.yul\":7051:7153   */\n    tag_82:\n      0x00\n        /* \"#utility.yul\":7143:7145   */\n      0x1f\n        /* \"#utility.yul\":7139:7146   */\n      not\n        /* \"#utility.yul\":7134:7136   */\n      0x1f\n        /* \"#utility.yul\":7127:7132   */\n      dup4\n        /* \"#utility.yul\":7123:7137   */\n      add\n        /* \"#utility.yul\":7119:7147   */\n      and\n        /* \"#utility.yul\":7109:7147   */\n      swap1\n      pop\n        /* \"#utility.yul\":7099:7153   */\n      swap2\n      swap1\n      pop\n      jump\t// out\n        /* \"#utility.yul\":7159:7272   */\n    tag_114:\n        /* \"#utility.yul\":7240:7241   */\n      0x07\n        /* \"#utility.yul\":7233:7238   */\n      dup2\n        /* \"#utility.yul\":7230:7242   */\n      lt\n        /* \"#utility.yul\":7220:7222   */\n      tag_142\n      jumpi\n        /* \"#utility.yul\":7246:7264   */\n      tag_143\n      tag_136\n      jump\t// in\n    tag_143:\n        /* \"#utility.yul\":7220:7222   */\n    tag_142:\n        /* \"#utility.yul\":7210:7272   */\n      pop\n      jump\t// out\n        /* \"#utility.yul\":7278:7395   */\n    tag_118:\n        /* \"#utility.yul\":7363:7364   */\n      0x04\n        /* \"#utility.yul\":7356:7361   */\n      dup2\n        /* \"#utility.yul\":7353:7365   */\n      lt\n        /* \"#utility.yul\":7343:7345   */\n      tag_145\n      jumpi\n        /* \"#utility.yul\":7369:7387   */\n      tag_146\n      tag_136\n      jump\t// in\n    tag_146:\n        /* \"#utility.yul\":7343:7345   */\n    tag_145:\n        /* \"#utility.yul\":7333:7395   */\n      pop\n      jump\t// out\n        /* \"#utility.yul\":7401:7523   */\n    tag_53:\n        /* \"#utility.yul\":7474:7498   */\n      tag_148\n        /* \"#utility.yul\":7492:7497   */\n      dup2\n        /* \"#utility.yul\":7474:7498   */\n      tag_86\n      jump\t// in\n    tag_148:\n        /* \"#utility.yul\":7467:7472   */\n      dup2\n        /* \"#utility.yul\":7464:7499   */\n      eq\n        /* \"#utility.yul\":7454:7456   */\n      tag_149\n      jumpi\n        /* \"#utility.yul\":7513:7514   */\n      0x00\n        /* \"#utility.yul\":7510:7511   */\n      dup1\n        /* \"#utility.yul\":7503:7515   */\n      revert\n        /* \"#utility.yul\":7454:7456   */\n    tag_149:\n        /* \"#utility.yul\":7444:7523   */\n      pop\n      jump\t// out\n\n    auxdata: 0xa26469706673582212200d4990e64c4bfb8a2291ae6363646e8b8203415d2cce703d9e38d63ca8e0344964736f6c63430008000033\n}\n",
				"bytecode": {
					"linkReferences": {},
					"object": "608060405260008055600060035534801561001957600080fd5b506107cc806100296000396000f3fe608060405234801561001057600080fd5b50600436106100415760003560e01c806315533a271461004657806317b47cc41461006257806335c1d34914610096575b600080fd5b610060600480360381019061005b91906103af565b6100ca565b005b61007c600480360381019061007791906103f0565b6100df565b60405161008d95949392919061048e565b60405180910390f35b6100b060048036038101906100ab91906103f0565b6101ca565b6040516100c19594939291906104e8565b60405180910390f35b6100d26102b5565b8181600001819052505050565b600460205280600052604060002060009150905080600001805461010290610687565b80601f016020809104026020016040519081016040528092919081815260200182805461012e90610687565b801561017b5780601f106101505761010080835404028352916020019161017b565b820191906000526020600020905b81548152906001019060200180831161015e57829003601f168201915b5050505050908060010154908060020160009054906101000a900473ffffffffffffffffffffffffffffffffffffffff16908060020160149054906101000a900460ff16908060030154905085565b60016020528060005260406000206000915090508060000180546101ed90610687565b80601f016020809104026020016040519081016040528092919081815260200182805461021990610687565b80156102665780601f1061023b57610100808354040283529160200191610266565b820191906000526020600020905b81548152906001019060200180831161024957829003601f168201915b5050505050908060010154908060020160009054906101000a900460ff16908060020160019054906101000a900473ffffffffffffffffffffffffffffffffffffffff16908060030154905085565b6040518060a00160405280606081526020016000815260200160006003811115610308577f4e487b7100000000000000000000000000000000000000000000000000000000600052602160045260246000fd5b8152602001600073ffffffffffffffffffffffffffffffffffffffff168152602001600081525090565b600061034561034084610573565b610542565b90508281526020810184848401111561035d57600080fd5b610368848285610645565b509392505050565b600082601f83011261038157600080fd5b8135610391848260208601610332565b91505092915050565b6000813590506103a98161077f565b92915050565b6000602082840312156103c157600080fd5b600082013567ffffffffffffffff8111156103db57600080fd5b6103e784828501610370565b91505092915050565b60006020828403121561040257600080fd5b60006104108482850161039a565b91505092915050565b610422816105bf565b82525050565b61043181610621565b82525050565b61044081610633565b82525050565b6000610451826105a3565b61045b81856105ae565b935061046b818560208601610654565b61047481610746565b840191505092915050565b61048881610617565b82525050565b600060a08201905081810360008301526104a88188610446565b90506104b7602083018761047f565b6104c46040830186610419565b6104d16060830185610428565b6104de608083018461047f565b9695505050505050565b600060a08201905081810360008301526105028188610446565b9050610511602083018761047f565b61051e6040830186610437565b61052b6060830185610419565b610538608083018461047f565b9695505050505050565b6000604051905081810181811067ffffffffffffffff8211171561056957610568610717565b5b8060405250919050565b600067ffffffffffffffff82111561058e5761058d610717565b5b601f19601f8301169050602081019050919050565b600081519050919050565b600082825260208201905092915050565b60006105ca826105f7565b9050919050565b60008190506105df82610757565b919050565b60008190506105f28261076b565b919050565b600073ffffffffffffffffffffffffffffffffffffffff82169050919050565b6000819050919050565b600061062c826105d1565b9050919050565b600061063e826105e4565b9050919050565b82818337600083830152505050565b60005b83811015610672578082015181840152602081019050610657565b83811115610681576000848401525b50505050565b6000600282049050600182168061069f57607f821691505b602082108114156106b3576106b26106e8565b5b50919050565b7f4e487b7100000000000000000000000000000000000000000000000000000000600052602160045260246000fd5b7f4e487b7100000000000000000000000000000000000000000000000000000000600052602260045260246000fd5b7f4e487b7100000000000000000000000000000000000000000000000000000000600052604160045260246000fd5b6000601f19601f8301169050919050565b60078110610768576107676106b9565b5b50565b6004811061077c5761077b6106b9565b5b50565b61078881610617565b811461079357600080fd5b5056fea26469706673582212200d4990e64c4bfb8a2291ae6363646e8b8203415d2cce703d9e38d63ca8e0344964736f6c63430008000033",
					"opcodes": "PUSH1 0x80 PUSH1 0x40 MSTORE PUSH1 0x0 DUP1 SSTORE PUSH1 0x0 PUSH1 0x3 SSTORE CALLVALUE DUP1 ISZERO PUSH2 0x19 JUMPI PUSH1 0x0 DUP1 REVERT JUMPDEST POP PUSH2 0x7CC DUP1 PUSH2 0x29 PUSH1 0x0 CODECOPY PUSH1 0x0 RETURN INVALID PUSH1 0x80 PUSH1 0x40 MSTORE CALLVALUE DUP1 ISZERO PUSH2 0x10 JUMPI PUSH1 0x0 DUP1 REVERT JUMPDEST POP PUSH1 0x4 CALLDATASIZE LT PUSH2 0x41 JUMPI PUSH1 0x0 CALLDATALOAD PUSH1 0xE0 SHR DUP1 PUSH4 0x15533A27 EQ PUSH2 0x46 JUMPI DUP1 PUSH4 0x17B47CC4 EQ PUSH2 0x62 JUMPI DUP1 PUSH4 0x35C1D349 EQ PUSH2 0x96 JUMPI JUMPDEST PUSH1 0x0 DUP1 REVERT JUMPDEST PUSH2 0x60 PUSH1 0x4 DUP1 CALLDATASIZE SUB DUP2 ADD SWAP1 PUSH2 0x5B SWAP2 SWAP1 PUSH2 0x3AF JUMP JUMPDEST PUSH2 0xCA JUMP JUMPDEST STOP JUMPDEST PUSH2 0x7C PUSH1 0x4 DUP1 CALLDATASIZE SUB DUP2 ADD SWAP1 PUSH2 0x77 SWAP2 SWAP1 PUSH2 0x3F0 JUMP JUMPDEST PUSH2 0xDF JUMP JUMPDEST PUSH1 0x40 MLOAD PUSH2 0x8D SWAP6 SWAP5 SWAP4 SWAP3 SWAP2 SWAP1 PUSH2 0x48E JUMP JUMPDEST PUSH1 0x40 MLOAD DUP1 SWAP2 SUB SWAP1 RETURN JUMPDEST PUSH2 0xB0 PUSH1 0x4 DUP1 CALLDATASIZE SUB DUP2 ADD SWAP1 PUSH2 0xAB SWAP2 SWAP1 PUSH2 0x3F0 JUMP JUMPDEST PUSH2 0x1CA JUMP JUMPDEST PUSH1 0x40 MLOAD PUSH2 0xC1 SWAP6 SWAP5 SWAP4 SWAP3 SWAP2 SWAP1 PUSH2 0x4E8 JUMP JUMPDEST PUSH1 0x40 MLOAD DUP1 SWAP2 SUB SWAP1 RETURN JUMPDEST PUSH2 0xD2 PUSH2 0x2B5 JUMP JUMPDEST DUP2 DUP2 PUSH1 0x0 ADD DUP2 SWAP1 MSTORE POP POP POP JUMP JUMPDEST PUSH1 0x4 PUSH1 0x20 MSTORE DUP1 PUSH1 0x0 MSTORE PUSH1 0x40 PUSH1 0x0 KECCAK256 PUSH1 0x0 SWAP2 POP SWAP1 POP DUP1 PUSH1 0x0 ADD DUP1 SLOAD PUSH2 0x102 SWAP1 PUSH2 0x687 JUMP JUMPDEST DUP1 PUSH1 0x1F ADD PUSH1 0x20 DUP1 SWAP2 DIV MUL PUSH1 0x20 ADD PUSH1 0x40 MLOAD SWAP1 DUP2 ADD PUSH1 0x40 MSTORE DUP1 SWAP3 SWAP2 SWAP1 DUP2 DUP2 MSTORE PUSH1 0x20 ADD DUP3 DUP1 SLOAD PUSH2 0x12E SWAP1 PUSH2 0x687 JUMP JUMPDEST DUP1 ISZERO PUSH2 0x17B JUMPI DUP1 PUSH1 0x1F LT PUSH2 0x150 JUMPI PUSH2 0x100 DUP1 DUP4 SLOAD DIV MUL DUP4 MSTORE SWAP2 PUSH1 0x20 ADD SWAP2 PUSH2 0x17B JUMP JUMPDEST DUP3 ADD SWAP2 SWAP1 PUSH1 0x0 MSTORE PUSH1 0x20 PUSH1 0x0 KECCAK256 SWAP1 JUMPDEST DUP2 SLOAD DUP2 MSTORE SWAP1 PUSH1 0x1 ADD SWAP1 PUSH1 0x20 ADD DUP1 DUP4 GT PUSH2 0x15E JUMPI DUP3 SWAP1 SUB PUSH1 0x1F AND DUP3 ADD SWAP2 JUMPDEST POP POP POP POP POP SWAP1 DUP1 PUSH1 0x1 ADD SLOAD SWAP1 DUP1 PUSH1 0x2 ADD PUSH1 0x0 SWAP1 SLOAD SWAP1 PUSH2 0x100 EXP SWAP1 DIV PUSH20 0xFFFFFFFFFFFFFFFFFFFFFFFFFFFFFFFFFFFFFFFF AND SWAP1 DUP1 PUSH1 0x2 ADD PUSH1 0x14 SWAP1 SLOAD SWAP1 PUSH2 0x100 EXP SWAP1 DIV PUSH1 0xFF AND SWAP1 DUP1 PUSH1 0x3 ADD SLOAD SWAP1 POP DUP6 JUMP JUMPDEST PUSH1 0x1 PUSH1 0x20 MSTORE DUP1 PUSH1 0x0 MSTORE PUSH1 0x40 PUSH1 0x0 KECCAK256 PUSH1 0x0 SWAP2 POP SWAP1 POP DUP1 PUSH1 0x0 ADD DUP1 SLOAD PUSH2 0x1ED SWAP1 PUSH2 0x687 JUMP JUMPDEST DUP1 PUSH1 0x1F ADD PUSH1 0x20 DUP1 SWAP2 DIV MUL PUSH1 0x20 ADD PUSH1 0x40 MLOAD SWAP1 DUP2 ADD PUSH1 0x40 MSTORE DUP1 SWAP3 SWAP2 SWAP1 DUP2 DUP2 MSTORE PUSH1 0x20 ADD DUP3 DUP1 SLOAD PUSH2 0x219 SWAP1 PUSH2 0x687 JUMP JUMPDEST DUP1 ISZERO PUSH2 0x266 JUMPI DUP1 PUSH1 0x1F LT PUSH2 0x23B JUMPI PUSH2 0x100 DUP1 DUP4 SLOAD DIV MUL DUP4 MSTORE SWAP2 PUSH1 0x20 ADD SWAP2 PUSH2 0x266 JUMP JUMPDEST DUP3 ADD SWAP2 SWAP1 PUSH1 0x0 MSTORE PUSH1 0x20 PUSH1 0x0 KECCAK256 SWAP1 JUMPDEST DUP2 SLOAD DUP2 MSTORE SWAP1 PUSH1 0x1 ADD SWAP1 PUSH1 0x20 ADD DUP1 DUP4 GT PUSH2 0x249 JUMPI DUP3 SWAP1 SUB PUSH1 0x1F AND DUP3 ADD SWAP2 JUMPDEST POP POP POP POP POP SWAP1 DUP1 PUSH1 0x1 ADD SLOAD SWAP1 DUP1 PUSH1 0x2 ADD PUSH1 0x0 SWAP1 SLOAD SWAP1 PUSH2 0x100 EXP SWAP1 DIV PUSH1 0xFF AND SWAP1 DUP1 PUSH1 0x2 ADD PUSH1 0x1 SWAP1 SLOAD SWAP1 PUSH2 0x100 EXP SWAP1 DIV PUSH20 0xFFFFFFFFFFFFFFFFFFFFFFFFFFFFFFFFFFFFFFFF AND SWAP1 DUP1 PUSH1 0x3 ADD SLOAD SWAP1 POP DUP6 JUMP JUMPDEST PUSH1 0x40 MLOAD DUP1 PUSH1 0xA0 ADD PUSH1 0x40 MSTORE DUP1 PUSH1 0x60 DUP2 MSTORE PUSH1 0x20 ADD PUSH1 0x0 DUP2 MSTORE PUSH1 0x20 ADD PUSH1 0x0 PUSH1 0x3 DUP2 GT ISZERO PUSH2 0x308 JUMPI PUSH32 0x4E487B7100000000000000000000000000000000000000000000000000000000 PUSH1 0x0 MSTORE PUSH1 0x21 PUSH1 0x4 MSTORE PUSH1 0x24 PUSH1 0x0 REVERT JUMPDEST DUP2 MSTORE PUSH1 0x20 ADD PUSH1 0x0 PUSH20 0xFFFFFFFFFFFFFFFFFFFFFFFFFFFFFFFFFFFFFFFF AND DUP2 MSTORE PUSH1 0x20 ADD PUSH1 0x0 DUP2 MSTORE POP SWAP1 JUMP JUMPDEST PUSH1 0x0 PUSH2 0x345 PUSH2 0x340 DUP5 PUSH2 0x573 JUMP JUMPDEST PUSH2 0x542 JUMP JUMPDEST SWAP1 POP DUP3 DUP2 MSTORE PUSH1 0x20 DUP2 ADD DUP5 DUP5 DUP5 ADD GT ISZERO PUSH2 0x35D JUMPI PUSH1 0x0 DUP1 REVERT JUMPDEST PUSH2 0x368 DUP5 DUP3 DUP6 PUSH2 0x645 JUMP JUMPDEST POP SWAP4 SWAP3 POP POP POP JUMP JUMPDEST PUSH1 0x0 DUP3 PUSH1 0x1F DUP4 ADD SLT PUSH2 0x381 JUMPI PUSH1 0x0 DUP1 REVERT JUMPDEST DUP2 CALLDATALOAD PUSH2 0x391 DUP5 DUP3 PUSH1 0x20 DUP7 ADD PUSH2 0x332 JUMP JUMPDEST SWAP2 POP POP SWAP3 SWAP2 POP POP JUMP JUMPDEST PUSH1 0x0 DUP2 CALLDATALOAD SWAP1 POP PUSH2 0x3A9 DUP2 PUSH2 0x77F JUMP JUMPDEST SWAP3 SWAP2 POP POP JUMP JUMPDEST PUSH1 0x0 PUSH1 0x20 DUP3 DUP5 SUB SLT ISZERO PUSH2 0x3C1 JUMPI PUSH1 0x0 DUP1 REVERT JUMPDEST PUSH1 0x0 DUP3 ADD CALLDATALOAD PUSH8 0xFFFFFFFFFFFFFFFF DUP2 GT ISZERO PUSH2 0x3DB JUMPI PUSH1 0x0 DUP1 REVERT JUMPDEST PUSH2 0x3E7 DUP5 DUP3 DUP6 ADD PUSH2 0x370 JUMP JUMPDEST SWAP2 POP POP SWAP3 SWAP2 POP POP JUMP JUMPDEST PUSH1 0x0 PUSH1 0x20 DUP3 DUP5 SUB SLT ISZERO PUSH2 0x402 JUMPI PUSH1 0x0 DUP1 REVERT JUMPDEST PUSH1 0x0 PUSH2 0x410 DUP5 DUP3 DUP6 ADD PUSH2 0x39A JUMP JUMPDEST SWAP2 POP POP SWAP3 SWAP2 POP POP JUMP JUMPDEST PUSH2 0x422 DUP2 PUSH2 0x5BF JUMP JUMPDEST DUP3 MSTORE POP POP JUMP JUMPDEST PUSH2 0x431 DUP2 PUSH2 0x621 JUMP JUMPDEST DUP3 MSTORE POP POP JUMP JUMPDEST PUSH2 0x440 DUP2 PUSH2 0x633 JUMP JUMPDEST DUP3 MSTORE POP POP JUMP JUMPDEST PUSH1 0x0 PUSH2 0x451 DUP3 PUSH2 0x5A3 JUMP JUMPDEST PUSH2 0x45B DUP2 DUP6 PUSH2 0x5AE JUMP JUMPDEST SWAP4 POP PUSH2 0x46B DUP2 DUP6 PUSH1 0x20 DUP7 ADD PUSH2 0x654 JUMP JUMPDEST PUSH2 0x474 DUP2 PUSH2 0x746 JUMP JUMPDEST DUP5 ADD SWAP2 POP POP SWAP3 SWAP2 POP POP JUMP JUMPDEST PUSH2 0x488 DUP2 PUSH2 0x617 JUMP JUMPDEST DUP3 MSTORE POP POP JUMP JUMPDEST PUSH1 0x0 PUSH1 0xA0 DUP3 ADD SWAP1 POP DUP2 DUP2 SUB PUSH1 0x0 DUP4 ADD MSTORE PUSH2 0x4A8 DUP2 DUP9 PUSH2 0x446 JUMP JUMPDEST SWAP1 POP PUSH2 0x4B7 PUSH1 0x20 DUP4 ADD DUP8 PUSH2 0x47F JUMP JUMPDEST PUSH2 0x4C4 PUSH1 0x40 DUP4 ADD DUP7 PUSH2 0x419 JUMP JUMPDEST PUSH2 0x4D1 PUSH1 0x60 DUP4 ADD DUP6 PUSH2 0x428 JUMP JUMPDEST PUSH2 0x4DE PUSH1 0x80 DUP4 ADD DUP5 PUSH2 0x47F JUMP JUMPDEST SWAP7 SWAP6 POP POP POP POP POP POP JUMP JUMPDEST PUSH1 0x0 PUSH1 0xA0 DUP3 ADD SWAP1 POP DUP2 DUP2 SUB PUSH1 0x0 DUP4 ADD MSTORE PUSH2 0x502 DUP2 DUP9 PUSH2 0x446 JUMP JUMPDEST SWAP1 POP PUSH2 0x511 PUSH1 0x20 DUP4 ADD DUP8 PUSH2 0x47F JUMP JUMPDEST PUSH2 0x51E PUSH1 0x40 DUP4 ADD DUP7 PUSH2 0x437 JUMP JUMPDEST PUSH2 0x52B PUSH1 0x60 DUP4 ADD DUP6 PUSH2 0x419 JUMP JUMPDEST PUSH2 0x538 PUSH1 0x80 DUP4 ADD DUP5 PUSH2 0x47F JUMP JUMPDEST SWAP7 SWAP6 POP POP POP POP POP POP JUMP JUMPDEST PUSH1 0x0 PUSH1 0x40 MLOAD SWAP1 POP DUP2 DUP2 ADD DUP2 DUP2 LT PUSH8 0xFFFFFFFFFFFFFFFF DUP3 GT OR ISZERO PUSH2 0x569 JUMPI PUSH2 0x568 PUSH2 0x717 JUMP JUMPDEST JUMPDEST DUP1 PUSH1 0x40 MSTORE POP SWAP2 SWAP1 POP JUMP JUMPDEST PUSH1 0x0 PUSH8 0xFFFFFFFFFFFFFFFF DUP3 GT ISZERO PUSH2 0x58E JUMPI PUSH2 0x58D PUSH2 0x717 JUMP JUMPDEST JUMPDEST PUSH1 0x1F NOT PUSH1 0x1F DUP4 ADD AND SWAP1 POP PUSH1 0x20 DUP2 ADD SWAP1 POP SWAP2 SWAP1 POP JUMP JUMPDEST PUSH1 0x0 DUP2 MLOAD SWAP1 POP SWAP2 SWAP1 POP JUMP JUMPDEST PUSH1 0x0 DUP3 DUP3 MSTORE PUSH1 0x20 DUP3 ADD SWAP1 POP SWAP3 SWAP2 POP POP JUMP JUMPDEST PUSH1 0x0 PUSH2 0x5CA DUP3 PUSH2 0x5F7 JUMP JUMPDEST SWAP1 POP SWAP2 SWAP1 POP JUMP JUMPDEST PUSH1 0x0 DUP2 SWAP1 POP PUSH2 0x5DF DUP3 PUSH2 0x757 JUMP JUMPDEST SWAP2 SWAP1 POP JUMP JUMPDEST PUSH1 0x0 DUP2 SWAP1 POP PUSH2 0x5F2 DUP3 PUSH2 0x76B JUMP JUMPDEST SWAP2 SWAP1 POP JUMP JUMPDEST PUSH1 0x0 PUSH20 0xFFFFFFFFFFFFFFFFFFFFFFFFFFFFFFFFFFFFFFFF DUP3 AND SWAP1 POP SWAP2 SWAP1 POP JUMP JUMPDEST PUSH1 0x0 DUP2 SWAP1 POP SWAP2 SWAP1 POP JUMP JUMPDEST PUSH1 0x0 PUSH2 0x62C DUP3 PUSH2 0x5D1 JUMP JUMPDEST SWAP1 POP SWAP2 SWAP1 POP JUMP JUMPDEST PUSH1 0x0 PUSH2 0x63E DUP3 PUSH2 0x5E4 JUMP JUMPDEST SWAP1 POP SWAP2 SWAP1 POP JUMP JUMPDEST DUP3 DUP2 DUP4 CALLDATACOPY PUSH1 0x0 DUP4 DUP4 ADD MSTORE POP POP POP JUMP JUMPDEST PUSH1 0x0 JUMPDEST DUP4 DUP2 LT ISZERO PUSH2 0x672 JUMPI DUP1 DUP3 ADD MLOAD DUP2 DUP5 ADD MSTORE PUSH1 0x20 DUP2 ADD SWAP1 POP PUSH2 0x657 JUMP JUMPDEST DUP4 DUP2 GT ISZERO PUSH2 0x681 JUMPI PUSH1 0x0 DUP5 DUP5 ADD MSTORE JUMPDEST POP POP POP POP JUMP JUMPDEST PUSH1 0x0 PUSH1 0x2 DUP3 DIV SWAP1 POP PUSH1 0x1 DUP3 AND DUP1 PUSH2 0x69F JUMPI PUSH1 0x7F DUP3 AND SWAP2 POP JUMPDEST PUSH1 0x20 DUP3 LT DUP2 EQ ISZERO PUSH2 0x6B3 JUMPI PUSH2 0x6B2 PUSH2 0x6E8 JUMP JUMPDEST JUMPDEST POP SWAP2 SWAP1 POP JUMP JUMPDEST PUSH32 0x4E487B7100000000000000000000000000000000000000000000000000000000 PUSH1 0x0 MSTORE PUSH1 0x21 PUSH1 0x4 MSTORE PUSH1 0x24 PUSH1 0x0 REVERT JUMPDEST PUSH32 0x4E487B7100000000000000000000000000000000000000000000000000000000 PUSH1 0x0 MSTORE PUSH1 0x22 PUSH1 0x4 MSTORE PUSH1 0x24 PUSH1 0x0 REVERT JUMPDEST PUSH32 0x4E487B7100000000000000000000000000000000000000000000000000000000 PUSH1 0x0 MSTORE PUSH1 0x41 PUSH1 0x4 MSTORE PUSH1 0x24 PUSH1 0x0 REVERT JUMPDEST PUSH1 0x0 PUSH1 0x1F NOT PUSH1 0x1F DUP4 ADD AND SWAP1 POP SWAP2 SWAP1 POP JUMP JUMPDEST PUSH1 0x7 DUP2 LT PUSH2 0x768 JUMPI PUSH2 0x767 PUSH2 0x6B9 JUMP JUMPDEST JUMPDEST POP JUMP JUMPDEST PUSH1 0x4 DUP2 LT PUSH2 0x77C JUMPI PUSH2 0x77B PUSH2 0x6B9 JUMP JUMPDEST JUMPDEST POP JUMP JUMPDEST PUSH2 0x788 DUP2 PUSH2 0x617 JUMP JUMPDEST DUP2 EQ PUSH2 0x793 JUMPI PUSH1 0x0 DUP1 REVERT JUMPDEST POP JUMP INVALID LOG2 PUSH5 0x6970667358 0x22 SLT KECCAK256 0xD 0x49 SWAP1 0xE6 0x4C 0x4B 0xFB DUP11 0x22 SWAP2 0xAE PUSH4 0x63646E8B DUP3 SUB COINBASE 0x5D 0x2C 0xCE PUSH17 0x3D9E38D63CA8E0344964736F6C63430008 STOP STOP CALLER "
				},
				"gasEstimates": {
					"creation": {
						"codeDepositCost": "399200",
						"executionCost": "10448",
						"totalCost": "409648"
					},
					"external": {
						"Items(uint256)": "infinite",
						"addSupplier(string)": "infinite",
						"participants(uint256)": "infinite"
					}
				},
				"methodIdentifiers": {
					"Items(uint256)": "17b47cc4",
					"addSupplier(string)": "15533a27",
					"participants(uint256)": "35c1d349"
				}
			},
			"userdoc": {
				"kind": "user",
				"methods": {},
				"version": 1
			}
		}
	}
}