{
	"contracts/item.sol": {
		"Item": {
			"abi": [
				{
					"inputs": [
						{
							"internalType": "uint256",
							"name": "",
							"type": "uint256"
						}
					],
					"name": "Items",
					"outputs": [
						{
							"internalType": "string",
							"name": "product_name",
							"type": "string"
						},
						{
							"internalType": "uint256",
							"name": "productId",
							"type": "uint256"
						},
						{
							"internalType": "address",
							"name": "itemOwner",
							"type": "address"
						},
						{
							"internalType": "enum Item.state",
							"name": "productState",
							"type": "uint8"
						},
						{
							"internalType": "uint256",
							"name": "cost",
							"type": "uint256"
						}
					],
					"stateMutability": "view",
					"type": "function"
				}
			],
			"devdoc": {
				"kind": "dev",
				"methods": {},
				"version": 1
			},
			"evm": {
				"assembly": "    /* \"contracts/item.sol\":27:429  contract Item{\r... */\n  mstore(0x40, 0x80)\n    /* \"contracts/item.sol\":54:55  0 */\n  0x00\n    /* \"contracts/item.sol\":46:55  uint ic=0 */\n  dup1\n  sstore\n    /* \"contracts/item.sol\":27:429  contract Item{\r... */\n  callvalue\n  dup1\n  iszero\n  tag_1\n  jumpi\n  0x00\n  dup1\n  revert\ntag_1:\n  pop\n  dataSize(sub_0)\n  dup1\n  dataOffset(sub_0)\n  0x00\n  codecopy\n  0x00\n  return\nstop\n\nsub_0: assembly {\n        /* \"contracts/item.sol\":27:429  contract Item{\r... */\n      mstore(0x40, 0x80)\n      callvalue\n      dup1\n      iszero\n      tag_1\n      jumpi\n      0x00\n      dup1\n      revert\n    tag_1:\n      pop\n      jumpi(tag_2, lt(calldatasize, 0x04))\n      shr(0xe0, calldataload(0x00))\n      dup1\n      0x17b47cc4\n      eq\n      tag_3\n      jumpi\n    tag_2:\n      0x00\n      dup1\n      revert\n        /* \"contracts/item.sol\":389:421  mapping(uint=>item) public Items */\n    tag_3:\n      tag_4\n      0x04\n      dup1\n      calldatasize\n      sub\n      dup2\n      add\n      swap1\n      tag_5\n      swap2\n      swap1\n      tag_6\n      jump\t// in\n    tag_5:\n      tag_7\n      jump\t// in\n    tag_4:\n      mload(0x40)\n      tag_8\n      swap6\n      swap5\n      swap4\n      swap3\n      swap2\n      swap1\n      tag_9\n      jump\t// in\n    tag_8:\n      mload(0x40)\n      dup1\n      swap2\n      sub\n      swap1\n      return\n    tag_7:\n      mstore(0x20, 0x01)\n      dup1\n      0x00\n      mstore\n      keccak256(0x00, 0x40)\n      0x00\n      swap2\n      pop\n      swap1\n      pop\n      dup1\n      0x00\n      add\n      dup1\n      sload\n      tag_10\n      swap1\n      tag_11\n      jump\t// in\n    tag_10:\n      dup1\n      0x1f\n      add\n      0x20\n      dup1\n      swap2\n      div\n      mul\n      0x20\n      add\n      mload(0x40)\n      swap1\n      dup2\n      add\n      0x40\n      mstore\n      dup1\n      swap3\n      swap2\n      swap1\n      dup2\n      dup2\n      mstore\n      0x20\n      add\n      dup3\n      dup1\n      sload\n      tag_12\n      swap1\n      tag_11\n      jump\t// in\n    tag_12:\n      dup1\n      iszero\n      tag_13\n      jumpi\n      dup1\n      0x1f\n      lt\n      tag_14\n      jumpi\n      0x0100\n      dup1\n      dup4\n      sload\n      div\n      mul\n      dup4\n      mstore\n      swap2\n      0x20\n      add\n      swap2\n      jump(tag_13)\n    tag_14:\n      dup3\n      add\n      swap2\n      swap1\n      0x00\n      mstore\n      keccak256(0x00, 0x20)\n      swap1\n    tag_15:\n      dup2\n      sload\n      dup2\n      mstore\n      swap1\n      0x01\n      add\n      swap1\n      0x20\n      add\n      dup1\n      dup4\n      gt\n      tag_15\n      jumpi\n      dup3\n      swap1\n      sub\n      0x1f\n      and\n      dup3\n      add\n      swap2\n    tag_13:\n      pop\n      pop\n      pop\n      pop\n      pop\n      swap1\n      dup1\n      0x01\n      add\n      sload\n      swap1\n      dup1\n      0x02\n      add\n      0x00\n      swap1\n      sload\n      swap1\n      0x0100\n      exp\n      swap1\n      div\n      0xffffffffffffffffffffffffffffffffffffffff\n      and\n      swap1\n      dup1\n      0x02\n      add\n      0x14\n      swap1\n      sload\n      swap1\n      0x0100\n      exp\n      swap1\n      div\n      0xff\n      and\n      swap1\n      dup1\n      0x03\n      add\n      sload\n      swap1\n      pop\n      dup6\n      jump\t// out\n        /* \"#utility.yul\":7:146   */\n    tag_17:\n        /* \"#utility.yul\":53:58   */\n      0x00\n        /* \"#utility.yul\":91:97   */\n      dup2\n        /* \"#utility.yul\":78:98   */\n      calldataload\n        /* \"#utility.yul\":69:98   */\n      swap1\n      pop\n        /* \"#utility.yul\":107:140   */\n      tag_19\n        /* \"#utility.yul\":134:139   */\n      dup2\n        /* \"#utility.yul\":107:140   */\n      tag_20\n      jump\t// in\n    tag_19:\n        /* \"#utility.yul\":7:146   */\n      swap3\n      swap2\n      pop\n      pop\n      jump\t// out\n        /* \"#utility.yul\":152:481   */\n    tag_6:\n        /* \"#utility.yul\":211:217   */\n      0x00\n        /* \"#utility.yul\":260:262   */\n      0x20\n        /* \"#utility.yul\":248:257   */\n      dup3\n        /* \"#utility.yul\":239:246   */\n      dup5\n        /* \"#utility.yul\":235:258   */\n      sub\n        /* \"#utility.yul\":231:263   */\n      slt\n        /* \"#utility.yul\":228:347   */\n      iszero\n      tag_22\n      jumpi\n        /* \"#utility.yul\":266:345   */\n      tag_23\n      tag_24\n      jump\t// in\n    tag_23:\n        /* \"#utility.yul\":228:347   */\n    tag_22:\n        /* \"#utility.yul\":386:387   */\n      0x00\n        /* \"#utility.yul\":411:464   */\n      tag_25\n        /* \"#utility.yul\":456:463   */\n      dup5\n        /* \"#utility.yul\":447:453   */\n      dup3\n        /* \"#utility.yul\":436:445   */\n      dup6\n        /* \"#utility.yul\":432:454   */\n      add\n        /* \"#utility.yul\":411:464   */\n      tag_17\n      jump\t// in\n    tag_25:\n        /* \"#utility.yul\":401:464   */\n      swap2\n      pop\n        /* \"#utility.yul\":357:474   */\n      pop\n        /* \"#utility.yul\":152:481   */\n      swap3\n      swap2\n      pop\n      pop\n      jump\t// out\n        /* \"#utility.yul\":487:605   */\n    tag_26:\n        /* \"#utility.yul\":574:598   */\n      tag_28\n        /* \"#utility.yul\":592:597   */\n      dup2\n        /* \"#utility.yul\":574:598   */\n      tag_29\n      jump\t// in\n    tag_28:\n        /* \"#utility.yul\":569:572   */\n      dup3\n        /* \"#utility.yul\":562:599   */\n      mstore\n        /* \"#utility.yul\":487:605   */\n      pop\n      pop\n      jump\t// out\n        /* \"#utility.yul\":611:754   */\n    tag_30:\n        /* \"#utility.yul\":704:747   */\n      tag_32\n        /* \"#utility.yul\":741:746   */\n      dup2\n        /* \"#utility.yul\":704:747   */\n      tag_33\n      jump\t// in\n    tag_32:\n        /* \"#utility.yul\":699:702   */\n      dup3\n        /* \"#utility.yul\":692:748   */\n      mstore\n        /* \"#utility.yul\":611:754   */\n      pop\n      pop\n      jump\t// out\n        /* \"#utility.yul\":760:1124   */\n    tag_34:\n        /* \"#utility.yul\":848:851   */\n      0x00\n        /* \"#utility.yul\":876:915   */\n      tag_36\n        /* \"#utility.yul\":909:914   */\n      dup3\n        /* \"#utility.yul\":876:915   */\n      tag_37\n      jump\t// in\n    tag_36:\n        /* \"#utility.yul\":931:1002   */\n      tag_38\n        /* \"#utility.yul\":995:1001   */\n      dup2\n        /* \"#utility.yul\":990:993   */\n      dup6\n        /* \"#utility.yul\":931:1002   */\n      tag_39\n      jump\t// in\n    tag_38:\n        /* \"#utility.yul\":924:1002   */\n      swap4\n      pop\n        /* \"#utility.yul\":1011:1063   */\n      tag_40\n        /* \"#utility.yul\":1056:1062   */\n      dup2\n        /* \"#utility.yul\":1051:1054   */\n      dup6\n        /* \"#utility.yul\":1044:1048   */\n      0x20\n        /* \"#utility.yul\":1037:1042   */\n      dup7\n        /* \"#utility.yul\":1033:1049   */\n      add\n        /* \"#utility.yul\":1011:1063   */\n      tag_41\n      jump\t// in\n    tag_40:\n        /* \"#utility.yul\":1088:1117   */\n      tag_42\n        /* \"#utility.yul\":1110:1116   */\n      dup2\n        /* \"#utility.yul\":1088:1117   */\n      tag_43\n      jump\t// in\n    tag_42:\n        /* \"#utility.yul\":1083:1086   */\n      dup5\n        /* \"#utility.yul\":1079:1118   */\n      add\n        /* \"#utility.yul\":1072:1118   */\n      swap2\n      pop\n        /* \"#utility.yul\":852:1124   */\n      pop\n        /* \"#utility.yul\":760:1124   */\n      swap3\n      swap2\n      pop\n      pop\n      jump\t// out\n        /* \"#utility.yul\":1130:1248   */\n    tag_44:\n        /* \"#utility.yul\":1217:1241   */\n      tag_46\n        /* \"#utility.yul\":1235:1240   */\n      dup2\n        /* \"#utility.yul\":1217:1241   */\n      tag_47\n      jump\t// in\n    tag_46:\n        /* \"#utility.yul\":1212:1215   */\n      dup3\n        /* \"#utility.yul\":1205:1242   */\n      mstore\n        /* \"#utility.yul\":1130:1248   */\n      pop\n      pop\n      jump\t// out\n        /* \"#utility.yul\":1254:2021   */\n    tag_9:\n        /* \"#utility.yul\":1485:1489   */\n      0x00\n        /* \"#utility.yul\":1523:1526   */\n      0xa0\n        /* \"#utility.yul\":1512:1521   */\n      dup3\n        /* \"#utility.yul\":1508:1527   */\n      add\n        /* \"#utility.yul\":1500:1527   */\n      swap1\n      pop\n        /* \"#utility.yul\":1573:1582   */\n      dup2\n        /* \"#utility.yul\":1567:1571   */\n      dup2\n        /* \"#utility.yul\":1563:1583   */\n      sub\n        /* \"#utility.yul\":1559:1560   */\n      0x00\n        /* \"#utility.yul\":1548:1557   */\n      dup4\n        /* \"#utility.yul\":1544:1561   */\n      add\n        /* \"#utility.yul\":1537:1584   */\n      mstore\n        /* \"#utility.yul\":1601:1679   */\n      tag_49\n        /* \"#utility.yul\":1674:1678   */\n      dup2\n        /* \"#utility.yul\":1665:1671   */\n      dup9\n        /* \"#utility.yul\":1601:1679   */\n      tag_34\n      jump\t// in\n    tag_49:\n        /* \"#utility.yul\":1593:1679   */\n      swap1\n      pop\n        /* \"#utility.yul\":1689:1761   */\n      tag_50\n        /* \"#utility.yul\":1757:1759   */\n      0x20\n        /* \"#utility.yul\":1746:1755   */\n      dup4\n        /* \"#utility.yul\":1742:1760   */\n      add\n        /* \"#utility.yul\":1733:1739   */\n      dup8\n        /* \"#utility.yul\":1689:1761   */\n      tag_44\n      jump\t// in\n    tag_50:\n        /* \"#utility.yul\":1771:1843   */\n      tag_51\n        /* \"#utility.yul\":1839:1841   */\n      0x40\n        /* \"#utility.yul\":1828:1837   */\n      dup4\n        /* \"#utility.yul\":1824:1842   */\n      add\n        /* \"#utility.yul\":1815:1821   */\n      dup7\n        /* \"#utility.yul\":1771:1843   */\n      tag_26\n      jump\t// in\n    tag_51:\n        /* \"#utility.yul\":1853:1931   */\n      tag_52\n        /* \"#utility.yul\":1927:1929   */\n      0x60\n        /* \"#utility.yul\":1916:1925   */\n      dup4\n        /* \"#utility.yul\":1912:1930   */\n      add\n        /* \"#utility.yul\":1903:1909   */\n      dup6\n        /* \"#utility.yul\":1853:1931   */\n      tag_30\n      jump\t// in\n    tag_52:\n        /* \"#utility.yul\":1941:2014   */\n      tag_53\n        /* \"#utility.yul\":2009:2012   */\n      0x80\n        /* \"#utility.yul\":1998:2007   */\n      dup4\n        /* \"#utility.yul\":1994:2013   */\n      add\n        /* \"#utility.yul\":1985:1991   */\n      dup5\n        /* \"#utility.yul\":1941:2014   */\n      tag_44\n      jump\t// in\n    tag_53:\n        /* \"#utility.yul\":1254:2021   */\n      swap7\n      swap6\n      pop\n      pop\n      pop\n      pop\n      pop\n      pop\n      jump\t// out\n        /* \"#utility.yul\":2108:2207   */\n    tag_37:\n        /* \"#utility.yul\":2160:2166   */\n      0x00\n        /* \"#utility.yul\":2194:2199   */\n      dup2\n        /* \"#utility.yul\":2188:2200   */\n      mload\n        /* \"#utility.yul\":2178:2200   */\n      swap1\n      pop\n        /* \"#utility.yul\":2108:2207   */\n      swap2\n      swap1\n      pop\n      jump\t// out\n        /* \"#utility.yul\":2213:2382   */\n    tag_39:\n        /* \"#utility.yul\":2297:2308   */\n      0x00\n        /* \"#utility.yul\":2331:2337   */\n      dup3\n        /* \"#utility.yul\":2326:2329   */\n      dup3\n        /* \"#utility.yul\":2319:2338   */\n      mstore\n        /* \"#utility.yul\":2371:2375   */\n      0x20\n        /* \"#utility.yul\":2366:2369   */\n      dup3\n        /* \"#utility.yul\":2362:2376   */\n      add\n        /* \"#utility.yul\":2347:2376   */\n      swap1\n      pop\n        /* \"#utility.yul\":2213:2382   */\n      swap3\n      swap2\n      pop\n      pop\n      jump\t// out\n        /* \"#utility.yul\":2388:2484   */\n    tag_29:\n        /* \"#utility.yul\":2425:2432   */\n      0x00\n        /* \"#utility.yul\":2454:2478   */\n      tag_59\n        /* \"#utility.yul\":2472:2477   */\n      dup3\n        /* \"#utility.yul\":2454:2478   */\n      tag_60\n      jump\t// in\n    tag_59:\n        /* \"#utility.yul\":2443:2478   */\n      swap1\n      pop\n        /* \"#utility.yul\":2388:2484   */\n      swap2\n      swap1\n      pop\n      jump\t// out\n        /* \"#utility.yul\":2490:2617   */\n    tag_61:\n        /* \"#utility.yul\":2535:2542   */\n      0x00\n        /* \"#utility.yul\":2564:2569   */\n      dup2\n        /* \"#utility.yul\":2553:2569   */\n      swap1\n      pop\n        /* \"#utility.yul\":2570:2611   */\n      tag_63\n        /* \"#utility.yul\":2605:2610   */\n      dup3\n        /* \"#utility.yul\":2570:2611   */\n      tag_64\n      jump\t// in\n    tag_63:\n        /* \"#utility.yul\":2490:2617   */\n      swap2\n      swap1\n      pop\n      jump\t// out\n        /* \"#utility.yul\":2623:2749   */\n    tag_60:\n        /* \"#utility.yul\":2660:2667   */\n      0x00\n        /* \"#utility.yul\":2700:2742   */\n      0xffffffffffffffffffffffffffffffffffffffff\n        /* \"#utility.yul\":2693:2698   */\n      dup3\n        /* \"#utility.yul\":2689:2743   */\n      and\n        /* \"#utility.yul\":2678:2743   */\n      swap1\n      pop\n        /* \"#utility.yul\":2623:2749   */\n      swap2\n      swap1\n      pop\n      jump\t// out\n        /* \"#utility.yul\":2755:2832   */\n    tag_47:\n        /* \"#utility.yul\":2792:2799   */\n      0x00\n        /* \"#utility.yul\":2821:2826   */\n      dup2\n        /* \"#utility.yul\":2810:2826   */\n      swap1\n      pop\n        /* \"#utility.yul\":2755:2832   */\n      swap2\n      swap1\n      pop\n      jump\t// out\n        /* \"#utility.yul\":2838:2965   */\n    tag_33:\n        /* \"#utility.yul\":2894:2903   */\n      0x00\n        /* \"#utility.yul\":2927:2959   */\n      tag_68\n        /* \"#utility.yul\":2953:2958   */\n      dup3\n        /* \"#utility.yul\":2927:2959   */\n      tag_61\n      jump\t// in\n    tag_68:\n        /* \"#utility.yul\":2914:2959   */\n      swap1\n      pop\n        /* \"#utility.yul\":2838:2965   */\n      swap2\n      swap1\n      pop\n      jump\t// out\n        /* \"#utility.yul\":2971:3278   */\n    tag_41:\n        /* \"#utility.yul\":3039:3040   */\n      0x00\n        /* \"#utility.yul\":3049:3162   */\n    tag_70:\n        /* \"#utility.yul\":3063:3069   */\n      dup4\n        /* \"#utility.yul\":3060:3061   */\n      dup2\n        /* \"#utility.yul\":3057:3070   */\n      lt\n        /* \"#utility.yul\":3049:3162   */\n      iszero\n      tag_72\n      jumpi\n        /* \"#utility.yul\":3148:3149   */\n      dup1\n        /* \"#utility.yul\":3143:3146   */\n      dup3\n        /* \"#utility.yul\":3139:3150   */\n      add\n        /* \"#utility.yul\":3133:3151   */\n      mload\n        /* \"#utility.yul\":3129:3130   */\n      dup2\n        /* \"#utility.yul\":3124:3127   */\n      dup5\n        /* \"#utility.yul\":3120:3131   */\n      add\n        /* \"#utility.yul\":3113:3152   */\n      mstore\n        /* \"#utility.yul\":3085:3087   */\n      0x20\n        /* \"#utility.yul\":3082:3083   */\n      dup2\n        /* \"#utility.yul\":3078:3088   */\n      add\n        /* \"#utility.yul\":3073:3088   */\n      swap1\n      pop\n        /* \"#utility.yul\":3049:3162   */\n      jump(tag_70)\n    tag_72:\n        /* \"#utility.yul\":3180:3186   */\n      dup4\n        /* \"#utility.yul\":3177:3178   */\n      dup2\n        /* \"#utility.yul\":3174:3187   */\n      gt\n        /* \"#utility.yul\":3171:3272   */\n      iszero\n      tag_73\n      jumpi\n        /* \"#utility.yul\":3260:3261   */\n      0x00\n        /* \"#utility.yul\":3251:3257   */\n      dup5\n        /* \"#utility.yul\":3246:3249   */\n      dup5\n        /* \"#utility.yul\":3242:3258   */\n      add\n        /* \"#utility.yul\":3235:3262   */\n      mstore\n        /* \"#utility.yul\":3171:3272   */\n    tag_73:\n        /* \"#utility.yul\":3020:3278   */\n      pop\n        /* \"#utility.yul\":2971:3278   */\n      pop\n      pop\n      pop\n      jump\t// out\n        /* \"#utility.yul\":3284:3604   */\n    tag_11:\n        /* \"#utility.yul\":3328:3334   */\n      0x00\n        /* \"#utility.yul\":3365:3366   */\n      0x02\n        /* \"#utility.yul\":3359:3363   */\n      dup3\n        /* \"#utility.yul\":3355:3367   */\n      div\n        /* \"#utility.yul\":3345:3367   */\n      swap1\n      pop\n        /* \"#utility.yul\":3412:3413   */\n      0x01\n        /* \"#utility.yul\":3406:3410   */\n      dup3\n        /* \"#utility.yul\":3402:3414   */\n      and\n        /* \"#utility.yul\":3433:3451   */\n      dup1\n        /* \"#utility.yul\":3423:3504   */\n      tag_75\n      jumpi\n        /* \"#utility.yul\":3489:3493   */\n      0x7f\n        /* \"#utility.yul\":3481:3487   */\n      dup3\n        /* \"#utility.yul\":3477:3494   */\n      and\n        /* \"#utility.yul\":3467:3494   */\n      swap2\n      pop\n        /* \"#utility.yul\":3423:3504   */\n    tag_75:\n        /* \"#utility.yul\":3551:3553   */\n      0x20\n        /* \"#utility.yul\":3543:3549   */\n      dup3\n        /* \"#utility.yul\":3540:3554   */\n      lt\n        /* \"#utility.yul\":3520:3538   */\n      dup2\n        /* \"#utility.yul\":3517:3555   */\n      eq\n        /* \"#utility.yul\":3514:3598   */\n      iszero\n      tag_76\n      jumpi\n        /* \"#utility.yul\":3570:3588   */\n      tag_77\n      tag_78\n      jump\t// in\n    tag_77:\n        /* \"#utility.yul\":3514:3598   */\n    tag_76:\n        /* \"#utility.yul\":3335:3604   */\n      pop\n        /* \"#utility.yul\":3284:3604   */\n      swap2\n      swap1\n      pop\n      jump\t// out\n        /* \"#utility.yul\":3610:3790   */\n    tag_79:\n        /* \"#utility.yul\":3658:3735   */\n      0x4e487b7100000000000000000000000000000000000000000000000000000000\n        /* \"#utility.yul\":3655:3656   */\n      0x00\n        /* \"#utility.yul\":3648:3736   */\n      mstore\n        /* \"#utility.yul\":3755:3759   */\n      0x21\n        /* \"#utility.yul\":3752:3753   */\n      0x04\n        /* \"#utility.yul\":3745:3760   */\n      mstore\n        /* \"#utility.yul\":3779:3783   */\n      0x24\n        /* \"#utility.yul\":3776:3777   */\n      0x00\n        /* \"#utility.yul\":3769:3784   */\n      revert\n        /* \"#utility.yul\":3796:3976   */\n    tag_78:\n        /* \"#utility.yul\":3844:3921   */\n      0x4e487b7100000000000000000000000000000000000000000000000000000000\n        /* \"#utility.yul\":3841:3842   */\n      0x00\n        /* \"#utility.yul\":3834:3922   */\n      mstore\n        /* \"#utility.yul\":3941:3945   */\n      0x22\n        /* \"#utility.yul\":3938:3939   */\n      0x04\n        /* \"#utility.yul\":3931:3946   */\n      mstore\n        /* \"#utility.yul\":3965:3969   */\n      0x24\n        /* \"#utility.yul\":3962:3963   */\n      0x00\n        /* \"#utility.yul\":3955:3970   */\n      revert\n        /* \"#utility.yul\":4105:4222   */\n    tag_24:\n        /* \"#utility.yul\":4214:4215   */\n      0x00\n        /* \"#utility.yul\":4211:4212   */\n      dup1\n        /* \"#utility.yul\":4204:4216   */\n      revert\n        /* \"#utility.yul\":4228:4330   */\n    tag_43:\n        /* \"#utility.yul\":4269:4275   */\n      0x00\n        /* \"#utility.yul\":4320:4322   */\n      0x1f\n        /* \"#utility.yul\":4316:4323   */\n      not\n        /* \"#utility.yul\":4311:4313   */\n      0x1f\n        /* \"#utility.yul\":4304:4309   */\n      dup4\n        /* \"#utility.yul\":4300:4314   */\n      add\n        /* \"#utility.yul\":4296:4324   */\n      and\n        /* \"#utility.yul\":4286:4324   */\n      swap1\n      pop\n        /* \"#utility.yul\":4228:4330   */\n      swap2\n      swap1\n      pop\n      jump\t// out\n        /* \"#utility.yul\":4336:4449   */\n    tag_64:\n        /* \"#utility.yul\":4417:4418   */\n      0x07\n        /* \"#utility.yul\":4410:4415   */\n      dup2\n        /* \"#utility.yul\":4407:4419   */\n      lt\n        /* \"#utility.yul\":4397:4443   */\n      tag_87\n      jumpi\n        /* \"#utility.yul\":4423:4441   */\n      tag_88\n      tag_79\n      jump\t// in\n    tag_88:\n        /* \"#utility.yul\":4397:4443   */\n    tag_87:\n        /* \"#utility.yul\":4336:4449   */\n      pop\n      jump\t// out\n        /* \"#utility.yul\":4455:4577   */\n    tag_20:\n        /* \"#utility.yul\":4528:4552   */\n      tag_90\n        /* \"#utility.yul\":4546:4551   */\n      dup2\n        /* \"#utility.yul\":4528:4552   */\n      tag_47\n      jump\t// in\n    tag_90:\n        /* \"#utility.yul\":4521:4526   */\n      dup2\n        /* \"#utility.yul\":4518:4553   */\n      eq\n        /* \"#utility.yul\":4508:4571   */\n      tag_91\n      jumpi\n        /* \"#utility.yul\":4567:4568   */\n      0x00\n        /* \"#utility.yul\":4564:4565   */\n      dup1\n        /* \"#utility.yul\":4557:4569   */\n      revert\n        /* \"#utility.yul\":4508:4571   */\n    tag_91:\n        /* \"#utility.yul\":4455:4577   */\n      pop\n      jump\t// out\n\n    auxdata: 0xa2646970667358221220e687d3f2a234d290005d5064ddd9d8bdb8be55261edb92aa2bbcd6eb3e78bdfc64736f6c63430008070033\n}\n",
				"bytecode": {
					"linkReferences": {},
					"object": "60806040526000805534801561001457600080fd5b50610408806100246000396000f3fe608060405234801561001057600080fd5b506004361061002b5760003560e01c806317b47cc414610030575b600080fd5b61004a60048036038101906100459190610164565b610064565b60405161005b9594939291906101f7565b60405180910390f35b600160205280600052604060002060009150905080600001805461008790610301565b80601f01602080910402602001604051908101604052809291908181526020018280546100b390610301565b80156101005780601f106100d557610100808354040283529160200191610100565b820191906000526020600020905b8154815290600101906020018083116100e357829003601f168201915b5050505050908060010154908060020160009054906101000a900473ffffffffffffffffffffffffffffffffffffffff16908060020160149054906101000a900460ff16908060030154905085565b60008135905061015e816103bb565b92915050565b60006020828403121561017a57610179610391565b5b60006101888482850161014f565b91505092915050565b61019a8161026d565b82525050565b6101a9816102bc565b82525050565b60006101ba82610251565b6101c4818561025c565b93506101d48185602086016102ce565b6101dd81610396565b840191505092915050565b6101f1816102b2565b82525050565b600060a082019050818103600083015261021181886101af565b905061022060208301876101e8565b61022d6040830186610191565b61023a60608301856101a0565b61024760808301846101e8565b9695505050505050565b600081519050919050565b600082825260208201905092915050565b600061027882610292565b9050919050565b600081905061028d826103a7565b919050565b600073ffffffffffffffffffffffffffffffffffffffff82169050919050565b6000819050919050565b60006102c78261027f565b9050919050565b60005b838110156102ec5780820151818401526020810190506102d1565b838111156102fb576000848401525b50505050565b6000600282049050600182168061031957607f821691505b6020821081141561032d5761032c610362565b5b50919050565b7f4e487b7100000000000000000000000000000000000000000000000000000000600052602160045260246000fd5b7f4e487b7100000000000000000000000000000000000000000000000000000000600052602260045260246000fd5b600080fd5b6000601f19601f8301169050919050565b600781106103b8576103b7610333565b5b50565b6103c4816102b2565b81146103cf57600080fd5b5056fea2646970667358221220e687d3f2a234d290005d5064ddd9d8bdb8be55261edb92aa2bbcd6eb3e78bdfc64736f6c63430008070033",
					"opcodes": "PUSH1 0x80 PUSH1 0x40 MSTORE PUSH1 0x0 DUP1 SSTORE CALLVALUE DUP1 ISZERO PUSH2 0x14 JUMPI PUSH1 0x0 DUP1 REVERT JUMPDEST POP PUSH2 0x408 DUP1 PUSH2 0x24 PUSH1 0x0 CODECOPY PUSH1 0x0 RETURN INVALID PUSH1 0x80 PUSH1 0x40 MSTORE CALLVALUE DUP1 ISZERO PUSH2 0x10 JUMPI PUSH1 0x0 DUP1 REVERT JUMPDEST POP PUSH1 0x4 CALLDATASIZE LT PUSH2 0x2B JUMPI PUSH1 0x0 CALLDATALOAD PUSH1 0xE0 SHR DUP1 PUSH4 0x17B47CC4 EQ PUSH2 0x30 JUMPI JUMPDEST PUSH1 0x0 DUP1 REVERT JUMPDEST PUSH2 0x4A PUSH1 0x4 DUP1 CALLDATASIZE SUB DUP2 ADD SWAP1 PUSH2 0x45 SWAP2 SWAP1 PUSH2 0x164 JUMP JUMPDEST PUSH2 0x64 JUMP JUMPDEST PUSH1 0x40 MLOAD PUSH2 0x5B SWAP6 SWAP5 SWAP4 SWAP3 SWAP2 SWAP1 PUSH2 0x1F7 JUMP JUMPDEST PUSH1 0x40 MLOAD DUP1 SWAP2 SUB SWAP1 RETURN JUMPDEST PUSH1 0x1 PUSH1 0x20 MSTORE DUP1 PUSH1 0x0 MSTORE PUSH1 0x40 PUSH1 0x0 KECCAK256 PUSH1 0x0 SWAP2 POP SWAP1 POP DUP1 PUSH1 0x0 ADD DUP1 SLOAD PUSH2 0x87 SWAP1 PUSH2 0x301 JUMP JUMPDEST DUP1 PUSH1 0x1F ADD PUSH1 0x20 DUP1 SWAP2 DIV MUL PUSH1 0x20 ADD PUSH1 0x40 MLOAD SWAP1 DUP2 ADD PUSH1 0x40 MSTORE DUP1 SWAP3 SWAP2 SWAP1 DUP2 DUP2 MSTORE PUSH1 0x20 ADD DUP3 DUP1 SLOAD PUSH2 0xB3 SWAP1 PUSH2 0x301 JUMP JUMPDEST DUP1 ISZERO PUSH2 0x100 JUMPI DUP1 PUSH1 0x1F LT PUSH2 0xD5 JUMPI PUSH2 0x100 DUP1 DUP4 SLOAD DIV MUL DUP4 MSTORE SWAP2 PUSH1 0x20 ADD SWAP2 PUSH2 0x100 JUMP JUMPDEST DUP3 ADD SWAP2 SWAP1 PUSH1 0x0 MSTORE PUSH1 0x20 PUSH1 0x0 KECCAK256 SWAP1 JUMPDEST DUP2 SLOAD DUP2 MSTORE SWAP1 PUSH1 0x1 ADD SWAP1 PUSH1 0x20 ADD DUP1 DUP4 GT PUSH2 0xE3 JUMPI DUP3 SWAP1 SUB PUSH1 0x1F AND DUP3 ADD SWAP2 JUMPDEST POP POP POP POP POP SWAP1 DUP1 PUSH1 0x1 ADD SLOAD SWAP1 DUP1 PUSH1 0x2 ADD PUSH1 0x0 SWAP1 SLOAD SWAP1 PUSH2 0x100 EXP SWAP1 DIV PUSH20 0xFFFFFFFFFFFFFFFFFFFFFFFFFFFFFFFFFFFFFFFF AND SWAP1 DUP1 PUSH1 0x2 ADD PUSH1 0x14 SWAP1 SLOAD SWAP1 PUSH2 0x100 EXP SWAP1 DIV PUSH1 0xFF AND SWAP1 DUP1 PUSH1 0x3 ADD SLOAD SWAP1 POP DUP6 JUMP JUMPDEST PUSH1 0x0 DUP2 CALLDATALOAD SWAP1 POP PUSH2 0x15E DUP2 PUSH2 0x3BB JUMP JUMPDEST SWAP3 SWAP2 POP POP JUMP JUMPDEST PUSH1 0x0 PUSH1 0x20 DUP3 DUP5 SUB SLT ISZERO PUSH2 0x17A JUMPI PUSH2 0x179 PUSH2 0x391 JUMP JUMPDEST JUMPDEST PUSH1 0x0 PUSH2 0x188 DUP5 DUP3 DUP6 ADD PUSH2 0x14F JUMP JUMPDEST SWAP2 POP POP SWAP3 SWAP2 POP POP JUMP JUMPDEST PUSH2 0x19A DUP2 PUSH2 0x26D JUMP JUMPDEST DUP3 MSTORE POP POP JUMP JUMPDEST PUSH2 0x1A9 DUP2 PUSH2 0x2BC JUMP JUMPDEST DUP3 MSTORE POP POP JUMP JUMPDEST PUSH1 0x0 PUSH2 0x1BA DUP3 PUSH2 0x251 JUMP JUMPDEST PUSH2 0x1C4 DUP2 DUP6 PUSH2 0x25C JUMP JUMPDEST SWAP4 POP PUSH2 0x1D4 DUP2 DUP6 PUSH1 0x20 DUP7 ADD PUSH2 0x2CE JUMP JUMPDEST PUSH2 0x1DD DUP2 PUSH2 0x396 JUMP JUMPDEST DUP5 ADD SWAP2 POP POP SWAP3 SWAP2 POP POP JUMP JUMPDEST PUSH2 0x1F1 DUP2 PUSH2 0x2B2 JUMP JUMPDEST DUP3 MSTORE POP POP JUMP JUMPDEST PUSH1 0x0 PUSH1 0xA0 DUP3 ADD SWAP1 POP DUP2 DUP2 SUB PUSH1 0x0 DUP4 ADD MSTORE PUSH2 0x211 DUP2 DUP9 PUSH2 0x1AF JUMP JUMPDEST SWAP1 POP PUSH2 0x220 PUSH1 0x20 DUP4 ADD DUP8 PUSH2 0x1E8 JUMP JUMPDEST PUSH2 0x22D PUSH1 0x40 DUP4 ADD DUP7 PUSH2 0x191 JUMP JUMPDEST PUSH2 0x23A PUSH1 0x60 DUP4 ADD DUP6 PUSH2 0x1A0 JUMP JUMPDEST PUSH2 0x247 PUSH1 0x80 DUP4 ADD DUP5 PUSH2 0x1E8 JUMP JUMPDEST SWAP7 SWAP6 POP POP POP POP POP POP JUMP JUMPDEST PUSH1 0x0 DUP2 MLOAD SWAP1 POP SWAP2 SWAP1 POP JUMP JUMPDEST PUSH1 0x0 DUP3 DUP3 MSTORE PUSH1 0x20 DUP3 ADD SWAP1 POP SWAP3 SWAP2 POP POP JUMP JUMPDEST PUSH1 0x0 PUSH2 0x278 DUP3 PUSH2 0x292 JUMP JUMPDEST SWAP1 POP SWAP2 SWAP1 POP JUMP JUMPDEST PUSH1 0x0 DUP2 SWAP1 POP PUSH2 0x28D DUP3 PUSH2 0x3A7 JUMP JUMPDEST SWAP2 SWAP1 POP JUMP JUMPDEST PUSH1 0x0 PUSH20 0xFFFFFFFFFFFFFFFFFFFFFFFFFFFFFFFFFFFFFFFF DUP3 AND SWAP1 POP SWAP2 SWAP1 POP JUMP JUMPDEST PUSH1 0x0 DUP2 SWAP1 POP SWAP2 SWAP1 POP JUMP JUMPDEST PUSH1 0x0 PUSH2 0x2C7 DUP3 PUSH2 0x27F JUMP JUMPDEST SWAP1 POP SWAP2 SWAP1 POP JUMP JUMPDEST PUSH1 0x0 JUMPDEST DUP4 DUP2 LT ISZERO PUSH2 0x2EC JUMPI DUP1 DUP3 ADD MLOAD DUP2 DUP5 ADD MSTORE PUSH1 0x20 DUP2 ADD SWAP1 POP PUSH2 0x2D1 JUMP JUMPDEST DUP4 DUP2 GT ISZERO PUSH2 0x2FB JUMPI PUSH1 0x0 DUP5 DUP5 ADD MSTORE JUMPDEST POP POP POP POP JUMP JUMPDEST PUSH1 0x0 PUSH1 0x2 DUP3 DIV SWAP1 POP PUSH1 0x1 DUP3 AND DUP1 PUSH2 0x319 JUMPI PUSH1 0x7F DUP3 AND SWAP2 POP JUMPDEST PUSH1 0x20 DUP3 LT DUP2 EQ ISZERO PUSH2 0x32D JUMPI PUSH2 0x32C PUSH2 0x362 JUMP JUMPDEST JUMPDEST POP SWAP2 SWAP1 POP JUMP JUMPDEST PUSH32 0x4E487B7100000000000000000000000000000000000000000000000000000000 PUSH1 0x0 MSTORE PUSH1 0x21 PUSH1 0x4 MSTORE PUSH1 0x24 PUSH1 0x0 REVERT JUMPDEST PUSH32 0x4E487B7100000000000000000000000000000000000000000000000000000000 PUSH1 0x0 MSTORE PUSH1 0x22 PUSH1 0x4 MSTORE PUSH1 0x24 PUSH1 0x0 REVERT JUMPDEST PUSH1 0x0 DUP1 REVERT JUMPDEST PUSH1 0x0 PUSH1 0x1F NOT PUSH1 0x1F DUP4 ADD AND SWAP1 POP SWAP2 SWAP1 POP JUMP JUMPDEST PUSH1 0x7 DUP2 LT PUSH2 0x3B8 JUMPI PUSH2 0x3B7 PUSH2 0x333 JUMP JUMPDEST JUMPDEST POP JUMP JUMPDEST PUSH2 0x3C4 DUP2 PUSH2 0x2B2 JUMP JUMPDEST DUP2 EQ PUSH2 0x3CF JUMPI PUSH1 0x0 DUP1 REVERT JUMPDEST POP JUMP INVALID LOG2 PUSH5 0x6970667358 0x22 SLT KECCAK256 0xE6 DUP8 0xD3 CALLCODE LOG2 CALLVALUE 0xD2 SWAP1 STOP 0x5D POP PUSH5 0xDDD9D8BDB8 0xBE SSTORE 0x26 0x1E 0xDB SWAP3 0xAA 0x2B 0xBC 0xD6 0xEB RETURNDATACOPY PUSH25 0xBDFC64736F6C63430008070033000000000000000000000000 "
				},
				"gasEstimates": {
					"creation": {
						"codeDepositCost": "206400",
						"executionCost": "5257",
						"totalCost": "211657"
					},
					"external": {
						"Items(uint256)": "infinite"
					}
				},
				"methodIdentifiers": {
					"Items(uint256)": "17b47cc4"
				}
			},
			"userdoc": {
				"kind": "user",
				"methods": {},
				"version": 1
			}
		}
	}
}