{
	"contracts/main.sol": {
		"Supplychain": {
			"abi": [
				{
					"anonymous": false,
					"inputs": [
						{
							"indexed": false,
							"internalType": "uint256",
							"name": "upc",
							"type": "uint256"
						}
					],
					"name": "checked",
					"type": "event"
				},
				{
					"anonymous": false,
					"inputs": [
						{
							"indexed": false,
							"internalType": "uint256",
							"name": "upc",
							"type": "uint256"
						},
						{
							"indexed": false,
							"internalType": "address",
							"name": "_address",
							"type": "address"
						}
					],
					"name": "itemcreated",
					"type": "event"
				},
				{
					"anonymous": false,
					"inputs": [
						{
							"indexed": false,
							"internalType": "uint256",
							"name": "upc",
							"type": "uint256"
						}
					],
					"name": "openForSale",
					"type": "event"
				},
				{
					"anonymous": false,
					"inputs": [
						{
							"indexed": false,
							"internalType": "uint256",
							"name": "upc",
							"type": "uint256"
						},
						{
							"indexed": false,
							"internalType": "address",
							"name": "_address",
							"type": "address"
						}
					],
					"name": "orderPlaced",
					"type": "event"
				},
				{
					"anonymous": false,
					"inputs": [
						{
							"indexed": false,
							"internalType": "uint256",
							"name": "upc",
							"type": "uint256"
						},
						{
							"indexed": false,
							"internalType": "address",
							"name": "_address",
							"type": "address"
						}
					],
					"name": "received",
					"type": "event"
				},
				{
					"anonymous": false,
					"inputs": [
						{
							"indexed": false,
							"internalType": "uint256",
							"name": "upc",
							"type": "uint256"
						},
						{
							"indexed": false,
							"internalType": "address",
							"name": "_address",
							"type": "address"
						}
					],
					"name": "shipped",
					"type": "event"
				},
				{
					"inputs": [
						{
							"internalType": "uint256",
							"name": "",
							"type": "uint256"
						}
					],
					"name": "Items",
					"outputs": [
						{
							"internalType": "string",
							"name": "product_name",
							"type": "string"
						},
						{
							"internalType": "uint256",
							"name": "productId",
							"type": "uint256"
						},
						{
							"internalType": "address",
							"name": "itemOwner",
							"type": "address"
						},
						{
							"internalType": "enum Item.state",
							"name": "productState",
							"type": "uint8"
						},
						{
							"internalType": "uint256",
							"name": "cost",
							"type": "uint256"
						}
					],
					"stateMutability": "view",
					"type": "function"
				},
				{
					"inputs": [
						{
							"internalType": "string",
							"name": "_product_name",
							"type": "string"
						},
						{
							"internalType": "uint256",
							"name": "cost",
							"type": "uint256"
						}
					],
					"name": "addItem",
					"outputs": [],
					"stateMutability": "nonpayable",
					"type": "function"
				},
				{
					"inputs": [
						{
							"internalType": "string",
							"name": "_uname",
							"type": "string"
						}
					],
					"name": "addManufacturer",
					"outputs": [],
					"stateMutability": "nonpayable",
					"type": "function"
				},
				{
					"inputs": [
						{
							"internalType": "string",
							"name": "_uname",
							"type": "string"
						}
					],
					"name": "addSupplier",
					"outputs": [],
					"stateMutability": "nonpayable",
					"type": "function"
				},
				{
					"inputs": [
						{
							"internalType": "string",
							"name": "_uname",
							"type": "string"
						}
					],
					"name": "addtransporter",
					"outputs": [],
					"stateMutability": "nonpayable",
					"type": "function"
				},
				{
					"inputs": [],
					"name": "owner",
					"outputs": [
						{
							"internalType": "address",
							"name": "",
							"type": "address"
						}
					],
					"stateMutability": "view",
					"type": "function"
				},
				{
					"inputs": [
						{
							"internalType": "uint256",
							"name": "",
							"type": "uint256"
						}
					],
					"name": "participants",
					"outputs": [
						{
							"internalType": "string",
							"name": "username",
							"type": "string"
						},
						{
							"internalType": "uint256",
							"name": "userId",
							"type": "uint256"
						},
						{
							"internalType": "enum participant.user_type",
							"name": "utype",
							"type": "uint8"
						},
						{
							"internalType": "address",
							"name": "user_address",
							"type": "address"
						},
						{
							"internalType": "uint256",
							"name": "money",
							"type": "uint256"
						}
					],
					"stateMutability": "view",
					"type": "function"
				}
			],
			"devdoc": {
				"kind": "dev",
				"methods": {},
				"version": 1
			},
			"evm": {
				"assembly": "    /* \"contracts/main.sol\":103:2147  contract Supplychain is  Modifier{\r... */\n  mstore(0x40, 0x80)\n    /* \"contracts/item.sol\":54:55  0 */\n  0x00\n    /* \"contracts/item.sol\":46:55  uint ic=0 */\n  dup1\n  sstore\n    /* \"contracts/member.sol\":62:63  0 */\n  0x00\n    /* \"contracts/member.sol\":54:63  uint pc=0 */\n  0x02\n  sstore\n    /* \"contracts/main.sol\":103:2147  contract Supplychain is  Modifier{\r... */\n  callvalue\n  dup1\n  iszero\n  tag_1\n  jumpi\n  0x00\n  dup1\n  revert\ntag_1:\n  pop\n    /* \"contracts/modifier.sol\":189:199  msg.sender */\n  caller\n    /* \"contracts/modifier.sol\":181:186  owner */\n  0x05\n  0x00\n    /* \"contracts/modifier.sol\":181:199  owner = msg.sender */\n  0x0100\n  exp\n  dup2\n  sload\n  dup2\n  0xffffffffffffffffffffffffffffffffffffffff\n  mul\n  not\n  and\n  swap1\n  dup4\n  0xffffffffffffffffffffffffffffffffffffffff\n  and\n  mul\n  or\n  swap1\n  sstore\n  pop\n    /* \"contracts/main.sol\":103:2147  contract Supplychain is  Modifier{\r... */\n  dataSize(sub_0)\n  dup1\n  dataOffset(sub_0)\n  0x00\n  codecopy\n  0x00\n  return\nstop\n\nsub_0: assembly {\n        /* \"contracts/main.sol\":103:2147  contract Supplychain is  Modifier{\r... */\n      mstore(0x40, 0x80)\n      callvalue\n      dup1\n      iszero\n      tag_1\n      jumpi\n      0x00\n      dup1\n      revert\n    tag_1:\n      pop\n      jumpi(tag_2, lt(calldatasize, 0x04))\n      shr(0xe0, calldataload(0x00))\n      dup1\n      0x35c1d349\n      gt\n      tag_10\n      jumpi\n      dup1\n      0x35c1d349\n      eq\n      tag_6\n      jumpi\n      dup1\n      0x62d6bbdf\n      eq\n      tag_7\n      jumpi\n      dup1\n      0x8da5cb5b\n      eq\n      tag_8\n      jumpi\n      dup1\n      0x8f5ae799\n      eq\n      tag_9\n      jumpi\n      jump(tag_2)\n    tag_10:\n      dup1\n      0x15533a27\n      eq\n      tag_3\n      jumpi\n      dup1\n      0x17b47cc4\n      eq\n      tag_4\n      jumpi\n      dup1\n      0x2fa5ad1a\n      eq\n      tag_5\n      jumpi\n    tag_2:\n      0x00\n      dup1\n      revert\n        /* \"contracts/main.sol\":414:836  function addSupplier(string memory _uname) public{\r... */\n    tag_3:\n      tag_11\n      0x04\n      dup1\n      calldatasize\n      sub\n      dup2\n      add\n      swap1\n      tag_12\n      swap2\n      swap1\n      tag_13\n      jump\t// in\n    tag_12:\n      tag_14\n      jump\t// in\n    tag_11:\n      stop\n        /* \"contracts/item.sol\":389:421  mapping(uint=>item) public Items */\n    tag_4:\n      tag_15\n      0x04\n      dup1\n      calldatasize\n      sub\n      dup2\n      add\n      swap1\n      tag_16\n      swap2\n      swap1\n      tag_17\n      jump\t// in\n    tag_16:\n      tag_18\n      jump\t// in\n    tag_15:\n      mload(0x40)\n      tag_19\n      swap6\n      swap5\n      swap4\n      swap3\n      swap2\n      swap1\n      tag_20\n      jump\t// in\n    tag_19:\n      mload(0x40)\n      dup1\n      swap2\n      sub\n      swap1\n      return\n        /* \"contracts/main.sol\":841:1280  function addtransporter(string memory _uname) public {\r... */\n    tag_5:\n      tag_21\n      0x04\n      dup1\n      calldatasize\n      sub\n      dup2\n      add\n      swap1\n      tag_22\n      swap2\n      swap1\n      tag_13\n      jump\t// in\n    tag_22:\n      tag_23\n      jump\t// in\n    tag_21:\n      stop\n        /* \"contracts/member.sol\":347:393  mapping(uint=>participant) public participants */\n    tag_6:\n      tag_24\n      0x04\n      dup1\n      calldatasize\n      sub\n      dup2\n      add\n      swap1\n      tag_25\n      swap2\n      swap1\n      tag_17\n      jump\t// in\n    tag_25:\n      tag_26\n      jump\t// in\n    tag_24:\n      mload(0x40)\n      tag_27\n      swap6\n      swap5\n      swap4\n      swap3\n      swap2\n      swap1\n      tag_28\n      jump\t// in\n    tag_27:\n      mload(0x40)\n      dup1\n      swap2\n      sub\n      swap1\n      return\n        /* \"contracts/main.sol\":1733:2140  function addItem(string memory _product_name , uint cost) public onlyDistributor(msg.sender)\r... */\n    tag_7:\n      tag_29\n      0x04\n      dup1\n      calldatasize\n      sub\n      dup2\n      add\n      swap1\n      tag_30\n      swap2\n      swap1\n      tag_31\n      jump\t// in\n    tag_30:\n      tag_32\n      jump\t// in\n    tag_29:\n      stop\n        /* \"contracts/modifier.sol\":121:141  address public owner */\n    tag_8:\n      tag_33\n      tag_34\n      jump\t// in\n    tag_33:\n      mload(0x40)\n      tag_35\n      swap2\n      swap1\n      tag_36\n      jump\t// in\n    tag_35:\n      mload(0x40)\n      dup1\n      swap2\n      sub\n      swap1\n      return\n        /* \"contracts/main.sol\":1286:1727  function addManufacturer(string memory _uname) public {\r... */\n    tag_9:\n      tag_37\n      0x04\n      dup1\n      calldatasize\n      sub\n      dup2\n      add\n      swap1\n      tag_38\n      swap2\n      swap1\n      tag_13\n      jump\t// in\n    tag_38:\n      tag_39\n      jump\t// in\n    tag_37:\n      stop\n        /* \"contracts/main.sol\":414:836  function addSupplier(string memory _uname) public{\r... */\n    tag_14:\n        /* \"contracts/main.sol\":473:507  participant memory  newParticipant */\n      tag_41\n      tag_42\n      jump\t// in\n    tag_41:\n        /* \"contracts/main.sol\":542:548  _uname */\n      dup2\n        /* \"contracts/main.sol\":517:531  newParticipant */\n      dup2\n        /* \"contracts/main.sol\":517:540  newParticipant.username */\n      0x00\n      add\n        /* \"contracts/main.sol\":517:548  newParticipant.username =_uname */\n      dup2\n      swap1\n      mstore\n      pop\n        /* \"contracts/main.sol\":582:584  pc */\n      sload(0x02)\n        /* \"contracts/main.sol\":558:572  newParticipant */\n      dup2\n        /* \"contracts/main.sol\":558:579  newParticipant.userId */\n      0x20\n      add\n        /* \"contracts/main.sol\":558:584  newParticipant.userId = pc */\n      dup2\n      dup2\n      mstore\n      pop\n      pop\n        /* \"contracts/main.sol\":617:635  user_type.supplier */\n      0x00\n        /* \"contracts/main.sol\":594:608  newParticipant */\n      dup2\n        /* \"contracts/main.sol\":594:614  newParticipant.utype */\n      0x40\n      add\n        /* \"contracts/main.sol\":594:635  newParticipant.utype = user_type.supplier */\n      swap1\n      0x03\n      dup2\n      gt\n      iszero\n      tag_43\n      jumpi\n      mstore(0x00, 0x4e487b7100000000000000000000000000000000000000000000000000000000)\n      mstore(0x04, 0x21)\n      revert(0x00, 0x24)\n    tag_43:\n      swap1\n      dup2\n      0x03\n      dup2\n      gt\n      iszero\n      tag_44\n      jumpi\n      mstore(0x00, 0x4e487b7100000000000000000000000000000000000000000000000000000000)\n      mstore(0x04, 0x21)\n      revert(0x00, 0x24)\n    tag_44:\n      dup2\n      mstore\n      pop\n      pop\n        /* \"contracts/main.sol\":674:684  msg.sender */\n      caller\n        /* \"contracts/main.sol\":645:659  newParticipant */\n      dup2\n        /* \"contracts/main.sol\":645:672  newParticipant.user_address */\n      0x60\n      add\n        /* \"contracts/main.sol\":645:684  newParticipant.user_address =msg.sender */\n      swap1\n      0xffffffffffffffffffffffffffffffffffffffff\n      and\n      swap1\n      dup2\n      0xffffffffffffffffffffffffffffffffffffffff\n      and\n      dup2\n      mstore\n      pop\n      pop\n        /* \"contracts/main.sol\":717:718  0 */\n      0x00\n        /* \"contracts/main.sol\":694:708  newParticipant */\n      dup2\n        /* \"contracts/main.sol\":694:714  newParticipant.money */\n      0x80\n      add\n        /* \"contracts/main.sol\":694:718  newParticipant.money = 0 */\n      dup2\n      dup2\n      mstore\n      pop\n      pop\n        /* \"contracts/main.sol\":745:759  newParticipant */\n      dup1\n        /* \"contracts/main.sol\":728:740  participants */\n      0x03\n        /* \"contracts/main.sol\":728:744  participants[pc] */\n      0x00\n        /* \"contracts/main.sol\":741:743  pc */\n      sload(0x02)\n        /* \"contracts/main.sol\":728:744  participants[pc] */\n      dup2\n      mstore\n      0x20\n      add\n      swap1\n      dup2\n      mstore\n      0x20\n      add\n      0x00\n      keccak256\n        /* \"contracts/main.sol\":728:759  participants[pc]=newParticipant */\n      0x00\n      dup3\n      add\n      mload\n      dup2\n      0x00\n      add\n      swap1\n      dup1\n      mload\n      swap1\n      0x20\n      add\n      swap1\n      tag_45\n      swap3\n      swap2\n      swap1\n      tag_46\n      jump\t// in\n    tag_45:\n      pop\n      0x20\n      dup3\n      add\n      mload\n      dup2\n      0x01\n      add\n      sstore\n      0x40\n      dup3\n      add\n      mload\n      dup2\n      0x02\n      add\n      exp(0x0100, 0x00)\n      dup2\n      sload\n      dup2\n      0xff\n      mul\n      not\n      and\n      swap1\n      dup4\n      0x03\n      dup2\n      gt\n      iszero\n      tag_47\n      jumpi\n      mstore(0x00, 0x4e487b7100000000000000000000000000000000000000000000000000000000)\n      mstore(0x04, 0x21)\n      revert(0x00, 0x24)\n    tag_47:\n      mul\n      or\n      swap1\n      sstore\n      pop\n      0x60\n      dup3\n      add\n      mload\n      dup2\n      0x02\n      add\n      exp(0x0100, 0x01)\n      dup2\n      sload\n      dup2\n      0xffffffffffffffffffffffffffffffffffffffff\n      mul\n      not\n      and\n      swap1\n      dup4\n      0xffffffffffffffffffffffffffffffffffffffff\n      and\n      mul\n      or\n      swap1\n      sstore\n      pop\n      0x80\n      dup3\n      add\n      mload\n      dup2\n      0x03\n      add\n      sstore\n      swap1\n      pop\n      pop\n        /* \"contracts/main.sol\":796:810  newParticipant */\n      dup1\n        /* \"contracts/main.sol\":769:783  participantsId */\n      0x04\n        /* \"contracts/main.sol\":769:795  participantsId[msg.sender] */\n      0x00\n        /* \"contracts/main.sol\":784:794  msg.sender */\n      caller\n        /* \"contracts/main.sol\":769:795  participantsId[msg.sender] */\n      0xffffffffffffffffffffffffffffffffffffffff\n      and\n      0xffffffffffffffffffffffffffffffffffffffff\n      and\n      dup2\n      mstore\n      0x20\n      add\n      swap1\n      dup2\n      mstore\n      0x20\n      add\n      0x00\n      keccak256\n        /* \"contracts/main.sol\":769:810  participantsId[msg.sender]=newParticipant */\n      0x00\n      dup3\n      add\n      mload\n      dup2\n      0x00\n      add\n      swap1\n      dup1\n      mload\n      swap1\n      0x20\n      add\n      swap1\n      tag_48\n      swap3\n      swap2\n      swap1\n      tag_46\n      jump\t// in\n    tag_48:\n      pop\n      0x20\n      dup3\n      add\n      mload\n      dup2\n      0x01\n      add\n      sstore\n      0x40\n      dup3\n      add\n      mload\n      dup2\n      0x02\n      add\n      exp(0x0100, 0x00)\n      dup2\n      sload\n      dup2\n      0xff\n      mul\n      not\n      and\n      swap1\n      dup4\n      0x03\n      dup2\n      gt\n      iszero\n      tag_49\n      jumpi\n      mstore(0x00, 0x4e487b7100000000000000000000000000000000000000000000000000000000)\n      mstore(0x04, 0x21)\n      revert(0x00, 0x24)\n    tag_49:\n      mul\n      or\n      swap1\n      sstore\n      pop\n      0x60\n      dup3\n      add\n      mload\n      dup2\n      0x02\n      add\n      exp(0x0100, 0x01)\n      dup2\n      sload\n      dup2\n      0xffffffffffffffffffffffffffffffffffffffff\n      mul\n      not\n      and\n      swap1\n      dup4\n      0xffffffffffffffffffffffffffffffffffffffff\n      and\n      mul\n      or\n      swap1\n      sstore\n      pop\n      0x80\n      dup3\n      add\n      mload\n      dup2\n      0x03\n      add\n      sstore\n      swap1\n      pop\n      pop\n        /* \"contracts/main.sol\":826:827  1 */\n      0x01\n        /* \"contracts/main.sol\":823:825  pc */\n      sload(0x02)\n        /* \"contracts/main.sol\":823:827  pc+1 */\n      tag_50\n      swap2\n      swap1\n      tag_51\n      jump\t// in\n    tag_50:\n        /* \"contracts/main.sol\":820:822  pc */\n      0x02\n        /* \"contracts/main.sol\":820:827  pc=pc+1 */\n      dup2\n      swap1\n      sstore\n      pop\n        /* \"contracts/main.sol\":414:836  function addSupplier(string memory _uname) public{\r... */\n      pop\n      pop\n      jump\t// out\n        /* \"contracts/item.sol\":389:421  mapping(uint=>item) public Items */\n    tag_18:\n      mstore(0x20, 0x01)\n      dup1\n      0x00\n      mstore\n      keccak256(0x00, 0x40)\n      0x00\n      swap2\n      pop\n      swap1\n      pop\n      dup1\n      0x00\n      add\n      dup1\n      sload\n      tag_52\n      swap1\n      tag_53\n      jump\t// in\n    tag_52:\n      dup1\n      0x1f\n      add\n      0x20\n      dup1\n      swap2\n      div\n      mul\n      0x20\n      add\n      mload(0x40)\n      swap1\n      dup2\n      add\n      0x40\n      mstore\n      dup1\n      swap3\n      swap2\n      swap1\n      dup2\n      dup2\n      mstore\n      0x20\n      add\n      dup3\n      dup1\n      sload\n      tag_54\n      swap1\n      tag_53\n      jump\t// in\n    tag_54:\n      dup1\n      iszero\n      tag_55\n      jumpi\n      dup1\n      0x1f\n      lt\n      tag_56\n      jumpi\n      0x0100\n      dup1\n      dup4\n      sload\n      div\n      mul\n      dup4\n      mstore\n      swap2\n      0x20\n      add\n      swap2\n      jump(tag_55)\n    tag_56:\n      dup3\n      add\n      swap2\n      swap1\n      0x00\n      mstore\n      keccak256(0x00, 0x20)\n      swap1\n    tag_57:\n      dup2\n      sload\n      dup2\n      mstore\n      swap1\n      0x01\n      add\n      swap1\n      0x20\n      add\n      dup1\n      dup4\n      gt\n      tag_57\n      jumpi\n      dup3\n      swap1\n      sub\n      0x1f\n      and\n      dup3\n      add\n      swap2\n    tag_55:\n      pop\n      pop\n      pop\n      pop\n      pop\n      swap1\n      dup1\n      0x01\n      add\n      sload\n      swap1\n      dup1\n      0x02\n      add\n      0x00\n      swap1\n      sload\n      swap1\n      0x0100\n      exp\n      swap1\n      div\n      0xffffffffffffffffffffffffffffffffffffffff\n      and\n      swap1\n      dup1\n      0x02\n      add\n      0x14\n      swap1\n      sload\n      swap1\n      0x0100\n      exp\n      swap1\n      div\n      0xff\n      and\n      swap1\n      dup1\n      0x03\n      add\n      sload\n      swap1\n      pop\n      dup6\n      jump\t// out\n        /* \"contracts/main.sol\":841:1280  function addtransporter(string memory _uname) public {\r... */\n    tag_23:\n        /* \"contracts/main.sol\":905:938  participant memory newParticipant */\n      tag_59\n      tag_42\n      jump\t// in\n    tag_59:\n        /* \"contracts/main.sol\":975:981  _uname */\n      dup2\n        /* \"contracts/main.sol\":950:964  newParticipant */\n      dup2\n        /* \"contracts/main.sol\":950:973  newParticipant.username */\n      0x00\n      add\n        /* \"contracts/main.sol\":950:981  newParticipant.username =_uname */\n      dup2\n      swap1\n      mstore\n      pop\n        /* \"contracts/main.sol\":1016:1018  pc */\n      sload(0x02)\n        /* \"contracts/main.sol\":992:1006  newParticipant */\n      dup2\n        /* \"contracts/main.sol\":992:1013  newParticipant.userId */\n      0x20\n      add\n        /* \"contracts/main.sol\":992:1018  newParticipant.userId = pc */\n      dup2\n      dup2\n      mstore\n      pop\n      pop\n        /* \"contracts/main.sol\":1052:1053  0 */\n      0x00\n        /* \"contracts/main.sol\":1029:1043  newParticipant */\n      dup2\n        /* \"contracts/main.sol\":1029:1049  newParticipant.money */\n      0x80\n      add\n        /* \"contracts/main.sol\":1029:1053  newParticipant.money = 0 */\n      dup2\n      dup2\n      mstore\n      pop\n      pop\n        /* \"contracts/main.sol\":1086:1107  user_type.transporter */\n      0x01\n        /* \"contracts/main.sol\":1064:1078  newParticipant */\n      dup2\n        /* \"contracts/main.sol\":1064:1084  newParticipant.utype */\n      0x40\n      add\n        /* \"contracts/main.sol\":1064:1107  newParticipant.utype= user_type.transporter */\n      swap1\n      0x03\n      dup2\n      gt\n      iszero\n      tag_60\n      jumpi\n      mstore(0x00, 0x4e487b7100000000000000000000000000000000000000000000000000000000)\n      mstore(0x04, 0x21)\n      revert(0x00, 0x24)\n    tag_60:\n      swap1\n      dup2\n      0x03\n      dup2\n      gt\n      iszero\n      tag_61\n      jumpi\n      mstore(0x00, 0x4e487b7100000000000000000000000000000000000000000000000000000000)\n      mstore(0x04, 0x21)\n      revert(0x00, 0x24)\n    tag_61:\n      dup2\n      mstore\n      pop\n      pop\n        /* \"contracts/main.sol\":1148:1158  msg.sender */\n      caller\n        /* \"contracts/main.sol\":1118:1132  newParticipant */\n      dup2\n        /* \"contracts/main.sol\":1118:1145  newParticipant.user_address */\n      0x60\n      add\n        /* \"contracts/main.sol\":1118:1158  newParticipant.user_address = msg.sender */\n      swap1\n      0xffffffffffffffffffffffffffffffffffffffff\n      and\n      swap1\n      dup2\n      0xffffffffffffffffffffffffffffffffffffffff\n      and\n      dup2\n      mstore\n      pop\n      pop\n        /* \"contracts/main.sol\":1186:1200  newParticipant */\n      dup1\n        /* \"contracts/main.sol\":1169:1181  participants */\n      0x03\n        /* \"contracts/main.sol\":1169:1185  participants[pc] */\n      0x00\n        /* \"contracts/main.sol\":1182:1184  pc */\n      sload(0x02)\n        /* \"contracts/main.sol\":1169:1185  participants[pc] */\n      dup2\n      mstore\n      0x20\n      add\n      swap1\n      dup2\n      mstore\n      0x20\n      add\n      0x00\n      keccak256\n        /* \"contracts/main.sol\":1169:1200  participants[pc]=newParticipant */\n      0x00\n      dup3\n      add\n      mload\n      dup2\n      0x00\n      add\n      swap1\n      dup1\n      mload\n      swap1\n      0x20\n      add\n      swap1\n      tag_62\n      swap3\n      swap2\n      swap1\n      tag_46\n      jump\t// in\n    tag_62:\n      pop\n      0x20\n      dup3\n      add\n      mload\n      dup2\n      0x01\n      add\n      sstore\n      0x40\n      dup3\n      add\n      mload\n      dup2\n      0x02\n      add\n      exp(0x0100, 0x00)\n      dup2\n      sload\n      dup2\n      0xff\n      mul\n      not\n      and\n      swap1\n      dup4\n      0x03\n      dup2\n      gt\n      iszero\n      tag_63\n      jumpi\n      mstore(0x00, 0x4e487b7100000000000000000000000000000000000000000000000000000000)\n      mstore(0x04, 0x21)\n      revert(0x00, 0x24)\n    tag_63:\n      mul\n      or\n      swap1\n      sstore\n      pop\n      0x60\n      dup3\n      add\n      mload\n      dup2\n      0x02\n      add\n      exp(0x0100, 0x01)\n      dup2\n      sload\n      dup2\n      0xffffffffffffffffffffffffffffffffffffffff\n      mul\n      not\n      and\n      swap1\n      dup4\n      0xffffffffffffffffffffffffffffffffffffffff\n      and\n      mul\n      or\n      swap1\n      sstore\n      pop\n      0x80\n      dup3\n      add\n      mload\n      dup2\n      0x03\n      add\n      sstore\n      swap1\n      pop\n      pop\n        /* \"contracts/main.sol\":1238:1252  newParticipant */\n      dup1\n        /* \"contracts/main.sol\":1211:1225  participantsId */\n      0x04\n        /* \"contracts/main.sol\":1211:1237  participantsId[msg.sender] */\n      0x00\n        /* \"contracts/main.sol\":1226:1236  msg.sender */\n      caller\n        /* \"contracts/main.sol\":1211:1237  participantsId[msg.sender] */\n      0xffffffffffffffffffffffffffffffffffffffff\n      and\n      0xffffffffffffffffffffffffffffffffffffffff\n      and\n      dup2\n      mstore\n      0x20\n      add\n      swap1\n      dup2\n      mstore\n      0x20\n      add\n      0x00\n      keccak256\n        /* \"contracts/main.sol\":1211:1252  participantsId[msg.sender]=newParticipant */\n      0x00\n      dup3\n      add\n      mload\n      dup2\n      0x00\n      add\n      swap1\n      dup1\n      mload\n      swap1\n      0x20\n      add\n      swap1\n      tag_64\n      swap3\n      swap2\n      swap1\n      tag_46\n      jump\t// in\n    tag_64:\n      pop\n      0x20\n      dup3\n      add\n      mload\n      dup2\n      0x01\n      add\n      sstore\n      0x40\n      dup3\n      add\n      mload\n      dup2\n      0x02\n      add\n      exp(0x0100, 0x00)\n      dup2\n      sload\n      dup2\n      0xff\n      mul\n      not\n      and\n      swap1\n      dup4\n      0x03\n      dup2\n      gt\n      iszero\n      tag_65\n      jumpi\n      mstore(0x00, 0x4e487b7100000000000000000000000000000000000000000000000000000000)\n      mstore(0x04, 0x21)\n      revert(0x00, 0x24)\n    tag_65:\n      mul\n      or\n      swap1\n      sstore\n      pop\n      0x60\n      dup3\n      add\n      mload\n      dup2\n      0x02\n      add\n      exp(0x0100, 0x01)\n      dup2\n      sload\n      dup2\n      0xffffffffffffffffffffffffffffffffffffffff\n      mul\n      not\n      and\n      swap1\n      dup4\n      0xffffffffffffffffffffffffffffffffffffffff\n      and\n      mul\n      or\n      swap1\n      sstore\n      pop\n      0x80\n      dup3\n      add\n      mload\n      dup2\n      0x03\n      add\n      sstore\n      swap1\n      pop\n      pop\n        /* \"contracts/main.sol\":1269:1270  1 */\n      0x01\n        /* \"contracts/main.sol\":1266:1268  pc */\n      sload(0x02)\n        /* \"contracts/main.sol\":1266:1270  pc+1 */\n      tag_66\n      swap2\n      swap1\n      tag_51\n      jump\t// in\n    tag_66:\n        /* \"contracts/main.sol\":1263:1265  pc */\n      0x02\n        /* \"contracts/main.sol\":1263:1270  pc=pc+1 */\n      dup2\n      swap1\n      sstore\n      pop\n        /* \"contracts/main.sol\":841:1280  function addtransporter(string memory _uname) public {\r... */\n      pop\n      pop\n      jump\t// out\n        /* \"contracts/member.sol\":347:393  mapping(uint=>participant) public participants */\n    tag_26:\n      mstore(0x20, 0x03)\n      dup1\n      0x00\n      mstore\n      keccak256(0x00, 0x40)\n      0x00\n      swap2\n      pop\n      swap1\n      pop\n      dup1\n      0x00\n      add\n      dup1\n      sload\n      tag_67\n      swap1\n      tag_53\n      jump\t// in\n    tag_67:\n      dup1\n      0x1f\n      add\n      0x20\n      dup1\n      swap2\n      div\n      mul\n      0x20\n      add\n      mload(0x40)\n      swap1\n      dup2\n      add\n      0x40\n      mstore\n      dup1\n      swap3\n      swap2\n      swap1\n      dup2\n      dup2\n      mstore\n      0x20\n      add\n      dup3\n      dup1\n      sload\n      tag_68\n      swap1\n      tag_53\n      jump\t// in\n    tag_68:\n      dup1\n      iszero\n      tag_69\n      jumpi\n      dup1\n      0x1f\n      lt\n      tag_70\n      jumpi\n      0x0100\n      dup1\n      dup4\n      sload\n      div\n      mul\n      dup4\n      mstore\n      swap2\n      0x20\n      add\n      swap2\n      jump(tag_69)\n    tag_70:\n      dup3\n      add\n      swap2\n      swap1\n      0x00\n      mstore\n      keccak256(0x00, 0x20)\n      swap1\n    tag_71:\n      dup2\n      sload\n      dup2\n      mstore\n      swap1\n      0x01\n      add\n      swap1\n      0x20\n      add\n      dup1\n      dup4\n      gt\n      tag_71\n      jumpi\n      dup3\n      swap1\n      sub\n      0x1f\n      and\n      dup3\n      add\n      swap2\n    tag_69:\n      pop\n      pop\n      pop\n      pop\n      pop\n      swap1\n      dup1\n      0x01\n      add\n      sload\n      swap1\n      dup1\n      0x02\n      add\n      0x00\n      swap1\n      sload\n      swap1\n      0x0100\n      exp\n      swap1\n      div\n      0xff\n      and\n      swap1\n      dup1\n      0x02\n      add\n      0x01\n      swap1\n      sload\n      swap1\n      0x0100\n      exp\n      swap1\n      div\n      0xffffffffffffffffffffffffffffffffffffffff\n      and\n      swap1\n      dup1\n      0x03\n      add\n      sload\n      swap1\n      pop\n      dup6\n      jump\t// out\n        /* \"contracts/main.sol\":1733:2140  function addItem(string memory _product_name , uint cost) public onlyDistributor(msg.sender)\r... */\n    tag_32:\n        /* \"contracts/main.sol\":1814:1824  msg.sender */\n      caller\n        /* \"contracts/modifier.sol\":416:434  user_type.supplier */\n      0x00\n        /* \"contracts/modifier.sol\":382:434  participantsId[_address].utype == user_type.supplier */\n      0x03\n      dup2\n      gt\n      iszero\n      tag_73\n      jumpi\n      mstore(0x00, 0x4e487b7100000000000000000000000000000000000000000000000000000000)\n      mstore(0x04, 0x21)\n      revert(0x00, 0x24)\n    tag_73:\n        /* \"contracts/modifier.sol\":382:396  participantsId */\n      0x04\n        /* \"contracts/modifier.sol\":382:406  participantsId[_address] */\n      0x00\n        /* \"contracts/modifier.sol\":397:405  _address */\n      dup4\n        /* \"contracts/modifier.sol\":382:406  participantsId[_address] */\n      0xffffffffffffffffffffffffffffffffffffffff\n      and\n      0xffffffffffffffffffffffffffffffffffffffff\n      and\n      dup2\n      mstore\n      0x20\n      add\n      swap1\n      dup2\n      mstore\n      0x20\n      add\n      0x00\n      keccak256\n        /* \"contracts/modifier.sol\":382:412  participantsId[_address].utype */\n      0x02\n      add\n      0x00\n      swap1\n      sload\n      swap1\n      0x0100\n      exp\n      swap1\n      div\n      0xff\n      and\n        /* \"contracts/modifier.sol\":382:434  participantsId[_address].utype == user_type.supplier */\n      0x03\n      dup2\n      gt\n      iszero\n      tag_74\n      jumpi\n      mstore(0x00, 0x4e487b7100000000000000000000000000000000000000000000000000000000)\n      mstore(0x04, 0x21)\n      revert(0x00, 0x24)\n    tag_74:\n      eq\n        /* \"contracts/modifier.sol\":374:465  require(participantsId[_address].utype == user_type.supplier ,\"you cannot add new product\") */\n      tag_75\n      jumpi\n      mload(0x40)\n      0x08c379a000000000000000000000000000000000000000000000000000000000\n      dup2\n      mstore\n      0x04\n      add\n      tag_76\n      swap1\n      tag_77\n      jump\t// in\n    tag_76:\n      mload(0x40)\n      dup1\n      swap2\n      sub\n      swap1\n      revert\n    tag_75:\n        /* \"contracts/main.sol\":1842:1861  item memory newItem */\n      tag_79\n      tag_80\n      jump\t// in\n    tag_79:\n        /* \"contracts/main.sol\":1894:1907  _product_name */\n      dup4\n        /* \"contracts/main.sol\":1872:1879  newItem */\n      dup2\n        /* \"contracts/main.sol\":1872:1892  newItem.product_name */\n      0x00\n      add\n        /* \"contracts/main.sol\":1872:1907  newItem.product_name =_product_name */\n      dup2\n      swap1\n      mstore\n      pop\n        /* \"contracts/main.sol\":1938:1940  ic */\n      sload(0x00)\n        /* \"contracts/main.sol\":1918:1925  newItem */\n      dup2\n        /* \"contracts/main.sol\":1918:1935  newItem.productId */\n      0x20\n      add\n        /* \"contracts/main.sol\":1918:1940  newItem.productId = ic */\n      dup2\n      dup2\n      mstore\n      pop\n      pop\n        /* \"contracts/main.sol\":1971:1981  msg.sender */\n      caller\n        /* \"contracts/main.sol\":1951:1958  newItem */\n      dup2\n        /* \"contracts/main.sol\":1951:1968  newItem.itemOwner */\n      0x40\n      add\n        /* \"contracts/main.sol\":1951:1981  newItem.itemOwner = msg.sender */\n      swap1\n      0xffffffffffffffffffffffffffffffffffffffff\n      and\n      swap1\n      dup2\n      0xffffffffffffffffffffffffffffffffffffffff\n      and\n      dup2\n      mstore\n      pop\n      pop\n        /* \"contracts/main.sol\":2015:2031  state.AtSupplier */\n      0x00\n        /* \"contracts/main.sol\":1992:1999  newItem */\n      dup2\n        /* \"contracts/main.sol\":1992:2012  newItem.productState */\n      0x60\n      add\n        /* \"contracts/main.sol\":1992:2031  newItem.productState = state.AtSupplier */\n      swap1\n      0x06\n      dup2\n      gt\n      iszero\n      tag_81\n      jumpi\n      mstore(0x00, 0x4e487b7100000000000000000000000000000000000000000000000000000000)\n      mstore(0x04, 0x21)\n      revert(0x00, 0x24)\n    tag_81:\n      swap1\n      dup2\n      0x06\n      dup2\n      gt\n      iszero\n      tag_82\n      jumpi\n      mstore(0x00, 0x4e487b7100000000000000000000000000000000000000000000000000000000)\n      mstore(0x04, 0x21)\n      revert(0x00, 0x24)\n    tag_82:\n      dup2\n      mstore\n      pop\n      pop\n        /* \"contracts/main.sol\":2062:2069  newItem */\n      dup1\n        /* \"contracts/main.sol\":2052:2057  Items */\n      0x01\n        /* \"contracts/main.sol\":2052:2061  Items[ic] */\n      0x00\n        /* \"contracts/main.sol\":2058:2060  ic */\n      dup1\n      sload\n        /* \"contracts/main.sol\":2052:2061  Items[ic] */\n      dup2\n      mstore\n      0x20\n      add\n      swap1\n      dup2\n      mstore\n      0x20\n      add\n      0x00\n      keccak256\n        /* \"contracts/main.sol\":2052:2069  Items[ic]=newItem */\n      0x00\n      dup3\n      add\n      mload\n      dup2\n      0x00\n      add\n      swap1\n      dup1\n      mload\n      swap1\n      0x20\n      add\n      swap1\n      tag_83\n      swap3\n      swap2\n      swap1\n      tag_46\n      jump\t// in\n    tag_83:\n      pop\n      0x20\n      dup3\n      add\n      mload\n      dup2\n      0x01\n      add\n      sstore\n      0x40\n      dup3\n      add\n      mload\n      dup2\n      0x02\n      add\n      exp(0x0100, 0x00)\n      dup2\n      sload\n      dup2\n      0xffffffffffffffffffffffffffffffffffffffff\n      mul\n      not\n      and\n      swap1\n      dup4\n      0xffffffffffffffffffffffffffffffffffffffff\n      and\n      mul\n      or\n      swap1\n      sstore\n      pop\n      0x60\n      dup3\n      add\n      mload\n      dup2\n      0x02\n      add\n      exp(0x0100, 0x14)\n      dup2\n      sload\n      dup2\n      0xff\n      mul\n      not\n      and\n      swap1\n      dup4\n      0x06\n      dup2\n      gt\n      iszero\n      tag_84\n      jumpi\n      mstore(0x00, 0x4e487b7100000000000000000000000000000000000000000000000000000000)\n      mstore(0x04, 0x21)\n      revert(0x00, 0x24)\n    tag_84:\n      mul\n      or\n      swap1\n      sstore\n      pop\n      0x80\n      dup3\n      add\n      mload\n      dup2\n      0x03\n      add\n      sstore\n      swap1\n      pop\n      pop\n        /* \"contracts/main.sol\":2085:2112  itemcreated(ic ,msg.sender) */\n      0x4e95503bf2c40739506d6f0afb0fe6be42ce748d90f3f516386892fb6096e5bc\n        /* \"contracts/main.sol\":2097:2099  ic */\n      sload(0x00)\n        /* \"contracts/main.sol\":2101:2111  msg.sender */\n      caller\n        /* \"contracts/main.sol\":2085:2112  itemcreated(ic ,msg.sender) */\n      mload(0x40)\n      tag_85\n      swap3\n      swap2\n      swap1\n      tag_86\n      jump\t// in\n    tag_85:\n      mload(0x40)\n      dup1\n      swap2\n      sub\n      swap1\n      log1\n        /* \"contracts/main.sol\":2129:2130  1 */\n      0x01\n        /* \"contracts/main.sol\":2126:2128  ic */\n      sload(0x00)\n        /* \"contracts/main.sol\":2126:2130  ic+1 */\n      tag_87\n      swap2\n      swap1\n      tag_51\n      jump\t// in\n    tag_87:\n        /* \"contracts/main.sol\":2123:2125  ic */\n      0x00\n        /* \"contracts/main.sol\":2123:2130  ic=ic+1 */\n      dup2\n      swap1\n      sstore\n      pop\n        /* \"contracts/modifier.sol\":477:478  _ */\n      pop\n        /* \"contracts/main.sol\":1733:2140  function addItem(string memory _product_name , uint cost) public onlyDistributor(msg.sender)\r... */\n      pop\n      pop\n      pop\n      jump\t// out\n        /* \"contracts/modifier.sol\":121:141  address public owner */\n    tag_34:\n      0x05\n      0x00\n      swap1\n      sload\n      swap1\n      0x0100\n      exp\n      swap1\n      div\n      0xffffffffffffffffffffffffffffffffffffffff\n      and\n      dup2\n      jump\t// out\n        /* \"contracts/main.sol\":1286:1727  function addManufacturer(string memory _uname) public {\r... */\n    tag_39:\n        /* \"contracts/main.sol\":1351:1384  participant memory newParticipant */\n      tag_89\n      tag_42\n      jump\t// in\n    tag_89:\n        /* \"contracts/main.sol\":1421:1427  _uname */\n      dup2\n        /* \"contracts/main.sol\":1396:1410  newParticipant */\n      dup2\n        /* \"contracts/main.sol\":1396:1419  newParticipant.username */\n      0x00\n      add\n        /* \"contracts/main.sol\":1396:1427  newParticipant.username =_uname */\n      dup2\n      swap1\n      mstore\n      pop\n        /* \"contracts/main.sol\":1462:1464  pc */\n      sload(0x02)\n        /* \"contracts/main.sol\":1438:1452  newParticipant */\n      dup2\n        /* \"contracts/main.sol\":1438:1459  newParticipant.userId */\n      0x20\n      add\n        /* \"contracts/main.sol\":1438:1464  newParticipant.userId = pc */\n      dup2\n      dup2\n      mstore\n      pop\n      pop\n        /* \"contracts/main.sol\":1498:1499  0 */\n      0x00\n        /* \"contracts/main.sol\":1475:1489  newParticipant */\n      dup2\n        /* \"contracts/main.sol\":1475:1495  newParticipant.money */\n      0x80\n      add\n        /* \"contracts/main.sol\":1475:1499  newParticipant.money = 0 */\n      dup2\n      dup2\n      mstore\n      pop\n      pop\n        /* \"contracts/main.sol\":1532:1554  user_type.manufacturer */\n      0x03\n        /* \"contracts/main.sol\":1510:1524  newParticipant */\n      dup2\n        /* \"contracts/main.sol\":1510:1530  newParticipant.utype */\n      0x40\n      add\n        /* \"contracts/main.sol\":1510:1554  newParticipant.utype= user_type.manufacturer */\n      swap1\n      0x03\n      dup2\n      gt\n      iszero\n      tag_90\n      jumpi\n      mstore(0x00, 0x4e487b7100000000000000000000000000000000000000000000000000000000)\n      mstore(0x04, 0x21)\n      revert(0x00, 0x24)\n    tag_90:\n      swap1\n      dup2\n      0x03\n      dup2\n      gt\n      iszero\n      tag_91\n      jumpi\n      mstore(0x00, 0x4e487b7100000000000000000000000000000000000000000000000000000000)\n      mstore(0x04, 0x21)\n      revert(0x00, 0x24)\n    tag_91:\n      dup2\n      mstore\n      pop\n      pop\n        /* \"contracts/main.sol\":1595:1605  msg.sender */\n      caller\n        /* \"contracts/main.sol\":1565:1579  newParticipant */\n      dup2\n        /* \"contracts/main.sol\":1565:1592  newParticipant.user_address */\n      0x60\n      add\n        /* \"contracts/main.sol\":1565:1605  newParticipant.user_address = msg.sender */\n      swap1\n      0xffffffffffffffffffffffffffffffffffffffff\n      and\n      swap1\n      dup2\n      0xffffffffffffffffffffffffffffffffffffffff\n      and\n      dup2\n      mstore\n      pop\n      pop\n        /* \"contracts/main.sol\":1633:1647  newParticipant */\n      dup1\n        /* \"contracts/main.sol\":1616:1628  participants */\n      0x03\n        /* \"contracts/main.sol\":1616:1632  participants[pc] */\n      0x00\n        /* \"contracts/main.sol\":1629:1631  pc */\n      sload(0x02)\n        /* \"contracts/main.sol\":1616:1632  participants[pc] */\n      dup2\n      mstore\n      0x20\n      add\n      swap1\n      dup2\n      mstore\n      0x20\n      add\n      0x00\n      keccak256\n        /* \"contracts/main.sol\":1616:1647  participants[pc]=newParticipant */\n      0x00\n      dup3\n      add\n      mload\n      dup2\n      0x00\n      add\n      swap1\n      dup1\n      mload\n      swap1\n      0x20\n      add\n      swap1\n      tag_92\n      swap3\n      swap2\n      swap1\n      tag_46\n      jump\t// in\n    tag_92:\n      pop\n      0x20\n      dup3\n      add\n      mload\n      dup2\n      0x01\n      add\n      sstore\n      0x40\n      dup3\n      add\n      mload\n      dup2\n      0x02\n      add\n      exp(0x0100, 0x00)\n      dup2\n      sload\n      dup2\n      0xff\n      mul\n      not\n      and\n      swap1\n      dup4\n      0x03\n      dup2\n      gt\n      iszero\n      tag_93\n      jumpi\n      mstore(0x00, 0x4e487b7100000000000000000000000000000000000000000000000000000000)\n      mstore(0x04, 0x21)\n      revert(0x00, 0x24)\n    tag_93:\n      mul\n      or\n      swap1\n      sstore\n      pop\n      0x60\n      dup3\n      add\n      mload\n      dup2\n      0x02\n      add\n      exp(0x0100, 0x01)\n      dup2\n      sload\n      dup2\n      0xffffffffffffffffffffffffffffffffffffffff\n      mul\n      not\n      and\n      swap1\n      dup4\n      0xffffffffffffffffffffffffffffffffffffffff\n      and\n      mul\n      or\n      swap1\n      sstore\n      pop\n      0x80\n      dup3\n      add\n      mload\n      dup2\n      0x03\n      add\n      sstore\n      swap1\n      pop\n      pop\n        /* \"contracts/main.sol\":1685:1699  newParticipant */\n      dup1\n        /* \"contracts/main.sol\":1658:1672  participantsId */\n      0x04\n        /* \"contracts/main.sol\":1658:1684  participantsId[msg.sender] */\n      0x00\n        /* \"contracts/main.sol\":1673:1683  msg.sender */\n      caller\n        /* \"contracts/main.sol\":1658:1684  participantsId[msg.sender] */\n      0xffffffffffffffffffffffffffffffffffffffff\n      and\n      0xffffffffffffffffffffffffffffffffffffffff\n      and\n      dup2\n      mstore\n      0x20\n      add\n      swap1\n      dup2\n      mstore\n      0x20\n      add\n      0x00\n      keccak256\n        /* \"contracts/main.sol\":1658:1699  participantsId[msg.sender]=newParticipant */\n      0x00\n      dup3\n      add\n      mload\n      dup2\n      0x00\n      add\n      swap1\n      dup1\n      mload\n      swap1\n      0x20\n      add\n      swap1\n      tag_94\n      swap3\n      swap2\n      swap1\n      tag_46\n      jump\t// in\n    tag_94:\n      pop\n      0x20\n      dup3\n      add\n      mload\n      dup2\n      0x01\n      add\n      sstore\n      0x40\n      dup3\n      add\n      mload\n      dup2\n      0x02\n      add\n      exp(0x0100, 0x00)\n      dup2\n      sload\n      dup2\n      0xff\n      mul\n      not\n      and\n      swap1\n      dup4\n      0x03\n      dup2\n      gt\n      iszero\n      tag_95\n      jumpi\n      mstore(0x00, 0x4e487b7100000000000000000000000000000000000000000000000000000000)\n      mstore(0x04, 0x21)\n      revert(0x00, 0x24)\n    tag_95:\n      mul\n      or\n      swap1\n      sstore\n      pop\n      0x60\n      dup3\n      add\n      mload\n      dup2\n      0x02\n      add\n      exp(0x0100, 0x01)\n      dup2\n      sload\n      dup2\n      0xffffffffffffffffffffffffffffffffffffffff\n      mul\n      not\n      and\n      swap1\n      dup4\n      0xffffffffffffffffffffffffffffffffffffffff\n      and\n      mul\n      or\n      swap1\n      sstore\n      pop\n      0x80\n      dup3\n      add\n      mload\n      dup2\n      0x03\n      add\n      sstore\n      swap1\n      pop\n      pop\n        /* \"contracts/main.sol\":1716:1717  1 */\n      0x01\n        /* \"contracts/main.sol\":1713:1715  pc */\n      sload(0x02)\n        /* \"contracts/main.sol\":1713:1717  pc+1 */\n      tag_96\n      swap2\n      swap1\n      tag_51\n      jump\t// in\n    tag_96:\n        /* \"contracts/main.sol\":1710:1712  pc */\n      0x02\n        /* \"contracts/main.sol\":1710:1717  pc=pc+1 */\n      dup2\n      swap1\n      sstore\n      pop\n        /* \"contracts/main.sol\":1286:1727  function addManufacturer(string memory _uname) public {\r... */\n      pop\n      pop\n      jump\t// out\n    tag_42:\n      mload(0x40)\n      dup1\n      0xa0\n      add\n      0x40\n      mstore\n      dup1\n      0x60\n      dup2\n      mstore\n      0x20\n      add\n      0x00\n      dup2\n      mstore\n      0x20\n      add\n      0x00\n      0x03\n      dup2\n      gt\n      iszero\n      tag_97\n      jumpi\n      mstore(0x00, 0x4e487b7100000000000000000000000000000000000000000000000000000000)\n      mstore(0x04, 0x21)\n      revert(0x00, 0x24)\n    tag_97:\n      dup2\n      mstore\n      0x20\n      add\n      and(0xffffffffffffffffffffffffffffffffffffffff, 0x00)\n      dup2\n      mstore\n      0x20\n      add\n      0x00\n      dup2\n      mstore\n      pop\n      swap1\n      jump\t// out\n    tag_46:\n      dup3\n      dup1\n      sload\n      tag_98\n      swap1\n      tag_53\n      jump\t// in\n    tag_98:\n      swap1\n      0x00\n      mstore\n      keccak256(0x00, 0x20)\n      swap1\n      0x1f\n      add\n      0x20\n      swap1\n      div\n      dup2\n      add\n      swap3\n      dup3\n      tag_100\n      jumpi\n      0x00\n      dup6\n      sstore\n      jump(tag_99)\n    tag_100:\n      dup3\n      0x1f\n      lt\n      tag_101\n      jumpi\n      dup1\n      mload\n      not(0xff)\n      and\n      dup4\n      dup1\n      add\n      or\n      dup6\n      sstore\n      jump(tag_99)\n    tag_101:\n      dup3\n      dup1\n      add\n      0x01\n      add\n      dup6\n      sstore\n      dup3\n      iszero\n      tag_99\n      jumpi\n      swap2\n      dup3\n      add\n    tag_102:\n      dup3\n      dup2\n      gt\n      iszero\n      tag_103\n      jumpi\n      dup3\n      mload\n      dup3\n      sstore\n      swap2\n      0x20\n      add\n      swap2\n      swap1\n      0x01\n      add\n      swap1\n      jump(tag_102)\n    tag_103:\n    tag_99:\n      pop\n      swap1\n      pop\n      tag_104\n      swap2\n      swap1\n      tag_105\n      jump\t// in\n    tag_104:\n      pop\n      swap1\n      jump\t// out\n    tag_80:\n      mload(0x40)\n      dup1\n      0xa0\n      add\n      0x40\n      mstore\n      dup1\n      0x60\n      dup2\n      mstore\n      0x20\n      add\n      0x00\n      dup2\n      mstore\n      0x20\n      add\n      and(0xffffffffffffffffffffffffffffffffffffffff, 0x00)\n      dup2\n      mstore\n      0x20\n      add\n      0x00\n      0x06\n      dup2\n      gt\n      iszero\n      tag_106\n      jumpi\n      mstore(0x00, 0x4e487b7100000000000000000000000000000000000000000000000000000000)\n      mstore(0x04, 0x21)\n      revert(0x00, 0x24)\n    tag_106:\n      dup2\n      mstore\n      0x20\n      add\n      0x00\n      dup2\n      mstore\n      pop\n      swap1\n      jump\t// out\n    tag_105:\n    tag_107:\n      dup1\n      dup3\n      gt\n      iszero\n      tag_108\n      jumpi\n      0x00\n      dup2\n      0x00\n      swap1\n      sstore\n      pop\n      0x01\n      add\n      jump(tag_107)\n    tag_108:\n      pop\n      swap1\n      jump\t// out\n        /* \"#utility.yul\":7:351   */\n    tag_110:\n      0x00\n        /* \"#utility.yul\":110:175   */\n      tag_112\n        /* \"#utility.yul\":125:174   */\n      tag_113\n        /* \"#utility.yul\":167:173   */\n      dup5\n        /* \"#utility.yul\":125:174   */\n      tag_114\n      jump\t// in\n    tag_113:\n        /* \"#utility.yul\":110:175   */\n      tag_115\n      jump\t// in\n    tag_112:\n        /* \"#utility.yul\":101:175   */\n      swap1\n      pop\n        /* \"#utility.yul\":198:204   */\n      dup3\n        /* \"#utility.yul\":191:196   */\n      dup2\n        /* \"#utility.yul\":184:205   */\n      mstore\n        /* \"#utility.yul\":236:240   */\n      0x20\n        /* \"#utility.yul\":229:234   */\n      dup2\n        /* \"#utility.yul\":225:241   */\n      add\n        /* \"#utility.yul\":274:277   */\n      dup5\n        /* \"#utility.yul\":265:271   */\n      dup5\n        /* \"#utility.yul\":260:263   */\n      dup5\n        /* \"#utility.yul\":256:272   */\n      add\n        /* \"#utility.yul\":253:278   */\n      gt\n        /* \"#utility.yul\":250:252   */\n      iszero\n      tag_116\n      jumpi\n        /* \"#utility.yul\":291:292   */\n      0x00\n        /* \"#utility.yul\":288:289   */\n      dup1\n        /* \"#utility.yul\":281:293   */\n      revert\n        /* \"#utility.yul\":250:252   */\n    tag_116:\n        /* \"#utility.yul\":304:345   */\n      tag_117\n        /* \"#utility.yul\":338:344   */\n      dup5\n        /* \"#utility.yul\":333:336   */\n      dup3\n        /* \"#utility.yul\":328:331   */\n      dup6\n        /* \"#utility.yul\":304:345   */\n      tag_118\n      jump\t// in\n    tag_117:\n        /* \"#utility.yul\":91:351   */\n      pop\n      swap4\n      swap3\n      pop\n      pop\n      pop\n      jump\t// out\n        /* \"#utility.yul\":371:644   */\n    tag_119:\n      0x00\n        /* \"#utility.yul\":476:479   */\n      dup3\n        /* \"#utility.yul\":469:473   */\n      0x1f\n        /* \"#utility.yul\":461:467   */\n      dup4\n        /* \"#utility.yul\":457:474   */\n      add\n        /* \"#utility.yul\":453:480   */\n      slt\n        /* \"#utility.yul\":443:445   */\n      tag_121\n      jumpi\n        /* \"#utility.yul\":494:495   */\n      0x00\n        /* \"#utility.yul\":491:492   */\n      dup1\n        /* \"#utility.yul\":484:496   */\n      revert\n        /* \"#utility.yul\":443:445   */\n    tag_121:\n        /* \"#utility.yul\":534:540   */\n      dup2\n        /* \"#utility.yul\":521:541   */\n      calldataload\n        /* \"#utility.yul\":559:638   */\n      tag_122\n        /* \"#utility.yul\":634:637   */\n      dup5\n        /* \"#utility.yul\":626:632   */\n      dup3\n        /* \"#utility.yul\":619:623   */\n      0x20\n        /* \"#utility.yul\":611:617   */\n      dup7\n        /* \"#utility.yul\":607:624   */\n      add\n        /* \"#utility.yul\":559:638   */\n      tag_110\n      jump\t// in\n    tag_122:\n        /* \"#utility.yul\":550:638   */\n      swap2\n      pop\n        /* \"#utility.yul\":433:644   */\n      pop\n      swap3\n      swap2\n      pop\n      pop\n      jump\t// out\n        /* \"#utility.yul\":650:789   */\n    tag_123:\n      0x00\n        /* \"#utility.yul\":734:740   */\n      dup2\n        /* \"#utility.yul\":721:741   */\n      calldataload\n        /* \"#utility.yul\":712:741   */\n      swap1\n      pop\n        /* \"#utility.yul\":750:783   */\n      tag_125\n        /* \"#utility.yul\":777:782   */\n      dup2\n        /* \"#utility.yul\":750:783   */\n      tag_126\n      jump\t// in\n    tag_125:\n        /* \"#utility.yul\":702:789   */\n      swap3\n      swap2\n      pop\n      pop\n      jump\t// out\n        /* \"#utility.yul\":795:1170   */\n    tag_13:\n      0x00\n        /* \"#utility.yul\":913:915   */\n      0x20\n        /* \"#utility.yul\":901:910   */\n      dup3\n        /* \"#utility.yul\":892:899   */\n      dup5\n        /* \"#utility.yul\":888:911   */\n      sub\n        /* \"#utility.yul\":884:916   */\n      slt\n        /* \"#utility.yul\":881:883   */\n      iszero\n      tag_128\n      jumpi\n        /* \"#utility.yul\":929:930   */\n      0x00\n        /* \"#utility.yul\":926:927   */\n      dup1\n        /* \"#utility.yul\":919:931   */\n      revert\n        /* \"#utility.yul\":881:883   */\n    tag_128:\n        /* \"#utility.yul\":1000:1001   */\n      0x00\n        /* \"#utility.yul\":989:998   */\n      dup3\n        /* \"#utility.yul\":985:1002   */\n      add\n        /* \"#utility.yul\":972:1003   */\n      calldataload\n        /* \"#utility.yul\":1030:1048   */\n      0xffffffffffffffff\n        /* \"#utility.yul\":1022:1028   */\n      dup2\n        /* \"#utility.yul\":1019:1049   */\n      gt\n        /* \"#utility.yul\":1016:1018   */\n      iszero\n      tag_129\n      jumpi\n        /* \"#utility.yul\":1062:1063   */\n      0x00\n        /* \"#utility.yul\":1059:1060   */\n      dup1\n        /* \"#utility.yul\":1052:1064   */\n      revert\n        /* \"#utility.yul\":1016:1018   */\n    tag_129:\n        /* \"#utility.yul\":1090:1153   */\n      tag_130\n        /* \"#utility.yul\":1145:1152   */\n      dup5\n        /* \"#utility.yul\":1136:1142   */\n      dup3\n        /* \"#utility.yul\":1125:1134   */\n      dup6\n        /* \"#utility.yul\":1121:1143   */\n      add\n        /* \"#utility.yul\":1090:1153   */\n      tag_119\n      jump\t// in\n    tag_130:\n        /* \"#utility.yul\":1080:1153   */\n      swap2\n      pop\n        /* \"#utility.yul\":943:1163   */\n      pop\n        /* \"#utility.yul\":871:1170   */\n      swap3\n      swap2\n      pop\n      pop\n      jump\t// out\n        /* \"#utility.yul\":1176:1696   */\n    tag_31:\n      0x00\n      dup1\n        /* \"#utility.yul\":1311:1313   */\n      0x40\n        /* \"#utility.yul\":1299:1308   */\n      dup4\n        /* \"#utility.yul\":1290:1297   */\n      dup6\n        /* \"#utility.yul\":1286:1309   */\n      sub\n        /* \"#utility.yul\":1282:1314   */\n      slt\n        /* \"#utility.yul\":1279:1281   */\n      iszero\n      tag_132\n      jumpi\n        /* \"#utility.yul\":1327:1328   */\n      0x00\n        /* \"#utility.yul\":1324:1325   */\n      dup1\n        /* \"#utility.yul\":1317:1329   */\n      revert\n        /* \"#utility.yul\":1279:1281   */\n    tag_132:\n        /* \"#utility.yul\":1398:1399   */\n      0x00\n        /* \"#utility.yul\":1387:1396   */\n      dup4\n        /* \"#utility.yul\":1383:1400   */\n      add\n        /* \"#utility.yul\":1370:1401   */\n      calldataload\n        /* \"#utility.yul\":1428:1446   */\n      0xffffffffffffffff\n        /* \"#utility.yul\":1420:1426   */\n      dup2\n        /* \"#utility.yul\":1417:1447   */\n      gt\n        /* \"#utility.yul\":1414:1416   */\n      iszero\n      tag_133\n      jumpi\n        /* \"#utility.yul\":1460:1461   */\n      0x00\n        /* \"#utility.yul\":1457:1458   */\n      dup1\n        /* \"#utility.yul\":1450:1462   */\n      revert\n        /* \"#utility.yul\":1414:1416   */\n    tag_133:\n        /* \"#utility.yul\":1488:1551   */\n      tag_134\n        /* \"#utility.yul\":1543:1550   */\n      dup6\n        /* \"#utility.yul\":1534:1540   */\n      dup3\n        /* \"#utility.yul\":1523:1532   */\n      dup7\n        /* \"#utility.yul\":1519:1541   */\n      add\n        /* \"#utility.yul\":1488:1551   */\n      tag_119\n      jump\t// in\n    tag_134:\n        /* \"#utility.yul\":1478:1551   */\n      swap3\n      pop\n        /* \"#utility.yul\":1341:1561   */\n      pop\n        /* \"#utility.yul\":1600:1602   */\n      0x20\n        /* \"#utility.yul\":1626:1679   */\n      tag_135\n        /* \"#utility.yul\":1671:1678   */\n      dup6\n        /* \"#utility.yul\":1662:1668   */\n      dup3\n        /* \"#utility.yul\":1651:1660   */\n      dup7\n        /* \"#utility.yul\":1647:1669   */\n      add\n        /* \"#utility.yul\":1626:1679   */\n      tag_123\n      jump\t// in\n    tag_135:\n        /* \"#utility.yul\":1616:1679   */\n      swap2\n      pop\n        /* \"#utility.yul\":1571:1689   */\n      pop\n        /* \"#utility.yul\":1269:1696   */\n      swap3\n      pop\n      swap3\n      swap1\n      pop\n      jump\t// out\n        /* \"#utility.yul\":1702:1964   */\n    tag_17:\n      0x00\n        /* \"#utility.yul\":1810:1812   */\n      0x20\n        /* \"#utility.yul\":1798:1807   */\n      dup3\n        /* \"#utility.yul\":1789:1796   */\n      dup5\n        /* \"#utility.yul\":1785:1808   */\n      sub\n        /* \"#utility.yul\":1781:1813   */\n      slt\n        /* \"#utility.yul\":1778:1780   */\n      iszero\n      tag_137\n      jumpi\n        /* \"#utility.yul\":1826:1827   */\n      0x00\n        /* \"#utility.yul\":1823:1824   */\n      dup1\n        /* \"#utility.yul\":1816:1828   */\n      revert\n        /* \"#utility.yul\":1778:1780   */\n    tag_137:\n        /* \"#utility.yul\":1869:1870   */\n      0x00\n        /* \"#utility.yul\":1894:1947   */\n      tag_138\n        /* \"#utility.yul\":1939:1946   */\n      dup5\n        /* \"#utility.yul\":1930:1936   */\n      dup3\n        /* \"#utility.yul\":1919:1928   */\n      dup6\n        /* \"#utility.yul\":1915:1937   */\n      add\n        /* \"#utility.yul\":1894:1947   */\n      tag_123\n      jump\t// in\n    tag_138:\n        /* \"#utility.yul\":1884:1947   */\n      swap2\n      pop\n        /* \"#utility.yul\":1840:1957   */\n      pop\n        /* \"#utility.yul\":1768:1964   */\n      swap3\n      swap2\n      pop\n      pop\n      jump\t// out\n        /* \"#utility.yul\":1970:2088   */\n    tag_139:\n        /* \"#utility.yul\":2057:2081   */\n      tag_141\n        /* \"#utility.yul\":2075:2080   */\n      dup2\n        /* \"#utility.yul\":2057:2081   */\n      tag_142\n      jump\t// in\n    tag_141:\n        /* \"#utility.yul\":2052:2055   */\n      dup3\n        /* \"#utility.yul\":2045:2082   */\n      mstore\n        /* \"#utility.yul\":2035:2088   */\n      pop\n      pop\n      jump\t// out\n        /* \"#utility.yul\":2094:2237   */\n    tag_143:\n        /* \"#utility.yul\":2187:2230   */\n      tag_145\n        /* \"#utility.yul\":2224:2229   */\n      dup2\n        /* \"#utility.yul\":2187:2230   */\n      tag_146\n      jump\t// in\n    tag_145:\n        /* \"#utility.yul\":2182:2185   */\n      dup3\n        /* \"#utility.yul\":2175:2231   */\n      mstore\n        /* \"#utility.yul\":2165:2237   */\n      pop\n      pop\n      jump\t// out\n        /* \"#utility.yul\":2243:2396   */\n    tag_147:\n        /* \"#utility.yul\":2341:2389   */\n      tag_149\n        /* \"#utility.yul\":2383:2388   */\n      dup2\n        /* \"#utility.yul\":2341:2389   */\n      tag_150\n      jump\t// in\n    tag_149:\n        /* \"#utility.yul\":2336:2339   */\n      dup3\n        /* \"#utility.yul\":2329:2390   */\n      mstore\n        /* \"#utility.yul\":2319:2396   */\n      pop\n      pop\n      jump\t// out\n        /* \"#utility.yul\":2402:2766   */\n    tag_151:\n      0x00\n        /* \"#utility.yul\":2518:2557   */\n      tag_153\n        /* \"#utility.yul\":2551:2556   */\n      dup3\n        /* \"#utility.yul\":2518:2557   */\n      tag_154\n      jump\t// in\n    tag_153:\n        /* \"#utility.yul\":2573:2644   */\n      tag_155\n        /* \"#utility.yul\":2637:2643   */\n      dup2\n        /* \"#utility.yul\":2632:2635   */\n      dup6\n        /* \"#utility.yul\":2573:2644   */\n      tag_156\n      jump\t// in\n    tag_155:\n        /* \"#utility.yul\":2566:2644   */\n      swap4\n      pop\n        /* \"#utility.yul\":2653:2705   */\n      tag_157\n        /* \"#utility.yul\":2698:2704   */\n      dup2\n        /* \"#utility.yul\":2693:2696   */\n      dup6\n        /* \"#utility.yul\":2686:2690   */\n      0x20\n        /* \"#utility.yul\":2679:2684   */\n      dup7\n        /* \"#utility.yul\":2675:2691   */\n      add\n        /* \"#utility.yul\":2653:2705   */\n      tag_158\n      jump\t// in\n    tag_157:\n        /* \"#utility.yul\":2730:2759   */\n      tag_159\n        /* \"#utility.yul\":2752:2758   */\n      dup2\n        /* \"#utility.yul\":2730:2759   */\n      tag_160\n      jump\t// in\n    tag_159:\n        /* \"#utility.yul\":2725:2728   */\n      dup5\n        /* \"#utility.yul\":2721:2760   */\n      add\n        /* \"#utility.yul\":2714:2760   */\n      swap2\n      pop\n        /* \"#utility.yul\":2494:2766   */\n      pop\n      swap3\n      swap2\n      pop\n      pop\n      jump\t// out\n        /* \"#utility.yul\":2772:3096   */\n    tag_161:\n      0x00\n        /* \"#utility.yul\":2935:3002   */\n      tag_163\n        /* \"#utility.yul\":2999:3001   */\n      0x1a\n        /* \"#utility.yul\":2994:2997   */\n      dup4\n        /* \"#utility.yul\":2935:3002   */\n      tag_156\n      jump\t// in\n    tag_163:\n        /* \"#utility.yul\":2928:3002   */\n      swap2\n      pop\n        /* \"#utility.yul\":3032:3060   */\n      0x796f752063616e6e6f7420616464206e65772070726f64756374000000000000\n        /* \"#utility.yul\":3028:3029   */\n      0x00\n        /* \"#utility.yul\":3023:3026   */\n      dup4\n        /* \"#utility.yul\":3019:3030   */\n      add\n        /* \"#utility.yul\":3012:3061   */\n      mstore\n        /* \"#utility.yul\":3087:3089   */\n      0x20\n        /* \"#utility.yul\":3082:3085   */\n      dup3\n        /* \"#utility.yul\":3078:3090   */\n      add\n        /* \"#utility.yul\":3071:3090   */\n      swap1\n      pop\n        /* \"#utility.yul\":2918:3096   */\n      swap2\n      swap1\n      pop\n      jump\t// out\n        /* \"#utility.yul\":3102:3220   */\n    tag_164:\n        /* \"#utility.yul\":3189:3213   */\n      tag_166\n        /* \"#utility.yul\":3207:3212   */\n      dup2\n        /* \"#utility.yul\":3189:3213   */\n      tag_167\n      jump\t// in\n    tag_166:\n        /* \"#utility.yul\":3184:3187   */\n      dup3\n        /* \"#utility.yul\":3177:3214   */\n      mstore\n        /* \"#utility.yul\":3167:3220   */\n      pop\n      pop\n      jump\t// out\n        /* \"#utility.yul\":3226:3448   */\n    tag_36:\n      0x00\n        /* \"#utility.yul\":3357:3359   */\n      0x20\n        /* \"#utility.yul\":3346:3355   */\n      dup3\n        /* \"#utility.yul\":3342:3360   */\n      add\n        /* \"#utility.yul\":3334:3360   */\n      swap1\n      pop\n        /* \"#utility.yul\":3370:3441   */\n      tag_169\n        /* \"#utility.yul\":3438:3439   */\n      0x00\n        /* \"#utility.yul\":3427:3436   */\n      dup4\n        /* \"#utility.yul\":3423:3440   */\n      add\n        /* \"#utility.yul\":3414:3420   */\n      dup5\n        /* \"#utility.yul\":3370:3441   */\n      tag_139\n      jump\t// in\n    tag_169:\n        /* \"#utility.yul\":3324:3448   */\n      swap3\n      swap2\n      pop\n      pop\n      jump\t// out\n        /* \"#utility.yul\":3454:4221   */\n    tag_20:\n      0x00\n        /* \"#utility.yul\":3723:3726   */\n      0xa0\n        /* \"#utility.yul\":3712:3721   */\n      dup3\n        /* \"#utility.yul\":3708:3727   */\n      add\n        /* \"#utility.yul\":3700:3727   */\n      swap1\n      pop\n        /* \"#utility.yul\":3773:3782   */\n      dup2\n        /* \"#utility.yul\":3767:3771   */\n      dup2\n        /* \"#utility.yul\":3763:3783   */\n      sub\n        /* \"#utility.yul\":3759:3760   */\n      0x00\n        /* \"#utility.yul\":3748:3757   */\n      dup4\n        /* \"#utility.yul\":3744:3761   */\n      add\n        /* \"#utility.yul\":3737:3784   */\n      mstore\n        /* \"#utility.yul\":3801:3879   */\n      tag_171\n        /* \"#utility.yul\":3874:3878   */\n      dup2\n        /* \"#utility.yul\":3865:3871   */\n      dup9\n        /* \"#utility.yul\":3801:3879   */\n      tag_151\n      jump\t// in\n    tag_171:\n        /* \"#utility.yul\":3793:3879   */\n      swap1\n      pop\n        /* \"#utility.yul\":3889:3961   */\n      tag_172\n        /* \"#utility.yul\":3957:3959   */\n      0x20\n        /* \"#utility.yul\":3946:3955   */\n      dup4\n        /* \"#utility.yul\":3942:3960   */\n      add\n        /* \"#utility.yul\":3933:3939   */\n      dup8\n        /* \"#utility.yul\":3889:3961   */\n      tag_164\n      jump\t// in\n    tag_172:\n        /* \"#utility.yul\":3971:4043   */\n      tag_173\n        /* \"#utility.yul\":4039:4041   */\n      0x40\n        /* \"#utility.yul\":4028:4037   */\n      dup4\n        /* \"#utility.yul\":4024:4042   */\n      add\n        /* \"#utility.yul\":4015:4021   */\n      dup7\n        /* \"#utility.yul\":3971:4043   */\n      tag_139\n      jump\t// in\n    tag_173:\n        /* \"#utility.yul\":4053:4131   */\n      tag_174\n        /* \"#utility.yul\":4127:4129   */\n      0x60\n        /* \"#utility.yul\":4116:4125   */\n      dup4\n        /* \"#utility.yul\":4112:4130   */\n      add\n        /* \"#utility.yul\":4103:4109   */\n      dup6\n        /* \"#utility.yul\":4053:4131   */\n      tag_143\n      jump\t// in\n    tag_174:\n        /* \"#utility.yul\":4141:4214   */\n      tag_175\n        /* \"#utility.yul\":4209:4212   */\n      0x80\n        /* \"#utility.yul\":4198:4207   */\n      dup4\n        /* \"#utility.yul\":4194:4213   */\n      add\n        /* \"#utility.yul\":4185:4191   */\n      dup5\n        /* \"#utility.yul\":4141:4214   */\n      tag_164\n      jump\t// in\n    tag_175:\n        /* \"#utility.yul\":3690:4221   */\n      swap7\n      swap6\n      pop\n      pop\n      pop\n      pop\n      pop\n      pop\n      jump\t// out\n        /* \"#utility.yul\":4227:5004   */\n    tag_28:\n      0x00\n        /* \"#utility.yul\":4501:4504   */\n      0xa0\n        /* \"#utility.yul\":4490:4499   */\n      dup3\n        /* \"#utility.yul\":4486:4505   */\n      add\n        /* \"#utility.yul\":4478:4505   */\n      swap1\n      pop\n        /* \"#utility.yul\":4551:4560   */\n      dup2\n        /* \"#utility.yul\":4545:4549   */\n      dup2\n        /* \"#utility.yul\":4541:4561   */\n      sub\n        /* \"#utility.yul\":4537:4538   */\n      0x00\n        /* \"#utility.yul\":4526:4535   */\n      dup4\n        /* \"#utility.yul\":4522:4539   */\n      add\n        /* \"#utility.yul\":4515:4562   */\n      mstore\n        /* \"#utility.yul\":4579:4657   */\n      tag_177\n        /* \"#utility.yul\":4652:4656   */\n      dup2\n        /* \"#utility.yul\":4643:4649   */\n      dup9\n        /* \"#utility.yul\":4579:4657   */\n      tag_151\n      jump\t// in\n    tag_177:\n        /* \"#utility.yul\":4571:4657   */\n      swap1\n      pop\n        /* \"#utility.yul\":4667:4739   */\n      tag_178\n        /* \"#utility.yul\":4735:4737   */\n      0x20\n        /* \"#utility.yul\":4724:4733   */\n      dup4\n        /* \"#utility.yul\":4720:4738   */\n      add\n        /* \"#utility.yul\":4711:4717   */\n      dup8\n        /* \"#utility.yul\":4667:4739   */\n      tag_164\n      jump\t// in\n    tag_178:\n        /* \"#utility.yul\":4749:4832   */\n      tag_179\n        /* \"#utility.yul\":4828:4830   */\n      0x40\n        /* \"#utility.yul\":4817:4826   */\n      dup4\n        /* \"#utility.yul\":4813:4831   */\n      add\n        /* \"#utility.yul\":4804:4810   */\n      dup7\n        /* \"#utility.yul\":4749:4832   */\n      tag_147\n      jump\t// in\n    tag_179:\n        /* \"#utility.yul\":4842:4914   */\n      tag_180\n        /* \"#utility.yul\":4910:4912   */\n      0x60\n        /* \"#utility.yul\":4899:4908   */\n      dup4\n        /* \"#utility.yul\":4895:4913   */\n      add\n        /* \"#utility.yul\":4886:4892   */\n      dup6\n        /* \"#utility.yul\":4842:4914   */\n      tag_139\n      jump\t// in\n    tag_180:\n        /* \"#utility.yul\":4924:4997   */\n      tag_181\n        /* \"#utility.yul\":4992:4995   */\n      0x80\n        /* \"#utility.yul\":4981:4990   */\n      dup4\n        /* \"#utility.yul\":4977:4996   */\n      add\n        /* \"#utility.yul\":4968:4974   */\n      dup5\n        /* \"#utility.yul\":4924:4997   */\n      tag_164\n      jump\t// in\n    tag_181:\n        /* \"#utility.yul\":4468:5004   */\n      swap7\n      swap6\n      pop\n      pop\n      pop\n      pop\n      pop\n      pop\n      jump\t// out\n        /* \"#utility.yul\":5010:5429   */\n    tag_77:\n      0x00\n        /* \"#utility.yul\":5214:5216   */\n      0x20\n        /* \"#utility.yul\":5203:5212   */\n      dup3\n        /* \"#utility.yul\":5199:5217   */\n      add\n        /* \"#utility.yul\":5191:5217   */\n      swap1\n      pop\n        /* \"#utility.yul\":5263:5272   */\n      dup2\n        /* \"#utility.yul\":5257:5261   */\n      dup2\n        /* \"#utility.yul\":5253:5273   */\n      sub\n        /* \"#utility.yul\":5249:5250   */\n      0x00\n        /* \"#utility.yul\":5238:5247   */\n      dup4\n        /* \"#utility.yul\":5234:5251   */\n      add\n        /* \"#utility.yul\":5227:5274   */\n      mstore\n        /* \"#utility.yul\":5291:5422   */\n      tag_183\n        /* \"#utility.yul\":5417:5421   */\n      dup2\n        /* \"#utility.yul\":5291:5422   */\n      tag_161\n      jump\t// in\n    tag_183:\n        /* \"#utility.yul\":5283:5422   */\n      swap1\n      pop\n        /* \"#utility.yul\":5181:5429   */\n      swap2\n      swap1\n      pop\n      jump\t// out\n        /* \"#utility.yul\":5435:5767   */\n    tag_86:\n      0x00\n        /* \"#utility.yul\":5594:5596   */\n      0x40\n        /* \"#utility.yul\":5583:5592   */\n      dup3\n        /* \"#utility.yul\":5579:5597   */\n      add\n        /* \"#utility.yul\":5571:5597   */\n      swap1\n      pop\n        /* \"#utility.yul\":5607:5678   */\n      tag_185\n        /* \"#utility.yul\":5675:5676   */\n      0x00\n        /* \"#utility.yul\":5664:5673   */\n      dup4\n        /* \"#utility.yul\":5660:5677   */\n      add\n        /* \"#utility.yul\":5651:5657   */\n      dup6\n        /* \"#utility.yul\":5607:5678   */\n      tag_164\n      jump\t// in\n    tag_185:\n        /* \"#utility.yul\":5688:5760   */\n      tag_186\n        /* \"#utility.yul\":5756:5758   */\n      0x20\n        /* \"#utility.yul\":5745:5754   */\n      dup4\n        /* \"#utility.yul\":5741:5759   */\n      add\n        /* \"#utility.yul\":5732:5738   */\n      dup5\n        /* \"#utility.yul\":5688:5760   */\n      tag_139\n      jump\t// in\n    tag_186:\n        /* \"#utility.yul\":5561:5767   */\n      swap4\n      swap3\n      pop\n      pop\n      pop\n      jump\t// out\n        /* \"#utility.yul\":5773:6056   */\n    tag_115:\n      0x00\n        /* \"#utility.yul\":5839:5841   */\n      0x40\n        /* \"#utility.yul\":5833:5842   */\n      mload\n        /* \"#utility.yul\":5823:5842   */\n      swap1\n      pop\n        /* \"#utility.yul\":5881:5885   */\n      dup2\n        /* \"#utility.yul\":5873:5879   */\n      dup2\n        /* \"#utility.yul\":5869:5886   */\n      add\n        /* \"#utility.yul\":5988:5994   */\n      dup2\n        /* \"#utility.yul\":5976:5986   */\n      dup2\n        /* \"#utility.yul\":5973:5995   */\n      lt\n        /* \"#utility.yul\":5952:5970   */\n      0xffffffffffffffff\n        /* \"#utility.yul\":5940:5950   */\n      dup3\n        /* \"#utility.yul\":5937:5971   */\n      gt\n        /* \"#utility.yul\":5934:5996   */\n      or\n        /* \"#utility.yul\":5931:5933   */\n      iszero\n      tag_188\n      jumpi\n        /* \"#utility.yul\":5999:6017   */\n      tag_189\n      tag_190\n      jump\t// in\n    tag_189:\n        /* \"#utility.yul\":5931:5933   */\n    tag_188:\n        /* \"#utility.yul\":6039:6049   */\n      dup1\n        /* \"#utility.yul\":6035:6037   */\n      0x40\n        /* \"#utility.yul\":6028:6050   */\n      mstore\n        /* \"#utility.yul\":5813:6056   */\n      pop\n      swap2\n      swap1\n      pop\n      jump\t// out\n        /* \"#utility.yul\":6062:6394   */\n    tag_114:\n      0x00\n        /* \"#utility.yul\":6214:6232   */\n      0xffffffffffffffff\n        /* \"#utility.yul\":6206:6212   */\n      dup3\n        /* \"#utility.yul\":6203:6233   */\n      gt\n        /* \"#utility.yul\":6200:6202   */\n      iszero\n      tag_192\n      jumpi\n        /* \"#utility.yul\":6236:6254   */\n      tag_193\n      tag_190\n      jump\t// in\n    tag_193:\n        /* \"#utility.yul\":6200:6202   */\n    tag_192:\n        /* \"#utility.yul\":6321:6325   */\n      0x1f\n        /* \"#utility.yul\":6317:6326   */\n      not\n        /* \"#utility.yul\":6310:6314   */\n      0x1f\n        /* \"#utility.yul\":6302:6308   */\n      dup4\n        /* \"#utility.yul\":6298:6315   */\n      add\n        /* \"#utility.yul\":6294:6327   */\n      and\n        /* \"#utility.yul\":6286:6327   */\n      swap1\n      pop\n        /* \"#utility.yul\":6382:6386   */\n      0x20\n        /* \"#utility.yul\":6376:6380   */\n      dup2\n        /* \"#utility.yul\":6372:6387   */\n      add\n        /* \"#utility.yul\":6364:6387   */\n      swap1\n      pop\n        /* \"#utility.yul\":6129:6394   */\n      swap2\n      swap1\n      pop\n      jump\t// out\n        /* \"#utility.yul\":6400:6499   */\n    tag_154:\n      0x00\n        /* \"#utility.yul\":6486:6491   */\n      dup2\n        /* \"#utility.yul\":6480:6492   */\n      mload\n        /* \"#utility.yul\":6470:6492   */\n      swap1\n      pop\n        /* \"#utility.yul\":6459:6499   */\n      swap2\n      swap1\n      pop\n      jump\t// out\n        /* \"#utility.yul\":6505:6674   */\n    tag_156:\n      0x00\n        /* \"#utility.yul\":6623:6629   */\n      dup3\n        /* \"#utility.yul\":6618:6621   */\n      dup3\n        /* \"#utility.yul\":6611:6630   */\n      mstore\n        /* \"#utility.yul\":6663:6667   */\n      0x20\n        /* \"#utility.yul\":6658:6661   */\n      dup3\n        /* \"#utility.yul\":6654:6668   */\n      add\n        /* \"#utility.yul\":6639:6668   */\n      swap1\n      pop\n        /* \"#utility.yul\":6601:6674   */\n      swap3\n      swap2\n      pop\n      pop\n      jump\t// out\n        /* \"#utility.yul\":6680:6985   */\n    tag_51:\n      0x00\n        /* \"#utility.yul\":6739:6759   */\n      tag_197\n        /* \"#utility.yul\":6757:6758   */\n      dup3\n        /* \"#utility.yul\":6739:6759   */\n      tag_167\n      jump\t// in\n    tag_197:\n        /* \"#utility.yul\":6734:6759   */\n      swap2\n      pop\n        /* \"#utility.yul\":6773:6793   */\n      tag_198\n        /* \"#utility.yul\":6791:6792   */\n      dup4\n        /* \"#utility.yul\":6773:6793   */\n      tag_167\n      jump\t// in\n    tag_198:\n        /* \"#utility.yul\":6768:6793   */\n      swap3\n      pop\n        /* \"#utility.yul\":6927:6928   */\n      dup3\n        /* \"#utility.yul\":6859:6925   */\n      0xffffffffffffffffffffffffffffffffffffffffffffffffffffffffffffffff\n        /* \"#utility.yul\":6855:6929   */\n      sub\n        /* \"#utility.yul\":6852:6853   */\n      dup3\n        /* \"#utility.yul\":6849:6930   */\n      gt\n        /* \"#utility.yul\":6846:6848   */\n      iszero\n      tag_199\n      jumpi\n        /* \"#utility.yul\":6933:6951   */\n      tag_200\n      tag_201\n      jump\t// in\n    tag_200:\n        /* \"#utility.yul\":6846:6848   */\n    tag_199:\n        /* \"#utility.yul\":6977:6978   */\n      dup3\n        /* \"#utility.yul\":6974:6975   */\n      dup3\n        /* \"#utility.yul\":6970:6979   */\n      add\n        /* \"#utility.yul\":6963:6979   */\n      swap1\n      pop\n        /* \"#utility.yul\":6724:6985   */\n      swap3\n      swap2\n      pop\n      pop\n      jump\t// out\n        /* \"#utility.yul\":6991:7087   */\n    tag_142:\n      0x00\n        /* \"#utility.yul\":7057:7081   */\n      tag_203\n        /* \"#utility.yul\":7075:7080   */\n      dup3\n        /* \"#utility.yul\":7057:7081   */\n      tag_204\n      jump\t// in\n    tag_203:\n        /* \"#utility.yul\":7046:7081   */\n      swap1\n      pop\n        /* \"#utility.yul\":7036:7087   */\n      swap2\n      swap1\n      pop\n      jump\t// out\n        /* \"#utility.yul\":7093:7220   */\n    tag_205:\n      0x00\n        /* \"#utility.yul\":7167:7172   */\n      dup2\n        /* \"#utility.yul\":7156:7172   */\n      swap1\n      pop\n        /* \"#utility.yul\":7173:7214   */\n      tag_207\n        /* \"#utility.yul\":7208:7213   */\n      dup3\n        /* \"#utility.yul\":7173:7214   */\n      tag_208\n      jump\t// in\n    tag_207:\n        /* \"#utility.yul\":7146:7220   */\n      swap2\n      swap1\n      pop\n      jump\t// out\n        /* \"#utility.yul\":7226:7363   */\n    tag_209:\n      0x00\n        /* \"#utility.yul\":7305:7310   */\n      dup2\n        /* \"#utility.yul\":7294:7310   */\n      swap1\n      pop\n        /* \"#utility.yul\":7311:7357   */\n      tag_211\n        /* \"#utility.yul\":7351:7356   */\n      dup3\n        /* \"#utility.yul\":7311:7357   */\n      tag_212\n      jump\t// in\n    tag_211:\n        /* \"#utility.yul\":7284:7363   */\n      swap2\n      swap1\n      pop\n      jump\t// out\n        /* \"#utility.yul\":7369:7495   */\n    tag_204:\n      0x00\n        /* \"#utility.yul\":7446:7488   */\n      0xffffffffffffffffffffffffffffffffffffffff\n        /* \"#utility.yul\":7439:7444   */\n      dup3\n        /* \"#utility.yul\":7435:7489   */\n      and\n        /* \"#utility.yul\":7424:7489   */\n      swap1\n      pop\n        /* \"#utility.yul\":7414:7495   */\n      swap2\n      swap1\n      pop\n      jump\t// out\n        /* \"#utility.yul\":7501:7578   */\n    tag_167:\n      0x00\n        /* \"#utility.yul\":7567:7572   */\n      dup2\n        /* \"#utility.yul\":7556:7572   */\n      swap1\n      pop\n        /* \"#utility.yul\":7546:7578   */\n      swap2\n      swap1\n      pop\n      jump\t// out\n        /* \"#utility.yul\":7584:7711   */\n    tag_146:\n      0x00\n        /* \"#utility.yul\":7673:7705   */\n      tag_216\n        /* \"#utility.yul\":7699:7704   */\n      dup3\n        /* \"#utility.yul\":7673:7705   */\n      tag_205\n      jump\t// in\n    tag_216:\n        /* \"#utility.yul\":7660:7705   */\n      swap1\n      pop\n        /* \"#utility.yul\":7650:7711   */\n      swap2\n      swap1\n      pop\n      jump\t// out\n        /* \"#utility.yul\":7717:7854   */\n    tag_150:\n      0x00\n        /* \"#utility.yul\":7811:7848   */\n      tag_218\n        /* \"#utility.yul\":7842:7847   */\n      dup3\n        /* \"#utility.yul\":7811:7848   */\n      tag_209\n      jump\t// in\n    tag_218:\n        /* \"#utility.yul\":7798:7848   */\n      swap1\n      pop\n        /* \"#utility.yul\":7788:7854   */\n      swap2\n      swap1\n      pop\n      jump\t// out\n        /* \"#utility.yul\":7860:8014   */\n    tag_118:\n        /* \"#utility.yul\":7944:7950   */\n      dup3\n        /* \"#utility.yul\":7939:7942   */\n      dup2\n        /* \"#utility.yul\":7934:7937   */\n      dup4\n        /* \"#utility.yul\":7921:7951   */\n      calldatacopy\n        /* \"#utility.yul\":8006:8007   */\n      0x00\n        /* \"#utility.yul\":7997:8003   */\n      dup4\n        /* \"#utility.yul\":7992:7995   */\n      dup4\n        /* \"#utility.yul\":7988:8004   */\n      add\n        /* \"#utility.yul\":7981:8008   */\n      mstore\n        /* \"#utility.yul\":7911:8014   */\n      pop\n      pop\n      pop\n      jump\t// out\n        /* \"#utility.yul\":8020:8327   */\n    tag_158:\n        /* \"#utility.yul\":8088:8089   */\n      0x00\n        /* \"#utility.yul\":8098:8211   */\n    tag_221:\n        /* \"#utility.yul\":8112:8118   */\n      dup4\n        /* \"#utility.yul\":8109:8110   */\n      dup2\n        /* \"#utility.yul\":8106:8119   */\n      lt\n        /* \"#utility.yul\":8098:8211   */\n      iszero\n      tag_223\n      jumpi\n        /* \"#utility.yul\":8197:8198   */\n      dup1\n        /* \"#utility.yul\":8192:8195   */\n      dup3\n        /* \"#utility.yul\":8188:8199   */\n      add\n        /* \"#utility.yul\":8182:8200   */\n      mload\n        /* \"#utility.yul\":8178:8179   */\n      dup2\n        /* \"#utility.yul\":8173:8176   */\n      dup5\n        /* \"#utility.yul\":8169:8180   */\n      add\n        /* \"#utility.yul\":8162:8201   */\n      mstore\n        /* \"#utility.yul\":8134:8136   */\n      0x20\n        /* \"#utility.yul\":8131:8132   */\n      dup2\n        /* \"#utility.yul\":8127:8137   */\n      add\n        /* \"#utility.yul\":8122:8137   */\n      swap1\n      pop\n        /* \"#utility.yul\":8098:8211   */\n      jump(tag_221)\n    tag_223:\n        /* \"#utility.yul\":8229:8235   */\n      dup4\n        /* \"#utility.yul\":8226:8227   */\n      dup2\n        /* \"#utility.yul\":8223:8236   */\n      gt\n        /* \"#utility.yul\":8220:8222   */\n      iszero\n      tag_224\n      jumpi\n        /* \"#utility.yul\":8309:8310   */\n      0x00\n        /* \"#utility.yul\":8300:8306   */\n      dup5\n        /* \"#utility.yul\":8295:8298   */\n      dup5\n        /* \"#utility.yul\":8291:8307   */\n      add\n        /* \"#utility.yul\":8284:8311   */\n      mstore\n        /* \"#utility.yul\":8220:8222   */\n    tag_224:\n        /* \"#utility.yul\":8069:8327   */\n      pop\n      pop\n      pop\n      pop\n      jump\t// out\n        /* \"#utility.yul\":8333:8653   */\n    tag_53:\n      0x00\n        /* \"#utility.yul\":8414:8415   */\n      0x02\n        /* \"#utility.yul\":8408:8412   */\n      dup3\n        /* \"#utility.yul\":8404:8416   */\n      div\n        /* \"#utility.yul\":8394:8416   */\n      swap1\n      pop\n        /* \"#utility.yul\":8461:8462   */\n      0x01\n        /* \"#utility.yul\":8455:8459   */\n      dup3\n        /* \"#utility.yul\":8451:8463   */\n      and\n        /* \"#utility.yul\":8482:8500   */\n      dup1\n        /* \"#utility.yul\":8472:8474   */\n      tag_226\n      jumpi\n        /* \"#utility.yul\":8538:8542   */\n      0x7f\n        /* \"#utility.yul\":8530:8536   */\n      dup3\n        /* \"#utility.yul\":8526:8543   */\n      and\n        /* \"#utility.yul\":8516:8543   */\n      swap2\n      pop\n        /* \"#utility.yul\":8472:8474   */\n    tag_226:\n        /* \"#utility.yul\":8600:8602   */\n      0x20\n        /* \"#utility.yul\":8592:8598   */\n      dup3\n        /* \"#utility.yul\":8589:8603   */\n      lt\n        /* \"#utility.yul\":8569:8587   */\n      dup2\n        /* \"#utility.yul\":8566:8604   */\n      eq\n        /* \"#utility.yul\":8563:8565   */\n      iszero\n      tag_227\n      jumpi\n        /* \"#utility.yul\":8619:8637   */\n      tag_228\n      tag_229\n      jump\t// in\n    tag_228:\n        /* \"#utility.yul\":8563:8565   */\n    tag_227:\n        /* \"#utility.yul\":8384:8653   */\n      pop\n      swap2\n      swap1\n      pop\n      jump\t// out\n        /* \"#utility.yul\":8659:8839   */\n    tag_201:\n        /* \"#utility.yul\":8707:8784   */\n      0x4e487b7100000000000000000000000000000000000000000000000000000000\n        /* \"#utility.yul\":8704:8705   */\n      0x00\n        /* \"#utility.yul\":8697:8785   */\n      mstore\n        /* \"#utility.yul\":8804:8808   */\n      0x11\n        /* \"#utility.yul\":8801:8802   */\n      0x04\n        /* \"#utility.yul\":8794:8809   */\n      mstore\n        /* \"#utility.yul\":8828:8832   */\n      0x24\n        /* \"#utility.yul\":8825:8826   */\n      0x00\n        /* \"#utility.yul\":8818:8833   */\n      revert\n        /* \"#utility.yul\":8845:9025   */\n    tag_231:\n        /* \"#utility.yul\":8893:8970   */\n      0x4e487b7100000000000000000000000000000000000000000000000000000000\n        /* \"#utility.yul\":8890:8891   */\n      0x00\n        /* \"#utility.yul\":8883:8971   */\n      mstore\n        /* \"#utility.yul\":8990:8994   */\n      0x21\n        /* \"#utility.yul\":8987:8988   */\n      0x04\n        /* \"#utility.yul\":8980:8995   */\n      mstore\n        /* \"#utility.yul\":9014:9018   */\n      0x24\n        /* \"#utility.yul\":9011:9012   */\n      0x00\n        /* \"#utility.yul\":9004:9019   */\n      revert\n        /* \"#utility.yul\":9031:9211   */\n    tag_229:\n        /* \"#utility.yul\":9079:9156   */\n      0x4e487b7100000000000000000000000000000000000000000000000000000000\n        /* \"#utility.yul\":9076:9077   */\n      0x00\n        /* \"#utility.yul\":9069:9157   */\n      mstore\n        /* \"#utility.yul\":9176:9180   */\n      0x22\n        /* \"#utility.yul\":9173:9174   */\n      0x04\n        /* \"#utility.yul\":9166:9181   */\n      mstore\n        /* \"#utility.yul\":9200:9204   */\n      0x24\n        /* \"#utility.yul\":9197:9198   */\n      0x00\n        /* \"#utility.yul\":9190:9205   */\n      revert\n        /* \"#utility.yul\":9217:9397   */\n    tag_190:\n        /* \"#utility.yul\":9265:9342   */\n      0x4e487b7100000000000000000000000000000000000000000000000000000000\n        /* \"#utility.yul\":9262:9263   */\n      0x00\n        /* \"#utility.yul\":9255:9343   */\n      mstore\n        /* \"#utility.yul\":9362:9366   */\n      0x41\n        /* \"#utility.yul\":9359:9360   */\n      0x04\n        /* \"#utility.yul\":9352:9367   */\n      mstore\n        /* \"#utility.yul\":9386:9390   */\n      0x24\n        /* \"#utility.yul\":9383:9384   */\n      0x00\n        /* \"#utility.yul\":9376:9391   */\n      revert\n        /* \"#utility.yul\":9403:9505   */\n    tag_160:\n      0x00\n        /* \"#utility.yul\":9495:9497   */\n      0x1f\n        /* \"#utility.yul\":9491:9498   */\n      not\n        /* \"#utility.yul\":9486:9488   */\n      0x1f\n        /* \"#utility.yul\":9479:9484   */\n      dup4\n        /* \"#utility.yul\":9475:9489   */\n      add\n        /* \"#utility.yul\":9471:9499   */\n      and\n        /* \"#utility.yul\":9461:9499   */\n      swap1\n      pop\n        /* \"#utility.yul\":9451:9505   */\n      swap2\n      swap1\n      pop\n      jump\t// out\n        /* \"#utility.yul\":9511:9624   */\n    tag_208:\n        /* \"#utility.yul\":9592:9593   */\n      0x07\n        /* \"#utility.yul\":9585:9590   */\n      dup2\n        /* \"#utility.yul\":9582:9594   */\n      lt\n        /* \"#utility.yul\":9572:9574   */\n      tag_237\n      jumpi\n        /* \"#utility.yul\":9598:9616   */\n      tag_238\n      tag_231\n      jump\t// in\n    tag_238:\n        /* \"#utility.yul\":9572:9574   */\n    tag_237:\n        /* \"#utility.yul\":9562:9624   */\n      pop\n      jump\t// out\n        /* \"#utility.yul\":9630:9748   */\n    tag_212:\n        /* \"#utility.yul\":9716:9717   */\n      0x04\n        /* \"#utility.yul\":9709:9714   */\n      dup2\n        /* \"#utility.yul\":9706:9718   */\n      lt\n        /* \"#utility.yul\":9696:9698   */\n      tag_240\n      jumpi\n        /* \"#utility.yul\":9722:9740   */\n      tag_241\n      tag_231\n      jump\t// in\n    tag_241:\n        /* \"#utility.yul\":9696:9698   */\n    tag_240:\n        /* \"#utility.yul\":9686:9748   */\n      pop\n      jump\t// out\n        /* \"#utility.yul\":9754:9876   */\n    tag_126:\n        /* \"#utility.yul\":9827:9851   */\n      tag_243\n        /* \"#utility.yul\":9845:9850   */\n      dup2\n        /* \"#utility.yul\":9827:9851   */\n      tag_167\n      jump\t// in\n    tag_243:\n        /* \"#utility.yul\":9820:9825   */\n      dup2\n        /* \"#utility.yul\":9817:9852   */\n      eq\n        /* \"#utility.yul\":9807:9809   */\n      tag_244\n      jumpi\n        /* \"#utility.yul\":9866:9867   */\n      0x00\n        /* \"#utility.yul\":9863:9864   */\n      dup1\n        /* \"#utility.yul\":9856:9868   */\n      revert\n        /* \"#utility.yul\":9807:9809   */\n    tag_244:\n        /* \"#utility.yul\":9797:9876   */\n      pop\n      jump\t// out\n\n    auxdata: 0xa26469706673582212204529c31cfa0c41a26f07dbdb697f86a58b2829a6d3fc89cfb0fe3ff2d71c172864736f6c63430008000033\n}\n",
				"bytecode": {
					"linkReferences": {},
					"object": "608060405260008055600060025534801561001957600080fd5b5033600560006101000a81548173ffffffffffffffffffffffffffffffffffffffff021916908373ffffffffffffffffffffffffffffffffffffffff1602179055506117038061006a6000396000f3fe608060405234801561001057600080fd5b506004361061007d5760003560e01c806335c1d3491161005b57806335c1d349146100ee57806362d6bbdf146101225780638da5cb5b1461013e5780638f5ae7991461015c5761007d565b806315533a271461008257806317b47cc41461009e5780632fa5ad1a146100d2575b600080fd5b61009c60048036038101906100979190611169565b610178565b005b6100b860048036038101906100b391906111fe565b610466565b6040516100c99594939291906112f7565b60405180910390f35b6100ec60048036038101906100e79190611169565b610551565b005b610108600480360381019061010391906111fe565b61083f565b604051610119959493929190611351565b60405180910390f35b61013c600480360381019061013791906111aa565b61092a565b005b610146610c3b565b60405161015391906112dc565b60405180910390f35b61017660048036038101906101719190611169565b610c61565b005b610180610f4f565b8181600001819052506002548160200181815250506000816040019060038111156101d4577f4e487b7100000000000000000000000000000000000000000000000000000000600052602160045260246000fd5b9081600381111561020e577f4e487b7100000000000000000000000000000000000000000000000000000000600052602160045260246000fd5b8152505033816060019073ffffffffffffffffffffffffffffffffffffffff16908173ffffffffffffffffffffffffffffffffffffffff16815250506000816080018181525050806003600060025481526020019081526020016000206000820151816000019080519060200190610287929190610fcc565b506020820151816001015560408201518160020160006101000a81548160ff021916908360038111156102e3577f4e487b7100000000000000000000000000000000000000000000000000000000600052602160045260246000fd5b021790555060608201518160020160016101000a81548173ffffffffffffffffffffffffffffffffffffffff021916908373ffffffffffffffffffffffffffffffffffffffff1602179055506080820151816003015590505080600460003373ffffffffffffffffffffffffffffffffffffffff1673ffffffffffffffffffffffffffffffffffffffff1681526020019081526020016000206000820151816000019080519060200190610398929190610fcc565b506020820151816001015560408201518160020160006101000a81548160ff021916908360038111156103f4577f4e487b7100000000000000000000000000000000000000000000000000000000600052602160045260246000fd5b021790555060608201518160020160016101000a81548173ffffffffffffffffffffffffffffffffffffffff021916908373ffffffffffffffffffffffffffffffffffffffff16021790555060808201518160030155905050600160025461045c9190611471565b6002819055505050565b60016020528060005260406000206000915090508060000180546104899061158f565b80601f01602080910402602001604051908101604052809291908181526020018280546104b59061158f565b80156105025780601f106104d757610100808354040283529160200191610502565b820191906000526020600020905b8154815290600101906020018083116104e557829003601f168201915b5050505050908060010154908060020160009054906101000a900473ffffffffffffffffffffffffffffffffffffffff16908060020160149054906101000a900460ff16908060030154905085565b610559610f4f565b81816000018190525060025481602001818152505060008160800181815250506001816040019060038111156105b8577f4e487b7100000000000000000000000000000000000000000000000000000000600052602160045260246000fd5b908160038111156105f2577f4e487b7100000000000000000000000000000000000000000000000000000000600052602160045260246000fd5b8152505033816060019073ffffffffffffffffffffffffffffffffffffffff16908173ffffffffffffffffffffffffffffffffffffffff1681525050806003600060025481526020019081526020016000206000820151816000019080519060200190610660929190610fcc565b506020820151816001015560408201518160020160006101000a81548160ff021916908360038111156106bc577f4e487b7100000000000000000000000000000000000000000000000000000000600052602160045260246000fd5b021790555060608201518160020160016101000a81548173ffffffffffffffffffffffffffffffffffffffff021916908373ffffffffffffffffffffffffffffffffffffffff1602179055506080820151816003015590505080600460003373ffffffffffffffffffffffffffffffffffffffff1673ffffffffffffffffffffffffffffffffffffffff1681526020019081526020016000206000820151816000019080519060200190610771929190610fcc565b506020820151816001015560408201518160020160006101000a81548160ff021916908360038111156107cd577f4e487b7100000000000000000000000000000000000000000000000000000000600052602160045260246000fd5b021790555060608201518160020160016101000a81548173ffffffffffffffffffffffffffffffffffffffff021916908373ffffffffffffffffffffffffffffffffffffffff1602179055506080820151816003015590505060016002546108359190611471565b6002819055505050565b60036020528060005260406000206000915090508060000180546108629061158f565b80601f016020809104026020016040519081016040528092919081815260200182805461088e9061158f565b80156108db5780601f106108b0576101008083540402835291602001916108db565b820191906000526020600020905b8154815290600101906020018083116108be57829003601f168201915b5050505050908060010154908060020160009054906101000a900460ff16908060020160019054906101000a900473ffffffffffffffffffffffffffffffffffffffff16908060030154905085565b3360006003811115610965577f4e487b7100000000000000000000000000000000000000000000000000000000600052602160045260246000fd5b600460008373ffffffffffffffffffffffffffffffffffffffff1673ffffffffffffffffffffffffffffffffffffffff16815260200190815260200160002060020160009054906101000a900460ff1660038111156109ed577f4e487b7100000000000000000000000000000000000000000000000000000000600052602160045260246000fd5b14610a2d576040517f08c379a0000000000000000000000000000000000000000000000000000000008152600401610a24906113ab565b60405180910390fd5b610a35611052565b83816000018190525060005481602001818152505033816040019073ffffffffffffffffffffffffffffffffffffffff16908173ffffffffffffffffffffffffffffffffffffffff1681525050600081606001906006811115610ac1577f4e487b7100000000000000000000000000000000000000000000000000000000600052602160045260246000fd5b90816006811115610afb577f4e487b7100000000000000000000000000000000000000000000000000000000600052602160045260246000fd5b815250508060016000805481526020019081526020016000206000820151816000019080519060200190610b30929190610fcc565b506020820151816001015560408201518160020160006101000a81548173ffffffffffffffffffffffffffffffffffffffff021916908373ffffffffffffffffffffffffffffffffffffffff16021790555060608201518160020160146101000a81548160ff02191690836006811115610bd3577f4e487b7100000000000000000000000000000000000000000000000000000000600052602160045260246000fd5b0217905550608082015181600301559050507f4e95503bf2c40739506d6f0afb0fe6be42ce748d90f3f516386892fb6096e5bc60005433604051610c189291906113cb565b60405180910390a16001600054610c2f9190611471565b60008190555050505050565b600560009054906101000a900473ffffffffffffffffffffffffffffffffffffffff1681565b610c69610f4f565b8181600001819052506002548160200181815250506000816080018181525050600381604001906003811115610cc8577f4e487b7100000000000000000000000000000000000000000000000000000000600052602160045260246000fd5b90816003811115610d02577f4e487b7100000000000000000000000000000000000000000000000000000000600052602160045260246000fd5b8152505033816060019073ffffffffffffffffffffffffffffffffffffffff16908173ffffffffffffffffffffffffffffffffffffffff1681525050806003600060025481526020019081526020016000206000820151816000019080519060200190610d70929190610fcc565b506020820151816001015560408201518160020160006101000a81548160ff02191690836003811115610dcc577f4e487b7100000000000000000000000000000000000000000000000000000000600052602160045260246000fd5b021790555060608201518160020160016101000a81548173ffffffffffffffffffffffffffffffffffffffff021916908373ffffffffffffffffffffffffffffffffffffffff1602179055506080820151816003015590505080600460003373ffffffffffffffffffffffffffffffffffffffff1673ffffffffffffffffffffffffffffffffffffffff1681526020019081526020016000206000820151816000019080519060200190610e81929190610fcc565b506020820151816001015560408201518160020160006101000a81548160ff02191690836003811115610edd577f4e487b7100000000000000000000000000000000000000000000000000000000600052602160045260246000fd5b021790555060608201518160020160016101000a81548173ffffffffffffffffffffffffffffffffffffffff021916908373ffffffffffffffffffffffffffffffffffffffff160217905550608082015181600301559050506001600254610f459190611471565b6002819055505050565b6040518060a00160405280606081526020016000815260200160006003811115610fa2577f4e487b7100000000000000000000000000000000000000000000000000000000600052602160045260246000fd5b8152602001600073ffffffffffffffffffffffffffffffffffffffff168152602001600081525090565b828054610fd89061158f565b90600052602060002090601f016020900481019282610ffa5760008555611041565b82601f1061101357805160ff1916838001178555611041565b82800160010185558215611041579182015b82811115611040578251825591602001919060010190611025565b5b50905061104e91906110cf565b5090565b6040518060a001604052806060815260200160008152602001600073ffffffffffffffffffffffffffffffffffffffff168152602001600060068111156110c2577f4e487b7100000000000000000000000000000000000000000000000000000000600052602160045260246000fd5b8152602001600081525090565b5b808211156110e85760008160009055506001016110d0565b5090565b60006110ff6110fa84611425565b6113f4565b90508281526020810184848401111561111757600080fd5b61112284828561154d565b509392505050565b600082601f83011261113b57600080fd5b813561114b8482602086016110ec565b91505092915050565b600081359050611163816116b6565b92915050565b60006020828403121561117b57600080fd5b600082013567ffffffffffffffff81111561119557600080fd5b6111a18482850161112a565b91505092915050565b600080604083850312156111bd57600080fd5b600083013567ffffffffffffffff8111156111d757600080fd5b6111e38582860161112a565b92505060206111f485828601611154565b9150509250929050565b60006020828403121561121057600080fd5b600061121e84828501611154565b91505092915050565b611230816114c7565b82525050565b61123f81611529565b82525050565b61124e8161153b565b82525050565b600061125f82611455565b6112698185611460565b935061127981856020860161155c565b6112828161167d565b840191505092915050565b600061129a601a83611460565b91507f796f752063616e6e6f7420616464206e65772070726f647563740000000000006000830152602082019050919050565b6112d68161151f565b82525050565b60006020820190506112f16000830184611227565b92915050565b600060a08201905081810360008301526113118188611254565b905061132060208301876112cd565b61132d6040830186611227565b61133a6060830185611236565b61134760808301846112cd565b9695505050505050565b600060a082019050818103600083015261136b8188611254565b905061137a60208301876112cd565b6113876040830186611245565b6113946060830185611227565b6113a160808301846112cd565b9695505050505050565b600060208201905081810360008301526113c48161128d565b9050919050565b60006040820190506113e060008301856112cd565b6113ed6020830184611227565b9392505050565b6000604051905081810181811067ffffffffffffffff8211171561141b5761141a61164e565b5b8060405250919050565b600067ffffffffffffffff8211156114405761143f61164e565b5b601f19601f8301169050602081019050919050565b600081519050919050565b600082825260208201905092915050565b600061147c8261151f565b91506114878361151f565b9250827fffffffffffffffffffffffffffffffffffffffffffffffffffffffffffffffff038211156114bc576114bb6115c1565b5b828201905092915050565b60006114d2826114ff565b9050919050565b60008190506114e78261168e565b919050565b60008190506114fa826116a2565b919050565b600073ffffffffffffffffffffffffffffffffffffffff82169050919050565b6000819050919050565b6000611534826114d9565b9050919050565b6000611546826114ec565b9050919050565b82818337600083830152505050565b60005b8381101561157a57808201518184015260208101905061155f565b83811115611589576000848401525b50505050565b600060028204905060018216806115a757607f821691505b602082108114156115bb576115ba61161f565b5b50919050565b7f4e487b7100000000000000000000000000000000000000000000000000000000600052601160045260246000fd5b7f4e487b7100000000000000000000000000000000000000000000000000000000600052602160045260246000fd5b7f4e487b7100000000000000000000000000000000000000000000000000000000600052602260045260246000fd5b7f4e487b7100000000000000000000000000000000000000000000000000000000600052604160045260246000fd5b6000601f19601f8301169050919050565b6007811061169f5761169e6115f0565b5b50565b600481106116b3576116b26115f0565b5b50565b6116bf8161151f565b81146116ca57600080fd5b5056fea26469706673582212204529c31cfa0c41a26f07dbdb697f86a58b2829a6d3fc89cfb0fe3ff2d71c172864736f6c63430008000033",
					"opcodes": "PUSH1 0x80 PUSH1 0x40 MSTORE PUSH1 0x0 DUP1 SSTORE PUSH1 0x0 PUSH1 0x2 SSTORE CALLVALUE DUP1 ISZERO PUSH2 0x19 JUMPI PUSH1 0x0 DUP1 REVERT JUMPDEST POP CALLER PUSH1 0x5 PUSH1 0x0 PUSH2 0x100 EXP DUP2 SLOAD DUP2 PUSH20 0xFFFFFFFFFFFFFFFFFFFFFFFFFFFFFFFFFFFFFFFF MUL NOT AND SWAP1 DUP4 PUSH20 0xFFFFFFFFFFFFFFFFFFFFFFFFFFFFFFFFFFFFFFFF AND MUL OR SWAP1 SSTORE POP PUSH2 0x1703 DUP1 PUSH2 0x6A PUSH1 0x0 CODECOPY PUSH1 0x0 RETURN INVALID PUSH1 0x80 PUSH1 0x40 MSTORE CALLVALUE DUP1 ISZERO PUSH2 0x10 JUMPI PUSH1 0x0 DUP1 REVERT JUMPDEST POP PUSH1 0x4 CALLDATASIZE LT PUSH2 0x7D JUMPI PUSH1 0x0 CALLDATALOAD PUSH1 0xE0 SHR DUP1 PUSH4 0x35C1D349 GT PUSH2 0x5B JUMPI DUP1 PUSH4 0x35C1D349 EQ PUSH2 0xEE JUMPI DUP1 PUSH4 0x62D6BBDF EQ PUSH2 0x122 JUMPI DUP1 PUSH4 0x8DA5CB5B EQ PUSH2 0x13E JUMPI DUP1 PUSH4 0x8F5AE799 EQ PUSH2 0x15C JUMPI PUSH2 0x7D JUMP JUMPDEST DUP1 PUSH4 0x15533A27 EQ PUSH2 0x82 JUMPI DUP1 PUSH4 0x17B47CC4 EQ PUSH2 0x9E JUMPI DUP1 PUSH4 0x2FA5AD1A EQ PUSH2 0xD2 JUMPI JUMPDEST PUSH1 0x0 DUP1 REVERT JUMPDEST PUSH2 0x9C PUSH1 0x4 DUP1 CALLDATASIZE SUB DUP2 ADD SWAP1 PUSH2 0x97 SWAP2 SWAP1 PUSH2 0x1169 JUMP JUMPDEST PUSH2 0x178 JUMP JUMPDEST STOP JUMPDEST PUSH2 0xB8 PUSH1 0x4 DUP1 CALLDATASIZE SUB DUP2 ADD SWAP1 PUSH2 0xB3 SWAP2 SWAP1 PUSH2 0x11FE JUMP JUMPDEST PUSH2 0x466 JUMP JUMPDEST PUSH1 0x40 MLOAD PUSH2 0xC9 SWAP6 SWAP5 SWAP4 SWAP3 SWAP2 SWAP1 PUSH2 0x12F7 JUMP JUMPDEST PUSH1 0x40 MLOAD DUP1 SWAP2 SUB SWAP1 RETURN JUMPDEST PUSH2 0xEC PUSH1 0x4 DUP1 CALLDATASIZE SUB DUP2 ADD SWAP1 PUSH2 0xE7 SWAP2 SWAP1 PUSH2 0x1169 JUMP JUMPDEST PUSH2 0x551 JUMP JUMPDEST STOP JUMPDEST PUSH2 0x108 PUSH1 0x4 DUP1 CALLDATASIZE SUB DUP2 ADD SWAP1 PUSH2 0x103 SWAP2 SWAP1 PUSH2 0x11FE JUMP JUMPDEST PUSH2 0x83F JUMP JUMPDEST PUSH1 0x40 MLOAD PUSH2 0x119 SWAP6 SWAP5 SWAP4 SWAP3 SWAP2 SWAP1 PUSH2 0x1351 JUMP JUMPDEST PUSH1 0x40 MLOAD DUP1 SWAP2 SUB SWAP1 RETURN JUMPDEST PUSH2 0x13C PUSH1 0x4 DUP1 CALLDATASIZE SUB DUP2 ADD SWAP1 PUSH2 0x137 SWAP2 SWAP1 PUSH2 0x11AA JUMP JUMPDEST PUSH2 0x92A JUMP JUMPDEST STOP JUMPDEST PUSH2 0x146 PUSH2 0xC3B JUMP JUMPDEST PUSH1 0x40 MLOAD PUSH2 0x153 SWAP2 SWAP1 PUSH2 0x12DC JUMP JUMPDEST PUSH1 0x40 MLOAD DUP1 SWAP2 SUB SWAP1 RETURN JUMPDEST PUSH2 0x176 PUSH1 0x4 DUP1 CALLDATASIZE SUB DUP2 ADD SWAP1 PUSH2 0x171 SWAP2 SWAP1 PUSH2 0x1169 JUMP JUMPDEST PUSH2 0xC61 JUMP JUMPDEST STOP JUMPDEST PUSH2 0x180 PUSH2 0xF4F JUMP JUMPDEST DUP2 DUP2 PUSH1 0x0 ADD DUP2 SWAP1 MSTORE POP PUSH1 0x2 SLOAD DUP2 PUSH1 0x20 ADD DUP2 DUP2 MSTORE POP POP PUSH1 0x0 DUP2 PUSH1 0x40 ADD SWAP1 PUSH1 0x3 DUP2 GT ISZERO PUSH2 0x1D4 JUMPI PUSH32 0x4E487B7100000000000000000000000000000000000000000000000000000000 PUSH1 0x0 MSTORE PUSH1 0x21 PUSH1 0x4 MSTORE PUSH1 0x24 PUSH1 0x0 REVERT JUMPDEST SWAP1 DUP2 PUSH1 0x3 DUP2 GT ISZERO PUSH2 0x20E JUMPI PUSH32 0x4E487B7100000000000000000000000000000000000000000000000000000000 PUSH1 0x0 MSTORE PUSH1 0x21 PUSH1 0x4 MSTORE PUSH1 0x24 PUSH1 0x0 REVERT JUMPDEST DUP2 MSTORE POP POP CALLER DUP2 PUSH1 0x60 ADD SWAP1 PUSH20 0xFFFFFFFFFFFFFFFFFFFFFFFFFFFFFFFFFFFFFFFF AND SWAP1 DUP2 PUSH20 0xFFFFFFFFFFFFFFFFFFFFFFFFFFFFFFFFFFFFFFFF AND DUP2 MSTORE POP POP PUSH1 0x0 DUP2 PUSH1 0x80 ADD DUP2 DUP2 MSTORE POP POP DUP1 PUSH1 0x3 PUSH1 0x0 PUSH1 0x2 SLOAD DUP2 MSTORE PUSH1 0x20 ADD SWAP1 DUP2 MSTORE PUSH1 0x20 ADD PUSH1 0x0 KECCAK256 PUSH1 0x0 DUP3 ADD MLOAD DUP2 PUSH1 0x0 ADD SWAP1 DUP1 MLOAD SWAP1 PUSH1 0x20 ADD SWAP1 PUSH2 0x287 SWAP3 SWAP2 SWAP1 PUSH2 0xFCC JUMP JUMPDEST POP PUSH1 0x20 DUP3 ADD MLOAD DUP2 PUSH1 0x1 ADD SSTORE PUSH1 0x40 DUP3 ADD MLOAD DUP2 PUSH1 0x2 ADD PUSH1 0x0 PUSH2 0x100 EXP DUP2 SLOAD DUP2 PUSH1 0xFF MUL NOT AND SWAP1 DUP4 PUSH1 0x3 DUP2 GT ISZERO PUSH2 0x2E3 JUMPI PUSH32 0x4E487B7100000000000000000000000000000000000000000000000000000000 PUSH1 0x0 MSTORE PUSH1 0x21 PUSH1 0x4 MSTORE PUSH1 0x24 PUSH1 0x0 REVERT JUMPDEST MUL OR SWAP1 SSTORE POP PUSH1 0x60 DUP3 ADD MLOAD DUP2 PUSH1 0x2 ADD PUSH1 0x1 PUSH2 0x100 EXP DUP2 SLOAD DUP2 PUSH20 0xFFFFFFFFFFFFFFFFFFFFFFFFFFFFFFFFFFFFFFFF MUL NOT AND SWAP1 DUP4 PUSH20 0xFFFFFFFFFFFFFFFFFFFFFFFFFFFFFFFFFFFFFFFF AND MUL OR SWAP1 SSTORE POP PUSH1 0x80 DUP3 ADD MLOAD DUP2 PUSH1 0x3 ADD SSTORE SWAP1 POP POP DUP1 PUSH1 0x4 PUSH1 0x0 CALLER PUSH20 0xFFFFFFFFFFFFFFFFFFFFFFFFFFFFFFFFFFFFFFFF AND PUSH20 0xFFFFFFFFFFFFFFFFFFFFFFFFFFFFFFFFFFFFFFFF AND DUP2 MSTORE PUSH1 0x20 ADD SWAP1 DUP2 MSTORE PUSH1 0x20 ADD PUSH1 0x0 KECCAK256 PUSH1 0x0 DUP3 ADD MLOAD DUP2 PUSH1 0x0 ADD SWAP1 DUP1 MLOAD SWAP1 PUSH1 0x20 ADD SWAP1 PUSH2 0x398 SWAP3 SWAP2 SWAP1 PUSH2 0xFCC JUMP JUMPDEST POP PUSH1 0x20 DUP3 ADD MLOAD DUP2 PUSH1 0x1 ADD SSTORE PUSH1 0x40 DUP3 ADD MLOAD DUP2 PUSH1 0x2 ADD PUSH1 0x0 PUSH2 0x100 EXP DUP2 SLOAD DUP2 PUSH1 0xFF MUL NOT AND SWAP1 DUP4 PUSH1 0x3 DUP2 GT ISZERO PUSH2 0x3F4 JUMPI PUSH32 0x4E487B7100000000000000000000000000000000000000000000000000000000 PUSH1 0x0 MSTORE PUSH1 0x21 PUSH1 0x4 MSTORE PUSH1 0x24 PUSH1 0x0 REVERT JUMPDEST MUL OR SWAP1 SSTORE POP PUSH1 0x60 DUP3 ADD MLOAD DUP2 PUSH1 0x2 ADD PUSH1 0x1 PUSH2 0x100 EXP DUP2 SLOAD DUP2 PUSH20 0xFFFFFFFFFFFFFFFFFFFFFFFFFFFFFFFFFFFFFFFF MUL NOT AND SWAP1 DUP4 PUSH20 0xFFFFFFFFFFFFFFFFFFFFFFFFFFFFFFFFFFFFFFFF AND MUL OR SWAP1 SSTORE POP PUSH1 0x80 DUP3 ADD MLOAD DUP2 PUSH1 0x3 ADD SSTORE SWAP1 POP POP PUSH1 0x1 PUSH1 0x2 SLOAD PUSH2 0x45C SWAP2 SWAP1 PUSH2 0x1471 JUMP JUMPDEST PUSH1 0x2 DUP2 SWAP1 SSTORE POP POP POP JUMP JUMPDEST PUSH1 0x1 PUSH1 0x20 MSTORE DUP1 PUSH1 0x0 MSTORE PUSH1 0x40 PUSH1 0x0 KECCAK256 PUSH1 0x0 SWAP2 POP SWAP1 POP DUP1 PUSH1 0x0 ADD DUP1 SLOAD PUSH2 0x489 SWAP1 PUSH2 0x158F JUMP JUMPDEST DUP1 PUSH1 0x1F ADD PUSH1 0x20 DUP1 SWAP2 DIV MUL PUSH1 0x20 ADD PUSH1 0x40 MLOAD SWAP1 DUP2 ADD PUSH1 0x40 MSTORE DUP1 SWAP3 SWAP2 SWAP1 DUP2 DUP2 MSTORE PUSH1 0x20 ADD DUP3 DUP1 SLOAD PUSH2 0x4B5 SWAP1 PUSH2 0x158F JUMP JUMPDEST DUP1 ISZERO PUSH2 0x502 JUMPI DUP1 PUSH1 0x1F LT PUSH2 0x4D7 JUMPI PUSH2 0x100 DUP1 DUP4 SLOAD DIV MUL DUP4 MSTORE SWAP2 PUSH1 0x20 ADD SWAP2 PUSH2 0x502 JUMP JUMPDEST DUP3 ADD SWAP2 SWAP1 PUSH1 0x0 MSTORE PUSH1 0x20 PUSH1 0x0 KECCAK256 SWAP1 JUMPDEST DUP2 SLOAD DUP2 MSTORE SWAP1 PUSH1 0x1 ADD SWAP1 PUSH1 0x20 ADD DUP1 DUP4 GT PUSH2 0x4E5 JUMPI DUP3 SWAP1 SUB PUSH1 0x1F AND DUP3 ADD SWAP2 JUMPDEST POP POP POP POP POP SWAP1 DUP1 PUSH1 0x1 ADD SLOAD SWAP1 DUP1 PUSH1 0x2 ADD PUSH1 0x0 SWAP1 SLOAD SWAP1 PUSH2 0x100 EXP SWAP1 DIV PUSH20 0xFFFFFFFFFFFFFFFFFFFFFFFFFFFFFFFFFFFFFFFF AND SWAP1 DUP1 PUSH1 0x2 ADD PUSH1 0x14 SWAP1 SLOAD SWAP1 PUSH2 0x100 EXP SWAP1 DIV PUSH1 0xFF AND SWAP1 DUP1 PUSH1 0x3 ADD SLOAD SWAP1 POP DUP6 JUMP JUMPDEST PUSH2 0x559 PUSH2 0xF4F JUMP JUMPDEST DUP2 DUP2 PUSH1 0x0 ADD DUP2 SWAP1 MSTORE POP PUSH1 0x2 SLOAD DUP2 PUSH1 0x20 ADD DUP2 DUP2 MSTORE POP POP PUSH1 0x0 DUP2 PUSH1 0x80 ADD DUP2 DUP2 MSTORE POP POP PUSH1 0x1 DUP2 PUSH1 0x40 ADD SWAP1 PUSH1 0x3 DUP2 GT ISZERO PUSH2 0x5B8 JUMPI PUSH32 0x4E487B7100000000000000000000000000000000000000000000000000000000 PUSH1 0x0 MSTORE PUSH1 0x21 PUSH1 0x4 MSTORE PUSH1 0x24 PUSH1 0x0 REVERT JUMPDEST SWAP1 DUP2 PUSH1 0x3 DUP2 GT ISZERO PUSH2 0x5F2 JUMPI PUSH32 0x4E487B7100000000000000000000000000000000000000000000000000000000 PUSH1 0x0 MSTORE PUSH1 0x21 PUSH1 0x4 MSTORE PUSH1 0x24 PUSH1 0x0 REVERT JUMPDEST DUP2 MSTORE POP POP CALLER DUP2 PUSH1 0x60 ADD SWAP1 PUSH20 0xFFFFFFFFFFFFFFFFFFFFFFFFFFFFFFFFFFFFFFFF AND SWAP1 DUP2 PUSH20 0xFFFFFFFFFFFFFFFFFFFFFFFFFFFFFFFFFFFFFFFF AND DUP2 MSTORE POP POP DUP1 PUSH1 0x3 PUSH1 0x0 PUSH1 0x2 SLOAD DUP2 MSTORE PUSH1 0x20 ADD SWAP1 DUP2 MSTORE PUSH1 0x20 ADD PUSH1 0x0 KECCAK256 PUSH1 0x0 DUP3 ADD MLOAD DUP2 PUSH1 0x0 ADD SWAP1 DUP1 MLOAD SWAP1 PUSH1 0x20 ADD SWAP1 PUSH2 0x660 SWAP3 SWAP2 SWAP1 PUSH2 0xFCC JUMP JUMPDEST POP PUSH1 0x20 DUP3 ADD MLOAD DUP2 PUSH1 0x1 ADD SSTORE PUSH1 0x40 DUP3 ADD MLOAD DUP2 PUSH1 0x2 ADD PUSH1 0x0 PUSH2 0x100 EXP DUP2 SLOAD DUP2 PUSH1 0xFF MUL NOT AND SWAP1 DUP4 PUSH1 0x3 DUP2 GT ISZERO PUSH2 0x6BC JUMPI PUSH32 0x4E487B7100000000000000000000000000000000000000000000000000000000 PUSH1 0x0 MSTORE PUSH1 0x21 PUSH1 0x4 MSTORE PUSH1 0x24 PUSH1 0x0 REVERT JUMPDEST MUL OR SWAP1 SSTORE POP PUSH1 0x60 DUP3 ADD MLOAD DUP2 PUSH1 0x2 ADD PUSH1 0x1 PUSH2 0x100 EXP DUP2 SLOAD DUP2 PUSH20 0xFFFFFFFFFFFFFFFFFFFFFFFFFFFFFFFFFFFFFFFF MUL NOT AND SWAP1 DUP4 PUSH20 0xFFFFFFFFFFFFFFFFFFFFFFFFFFFFFFFFFFFFFFFF AND MUL OR SWAP1 SSTORE POP PUSH1 0x80 DUP3 ADD MLOAD DUP2 PUSH1 0x3 ADD SSTORE SWAP1 POP POP DUP1 PUSH1 0x4 PUSH1 0x0 CALLER PUSH20 0xFFFFFFFFFFFFFFFFFFFFFFFFFFFFFFFFFFFFFFFF AND PUSH20 0xFFFFFFFFFFFFFFFFFFFFFFFFFFFFFFFFFFFFFFFF AND DUP2 MSTORE PUSH1 0x20 ADD SWAP1 DUP2 MSTORE PUSH1 0x20 ADD PUSH1 0x0 KECCAK256 PUSH1 0x0 DUP3 ADD MLOAD DUP2 PUSH1 0x0 ADD SWAP1 DUP1 MLOAD SWAP1 PUSH1 0x20 ADD SWAP1 PUSH2 0x771 SWAP3 SWAP2 SWAP1 PUSH2 0xFCC JUMP JUMPDEST POP PUSH1 0x20 DUP3 ADD MLOAD DUP2 PUSH1 0x1 ADD SSTORE PUSH1 0x40 DUP3 ADD MLOAD DUP2 PUSH1 0x2 ADD PUSH1 0x0 PUSH2 0x100 EXP DUP2 SLOAD DUP2 PUSH1 0xFF MUL NOT AND SWAP1 DUP4 PUSH1 0x3 DUP2 GT ISZERO PUSH2 0x7CD JUMPI PUSH32 0x4E487B7100000000000000000000000000000000000000000000000000000000 PUSH1 0x0 MSTORE PUSH1 0x21 PUSH1 0x4 MSTORE PUSH1 0x24 PUSH1 0x0 REVERT JUMPDEST MUL OR SWAP1 SSTORE POP PUSH1 0x60 DUP3 ADD MLOAD DUP2 PUSH1 0x2 ADD PUSH1 0x1 PUSH2 0x100 EXP DUP2 SLOAD DUP2 PUSH20 0xFFFFFFFFFFFFFFFFFFFFFFFFFFFFFFFFFFFFFFFF MUL NOT AND SWAP1 DUP4 PUSH20 0xFFFFFFFFFFFFFFFFFFFFFFFFFFFFFFFFFFFFFFFF AND MUL OR SWAP1 SSTORE POP PUSH1 0x80 DUP3 ADD MLOAD DUP2 PUSH1 0x3 ADD SSTORE SWAP1 POP POP PUSH1 0x1 PUSH1 0x2 SLOAD PUSH2 0x835 SWAP2 SWAP1 PUSH2 0x1471 JUMP JUMPDEST PUSH1 0x2 DUP2 SWAP1 SSTORE POP POP POP JUMP JUMPDEST PUSH1 0x3 PUSH1 0x20 MSTORE DUP1 PUSH1 0x0 MSTORE PUSH1 0x40 PUSH1 0x0 KECCAK256 PUSH1 0x0 SWAP2 POP SWAP1 POP DUP1 PUSH1 0x0 ADD DUP1 SLOAD PUSH2 0x862 SWAP1 PUSH2 0x158F JUMP JUMPDEST DUP1 PUSH1 0x1F ADD PUSH1 0x20 DUP1 SWAP2 DIV MUL PUSH1 0x20 ADD PUSH1 0x40 MLOAD SWAP1 DUP2 ADD PUSH1 0x40 MSTORE DUP1 SWAP3 SWAP2 SWAP1 DUP2 DUP2 MSTORE PUSH1 0x20 ADD DUP3 DUP1 SLOAD PUSH2 0x88E SWAP1 PUSH2 0x158F JUMP JUMPDEST DUP1 ISZERO PUSH2 0x8DB JUMPI DUP1 PUSH1 0x1F LT PUSH2 0x8B0 JUMPI PUSH2 0x100 DUP1 DUP4 SLOAD DIV MUL DUP4 MSTORE SWAP2 PUSH1 0x20 ADD SWAP2 PUSH2 0x8DB JUMP JUMPDEST DUP3 ADD SWAP2 SWAP1 PUSH1 0x0 MSTORE PUSH1 0x20 PUSH1 0x0 KECCAK256 SWAP1 JUMPDEST DUP2 SLOAD DUP2 MSTORE SWAP1 PUSH1 0x1 ADD SWAP1 PUSH1 0x20 ADD DUP1 DUP4 GT PUSH2 0x8BE JUMPI DUP3 SWAP1 SUB PUSH1 0x1F AND DUP3 ADD SWAP2 JUMPDEST POP POP POP POP POP SWAP1 DUP1 PUSH1 0x1 ADD SLOAD SWAP1 DUP1 PUSH1 0x2 ADD PUSH1 0x0 SWAP1 SLOAD SWAP1 PUSH2 0x100 EXP SWAP1 DIV PUSH1 0xFF AND SWAP1 DUP1 PUSH1 0x2 ADD PUSH1 0x1 SWAP1 SLOAD SWAP1 PUSH2 0x100 EXP SWAP1 DIV PUSH20 0xFFFFFFFFFFFFFFFFFFFFFFFFFFFFFFFFFFFFFFFF AND SWAP1 DUP1 PUSH1 0x3 ADD SLOAD SWAP1 POP DUP6 JUMP JUMPDEST CALLER PUSH1 0x0 PUSH1 0x3 DUP2 GT ISZERO PUSH2 0x965 JUMPI PUSH32 0x4E487B7100000000000000000000000000000000000000000000000000000000 PUSH1 0x0 MSTORE PUSH1 0x21 PUSH1 0x4 MSTORE PUSH1 0x24 PUSH1 0x0 REVERT JUMPDEST PUSH1 0x4 PUSH1 0x0 DUP4 PUSH20 0xFFFFFFFFFFFFFFFFFFFFFFFFFFFFFFFFFFFFFFFF AND PUSH20 0xFFFFFFFFFFFFFFFFFFFFFFFFFFFFFFFFFFFFFFFF AND DUP2 MSTORE PUSH1 0x20 ADD SWAP1 DUP2 MSTORE PUSH1 0x20 ADD PUSH1 0x0 KECCAK256 PUSH1 0x2 ADD PUSH1 0x0 SWAP1 SLOAD SWAP1 PUSH2 0x100 EXP SWAP1 DIV PUSH1 0xFF AND PUSH1 0x3 DUP2 GT ISZERO PUSH2 0x9ED JUMPI PUSH32 0x4E487B7100000000000000000000000000000000000000000000000000000000 PUSH1 0x0 MSTORE PUSH1 0x21 PUSH1 0x4 MSTORE PUSH1 0x24 PUSH1 0x0 REVERT JUMPDEST EQ PUSH2 0xA2D JUMPI PUSH1 0x40 MLOAD PUSH32 0x8C379A000000000000000000000000000000000000000000000000000000000 DUP2 MSTORE PUSH1 0x4 ADD PUSH2 0xA24 SWAP1 PUSH2 0x13AB JUMP JUMPDEST PUSH1 0x40 MLOAD DUP1 SWAP2 SUB SWAP1 REVERT JUMPDEST PUSH2 0xA35 PUSH2 0x1052 JUMP JUMPDEST DUP4 DUP2 PUSH1 0x0 ADD DUP2 SWAP1 MSTORE POP PUSH1 0x0 SLOAD DUP2 PUSH1 0x20 ADD DUP2 DUP2 MSTORE POP POP CALLER DUP2 PUSH1 0x40 ADD SWAP1 PUSH20 0xFFFFFFFFFFFFFFFFFFFFFFFFFFFFFFFFFFFFFFFF AND SWAP1 DUP2 PUSH20 0xFFFFFFFFFFFFFFFFFFFFFFFFFFFFFFFFFFFFFFFF AND DUP2 MSTORE POP POP PUSH1 0x0 DUP2 PUSH1 0x60 ADD SWAP1 PUSH1 0x6 DUP2 GT ISZERO PUSH2 0xAC1 JUMPI PUSH32 0x4E487B7100000000000000000000000000000000000000000000000000000000 PUSH1 0x0 MSTORE PUSH1 0x21 PUSH1 0x4 MSTORE PUSH1 0x24 PUSH1 0x0 REVERT JUMPDEST SWAP1 DUP2 PUSH1 0x6 DUP2 GT ISZERO PUSH2 0xAFB JUMPI PUSH32 0x4E487B7100000000000000000000000000000000000000000000000000000000 PUSH1 0x0 MSTORE PUSH1 0x21 PUSH1 0x4 MSTORE PUSH1 0x24 PUSH1 0x0 REVERT JUMPDEST DUP2 MSTORE POP POP DUP1 PUSH1 0x1 PUSH1 0x0 DUP1 SLOAD DUP2 MSTORE PUSH1 0x20 ADD SWAP1 DUP2 MSTORE PUSH1 0x20 ADD PUSH1 0x0 KECCAK256 PUSH1 0x0 DUP3 ADD MLOAD DUP2 PUSH1 0x0 ADD SWAP1 DUP1 MLOAD SWAP1 PUSH1 0x20 ADD SWAP1 PUSH2 0xB30 SWAP3 SWAP2 SWAP1 PUSH2 0xFCC JUMP JUMPDEST POP PUSH1 0x20 DUP3 ADD MLOAD DUP2 PUSH1 0x1 ADD SSTORE PUSH1 0x40 DUP3 ADD MLOAD DUP2 PUSH1 0x2 ADD PUSH1 0x0 PUSH2 0x100 EXP DUP2 SLOAD DUP2 PUSH20 0xFFFFFFFFFFFFFFFFFFFFFFFFFFFFFFFFFFFFFFFF MUL NOT AND SWAP1 DUP4 PUSH20 0xFFFFFFFFFFFFFFFFFFFFFFFFFFFFFFFFFFFFFFFF AND MUL OR SWAP1 SSTORE POP PUSH1 0x60 DUP3 ADD MLOAD DUP2 PUSH1 0x2 ADD PUSH1 0x14 PUSH2 0x100 EXP DUP2 SLOAD DUP2 PUSH1 0xFF MUL NOT AND SWAP1 DUP4 PUSH1 0x6 DUP2 GT ISZERO PUSH2 0xBD3 JUMPI PUSH32 0x4E487B7100000000000000000000000000000000000000000000000000000000 PUSH1 0x0 MSTORE PUSH1 0x21 PUSH1 0x4 MSTORE PUSH1 0x24 PUSH1 0x0 REVERT JUMPDEST MUL OR SWAP1 SSTORE POP PUSH1 0x80 DUP3 ADD MLOAD DUP2 PUSH1 0x3 ADD SSTORE SWAP1 POP POP PUSH32 0x4E95503BF2C40739506D6F0AFB0FE6BE42CE748D90F3F516386892FB6096E5BC PUSH1 0x0 SLOAD CALLER PUSH1 0x40 MLOAD PUSH2 0xC18 SWAP3 SWAP2 SWAP1 PUSH2 0x13CB JUMP JUMPDEST PUSH1 0x40 MLOAD DUP1 SWAP2 SUB SWAP1 LOG1 PUSH1 0x1 PUSH1 0x0 SLOAD PUSH2 0xC2F SWAP2 SWAP1 PUSH2 0x1471 JUMP JUMPDEST PUSH1 0x0 DUP2 SWAP1 SSTORE POP POP POP POP POP JUMP JUMPDEST PUSH1 0x5 PUSH1 0x0 SWAP1 SLOAD SWAP1 PUSH2 0x100 EXP SWAP1 DIV PUSH20 0xFFFFFFFFFFFFFFFFFFFFFFFFFFFFFFFFFFFFFFFF AND DUP2 JUMP JUMPDEST PUSH2 0xC69 PUSH2 0xF4F JUMP JUMPDEST DUP2 DUP2 PUSH1 0x0 ADD DUP2 SWAP1 MSTORE POP PUSH1 0x2 SLOAD DUP2 PUSH1 0x20 ADD DUP2 DUP2 MSTORE POP POP PUSH1 0x0 DUP2 PUSH1 0x80 ADD DUP2 DUP2 MSTORE POP POP PUSH1 0x3 DUP2 PUSH1 0x40 ADD SWAP1 PUSH1 0x3 DUP2 GT ISZERO PUSH2 0xCC8 JUMPI PUSH32 0x4E487B7100000000000000000000000000000000000000000000000000000000 PUSH1 0x0 MSTORE PUSH1 0x21 PUSH1 0x4 MSTORE PUSH1 0x24 PUSH1 0x0 REVERT JUMPDEST SWAP1 DUP2 PUSH1 0x3 DUP2 GT ISZERO PUSH2 0xD02 JUMPI PUSH32 0x4E487B7100000000000000000000000000000000000000000000000000000000 PUSH1 0x0 MSTORE PUSH1 0x21 PUSH1 0x4 MSTORE PUSH1 0x24 PUSH1 0x0 REVERT JUMPDEST DUP2 MSTORE POP POP CALLER DUP2 PUSH1 0x60 ADD SWAP1 PUSH20 0xFFFFFFFFFFFFFFFFFFFFFFFFFFFFFFFFFFFFFFFF AND SWAP1 DUP2 PUSH20 0xFFFFFFFFFFFFFFFFFFFFFFFFFFFFFFFFFFFFFFFF AND DUP2 MSTORE POP POP DUP1 PUSH1 0x3 PUSH1 0x0 PUSH1 0x2 SLOAD DUP2 MSTORE PUSH1 0x20 ADD SWAP1 DUP2 MSTORE PUSH1 0x20 ADD PUSH1 0x0 KECCAK256 PUSH1 0x0 DUP3 ADD MLOAD DUP2 PUSH1 0x0 ADD SWAP1 DUP1 MLOAD SWAP1 PUSH1 0x20 ADD SWAP1 PUSH2 0xD70 SWAP3 SWAP2 SWAP1 PUSH2 0xFCC JUMP JUMPDEST POP PUSH1 0x20 DUP3 ADD MLOAD DUP2 PUSH1 0x1 ADD SSTORE PUSH1 0x40 DUP3 ADD MLOAD DUP2 PUSH1 0x2 ADD PUSH1 0x0 PUSH2 0x100 EXP DUP2 SLOAD DUP2 PUSH1 0xFF MUL NOT AND SWAP1 DUP4 PUSH1 0x3 DUP2 GT ISZERO PUSH2 0xDCC JUMPI PUSH32 0x4E487B7100000000000000000000000000000000000000000000000000000000 PUSH1 0x0 MSTORE PUSH1 0x21 PUSH1 0x4 MSTORE PUSH1 0x24 PUSH1 0x0 REVERT JUMPDEST MUL OR SWAP1 SSTORE POP PUSH1 0x60 DUP3 ADD MLOAD DUP2 PUSH1 0x2 ADD PUSH1 0x1 PUSH2 0x100 EXP DUP2 SLOAD DUP2 PUSH20 0xFFFFFFFFFFFFFFFFFFFFFFFFFFFFFFFFFFFFFFFF MUL NOT AND SWAP1 DUP4 PUSH20 0xFFFFFFFFFFFFFFFFFFFFFFFFFFFFFFFFFFFFFFFF AND MUL OR SWAP1 SSTORE POP PUSH1 0x80 DUP3 ADD MLOAD DUP2 PUSH1 0x3 ADD SSTORE SWAP1 POP POP DUP1 PUSH1 0x4 PUSH1 0x0 CALLER PUSH20 0xFFFFFFFFFFFFFFFFFFFFFFFFFFFFFFFFFFFFFFFF AND PUSH20 0xFFFFFFFFFFFFFFFFFFFFFFFFFFFFFFFFFFFFFFFF AND DUP2 MSTORE PUSH1 0x20 ADD SWAP1 DUP2 MSTORE PUSH1 0x20 ADD PUSH1 0x0 KECCAK256 PUSH1 0x0 DUP3 ADD MLOAD DUP2 PUSH1 0x0 ADD SWAP1 DUP1 MLOAD SWAP1 PUSH1 0x20 ADD SWAP1 PUSH2 0xE81 SWAP3 SWAP2 SWAP1 PUSH2 0xFCC JUMP JUMPDEST POP PUSH1 0x20 DUP3 ADD MLOAD DUP2 PUSH1 0x1 ADD SSTORE PUSH1 0x40 DUP3 ADD MLOAD DUP2 PUSH1 0x2 ADD PUSH1 0x0 PUSH2 0x100 EXP DUP2 SLOAD DUP2 PUSH1 0xFF MUL NOT AND SWAP1 DUP4 PUSH1 0x3 DUP2 GT ISZERO PUSH2 0xEDD JUMPI PUSH32 0x4E487B7100000000000000000000000000000000000000000000000000000000 PUSH1 0x0 MSTORE PUSH1 0x21 PUSH1 0x4 MSTORE PUSH1 0x24 PUSH1 0x0 REVERT JUMPDEST MUL OR SWAP1 SSTORE POP PUSH1 0x60 DUP3 ADD MLOAD DUP2 PUSH1 0x2 ADD PUSH1 0x1 PUSH2 0x100 EXP DUP2 SLOAD DUP2 PUSH20 0xFFFFFFFFFFFFFFFFFFFFFFFFFFFFFFFFFFFFFFFF MUL NOT AND SWAP1 DUP4 PUSH20 0xFFFFFFFFFFFFFFFFFFFFFFFFFFFFFFFFFFFFFFFF AND MUL OR SWAP1 SSTORE POP PUSH1 0x80 DUP3 ADD MLOAD DUP2 PUSH1 0x3 ADD SSTORE SWAP1 POP POP PUSH1 0x1 PUSH1 0x2 SLOAD PUSH2 0xF45 SWAP2 SWAP1 PUSH2 0x1471 JUMP JUMPDEST PUSH1 0x2 DUP2 SWAP1 SSTORE POP POP POP JUMP JUMPDEST PUSH1 0x40 MLOAD DUP1 PUSH1 0xA0 ADD PUSH1 0x40 MSTORE DUP1 PUSH1 0x60 DUP2 MSTORE PUSH1 0x20 ADD PUSH1 0x0 DUP2 MSTORE PUSH1 0x20 ADD PUSH1 0x0 PUSH1 0x3 DUP2 GT ISZERO PUSH2 0xFA2 JUMPI PUSH32 0x4E487B7100000000000000000000000000000000000000000000000000000000 PUSH1 0x0 MSTORE PUSH1 0x21 PUSH1 0x4 MSTORE PUSH1 0x24 PUSH1 0x0 REVERT JUMPDEST DUP2 MSTORE PUSH1 0x20 ADD PUSH1 0x0 PUSH20 0xFFFFFFFFFFFFFFFFFFFFFFFFFFFFFFFFFFFFFFFF AND DUP2 MSTORE PUSH1 0x20 ADD PUSH1 0x0 DUP2 MSTORE POP SWAP1 JUMP JUMPDEST DUP3 DUP1 SLOAD PUSH2 0xFD8 SWAP1 PUSH2 0x158F JUMP JUMPDEST SWAP1 PUSH1 0x0 MSTORE PUSH1 0x20 PUSH1 0x0 KECCAK256 SWAP1 PUSH1 0x1F ADD PUSH1 0x20 SWAP1 DIV DUP2 ADD SWAP3 DUP3 PUSH2 0xFFA JUMPI PUSH1 0x0 DUP6 SSTORE PUSH2 0x1041 JUMP JUMPDEST DUP3 PUSH1 0x1F LT PUSH2 0x1013 JUMPI DUP1 MLOAD PUSH1 0xFF NOT AND DUP4 DUP1 ADD OR DUP6 SSTORE PUSH2 0x1041 JUMP JUMPDEST DUP3 DUP1 ADD PUSH1 0x1 ADD DUP6 SSTORE DUP3 ISZERO PUSH2 0x1041 JUMPI SWAP2 DUP3 ADD JUMPDEST DUP3 DUP2 GT ISZERO PUSH2 0x1040 JUMPI DUP3 MLOAD DUP3 SSTORE SWAP2 PUSH1 0x20 ADD SWAP2 SWAP1 PUSH1 0x1 ADD SWAP1 PUSH2 0x1025 JUMP JUMPDEST JUMPDEST POP SWAP1 POP PUSH2 0x104E SWAP2 SWAP1 PUSH2 0x10CF JUMP JUMPDEST POP SWAP1 JUMP JUMPDEST PUSH1 0x40 MLOAD DUP1 PUSH1 0xA0 ADD PUSH1 0x40 MSTORE DUP1 PUSH1 0x60 DUP2 MSTORE PUSH1 0x20 ADD PUSH1 0x0 DUP2 MSTORE PUSH1 0x20 ADD PUSH1 0x0 PUSH20 0xFFFFFFFFFFFFFFFFFFFFFFFFFFFFFFFFFFFFFFFF AND DUP2 MSTORE PUSH1 0x20 ADD PUSH1 0x0 PUSH1 0x6 DUP2 GT ISZERO PUSH2 0x10C2 JUMPI PUSH32 0x4E487B7100000000000000000000000000000000000000000000000000000000 PUSH1 0x0 MSTORE PUSH1 0x21 PUSH1 0x4 MSTORE PUSH1 0x24 PUSH1 0x0 REVERT JUMPDEST DUP2 MSTORE PUSH1 0x20 ADD PUSH1 0x0 DUP2 MSTORE POP SWAP1 JUMP JUMPDEST JUMPDEST DUP1 DUP3 GT ISZERO PUSH2 0x10E8 JUMPI PUSH1 0x0 DUP2 PUSH1 0x0 SWAP1 SSTORE POP PUSH1 0x1 ADD PUSH2 0x10D0 JUMP JUMPDEST POP SWAP1 JUMP JUMPDEST PUSH1 0x0 PUSH2 0x10FF PUSH2 0x10FA DUP5 PUSH2 0x1425 JUMP JUMPDEST PUSH2 0x13F4 JUMP JUMPDEST SWAP1 POP DUP3 DUP2 MSTORE PUSH1 0x20 DUP2 ADD DUP5 DUP5 DUP5 ADD GT ISZERO PUSH2 0x1117 JUMPI PUSH1 0x0 DUP1 REVERT JUMPDEST PUSH2 0x1122 DUP5 DUP3 DUP6 PUSH2 0x154D JUMP JUMPDEST POP SWAP4 SWAP3 POP POP POP JUMP JUMPDEST PUSH1 0x0 DUP3 PUSH1 0x1F DUP4 ADD SLT PUSH2 0x113B JUMPI PUSH1 0x0 DUP1 REVERT JUMPDEST DUP2 CALLDATALOAD PUSH2 0x114B DUP5 DUP3 PUSH1 0x20 DUP7 ADD PUSH2 0x10EC JUMP JUMPDEST SWAP2 POP POP SWAP3 SWAP2 POP POP JUMP JUMPDEST PUSH1 0x0 DUP2 CALLDATALOAD SWAP1 POP PUSH2 0x1163 DUP2 PUSH2 0x16B6 JUMP JUMPDEST SWAP3 SWAP2 POP POP JUMP JUMPDEST PUSH1 0x0 PUSH1 0x20 DUP3 DUP5 SUB SLT ISZERO PUSH2 0x117B JUMPI PUSH1 0x0 DUP1 REVERT JUMPDEST PUSH1 0x0 DUP3 ADD CALLDATALOAD PUSH8 0xFFFFFFFFFFFFFFFF DUP2 GT ISZERO PUSH2 0x1195 JUMPI PUSH1 0x0 DUP1 REVERT JUMPDEST PUSH2 0x11A1 DUP5 DUP3 DUP6 ADD PUSH2 0x112A JUMP JUMPDEST SWAP2 POP POP SWAP3 SWAP2 POP POP JUMP JUMPDEST PUSH1 0x0 DUP1 PUSH1 0x40 DUP4 DUP6 SUB SLT ISZERO PUSH2 0x11BD JUMPI PUSH1 0x0 DUP1 REVERT JUMPDEST PUSH1 0x0 DUP4 ADD CALLDATALOAD PUSH8 0xFFFFFFFFFFFFFFFF DUP2 GT ISZERO PUSH2 0x11D7 JUMPI PUSH1 0x0 DUP1 REVERT JUMPDEST PUSH2 0x11E3 DUP6 DUP3 DUP7 ADD PUSH2 0x112A JUMP JUMPDEST SWAP3 POP POP PUSH1 0x20 PUSH2 0x11F4 DUP6 DUP3 DUP7 ADD PUSH2 0x1154 JUMP JUMPDEST SWAP2 POP POP SWAP3 POP SWAP3 SWAP1 POP JUMP JUMPDEST PUSH1 0x0 PUSH1 0x20 DUP3 DUP5 SUB SLT ISZERO PUSH2 0x1210 JUMPI PUSH1 0x0 DUP1 REVERT JUMPDEST PUSH1 0x0 PUSH2 0x121E DUP5 DUP3 DUP6 ADD PUSH2 0x1154 JUMP JUMPDEST SWAP2 POP POP SWAP3 SWAP2 POP POP JUMP JUMPDEST PUSH2 0x1230 DUP2 PUSH2 0x14C7 JUMP JUMPDEST DUP3 MSTORE POP POP JUMP JUMPDEST PUSH2 0x123F DUP2 PUSH2 0x1529 JUMP JUMPDEST DUP3 MSTORE POP POP JUMP JUMPDEST PUSH2 0x124E DUP2 PUSH2 0x153B JUMP JUMPDEST DUP3 MSTORE POP POP JUMP JUMPDEST PUSH1 0x0 PUSH2 0x125F DUP3 PUSH2 0x1455 JUMP JUMPDEST PUSH2 0x1269 DUP2 DUP6 PUSH2 0x1460 JUMP JUMPDEST SWAP4 POP PUSH2 0x1279 DUP2 DUP6 PUSH1 0x20 DUP7 ADD PUSH2 0x155C JUMP JUMPDEST PUSH2 0x1282 DUP2 PUSH2 0x167D JUMP JUMPDEST DUP5 ADD SWAP2 POP POP SWAP3 SWAP2 POP POP JUMP JUMPDEST PUSH1 0x0 PUSH2 0x129A PUSH1 0x1A DUP4 PUSH2 0x1460 JUMP JUMPDEST SWAP2 POP PUSH32 0x796F752063616E6E6F7420616464206E65772070726F64756374000000000000 PUSH1 0x0 DUP4 ADD MSTORE PUSH1 0x20 DUP3 ADD SWAP1 POP SWAP2 SWAP1 POP JUMP JUMPDEST PUSH2 0x12D6 DUP2 PUSH2 0x151F JUMP JUMPDEST DUP3 MSTORE POP POP JUMP JUMPDEST PUSH1 0x0 PUSH1 0x20 DUP3 ADD SWAP1 POP PUSH2 0x12F1 PUSH1 0x0 DUP4 ADD DUP5 PUSH2 0x1227 JUMP JUMPDEST SWAP3 SWAP2 POP POP JUMP JUMPDEST PUSH1 0x0 PUSH1 0xA0 DUP3 ADD SWAP1 POP DUP2 DUP2 SUB PUSH1 0x0 DUP4 ADD MSTORE PUSH2 0x1311 DUP2 DUP9 PUSH2 0x1254 JUMP JUMPDEST SWAP1 POP PUSH2 0x1320 PUSH1 0x20 DUP4 ADD DUP8 PUSH2 0x12CD JUMP JUMPDEST PUSH2 0x132D PUSH1 0x40 DUP4 ADD DUP7 PUSH2 0x1227 JUMP JUMPDEST PUSH2 0x133A PUSH1 0x60 DUP4 ADD DUP6 PUSH2 0x1236 JUMP JUMPDEST PUSH2 0x1347 PUSH1 0x80 DUP4 ADD DUP5 PUSH2 0x12CD JUMP JUMPDEST SWAP7 SWAP6 POP POP POP POP POP POP JUMP JUMPDEST PUSH1 0x0 PUSH1 0xA0 DUP3 ADD SWAP1 POP DUP2 DUP2 SUB PUSH1 0x0 DUP4 ADD MSTORE PUSH2 0x136B DUP2 DUP9 PUSH2 0x1254 JUMP JUMPDEST SWAP1 POP PUSH2 0x137A PUSH1 0x20 DUP4 ADD DUP8 PUSH2 0x12CD JUMP JUMPDEST PUSH2 0x1387 PUSH1 0x40 DUP4 ADD DUP7 PUSH2 0x1245 JUMP JUMPDEST PUSH2 0x1394 PUSH1 0x60 DUP4 ADD DUP6 PUSH2 0x1227 JUMP JUMPDEST PUSH2 0x13A1 PUSH1 0x80 DUP4 ADD DUP5 PUSH2 0x12CD JUMP JUMPDEST SWAP7 SWAP6 POP POP POP POP POP POP JUMP JUMPDEST PUSH1 0x0 PUSH1 0x20 DUP3 ADD SWAP1 POP DUP2 DUP2 SUB PUSH1 0x0 DUP4 ADD MSTORE PUSH2 0x13C4 DUP2 PUSH2 0x128D JUMP JUMPDEST SWAP1 POP SWAP2 SWAP1 POP JUMP JUMPDEST PUSH1 0x0 PUSH1 0x40 DUP3 ADD SWAP1 POP PUSH2 0x13E0 PUSH1 0x0 DUP4 ADD DUP6 PUSH2 0x12CD JUMP JUMPDEST PUSH2 0x13ED PUSH1 0x20 DUP4 ADD DUP5 PUSH2 0x1227 JUMP JUMPDEST SWAP4 SWAP3 POP POP POP JUMP JUMPDEST PUSH1 0x0 PUSH1 0x40 MLOAD SWAP1 POP DUP2 DUP2 ADD DUP2 DUP2 LT PUSH8 0xFFFFFFFFFFFFFFFF DUP3 GT OR ISZERO PUSH2 0x141B JUMPI PUSH2 0x141A PUSH2 0x164E JUMP JUMPDEST JUMPDEST DUP1 PUSH1 0x40 MSTORE POP SWAP2 SWAP1 POP JUMP JUMPDEST PUSH1 0x0 PUSH8 0xFFFFFFFFFFFFFFFF DUP3 GT ISZERO PUSH2 0x1440 JUMPI PUSH2 0x143F PUSH2 0x164E JUMP JUMPDEST JUMPDEST PUSH1 0x1F NOT PUSH1 0x1F DUP4 ADD AND SWAP1 POP PUSH1 0x20 DUP2 ADD SWAP1 POP SWAP2 SWAP1 POP JUMP JUMPDEST PUSH1 0x0 DUP2 MLOAD SWAP1 POP SWAP2 SWAP1 POP JUMP JUMPDEST PUSH1 0x0 DUP3 DUP3 MSTORE PUSH1 0x20 DUP3 ADD SWAP1 POP SWAP3 SWAP2 POP POP JUMP JUMPDEST PUSH1 0x0 PUSH2 0x147C DUP3 PUSH2 0x151F JUMP JUMPDEST SWAP2 POP PUSH2 0x1487 DUP4 PUSH2 0x151F JUMP JUMPDEST SWAP3 POP DUP3 PUSH32 0xFFFFFFFFFFFFFFFFFFFFFFFFFFFFFFFFFFFFFFFFFFFFFFFFFFFFFFFFFFFFFFFF SUB DUP3 GT ISZERO PUSH2 0x14BC JUMPI PUSH2 0x14BB PUSH2 0x15C1 JUMP JUMPDEST JUMPDEST DUP3 DUP3 ADD SWAP1 POP SWAP3 SWAP2 POP POP JUMP JUMPDEST PUSH1 0x0 PUSH2 0x14D2 DUP3 PUSH2 0x14FF JUMP JUMPDEST SWAP1 POP SWAP2 SWAP1 POP JUMP JUMPDEST PUSH1 0x0 DUP2 SWAP1 POP PUSH2 0x14E7 DUP3 PUSH2 0x168E JUMP JUMPDEST SWAP2 SWAP1 POP JUMP JUMPDEST PUSH1 0x0 DUP2 SWAP1 POP PUSH2 0x14FA DUP3 PUSH2 0x16A2 JUMP JUMPDEST SWAP2 SWAP1 POP JUMP JUMPDEST PUSH1 0x0 PUSH20 0xFFFFFFFFFFFFFFFFFFFFFFFFFFFFFFFFFFFFFFFF DUP3 AND SWAP1 POP SWAP2 SWAP1 POP JUMP JUMPDEST PUSH1 0x0 DUP2 SWAP1 POP SWAP2 SWAP1 POP JUMP JUMPDEST PUSH1 0x0 PUSH2 0x1534 DUP3 PUSH2 0x14D9 JUMP JUMPDEST SWAP1 POP SWAP2 SWAP1 POP JUMP JUMPDEST PUSH1 0x0 PUSH2 0x1546 DUP3 PUSH2 0x14EC JUMP JUMPDEST SWAP1 POP SWAP2 SWAP1 POP JUMP JUMPDEST DUP3 DUP2 DUP4 CALLDATACOPY PUSH1 0x0 DUP4 DUP4 ADD MSTORE POP POP POP JUMP JUMPDEST PUSH1 0x0 JUMPDEST DUP4 DUP2 LT ISZERO PUSH2 0x157A JUMPI DUP1 DUP3 ADD MLOAD DUP2 DUP5 ADD MSTORE PUSH1 0x20 DUP2 ADD SWAP1 POP PUSH2 0x155F JUMP JUMPDEST DUP4 DUP2 GT ISZERO PUSH2 0x1589 JUMPI PUSH1 0x0 DUP5 DUP5 ADD MSTORE JUMPDEST POP POP POP POP JUMP JUMPDEST PUSH1 0x0 PUSH1 0x2 DUP3 DIV SWAP1 POP PUSH1 0x1 DUP3 AND DUP1 PUSH2 0x15A7 JUMPI PUSH1 0x7F DUP3 AND SWAP2 POP JUMPDEST PUSH1 0x20 DUP3 LT DUP2 EQ ISZERO PUSH2 0x15BB JUMPI PUSH2 0x15BA PUSH2 0x161F JUMP JUMPDEST JUMPDEST POP SWAP2 SWAP1 POP JUMP JUMPDEST PUSH32 0x4E487B7100000000000000000000000000000000000000000000000000000000 PUSH1 0x0 MSTORE PUSH1 0x11 PUSH1 0x4 MSTORE PUSH1 0x24 PUSH1 0x0 REVERT JUMPDEST PUSH32 0x4E487B7100000000000000000000000000000000000000000000000000000000 PUSH1 0x0 MSTORE PUSH1 0x21 PUSH1 0x4 MSTORE PUSH1 0x24 PUSH1 0x0 REVERT JUMPDEST PUSH32 0x4E487B7100000000000000000000000000000000000000000000000000000000 PUSH1 0x0 MSTORE PUSH1 0x22 PUSH1 0x4 MSTORE PUSH1 0x24 PUSH1 0x0 REVERT JUMPDEST PUSH32 0x4E487B7100000000000000000000000000000000000000000000000000000000 PUSH1 0x0 MSTORE PUSH1 0x41 PUSH1 0x4 MSTORE PUSH1 0x24 PUSH1 0x0 REVERT JUMPDEST PUSH1 0x0 PUSH1 0x1F NOT PUSH1 0x1F DUP4 ADD AND SWAP1 POP SWAP2 SWAP1 POP JUMP JUMPDEST PUSH1 0x7 DUP2 LT PUSH2 0x169F JUMPI PUSH2 0x169E PUSH2 0x15F0 JUMP JUMPDEST JUMPDEST POP JUMP JUMPDEST PUSH1 0x4 DUP2 LT PUSH2 0x16B3 JUMPI PUSH2 0x16B2 PUSH2 0x15F0 JUMP JUMPDEST JUMPDEST POP JUMP JUMPDEST PUSH2 0x16BF DUP2 PUSH2 0x151F JUMP JUMPDEST DUP2 EQ PUSH2 0x16CA JUMPI PUSH1 0x0 DUP1 REVERT JUMPDEST POP JUMP INVALID LOG2 PUSH5 0x6970667358 0x22 SLT KECCAK256 GASLIMIT 0x29 0xC3 SHR STATICCALL 0xC COINBASE LOG2 PUSH16 0x7DBDB697F86A58B2829A6D3FC89CFB0 INVALID EXTCODEHASH CALLCODE 0xD7 SHR OR 0x28 PUSH5 0x736F6C6343 STOP ADDMOD STOP STOP CALLER "
				},
				"gasEstimates": {
					"creation": {
						"codeDepositCost": "1178200",
						"executionCost": "32105",
						"totalCost": "1210305"
					},
					"external": {
						"Items(uint256)": "infinite",
						"addItem(string,uint256)": "infinite",
						"addManufacturer(string)": "infinite",
						"addSupplier(string)": "infinite",
						"addtransporter(string)": "infinite",
						"owner()": "1258",
						"participants(uint256)": "infinite"
					}
				},
				"methodIdentifiers": {
					"Items(uint256)": "17b47cc4",
					"addItem(string,uint256)": "62d6bbdf",
					"addManufacturer(string)": "8f5ae799",
					"addSupplier(string)": "15533a27",
					"addtransporter(string)": "2fa5ad1a",
					"owner()": "8da5cb5b",
					"participants(uint256)": "35c1d349"
				}
			},
			"userdoc": {
				"kind": "user",
				"methods": {},
				"version": 1
			}
		}
	}
}