{
	"contracts/main.sol": {
		"Supplychain": {
			"abi": [
				{
					"anonymous": false,
					"inputs": [
						{
							"indexed": false,
							"internalType": "uint256",
							"name": "upc",
							"type": "uint256"
						}
					],
					"name": "checked",
					"type": "event"
				},
				{
					"anonymous": false,
					"inputs": [
						{
							"indexed": false,
							"internalType": "uint256",
							"name": "upc",
							"type": "uint256"
						},
						{
							"indexed": false,
							"internalType": "address",
							"name": "_address",
							"type": "address"
						}
					],
					"name": "itemcreated",
					"type": "event"
				},
				{
					"anonymous": false,
					"inputs": [
						{
							"indexed": false,
							"internalType": "uint256",
							"name": "upc",
							"type": "uint256"
						}
					],
					"name": "openForSale",
					"type": "event"
				},
				{
					"anonymous": false,
					"inputs": [
						{
							"indexed": false,
							"internalType": "uint256",
							"name": "upc",
							"type": "uint256"
						},
						{
							"indexed": false,
							"internalType": "address",
							"name": "_address",
							"type": "address"
						}
					],
					"name": "orderPlaced",
					"type": "event"
				},
				{
					"anonymous": false,
					"inputs": [
						{
							"indexed": false,
							"internalType": "uint256",
							"name": "upc",
							"type": "uint256"
						},
						{
							"indexed": false,
							"internalType": "address",
							"name": "_address",
							"type": "address"
						}
					],
					"name": "received",
					"type": "event"
				},
				{
					"anonymous": false,
					"inputs": [
						{
							"indexed": false,
							"internalType": "uint256",
							"name": "upc",
							"type": "uint256"
						},
						{
							"indexed": false,
							"internalType": "address",
							"name": "_address",
							"type": "address"
						}
					],
					"name": "shipped",
					"type": "event"
				},
				{
					"inputs": [
						{
							"internalType": "uint256",
							"name": "",
							"type": "uint256"
						}
					],
					"name": "Items",
					"outputs": [
						{
							"internalType": "string",
							"name": "product_name",
							"type": "string"
						},
						{
							"internalType": "uint256",
							"name": "productId",
							"type": "uint256"
						},
						{
							"internalType": "address",
							"name": "itemOwner",
							"type": "address"
						},
						{
							"internalType": "enum Item.state",
							"name": "productState",
							"type": "uint8"
						},
						{
							"internalType": "uint256",
							"name": "cost",
							"type": "uint256"
						}
					],
					"stateMutability": "view",
					"type": "function"
				},
				{
					"inputs": [
						{
							"internalType": "string",
							"name": "_product_name",
							"type": "string"
						},
						{
							"internalType": "uint256",
							"name": "cost",
							"type": "uint256"
						}
					],
					"name": "addItem",
					"outputs": [],
					"stateMutability": "nonpayable",
					"type": "function"
				},
				{
					"inputs": [
						{
							"internalType": "string",
							"name": "_uname",
							"type": "string"
						}
					],
					"name": "addManufacturer",
					"outputs": [],
					"stateMutability": "nonpayable",
					"type": "function"
				},
				{
					"inputs": [
						{
							"internalType": "string",
							"name": "_uname",
							"type": "string"
						}
					],
					"name": "addSupplier",
					"outputs": [],
					"stateMutability": "nonpayable",
					"type": "function"
				},
				{
					"inputs": [
						{
							"internalType": "string",
							"name": "_uname",
							"type": "string"
						}
					],
					"name": "addtransporter",
					"outputs": [],
					"stateMutability": "nonpayable",
					"type": "function"
				},
				{
					"inputs": [
						{
							"internalType": "uint256",
							"name": "_id",
							"type": "uint256"
						}
					],
					"name": "avaliableforsale",
					"outputs": [],
					"stateMutability": "nonpayable",
					"type": "function"
				},
				{
					"inputs": [
						{
							"internalType": "uint256",
							"name": "_id",
							"type": "uint256"
						}
					],
					"name": "currentState",
					"outputs": [
						{
							"internalType": "enum Item.state",
							"name": "",
							"type": "uint8"
						}
					],
					"stateMutability": "view",
					"type": "function"
				},
				{
					"inputs": [
						{
							"internalType": "uint256",
							"name": "_id",
							"type": "uint256"
						}
					],
					"name": "order",
					"outputs": [],
					"stateMutability": "nonpayable",
					"type": "function"
				},
				{
					"inputs": [],
					"name": "owner",
					"outputs": [
						{
							"internalType": "address",
							"name": "",
							"type": "address"
						}
					],
					"stateMutability": "view",
					"type": "function"
				},
				{
					"inputs": [
						{
							"internalType": "uint256",
							"name": "",
							"type": "uint256"
						}
					],
					"name": "participants",
					"outputs": [
						{
							"internalType": "string",
							"name": "username",
							"type": "string"
						},
						{
							"internalType": "uint256",
							"name": "userId",
							"type": "uint256"
						},
						{
							"internalType": "enum participant.user_type",
							"name": "utype",
							"type": "uint8"
						},
						{
							"internalType": "address",
							"name": "user_address",
							"type": "address"
						},
						{
							"internalType": "uint256",
							"name": "money",
							"type": "uint256"
						}
					],
					"stateMutability": "view",
					"type": "function"
				},
				{
					"inputs": [
						{
							"internalType": "uint256",
							"name": "_id",
							"type": "uint256"
						}
					],
					"name": "personDetail",
					"outputs": [
						{
							"components": [
								{
									"internalType": "string",
									"name": "username",
									"type": "string"
								},
								{
									"internalType": "uint256",
									"name": "userId",
									"type": "uint256"
								},
								{
									"internalType": "enum participant.user_type",
									"name": "utype",
									"type": "uint8"
								},
								{
									"internalType": "address",
									"name": "user_address",
									"type": "address"
								},
								{
									"internalType": "uint256",
									"name": "money",
									"type": "uint256"
								}
							],
							"internalType": "struct participant.participant",
							"name": "",
							"type": "tuple"
						}
					],
					"stateMutability": "view",
					"type": "function"
				},
				{
					"inputs": [
						{
							"internalType": "uint256",
							"name": "_id",
							"type": "uint256"
						}
					],
					"name": "productDetail",
					"outputs": [
						{
							"components": [
								{
									"internalType": "string",
									"name": "product_name",
									"type": "string"
								},
								{
									"internalType": "uint256",
									"name": "productId",
									"type": "uint256"
								},
								{
									"internalType": "address",
									"name": "itemOwner",
									"type": "address"
								},
								{
									"internalType": "enum Item.state",
									"name": "productState",
									"type": "uint8"
								},
								{
									"internalType": "uint256",
									"name": "cost",
									"type": "uint256"
								}
							],
							"internalType": "struct Item.item",
							"name": "",
							"type": "tuple"
						}
					],
					"stateMutability": "view",
					"type": "function"
				},
				{
					"inputs": [
						{
							"internalType": "uint256",
							"name": "_id",
							"type": "uint256"
						},
						{
							"internalType": "bool",
							"name": "_quality",
							"type": "bool"
						}
					],
					"name": "qualityCheck",
					"outputs": [],
					"stateMutability": "nonpayable",
					"type": "function"
				},
				{
					"inputs": [
						{
							"internalType": "uint256",
							"name": "_id",
							"type": "uint256"
						},
						{
							"internalType": "address",
							"name": "_transporter_address",
							"type": "address"
						}
					],
					"name": "ship_product",
					"outputs": [],
					"stateMutability": "nonpayable",
					"type": "function"
				}
			],
			"devdoc": {
				"kind": "dev",
				"methods": {},
				"version": 1
			},
			"evm": {
				"assembly": "    /* \"contracts/main.sol\":103:3335  contract Supplychain is  Modifier{\r... */\n  mstore(0x40, 0x80)\n    /* \"contracts/item.sol\":54:55  0 */\n  0x00\n    /* \"contracts/item.sol\":46:55  uint ic=0 */\n  dup1\n  sstore\n    /* \"contracts/member.sol\":62:63  0 */\n  0x00\n    /* \"contracts/member.sol\":54:63  uint pc=0 */\n  0x02\n  sstore\n    /* \"contracts/order.sol\":126:127  0 */\n  0x00\n    /* \"contracts/order.sol\":117:127  uint on =0 */\n  0x05\n  sstore\n    /* \"contracts/main.sol\":103:3335  contract Supplychain is  Modifier{\r... */\n  callvalue\n  dup1\n  iszero\n  tag_1\n  jumpi\n  0x00\n  dup1\n  revert\ntag_1:\n  pop\n    /* \"contracts/modifier.sol\":201:211  msg.sender */\n  caller\n    /* \"contracts/modifier.sol\":193:198  owner */\n  0x07\n  0x00\n    /* \"contracts/modifier.sol\":193:211  owner = msg.sender */\n  0x0100\n  exp\n  dup2\n  sload\n  dup2\n  0xffffffffffffffffffffffffffffffffffffffff\n  mul\n  not\n  and\n  swap1\n  dup4\n  0xffffffffffffffffffffffffffffffffffffffff\n  and\n  mul\n  or\n  swap1\n  sstore\n  pop\n    /* \"contracts/main.sol\":103:3335  contract Supplychain is  Modifier{\r... */\n  dataSize(sub_0)\n  dup1\n  dataOffset(sub_0)\n  0x00\n  codecopy\n  0x00\n  return\nstop\n\nsub_0: assembly {\n        /* \"contracts/main.sol\":103:3335  contract Supplychain is  Modifier{\r... */\n      mstore(0x40, 0x80)\n      callvalue\n      dup1\n      iszero\n      tag_1\n      jumpi\n      0x00\n      dup1\n      revert\n    tag_1:\n      pop\n      jumpi(tag_2, lt(calldatasize, 0x04))\n      shr(0xe0, calldataload(0x00))\n      dup1\n      0x47e86516\n      gt\n      tag_17\n      jumpi\n      dup1\n      0x8da5cb5b\n      gt\n      tag_18\n      jumpi\n      dup1\n      0x8da5cb5b\n      eq\n      tag_13\n      jumpi\n      dup1\n      0x8f5ae799\n      eq\n      tag_14\n      jumpi\n      dup1\n      0xb57c7609\n      eq\n      tag_15\n      jumpi\n      dup1\n      0xd3de074c\n      eq\n      tag_16\n      jumpi\n      jump(tag_2)\n    tag_18:\n      dup1\n      0x47e86516\n      eq\n      tag_10\n      jumpi\n      dup1\n      0x54a153e9\n      eq\n      tag_11\n      jumpi\n      dup1\n      0x62d6bbdf\n      eq\n      tag_12\n      jumpi\n      jump(tag_2)\n    tag_17:\n      dup1\n      0x2fa5ad1a\n      gt\n      tag_19\n      jumpi\n      dup1\n      0x2fa5ad1a\n      eq\n      tag_6\n      jumpi\n      dup1\n      0x35c1d349\n      eq\n      tag_7\n      jumpi\n      dup1\n      0x42f35885\n      eq\n      tag_8\n      jumpi\n      dup1\n      0x43c4c53e\n      eq\n      tag_9\n      jumpi\n      jump(tag_2)\n    tag_19:\n      dup1\n      0x15533a27\n      eq\n      tag_3\n      jumpi\n      dup1\n      0x17b47cc4\n      eq\n      tag_4\n      jumpi\n      dup1\n      0x21603f43\n      eq\n      tag_5\n      jumpi\n    tag_2:\n      0x00\n      dup1\n      revert\n        /* \"contracts/main.sol\":414:836  function addSupplier(string memory _uname) public{\r... */\n    tag_3:\n      tag_20\n      0x04\n      dup1\n      calldatasize\n      sub\n      dup2\n      add\n      swap1\n      tag_21\n      swap2\n      swap1\n      tag_22\n      jump\t// in\n    tag_21:\n      tag_23\n      jump\t// in\n    tag_20:\n      stop\n        /* \"contracts/item.sol\":389:421  mapping(uint=>item) public Items */\n    tag_4:\n      tag_24\n      0x04\n      dup1\n      calldatasize\n      sub\n      dup2\n      add\n      swap1\n      tag_25\n      swap2\n      swap1\n      tag_26\n      jump\t// in\n    tag_25:\n      tag_27\n      jump\t// in\n    tag_24:\n      mload(0x40)\n      tag_28\n      swap6\n      swap5\n      swap4\n      swap3\n      swap2\n      swap1\n      tag_29\n      jump\t// in\n    tag_28:\n      mload(0x40)\n      dup1\n      swap2\n      sub\n      swap1\n      return\n        /* \"contracts/main.sol\":2298:2644  function order(uint _id) public hasMoney(0,0)\r... */\n    tag_5:\n      tag_30\n      0x04\n      dup1\n      calldatasize\n      sub\n      dup2\n      add\n      swap1\n      tag_31\n      swap2\n      swap1\n      tag_26\n      jump\t// in\n    tag_31:\n      tag_32\n      jump\t// in\n    tag_30:\n      stop\n        /* \"contracts/main.sol\":841:1280  function addtransporter(string memory _uname) public {\r... */\n    tag_6:\n      tag_33\n      0x04\n      dup1\n      calldatasize\n      sub\n      dup2\n      add\n      swap1\n      tag_34\n      swap2\n      swap1\n      tag_22\n      jump\t// in\n    tag_34:\n      tag_35\n      jump\t// in\n    tag_33:\n      stop\n        /* \"contracts/member.sol\":347:393  mapping(uint=>participant) public participants */\n    tag_7:\n      tag_36\n      0x04\n      dup1\n      calldatasize\n      sub\n      dup2\n      add\n      swap1\n      tag_37\n      swap2\n      swap1\n      tag_26\n      jump\t// in\n    tag_37:\n      tag_38\n      jump\t// in\n    tag_36:\n      mload(0x40)\n      tag_39\n      swap6\n      swap5\n      swap4\n      swap3\n      swap2\n      swap1\n      tag_40\n      jump\t// in\n    tag_39:\n      mload(0x40)\n      dup1\n      swap2\n      sub\n      swap1\n      return\n        /* \"contracts/main.sol\":2973:3081  function productDetail(uint _id) public view returns (item memory)\r... */\n    tag_8:\n      tag_41\n      0x04\n      dup1\n      calldatasize\n      sub\n      dup2\n      add\n      swap1\n      tag_42\n      swap2\n      swap1\n      tag_26\n      jump\t// in\n    tag_42:\n      tag_43\n      jump\t// in\n    tag_41:\n      mload(0x40)\n      tag_44\n      swap2\n      swap1\n      tag_45\n      jump\t// in\n    tag_44:\n      mload(0x40)\n      dup1\n      swap2\n      sub\n      swap1\n      return\n        /* \"contracts/main.sol\":2656:2852  function ship_product(uint _id,address _transporter_address) public productowner(_id)\r... */\n    tag_9:\n      tag_46\n      0x04\n      dup1\n      calldatasize\n      sub\n      dup2\n      add\n      swap1\n      tag_47\n      swap2\n      swap1\n      tag_48\n      jump\t// in\n    tag_47:\n      tag_49\n      jump\t// in\n    tag_46:\n      stop\n        /* \"contracts/main.sol\":2866:2935  function qualityCheck(uint _id,bool _quality) public \r... */\n    tag_10:\n      tag_50\n      0x04\n      dup1\n      calldatasize\n      sub\n      dup2\n      add\n      swap1\n      tag_51\n      swap2\n      swap1\n      tag_52\n      jump\t// in\n    tag_51:\n      tag_53\n      jump\t// in\n    tag_50:\n      stop\n        /* \"contracts/main.sol\":3208:3328  function personDetail(uint _id) public view returns(participant memory)\r... */\n    tag_11:\n      tag_54\n      0x04\n      dup1\n      calldatasize\n      sub\n      dup2\n      add\n      swap1\n      tag_55\n      swap2\n      swap1\n      tag_26\n      jump\t// in\n    tag_55:\n      tag_56\n      jump\t// in\n    tag_54:\n      mload(0x40)\n      tag_57\n      swap2\n      swap1\n      tag_58\n      jump\t// in\n    tag_57:\n      mload(0x40)\n      dup1\n      swap2\n      sub\n      swap1\n      return\n        /* \"contracts/main.sol\":1733:2130  function addItem(string memory _product_name , uint cost) public onlyDistributor(msg.sender)\r... */\n    tag_12:\n      tag_59\n      0x04\n      dup1\n      calldatasize\n      sub\n      dup2\n      add\n      swap1\n      tag_60\n      swap2\n      swap1\n      tag_61\n      jump\t// in\n    tag_60:\n      tag_62\n      jump\t// in\n    tag_59:\n      stop\n        /* \"contracts/modifier.sol\":133:153  address public owner */\n    tag_13:\n      tag_63\n      tag_64\n      jump\t// in\n    tag_63:\n      mload(0x40)\n      tag_65\n      swap2\n      swap1\n      tag_66\n      jump\t// in\n    tag_65:\n      mload(0x40)\n      dup1\n      swap2\n      sub\n      swap1\n      return\n        /* \"contracts/main.sol\":1286:1727  function addManufacturer(string memory _uname) public {\r... */\n    tag_14:\n      tag_67\n      0x04\n      dup1\n      calldatasize\n      sub\n      dup2\n      add\n      swap1\n      tag_68\n      swap2\n      swap1\n      tag_22\n      jump\t// in\n    tag_68:\n      tag_69\n      jump\t// in\n    tag_67:\n      stop\n        /* \"contracts/main.sol\":3087:3200  function currentState(uint _id)public view returns(state )\r... */\n    tag_15:\n      tag_70\n      0x04\n      dup1\n      calldatasize\n      sub\n      dup2\n      add\n      swap1\n      tag_71\n      swap2\n      swap1\n      tag_26\n      jump\t// in\n    tag_71:\n      tag_72\n      jump\t// in\n    tag_70:\n      mload(0x40)\n      tag_73\n      swap2\n      swap1\n      tag_74\n      jump\t// in\n    tag_73:\n      mload(0x40)\n      dup1\n      swap2\n      sub\n      swap1\n      return\n        /* \"contracts/main.sol\":2136:2292  function avaliableforsale(uint _id) public productowner(_id)\r... */\n    tag_16:\n      tag_75\n      0x04\n      dup1\n      calldatasize\n      sub\n      dup2\n      add\n      swap1\n      tag_76\n      swap2\n      swap1\n      tag_26\n      jump\t// in\n    tag_76:\n      tag_77\n      jump\t// in\n    tag_75:\n      stop\n        /* \"contracts/main.sol\":414:836  function addSupplier(string memory _uname) public{\r... */\n    tag_23:\n        /* \"contracts/main.sol\":473:507  participant memory  newParticipant */\n      tag_79\n      tag_80\n      jump\t// in\n    tag_79:\n        /* \"contracts/main.sol\":542:548  _uname */\n      dup2\n        /* \"contracts/main.sol\":517:531  newParticipant */\n      dup2\n        /* \"contracts/main.sol\":517:540  newParticipant.username */\n      0x00\n      add\n        /* \"contracts/main.sol\":517:548  newParticipant.username =_uname */\n      dup2\n      swap1\n      mstore\n      pop\n        /* \"contracts/main.sol\":582:584  pc */\n      sload(0x02)\n        /* \"contracts/main.sol\":558:572  newParticipant */\n      dup2\n        /* \"contracts/main.sol\":558:579  newParticipant.userId */\n      0x20\n      add\n        /* \"contracts/main.sol\":558:584  newParticipant.userId = pc */\n      dup2\n      dup2\n      mstore\n      pop\n      pop\n        /* \"contracts/main.sol\":617:635  user_type.supplier */\n      0x00\n        /* \"contracts/main.sol\":594:608  newParticipant */\n      dup2\n        /* \"contracts/main.sol\":594:614  newParticipant.utype */\n      0x40\n      add\n        /* \"contracts/main.sol\":594:635  newParticipant.utype = user_type.supplier */\n      swap1\n      0x03\n      dup2\n      gt\n      iszero\n      tag_81\n      jumpi\n      mstore(0x00, 0x4e487b7100000000000000000000000000000000000000000000000000000000)\n      mstore(0x04, 0x21)\n      revert(0x00, 0x24)\n    tag_81:\n      swap1\n      dup2\n      0x03\n      dup2\n      gt\n      iszero\n      tag_82\n      jumpi\n      mstore(0x00, 0x4e487b7100000000000000000000000000000000000000000000000000000000)\n      mstore(0x04, 0x21)\n      revert(0x00, 0x24)\n    tag_82:\n      dup2\n      mstore\n      pop\n      pop\n        /* \"contracts/main.sol\":674:684  msg.sender */\n      caller\n        /* \"contracts/main.sol\":645:659  newParticipant */\n      dup2\n        /* \"contracts/main.sol\":645:672  newParticipant.user_address */\n      0x60\n      add\n        /* \"contracts/main.sol\":645:684  newParticipant.user_address =msg.sender */\n      swap1\n      0xffffffffffffffffffffffffffffffffffffffff\n      and\n      swap1\n      dup2\n      0xffffffffffffffffffffffffffffffffffffffff\n      and\n      dup2\n      mstore\n      pop\n      pop\n        /* \"contracts/main.sol\":717:718  0 */\n      0x00\n        /* \"contracts/main.sol\":694:708  newParticipant */\n      dup2\n        /* \"contracts/main.sol\":694:714  newParticipant.money */\n      0x80\n      add\n        /* \"contracts/main.sol\":694:718  newParticipant.money = 0 */\n      dup2\n      dup2\n      mstore\n      pop\n      pop\n        /* \"contracts/main.sol\":745:759  newParticipant */\n      dup1\n        /* \"contracts/main.sol\":728:740  participants */\n      0x03\n        /* \"contracts/main.sol\":728:744  participants[pc] */\n      0x00\n        /* \"contracts/main.sol\":741:743  pc */\n      sload(0x02)\n        /* \"contracts/main.sol\":728:744  participants[pc] */\n      dup2\n      mstore\n      0x20\n      add\n      swap1\n      dup2\n      mstore\n      0x20\n      add\n      0x00\n      keccak256\n        /* \"contracts/main.sol\":728:759  participants[pc]=newParticipant */\n      0x00\n      dup3\n      add\n      mload\n      dup2\n      0x00\n      add\n      swap1\n      dup1\n      mload\n      swap1\n      0x20\n      add\n      swap1\n      tag_83\n      swap3\n      swap2\n      swap1\n      tag_84\n      jump\t// in\n    tag_83:\n      pop\n      0x20\n      dup3\n      add\n      mload\n      dup2\n      0x01\n      add\n      sstore\n      0x40\n      dup3\n      add\n      mload\n      dup2\n      0x02\n      add\n      exp(0x0100, 0x00)\n      dup2\n      sload\n      dup2\n      0xff\n      mul\n      not\n      and\n      swap1\n      dup4\n      0x03\n      dup2\n      gt\n      iszero\n      tag_85\n      jumpi\n      mstore(0x00, 0x4e487b7100000000000000000000000000000000000000000000000000000000)\n      mstore(0x04, 0x21)\n      revert(0x00, 0x24)\n    tag_85:\n      mul\n      or\n      swap1\n      sstore\n      pop\n      0x60\n      dup3\n      add\n      mload\n      dup2\n      0x02\n      add\n      exp(0x0100, 0x01)\n      dup2\n      sload\n      dup2\n      0xffffffffffffffffffffffffffffffffffffffff\n      mul\n      not\n      and\n      swap1\n      dup4\n      0xffffffffffffffffffffffffffffffffffffffff\n      and\n      mul\n      or\n      swap1\n      sstore\n      pop\n      0x80\n      dup3\n      add\n      mload\n      dup2\n      0x03\n      add\n      sstore\n      swap1\n      pop\n      pop\n        /* \"contracts/main.sol\":796:810  newParticipant */\n      dup1\n        /* \"contracts/main.sol\":769:783  participantsId */\n      0x04\n        /* \"contracts/main.sol\":769:795  participantsId[msg.sender] */\n      0x00\n        /* \"contracts/main.sol\":784:794  msg.sender */\n      caller\n        /* \"contracts/main.sol\":769:795  participantsId[msg.sender] */\n      0xffffffffffffffffffffffffffffffffffffffff\n      and\n      0xffffffffffffffffffffffffffffffffffffffff\n      and\n      dup2\n      mstore\n      0x20\n      add\n      swap1\n      dup2\n      mstore\n      0x20\n      add\n      0x00\n      keccak256\n        /* \"contracts/main.sol\":769:810  participantsId[msg.sender]=newParticipant */\n      0x00\n      dup3\n      add\n      mload\n      dup2\n      0x00\n      add\n      swap1\n      dup1\n      mload\n      swap1\n      0x20\n      add\n      swap1\n      tag_86\n      swap3\n      swap2\n      swap1\n      tag_84\n      jump\t// in\n    tag_86:\n      pop\n      0x20\n      dup3\n      add\n      mload\n      dup2\n      0x01\n      add\n      sstore\n      0x40\n      dup3\n      add\n      mload\n      dup2\n      0x02\n      add\n      exp(0x0100, 0x00)\n      dup2\n      sload\n      dup2\n      0xff\n      mul\n      not\n      and\n      swap1\n      dup4\n      0x03\n      dup2\n      gt\n      iszero\n      tag_87\n      jumpi\n      mstore(0x00, 0x4e487b7100000000000000000000000000000000000000000000000000000000)\n      mstore(0x04, 0x21)\n      revert(0x00, 0x24)\n    tag_87:\n      mul\n      or\n      swap1\n      sstore\n      pop\n      0x60\n      dup3\n      add\n      mload\n      dup2\n      0x02\n      add\n      exp(0x0100, 0x01)\n      dup2\n      sload\n      dup2\n      0xffffffffffffffffffffffffffffffffffffffff\n      mul\n      not\n      and\n      swap1\n      dup4\n      0xffffffffffffffffffffffffffffffffffffffff\n      and\n      mul\n      or\n      swap1\n      sstore\n      pop\n      0x80\n      dup3\n      add\n      mload\n      dup2\n      0x03\n      add\n      sstore\n      swap1\n      pop\n      pop\n        /* \"contracts/main.sol\":826:827  1 */\n      0x01\n        /* \"contracts/main.sol\":823:825  pc */\n      sload(0x02)\n        /* \"contracts/main.sol\":823:827  pc+1 */\n      tag_88\n      swap2\n      swap1\n      tag_89\n      jump\t// in\n    tag_88:\n        /* \"contracts/main.sol\":820:822  pc */\n      0x02\n        /* \"contracts/main.sol\":820:827  pc=pc+1 */\n      dup2\n      swap1\n      sstore\n      pop\n        /* \"contracts/main.sol\":414:836  function addSupplier(string memory _uname) public{\r... */\n      pop\n      pop\n      jump\t// out\n        /* \"contracts/item.sol\":389:421  mapping(uint=>item) public Items */\n    tag_27:\n      mstore(0x20, 0x01)\n      dup1\n      0x00\n      mstore\n      keccak256(0x00, 0x40)\n      0x00\n      swap2\n      pop\n      swap1\n      pop\n      dup1\n      0x00\n      add\n      dup1\n      sload\n      tag_90\n      swap1\n      tag_91\n      jump\t// in\n    tag_90:\n      dup1\n      0x1f\n      add\n      0x20\n      dup1\n      swap2\n      div\n      mul\n      0x20\n      add\n      mload(0x40)\n      swap1\n      dup2\n      add\n      0x40\n      mstore\n      dup1\n      swap3\n      swap2\n      swap1\n      dup2\n      dup2\n      mstore\n      0x20\n      add\n      dup3\n      dup1\n      sload\n      tag_92\n      swap1\n      tag_91\n      jump\t// in\n    tag_92:\n      dup1\n      iszero\n      tag_93\n      jumpi\n      dup1\n      0x1f\n      lt\n      tag_94\n      jumpi\n      0x0100\n      dup1\n      dup4\n      sload\n      div\n      mul\n      dup4\n      mstore\n      swap2\n      0x20\n      add\n      swap2\n      jump(tag_93)\n    tag_94:\n      dup3\n      add\n      swap2\n      swap1\n      0x00\n      mstore\n      keccak256(0x00, 0x20)\n      swap1\n    tag_95:\n      dup2\n      sload\n      dup2\n      mstore\n      swap1\n      0x01\n      add\n      swap1\n      0x20\n      add\n      dup1\n      dup4\n      gt\n      tag_95\n      jumpi\n      dup3\n      swap1\n      sub\n      0x1f\n      and\n      dup3\n      add\n      swap2\n    tag_93:\n      pop\n      pop\n      pop\n      pop\n      pop\n      swap1\n      dup1\n      0x01\n      add\n      sload\n      swap1\n      dup1\n      0x02\n      add\n      0x00\n      swap1\n      sload\n      swap1\n      0x0100\n      exp\n      swap1\n      div\n      0xffffffffffffffffffffffffffffffffffffffff\n      and\n      swap1\n      dup1\n      0x02\n      add\n      0x14\n      swap1\n      sload\n      swap1\n      0x0100\n      exp\n      swap1\n      div\n      0xff\n      and\n      swap1\n      dup1\n      0x03\n      add\n      sload\n      swap1\n      pop\n      dup6\n      jump\t// out\n        /* \"contracts/main.sol\":2298:2644  function order(uint _id) public hasMoney(0,0)\r... */\n    tag_32:\n        /* \"contracts/main.sol\":2339:2340  0 */\n      0x00\n        /* \"contracts/main.sol\":2341:2342  0 */\n      dup1\n        /* \"contracts/modifier.sol\":1257:1263  _value */\n      dup2\n        /* \"contracts/modifier.sol\":1239:1244  Items */\n      0x01\n        /* \"contracts/modifier.sol\":1239:1249  Items[_ic] */\n      0x00\n        /* \"contracts/modifier.sol\":1245:1248  _ic */\n      dup4\n        /* \"contracts/modifier.sol\":1239:1249  Items[_ic] */\n      dup2\n      mstore\n      0x20\n      add\n      swap1\n      dup2\n      mstore\n      0x20\n      add\n      0x00\n      keccak256\n        /* \"contracts/modifier.sol\":1239:1254  Items[_ic].cost */\n      0x03\n      add\n      sload\n        /* \"contracts/modifier.sol\":1239:1263  Items[_ic].cost <=_value */\n      gt\n      iszero\n        /* \"contracts/modifier.sol\":1231:1313  require(Items[_ic].cost <=_value, \"you dont have enough money to buy the product\") */\n      tag_97\n      jumpi\n      mload(0x40)\n      0x08c379a000000000000000000000000000000000000000000000000000000000\n      dup2\n      mstore\n      0x04\n      add\n      tag_98\n      swap1\n      tag_99\n      jump\t// in\n    tag_98:\n      mload(0x40)\n      dup1\n      swap2\n      sub\n      swap1\n      revert\n    tag_97:\n        /* \"contracts/main.sol\":2361:2382  Order memory newOrder */\n      tag_101\n      tag_102\n      jump\t// in\n    tag_101:\n        /* \"contracts/main.sol\":2409:2419  msg.sender */\n      caller\n        /* \"contracts/main.sol\":2392:2400  newOrder */\n      dup2\n        /* \"contracts/main.sol\":2392:2406  newOrder.buyer */\n      0x40\n      add\n        /* \"contracts/main.sol\":2392:2419  newOrder.buyer = msg.sender */\n      swap1\n      0xffffffffffffffffffffffffffffffffffffffff\n      and\n      swap1\n      dup2\n      0xffffffffffffffffffffffffffffffffffffffff\n      and\n      dup2\n      mstore\n      pop\n      pop\n        /* \"contracts/main.sol\":2448:2450  on */\n      sload(0x05)\n        /* \"contracts/main.sol\":2429:2437  newOrder */\n      dup2\n        /* \"contracts/main.sol\":2429:2445  newOrder.orderId */\n      0x00\n      add\n        /* \"contracts/main.sol\":2429:2450  newOrder.orderId = on */\n      dup2\n      dup2\n      mstore\n      pop\n      pop\n        /* \"contracts/main.sol\":2483:2507  Order_state.order_placed */\n      0x00\n        /* \"contracts/main.sol\":2460:2468  newOrder */\n      dup2\n        /* \"contracts/main.sol\":2460:2480  newOrder.order_state */\n      0x60\n      add\n        /* \"contracts/main.sol\":2460:2507  newOrder.order_state = Order_state.order_placed */\n      swap1\n      0x02\n      dup2\n      gt\n      iszero\n      tag_103\n      jumpi\n      mstore(0x00, 0x4e487b7100000000000000000000000000000000000000000000000000000000)\n      mstore(0x04, 0x21)\n      revert(0x00, 0x24)\n    tag_103:\n      swap1\n      dup2\n      0x02\n      dup2\n      gt\n      iszero\n      tag_104\n      jumpi\n      mstore(0x00, 0x4e487b7100000000000000000000000000000000000000000000000000000000)\n      mstore(0x04, 0x21)\n      revert(0x00, 0x24)\n    tag_104:\n      dup2\n      mstore\n      pop\n      pop\n        /* \"contracts/main.sol\":2538:2543  Items */\n      0x01\n        /* \"contracts/main.sol\":2538:2548  Items[_id] */\n      0x00\n        /* \"contracts/main.sol\":2544:2547  _id */\n      dup6\n        /* \"contracts/main.sol\":2538:2548  Items[_id] */\n      dup2\n      mstore\n      0x20\n      add\n      swap1\n      dup2\n      mstore\n      0x20\n      add\n      0x00\n      keccak256\n        /* \"contracts/main.sol\":2517:2548  newOrder.orderItem = Items[_id] */\n      mload(0x40)\n      dup1\n      0xa0\n      add\n      0x40\n      mstore\n      swap1\n      dup2\n      0x00\n      dup3\n      add\n      dup1\n      sload\n      tag_105\n      swap1\n      tag_91\n      jump\t// in\n    tag_105:\n      dup1\n      0x1f\n      add\n      0x20\n      dup1\n      swap2\n      div\n      mul\n      0x20\n      add\n      mload(0x40)\n      swap1\n      dup2\n      add\n      0x40\n      mstore\n      dup1\n      swap3\n      swap2\n      swap1\n      dup2\n      dup2\n      mstore\n      0x20\n      add\n      dup3\n      dup1\n      sload\n      tag_106\n      swap1\n      tag_91\n      jump\t// in\n    tag_106:\n      dup1\n      iszero\n      tag_107\n      jumpi\n      dup1\n      0x1f\n      lt\n      tag_108\n      jumpi\n      0x0100\n      dup1\n      dup4\n      sload\n      div\n      mul\n      dup4\n      mstore\n      swap2\n      0x20\n      add\n      swap2\n      jump(tag_107)\n    tag_108:\n      dup3\n      add\n      swap2\n      swap1\n      0x00\n      mstore\n      keccak256(0x00, 0x20)\n      swap1\n    tag_109:\n      dup2\n      sload\n      dup2\n      mstore\n      swap1\n      0x01\n      add\n      swap1\n      0x20\n      add\n      dup1\n      dup4\n      gt\n      tag_109\n      jumpi\n      dup3\n      swap1\n      sub\n      0x1f\n      and\n      dup3\n      add\n      swap2\n    tag_107:\n      pop\n      pop\n      pop\n      pop\n      pop\n      dup2\n      mstore\n      0x20\n      add\n      0x01\n      dup3\n      add\n      sload\n      dup2\n      mstore\n      0x20\n      add\n      0x02\n      dup3\n      add\n      0x00\n      swap1\n      sload\n      swap1\n      0x0100\n      exp\n      swap1\n      div\n      0xffffffffffffffffffffffffffffffffffffffff\n      and\n      0xffffffffffffffffffffffffffffffffffffffff\n      and\n      0xffffffffffffffffffffffffffffffffffffffff\n      and\n      dup2\n      mstore\n      0x20\n      add\n      0x02\n      dup3\n      add\n      0x14\n      swap1\n      sload\n      swap1\n      0x0100\n      exp\n      swap1\n      div\n      0xff\n      and\n      0x06\n      dup2\n      gt\n      iszero\n      tag_110\n      jumpi\n      mstore(0x00, 0x4e487b7100000000000000000000000000000000000000000000000000000000)\n      mstore(0x04, 0x21)\n      revert(0x00, 0x24)\n    tag_110:\n      0x06\n      dup2\n      gt\n      iszero\n      tag_111\n      jumpi\n      mstore(0x00, 0x4e487b7100000000000000000000000000000000000000000000000000000000)\n      mstore(0x04, 0x21)\n      revert(0x00, 0x24)\n    tag_111:\n      dup2\n      mstore\n      0x20\n      add\n      0x03\n      dup3\n      add\n      sload\n      dup2\n      mstore\n      pop\n      pop\n        /* \"contracts/main.sol\":2517:2525  newOrder */\n      dup2\n        /* \"contracts/main.sol\":2517:2535  newOrder.orderItem */\n      0x20\n      add\n        /* \"contracts/main.sol\":2517:2548  newOrder.orderItem = Items[_id] */\n      dup2\n      swap1\n      mstore\n      pop\n        /* \"contracts/main.sol\":2569:2577  newOrder */\n      dup1\n        /* \"contracts/main.sol\":2558:2564  orders */\n      0x06\n        /* \"contracts/main.sol\":2558:2568  orders[on] */\n      0x00\n        /* \"contracts/main.sol\":2565:2567  on */\n      sload(0x05)\n        /* \"contracts/main.sol\":2558:2568  orders[on] */\n      dup2\n      mstore\n      0x20\n      add\n      swap1\n      dup2\n      mstore\n      0x20\n      add\n      0x00\n      keccak256\n        /* \"contracts/main.sol\":2558:2577  orders[on]=newOrder */\n      0x00\n      dup3\n      add\n      mload\n      dup2\n      0x00\n      add\n      sstore\n      0x20\n      dup3\n      add\n      mload\n      dup2\n      0x01\n      add\n      0x00\n      dup3\n      add\n      mload\n      dup2\n      0x00\n      add\n      swap1\n      dup1\n      mload\n      swap1\n      0x20\n      add\n      swap1\n      tag_112\n      swap3\n      swap2\n      swap1\n      tag_84\n      jump\t// in\n    tag_112:\n      pop\n      0x20\n      dup3\n      add\n      mload\n      dup2\n      0x01\n      add\n      sstore\n      0x40\n      dup3\n      add\n      mload\n      dup2\n      0x02\n      add\n      exp(0x0100, 0x00)\n      dup2\n      sload\n      dup2\n      0xffffffffffffffffffffffffffffffffffffffff\n      mul\n      not\n      and\n      swap1\n      dup4\n      0xffffffffffffffffffffffffffffffffffffffff\n      and\n      mul\n      or\n      swap1\n      sstore\n      pop\n      0x60\n      dup3\n      add\n      mload\n      dup2\n      0x02\n      add\n      exp(0x0100, 0x14)\n      dup2\n      sload\n      dup2\n      0xff\n      mul\n      not\n      and\n      swap1\n      dup4\n      0x06\n      dup2\n      gt\n      iszero\n      tag_113\n      jumpi\n      mstore(0x00, 0x4e487b7100000000000000000000000000000000000000000000000000000000)\n      mstore(0x04, 0x21)\n      revert(0x00, 0x24)\n    tag_113:\n      mul\n      or\n      swap1\n      sstore\n      pop\n      0x80\n      dup3\n      add\n      mload\n      dup2\n      0x03\n      add\n      sstore\n      pop\n      pop\n      0x40\n      dup3\n      add\n      mload\n      dup2\n      0x05\n      add\n      exp(0x0100, 0x00)\n      dup2\n      sload\n      dup2\n      0xffffffffffffffffffffffffffffffffffffffff\n      mul\n      not\n      and\n      swap1\n      dup4\n      0xffffffffffffffffffffffffffffffffffffffff\n      and\n      mul\n      or\n      swap1\n      sstore\n      pop\n      0x60\n      dup3\n      add\n      mload\n      dup2\n      0x05\n      add\n      exp(0x0100, 0x14)\n      dup2\n      sload\n      dup2\n      0xff\n      mul\n      not\n      and\n      swap1\n      dup4\n      0x02\n      dup2\n      gt\n      iszero\n      tag_114\n      jumpi\n      mstore(0x00, 0x4e487b7100000000000000000000000000000000000000000000000000000000)\n      mstore(0x04, 0x21)\n      revert(0x00, 0x24)\n    tag_114:\n      mul\n      or\n      swap1\n      sstore\n      pop\n      swap1\n      pop\n      pop\n        /* \"contracts/main.sol\":2592:2619  orderPlaced(_id,msg.sender) */\n      0xef7b116480495ad6b1c6479820e4a0140e78de3846e138c5d055ad601408725e\n        /* \"contracts/main.sol\":2604:2607  _id */\n      dup5\n        /* \"contracts/main.sol\":2608:2618  msg.sender */\n      caller\n        /* \"contracts/main.sol\":2592:2619  orderPlaced(_id,msg.sender) */\n      mload(0x40)\n      tag_115\n      swap3\n      swap2\n      swap1\n      tag_116\n      jump\t// in\n    tag_115:\n      mload(0x40)\n      dup1\n      swap2\n      sub\n      swap1\n      log1\n        /* \"contracts/main.sol\":2635:2636  1 */\n      0x01\n        /* \"contracts/main.sol\":2632:2634  on */\n      sload(0x05)\n        /* \"contracts/main.sol\":2632:2636  on+1 */\n      tag_117\n      swap2\n      swap1\n      tag_89\n      jump\t// in\n    tag_117:\n        /* \"contracts/main.sol\":2629:2631  on */\n      0x05\n        /* \"contracts/main.sol\":2629:2636  on=on+1 */\n      dup2\n      swap1\n      sstore\n      pop\n        /* \"contracts/modifier.sol\":1325:1326  _ */\n      pop\n        /* \"contracts/main.sol\":2298:2644  function order(uint _id) public hasMoney(0,0)\r... */\n      pop\n      pop\n      pop\n      jump\t// out\n        /* \"contracts/main.sol\":841:1280  function addtransporter(string memory _uname) public {\r... */\n    tag_35:\n        /* \"contracts/main.sol\":905:938  participant memory newParticipant */\n      tag_119\n      tag_80\n      jump\t// in\n    tag_119:\n        /* \"contracts/main.sol\":975:981  _uname */\n      dup2\n        /* \"contracts/main.sol\":950:964  newParticipant */\n      dup2\n        /* \"contracts/main.sol\":950:973  newParticipant.username */\n      0x00\n      add\n        /* \"contracts/main.sol\":950:981  newParticipant.username =_uname */\n      dup2\n      swap1\n      mstore\n      pop\n        /* \"contracts/main.sol\":1016:1018  pc */\n      sload(0x02)\n        /* \"contracts/main.sol\":992:1006  newParticipant */\n      dup2\n        /* \"contracts/main.sol\":992:1013  newParticipant.userId */\n      0x20\n      add\n        /* \"contracts/main.sol\":992:1018  newParticipant.userId = pc */\n      dup2\n      dup2\n      mstore\n      pop\n      pop\n        /* \"contracts/main.sol\":1052:1053  0 */\n      0x00\n        /* \"contracts/main.sol\":1029:1043  newParticipant */\n      dup2\n        /* \"contracts/main.sol\":1029:1049  newParticipant.money */\n      0x80\n      add\n        /* \"contracts/main.sol\":1029:1053  newParticipant.money = 0 */\n      dup2\n      dup2\n      mstore\n      pop\n      pop\n        /* \"contracts/main.sol\":1086:1107  user_type.transporter */\n      0x01\n        /* \"contracts/main.sol\":1064:1078  newParticipant */\n      dup2\n        /* \"contracts/main.sol\":1064:1084  newParticipant.utype */\n      0x40\n      add\n        /* \"contracts/main.sol\":1064:1107  newParticipant.utype= user_type.transporter */\n      swap1\n      0x03\n      dup2\n      gt\n      iszero\n      tag_120\n      jumpi\n      mstore(0x00, 0x4e487b7100000000000000000000000000000000000000000000000000000000)\n      mstore(0x04, 0x21)\n      revert(0x00, 0x24)\n    tag_120:\n      swap1\n      dup2\n      0x03\n      dup2\n      gt\n      iszero\n      tag_121\n      jumpi\n      mstore(0x00, 0x4e487b7100000000000000000000000000000000000000000000000000000000)\n      mstore(0x04, 0x21)\n      revert(0x00, 0x24)\n    tag_121:\n      dup2\n      mstore\n      pop\n      pop\n        /* \"contracts/main.sol\":1148:1158  msg.sender */\n      caller\n        /* \"contracts/main.sol\":1118:1132  newParticipant */\n      dup2\n        /* \"contracts/main.sol\":1118:1145  newParticipant.user_address */\n      0x60\n      add\n        /* \"contracts/main.sol\":1118:1158  newParticipant.user_address = msg.sender */\n      swap1\n      0xffffffffffffffffffffffffffffffffffffffff\n      and\n      swap1\n      dup2\n      0xffffffffffffffffffffffffffffffffffffffff\n      and\n      dup2\n      mstore\n      pop\n      pop\n        /* \"contracts/main.sol\":1186:1200  newParticipant */\n      dup1\n        /* \"contracts/main.sol\":1169:1181  participants */\n      0x03\n        /* \"contracts/main.sol\":1169:1185  participants[pc] */\n      0x00\n        /* \"contracts/main.sol\":1182:1184  pc */\n      sload(0x02)\n        /* \"contracts/main.sol\":1169:1185  participants[pc] */\n      dup2\n      mstore\n      0x20\n      add\n      swap1\n      dup2\n      mstore\n      0x20\n      add\n      0x00\n      keccak256\n        /* \"contracts/main.sol\":1169:1200  participants[pc]=newParticipant */\n      0x00\n      dup3\n      add\n      mload\n      dup2\n      0x00\n      add\n      swap1\n      dup1\n      mload\n      swap1\n      0x20\n      add\n      swap1\n      tag_122\n      swap3\n      swap2\n      swap1\n      tag_84\n      jump\t// in\n    tag_122:\n      pop\n      0x20\n      dup3\n      add\n      mload\n      dup2\n      0x01\n      add\n      sstore\n      0x40\n      dup3\n      add\n      mload\n      dup2\n      0x02\n      add\n      exp(0x0100, 0x00)\n      dup2\n      sload\n      dup2\n      0xff\n      mul\n      not\n      and\n      swap1\n      dup4\n      0x03\n      dup2\n      gt\n      iszero\n      tag_123\n      jumpi\n      mstore(0x00, 0x4e487b7100000000000000000000000000000000000000000000000000000000)\n      mstore(0x04, 0x21)\n      revert(0x00, 0x24)\n    tag_123:\n      mul\n      or\n      swap1\n      sstore\n      pop\n      0x60\n      dup3\n      add\n      mload\n      dup2\n      0x02\n      add\n      exp(0x0100, 0x01)\n      dup2\n      sload\n      dup2\n      0xffffffffffffffffffffffffffffffffffffffff\n      mul\n      not\n      and\n      swap1\n      dup4\n      0xffffffffffffffffffffffffffffffffffffffff\n      and\n      mul\n      or\n      swap1\n      sstore\n      pop\n      0x80\n      dup3\n      add\n      mload\n      dup2\n      0x03\n      add\n      sstore\n      swap1\n      pop\n      pop\n        /* \"contracts/main.sol\":1238:1252  newParticipant */\n      dup1\n        /* \"contracts/main.sol\":1211:1225  participantsId */\n      0x04\n        /* \"contracts/main.sol\":1211:1237  participantsId[msg.sender] */\n      0x00\n        /* \"contracts/main.sol\":1226:1236  msg.sender */\n      caller\n        /* \"contracts/main.sol\":1211:1237  participantsId[msg.sender] */\n      0xffffffffffffffffffffffffffffffffffffffff\n      and\n      0xffffffffffffffffffffffffffffffffffffffff\n      and\n      dup2\n      mstore\n      0x20\n      add\n      swap1\n      dup2\n      mstore\n      0x20\n      add\n      0x00\n      keccak256\n        /* \"contracts/main.sol\":1211:1252  participantsId[msg.sender]=newParticipant */\n      0x00\n      dup3\n      add\n      mload\n      dup2\n      0x00\n      add\n      swap1\n      dup1\n      mload\n      swap1\n      0x20\n      add\n      swap1\n      tag_124\n      swap3\n      swap2\n      swap1\n      tag_84\n      jump\t// in\n    tag_124:\n      pop\n      0x20\n      dup3\n      add\n      mload\n      dup2\n      0x01\n      add\n      sstore\n      0x40\n      dup3\n      add\n      mload\n      dup2\n      0x02\n      add\n      exp(0x0100, 0x00)\n      dup2\n      sload\n      dup2\n      0xff\n      mul\n      not\n      and\n      swap1\n      dup4\n      0x03\n      dup2\n      gt\n      iszero\n      tag_125\n      jumpi\n      mstore(0x00, 0x4e487b7100000000000000000000000000000000000000000000000000000000)\n      mstore(0x04, 0x21)\n      revert(0x00, 0x24)\n    tag_125:\n      mul\n      or\n      swap1\n      sstore\n      pop\n      0x60\n      dup3\n      add\n      mload\n      dup2\n      0x02\n      add\n      exp(0x0100, 0x01)\n      dup2\n      sload\n      dup2\n      0xffffffffffffffffffffffffffffffffffffffff\n      mul\n      not\n      and\n      swap1\n      dup4\n      0xffffffffffffffffffffffffffffffffffffffff\n      and\n      mul\n      or\n      swap1\n      sstore\n      pop\n      0x80\n      dup3\n      add\n      mload\n      dup2\n      0x03\n      add\n      sstore\n      swap1\n      pop\n      pop\n        /* \"contracts/main.sol\":1269:1270  1 */\n      0x01\n        /* \"contracts/main.sol\":1266:1268  pc */\n      sload(0x02)\n        /* \"contracts/main.sol\":1266:1270  pc+1 */\n      tag_126\n      swap2\n      swap1\n      tag_89\n      jump\t// in\n    tag_126:\n        /* \"contracts/main.sol\":1263:1265  pc */\n      0x02\n        /* \"contracts/main.sol\":1263:1270  pc=pc+1 */\n      dup2\n      swap1\n      sstore\n      pop\n        /* \"contracts/main.sol\":841:1280  function addtransporter(string memory _uname) public {\r... */\n      pop\n      pop\n      jump\t// out\n        /* \"contracts/member.sol\":347:393  mapping(uint=>participant) public participants */\n    tag_38:\n      mstore(0x20, 0x03)\n      dup1\n      0x00\n      mstore\n      keccak256(0x00, 0x40)\n      0x00\n      swap2\n      pop\n      swap1\n      pop\n      dup1\n      0x00\n      add\n      dup1\n      sload\n      tag_127\n      swap1\n      tag_91\n      jump\t// in\n    tag_127:\n      dup1\n      0x1f\n      add\n      0x20\n      dup1\n      swap2\n      div\n      mul\n      0x20\n      add\n      mload(0x40)\n      swap1\n      dup2\n      add\n      0x40\n      mstore\n      dup1\n      swap3\n      swap2\n      swap1\n      dup2\n      dup2\n      mstore\n      0x20\n      add\n      dup3\n      dup1\n      sload\n      tag_128\n      swap1\n      tag_91\n      jump\t// in\n    tag_128:\n      dup1\n      iszero\n      tag_129\n      jumpi\n      dup1\n      0x1f\n      lt\n      tag_130\n      jumpi\n      0x0100\n      dup1\n      dup4\n      sload\n      div\n      mul\n      dup4\n      mstore\n      swap2\n      0x20\n      add\n      swap2\n      jump(tag_129)\n    tag_130:\n      dup3\n      add\n      swap2\n      swap1\n      0x00\n      mstore\n      keccak256(0x00, 0x20)\n      swap1\n    tag_131:\n      dup2\n      sload\n      dup2\n      mstore\n      swap1\n      0x01\n      add\n      swap1\n      0x20\n      add\n      dup1\n      dup4\n      gt\n      tag_131\n      jumpi\n      dup3\n      swap1\n      sub\n      0x1f\n      and\n      dup3\n      add\n      swap2\n    tag_129:\n      pop\n      pop\n      pop\n      pop\n      pop\n      swap1\n      dup1\n      0x01\n      add\n      sload\n      swap1\n      dup1\n      0x02\n      add\n      0x00\n      swap1\n      sload\n      swap1\n      0x0100\n      exp\n      swap1\n      div\n      0xff\n      and\n      swap1\n      dup1\n      0x02\n      add\n      0x01\n      swap1\n      sload\n      swap1\n      0x0100\n      exp\n      swap1\n      div\n      0xffffffffffffffffffffffffffffffffffffffff\n      and\n      swap1\n      dup1\n      0x03\n      add\n      sload\n      swap1\n      pop\n      dup6\n      jump\t// out\n        /* \"contracts/main.sol\":2973:3081  function productDetail(uint _id) public view returns (item memory)\r... */\n    tag_43:\n        /* \"contracts/main.sol\":3027:3038  item memory */\n      tag_132\n      tag_133\n      jump\t// in\n    tag_132:\n        /* \"contracts/main.sol\":3063:3068  Items */\n      0x01\n        /* \"contracts/main.sol\":3063:3073  Items[_id] */\n      0x00\n        /* \"contracts/main.sol\":3069:3072  _id */\n      dup4\n        /* \"contracts/main.sol\":3063:3073  Items[_id] */\n      dup2\n      mstore\n      0x20\n      add\n      swap1\n      dup2\n      mstore\n      0x20\n      add\n      0x00\n      keccak256\n        /* \"contracts/main.sol\":3056:3073  return Items[_id] */\n      mload(0x40)\n      dup1\n      0xa0\n      add\n      0x40\n      mstore\n      swap1\n      dup2\n      0x00\n      dup3\n      add\n      dup1\n      sload\n      tag_135\n      swap1\n      tag_91\n      jump\t// in\n    tag_135:\n      dup1\n      0x1f\n      add\n      0x20\n      dup1\n      swap2\n      div\n      mul\n      0x20\n      add\n      mload(0x40)\n      swap1\n      dup2\n      add\n      0x40\n      mstore\n      dup1\n      swap3\n      swap2\n      swap1\n      dup2\n      dup2\n      mstore\n      0x20\n      add\n      dup3\n      dup1\n      sload\n      tag_136\n      swap1\n      tag_91\n      jump\t// in\n    tag_136:\n      dup1\n      iszero\n      tag_137\n      jumpi\n      dup1\n      0x1f\n      lt\n      tag_138\n      jumpi\n      0x0100\n      dup1\n      dup4\n      sload\n      div\n      mul\n      dup4\n      mstore\n      swap2\n      0x20\n      add\n      swap2\n      jump(tag_137)\n    tag_138:\n      dup3\n      add\n      swap2\n      swap1\n      0x00\n      mstore\n      keccak256(0x00, 0x20)\n      swap1\n    tag_139:\n      dup2\n      sload\n      dup2\n      mstore\n      swap1\n      0x01\n      add\n      swap1\n      0x20\n      add\n      dup1\n      dup4\n      gt\n      tag_139\n      jumpi\n      dup3\n      swap1\n      sub\n      0x1f\n      and\n      dup3\n      add\n      swap2\n    tag_137:\n      pop\n      pop\n      pop\n      pop\n      pop\n      dup2\n      mstore\n      0x20\n      add\n      0x01\n      dup3\n      add\n      sload\n      dup2\n      mstore\n      0x20\n      add\n      0x02\n      dup3\n      add\n      0x00\n      swap1\n      sload\n      swap1\n      0x0100\n      exp\n      swap1\n      div\n      0xffffffffffffffffffffffffffffffffffffffff\n      and\n      0xffffffffffffffffffffffffffffffffffffffff\n      and\n      0xffffffffffffffffffffffffffffffffffffffff\n      and\n      dup2\n      mstore\n      0x20\n      add\n      0x02\n      dup3\n      add\n      0x14\n      swap1\n      sload\n      swap1\n      0x0100\n      exp\n      swap1\n      div\n      0xff\n      and\n      0x06\n      dup2\n      gt\n      iszero\n      tag_140\n      jumpi\n      mstore(0x00, 0x4e487b7100000000000000000000000000000000000000000000000000000000)\n      mstore(0x04, 0x21)\n      revert(0x00, 0x24)\n    tag_140:\n      0x06\n      dup2\n      gt\n      iszero\n      tag_141\n      jumpi\n      mstore(0x00, 0x4e487b7100000000000000000000000000000000000000000000000000000000)\n      mstore(0x04, 0x21)\n      revert(0x00, 0x24)\n    tag_141:\n      dup2\n      mstore\n      0x20\n      add\n      0x03\n      dup3\n      add\n      sload\n      dup2\n      mstore\n      pop\n      pop\n      swap1\n      pop\n        /* \"contracts/main.sol\":2973:3081  function productDetail(uint _id) public view returns (item memory)\r... */\n      swap2\n      swap1\n      pop\n      jump\t// out\n        /* \"contracts/main.sol\":2656:2852  function ship_product(uint _id,address _transporter_address) public productowner(_id)\r... */\n    tag_49:\n        /* \"contracts/main.sol\":2737:2740  _id */\n      dup2\n        /* \"contracts/modifier.sol\":1424:1434  msg.sender */\n      caller\n        /* \"contracts/modifier.sol\":1400:1434  Items[_id].itemOwner == msg.sender */\n      0xffffffffffffffffffffffffffffffffffffffff\n      and\n        /* \"contracts/modifier.sol\":1400:1405  Items */\n      0x01\n        /* \"contracts/modifier.sol\":1400:1410  Items[_id] */\n      0x00\n        /* \"contracts/modifier.sol\":1406:1409  _id */\n      dup4\n        /* \"contracts/modifier.sol\":1400:1410  Items[_id] */\n      dup2\n      mstore\n      0x20\n      add\n      swap1\n      dup2\n      mstore\n      0x20\n      add\n      0x00\n      keccak256\n        /* \"contracts/modifier.sol\":1400:1420  Items[_id].itemOwner */\n      0x02\n      add\n      0x00\n      swap1\n      sload\n      swap1\n      0x0100\n      exp\n      swap1\n      div\n      0xffffffffffffffffffffffffffffffffffffffff\n      and\n        /* \"contracts/modifier.sol\":1400:1434  Items[_id].itemOwner == msg.sender */\n      0xffffffffffffffffffffffffffffffffffffffff\n      and\n      eq\n        /* \"contracts/modifier.sol\":1392:1472  require(Items[_id].itemOwner == msg.sender ,\"you are not owner of this product\") */\n      tag_143\n      jumpi\n      mload(0x40)\n      0x08c379a000000000000000000000000000000000000000000000000000000000\n      dup2\n      mstore\n      0x04\n      add\n      tag_144\n      swap1\n      tag_145\n      jump\t// in\n    tag_144:\n      mload(0x40)\n      dup1\n      swap2\n      sub\n      swap1\n      revert\n    tag_143:\n        /* \"contracts/main.sol\":2783:2796  state.shipped */\n      0x03\n        /* \"contracts/main.sol\":2757:2762  Items */\n      0x01\n        /* \"contracts/main.sol\":2757:2767  Items[_id] */\n      0x00\n        /* \"contracts/main.sol\":2763:2766  _id */\n      dup6\n        /* \"contracts/main.sol\":2757:2767  Items[_id] */\n      dup2\n      mstore\n      0x20\n      add\n      swap1\n      dup2\n      mstore\n      0x20\n      add\n      0x00\n      keccak256\n        /* \"contracts/main.sol\":2757:2780  Items[_id].productState */\n      0x02\n      add\n      0x14\n        /* \"contracts/main.sol\":2757:2796  Items[_id].productState = state.shipped */\n      0x0100\n      exp\n      dup2\n      sload\n      dup2\n      0xff\n      mul\n      not\n      and\n      swap1\n      dup4\n      0x06\n      dup2\n      gt\n      iszero\n      tag_147\n      jumpi\n      mstore(0x00, 0x4e487b7100000000000000000000000000000000000000000000000000000000)\n      mstore(0x04, 0x21)\n      revert(0x00, 0x24)\n    tag_147:\n      mul\n      or\n      swap1\n      sstore\n      pop\n        /* \"contracts/main.sol\":2811:2844  shipped(_id,_transporter_address) */\n      0x45af58aaf003ac2ec2ad90282f8d3d79ede476b3e19183acb4abdebf6553b6a9\n        /* \"contracts/main.sol\":2819:2822  _id */\n      dup4\n        /* \"contracts/main.sol\":2823:2843  _transporter_address */\n      dup4\n        /* \"contracts/main.sol\":2811:2844  shipped(_id,_transporter_address) */\n      mload(0x40)\n      tag_148\n      swap3\n      swap2\n      swap1\n      tag_116\n      jump\t// in\n    tag_148:\n      mload(0x40)\n      dup1\n      swap2\n      sub\n      swap1\n      log1\n        /* \"contracts/main.sol\":2656:2852  function ship_product(uint _id,address _transporter_address) public productowner(_id)\r... */\n      pop\n      pop\n      pop\n      jump\t// out\n        /* \"contracts/main.sol\":2866:2935  function qualityCheck(uint _id,bool _quality) public \r... */\n    tag_53:\n      pop\n      pop\n      jump\t// out\n        /* \"contracts/main.sol\":3208:3328  function personDetail(uint _id) public view returns(participant memory)\r... */\n    tag_56:\n        /* \"contracts/main.sol\":3260:3278  participant memory */\n      tag_150\n      tag_80\n      jump\t// in\n    tag_150:\n        /* \"contracts/main.sol\":3303:3315  participants */\n      0x03\n        /* \"contracts/main.sol\":3303:3320  participants[_id] */\n      0x00\n        /* \"contracts/main.sol\":3316:3319  _id */\n      dup4\n        /* \"contracts/main.sol\":3303:3320  participants[_id] */\n      dup2\n      mstore\n      0x20\n      add\n      swap1\n      dup2\n      mstore\n      0x20\n      add\n      0x00\n      keccak256\n        /* \"contracts/main.sol\":3296:3320  return participants[_id] */\n      mload(0x40)\n      dup1\n      0xa0\n      add\n      0x40\n      mstore\n      swap1\n      dup2\n      0x00\n      dup3\n      add\n      dup1\n      sload\n      tag_152\n      swap1\n      tag_91\n      jump\t// in\n    tag_152:\n      dup1\n      0x1f\n      add\n      0x20\n      dup1\n      swap2\n      div\n      mul\n      0x20\n      add\n      mload(0x40)\n      swap1\n      dup2\n      add\n      0x40\n      mstore\n      dup1\n      swap3\n      swap2\n      swap1\n      dup2\n      dup2\n      mstore\n      0x20\n      add\n      dup3\n      dup1\n      sload\n      tag_153\n      swap1\n      tag_91\n      jump\t// in\n    tag_153:\n      dup1\n      iszero\n      tag_154\n      jumpi\n      dup1\n      0x1f\n      lt\n      tag_155\n      jumpi\n      0x0100\n      dup1\n      dup4\n      sload\n      div\n      mul\n      dup4\n      mstore\n      swap2\n      0x20\n      add\n      swap2\n      jump(tag_154)\n    tag_155:\n      dup3\n      add\n      swap2\n      swap1\n      0x00\n      mstore\n      keccak256(0x00, 0x20)\n      swap1\n    tag_156:\n      dup2\n      sload\n      dup2\n      mstore\n      swap1\n      0x01\n      add\n      swap1\n      0x20\n      add\n      dup1\n      dup4\n      gt\n      tag_156\n      jumpi\n      dup3\n      swap1\n      sub\n      0x1f\n      and\n      dup3\n      add\n      swap2\n    tag_154:\n      pop\n      pop\n      pop\n      pop\n      pop\n      dup2\n      mstore\n      0x20\n      add\n      0x01\n      dup3\n      add\n      sload\n      dup2\n      mstore\n      0x20\n      add\n      0x02\n      dup3\n      add\n      0x00\n      swap1\n      sload\n      swap1\n      0x0100\n      exp\n      swap1\n      div\n      0xff\n      and\n      0x03\n      dup2\n      gt\n      iszero\n      tag_157\n      jumpi\n      mstore(0x00, 0x4e487b7100000000000000000000000000000000000000000000000000000000)\n      mstore(0x04, 0x21)\n      revert(0x00, 0x24)\n    tag_157:\n      0x03\n      dup2\n      gt\n      iszero\n      tag_158\n      jumpi\n      mstore(0x00, 0x4e487b7100000000000000000000000000000000000000000000000000000000)\n      mstore(0x04, 0x21)\n      revert(0x00, 0x24)\n    tag_158:\n      dup2\n      mstore\n      0x20\n      add\n      0x02\n      dup3\n      add\n      0x01\n      swap1\n      sload\n      swap1\n      0x0100\n      exp\n      swap1\n      div\n      0xffffffffffffffffffffffffffffffffffffffff\n      and\n      0xffffffffffffffffffffffffffffffffffffffff\n      and\n      0xffffffffffffffffffffffffffffffffffffffff\n      and\n      dup2\n      mstore\n      0x20\n      add\n      0x03\n      dup3\n      add\n      sload\n      dup2\n      mstore\n      pop\n      pop\n      swap1\n      pop\n        /* \"contracts/main.sol\":3208:3328  function personDetail(uint _id) public view returns(participant memory)\r... */\n      swap2\n      swap1\n      pop\n      jump\t// out\n        /* \"contracts/main.sol\":1733:2130  function addItem(string memory _product_name , uint cost) public onlyDistributor(msg.sender)\r... */\n    tag_62:\n        /* \"contracts/main.sol\":1814:1824  msg.sender */\n      caller\n        /* \"contracts/modifier.sol\":428:446  user_type.supplier */\n      0x00\n        /* \"contracts/modifier.sol\":394:446  participantsId[_address].utype == user_type.supplier */\n      0x03\n      dup2\n      gt\n      iszero\n      tag_160\n      jumpi\n      mstore(0x00, 0x4e487b7100000000000000000000000000000000000000000000000000000000)\n      mstore(0x04, 0x21)\n      revert(0x00, 0x24)\n    tag_160:\n        /* \"contracts/modifier.sol\":394:408  participantsId */\n      0x04\n        /* \"contracts/modifier.sol\":394:418  participantsId[_address] */\n      0x00\n        /* \"contracts/modifier.sol\":409:417  _address */\n      dup4\n        /* \"contracts/modifier.sol\":394:418  participantsId[_address] */\n      0xffffffffffffffffffffffffffffffffffffffff\n      and\n      0xffffffffffffffffffffffffffffffffffffffff\n      and\n      dup2\n      mstore\n      0x20\n      add\n      swap1\n      dup2\n      mstore\n      0x20\n      add\n      0x00\n      keccak256\n        /* \"contracts/modifier.sol\":394:424  participantsId[_address].utype */\n      0x02\n      add\n      0x00\n      swap1\n      sload\n      swap1\n      0x0100\n      exp\n      swap1\n      div\n      0xff\n      and\n        /* \"contracts/modifier.sol\":394:446  participantsId[_address].utype == user_type.supplier */\n      0x03\n      dup2\n      gt\n      iszero\n      tag_161\n      jumpi\n      mstore(0x00, 0x4e487b7100000000000000000000000000000000000000000000000000000000)\n      mstore(0x04, 0x21)\n      revert(0x00, 0x24)\n    tag_161:\n      eq\n        /* \"contracts/modifier.sol\":386:477  require(participantsId[_address].utype == user_type.supplier ,\"you cannot add new product\") */\n      tag_162\n      jumpi\n      mload(0x40)\n      0x08c379a000000000000000000000000000000000000000000000000000000000\n      dup2\n      mstore\n      0x04\n      add\n      tag_163\n      swap1\n      tag_164\n      jump\t// in\n    tag_163:\n      mload(0x40)\n      dup1\n      swap2\n      sub\n      swap1\n      revert\n    tag_162:\n        /* \"contracts/main.sol\":1842:1861  item memory newItem */\n      tag_166\n      tag_133\n      jump\t// in\n    tag_166:\n        /* \"contracts/main.sol\":1894:1907  _product_name */\n      dup4\n        /* \"contracts/main.sol\":1872:1879  newItem */\n      dup2\n        /* \"contracts/main.sol\":1872:1892  newItem.product_name */\n      0x00\n      add\n        /* \"contracts/main.sol\":1872:1907  newItem.product_name =_product_name */\n      dup2\n      swap1\n      mstore\n      pop\n        /* \"contracts/main.sol\":1938:1940  ic */\n      sload(0x00)\n        /* \"contracts/main.sol\":1918:1925  newItem */\n      dup2\n        /* \"contracts/main.sol\":1918:1935  newItem.productId */\n      0x20\n      add\n        /* \"contracts/main.sol\":1918:1940  newItem.productId = ic */\n      dup2\n      dup2\n      mstore\n      pop\n      pop\n        /* \"contracts/main.sol\":1971:1981  msg.sender */\n      caller\n        /* \"contracts/main.sol\":1951:1958  newItem */\n      dup2\n        /* \"contracts/main.sol\":1951:1968  newItem.itemOwner */\n      0x40\n      add\n        /* \"contracts/main.sol\":1951:1981  newItem.itemOwner = msg.sender */\n      swap1\n      0xffffffffffffffffffffffffffffffffffffffff\n      and\n      swap1\n      dup2\n      0xffffffffffffffffffffffffffffffffffffffff\n      and\n      dup2\n      mstore\n      pop\n      pop\n        /* \"contracts/main.sol\":2015:2031  state.AtSupplier */\n      0x00\n        /* \"contracts/main.sol\":1992:1999  newItem */\n      dup2\n        /* \"contracts/main.sol\":1992:2012  newItem.productState */\n      0x60\n      add\n        /* \"contracts/main.sol\":1992:2031  newItem.productState = state.AtSupplier */\n      swap1\n      0x06\n      dup2\n      gt\n      iszero\n      tag_167\n      jumpi\n      mstore(0x00, 0x4e487b7100000000000000000000000000000000000000000000000000000000)\n      mstore(0x04, 0x21)\n      revert(0x00, 0x24)\n    tag_167:\n      swap1\n      dup2\n      0x06\n      dup2\n      gt\n      iszero\n      tag_168\n      jumpi\n      mstore(0x00, 0x4e487b7100000000000000000000000000000000000000000000000000000000)\n      mstore(0x04, 0x21)\n      revert(0x00, 0x24)\n    tag_168:\n      dup2\n      mstore\n      pop\n      pop\n        /* \"contracts/main.sol\":2052:2059  newItem */\n      dup1\n        /* \"contracts/main.sol\":2042:2047  Items */\n      0x01\n        /* \"contracts/main.sol\":2042:2051  Items[ic] */\n      0x00\n        /* \"contracts/main.sol\":2048:2050  ic */\n      dup1\n      sload\n        /* \"contracts/main.sol\":2042:2051  Items[ic] */\n      dup2\n      mstore\n      0x20\n      add\n      swap1\n      dup2\n      mstore\n      0x20\n      add\n      0x00\n      keccak256\n        /* \"contracts/main.sol\":2042:2059  Items[ic]=newItem */\n      0x00\n      dup3\n      add\n      mload\n      dup2\n      0x00\n      add\n      swap1\n      dup1\n      mload\n      swap1\n      0x20\n      add\n      swap1\n      tag_169\n      swap3\n      swap2\n      swap1\n      tag_84\n      jump\t// in\n    tag_169:\n      pop\n      0x20\n      dup3\n      add\n      mload\n      dup2\n      0x01\n      add\n      sstore\n      0x40\n      dup3\n      add\n      mload\n      dup2\n      0x02\n      add\n      exp(0x0100, 0x00)\n      dup2\n      sload\n      dup2\n      0xffffffffffffffffffffffffffffffffffffffff\n      mul\n      not\n      and\n      swap1\n      dup4\n      0xffffffffffffffffffffffffffffffffffffffff\n      and\n      mul\n      or\n      swap1\n      sstore\n      pop\n      0x60\n      dup3\n      add\n      mload\n      dup2\n      0x02\n      add\n      exp(0x0100, 0x14)\n      dup2\n      sload\n      dup2\n      0xff\n      mul\n      not\n      and\n      swap1\n      dup4\n      0x06\n      dup2\n      gt\n      iszero\n      tag_170\n      jumpi\n      mstore(0x00, 0x4e487b7100000000000000000000000000000000000000000000000000000000)\n      mstore(0x04, 0x21)\n      revert(0x00, 0x24)\n    tag_170:\n      mul\n      or\n      swap1\n      sstore\n      pop\n      0x80\n      dup3\n      add\n      mload\n      dup2\n      0x03\n      add\n      sstore\n      swap1\n      pop\n      pop\n        /* \"contracts/main.sol\":2075:2102  itemcreated(ic ,msg.sender) */\n      0x4e95503bf2c40739506d6f0afb0fe6be42ce748d90f3f516386892fb6096e5bc\n        /* \"contracts/main.sol\":2087:2089  ic */\n      sload(0x00)\n        /* \"contracts/main.sol\":2091:2101  msg.sender */\n      caller\n        /* \"contracts/main.sol\":2075:2102  itemcreated(ic ,msg.sender) */\n      mload(0x40)\n      tag_171\n      swap3\n      swap2\n      swap1\n      tag_116\n      jump\t// in\n    tag_171:\n      mload(0x40)\n      dup1\n      swap2\n      sub\n      swap1\n      log1\n        /* \"contracts/main.sol\":2119:2120  1 */\n      0x01\n        /* \"contracts/main.sol\":2116:2118  ic */\n      sload(0x00)\n        /* \"contracts/main.sol\":2116:2120  ic+1 */\n      tag_172\n      swap2\n      swap1\n      tag_89\n      jump\t// in\n    tag_172:\n        /* \"contracts/main.sol\":2113:2115  ic */\n      0x00\n        /* \"contracts/main.sol\":2113:2120  ic=ic+1 */\n      dup2\n      swap1\n      sstore\n      pop\n        /* \"contracts/modifier.sol\":489:490  _ */\n      pop\n        /* \"contracts/main.sol\":1733:2130  function addItem(string memory _product_name , uint cost) public onlyDistributor(msg.sender)\r... */\n      pop\n      pop\n      pop\n      jump\t// out\n        /* \"contracts/modifier.sol\":133:153  address public owner */\n    tag_64:\n      0x07\n      0x00\n      swap1\n      sload\n      swap1\n      0x0100\n      exp\n      swap1\n      div\n      0xffffffffffffffffffffffffffffffffffffffff\n      and\n      dup2\n      jump\t// out\n        /* \"contracts/main.sol\":1286:1727  function addManufacturer(string memory _uname) public {\r... */\n    tag_69:\n        /* \"contracts/main.sol\":1351:1384  participant memory newParticipant */\n      tag_174\n      tag_80\n      jump\t// in\n    tag_174:\n        /* \"contracts/main.sol\":1421:1427  _uname */\n      dup2\n        /* \"contracts/main.sol\":1396:1410  newParticipant */\n      dup2\n        /* \"contracts/main.sol\":1396:1419  newParticipant.username */\n      0x00\n      add\n        /* \"contracts/main.sol\":1396:1427  newParticipant.username =_uname */\n      dup2\n      swap1\n      mstore\n      pop\n        /* \"contracts/main.sol\":1462:1464  pc */\n      sload(0x02)\n        /* \"contracts/main.sol\":1438:1452  newParticipant */\n      dup2\n        /* \"contracts/main.sol\":1438:1459  newParticipant.userId */\n      0x20\n      add\n        /* \"contracts/main.sol\":1438:1464  newParticipant.userId = pc */\n      dup2\n      dup2\n      mstore\n      pop\n      pop\n        /* \"contracts/main.sol\":1498:1499  0 */\n      0x00\n        /* \"contracts/main.sol\":1475:1489  newParticipant */\n      dup2\n        /* \"contracts/main.sol\":1475:1495  newParticipant.money */\n      0x80\n      add\n        /* \"contracts/main.sol\":1475:1499  newParticipant.money = 0 */\n      dup2\n      dup2\n      mstore\n      pop\n      pop\n        /* \"contracts/main.sol\":1532:1554  user_type.manufacturer */\n      0x03\n        /* \"contracts/main.sol\":1510:1524  newParticipant */\n      dup2\n        /* \"contracts/main.sol\":1510:1530  newParticipant.utype */\n      0x40\n      add\n        /* \"contracts/main.sol\":1510:1554  newParticipant.utype= user_type.manufacturer */\n      swap1\n      0x03\n      dup2\n      gt\n      iszero\n      tag_175\n      jumpi\n      mstore(0x00, 0x4e487b7100000000000000000000000000000000000000000000000000000000)\n      mstore(0x04, 0x21)\n      revert(0x00, 0x24)\n    tag_175:\n      swap1\n      dup2\n      0x03\n      dup2\n      gt\n      iszero\n      tag_176\n      jumpi\n      mstore(0x00, 0x4e487b7100000000000000000000000000000000000000000000000000000000)\n      mstore(0x04, 0x21)\n      revert(0x00, 0x24)\n    tag_176:\n      dup2\n      mstore\n      pop\n      pop\n        /* \"contracts/main.sol\":1595:1605  msg.sender */\n      caller\n        /* \"contracts/main.sol\":1565:1579  newParticipant */\n      dup2\n        /* \"contracts/main.sol\":1565:1592  newParticipant.user_address */\n      0x60\n      add\n        /* \"contracts/main.sol\":1565:1605  newParticipant.user_address = msg.sender */\n      swap1\n      0xffffffffffffffffffffffffffffffffffffffff\n      and\n      swap1\n      dup2\n      0xffffffffffffffffffffffffffffffffffffffff\n      and\n      dup2\n      mstore\n      pop\n      pop\n        /* \"contracts/main.sol\":1633:1647  newParticipant */\n      dup1\n        /* \"contracts/main.sol\":1616:1628  participants */\n      0x03\n        /* \"contracts/main.sol\":1616:1632  participants[pc] */\n      0x00\n        /* \"contracts/main.sol\":1629:1631  pc */\n      sload(0x02)\n        /* \"contracts/main.sol\":1616:1632  participants[pc] */\n      dup2\n      mstore\n      0x20\n      add\n      swap1\n      dup2\n      mstore\n      0x20\n      add\n      0x00\n      keccak256\n        /* \"contracts/main.sol\":1616:1647  participants[pc]=newParticipant */\n      0x00\n      dup3\n      add\n      mload\n      dup2\n      0x00\n      add\n      swap1\n      dup1\n      mload\n      swap1\n      0x20\n      add\n      swap1\n      tag_177\n      swap3\n      swap2\n      swap1\n      tag_84\n      jump\t// in\n    tag_177:\n      pop\n      0x20\n      dup3\n      add\n      mload\n      dup2\n      0x01\n      add\n      sstore\n      0x40\n      dup3\n      add\n      mload\n      dup2\n      0x02\n      add\n      exp(0x0100, 0x00)\n      dup2\n      sload\n      dup2\n      0xff\n      mul\n      not\n      and\n      swap1\n      dup4\n      0x03\n      dup2\n      gt\n      iszero\n      tag_178\n      jumpi\n      mstore(0x00, 0x4e487b7100000000000000000000000000000000000000000000000000000000)\n      mstore(0x04, 0x21)\n      revert(0x00, 0x24)\n    tag_178:\n      mul\n      or\n      swap1\n      sstore\n      pop\n      0x60\n      dup3\n      add\n      mload\n      dup2\n      0x02\n      add\n      exp(0x0100, 0x01)\n      dup2\n      sload\n      dup2\n      0xffffffffffffffffffffffffffffffffffffffff\n      mul\n      not\n      and\n      swap1\n      dup4\n      0xffffffffffffffffffffffffffffffffffffffff\n      and\n      mul\n      or\n      swap1\n      sstore\n      pop\n      0x80\n      dup3\n      add\n      mload\n      dup2\n      0x03\n      add\n      sstore\n      swap1\n      pop\n      pop\n        /* \"contracts/main.sol\":1685:1699  newParticipant */\n      dup1\n        /* \"contracts/main.sol\":1658:1672  participantsId */\n      0x04\n        /* \"contracts/main.sol\":1658:1684  participantsId[msg.sender] */\n      0x00\n        /* \"contracts/main.sol\":1673:1683  msg.sender */\n      caller\n        /* \"contracts/main.sol\":1658:1684  participantsId[msg.sender] */\n      0xffffffffffffffffffffffffffffffffffffffff\n      and\n      0xffffffffffffffffffffffffffffffffffffffff\n      and\n      dup2\n      mstore\n      0x20\n      add\n      swap1\n      dup2\n      mstore\n      0x20\n      add\n      0x00\n      keccak256\n        /* \"contracts/main.sol\":1658:1699  participantsId[msg.sender]=newParticipant */\n      0x00\n      dup3\n      add\n      mload\n      dup2\n      0x00\n      add\n      swap1\n      dup1\n      mload\n      swap1\n      0x20\n      add\n      swap1\n      tag_179\n      swap3\n      swap2\n      swap1\n      tag_84\n      jump\t// in\n    tag_179:\n      pop\n      0x20\n      dup3\n      add\n      mload\n      dup2\n      0x01\n      add\n      sstore\n      0x40\n      dup3\n      add\n      mload\n      dup2\n      0x02\n      add\n      exp(0x0100, 0x00)\n      dup2\n      sload\n      dup2\n      0xff\n      mul\n      not\n      and\n      swap1\n      dup4\n      0x03\n      dup2\n      gt\n      iszero\n      tag_180\n      jumpi\n      mstore(0x00, 0x4e487b7100000000000000000000000000000000000000000000000000000000)\n      mstore(0x04, 0x21)\n      revert(0x00, 0x24)\n    tag_180:\n      mul\n      or\n      swap1\n      sstore\n      pop\n      0x60\n      dup3\n      add\n      mload\n      dup2\n      0x02\n      add\n      exp(0x0100, 0x01)\n      dup2\n      sload\n      dup2\n      0xffffffffffffffffffffffffffffffffffffffff\n      mul\n      not\n      and\n      swap1\n      dup4\n      0xffffffffffffffffffffffffffffffffffffffff\n      and\n      mul\n      or\n      swap1\n      sstore\n      pop\n      0x80\n      dup3\n      add\n      mload\n      dup2\n      0x03\n      add\n      sstore\n      swap1\n      pop\n      pop\n        /* \"contracts/main.sol\":1716:1717  1 */\n      0x01\n        /* \"contracts/main.sol\":1713:1715  pc */\n      sload(0x02)\n        /* \"contracts/main.sol\":1713:1717  pc+1 */\n      tag_181\n      swap2\n      swap1\n      tag_89\n      jump\t// in\n    tag_181:\n        /* \"contracts/main.sol\":1710:1712  pc */\n      0x02\n        /* \"contracts/main.sol\":1710:1717  pc=pc+1 */\n      dup2\n      swap1\n      sstore\n      pop\n        /* \"contracts/main.sol\":1286:1727  function addManufacturer(string memory _uname) public {\r... */\n      pop\n      pop\n      jump\t// out\n        /* \"contracts/main.sol\":3087:3200  function currentState(uint _id)public view returns(state )\r... */\n    tag_72:\n        /* \"contracts/main.sol\":3138:3143  state */\n      0x00\n        /* \"contracts/main.sol\":3169:3174  Items */\n      0x01\n        /* \"contracts/main.sol\":3169:3179  Items[_id] */\n      0x00\n        /* \"contracts/main.sol\":3175:3178  _id */\n      dup4\n        /* \"contracts/main.sol\":3169:3179  Items[_id] */\n      dup2\n      mstore\n      0x20\n      add\n      swap1\n      dup2\n      mstore\n      0x20\n      add\n      0x00\n      keccak256\n        /* \"contracts/main.sol\":3169:3192  Items[_id].productState */\n      0x02\n      add\n      0x14\n      swap1\n      sload\n      swap1\n      0x0100\n      exp\n      swap1\n      div\n      0xff\n      and\n        /* \"contracts/main.sol\":3162:3192  return Items[_id].productState */\n      swap1\n      pop\n        /* \"contracts/main.sol\":3087:3200  function currentState(uint _id)public view returns(state )\r... */\n      swap2\n      swap1\n      pop\n      jump\t// out\n        /* \"contracts/main.sol\":2136:2292  function avaliableforsale(uint _id) public productowner(_id)\r... */\n    tag_77:\n        /* \"contracts/main.sol\":2192:2195  _id */\n      dup1\n        /* \"contracts/modifier.sol\":1424:1434  msg.sender */\n      caller\n        /* \"contracts/modifier.sol\":1400:1434  Items[_id].itemOwner == msg.sender */\n      0xffffffffffffffffffffffffffffffffffffffff\n      and\n        /* \"contracts/modifier.sol\":1400:1405  Items */\n      0x01\n        /* \"contracts/modifier.sol\":1400:1410  Items[_id] */\n      0x00\n        /* \"contracts/modifier.sol\":1406:1409  _id */\n      dup4\n        /* \"contracts/modifier.sol\":1400:1410  Items[_id] */\n      dup2\n      mstore\n      0x20\n      add\n      swap1\n      dup2\n      mstore\n      0x20\n      add\n      0x00\n      keccak256\n        /* \"contracts/modifier.sol\":1400:1420  Items[_id].itemOwner */\n      0x02\n      add\n      0x00\n      swap1\n      sload\n      swap1\n      0x0100\n      exp\n      swap1\n      div\n      0xffffffffffffffffffffffffffffffffffffffff\n      and\n        /* \"contracts/modifier.sol\":1400:1434  Items[_id].itemOwner == msg.sender */\n      0xffffffffffffffffffffffffffffffffffffffff\n      and\n      eq\n        /* \"contracts/modifier.sol\":1392:1472  require(Items[_id].itemOwner == msg.sender ,\"you are not owner of this product\") */\n      tag_184\n      jumpi\n      mload(0x40)\n      0x08c379a000000000000000000000000000000000000000000000000000000000\n      dup2\n      mstore\n      0x04\n      add\n      tag_185\n      swap1\n      tag_145\n      jump\t// in\n    tag_185:\n      mload(0x40)\n      dup1\n      swap2\n      sub\n      swap1\n      revert\n    tag_184:\n        /* \"contracts/main.sol\":2239:2252  state.ForSale */\n      0x01\n        /* \"contracts/main.sol\":2213:2218  Items */\n      dup1\n        /* \"contracts/main.sol\":2213:2223  Items[_id] */\n      0x00\n        /* \"contracts/main.sol\":2219:2222  _id */\n      dup5\n        /* \"contracts/main.sol\":2213:2223  Items[_id] */\n      dup2\n      mstore\n      0x20\n      add\n      swap1\n      dup2\n      mstore\n      0x20\n      add\n      0x00\n      keccak256\n        /* \"contracts/main.sol\":2213:2236  Items[_id].productState */\n      0x02\n      add\n      0x14\n        /* \"contracts/main.sol\":2213:2252  Items[_id].productState = state.ForSale */\n      0x0100\n      exp\n      dup2\n      sload\n      dup2\n      0xff\n      mul\n      not\n      and\n      swap1\n      dup4\n      0x06\n      dup2\n      gt\n      iszero\n      tag_187\n      jumpi\n      mstore(0x00, 0x4e487b7100000000000000000000000000000000000000000000000000000000)\n      mstore(0x04, 0x21)\n      revert(0x00, 0x24)\n    tag_187:\n      mul\n      or\n      swap1\n      sstore\n      pop\n        /* \"contracts/main.sol\":2268:2284  openForSale(_id) */\n      0x15f51416bf6f180a7f06ab542b87dacc1363e503b8df75d711f9aaedc5c48a70\n        /* \"contracts/main.sol\":2280:2283  _id */\n      dup3\n        /* \"contracts/main.sol\":2268:2284  openForSale(_id) */\n      mload(0x40)\n      tag_188\n      swap2\n      swap1\n      tag_189\n      jump\t// in\n    tag_188:\n      mload(0x40)\n      dup1\n      swap2\n      sub\n      swap1\n      log1\n        /* \"contracts/main.sol\":2136:2292  function avaliableforsale(uint _id) public productowner(_id)\r... */\n      pop\n      pop\n      jump\t// out\n    tag_80:\n      mload(0x40)\n      dup1\n      0xa0\n      add\n      0x40\n      mstore\n      dup1\n      0x60\n      dup2\n      mstore\n      0x20\n      add\n      0x00\n      dup2\n      mstore\n      0x20\n      add\n      0x00\n      0x03\n      dup2\n      gt\n      iszero\n      tag_190\n      jumpi\n      mstore(0x00, 0x4e487b7100000000000000000000000000000000000000000000000000000000)\n      mstore(0x04, 0x21)\n      revert(0x00, 0x24)\n    tag_190:\n      dup2\n      mstore\n      0x20\n      add\n      and(0xffffffffffffffffffffffffffffffffffffffff, 0x00)\n      dup2\n      mstore\n      0x20\n      add\n      0x00\n      dup2\n      mstore\n      pop\n      swap1\n      jump\t// out\n    tag_84:\n      dup3\n      dup1\n      sload\n      tag_191\n      swap1\n      tag_91\n      jump\t// in\n    tag_191:\n      swap1\n      0x00\n      mstore\n      keccak256(0x00, 0x20)\n      swap1\n      0x1f\n      add\n      0x20\n      swap1\n      div\n      dup2\n      add\n      swap3\n      dup3\n      tag_193\n      jumpi\n      0x00\n      dup6\n      sstore\n      jump(tag_192)\n    tag_193:\n      dup3\n      0x1f\n      lt\n      tag_194\n      jumpi\n      dup1\n      mload\n      not(0xff)\n      and\n      dup4\n      dup1\n      add\n      or\n      dup6\n      sstore\n      jump(tag_192)\n    tag_194:\n      dup3\n      dup1\n      add\n      0x01\n      add\n      dup6\n      sstore\n      dup3\n      iszero\n      tag_192\n      jumpi\n      swap2\n      dup3\n      add\n    tag_195:\n      dup3\n      dup2\n      gt\n      iszero\n      tag_196\n      jumpi\n      dup3\n      mload\n      dup3\n      sstore\n      swap2\n      0x20\n      add\n      swap2\n      swap1\n      0x01\n      add\n      swap1\n      jump(tag_195)\n    tag_196:\n    tag_192:\n      pop\n      swap1\n      pop\n      tag_197\n      swap2\n      swap1\n      tag_198\n      jump\t// in\n    tag_197:\n      pop\n      swap1\n      jump\t// out\n    tag_102:\n      mload(0x40)\n      dup1\n      0x80\n      add\n      0x40\n      mstore\n      dup1\n      0x00\n      dup2\n      mstore\n      0x20\n      add\n      tag_199\n      tag_133\n      jump\t// in\n    tag_199:\n      dup2\n      mstore\n      0x20\n      add\n      and(0xffffffffffffffffffffffffffffffffffffffff, 0x00)\n      dup2\n      mstore\n      0x20\n      add\n      0x00\n      0x02\n      dup2\n      gt\n      iszero\n      tag_200\n      jumpi\n      mstore(0x00, 0x4e487b7100000000000000000000000000000000000000000000000000000000)\n      mstore(0x04, 0x21)\n      revert(0x00, 0x24)\n    tag_200:\n      dup2\n      mstore\n      pop\n      swap1\n      jump\t// out\n    tag_133:\n      mload(0x40)\n      dup1\n      0xa0\n      add\n      0x40\n      mstore\n      dup1\n      0x60\n      dup2\n      mstore\n      0x20\n      add\n      0x00\n      dup2\n      mstore\n      0x20\n      add\n      and(0xffffffffffffffffffffffffffffffffffffffff, 0x00)\n      dup2\n      mstore\n      0x20\n      add\n      0x00\n      0x06\n      dup2\n      gt\n      iszero\n      tag_201\n      jumpi\n      mstore(0x00, 0x4e487b7100000000000000000000000000000000000000000000000000000000)\n      mstore(0x04, 0x21)\n      revert(0x00, 0x24)\n    tag_201:\n      dup2\n      mstore\n      0x20\n      add\n      0x00\n      dup2\n      mstore\n      pop\n      swap1\n      jump\t// out\n    tag_198:\n    tag_202:\n      dup1\n      dup3\n      gt\n      iszero\n      tag_203\n      jumpi\n      0x00\n      dup2\n      0x00\n      swap1\n      sstore\n      pop\n      0x01\n      add\n      jump(tag_202)\n    tag_203:\n      pop\n      swap1\n      jump\t// out\n        /* \"#utility.yul\":7:351   */\n    tag_205:\n      0x00\n        /* \"#utility.yul\":110:175   */\n      tag_207\n        /* \"#utility.yul\":125:174   */\n      tag_208\n        /* \"#utility.yul\":167:173   */\n      dup5\n        /* \"#utility.yul\":125:174   */\n      tag_209\n      jump\t// in\n    tag_208:\n        /* \"#utility.yul\":110:175   */\n      tag_210\n      jump\t// in\n    tag_207:\n        /* \"#utility.yul\":101:175   */\n      swap1\n      pop\n        /* \"#utility.yul\":198:204   */\n      dup3\n        /* \"#utility.yul\":191:196   */\n      dup2\n        /* \"#utility.yul\":184:205   */\n      mstore\n        /* \"#utility.yul\":236:240   */\n      0x20\n        /* \"#utility.yul\":229:234   */\n      dup2\n        /* \"#utility.yul\":225:241   */\n      add\n        /* \"#utility.yul\":274:277   */\n      dup5\n        /* \"#utility.yul\":265:271   */\n      dup5\n        /* \"#utility.yul\":260:263   */\n      dup5\n        /* \"#utility.yul\":256:272   */\n      add\n        /* \"#utility.yul\":253:278   */\n      gt\n        /* \"#utility.yul\":250:252   */\n      iszero\n      tag_211\n      jumpi\n        /* \"#utility.yul\":291:292   */\n      0x00\n        /* \"#utility.yul\":288:289   */\n      dup1\n        /* \"#utility.yul\":281:293   */\n      revert\n        /* \"#utility.yul\":250:252   */\n    tag_211:\n        /* \"#utility.yul\":304:345   */\n      tag_212\n        /* \"#utility.yul\":338:344   */\n      dup5\n        /* \"#utility.yul\":333:336   */\n      dup3\n        /* \"#utility.yul\":328:331   */\n      dup6\n        /* \"#utility.yul\":304:345   */\n      tag_213\n      jump\t// in\n    tag_212:\n        /* \"#utility.yul\":91:351   */\n      pop\n      swap4\n      swap3\n      pop\n      pop\n      pop\n      jump\t// out\n        /* \"#utility.yul\":357:496   */\n    tag_214:\n      0x00\n        /* \"#utility.yul\":441:447   */\n      dup2\n        /* \"#utility.yul\":428:448   */\n      calldataload\n        /* \"#utility.yul\":419:448   */\n      swap1\n      pop\n        /* \"#utility.yul\":457:490   */\n      tag_216\n        /* \"#utility.yul\":484:489   */\n      dup2\n        /* \"#utility.yul\":457:490   */\n      tag_217\n      jump\t// in\n    tag_216:\n        /* \"#utility.yul\":409:496   */\n      swap3\n      swap2\n      pop\n      pop\n      jump\t// out\n        /* \"#utility.yul\":502:635   */\n    tag_218:\n      0x00\n        /* \"#utility.yul\":583:589   */\n      dup2\n        /* \"#utility.yul\":570:590   */\n      calldataload\n        /* \"#utility.yul\":561:590   */\n      swap1\n      pop\n        /* \"#utility.yul\":599:629   */\n      tag_220\n        /* \"#utility.yul\":623:628   */\n      dup2\n        /* \"#utility.yul\":599:629   */\n      tag_221\n      jump\t// in\n    tag_220:\n        /* \"#utility.yul\":551:635   */\n      swap3\n      swap2\n      pop\n      pop\n      jump\t// out\n        /* \"#utility.yul\":655:928   */\n    tag_222:\n      0x00\n        /* \"#utility.yul\":760:763   */\n      dup3\n        /* \"#utility.yul\":753:757   */\n      0x1f\n        /* \"#utility.yul\":745:751   */\n      dup4\n        /* \"#utility.yul\":741:758   */\n      add\n        /* \"#utility.yul\":737:764   */\n      slt\n        /* \"#utility.yul\":727:729   */\n      tag_224\n      jumpi\n        /* \"#utility.yul\":778:779   */\n      0x00\n        /* \"#utility.yul\":775:776   */\n      dup1\n        /* \"#utility.yul\":768:780   */\n      revert\n        /* \"#utility.yul\":727:729   */\n    tag_224:\n        /* \"#utility.yul\":818:824   */\n      dup2\n        /* \"#utility.yul\":805:825   */\n      calldataload\n        /* \"#utility.yul\":843:922   */\n      tag_225\n        /* \"#utility.yul\":918:921   */\n      dup5\n        /* \"#utility.yul\":910:916   */\n      dup3\n        /* \"#utility.yul\":903:907   */\n      0x20\n        /* \"#utility.yul\":895:901   */\n      dup7\n        /* \"#utility.yul\":891:908   */\n      add\n        /* \"#utility.yul\":843:922   */\n      tag_205\n      jump\t// in\n    tag_225:\n        /* \"#utility.yul\":834:922   */\n      swap2\n      pop\n        /* \"#utility.yul\":717:928   */\n      pop\n      swap3\n      swap2\n      pop\n      pop\n      jump\t// out\n        /* \"#utility.yul\":934:1073   */\n    tag_226:\n      0x00\n        /* \"#utility.yul\":1018:1024   */\n      dup2\n        /* \"#utility.yul\":1005:1025   */\n      calldataload\n        /* \"#utility.yul\":996:1025   */\n      swap1\n      pop\n        /* \"#utility.yul\":1034:1067   */\n      tag_228\n        /* \"#utility.yul\":1061:1066   */\n      dup2\n        /* \"#utility.yul\":1034:1067   */\n      tag_229\n      jump\t// in\n    tag_228:\n        /* \"#utility.yul\":986:1073   */\n      swap3\n      swap2\n      pop\n      pop\n      jump\t// out\n        /* \"#utility.yul\":1079:1454   */\n    tag_22:\n      0x00\n        /* \"#utility.yul\":1197:1199   */\n      0x20\n        /* \"#utility.yul\":1185:1194   */\n      dup3\n        /* \"#utility.yul\":1176:1183   */\n      dup5\n        /* \"#utility.yul\":1172:1195   */\n      sub\n        /* \"#utility.yul\":1168:1200   */\n      slt\n        /* \"#utility.yul\":1165:1167   */\n      iszero\n      tag_231\n      jumpi\n        /* \"#utility.yul\":1213:1214   */\n      0x00\n        /* \"#utility.yul\":1210:1211   */\n      dup1\n        /* \"#utility.yul\":1203:1215   */\n      revert\n        /* \"#utility.yul\":1165:1167   */\n    tag_231:\n        /* \"#utility.yul\":1284:1285   */\n      0x00\n        /* \"#utility.yul\":1273:1282   */\n      dup3\n        /* \"#utility.yul\":1269:1286   */\n      add\n        /* \"#utility.yul\":1256:1287   */\n      calldataload\n        /* \"#utility.yul\":1314:1332   */\n      0xffffffffffffffff\n        /* \"#utility.yul\":1306:1312   */\n      dup2\n        /* \"#utility.yul\":1303:1333   */\n      gt\n        /* \"#utility.yul\":1300:1302   */\n      iszero\n      tag_232\n      jumpi\n        /* \"#utility.yul\":1346:1347   */\n      0x00\n        /* \"#utility.yul\":1343:1344   */\n      dup1\n        /* \"#utility.yul\":1336:1348   */\n      revert\n        /* \"#utility.yul\":1300:1302   */\n    tag_232:\n        /* \"#utility.yul\":1374:1437   */\n      tag_233\n        /* \"#utility.yul\":1429:1436   */\n      dup5\n        /* \"#utility.yul\":1420:1426   */\n      dup3\n        /* \"#utility.yul\":1409:1418   */\n      dup6\n        /* \"#utility.yul\":1405:1427   */\n      add\n        /* \"#utility.yul\":1374:1437   */\n      tag_222\n      jump\t// in\n    tag_233:\n        /* \"#utility.yul\":1364:1437   */\n      swap2\n      pop\n        /* \"#utility.yul\":1227:1447   */\n      pop\n        /* \"#utility.yul\":1155:1454   */\n      swap3\n      swap2\n      pop\n      pop\n      jump\t// out\n        /* \"#utility.yul\":1460:1980   */\n    tag_61:\n      0x00\n      dup1\n        /* \"#utility.yul\":1595:1597   */\n      0x40\n        /* \"#utility.yul\":1583:1592   */\n      dup4\n        /* \"#utility.yul\":1574:1581   */\n      dup6\n        /* \"#utility.yul\":1570:1593   */\n      sub\n        /* \"#utility.yul\":1566:1598   */\n      slt\n        /* \"#utility.yul\":1563:1565   */\n      iszero\n      tag_235\n      jumpi\n        /* \"#utility.yul\":1611:1612   */\n      0x00\n        /* \"#utility.yul\":1608:1609   */\n      dup1\n        /* \"#utility.yul\":1601:1613   */\n      revert\n        /* \"#utility.yul\":1563:1565   */\n    tag_235:\n        /* \"#utility.yul\":1682:1683   */\n      0x00\n        /* \"#utility.yul\":1671:1680   */\n      dup4\n        /* \"#utility.yul\":1667:1684   */\n      add\n        /* \"#utility.yul\":1654:1685   */\n      calldataload\n        /* \"#utility.yul\":1712:1730   */\n      0xffffffffffffffff\n        /* \"#utility.yul\":1704:1710   */\n      dup2\n        /* \"#utility.yul\":1701:1731   */\n      gt\n        /* \"#utility.yul\":1698:1700   */\n      iszero\n      tag_236\n      jumpi\n        /* \"#utility.yul\":1744:1745   */\n      0x00\n        /* \"#utility.yul\":1741:1742   */\n      dup1\n        /* \"#utility.yul\":1734:1746   */\n      revert\n        /* \"#utility.yul\":1698:1700   */\n    tag_236:\n        /* \"#utility.yul\":1772:1835   */\n      tag_237\n        /* \"#utility.yul\":1827:1834   */\n      dup6\n        /* \"#utility.yul\":1818:1824   */\n      dup3\n        /* \"#utility.yul\":1807:1816   */\n      dup7\n        /* \"#utility.yul\":1803:1825   */\n      add\n        /* \"#utility.yul\":1772:1835   */\n      tag_222\n      jump\t// in\n    tag_237:\n        /* \"#utility.yul\":1762:1835   */\n      swap3\n      pop\n        /* \"#utility.yul\":1625:1845   */\n      pop\n        /* \"#utility.yul\":1884:1886   */\n      0x20\n        /* \"#utility.yul\":1910:1963   */\n      tag_238\n        /* \"#utility.yul\":1955:1962   */\n      dup6\n        /* \"#utility.yul\":1946:1952   */\n      dup3\n        /* \"#utility.yul\":1935:1944   */\n      dup7\n        /* \"#utility.yul\":1931:1953   */\n      add\n        /* \"#utility.yul\":1910:1963   */\n      tag_226\n      jump\t// in\n    tag_238:\n        /* \"#utility.yul\":1900:1963   */\n      swap2\n      pop\n        /* \"#utility.yul\":1855:1973   */\n      pop\n        /* \"#utility.yul\":1553:1980   */\n      swap3\n      pop\n      swap3\n      swap1\n      pop\n      jump\t// out\n        /* \"#utility.yul\":1986:2248   */\n    tag_26:\n      0x00\n        /* \"#utility.yul\":2094:2096   */\n      0x20\n        /* \"#utility.yul\":2082:2091   */\n      dup3\n        /* \"#utility.yul\":2073:2080   */\n      dup5\n        /* \"#utility.yul\":2069:2092   */\n      sub\n        /* \"#utility.yul\":2065:2097   */\n      slt\n        /* \"#utility.yul\":2062:2064   */\n      iszero\n      tag_240\n      jumpi\n        /* \"#utility.yul\":2110:2111   */\n      0x00\n        /* \"#utility.yul\":2107:2108   */\n      dup1\n        /* \"#utility.yul\":2100:2112   */\n      revert\n        /* \"#utility.yul\":2062:2064   */\n    tag_240:\n        /* \"#utility.yul\":2153:2154   */\n      0x00\n        /* \"#utility.yul\":2178:2231   */\n      tag_241\n        /* \"#utility.yul\":2223:2230   */\n      dup5\n        /* \"#utility.yul\":2214:2220   */\n      dup3\n        /* \"#utility.yul\":2203:2212   */\n      dup6\n        /* \"#utility.yul\":2199:2221   */\n      add\n        /* \"#utility.yul\":2178:2231   */\n      tag_226\n      jump\t// in\n    tag_241:\n        /* \"#utility.yul\":2168:2231   */\n      swap2\n      pop\n        /* \"#utility.yul\":2124:2241   */\n      pop\n        /* \"#utility.yul\":2052:2248   */\n      swap3\n      swap2\n      pop\n      pop\n      jump\t// out\n        /* \"#utility.yul\":2254:2661   */\n    tag_48:\n      0x00\n      dup1\n        /* \"#utility.yul\":2379:2381   */\n      0x40\n        /* \"#utility.yul\":2367:2376   */\n      dup4\n        /* \"#utility.yul\":2358:2365   */\n      dup6\n        /* \"#utility.yul\":2354:2377   */\n      sub\n        /* \"#utility.yul\":2350:2382   */\n      slt\n        /* \"#utility.yul\":2347:2349   */\n      iszero\n      tag_243\n      jumpi\n        /* \"#utility.yul\":2395:2396   */\n      0x00\n        /* \"#utility.yul\":2392:2393   */\n      dup1\n        /* \"#utility.yul\":2385:2397   */\n      revert\n        /* \"#utility.yul\":2347:2349   */\n    tag_243:\n        /* \"#utility.yul\":2438:2439   */\n      0x00\n        /* \"#utility.yul\":2463:2516   */\n      tag_244\n        /* \"#utility.yul\":2508:2515   */\n      dup6\n        /* \"#utility.yul\":2499:2505   */\n      dup3\n        /* \"#utility.yul\":2488:2497   */\n      dup7\n        /* \"#utility.yul\":2484:2506   */\n      add\n        /* \"#utility.yul\":2463:2516   */\n      tag_226\n      jump\t// in\n    tag_244:\n        /* \"#utility.yul\":2453:2516   */\n      swap3\n      pop\n        /* \"#utility.yul\":2409:2526   */\n      pop\n        /* \"#utility.yul\":2565:2567   */\n      0x20\n        /* \"#utility.yul\":2591:2644   */\n      tag_245\n        /* \"#utility.yul\":2636:2643   */\n      dup6\n        /* \"#utility.yul\":2627:2633   */\n      dup3\n        /* \"#utility.yul\":2616:2625   */\n      dup7\n        /* \"#utility.yul\":2612:2634   */\n      add\n        /* \"#utility.yul\":2591:2644   */\n      tag_214\n      jump\t// in\n    tag_245:\n        /* \"#utility.yul\":2581:2644   */\n      swap2\n      pop\n        /* \"#utility.yul\":2536:2654   */\n      pop\n        /* \"#utility.yul\":2337:2661   */\n      swap3\n      pop\n      swap3\n      swap1\n      pop\n      jump\t// out\n        /* \"#utility.yul\":2667:3068   */\n    tag_52:\n      0x00\n      dup1\n        /* \"#utility.yul\":2789:2791   */\n      0x40\n        /* \"#utility.yul\":2777:2786   */\n      dup4\n        /* \"#utility.yul\":2768:2775   */\n      dup6\n        /* \"#utility.yul\":2764:2787   */\n      sub\n        /* \"#utility.yul\":2760:2792   */\n      slt\n        /* \"#utility.yul\":2757:2759   */\n      iszero\n      tag_247\n      jumpi\n        /* \"#utility.yul\":2805:2806   */\n      0x00\n        /* \"#utility.yul\":2802:2803   */\n      dup1\n        /* \"#utility.yul\":2795:2807   */\n      revert\n        /* \"#utility.yul\":2757:2759   */\n    tag_247:\n        /* \"#utility.yul\":2848:2849   */\n      0x00\n        /* \"#utility.yul\":2873:2926   */\n      tag_248\n        /* \"#utility.yul\":2918:2925   */\n      dup6\n        /* \"#utility.yul\":2909:2915   */\n      dup3\n        /* \"#utility.yul\":2898:2907   */\n      dup7\n        /* \"#utility.yul\":2894:2916   */\n      add\n        /* \"#utility.yul\":2873:2926   */\n      tag_226\n      jump\t// in\n    tag_248:\n        /* \"#utility.yul\":2863:2926   */\n      swap3\n      pop\n        /* \"#utility.yul\":2819:2936   */\n      pop\n        /* \"#utility.yul\":2975:2977   */\n      0x20\n        /* \"#utility.yul\":3001:3051   */\n      tag_249\n        /* \"#utility.yul\":3043:3050   */\n      dup6\n        /* \"#utility.yul\":3034:3040   */\n      dup3\n        /* \"#utility.yul\":3023:3032   */\n      dup7\n        /* \"#utility.yul\":3019:3041   */\n      add\n        /* \"#utility.yul\":3001:3051   */\n      tag_218\n      jump\t// in\n    tag_249:\n        /* \"#utility.yul\":2991:3051   */\n      swap2\n      pop\n        /* \"#utility.yul\":2946:3061   */\n      pop\n        /* \"#utility.yul\":2747:3068   */\n      swap3\n      pop\n      swap3\n      swap1\n      pop\n      jump\t// out\n        /* \"#utility.yul\":3074:3182   */\n    tag_250:\n        /* \"#utility.yul\":3151:3175   */\n      tag_252\n        /* \"#utility.yul\":3169:3174   */\n      dup2\n        /* \"#utility.yul\":3151:3175   */\n      tag_253\n      jump\t// in\n    tag_252:\n        /* \"#utility.yul\":3146:3149   */\n      dup3\n        /* \"#utility.yul\":3139:3176   */\n      mstore\n        /* \"#utility.yul\":3129:3182   */\n      pop\n      pop\n      jump\t// out\n        /* \"#utility.yul\":3188:3306   */\n    tag_254:\n        /* \"#utility.yul\":3275:3299   */\n      tag_256\n        /* \"#utility.yul\":3293:3298   */\n      dup2\n        /* \"#utility.yul\":3275:3299   */\n      tag_253\n      jump\t// in\n    tag_256:\n        /* \"#utility.yul\":3270:3273   */\n      dup3\n        /* \"#utility.yul\":3263:3300   */\n      mstore\n        /* \"#utility.yul\":3253:3306   */\n      pop\n      pop\n      jump\t// out\n        /* \"#utility.yul\":3312:3445   */\n    tag_257:\n        /* \"#utility.yul\":3395:3438   */\n      tag_259\n        /* \"#utility.yul\":3432:3437   */\n      dup2\n        /* \"#utility.yul\":3395:3438   */\n      tag_260\n      jump\t// in\n    tag_259:\n        /* \"#utility.yul\":3390:3393   */\n      dup3\n        /* \"#utility.yul\":3383:3439   */\n      mstore\n        /* \"#utility.yul\":3373:3445   */\n      pop\n      pop\n      jump\t// out\n        /* \"#utility.yul\":3451:3594   */\n    tag_261:\n        /* \"#utility.yul\":3544:3587   */\n      tag_263\n        /* \"#utility.yul\":3581:3586   */\n      dup2\n        /* \"#utility.yul\":3544:3587   */\n      tag_260\n      jump\t// in\n    tag_263:\n        /* \"#utility.yul\":3539:3542   */\n      dup3\n        /* \"#utility.yul\":3532:3588   */\n      mstore\n        /* \"#utility.yul\":3522:3594   */\n      pop\n      pop\n      jump\t// out\n        /* \"#utility.yul\":3600:3743   */\n    tag_264:\n        /* \"#utility.yul\":3688:3736   */\n      tag_266\n        /* \"#utility.yul\":3730:3735   */\n      dup2\n        /* \"#utility.yul\":3688:3736   */\n      tag_267\n      jump\t// in\n    tag_266:\n        /* \"#utility.yul\":3683:3686   */\n      dup3\n        /* \"#utility.yul\":3676:3737   */\n      mstore\n        /* \"#utility.yul\":3666:3743   */\n      pop\n      pop\n      jump\t// out\n        /* \"#utility.yul\":3749:3902   */\n    tag_268:\n        /* \"#utility.yul\":3847:3895   */\n      tag_270\n        /* \"#utility.yul\":3889:3894   */\n      dup2\n        /* \"#utility.yul\":3847:3895   */\n      tag_267\n      jump\t// in\n    tag_270:\n        /* \"#utility.yul\":3842:3845   */\n      dup3\n        /* \"#utility.yul\":3835:3896   */\n      mstore\n        /* \"#utility.yul\":3825:3902   */\n      pop\n      pop\n      jump\t// out\n        /* \"#utility.yul\":3908:4252   */\n    tag_271:\n      0x00\n        /* \"#utility.yul\":4014:4053   */\n      tag_273\n        /* \"#utility.yul\":4047:4052   */\n      dup3\n        /* \"#utility.yul\":4014:4053   */\n      tag_274\n      jump\t// in\n    tag_273:\n        /* \"#utility.yul\":4069:4130   */\n      tag_275\n        /* \"#utility.yul\":4123:4129   */\n      dup2\n        /* \"#utility.yul\":4118:4121   */\n      dup6\n        /* \"#utility.yul\":4069:4130   */\n      tag_276\n      jump\t// in\n    tag_275:\n        /* \"#utility.yul\":4062:4130   */\n      swap4\n      pop\n        /* \"#utility.yul\":4139:4191   */\n      tag_277\n        /* \"#utility.yul\":4184:4190   */\n      dup2\n        /* \"#utility.yul\":4179:4182   */\n      dup6\n        /* \"#utility.yul\":4172:4176   */\n      0x20\n        /* \"#utility.yul\":4165:4170   */\n      dup7\n        /* \"#utility.yul\":4161:4177   */\n      add\n        /* \"#utility.yul\":4139:4191   */\n      tag_278\n      jump\t// in\n    tag_277:\n        /* \"#utility.yul\":4216:4245   */\n      tag_279\n        /* \"#utility.yul\":4238:4244   */\n      dup2\n        /* \"#utility.yul\":4216:4245   */\n      tag_280\n      jump\t// in\n    tag_279:\n        /* \"#utility.yul\":4211:4214   */\n      dup5\n        /* \"#utility.yul\":4207:4246   */\n      add\n        /* \"#utility.yul\":4200:4246   */\n      swap2\n      pop\n        /* \"#utility.yul\":3990:4252   */\n      pop\n      swap3\n      swap2\n      pop\n      pop\n      jump\t// out\n        /* \"#utility.yul\":4258:4622   */\n    tag_281:\n      0x00\n        /* \"#utility.yul\":4374:4413   */\n      tag_283\n        /* \"#utility.yul\":4407:4412   */\n      dup3\n        /* \"#utility.yul\":4374:4413   */\n      tag_274\n      jump\t// in\n    tag_283:\n        /* \"#utility.yul\":4429:4500   */\n      tag_284\n        /* \"#utility.yul\":4493:4499   */\n      dup2\n        /* \"#utility.yul\":4488:4491   */\n      dup6\n        /* \"#utility.yul\":4429:4500   */\n      tag_285\n      jump\t// in\n    tag_284:\n        /* \"#utility.yul\":4422:4500   */\n      swap4\n      pop\n        /* \"#utility.yul\":4509:4561   */\n      tag_286\n        /* \"#utility.yul\":4554:4560   */\n      dup2\n        /* \"#utility.yul\":4549:4552   */\n      dup6\n        /* \"#utility.yul\":4542:4546   */\n      0x20\n        /* \"#utility.yul\":4535:4540   */\n      dup7\n        /* \"#utility.yul\":4531:4547   */\n      add\n        /* \"#utility.yul\":4509:4561   */\n      tag_278\n      jump\t// in\n    tag_286:\n        /* \"#utility.yul\":4586:4615   */\n      tag_287\n        /* \"#utility.yul\":4608:4614   */\n      dup2\n        /* \"#utility.yul\":4586:4615   */\n      tag_280\n      jump\t// in\n    tag_287:\n        /* \"#utility.yul\":4581:4584   */\n      dup5\n        /* \"#utility.yul\":4577:4616   */\n      add\n        /* \"#utility.yul\":4570:4616   */\n      swap2\n      pop\n        /* \"#utility.yul\":4350:4622   */\n      pop\n      swap3\n      swap2\n      pop\n      pop\n      jump\t// out\n        /* \"#utility.yul\":4628:4952   */\n    tag_288:\n      0x00\n        /* \"#utility.yul\":4791:4858   */\n      tag_290\n        /* \"#utility.yul\":4855:4857   */\n      0x1a\n        /* \"#utility.yul\":4850:4853   */\n      dup4\n        /* \"#utility.yul\":4791:4858   */\n      tag_285\n      jump\t// in\n    tag_290:\n        /* \"#utility.yul\":4784:4858   */\n      swap2\n      pop\n        /* \"#utility.yul\":4888:4916   */\n      0x796f752063616e6e6f7420616464206e65772070726f64756374000000000000\n        /* \"#utility.yul\":4884:4885   */\n      0x00\n        /* \"#utility.yul\":4879:4882   */\n      dup4\n        /* \"#utility.yul\":4875:4886   */\n      add\n        /* \"#utility.yul\":4868:4917   */\n      mstore\n        /* \"#utility.yul\":4943:4945   */\n      0x20\n        /* \"#utility.yul\":4938:4941   */\n      dup3\n        /* \"#utility.yul\":4934:4946   */\n      add\n        /* \"#utility.yul\":4927:4946   */\n      swap1\n      pop\n        /* \"#utility.yul\":4774:4952   */\n      swap2\n      swap1\n      pop\n      jump\t// out\n        /* \"#utility.yul\":4958:5335   */\n    tag_291:\n      0x00\n        /* \"#utility.yul\":5121:5188   */\n      tag_293\n        /* \"#utility.yul\":5185:5187   */\n      0x2d\n        /* \"#utility.yul\":5180:5183   */\n      dup4\n        /* \"#utility.yul\":5121:5188   */\n      tag_285\n      jump\t// in\n    tag_293:\n        /* \"#utility.yul\":5114:5188   */\n      swap2\n      pop\n        /* \"#utility.yul\":5218:5252   */\n      0x796f7520646f6e74206861766520656e6f756768206d6f6e657920746f206275\n        /* \"#utility.yul\":5214:5215   */\n      0x00\n        /* \"#utility.yul\":5209:5212   */\n      dup4\n        /* \"#utility.yul\":5205:5216   */\n      add\n        /* \"#utility.yul\":5198:5253   */\n      mstore\n        /* \"#utility.yul\":5284:5299   */\n      0x79207468652070726f6475637400000000000000000000000000000000000000\n        /* \"#utility.yul\":5279:5281   */\n      0x20\n        /* \"#utility.yul\":5274:5277   */\n      dup4\n        /* \"#utility.yul\":5270:5282   */\n      add\n        /* \"#utility.yul\":5263:5300   */\n      mstore\n        /* \"#utility.yul\":5326:5328   */\n      0x40\n        /* \"#utility.yul\":5321:5324   */\n      dup3\n        /* \"#utility.yul\":5317:5329   */\n      add\n        /* \"#utility.yul\":5310:5329   */\n      swap1\n      pop\n        /* \"#utility.yul\":5104:5335   */\n      swap2\n      swap1\n      pop\n      jump\t// out\n        /* \"#utility.yul\":5341:5706   */\n    tag_294:\n      0x00\n        /* \"#utility.yul\":5504:5571   */\n      tag_296\n        /* \"#utility.yul\":5568:5570   */\n      0x21\n        /* \"#utility.yul\":5563:5566   */\n      dup4\n        /* \"#utility.yul\":5504:5571   */\n      tag_285\n      jump\t// in\n    tag_296:\n        /* \"#utility.yul\":5497:5571   */\n      swap2\n      pop\n        /* \"#utility.yul\":5601:5635   */\n      0x796f7520617265206e6f74206f776e6572206f6620746869732070726f647563\n        /* \"#utility.yul\":5597:5598   */\n      0x00\n        /* \"#utility.yul\":5592:5595   */\n      dup4\n        /* \"#utility.yul\":5588:5599   */\n      add\n        /* \"#utility.yul\":5581:5636   */\n      mstore\n        /* \"#utility.yul\":5667:5670   */\n      0x7400000000000000000000000000000000000000000000000000000000000000\n        /* \"#utility.yul\":5662:5664   */\n      0x20\n        /* \"#utility.yul\":5657:5660   */\n      dup4\n        /* \"#utility.yul\":5653:5665   */\n      add\n        /* \"#utility.yul\":5646:5671   */\n      mstore\n        /* \"#utility.yul\":5697:5699   */\n      0x40\n        /* \"#utility.yul\":5692:5695   */\n      dup3\n        /* \"#utility.yul\":5688:5700   */\n      add\n        /* \"#utility.yul\":5681:5700   */\n      swap1\n      pop\n        /* \"#utility.yul\":5487:5706   */\n      swap2\n      swap1\n      pop\n      jump\t// out\n        /* \"#utility.yul\":5756:6906   */\n    tag_297:\n      0x00\n        /* \"#utility.yul\":5901:5905   */\n      0xa0\n        /* \"#utility.yul\":5896:5899   */\n      dup4\n        /* \"#utility.yul\":5892:5906   */\n      add\n        /* \"#utility.yul\":5996:6000   */\n      0x00\n        /* \"#utility.yul\":5989:5994   */\n      dup4\n        /* \"#utility.yul\":5985:6001   */\n      add\n        /* \"#utility.yul\":5979:6002   */\n      mload\n        /* \"#utility.yul\":6049:6052   */\n      dup5\n        /* \"#utility.yul\":6043:6047   */\n      dup3\n        /* \"#utility.yul\":6039:6053   */\n      sub\n        /* \"#utility.yul\":6032:6036   */\n      0x00\n        /* \"#utility.yul\":6027:6030   */\n      dup7\n        /* \"#utility.yul\":6023:6037   */\n      add\n        /* \"#utility.yul\":6016:6054   */\n      mstore\n        /* \"#utility.yul\":6075:6148   */\n      tag_299\n        /* \"#utility.yul\":6143:6147   */\n      dup3\n        /* \"#utility.yul\":6129:6141   */\n      dup3\n        /* \"#utility.yul\":6075:6148   */\n      tag_271\n      jump\t// in\n    tag_299:\n        /* \"#utility.yul\":6067:6148   */\n      swap2\n      pop\n        /* \"#utility.yul\":5916:6159   */\n      pop\n        /* \"#utility.yul\":6246:6250   */\n      0x20\n        /* \"#utility.yul\":6239:6244   */\n      dup4\n        /* \"#utility.yul\":6235:6251   */\n      add\n        /* \"#utility.yul\":6229:6252   */\n      mload\n        /* \"#utility.yul\":6265:6328   */\n      tag_300\n        /* \"#utility.yul\":6322:6326   */\n      0x20\n        /* \"#utility.yul\":6317:6320   */\n      dup7\n        /* \"#utility.yul\":6313:6327   */\n      add\n        /* \"#utility.yul\":6299:6311   */\n      dup3\n        /* \"#utility.yul\":6265:6328   */\n      tag_301\n      jump\t// in\n    tag_300:\n        /* \"#utility.yul\":6169:6338   */\n      pop\n        /* \"#utility.yul\":6425:6429   */\n      0x40\n        /* \"#utility.yul\":6418:6423   */\n      dup4\n        /* \"#utility.yul\":6414:6430   */\n      add\n        /* \"#utility.yul\":6408:6431   */\n      mload\n        /* \"#utility.yul\":6444:6507   */\n      tag_302\n        /* \"#utility.yul\":6501:6505   */\n      0x40\n        /* \"#utility.yul\":6496:6499   */\n      dup7\n        /* \"#utility.yul\":6492:6506   */\n      add\n        /* \"#utility.yul\":6478:6490   */\n      dup3\n        /* \"#utility.yul\":6444:6507   */\n      tag_250\n      jump\t// in\n    tag_302:\n        /* \"#utility.yul\":6348:6517   */\n      pop\n        /* \"#utility.yul\":6607:6611   */\n      0x60\n        /* \"#utility.yul\":6600:6605   */\n      dup4\n        /* \"#utility.yul\":6596:6612   */\n      add\n        /* \"#utility.yul\":6590:6613   */\n      mload\n        /* \"#utility.yul\":6626:6695   */\n      tag_303\n        /* \"#utility.yul\":6689:6693   */\n      0x60\n        /* \"#utility.yul\":6684:6687   */\n      dup7\n        /* \"#utility.yul\":6680:6694   */\n      add\n        /* \"#utility.yul\":6666:6678   */\n      dup3\n        /* \"#utility.yul\":6626:6695   */\n      tag_257\n      jump\t// in\n    tag_303:\n        /* \"#utility.yul\":6527:6705   */\n      pop\n        /* \"#utility.yul\":6787:6791   */\n      0x80\n        /* \"#utility.yul\":6780:6785   */\n      dup4\n        /* \"#utility.yul\":6776:6792   */\n      add\n        /* \"#utility.yul\":6770:6793   */\n      mload\n        /* \"#utility.yul\":6806:6869   */\n      tag_304\n        /* \"#utility.yul\":6863:6867   */\n      0x80\n        /* \"#utility.yul\":6858:6861   */\n      dup7\n        /* \"#utility.yul\":6854:6868   */\n      add\n        /* \"#utility.yul\":6840:6852   */\n      dup3\n        /* \"#utility.yul\":6806:6869   */\n      tag_301\n      jump\t// in\n    tag_304:\n        /* \"#utility.yul\":6715:6879   */\n      pop\n        /* \"#utility.yul\":6896:6900   */\n      dup1\n        /* \"#utility.yul\":6889:6900   */\n      swap2\n      pop\n        /* \"#utility.yul\":5870:6906   */\n      pop\n      swap3\n      swap2\n      pop\n      pop\n      jump\t// out\n        /* \"#utility.yul\":6984:8145   */\n    tag_305:\n      0x00\n        /* \"#utility.yul\":7145:7149   */\n      0xa0\n        /* \"#utility.yul\":7140:7143   */\n      dup4\n        /* \"#utility.yul\":7136:7150   */\n      add\n        /* \"#utility.yul\":7236:7240   */\n      0x00\n        /* \"#utility.yul\":7229:7234   */\n      dup4\n        /* \"#utility.yul\":7225:7241   */\n      add\n        /* \"#utility.yul\":7219:7242   */\n      mload\n        /* \"#utility.yul\":7289:7292   */\n      dup5\n        /* \"#utility.yul\":7283:7287   */\n      dup3\n        /* \"#utility.yul\":7279:7293   */\n      sub\n        /* \"#utility.yul\":7272:7276   */\n      0x00\n        /* \"#utility.yul\":7267:7270   */\n      dup7\n        /* \"#utility.yul\":7263:7277   */\n      add\n        /* \"#utility.yul\":7256:7294   */\n      mstore\n        /* \"#utility.yul\":7315:7388   */\n      tag_307\n        /* \"#utility.yul\":7383:7387   */\n      dup3\n        /* \"#utility.yul\":7369:7381   */\n      dup3\n        /* \"#utility.yul\":7315:7388   */\n      tag_271\n      jump\t// in\n    tag_307:\n        /* \"#utility.yul\":7307:7388   */\n      swap2\n      pop\n        /* \"#utility.yul\":7160:7399   */\n      pop\n        /* \"#utility.yul\":7483:7487   */\n      0x20\n        /* \"#utility.yul\":7476:7481   */\n      dup4\n        /* \"#utility.yul\":7472:7488   */\n      add\n        /* \"#utility.yul\":7466:7489   */\n      mload\n        /* \"#utility.yul\":7502:7565   */\n      tag_308\n        /* \"#utility.yul\":7559:7563   */\n      0x20\n        /* \"#utility.yul\":7554:7557   */\n      dup7\n        /* \"#utility.yul\":7550:7564   */\n      add\n        /* \"#utility.yul\":7536:7548   */\n      dup3\n        /* \"#utility.yul\":7502:7565   */\n      tag_301\n      jump\t// in\n    tag_308:\n        /* \"#utility.yul\":7409:7575   */\n      pop\n        /* \"#utility.yul\":7658:7662   */\n      0x40\n        /* \"#utility.yul\":7651:7656   */\n      dup4\n        /* \"#utility.yul\":7647:7663   */\n      add\n        /* \"#utility.yul\":7641:7664   */\n      mload\n        /* \"#utility.yul\":7677:7751   */\n      tag_309\n        /* \"#utility.yul\":7745:7749   */\n      0x40\n        /* \"#utility.yul\":7740:7743   */\n      dup7\n        /* \"#utility.yul\":7736:7750   */\n      add\n        /* \"#utility.yul\":7722:7734   */\n      dup3\n        /* \"#utility.yul\":7677:7751   */\n      tag_264\n      jump\t// in\n    tag_309:\n        /* \"#utility.yul\":7585:7761   */\n      pop\n        /* \"#utility.yul\":7851:7855   */\n      0x60\n        /* \"#utility.yul\":7844:7849   */\n      dup4\n        /* \"#utility.yul\":7840:7856   */\n      add\n        /* \"#utility.yul\":7834:7857   */\n      mload\n        /* \"#utility.yul\":7870:7933   */\n      tag_310\n        /* \"#utility.yul\":7927:7931   */\n      0x60\n        /* \"#utility.yul\":7922:7925   */\n      dup7\n        /* \"#utility.yul\":7918:7932   */\n      add\n        /* \"#utility.yul\":7904:7916   */\n      dup3\n        /* \"#utility.yul\":7870:7933   */\n      tag_250\n      jump\t// in\n    tag_310:\n        /* \"#utility.yul\":7771:7943   */\n      pop\n        /* \"#utility.yul\":8026:8030   */\n      0x80\n        /* \"#utility.yul\":8019:8024   */\n      dup4\n        /* \"#utility.yul\":8015:8031   */\n      add\n        /* \"#utility.yul\":8009:8032   */\n      mload\n        /* \"#utility.yul\":8045:8108   */\n      tag_311\n        /* \"#utility.yul\":8102:8106   */\n      0x80\n        /* \"#utility.yul\":8097:8100   */\n      dup7\n        /* \"#utility.yul\":8093:8107   */\n      add\n        /* \"#utility.yul\":8079:8091   */\n      dup3\n        /* \"#utility.yul\":8045:8108   */\n      tag_301\n      jump\t// in\n    tag_311:\n        /* \"#utility.yul\":7953:8118   */\n      pop\n        /* \"#utility.yul\":8135:8139   */\n      dup1\n        /* \"#utility.yul\":8128:8139   */\n      swap2\n      pop\n        /* \"#utility.yul\":7114:8145   */\n      pop\n      swap3\n      swap2\n      pop\n      pop\n      jump\t// out\n        /* \"#utility.yul\":8151:8259   */\n    tag_301:\n        /* \"#utility.yul\":8228:8252   */\n      tag_313\n        /* \"#utility.yul\":8246:8251   */\n      dup2\n        /* \"#utility.yul\":8228:8252   */\n      tag_314\n      jump\t// in\n    tag_313:\n        /* \"#utility.yul\":8223:8226   */\n      dup3\n        /* \"#utility.yul\":8216:8253   */\n      mstore\n        /* \"#utility.yul\":8206:8259   */\n      pop\n      pop\n      jump\t// out\n        /* \"#utility.yul\":8265:8383   */\n    tag_315:\n        /* \"#utility.yul\":8352:8376   */\n      tag_317\n        /* \"#utility.yul\":8370:8375   */\n      dup2\n        /* \"#utility.yul\":8352:8376   */\n      tag_314\n      jump\t// in\n    tag_317:\n        /* \"#utility.yul\":8347:8350   */\n      dup3\n        /* \"#utility.yul\":8340:8377   */\n      mstore\n        /* \"#utility.yul\":8330:8383   */\n      pop\n      pop\n      jump\t// out\n        /* \"#utility.yul\":8389:8611   */\n    tag_66:\n      0x00\n        /* \"#utility.yul\":8520:8522   */\n      0x20\n        /* \"#utility.yul\":8509:8518   */\n      dup3\n        /* \"#utility.yul\":8505:8523   */\n      add\n        /* \"#utility.yul\":8497:8523   */\n      swap1\n      pop\n        /* \"#utility.yul\":8533:8604   */\n      tag_319\n        /* \"#utility.yul\":8601:8602   */\n      0x00\n        /* \"#utility.yul\":8590:8599   */\n      dup4\n        /* \"#utility.yul\":8586:8603   */\n      add\n        /* \"#utility.yul\":8577:8583   */\n      dup5\n        /* \"#utility.yul\":8533:8604   */\n      tag_254\n      jump\t// in\n    tag_319:\n        /* \"#utility.yul\":8487:8611   */\n      swap3\n      swap2\n      pop\n      pop\n      jump\t// out\n        /* \"#utility.yul\":8617:8851   */\n    tag_74:\n      0x00\n        /* \"#utility.yul\":8754:8756   */\n      0x20\n        /* \"#utility.yul\":8743:8752   */\n      dup3\n        /* \"#utility.yul\":8739:8757   */\n      add\n        /* \"#utility.yul\":8731:8757   */\n      swap1\n      pop\n        /* \"#utility.yul\":8767:8844   */\n      tag_321\n        /* \"#utility.yul\":8841:8842   */\n      0x00\n        /* \"#utility.yul\":8830:8839   */\n      dup4\n        /* \"#utility.yul\":8826:8843   */\n      add\n        /* \"#utility.yul\":8817:8823   */\n      dup5\n        /* \"#utility.yul\":8767:8844   */\n      tag_261\n      jump\t// in\n    tag_321:\n        /* \"#utility.yul\":8721:8851   */\n      swap3\n      swap2\n      pop\n      pop\n      jump\t// out\n        /* \"#utility.yul\":8857:9624   */\n    tag_29:\n      0x00\n        /* \"#utility.yul\":9126:9129   */\n      0xa0\n        /* \"#utility.yul\":9115:9124   */\n      dup3\n        /* \"#utility.yul\":9111:9130   */\n      add\n        /* \"#utility.yul\":9103:9130   */\n      swap1\n      pop\n        /* \"#utility.yul\":9176:9185   */\n      dup2\n        /* \"#utility.yul\":9170:9174   */\n      dup2\n        /* \"#utility.yul\":9166:9186   */\n      sub\n        /* \"#utility.yul\":9162:9163   */\n      0x00\n        /* \"#utility.yul\":9151:9160   */\n      dup4\n        /* \"#utility.yul\":9147:9164   */\n      add\n        /* \"#utility.yul\":9140:9187   */\n      mstore\n        /* \"#utility.yul\":9204:9282   */\n      tag_323\n        /* \"#utility.yul\":9277:9281   */\n      dup2\n        /* \"#utility.yul\":9268:9274   */\n      dup9\n        /* \"#utility.yul\":9204:9282   */\n      tag_281\n      jump\t// in\n    tag_323:\n        /* \"#utility.yul\":9196:9282   */\n      swap1\n      pop\n        /* \"#utility.yul\":9292:9364   */\n      tag_324\n        /* \"#utility.yul\":9360:9362   */\n      0x20\n        /* \"#utility.yul\":9349:9358   */\n      dup4\n        /* \"#utility.yul\":9345:9363   */\n      add\n        /* \"#utility.yul\":9336:9342   */\n      dup8\n        /* \"#utility.yul\":9292:9364   */\n      tag_315\n      jump\t// in\n    tag_324:\n        /* \"#utility.yul\":9374:9446   */\n      tag_325\n        /* \"#utility.yul\":9442:9444   */\n      0x40\n        /* \"#utility.yul\":9431:9440   */\n      dup4\n        /* \"#utility.yul\":9427:9445   */\n      add\n        /* \"#utility.yul\":9418:9424   */\n      dup7\n        /* \"#utility.yul\":9374:9446   */\n      tag_254\n      jump\t// in\n    tag_325:\n        /* \"#utility.yul\":9456:9534   */\n      tag_326\n        /* \"#utility.yul\":9530:9532   */\n      0x60\n        /* \"#utility.yul\":9519:9528   */\n      dup4\n        /* \"#utility.yul\":9515:9533   */\n      add\n        /* \"#utility.yul\":9506:9512   */\n      dup6\n        /* \"#utility.yul\":9456:9534   */\n      tag_261\n      jump\t// in\n    tag_326:\n        /* \"#utility.yul\":9544:9617   */\n      tag_327\n        /* \"#utility.yul\":9612:9615   */\n      0x80\n        /* \"#utility.yul\":9601:9610   */\n      dup4\n        /* \"#utility.yul\":9597:9616   */\n      add\n        /* \"#utility.yul\":9588:9594   */\n      dup5\n        /* \"#utility.yul\":9544:9617   */\n      tag_315\n      jump\t// in\n    tag_327:\n        /* \"#utility.yul\":9093:9624   */\n      swap7\n      swap6\n      pop\n      pop\n      pop\n      pop\n      pop\n      pop\n      jump\t// out\n        /* \"#utility.yul\":9630:10407   */\n    tag_40:\n      0x00\n        /* \"#utility.yul\":9904:9907   */\n      0xa0\n        /* \"#utility.yul\":9893:9902   */\n      dup3\n        /* \"#utility.yul\":9889:9908   */\n      add\n        /* \"#utility.yul\":9881:9908   */\n      swap1\n      pop\n        /* \"#utility.yul\":9954:9963   */\n      dup2\n        /* \"#utility.yul\":9948:9952   */\n      dup2\n        /* \"#utility.yul\":9944:9964   */\n      sub\n        /* \"#utility.yul\":9940:9941   */\n      0x00\n        /* \"#utility.yul\":9929:9938   */\n      dup4\n        /* \"#utility.yul\":9925:9942   */\n      add\n        /* \"#utility.yul\":9918:9965   */\n      mstore\n        /* \"#utility.yul\":9982:10060   */\n      tag_329\n        /* \"#utility.yul\":10055:10059   */\n      dup2\n        /* \"#utility.yul\":10046:10052   */\n      dup9\n        /* \"#utility.yul\":9982:10060   */\n      tag_281\n      jump\t// in\n    tag_329:\n        /* \"#utility.yul\":9974:10060   */\n      swap1\n      pop\n        /* \"#utility.yul\":10070:10142   */\n      tag_330\n        /* \"#utility.yul\":10138:10140   */\n      0x20\n        /* \"#utility.yul\":10127:10136   */\n      dup4\n        /* \"#utility.yul\":10123:10141   */\n      add\n        /* \"#utility.yul\":10114:10120   */\n      dup8\n        /* \"#utility.yul\":10070:10142   */\n      tag_315\n      jump\t// in\n    tag_330:\n        /* \"#utility.yul\":10152:10235   */\n      tag_331\n        /* \"#utility.yul\":10231:10233   */\n      0x40\n        /* \"#utility.yul\":10220:10229   */\n      dup4\n        /* \"#utility.yul\":10216:10234   */\n      add\n        /* \"#utility.yul\":10207:10213   */\n      dup7\n        /* \"#utility.yul\":10152:10235   */\n      tag_268\n      jump\t// in\n    tag_331:\n        /* \"#utility.yul\":10245:10317   */\n      tag_332\n        /* \"#utility.yul\":10313:10315   */\n      0x60\n        /* \"#utility.yul\":10302:10311   */\n      dup4\n        /* \"#utility.yul\":10298:10316   */\n      add\n        /* \"#utility.yul\":10289:10295   */\n      dup6\n        /* \"#utility.yul\":10245:10317   */\n      tag_254\n      jump\t// in\n    tag_332:\n        /* \"#utility.yul\":10327:10400   */\n      tag_333\n        /* \"#utility.yul\":10395:10398   */\n      0x80\n        /* \"#utility.yul\":10384:10393   */\n      dup4\n        /* \"#utility.yul\":10380:10399   */\n      add\n        /* \"#utility.yul\":10371:10377   */\n      dup5\n        /* \"#utility.yul\":10327:10400   */\n      tag_315\n      jump\t// in\n    tag_333:\n        /* \"#utility.yul\":9871:10407   */\n      swap7\n      swap6\n      pop\n      pop\n      pop\n      pop\n      pop\n      pop\n      jump\t// out\n        /* \"#utility.yul\":10413:10832   */\n    tag_164:\n      0x00\n        /* \"#utility.yul\":10617:10619   */\n      0x20\n        /* \"#utility.yul\":10606:10615   */\n      dup3\n        /* \"#utility.yul\":10602:10620   */\n      add\n        /* \"#utility.yul\":10594:10620   */\n      swap1\n      pop\n        /* \"#utility.yul\":10666:10675   */\n      dup2\n        /* \"#utility.yul\":10660:10664   */\n      dup2\n        /* \"#utility.yul\":10656:10676   */\n      sub\n        /* \"#utility.yul\":10652:10653   */\n      0x00\n        /* \"#utility.yul\":10641:10650   */\n      dup4\n        /* \"#utility.yul\":10637:10654   */\n      add\n        /* \"#utility.yul\":10630:10677   */\n      mstore\n        /* \"#utility.yul\":10694:10825   */\n      tag_335\n        /* \"#utility.yul\":10820:10824   */\n      dup2\n        /* \"#utility.yul\":10694:10825   */\n      tag_288\n      jump\t// in\n    tag_335:\n        /* \"#utility.yul\":10686:10825   */\n      swap1\n      pop\n        /* \"#utility.yul\":10584:10832   */\n      swap2\n      swap1\n      pop\n      jump\t// out\n        /* \"#utility.yul\":10838:11257   */\n    tag_99:\n      0x00\n        /* \"#utility.yul\":11042:11044   */\n      0x20\n        /* \"#utility.yul\":11031:11040   */\n      dup3\n        /* \"#utility.yul\":11027:11045   */\n      add\n        /* \"#utility.yul\":11019:11045   */\n      swap1\n      pop\n        /* \"#utility.yul\":11091:11100   */\n      dup2\n        /* \"#utility.yul\":11085:11089   */\n      dup2\n        /* \"#utility.yul\":11081:11101   */\n      sub\n        /* \"#utility.yul\":11077:11078   */\n      0x00\n        /* \"#utility.yul\":11066:11075   */\n      dup4\n        /* \"#utility.yul\":11062:11079   */\n      add\n        /* \"#utility.yul\":11055:11102   */\n      mstore\n        /* \"#utility.yul\":11119:11250   */\n      tag_337\n        /* \"#utility.yul\":11245:11249   */\n      dup2\n        /* \"#utility.yul\":11119:11250   */\n      tag_291\n      jump\t// in\n    tag_337:\n        /* \"#utility.yul\":11111:11250   */\n      swap1\n      pop\n        /* \"#utility.yul\":11009:11257   */\n      swap2\n      swap1\n      pop\n      jump\t// out\n        /* \"#utility.yul\":11263:11682   */\n    tag_145:\n      0x00\n        /* \"#utility.yul\":11467:11469   */\n      0x20\n        /* \"#utility.yul\":11456:11465   */\n      dup3\n        /* \"#utility.yul\":11452:11470   */\n      add\n        /* \"#utility.yul\":11444:11470   */\n      swap1\n      pop\n        /* \"#utility.yul\":11516:11525   */\n      dup2\n        /* \"#utility.yul\":11510:11514   */\n      dup2\n        /* \"#utility.yul\":11506:11526   */\n      sub\n        /* \"#utility.yul\":11502:11503   */\n      0x00\n        /* \"#utility.yul\":11491:11500   */\n      dup4\n        /* \"#utility.yul\":11487:11504   */\n      add\n        /* \"#utility.yul\":11480:11527   */\n      mstore\n        /* \"#utility.yul\":11544:11675   */\n      tag_339\n        /* \"#utility.yul\":11670:11674   */\n      dup2\n        /* \"#utility.yul\":11544:11675   */\n      tag_294\n      jump\t// in\n    tag_339:\n        /* \"#utility.yul\":11536:11675   */\n      swap1\n      pop\n        /* \"#utility.yul\":11434:11682   */\n      swap2\n      swap1\n      pop\n      jump\t// out\n        /* \"#utility.yul\":11688:12041   */\n    tag_45:\n      0x00\n        /* \"#utility.yul\":11859:11861   */\n      0x20\n        /* \"#utility.yul\":11848:11857   */\n      dup3\n        /* \"#utility.yul\":11844:11862   */\n      add\n        /* \"#utility.yul\":11836:11862   */\n      swap1\n      pop\n        /* \"#utility.yul\":11908:11917   */\n      dup2\n        /* \"#utility.yul\":11902:11906   */\n      dup2\n        /* \"#utility.yul\":11898:11918   */\n      sub\n        /* \"#utility.yul\":11894:11895   */\n      0x00\n        /* \"#utility.yul\":11883:11892   */\n      dup4\n        /* \"#utility.yul\":11879:11896   */\n      add\n        /* \"#utility.yul\":11872:11919   */\n      mstore\n        /* \"#utility.yul\":11936:12034   */\n      tag_341\n        /* \"#utility.yul\":12029:12033   */\n      dup2\n        /* \"#utility.yul\":12020:12026   */\n      dup5\n        /* \"#utility.yul\":11936:12034   */\n      tag_297\n      jump\t// in\n    tag_341:\n        /* \"#utility.yul\":11928:12034   */\n      swap1\n      pop\n        /* \"#utility.yul\":11826:12041   */\n      swap3\n      swap2\n      pop\n      pop\n      jump\t// out\n        /* \"#utility.yul\":12047:12432   */\n    tag_58:\n      0x00\n        /* \"#utility.yul\":12234:12236   */\n      0x20\n        /* \"#utility.yul\":12223:12232   */\n      dup3\n        /* \"#utility.yul\":12219:12237   */\n      add\n        /* \"#utility.yul\":12211:12237   */\n      swap1\n      pop\n        /* \"#utility.yul\":12283:12292   */\n      dup2\n        /* \"#utility.yul\":12277:12281   */\n      dup2\n        /* \"#utility.yul\":12273:12293   */\n      sub\n        /* \"#utility.yul\":12269:12270   */\n      0x00\n        /* \"#utility.yul\":12258:12267   */\n      dup4\n        /* \"#utility.yul\":12254:12271   */\n      add\n        /* \"#utility.yul\":12247:12294   */\n      mstore\n        /* \"#utility.yul\":12311:12425   */\n      tag_343\n        /* \"#utility.yul\":12420:12424   */\n      dup2\n        /* \"#utility.yul\":12411:12417   */\n      dup5\n        /* \"#utility.yul\":12311:12425   */\n      tag_305\n      jump\t// in\n    tag_343:\n        /* \"#utility.yul\":12303:12425   */\n      swap1\n      pop\n        /* \"#utility.yul\":12201:12432   */\n      swap3\n      swap2\n      pop\n      pop\n      jump\t// out\n        /* \"#utility.yul\":12438:12660   */\n    tag_189:\n      0x00\n        /* \"#utility.yul\":12569:12571   */\n      0x20\n        /* \"#utility.yul\":12558:12567   */\n      dup3\n        /* \"#utility.yul\":12554:12572   */\n      add\n        /* \"#utility.yul\":12546:12572   */\n      swap1\n      pop\n        /* \"#utility.yul\":12582:12653   */\n      tag_345\n        /* \"#utility.yul\":12650:12651   */\n      0x00\n        /* \"#utility.yul\":12639:12648   */\n      dup4\n        /* \"#utility.yul\":12635:12652   */\n      add\n        /* \"#utility.yul\":12626:12632   */\n      dup5\n        /* \"#utility.yul\":12582:12653   */\n      tag_315\n      jump\t// in\n    tag_345:\n        /* \"#utility.yul\":12536:12660   */\n      swap3\n      swap2\n      pop\n      pop\n      jump\t// out\n        /* \"#utility.yul\":12666:12998   */\n    tag_116:\n      0x00\n        /* \"#utility.yul\":12825:12827   */\n      0x40\n        /* \"#utility.yul\":12814:12823   */\n      dup3\n        /* \"#utility.yul\":12810:12828   */\n      add\n        /* \"#utility.yul\":12802:12828   */\n      swap1\n      pop\n        /* \"#utility.yul\":12838:12909   */\n      tag_347\n        /* \"#utility.yul\":12906:12907   */\n      0x00\n        /* \"#utility.yul\":12895:12904   */\n      dup4\n        /* \"#utility.yul\":12891:12908   */\n      add\n        /* \"#utility.yul\":12882:12888   */\n      dup6\n        /* \"#utility.yul\":12838:12909   */\n      tag_315\n      jump\t// in\n    tag_347:\n        /* \"#utility.yul\":12919:12991   */\n      tag_348\n        /* \"#utility.yul\":12987:12989   */\n      0x20\n        /* \"#utility.yul\":12976:12985   */\n      dup4\n        /* \"#utility.yul\":12972:12990   */\n      add\n        /* \"#utility.yul\":12963:12969   */\n      dup5\n        /* \"#utility.yul\":12919:12991   */\n      tag_254\n      jump\t// in\n    tag_348:\n        /* \"#utility.yul\":12792:12998   */\n      swap4\n      swap3\n      pop\n      pop\n      pop\n      jump\t// out\n        /* \"#utility.yul\":13004:13287   */\n    tag_210:\n      0x00\n        /* \"#utility.yul\":13070:13072   */\n      0x40\n        /* \"#utility.yul\":13064:13073   */\n      mload\n        /* \"#utility.yul\":13054:13073   */\n      swap1\n      pop\n        /* \"#utility.yul\":13112:13116   */\n      dup2\n        /* \"#utility.yul\":13104:13110   */\n      dup2\n        /* \"#utility.yul\":13100:13117   */\n      add\n        /* \"#utility.yul\":13219:13225   */\n      dup2\n        /* \"#utility.yul\":13207:13217   */\n      dup2\n        /* \"#utility.yul\":13204:13226   */\n      lt\n        /* \"#utility.yul\":13183:13201   */\n      0xffffffffffffffff\n        /* \"#utility.yul\":13171:13181   */\n      dup3\n        /* \"#utility.yul\":13168:13202   */\n      gt\n        /* \"#utility.yul\":13165:13227   */\n      or\n        /* \"#utility.yul\":13162:13164   */\n      iszero\n      tag_350\n      jumpi\n        /* \"#utility.yul\":13230:13248   */\n      tag_351\n      tag_352\n      jump\t// in\n    tag_351:\n        /* \"#utility.yul\":13162:13164   */\n    tag_350:\n        /* \"#utility.yul\":13270:13280   */\n      dup1\n        /* \"#utility.yul\":13266:13268   */\n      0x40\n        /* \"#utility.yul\":13259:13281   */\n      mstore\n        /* \"#utility.yul\":13044:13287   */\n      pop\n      swap2\n      swap1\n      pop\n      jump\t// out\n        /* \"#utility.yul\":13293:13625   */\n    tag_209:\n      0x00\n        /* \"#utility.yul\":13445:13463   */\n      0xffffffffffffffff\n        /* \"#utility.yul\":13437:13443   */\n      dup3\n        /* \"#utility.yul\":13434:13464   */\n      gt\n        /* \"#utility.yul\":13431:13433   */\n      iszero\n      tag_354\n      jumpi\n        /* \"#utility.yul\":13467:13485   */\n      tag_355\n      tag_352\n      jump\t// in\n    tag_355:\n        /* \"#utility.yul\":13431:13433   */\n    tag_354:\n        /* \"#utility.yul\":13552:13556   */\n      0x1f\n        /* \"#utility.yul\":13548:13557   */\n      not\n        /* \"#utility.yul\":13541:13545   */\n      0x1f\n        /* \"#utility.yul\":13533:13539   */\n      dup4\n        /* \"#utility.yul\":13529:13546   */\n      add\n        /* \"#utility.yul\":13525:13558   */\n      and\n        /* \"#utility.yul\":13517:13558   */\n      swap1\n      pop\n        /* \"#utility.yul\":13613:13617   */\n      0x20\n        /* \"#utility.yul\":13607:13611   */\n      dup2\n        /* \"#utility.yul\":13603:13618   */\n      add\n        /* \"#utility.yul\":13595:13618   */\n      swap1\n      pop\n        /* \"#utility.yul\":13360:13625   */\n      swap2\n      swap1\n      pop\n      jump\t// out\n        /* \"#utility.yul\":13631:13730   */\n    tag_274:\n      0x00\n        /* \"#utility.yul\":13717:13722   */\n      dup2\n        /* \"#utility.yul\":13711:13723   */\n      mload\n        /* \"#utility.yul\":13701:13723   */\n      swap1\n      pop\n        /* \"#utility.yul\":13690:13730   */\n      swap2\n      swap1\n      pop\n      jump\t// out\n        /* \"#utility.yul\":13736:13895   */\n    tag_276:\n      0x00\n        /* \"#utility.yul\":13844:13850   */\n      dup3\n        /* \"#utility.yul\":13839:13842   */\n      dup3\n        /* \"#utility.yul\":13832:13851   */\n      mstore\n        /* \"#utility.yul\":13884:13888   */\n      0x20\n        /* \"#utility.yul\":13879:13882   */\n      dup3\n        /* \"#utility.yul\":13875:13889   */\n      add\n        /* \"#utility.yul\":13860:13889   */\n      swap1\n      pop\n        /* \"#utility.yul\":13822:13895   */\n      swap3\n      swap2\n      pop\n      pop\n      jump\t// out\n        /* \"#utility.yul\":13901:14070   */\n    tag_285:\n      0x00\n        /* \"#utility.yul\":14019:14025   */\n      dup3\n        /* \"#utility.yul\":14014:14017   */\n      dup3\n        /* \"#utility.yul\":14007:14026   */\n      mstore\n        /* \"#utility.yul\":14059:14063   */\n      0x20\n        /* \"#utility.yul\":14054:14057   */\n      dup3\n        /* \"#utility.yul\":14050:14064   */\n      add\n        /* \"#utility.yul\":14035:14064   */\n      swap1\n      pop\n        /* \"#utility.yul\":13997:14070   */\n      swap3\n      swap2\n      pop\n      pop\n      jump\t// out\n        /* \"#utility.yul\":14076:14381   */\n    tag_89:\n      0x00\n        /* \"#utility.yul\":14135:14155   */\n      tag_360\n        /* \"#utility.yul\":14153:14154   */\n      dup3\n        /* \"#utility.yul\":14135:14155   */\n      tag_314\n      jump\t// in\n    tag_360:\n        /* \"#utility.yul\":14130:14155   */\n      swap2\n      pop\n        /* \"#utility.yul\":14169:14189   */\n      tag_361\n        /* \"#utility.yul\":14187:14188   */\n      dup4\n        /* \"#utility.yul\":14169:14189   */\n      tag_314\n      jump\t// in\n    tag_361:\n        /* \"#utility.yul\":14164:14189   */\n      swap3\n      pop\n        /* \"#utility.yul\":14323:14324   */\n      dup3\n        /* \"#utility.yul\":14255:14321   */\n      0xffffffffffffffffffffffffffffffffffffffffffffffffffffffffffffffff\n        /* \"#utility.yul\":14251:14325   */\n      sub\n        /* \"#utility.yul\":14248:14249   */\n      dup3\n        /* \"#utility.yul\":14245:14326   */\n      gt\n        /* \"#utility.yul\":14242:14244   */\n      iszero\n      tag_362\n      jumpi\n        /* \"#utility.yul\":14329:14347   */\n      tag_363\n      tag_364\n      jump\t// in\n    tag_363:\n        /* \"#utility.yul\":14242:14244   */\n    tag_362:\n        /* \"#utility.yul\":14373:14374   */\n      dup3\n        /* \"#utility.yul\":14370:14371   */\n      dup3\n        /* \"#utility.yul\":14366:14375   */\n      add\n        /* \"#utility.yul\":14359:14375   */\n      swap1\n      pop\n        /* \"#utility.yul\":14120:14381   */\n      swap3\n      swap2\n      pop\n      pop\n      jump\t// out\n        /* \"#utility.yul\":14387:14483   */\n    tag_253:\n      0x00\n        /* \"#utility.yul\":14453:14477   */\n      tag_366\n        /* \"#utility.yul\":14471:14476   */\n      dup3\n        /* \"#utility.yul\":14453:14477   */\n      tag_367\n      jump\t// in\n    tag_366:\n        /* \"#utility.yul\":14442:14477   */\n      swap1\n      pop\n        /* \"#utility.yul\":14432:14483   */\n      swap2\n      swap1\n      pop\n      jump\t// out\n        /* \"#utility.yul\":14489:14579   */\n    tag_368:\n      0x00\n        /* \"#utility.yul\":14566:14571   */\n      dup2\n        /* \"#utility.yul\":14559:14572   */\n      iszero\n        /* \"#utility.yul\":14552:14573   */\n      iszero\n        /* \"#utility.yul\":14541:14573   */\n      swap1\n      pop\n        /* \"#utility.yul\":14531:14579   */\n      swap2\n      swap1\n      pop\n      jump\t// out\n        /* \"#utility.yul\":14585:14712   */\n    tag_370:\n      0x00\n        /* \"#utility.yul\":14659:14664   */\n      dup2\n        /* \"#utility.yul\":14648:14664   */\n      swap1\n      pop\n        /* \"#utility.yul\":14665:14706   */\n      tag_372\n        /* \"#utility.yul\":14700:14705   */\n      dup3\n        /* \"#utility.yul\":14665:14706   */\n      tag_373\n      jump\t// in\n    tag_372:\n        /* \"#utility.yul\":14638:14712   */\n      swap2\n      swap1\n      pop\n      jump\t// out\n        /* \"#utility.yul\":14718:14855   */\n    tag_374:\n      0x00\n        /* \"#utility.yul\":14797:14802   */\n      dup2\n        /* \"#utility.yul\":14786:14802   */\n      swap1\n      pop\n        /* \"#utility.yul\":14803:14849   */\n      tag_376\n        /* \"#utility.yul\":14843:14848   */\n      dup3\n        /* \"#utility.yul\":14803:14849   */\n      tag_377\n      jump\t// in\n    tag_376:\n        /* \"#utility.yul\":14776:14855   */\n      swap2\n      swap1\n      pop\n      jump\t// out\n        /* \"#utility.yul\":14861:14987   */\n    tag_367:\n      0x00\n        /* \"#utility.yul\":14938:14980   */\n      0xffffffffffffffffffffffffffffffffffffffff\n        /* \"#utility.yul\":14931:14936   */\n      dup3\n        /* \"#utility.yul\":14927:14981   */\n      and\n        /* \"#utility.yul\":14916:14981   */\n      swap1\n      pop\n        /* \"#utility.yul\":14906:14987   */\n      swap2\n      swap1\n      pop\n      jump\t// out\n        /* \"#utility.yul\":14993:15070   */\n    tag_314:\n      0x00\n        /* \"#utility.yul\":15059:15064   */\n      dup2\n        /* \"#utility.yul\":15048:15064   */\n      swap1\n      pop\n        /* \"#utility.yul\":15038:15070   */\n      swap2\n      swap1\n      pop\n      jump\t// out\n        /* \"#utility.yul\":15076:15203   */\n    tag_260:\n      0x00\n        /* \"#utility.yul\":15165:15197   */\n      tag_381\n        /* \"#utility.yul\":15191:15196   */\n      dup3\n        /* \"#utility.yul\":15165:15197   */\n      tag_370\n      jump\t// in\n    tag_381:\n        /* \"#utility.yul\":15152:15197   */\n      swap1\n      pop\n        /* \"#utility.yul\":15142:15203   */\n      swap2\n      swap1\n      pop\n      jump\t// out\n        /* \"#utility.yul\":15209:15346   */\n    tag_267:\n      0x00\n        /* \"#utility.yul\":15303:15340   */\n      tag_383\n        /* \"#utility.yul\":15334:15339   */\n      dup3\n        /* \"#utility.yul\":15303:15340   */\n      tag_374\n      jump\t// in\n    tag_383:\n        /* \"#utility.yul\":15290:15340   */\n      swap1\n      pop\n        /* \"#utility.yul\":15280:15346   */\n      swap2\n      swap1\n      pop\n      jump\t// out\n        /* \"#utility.yul\":15352:15506   */\n    tag_213:\n        /* \"#utility.yul\":15436:15442   */\n      dup3\n        /* \"#utility.yul\":15431:15434   */\n      dup2\n        /* \"#utility.yul\":15426:15429   */\n      dup4\n        /* \"#utility.yul\":15413:15443   */\n      calldatacopy\n        /* \"#utility.yul\":15498:15499   */\n      0x00\n        /* \"#utility.yul\":15489:15495   */\n      dup4\n        /* \"#utility.yul\":15484:15487   */\n      dup4\n        /* \"#utility.yul\":15480:15496   */\n      add\n        /* \"#utility.yul\":15473:15500   */\n      mstore\n        /* \"#utility.yul\":15403:15506   */\n      pop\n      pop\n      pop\n      jump\t// out\n        /* \"#utility.yul\":15512:15819   */\n    tag_278:\n        /* \"#utility.yul\":15580:15581   */\n      0x00\n        /* \"#utility.yul\":15590:15703   */\n    tag_386:\n        /* \"#utility.yul\":15604:15610   */\n      dup4\n        /* \"#utility.yul\":15601:15602   */\n      dup2\n        /* \"#utility.yul\":15598:15611   */\n      lt\n        /* \"#utility.yul\":15590:15703   */\n      iszero\n      tag_388\n      jumpi\n        /* \"#utility.yul\":15689:15690   */\n      dup1\n        /* \"#utility.yul\":15684:15687   */\n      dup3\n        /* \"#utility.yul\":15680:15691   */\n      add\n        /* \"#utility.yul\":15674:15692   */\n      mload\n        /* \"#utility.yul\":15670:15671   */\n      dup2\n        /* \"#utility.yul\":15665:15668   */\n      dup5\n        /* \"#utility.yul\":15661:15672   */\n      add\n        /* \"#utility.yul\":15654:15693   */\n      mstore\n        /* \"#utility.yul\":15626:15628   */\n      0x20\n        /* \"#utility.yul\":15623:15624   */\n      dup2\n        /* \"#utility.yul\":15619:15629   */\n      add\n        /* \"#utility.yul\":15614:15629   */\n      swap1\n      pop\n        /* \"#utility.yul\":15590:15703   */\n      jump(tag_386)\n    tag_388:\n        /* \"#utility.yul\":15721:15727   */\n      dup4\n        /* \"#utility.yul\":15718:15719   */\n      dup2\n        /* \"#utility.yul\":15715:15728   */\n      gt\n        /* \"#utility.yul\":15712:15714   */\n      iszero\n      tag_389\n      jumpi\n        /* \"#utility.yul\":15801:15802   */\n      0x00\n        /* \"#utility.yul\":15792:15798   */\n      dup5\n        /* \"#utility.yul\":15787:15790   */\n      dup5\n        /* \"#utility.yul\":15783:15799   */\n      add\n        /* \"#utility.yul\":15776:15803   */\n      mstore\n        /* \"#utility.yul\":15712:15714   */\n    tag_389:\n        /* \"#utility.yul\":15561:15819   */\n      pop\n      pop\n      pop\n      pop\n      jump\t// out\n        /* \"#utility.yul\":15825:16145   */\n    tag_91:\n      0x00\n        /* \"#utility.yul\":15906:15907   */\n      0x02\n        /* \"#utility.yul\":15900:15904   */\n      dup3\n        /* \"#utility.yul\":15896:15908   */\n      div\n        /* \"#utility.yul\":15886:15908   */\n      swap1\n      pop\n        /* \"#utility.yul\":15953:15954   */\n      0x01\n        /* \"#utility.yul\":15947:15951   */\n      dup3\n        /* \"#utility.yul\":15943:15955   */\n      and\n        /* \"#utility.yul\":15974:15992   */\n      dup1\n        /* \"#utility.yul\":15964:15966   */\n      tag_391\n      jumpi\n        /* \"#utility.yul\":16030:16034   */\n      0x7f\n        /* \"#utility.yul\":16022:16028   */\n      dup3\n        /* \"#utility.yul\":16018:16035   */\n      and\n        /* \"#utility.yul\":16008:16035   */\n      swap2\n      pop\n        /* \"#utility.yul\":15964:15966   */\n    tag_391:\n        /* \"#utility.yul\":16092:16094   */\n      0x20\n        /* \"#utility.yul\":16084:16090   */\n      dup3\n        /* \"#utility.yul\":16081:16095   */\n      lt\n        /* \"#utility.yul\":16061:16079   */\n      dup2\n        /* \"#utility.yul\":16058:16096   */\n      eq\n        /* \"#utility.yul\":16055:16057   */\n      iszero\n      tag_392\n      jumpi\n        /* \"#utility.yul\":16111:16129   */\n      tag_393\n      tag_394\n      jump\t// in\n    tag_393:\n        /* \"#utility.yul\":16055:16057   */\n    tag_392:\n        /* \"#utility.yul\":15876:16145   */\n      pop\n      swap2\n      swap1\n      pop\n      jump\t// out\n        /* \"#utility.yul\":16151:16331   */\n    tag_364:\n        /* \"#utility.yul\":16199:16276   */\n      0x4e487b7100000000000000000000000000000000000000000000000000000000\n        /* \"#utility.yul\":16196:16197   */\n      0x00\n        /* \"#utility.yul\":16189:16277   */\n      mstore\n        /* \"#utility.yul\":16296:16300   */\n      0x11\n        /* \"#utility.yul\":16293:16294   */\n      0x04\n        /* \"#utility.yul\":16286:16301   */\n      mstore\n        /* \"#utility.yul\":16320:16324   */\n      0x24\n        /* \"#utility.yul\":16317:16318   */\n      0x00\n        /* \"#utility.yul\":16310:16325   */\n      revert\n        /* \"#utility.yul\":16337:16517   */\n    tag_396:\n        /* \"#utility.yul\":16385:16462   */\n      0x4e487b7100000000000000000000000000000000000000000000000000000000\n        /* \"#utility.yul\":16382:16383   */\n      0x00\n        /* \"#utility.yul\":16375:16463   */\n      mstore\n        /* \"#utility.yul\":16482:16486   */\n      0x21\n        /* \"#utility.yul\":16479:16480   */\n      0x04\n        /* \"#utility.yul\":16472:16487   */\n      mstore\n        /* \"#utility.yul\":16506:16510   */\n      0x24\n        /* \"#utility.yul\":16503:16504   */\n      0x00\n        /* \"#utility.yul\":16496:16511   */\n      revert\n        /* \"#utility.yul\":16523:16703   */\n    tag_394:\n        /* \"#utility.yul\":16571:16648   */\n      0x4e487b7100000000000000000000000000000000000000000000000000000000\n        /* \"#utility.yul\":16568:16569   */\n      0x00\n        /* \"#utility.yul\":16561:16649   */\n      mstore\n        /* \"#utility.yul\":16668:16672   */\n      0x22\n        /* \"#utility.yul\":16665:16666   */\n      0x04\n        /* \"#utility.yul\":16658:16673   */\n      mstore\n        /* \"#utility.yul\":16692:16696   */\n      0x24\n        /* \"#utility.yul\":16689:16690   */\n      0x00\n        /* \"#utility.yul\":16682:16697   */\n      revert\n        /* \"#utility.yul\":16709:16889   */\n    tag_352:\n        /* \"#utility.yul\":16757:16834   */\n      0x4e487b7100000000000000000000000000000000000000000000000000000000\n        /* \"#utility.yul\":16754:16755   */\n      0x00\n        /* \"#utility.yul\":16747:16835   */\n      mstore\n        /* \"#utility.yul\":16854:16858   */\n      0x41\n        /* \"#utility.yul\":16851:16852   */\n      0x04\n        /* \"#utility.yul\":16844:16859   */\n      mstore\n        /* \"#utility.yul\":16878:16882   */\n      0x24\n        /* \"#utility.yul\":16875:16876   */\n      0x00\n        /* \"#utility.yul\":16868:16883   */\n      revert\n        /* \"#utility.yul\":16895:16997   */\n    tag_280:\n      0x00\n        /* \"#utility.yul\":16987:16989   */\n      0x1f\n        /* \"#utility.yul\":16983:16990   */\n      not\n        /* \"#utility.yul\":16978:16980   */\n      0x1f\n        /* \"#utility.yul\":16971:16976   */\n      dup4\n        /* \"#utility.yul\":16967:16981   */\n      add\n        /* \"#utility.yul\":16963:16991   */\n      and\n        /* \"#utility.yul\":16953:16991   */\n      swap1\n      pop\n        /* \"#utility.yul\":16943:16997   */\n      swap2\n      swap1\n      pop\n      jump\t// out\n        /* \"#utility.yul\":17003:17116   */\n    tag_373:\n        /* \"#utility.yul\":17084:17085   */\n      0x07\n        /* \"#utility.yul\":17077:17082   */\n      dup2\n        /* \"#utility.yul\":17074:17086   */\n      lt\n        /* \"#utility.yul\":17064:17066   */\n      tag_402\n      jumpi\n        /* \"#utility.yul\":17090:17108   */\n      tag_403\n      tag_396\n      jump\t// in\n    tag_403:\n        /* \"#utility.yul\":17064:17066   */\n    tag_402:\n        /* \"#utility.yul\":17054:17116   */\n      pop\n      jump\t// out\n        /* \"#utility.yul\":17122:17240   */\n    tag_377:\n        /* \"#utility.yul\":17208:17209   */\n      0x04\n        /* \"#utility.yul\":17201:17206   */\n      dup2\n        /* \"#utility.yul\":17198:17210   */\n      lt\n        /* \"#utility.yul\":17188:17190   */\n      tag_405\n      jumpi\n        /* \"#utility.yul\":17214:17232   */\n      tag_406\n      tag_396\n      jump\t// in\n    tag_406:\n        /* \"#utility.yul\":17188:17190   */\n    tag_405:\n        /* \"#utility.yul\":17178:17240   */\n      pop\n      jump\t// out\n        /* \"#utility.yul\":17246:17368   */\n    tag_217:\n        /* \"#utility.yul\":17319:17343   */\n      tag_408\n        /* \"#utility.yul\":17337:17342   */\n      dup2\n        /* \"#utility.yul\":17319:17343   */\n      tag_253\n      jump\t// in\n    tag_408:\n        /* \"#utility.yul\":17312:17317   */\n      dup2\n        /* \"#utility.yul\":17309:17344   */\n      eq\n        /* \"#utility.yul\":17299:17301   */\n      tag_409\n      jumpi\n        /* \"#utility.yul\":17358:17359   */\n      0x00\n        /* \"#utility.yul\":17355:17356   */\n      dup1\n        /* \"#utility.yul\":17348:17360   */\n      revert\n        /* \"#utility.yul\":17299:17301   */\n    tag_409:\n        /* \"#utility.yul\":17289:17368   */\n      pop\n      jump\t// out\n        /* \"#utility.yul\":17374:17490   */\n    tag_221:\n        /* \"#utility.yul\":17444:17465   */\n      tag_411\n        /* \"#utility.yul\":17459:17464   */\n      dup2\n        /* \"#utility.yul\":17444:17465   */\n      tag_368\n      jump\t// in\n    tag_411:\n        /* \"#utility.yul\":17437:17442   */\n      dup2\n        /* \"#utility.yul\":17434:17466   */\n      eq\n        /* \"#utility.yul\":17424:17426   */\n      tag_412\n      jumpi\n        /* \"#utility.yul\":17480:17481   */\n      0x00\n        /* \"#utility.yul\":17477:17478   */\n      dup1\n        /* \"#utility.yul\":17470:17482   */\n      revert\n        /* \"#utility.yul\":17424:17426   */\n    tag_412:\n        /* \"#utility.yul\":17414:17490   */\n      pop\n      jump\t// out\n        /* \"#utility.yul\":17496:17618   */\n    tag_229:\n        /* \"#utility.yul\":17569:17593   */\n      tag_414\n        /* \"#utility.yul\":17587:17592   */\n      dup2\n        /* \"#utility.yul\":17569:17593   */\n      tag_314\n      jump\t// in\n    tag_414:\n        /* \"#utility.yul\":17562:17567   */\n      dup2\n        /* \"#utility.yul\":17559:17594   */\n      eq\n        /* \"#utility.yul\":17549:17551   */\n      tag_415\n      jumpi\n        /* \"#utility.yul\":17608:17609   */\n      0x00\n        /* \"#utility.yul\":17605:17606   */\n      dup1\n        /* \"#utility.yul\":17598:17610   */\n      revert\n        /* \"#utility.yul\":17549:17551   */\n    tag_415:\n        /* \"#utility.yul\":17539:17618   */\n      pop\n      jump\t// out\n\n    auxdata: 0xa2646970667358221220ef54f6ad3c841abbfdc72194dab8f186c8ddd47172348c69af9ce4299638d01664736f6c63430008000033\n}\n",
				"bytecode": {
					"linkReferences": {},
					"object": "6080604052600080556000600255600060055534801561001e57600080fd5b5033600760006101000a81548173ffffffffffffffffffffffffffffffffffffffff021916908373ffffffffffffffffffffffffffffffffffffffff1602179055506127988061006f6000396000f3fe608060405234801561001057600080fd5b50600436106100ea5760003560e01c806347e865161161008c5780638da5cb5b116100665780638da5cb5b1461025f5780638f5ae7991461027d578063b57c760914610299578063d3de074c146102c9576100ea565b806347e86516146101f757806354a153e91461021357806362d6bbdf14610243576100ea565b80632fa5ad1a116100c85780632fa5ad1a1461015b57806335c1d3491461017757806342f35885146101ab57806343c4c53e146101db576100ea565b806315533a27146100ef57806317b47cc41461010b57806321603f431461013f575b600080fd5b61010960048036038101906101049190611e54565b6102e5565b005b61012560048036038101906101209190611ee9565b6105d3565b6040516101369594939291906122a2565b60405180910390f35b61015960048036038101906101549190611ee9565b6106be565b005b61017560048036038101906101709190611e54565b610b79565b005b610191600480360381019061018c9190611ee9565b610e67565b6040516101a29594939291906122fc565b60405180910390f35b6101c560048036038101906101c09190611ee9565b610f52565b6040516101d291906123b6565b60405180910390f35b6101f560048036038101906101f09190611f12565b611102565b005b610211600480360381019061020c9190611f4e565b61124a565b005b61022d60048036038101906102289190611ee9565b61124e565b60405161023a91906123d8565b60405180910390f35b61025d60048036038101906102589190611e95565b6113fe565b005b61026761170f565b604051610274919061226c565b60405180910390f35b61029760048036038101906102929190611e54565b611735565b005b6102b360048036038101906102ae9190611ee9565b611a23565b6040516102c09190612287565b60405180910390f35b6102e360048036038101906102de9190611ee9565b611a50565b005b6102ed611b94565b818160000181905250600254816020018181525050600081604001906003811115610341577f4e487b7100000000000000000000000000000000000000000000000000000000600052602160045260246000fd5b9081600381111561037b577f4e487b7100000000000000000000000000000000000000000000000000000000600052602160045260246000fd5b8152505033816060019073ffffffffffffffffffffffffffffffffffffffff16908173ffffffffffffffffffffffffffffffffffffffff168152505060008160800181815250508060036000600254815260200190815260200160002060008201518160000190805190602001906103f4929190611c11565b506020820151816001015560408201518160020160006101000a81548160ff02191690836003811115610450577f4e487b7100000000000000000000000000000000000000000000000000000000600052602160045260246000fd5b021790555060608201518160020160016101000a81548173ffffffffffffffffffffffffffffffffffffffff021916908373ffffffffffffffffffffffffffffffffffffffff1602179055506080820151816003015590505080600460003373ffffffffffffffffffffffffffffffffffffffff1673ffffffffffffffffffffffffffffffffffffffff1681526020019081526020016000206000820151816000019080519060200190610505929190611c11565b506020820151816001015560408201518160020160006101000a81548160ff02191690836003811115610561577f4e487b7100000000000000000000000000000000000000000000000000000000600052602160045260246000fd5b021790555060608201518160020160016101000a81548173ffffffffffffffffffffffffffffffffffffffff021916908373ffffffffffffffffffffffffffffffffffffffff1602179055506080820151816003015590505060016002546105c991906124cc565b6002819055505050565b60016020528060005260406000206000915090508060000180546105f6906125f6565b80601f0160208091040260200160405190810160405280929190818152602001828054610622906125f6565b801561066f5780601f106106445761010080835404028352916020019161066f565b820191906000526020600020905b81548152906001019060200180831161065257829003601f168201915b5050505050908060010154908060020160009054906101000a900473ffffffffffffffffffffffffffffffffffffffff16908060020160149054906101000a900460ff16908060030154905085565b600080816001600083815260200190815260200160002060030154111561071a576040517f08c379a000000000000000000000000000000000000000000000000000000000815260040161071190612376565b60405180910390fd5b610722611c97565b33816040019073ffffffffffffffffffffffffffffffffffffffff16908173ffffffffffffffffffffffffffffffffffffffff16815250506005548160000181815250506000816060019060028111156107a5577f4e487b7100000000000000000000000000000000000000000000000000000000600052602160045260246000fd5b908160028111156107df577f4e487b7100000000000000000000000000000000000000000000000000000000600052602160045260246000fd5b81525050600160008581526020019081526020016000206040518060a0016040529081600082018054610811906125f6565b80601f016020809104026020016040519081016040528092919081815260200182805461083d906125f6565b801561088a5780601f1061085f5761010080835404028352916020019161088a565b820191906000526020600020905b81548152906001019060200180831161086d57829003601f168201915b50505050508152602001600182015481526020016002820160009054906101000a900473ffffffffffffffffffffffffffffffffffffffff1673ffffffffffffffffffffffffffffffffffffffff1673ffffffffffffffffffffffffffffffffffffffff1681526020016002820160149054906101000a900460ff16600681111561093e577f4e487b7100000000000000000000000000000000000000000000000000000000600052602160045260246000fd5b6006811115610976577f4e487b7100000000000000000000000000000000000000000000000000000000600052602160045260246000fd5b81526020016003820154815250508160200181905250806006600060055481526020019081526020016000206000820151816000015560208201518160010160008201518160000190805190602001906109d1929190611c11565b506020820151816001015560408201518160020160006101000a81548173ffffffffffffffffffffffffffffffffffffffff021916908373ffffffffffffffffffffffffffffffffffffffff16021790555060608201518160020160146101000a81548160ff02191690836006811115610a74577f4e487b7100000000000000000000000000000000000000000000000000000000600052602160045260246000fd5b021790555060808201518160030155505060408201518160050160006101000a81548173ffffffffffffffffffffffffffffffffffffffff021916908373ffffffffffffffffffffffffffffffffffffffff16021790555060608201518160050160146101000a81548160ff02191690836002811115610b1d577f4e487b7100000000000000000000000000000000000000000000000000000000600052602160045260246000fd5b02179055509050507fef7b116480495ad6b1c6479820e4a0140e78de3846e138c5d055ad601408725e8433604051610b56929190612415565b60405180910390a16001600554610b6d91906124cc565b60058190555050505050565b610b81611b94565b8181600001819052506002548160200181815250506000816080018181525050600181604001906003811115610be0577f4e487b7100000000000000000000000000000000000000000000000000000000600052602160045260246000fd5b90816003811115610c1a577f4e487b7100000000000000000000000000000000000000000000000000000000600052602160045260246000fd5b8152505033816060019073ffffffffffffffffffffffffffffffffffffffff16908173ffffffffffffffffffffffffffffffffffffffff1681525050806003600060025481526020019081526020016000206000820151816000019080519060200190610c88929190611c11565b506020820151816001015560408201518160020160006101000a81548160ff02191690836003811115610ce4577f4e487b7100000000000000000000000000000000000000000000000000000000600052602160045260246000fd5b021790555060608201518160020160016101000a81548173ffffffffffffffffffffffffffffffffffffffff021916908373ffffffffffffffffffffffffffffffffffffffff1602179055506080820151816003015590505080600460003373ffffffffffffffffffffffffffffffffffffffff1673ffffffffffffffffffffffffffffffffffffffff1681526020019081526020016000206000820151816000019080519060200190610d99929190611c11565b506020820151816001015560408201518160020160006101000a81548160ff02191690836003811115610df5577f4e487b7100000000000000000000000000000000000000000000000000000000600052602160045260246000fd5b021790555060608201518160020160016101000a81548173ffffffffffffffffffffffffffffffffffffffff021916908373ffffffffffffffffffffffffffffffffffffffff160217905550608082015181600301559050506001600254610e5d91906124cc565b6002819055505050565b6003602052806000526040600020600091509050806000018054610e8a906125f6565b80601f0160208091040260200160405190810160405280929190818152602001828054610eb6906125f6565b8015610f035780601f10610ed857610100808354040283529160200191610f03565b820191906000526020600020905b815481529060010190602001808311610ee657829003601f168201915b5050505050908060010154908060020160009054906101000a900460ff16908060020160019054906101000a900473ffffffffffffffffffffffffffffffffffffffff16908060030154905085565b610f5a611d13565b600160008381526020019081526020016000206040518060a0016040529081600082018054610f88906125f6565b80601f0160208091040260200160405190810160405280929190818152602001828054610fb4906125f6565b80156110015780601f10610fd657610100808354040283529160200191611001565b820191906000526020600020905b815481529060010190602001808311610fe457829003601f168201915b50505050508152602001600182015481526020016002820160009054906101000a900473ffffffffffffffffffffffffffffffffffffffff1673ffffffffffffffffffffffffffffffffffffffff1673ffffffffffffffffffffffffffffffffffffffff1681526020016002820160149054906101000a900460ff1660068111156110b5577f4e487b7100000000000000000000000000000000000000000000000000000000600052602160045260246000fd5b60068111156110ed577f4e487b7100000000000000000000000000000000000000000000000000000000600052602160045260246000fd5b81526020016003820154815250509050919050565b813373ffffffffffffffffffffffffffffffffffffffff166001600083815260200190815260200160002060020160009054906101000a900473ffffffffffffffffffffffffffffffffffffffff1673ffffffffffffffffffffffffffffffffffffffff16146111a7576040517f08c379a000000000000000000000000000000000000000000000000000000000815260040161119e90612396565b60405180910390fd5b60036001600085815260200190815260200160002060020160146101000a81548160ff02191690836006811115611207577f4e487b7100000000000000000000000000000000000000000000000000000000600052602160045260246000fd5b02179055507f45af58aaf003ac2ec2ad90282f8d3d79ede476b3e19183acb4abdebf6553b6a9838360405161123d929190612415565b60405180910390a1505050565b5050565b611256611b94565b600360008381526020019081526020016000206040518060a0016040529081600082018054611284906125f6565b80601f01602080910402602001604051908101604052809291908181526020018280546112b0906125f6565b80156112fd5780601f106112d2576101008083540402835291602001916112fd565b820191906000526020600020905b8154815290600101906020018083116112e057829003601f168201915b50505050508152602001600182015481526020016002820160009054906101000a900460ff16600381111561135b577f4e487b7100000000000000000000000000000000000000000000000000000000600052602160045260246000fd5b6003811115611393577f4e487b7100000000000000000000000000000000000000000000000000000000600052602160045260246000fd5b81526020016002820160019054906101000a900473ffffffffffffffffffffffffffffffffffffffff1673ffffffffffffffffffffffffffffffffffffffff1673ffffffffffffffffffffffffffffffffffffffff1681526020016003820154815250509050919050565b3360006003811115611439577f4e487b7100000000000000000000000000000000000000000000000000000000600052602160045260246000fd5b600460008373ffffffffffffffffffffffffffffffffffffffff1673ffffffffffffffffffffffffffffffffffffffff16815260200190815260200160002060020160009054906101000a900460ff1660038111156114c1577f4e487b7100000000000000000000000000000000000000000000000000000000600052602160045260246000fd5b14611501576040517f08c379a00000000000000000000000000000000000000000000000000000000081526004016114f890612356565b60405180910390fd5b611509611d13565b83816000018190525060005481602001818152505033816040019073ffffffffffffffffffffffffffffffffffffffff16908173ffffffffffffffffffffffffffffffffffffffff1681525050600081606001906006811115611595577f4e487b7100000000000000000000000000000000000000000000000000000000600052602160045260246000fd5b908160068111156115cf577f4e487b7100000000000000000000000000000000000000000000000000000000600052602160045260246000fd5b815250508060016000805481526020019081526020016000206000820151816000019080519060200190611604929190611c11565b506020820151816001015560408201518160020160006101000a81548173ffffffffffffffffffffffffffffffffffffffff021916908373ffffffffffffffffffffffffffffffffffffffff16021790555060608201518160020160146101000a81548160ff021916908360068111156116a7577f4e487b7100000000000000000000000000000000000000000000000000000000600052602160045260246000fd5b0217905550608082015181600301559050507f4e95503bf2c40739506d6f0afb0fe6be42ce748d90f3f516386892fb6096e5bc600054336040516116ec929190612415565b60405180910390a1600160005461170391906124cc565b60008190555050505050565b600760009054906101000a900473ffffffffffffffffffffffffffffffffffffffff1681565b61173d611b94565b818160000181905250600254816020018181525050600081608001818152505060038160400190600381111561179c577f4e487b7100000000000000000000000000000000000000000000000000000000600052602160045260246000fd5b908160038111156117d6577f4e487b7100000000000000000000000000000000000000000000000000000000600052602160045260246000fd5b8152505033816060019073ffffffffffffffffffffffffffffffffffffffff16908173ffffffffffffffffffffffffffffffffffffffff1681525050806003600060025481526020019081526020016000206000820151816000019080519060200190611844929190611c11565b506020820151816001015560408201518160020160006101000a81548160ff021916908360038111156118a0577f4e487b7100000000000000000000000000000000000000000000000000000000600052602160045260246000fd5b021790555060608201518160020160016101000a81548173ffffffffffffffffffffffffffffffffffffffff021916908373ffffffffffffffffffffffffffffffffffffffff1602179055506080820151816003015590505080600460003373ffffffffffffffffffffffffffffffffffffffff1673ffffffffffffffffffffffffffffffffffffffff1681526020019081526020016000206000820151816000019080519060200190611955929190611c11565b506020820151816001015560408201518160020160006101000a81548160ff021916908360038111156119b1577f4e487b7100000000000000000000000000000000000000000000000000000000600052602160045260246000fd5b021790555060608201518160020160016101000a81548173ffffffffffffffffffffffffffffffffffffffff021916908373ffffffffffffffffffffffffffffffffffffffff160217905550608082015181600301559050506001600254611a1991906124cc565b6002819055505050565b60006001600083815260200190815260200160002060020160149054906101000a900460ff169050919050565b803373ffffffffffffffffffffffffffffffffffffffff166001600083815260200190815260200160002060020160009054906101000a900473ffffffffffffffffffffffffffffffffffffffff1673ffffffffffffffffffffffffffffffffffffffff1614611af5576040517f08c379a0000000000000000000000000000000000000000000000000000000008152600401611aec90612396565b60405180910390fd5b600180600084815260200190815260200160002060020160146101000a81548160ff02191690836006811115611b54577f4e487b7100000000000000000000000000000000000000000000000000000000600052602160045260246000fd5b02179055507f15f51416bf6f180a7f06ab542b87dacc1363e503b8df75d711f9aaedc5c48a7082604051611b8891906123fa565b60405180910390a15050565b6040518060a00160405280606081526020016000815260200160006003811115611be7577f4e487b7100000000000000000000000000000000000000000000000000000000600052602160045260246000fd5b8152602001600073ffffffffffffffffffffffffffffffffffffffff168152602001600081525090565b828054611c1d906125f6565b90600052602060002090601f016020900481019282611c3f5760008555611c86565b82601f10611c5857805160ff1916838001178555611c86565b82800160010185558215611c86579182015b82811115611c85578251825591602001919060010190611c6a565b5b509050611c939190611d90565b5090565b604051806080016040528060008152602001611cb1611d13565b8152602001600073ffffffffffffffffffffffffffffffffffffffff16815260200160006002811115611d0d577f4e487b7100000000000000000000000000000000000000000000000000000000600052602160045260246000fd5b81525090565b6040518060a001604052806060815260200160008152602001600073ffffffffffffffffffffffffffffffffffffffff16815260200160006006811115611d83577f4e487b7100000000000000000000000000000000000000000000000000000000600052602160045260246000fd5b8152602001600081525090565b5b80821115611da9576000816000905550600101611d91565b5090565b6000611dc0611dbb8461246f565b61243e565b905082815260208101848484011115611dd857600080fd5b611de38482856125b4565b509392505050565b600081359050611dfa8161271d565b92915050565b600081359050611e0f81612734565b92915050565b600082601f830112611e2657600080fd5b8135611e36848260208601611dad565b91505092915050565b600081359050611e4e8161274b565b92915050565b600060208284031215611e6657600080fd5b600082013567ffffffffffffffff811115611e8057600080fd5b611e8c84828501611e15565b91505092915050565b60008060408385031215611ea857600080fd5b600083013567ffffffffffffffff811115611ec257600080fd5b611ece85828601611e15565b9250506020611edf85828601611e3f565b9150509250929050565b600060208284031215611efb57600080fd5b6000611f0984828501611e3f565b91505092915050565b60008060408385031215611f2557600080fd5b6000611f3385828601611e3f565b9250506020611f4485828601611deb565b9150509250929050565b60008060408385031215611f6157600080fd5b6000611f6f85828601611e3f565b9250506020611f8085828601611e00565b9150509250929050565b611f9381612522565b82525050565b611fa281612522565b82525050565b611fb181612590565b82525050565b611fc081612590565b82525050565b611fcf816125a2565b82525050565b611fde816125a2565b82525050565b6000611fef8261249f565b611ff981856124aa565b93506120098185602086016125c3565b612012816126e4565b840191505092915050565b60006120288261249f565b61203281856124bb565b93506120428185602086016125c3565b61204b816126e4565b840191505092915050565b6000612063601a836124bb565b91507f796f752063616e6e6f7420616464206e65772070726f647563740000000000006000830152602082019050919050565b60006120a3602d836124bb565b91507f796f7520646f6e74206861766520656e6f756768206d6f6e657920746f20627560008301527f79207468652070726f64756374000000000000000000000000000000000000006020830152604082019050919050565b60006121096021836124bb565b91507f796f7520617265206e6f74206f776e6572206f6620746869732070726f64756360008301527f74000000000000000000000000000000000000000000000000000000000000006020830152604082019050919050565b600060a083016000830151848203600086015261217f8282611fe4565b9150506020830151612194602086018261224e565b5060408301516121a76040860182611f8a565b5060608301516121ba6060860182611fa8565b5060808301516121cd608086018261224e565b508091505092915050565b600060a08301600083015184820360008601526121f58282611fe4565b915050602083015161220a602086018261224e565b50604083015161221d6040860182611fc6565b5060608301516122306060860182611f8a565b506080830151612243608086018261224e565b508091505092915050565b61225781612586565b82525050565b61226681612586565b82525050565b60006020820190506122816000830184611f99565b92915050565b600060208201905061229c6000830184611fb7565b92915050565b600060a08201905081810360008301526122bc818861201d565b90506122cb602083018761225d565b6122d86040830186611f99565b6122e56060830185611fb7565b6122f2608083018461225d565b9695505050505050565b600060a0820190508181036000830152612316818861201d565b9050612325602083018761225d565b6123326040830186611fd5565b61233f6060830185611f99565b61234c608083018461225d565b9695505050505050565b6000602082019050818103600083015261236f81612056565b9050919050565b6000602082019050818103600083015261238f81612096565b9050919050565b600060208201905081810360008301526123af816120fc565b9050919050565b600060208201905081810360008301526123d08184612162565b905092915050565b600060208201905081810360008301526123f281846121d8565b905092915050565b600060208201905061240f600083018461225d565b92915050565b600060408201905061242a600083018561225d565b6124376020830184611f99565b9392505050565b6000604051905081810181811067ffffffffffffffff82111715612465576124646126b5565b5b8060405250919050565b600067ffffffffffffffff82111561248a576124896126b5565b5b601f19601f8301169050602081019050919050565b600081519050919050565b600082825260208201905092915050565b600082825260208201905092915050565b60006124d782612586565b91506124e283612586565b9250827fffffffffffffffffffffffffffffffffffffffffffffffffffffffffffffffff0382111561251757612516612628565b5b828201905092915050565b600061252d82612566565b9050919050565b60008115159050919050565b600081905061254e826126f5565b919050565b600081905061256182612709565b919050565b600073ffffffffffffffffffffffffffffffffffffffff82169050919050565b6000819050919050565b600061259b82612540565b9050919050565b60006125ad82612553565b9050919050565b82818337600083830152505050565b60005b838110156125e15780820151818401526020810190506125c6565b838111156125f0576000848401525b50505050565b6000600282049050600182168061260e57607f821691505b6020821081141561262257612621612686565b5b50919050565b7f4e487b7100000000000000000000000000000000000000000000000000000000600052601160045260246000fd5b7f4e487b7100000000000000000000000000000000000000000000000000000000600052602160045260246000fd5b7f4e487b7100000000000000000000000000000000000000000000000000000000600052602260045260246000fd5b7f4e487b7100000000000000000000000000000000000000000000000000000000600052604160045260246000fd5b6000601f19601f8301169050919050565b6007811061270657612705612657565b5b50565b6004811061271a57612719612657565b5b50565b61272681612522565b811461273157600080fd5b50565b61273d81612534565b811461274857600080fd5b50565b61275481612586565b811461275f57600080fd5b5056fea2646970667358221220ef54f6ad3c841abbfdc72194dab8f186c8ddd47172348c69af9ce4299638d01664736f6c63430008000033",
					"opcodes": "PUSH1 0x80 PUSH1 0x40 MSTORE PUSH1 0x0 DUP1 SSTORE PUSH1 0x0 PUSH1 0x2 SSTORE PUSH1 0x0 PUSH1 0x5 SSTORE CALLVALUE DUP1 ISZERO PUSH2 0x1E JUMPI PUSH1 0x0 DUP1 REVERT JUMPDEST POP CALLER PUSH1 0x7 PUSH1 0x0 PUSH2 0x100 EXP DUP2 SLOAD DUP2 PUSH20 0xFFFFFFFFFFFFFFFFFFFFFFFFFFFFFFFFFFFFFFFF MUL NOT AND SWAP1 DUP4 PUSH20 0xFFFFFFFFFFFFFFFFFFFFFFFFFFFFFFFFFFFFFFFF AND MUL OR SWAP1 SSTORE POP PUSH2 0x2798 DUP1 PUSH2 0x6F PUSH1 0x0 CODECOPY PUSH1 0x0 RETURN INVALID PUSH1 0x80 PUSH1 0x40 MSTORE CALLVALUE DUP1 ISZERO PUSH2 0x10 JUMPI PUSH1 0x0 DUP1 REVERT JUMPDEST POP PUSH1 0x4 CALLDATASIZE LT PUSH2 0xEA JUMPI PUSH1 0x0 CALLDATALOAD PUSH1 0xE0 SHR DUP1 PUSH4 0x47E86516 GT PUSH2 0x8C JUMPI DUP1 PUSH4 0x8DA5CB5B GT PUSH2 0x66 JUMPI DUP1 PUSH4 0x8DA5CB5B EQ PUSH2 0x25F JUMPI DUP1 PUSH4 0x8F5AE799 EQ PUSH2 0x27D JUMPI DUP1 PUSH4 0xB57C7609 EQ PUSH2 0x299 JUMPI DUP1 PUSH4 0xD3DE074C EQ PUSH2 0x2C9 JUMPI PUSH2 0xEA JUMP JUMPDEST DUP1 PUSH4 0x47E86516 EQ PUSH2 0x1F7 JUMPI DUP1 PUSH4 0x54A153E9 EQ PUSH2 0x213 JUMPI DUP1 PUSH4 0x62D6BBDF EQ PUSH2 0x243 JUMPI PUSH2 0xEA JUMP JUMPDEST DUP1 PUSH4 0x2FA5AD1A GT PUSH2 0xC8 JUMPI DUP1 PUSH4 0x2FA5AD1A EQ PUSH2 0x15B JUMPI DUP1 PUSH4 0x35C1D349 EQ PUSH2 0x177 JUMPI DUP1 PUSH4 0x42F35885 EQ PUSH2 0x1AB JUMPI DUP1 PUSH4 0x43C4C53E EQ PUSH2 0x1DB JUMPI PUSH2 0xEA JUMP JUMPDEST DUP1 PUSH4 0x15533A27 EQ PUSH2 0xEF JUMPI DUP1 PUSH4 0x17B47CC4 EQ PUSH2 0x10B JUMPI DUP1 PUSH4 0x21603F43 EQ PUSH2 0x13F JUMPI JUMPDEST PUSH1 0x0 DUP1 REVERT JUMPDEST PUSH2 0x109 PUSH1 0x4 DUP1 CALLDATASIZE SUB DUP2 ADD SWAP1 PUSH2 0x104 SWAP2 SWAP1 PUSH2 0x1E54 JUMP JUMPDEST PUSH2 0x2E5 JUMP JUMPDEST STOP JUMPDEST PUSH2 0x125 PUSH1 0x4 DUP1 CALLDATASIZE SUB DUP2 ADD SWAP1 PUSH2 0x120 SWAP2 SWAP1 PUSH2 0x1EE9 JUMP JUMPDEST PUSH2 0x5D3 JUMP JUMPDEST PUSH1 0x40 MLOAD PUSH2 0x136 SWAP6 SWAP5 SWAP4 SWAP3 SWAP2 SWAP1 PUSH2 0x22A2 JUMP JUMPDEST PUSH1 0x40 MLOAD DUP1 SWAP2 SUB SWAP1 RETURN JUMPDEST PUSH2 0x159 PUSH1 0x4 DUP1 CALLDATASIZE SUB DUP2 ADD SWAP1 PUSH2 0x154 SWAP2 SWAP1 PUSH2 0x1EE9 JUMP JUMPDEST PUSH2 0x6BE JUMP JUMPDEST STOP JUMPDEST PUSH2 0x175 PUSH1 0x4 DUP1 CALLDATASIZE SUB DUP2 ADD SWAP1 PUSH2 0x170 SWAP2 SWAP1 PUSH2 0x1E54 JUMP JUMPDEST PUSH2 0xB79 JUMP JUMPDEST STOP JUMPDEST PUSH2 0x191 PUSH1 0x4 DUP1 CALLDATASIZE SUB DUP2 ADD SWAP1 PUSH2 0x18C SWAP2 SWAP1 PUSH2 0x1EE9 JUMP JUMPDEST PUSH2 0xE67 JUMP JUMPDEST PUSH1 0x40 MLOAD PUSH2 0x1A2 SWAP6 SWAP5 SWAP4 SWAP3 SWAP2 SWAP1 PUSH2 0x22FC JUMP JUMPDEST PUSH1 0x40 MLOAD DUP1 SWAP2 SUB SWAP1 RETURN JUMPDEST PUSH2 0x1C5 PUSH1 0x4 DUP1 CALLDATASIZE SUB DUP2 ADD SWAP1 PUSH2 0x1C0 SWAP2 SWAP1 PUSH2 0x1EE9 JUMP JUMPDEST PUSH2 0xF52 JUMP JUMPDEST PUSH1 0x40 MLOAD PUSH2 0x1D2 SWAP2 SWAP1 PUSH2 0x23B6 JUMP JUMPDEST PUSH1 0x40 MLOAD DUP1 SWAP2 SUB SWAP1 RETURN JUMPDEST PUSH2 0x1F5 PUSH1 0x4 DUP1 CALLDATASIZE SUB DUP2 ADD SWAP1 PUSH2 0x1F0 SWAP2 SWAP1 PUSH2 0x1F12 JUMP JUMPDEST PUSH2 0x1102 JUMP JUMPDEST STOP JUMPDEST PUSH2 0x211 PUSH1 0x4 DUP1 CALLDATASIZE SUB DUP2 ADD SWAP1 PUSH2 0x20C SWAP2 SWAP1 PUSH2 0x1F4E JUMP JUMPDEST PUSH2 0x124A JUMP JUMPDEST STOP JUMPDEST PUSH2 0x22D PUSH1 0x4 DUP1 CALLDATASIZE SUB DUP2 ADD SWAP1 PUSH2 0x228 SWAP2 SWAP1 PUSH2 0x1EE9 JUMP JUMPDEST PUSH2 0x124E JUMP JUMPDEST PUSH1 0x40 MLOAD PUSH2 0x23A SWAP2 SWAP1 PUSH2 0x23D8 JUMP JUMPDEST PUSH1 0x40 MLOAD DUP1 SWAP2 SUB SWAP1 RETURN JUMPDEST PUSH2 0x25D PUSH1 0x4 DUP1 CALLDATASIZE SUB DUP2 ADD SWAP1 PUSH2 0x258 SWAP2 SWAP1 PUSH2 0x1E95 JUMP JUMPDEST PUSH2 0x13FE JUMP JUMPDEST STOP JUMPDEST PUSH2 0x267 PUSH2 0x170F JUMP JUMPDEST PUSH1 0x40 MLOAD PUSH2 0x274 SWAP2 SWAP1 PUSH2 0x226C JUMP JUMPDEST PUSH1 0x40 MLOAD DUP1 SWAP2 SUB SWAP1 RETURN JUMPDEST PUSH2 0x297 PUSH1 0x4 DUP1 CALLDATASIZE SUB DUP2 ADD SWAP1 PUSH2 0x292 SWAP2 SWAP1 PUSH2 0x1E54 JUMP JUMPDEST PUSH2 0x1735 JUMP JUMPDEST STOP JUMPDEST PUSH2 0x2B3 PUSH1 0x4 DUP1 CALLDATASIZE SUB DUP2 ADD SWAP1 PUSH2 0x2AE SWAP2 SWAP1 PUSH2 0x1EE9 JUMP JUMPDEST PUSH2 0x1A23 JUMP JUMPDEST PUSH1 0x40 MLOAD PUSH2 0x2C0 SWAP2 SWAP1 PUSH2 0x2287 JUMP JUMPDEST PUSH1 0x40 MLOAD DUP1 SWAP2 SUB SWAP1 RETURN JUMPDEST PUSH2 0x2E3 PUSH1 0x4 DUP1 CALLDATASIZE SUB DUP2 ADD SWAP1 PUSH2 0x2DE SWAP2 SWAP1 PUSH2 0x1EE9 JUMP JUMPDEST PUSH2 0x1A50 JUMP JUMPDEST STOP JUMPDEST PUSH2 0x2ED PUSH2 0x1B94 JUMP JUMPDEST DUP2 DUP2 PUSH1 0x0 ADD DUP2 SWAP1 MSTORE POP PUSH1 0x2 SLOAD DUP2 PUSH1 0x20 ADD DUP2 DUP2 MSTORE POP POP PUSH1 0x0 DUP2 PUSH1 0x40 ADD SWAP1 PUSH1 0x3 DUP2 GT ISZERO PUSH2 0x341 JUMPI PUSH32 0x4E487B7100000000000000000000000000000000000000000000000000000000 PUSH1 0x0 MSTORE PUSH1 0x21 PUSH1 0x4 MSTORE PUSH1 0x24 PUSH1 0x0 REVERT JUMPDEST SWAP1 DUP2 PUSH1 0x3 DUP2 GT ISZERO PUSH2 0x37B JUMPI PUSH32 0x4E487B7100000000000000000000000000000000000000000000000000000000 PUSH1 0x0 MSTORE PUSH1 0x21 PUSH1 0x4 MSTORE PUSH1 0x24 PUSH1 0x0 REVERT JUMPDEST DUP2 MSTORE POP POP CALLER DUP2 PUSH1 0x60 ADD SWAP1 PUSH20 0xFFFFFFFFFFFFFFFFFFFFFFFFFFFFFFFFFFFFFFFF AND SWAP1 DUP2 PUSH20 0xFFFFFFFFFFFFFFFFFFFFFFFFFFFFFFFFFFFFFFFF AND DUP2 MSTORE POP POP PUSH1 0x0 DUP2 PUSH1 0x80 ADD DUP2 DUP2 MSTORE POP POP DUP1 PUSH1 0x3 PUSH1 0x0 PUSH1 0x2 SLOAD DUP2 MSTORE PUSH1 0x20 ADD SWAP1 DUP2 MSTORE PUSH1 0x20 ADD PUSH1 0x0 KECCAK256 PUSH1 0x0 DUP3 ADD MLOAD DUP2 PUSH1 0x0 ADD SWAP1 DUP1 MLOAD SWAP1 PUSH1 0x20 ADD SWAP1 PUSH2 0x3F4 SWAP3 SWAP2 SWAP1 PUSH2 0x1C11 JUMP JUMPDEST POP PUSH1 0x20 DUP3 ADD MLOAD DUP2 PUSH1 0x1 ADD SSTORE PUSH1 0x40 DUP3 ADD MLOAD DUP2 PUSH1 0x2 ADD PUSH1 0x0 PUSH2 0x100 EXP DUP2 SLOAD DUP2 PUSH1 0xFF MUL NOT AND SWAP1 DUP4 PUSH1 0x3 DUP2 GT ISZERO PUSH2 0x450 JUMPI PUSH32 0x4E487B7100000000000000000000000000000000000000000000000000000000 PUSH1 0x0 MSTORE PUSH1 0x21 PUSH1 0x4 MSTORE PUSH1 0x24 PUSH1 0x0 REVERT JUMPDEST MUL OR SWAP1 SSTORE POP PUSH1 0x60 DUP3 ADD MLOAD DUP2 PUSH1 0x2 ADD PUSH1 0x1 PUSH2 0x100 EXP DUP2 SLOAD DUP2 PUSH20 0xFFFFFFFFFFFFFFFFFFFFFFFFFFFFFFFFFFFFFFFF MUL NOT AND SWAP1 DUP4 PUSH20 0xFFFFFFFFFFFFFFFFFFFFFFFFFFFFFFFFFFFFFFFF AND MUL OR SWAP1 SSTORE POP PUSH1 0x80 DUP3 ADD MLOAD DUP2 PUSH1 0x3 ADD SSTORE SWAP1 POP POP DUP1 PUSH1 0x4 PUSH1 0x0 CALLER PUSH20 0xFFFFFFFFFFFFFFFFFFFFFFFFFFFFFFFFFFFFFFFF AND PUSH20 0xFFFFFFFFFFFFFFFFFFFFFFFFFFFFFFFFFFFFFFFF AND DUP2 MSTORE PUSH1 0x20 ADD SWAP1 DUP2 MSTORE PUSH1 0x20 ADD PUSH1 0x0 KECCAK256 PUSH1 0x0 DUP3 ADD MLOAD DUP2 PUSH1 0x0 ADD SWAP1 DUP1 MLOAD SWAP1 PUSH1 0x20 ADD SWAP1 PUSH2 0x505 SWAP3 SWAP2 SWAP1 PUSH2 0x1C11 JUMP JUMPDEST POP PUSH1 0x20 DUP3 ADD MLOAD DUP2 PUSH1 0x1 ADD SSTORE PUSH1 0x40 DUP3 ADD MLOAD DUP2 PUSH1 0x2 ADD PUSH1 0x0 PUSH2 0x100 EXP DUP2 SLOAD DUP2 PUSH1 0xFF MUL NOT AND SWAP1 DUP4 PUSH1 0x3 DUP2 GT ISZERO PUSH2 0x561 JUMPI PUSH32 0x4E487B7100000000000000000000000000000000000000000000000000000000 PUSH1 0x0 MSTORE PUSH1 0x21 PUSH1 0x4 MSTORE PUSH1 0x24 PUSH1 0x0 REVERT JUMPDEST MUL OR SWAP1 SSTORE POP PUSH1 0x60 DUP3 ADD MLOAD DUP2 PUSH1 0x2 ADD PUSH1 0x1 PUSH2 0x100 EXP DUP2 SLOAD DUP2 PUSH20 0xFFFFFFFFFFFFFFFFFFFFFFFFFFFFFFFFFFFFFFFF MUL NOT AND SWAP1 DUP4 PUSH20 0xFFFFFFFFFFFFFFFFFFFFFFFFFFFFFFFFFFFFFFFF AND MUL OR SWAP1 SSTORE POP PUSH1 0x80 DUP3 ADD MLOAD DUP2 PUSH1 0x3 ADD SSTORE SWAP1 POP POP PUSH1 0x1 PUSH1 0x2 SLOAD PUSH2 0x5C9 SWAP2 SWAP1 PUSH2 0x24CC JUMP JUMPDEST PUSH1 0x2 DUP2 SWAP1 SSTORE POP POP POP JUMP JUMPDEST PUSH1 0x1 PUSH1 0x20 MSTORE DUP1 PUSH1 0x0 MSTORE PUSH1 0x40 PUSH1 0x0 KECCAK256 PUSH1 0x0 SWAP2 POP SWAP1 POP DUP1 PUSH1 0x0 ADD DUP1 SLOAD PUSH2 0x5F6 SWAP1 PUSH2 0x25F6 JUMP JUMPDEST DUP1 PUSH1 0x1F ADD PUSH1 0x20 DUP1 SWAP2 DIV MUL PUSH1 0x20 ADD PUSH1 0x40 MLOAD SWAP1 DUP2 ADD PUSH1 0x40 MSTORE DUP1 SWAP3 SWAP2 SWAP1 DUP2 DUP2 MSTORE PUSH1 0x20 ADD DUP3 DUP1 SLOAD PUSH2 0x622 SWAP1 PUSH2 0x25F6 JUMP JUMPDEST DUP1 ISZERO PUSH2 0x66F JUMPI DUP1 PUSH1 0x1F LT PUSH2 0x644 JUMPI PUSH2 0x100 DUP1 DUP4 SLOAD DIV MUL DUP4 MSTORE SWAP2 PUSH1 0x20 ADD SWAP2 PUSH2 0x66F JUMP JUMPDEST DUP3 ADD SWAP2 SWAP1 PUSH1 0x0 MSTORE PUSH1 0x20 PUSH1 0x0 KECCAK256 SWAP1 JUMPDEST DUP2 SLOAD DUP2 MSTORE SWAP1 PUSH1 0x1 ADD SWAP1 PUSH1 0x20 ADD DUP1 DUP4 GT PUSH2 0x652 JUMPI DUP3 SWAP1 SUB PUSH1 0x1F AND DUP3 ADD SWAP2 JUMPDEST POP POP POP POP POP SWAP1 DUP1 PUSH1 0x1 ADD SLOAD SWAP1 DUP1 PUSH1 0x2 ADD PUSH1 0x0 SWAP1 SLOAD SWAP1 PUSH2 0x100 EXP SWAP1 DIV PUSH20 0xFFFFFFFFFFFFFFFFFFFFFFFFFFFFFFFFFFFFFFFF AND SWAP1 DUP1 PUSH1 0x2 ADD PUSH1 0x14 SWAP1 SLOAD SWAP1 PUSH2 0x100 EXP SWAP1 DIV PUSH1 0xFF AND SWAP1 DUP1 PUSH1 0x3 ADD SLOAD SWAP1 POP DUP6 JUMP JUMPDEST PUSH1 0x0 DUP1 DUP2 PUSH1 0x1 PUSH1 0x0 DUP4 DUP2 MSTORE PUSH1 0x20 ADD SWAP1 DUP2 MSTORE PUSH1 0x20 ADD PUSH1 0x0 KECCAK256 PUSH1 0x3 ADD SLOAD GT ISZERO PUSH2 0x71A JUMPI PUSH1 0x40 MLOAD PUSH32 0x8C379A000000000000000000000000000000000000000000000000000000000 DUP2 MSTORE PUSH1 0x4 ADD PUSH2 0x711 SWAP1 PUSH2 0x2376 JUMP JUMPDEST PUSH1 0x40 MLOAD DUP1 SWAP2 SUB SWAP1 REVERT JUMPDEST PUSH2 0x722 PUSH2 0x1C97 JUMP JUMPDEST CALLER DUP2 PUSH1 0x40 ADD SWAP1 PUSH20 0xFFFFFFFFFFFFFFFFFFFFFFFFFFFFFFFFFFFFFFFF AND SWAP1 DUP2 PUSH20 0xFFFFFFFFFFFFFFFFFFFFFFFFFFFFFFFFFFFFFFFF AND DUP2 MSTORE POP POP PUSH1 0x5 SLOAD DUP2 PUSH1 0x0 ADD DUP2 DUP2 MSTORE POP POP PUSH1 0x0 DUP2 PUSH1 0x60 ADD SWAP1 PUSH1 0x2 DUP2 GT ISZERO PUSH2 0x7A5 JUMPI PUSH32 0x4E487B7100000000000000000000000000000000000000000000000000000000 PUSH1 0x0 MSTORE PUSH1 0x21 PUSH1 0x4 MSTORE PUSH1 0x24 PUSH1 0x0 REVERT JUMPDEST SWAP1 DUP2 PUSH1 0x2 DUP2 GT ISZERO PUSH2 0x7DF JUMPI PUSH32 0x4E487B7100000000000000000000000000000000000000000000000000000000 PUSH1 0x0 MSTORE PUSH1 0x21 PUSH1 0x4 MSTORE PUSH1 0x24 PUSH1 0x0 REVERT JUMPDEST DUP2 MSTORE POP POP PUSH1 0x1 PUSH1 0x0 DUP6 DUP2 MSTORE PUSH1 0x20 ADD SWAP1 DUP2 MSTORE PUSH1 0x20 ADD PUSH1 0x0 KECCAK256 PUSH1 0x40 MLOAD DUP1 PUSH1 0xA0 ADD PUSH1 0x40 MSTORE SWAP1 DUP2 PUSH1 0x0 DUP3 ADD DUP1 SLOAD PUSH2 0x811 SWAP1 PUSH2 0x25F6 JUMP JUMPDEST DUP1 PUSH1 0x1F ADD PUSH1 0x20 DUP1 SWAP2 DIV MUL PUSH1 0x20 ADD PUSH1 0x40 MLOAD SWAP1 DUP2 ADD PUSH1 0x40 MSTORE DUP1 SWAP3 SWAP2 SWAP1 DUP2 DUP2 MSTORE PUSH1 0x20 ADD DUP3 DUP1 SLOAD PUSH2 0x83D SWAP1 PUSH2 0x25F6 JUMP JUMPDEST DUP1 ISZERO PUSH2 0x88A JUMPI DUP1 PUSH1 0x1F LT PUSH2 0x85F JUMPI PUSH2 0x100 DUP1 DUP4 SLOAD DIV MUL DUP4 MSTORE SWAP2 PUSH1 0x20 ADD SWAP2 PUSH2 0x88A JUMP JUMPDEST DUP3 ADD SWAP2 SWAP1 PUSH1 0x0 MSTORE PUSH1 0x20 PUSH1 0x0 KECCAK256 SWAP1 JUMPDEST DUP2 SLOAD DUP2 MSTORE SWAP1 PUSH1 0x1 ADD SWAP1 PUSH1 0x20 ADD DUP1 DUP4 GT PUSH2 0x86D JUMPI DUP3 SWAP1 SUB PUSH1 0x1F AND DUP3 ADD SWAP2 JUMPDEST POP POP POP POP POP DUP2 MSTORE PUSH1 0x20 ADD PUSH1 0x1 DUP3 ADD SLOAD DUP2 MSTORE PUSH1 0x20 ADD PUSH1 0x2 DUP3 ADD PUSH1 0x0 SWAP1 SLOAD SWAP1 PUSH2 0x100 EXP SWAP1 DIV PUSH20 0xFFFFFFFFFFFFFFFFFFFFFFFFFFFFFFFFFFFFFFFF AND PUSH20 0xFFFFFFFFFFFFFFFFFFFFFFFFFFFFFFFFFFFFFFFF AND PUSH20 0xFFFFFFFFFFFFFFFFFFFFFFFFFFFFFFFFFFFFFFFF AND DUP2 MSTORE PUSH1 0x20 ADD PUSH1 0x2 DUP3 ADD PUSH1 0x14 SWAP1 SLOAD SWAP1 PUSH2 0x100 EXP SWAP1 DIV PUSH1 0xFF AND PUSH1 0x6 DUP2 GT ISZERO PUSH2 0x93E JUMPI PUSH32 0x4E487B7100000000000000000000000000000000000000000000000000000000 PUSH1 0x0 MSTORE PUSH1 0x21 PUSH1 0x4 MSTORE PUSH1 0x24 PUSH1 0x0 REVERT JUMPDEST PUSH1 0x6 DUP2 GT ISZERO PUSH2 0x976 JUMPI PUSH32 0x4E487B7100000000000000000000000000000000000000000000000000000000 PUSH1 0x0 MSTORE PUSH1 0x21 PUSH1 0x4 MSTORE PUSH1 0x24 PUSH1 0x0 REVERT JUMPDEST DUP2 MSTORE PUSH1 0x20 ADD PUSH1 0x3 DUP3 ADD SLOAD DUP2 MSTORE POP POP DUP2 PUSH1 0x20 ADD DUP2 SWAP1 MSTORE POP DUP1 PUSH1 0x6 PUSH1 0x0 PUSH1 0x5 SLOAD DUP2 MSTORE PUSH1 0x20 ADD SWAP1 DUP2 MSTORE PUSH1 0x20 ADD PUSH1 0x0 KECCAK256 PUSH1 0x0 DUP3 ADD MLOAD DUP2 PUSH1 0x0 ADD SSTORE PUSH1 0x20 DUP3 ADD MLOAD DUP2 PUSH1 0x1 ADD PUSH1 0x0 DUP3 ADD MLOAD DUP2 PUSH1 0x0 ADD SWAP1 DUP1 MLOAD SWAP1 PUSH1 0x20 ADD SWAP1 PUSH2 0x9D1 SWAP3 SWAP2 SWAP1 PUSH2 0x1C11 JUMP JUMPDEST POP PUSH1 0x20 DUP3 ADD MLOAD DUP2 PUSH1 0x1 ADD SSTORE PUSH1 0x40 DUP3 ADD MLOAD DUP2 PUSH1 0x2 ADD PUSH1 0x0 PUSH2 0x100 EXP DUP2 SLOAD DUP2 PUSH20 0xFFFFFFFFFFFFFFFFFFFFFFFFFFFFFFFFFFFFFFFF MUL NOT AND SWAP1 DUP4 PUSH20 0xFFFFFFFFFFFFFFFFFFFFFFFFFFFFFFFFFFFFFFFF AND MUL OR SWAP1 SSTORE POP PUSH1 0x60 DUP3 ADD MLOAD DUP2 PUSH1 0x2 ADD PUSH1 0x14 PUSH2 0x100 EXP DUP2 SLOAD DUP2 PUSH1 0xFF MUL NOT AND SWAP1 DUP4 PUSH1 0x6 DUP2 GT ISZERO PUSH2 0xA74 JUMPI PUSH32 0x4E487B7100000000000000000000000000000000000000000000000000000000 PUSH1 0x0 MSTORE PUSH1 0x21 PUSH1 0x4 MSTORE PUSH1 0x24 PUSH1 0x0 REVERT JUMPDEST MUL OR SWAP1 SSTORE POP PUSH1 0x80 DUP3 ADD MLOAD DUP2 PUSH1 0x3 ADD SSTORE POP POP PUSH1 0x40 DUP3 ADD MLOAD DUP2 PUSH1 0x5 ADD PUSH1 0x0 PUSH2 0x100 EXP DUP2 SLOAD DUP2 PUSH20 0xFFFFFFFFFFFFFFFFFFFFFFFFFFFFFFFFFFFFFFFF MUL NOT AND SWAP1 DUP4 PUSH20 0xFFFFFFFFFFFFFFFFFFFFFFFFFFFFFFFFFFFFFFFF AND MUL OR SWAP1 SSTORE POP PUSH1 0x60 DUP3 ADD MLOAD DUP2 PUSH1 0x5 ADD PUSH1 0x14 PUSH2 0x100 EXP DUP2 SLOAD DUP2 PUSH1 0xFF MUL NOT AND SWAP1 DUP4 PUSH1 0x2 DUP2 GT ISZERO PUSH2 0xB1D JUMPI PUSH32 0x4E487B7100000000000000000000000000000000000000000000000000000000 PUSH1 0x0 MSTORE PUSH1 0x21 PUSH1 0x4 MSTORE PUSH1 0x24 PUSH1 0x0 REVERT JUMPDEST MUL OR SWAP1 SSTORE POP SWAP1 POP POP PUSH32 0xEF7B116480495AD6B1C6479820E4A0140E78DE3846E138C5D055AD601408725E DUP5 CALLER PUSH1 0x40 MLOAD PUSH2 0xB56 SWAP3 SWAP2 SWAP1 PUSH2 0x2415 JUMP JUMPDEST PUSH1 0x40 MLOAD DUP1 SWAP2 SUB SWAP1 LOG1 PUSH1 0x1 PUSH1 0x5 SLOAD PUSH2 0xB6D SWAP2 SWAP1 PUSH2 0x24CC JUMP JUMPDEST PUSH1 0x5 DUP2 SWAP1 SSTORE POP POP POP POP POP JUMP JUMPDEST PUSH2 0xB81 PUSH2 0x1B94 JUMP JUMPDEST DUP2 DUP2 PUSH1 0x0 ADD DUP2 SWAP1 MSTORE POP PUSH1 0x2 SLOAD DUP2 PUSH1 0x20 ADD DUP2 DUP2 MSTORE POP POP PUSH1 0x0 DUP2 PUSH1 0x80 ADD DUP2 DUP2 MSTORE POP POP PUSH1 0x1 DUP2 PUSH1 0x40 ADD SWAP1 PUSH1 0x3 DUP2 GT ISZERO PUSH2 0xBE0 JUMPI PUSH32 0x4E487B7100000000000000000000000000000000000000000000000000000000 PUSH1 0x0 MSTORE PUSH1 0x21 PUSH1 0x4 MSTORE PUSH1 0x24 PUSH1 0x0 REVERT JUMPDEST SWAP1 DUP2 PUSH1 0x3 DUP2 GT ISZERO PUSH2 0xC1A JUMPI PUSH32 0x4E487B7100000000000000000000000000000000000000000000000000000000 PUSH1 0x0 MSTORE PUSH1 0x21 PUSH1 0x4 MSTORE PUSH1 0x24 PUSH1 0x0 REVERT JUMPDEST DUP2 MSTORE POP POP CALLER DUP2 PUSH1 0x60 ADD SWAP1 PUSH20 0xFFFFFFFFFFFFFFFFFFFFFFFFFFFFFFFFFFFFFFFF AND SWAP1 DUP2 PUSH20 0xFFFFFFFFFFFFFFFFFFFFFFFFFFFFFFFFFFFFFFFF AND DUP2 MSTORE POP POP DUP1 PUSH1 0x3 PUSH1 0x0 PUSH1 0x2 SLOAD DUP2 MSTORE PUSH1 0x20 ADD SWAP1 DUP2 MSTORE PUSH1 0x20 ADD PUSH1 0x0 KECCAK256 PUSH1 0x0 DUP3 ADD MLOAD DUP2 PUSH1 0x0 ADD SWAP1 DUP1 MLOAD SWAP1 PUSH1 0x20 ADD SWAP1 PUSH2 0xC88 SWAP3 SWAP2 SWAP1 PUSH2 0x1C11 JUMP JUMPDEST POP PUSH1 0x20 DUP3 ADD MLOAD DUP2 PUSH1 0x1 ADD SSTORE PUSH1 0x40 DUP3 ADD MLOAD DUP2 PUSH1 0x2 ADD PUSH1 0x0 PUSH2 0x100 EXP DUP2 SLOAD DUP2 PUSH1 0xFF MUL NOT AND SWAP1 DUP4 PUSH1 0x3 DUP2 GT ISZERO PUSH2 0xCE4 JUMPI PUSH32 0x4E487B7100000000000000000000000000000000000000000000000000000000 PUSH1 0x0 MSTORE PUSH1 0x21 PUSH1 0x4 MSTORE PUSH1 0x24 PUSH1 0x0 REVERT JUMPDEST MUL OR SWAP1 SSTORE POP PUSH1 0x60 DUP3 ADD MLOAD DUP2 PUSH1 0x2 ADD PUSH1 0x1 PUSH2 0x100 EXP DUP2 SLOAD DUP2 PUSH20 0xFFFFFFFFFFFFFFFFFFFFFFFFFFFFFFFFFFFFFFFF MUL NOT AND SWAP1 DUP4 PUSH20 0xFFFFFFFFFFFFFFFFFFFFFFFFFFFFFFFFFFFFFFFF AND MUL OR SWAP1 SSTORE POP PUSH1 0x80 DUP3 ADD MLOAD DUP2 PUSH1 0x3 ADD SSTORE SWAP1 POP POP DUP1 PUSH1 0x4 PUSH1 0x0 CALLER PUSH20 0xFFFFFFFFFFFFFFFFFFFFFFFFFFFFFFFFFFFFFFFF AND PUSH20 0xFFFFFFFFFFFFFFFFFFFFFFFFFFFFFFFFFFFFFFFF AND DUP2 MSTORE PUSH1 0x20 ADD SWAP1 DUP2 MSTORE PUSH1 0x20 ADD PUSH1 0x0 KECCAK256 PUSH1 0x0 DUP3 ADD MLOAD DUP2 PUSH1 0x0 ADD SWAP1 DUP1 MLOAD SWAP1 PUSH1 0x20 ADD SWAP1 PUSH2 0xD99 SWAP3 SWAP2 SWAP1 PUSH2 0x1C11 JUMP JUMPDEST POP PUSH1 0x20 DUP3 ADD MLOAD DUP2 PUSH1 0x1 ADD SSTORE PUSH1 0x40 DUP3 ADD MLOAD DUP2 PUSH1 0x2 ADD PUSH1 0x0 PUSH2 0x100 EXP DUP2 SLOAD DUP2 PUSH1 0xFF MUL NOT AND SWAP1 DUP4 PUSH1 0x3 DUP2 GT ISZERO PUSH2 0xDF5 JUMPI PUSH32 0x4E487B7100000000000000000000000000000000000000000000000000000000 PUSH1 0x0 MSTORE PUSH1 0x21 PUSH1 0x4 MSTORE PUSH1 0x24 PUSH1 0x0 REVERT JUMPDEST MUL OR SWAP1 SSTORE POP PUSH1 0x60 DUP3 ADD MLOAD DUP2 PUSH1 0x2 ADD PUSH1 0x1 PUSH2 0x100 EXP DUP2 SLOAD DUP2 PUSH20 0xFFFFFFFFFFFFFFFFFFFFFFFFFFFFFFFFFFFFFFFF MUL NOT AND SWAP1 DUP4 PUSH20 0xFFFFFFFFFFFFFFFFFFFFFFFFFFFFFFFFFFFFFFFF AND MUL OR SWAP1 SSTORE POP PUSH1 0x80 DUP3 ADD MLOAD DUP2 PUSH1 0x3 ADD SSTORE SWAP1 POP POP PUSH1 0x1 PUSH1 0x2 SLOAD PUSH2 0xE5D SWAP2 SWAP1 PUSH2 0x24CC JUMP JUMPDEST PUSH1 0x2 DUP2 SWAP1 SSTORE POP POP POP JUMP JUMPDEST PUSH1 0x3 PUSH1 0x20 MSTORE DUP1 PUSH1 0x0 MSTORE PUSH1 0x40 PUSH1 0x0 KECCAK256 PUSH1 0x0 SWAP2 POP SWAP1 POP DUP1 PUSH1 0x0 ADD DUP1 SLOAD PUSH2 0xE8A SWAP1 PUSH2 0x25F6 JUMP JUMPDEST DUP1 PUSH1 0x1F ADD PUSH1 0x20 DUP1 SWAP2 DIV MUL PUSH1 0x20 ADD PUSH1 0x40 MLOAD SWAP1 DUP2 ADD PUSH1 0x40 MSTORE DUP1 SWAP3 SWAP2 SWAP1 DUP2 DUP2 MSTORE PUSH1 0x20 ADD DUP3 DUP1 SLOAD PUSH2 0xEB6 SWAP1 PUSH2 0x25F6 JUMP JUMPDEST DUP1 ISZERO PUSH2 0xF03 JUMPI DUP1 PUSH1 0x1F LT PUSH2 0xED8 JUMPI PUSH2 0x100 DUP1 DUP4 SLOAD DIV MUL DUP4 MSTORE SWAP2 PUSH1 0x20 ADD SWAP2 PUSH2 0xF03 JUMP JUMPDEST DUP3 ADD SWAP2 SWAP1 PUSH1 0x0 MSTORE PUSH1 0x20 PUSH1 0x0 KECCAK256 SWAP1 JUMPDEST DUP2 SLOAD DUP2 MSTORE SWAP1 PUSH1 0x1 ADD SWAP1 PUSH1 0x20 ADD DUP1 DUP4 GT PUSH2 0xEE6 JUMPI DUP3 SWAP1 SUB PUSH1 0x1F AND DUP3 ADD SWAP2 JUMPDEST POP POP POP POP POP SWAP1 DUP1 PUSH1 0x1 ADD SLOAD SWAP1 DUP1 PUSH1 0x2 ADD PUSH1 0x0 SWAP1 SLOAD SWAP1 PUSH2 0x100 EXP SWAP1 DIV PUSH1 0xFF AND SWAP1 DUP1 PUSH1 0x2 ADD PUSH1 0x1 SWAP1 SLOAD SWAP1 PUSH2 0x100 EXP SWAP1 DIV PUSH20 0xFFFFFFFFFFFFFFFFFFFFFFFFFFFFFFFFFFFFFFFF AND SWAP1 DUP1 PUSH1 0x3 ADD SLOAD SWAP1 POP DUP6 JUMP JUMPDEST PUSH2 0xF5A PUSH2 0x1D13 JUMP JUMPDEST PUSH1 0x1 PUSH1 0x0 DUP4 DUP2 MSTORE PUSH1 0x20 ADD SWAP1 DUP2 MSTORE PUSH1 0x20 ADD PUSH1 0x0 KECCAK256 PUSH1 0x40 MLOAD DUP1 PUSH1 0xA0 ADD PUSH1 0x40 MSTORE SWAP1 DUP2 PUSH1 0x0 DUP3 ADD DUP1 SLOAD PUSH2 0xF88 SWAP1 PUSH2 0x25F6 JUMP JUMPDEST DUP1 PUSH1 0x1F ADD PUSH1 0x20 DUP1 SWAP2 DIV MUL PUSH1 0x20 ADD PUSH1 0x40 MLOAD SWAP1 DUP2 ADD PUSH1 0x40 MSTORE DUP1 SWAP3 SWAP2 SWAP1 DUP2 DUP2 MSTORE PUSH1 0x20 ADD DUP3 DUP1 SLOAD PUSH2 0xFB4 SWAP1 PUSH2 0x25F6 JUMP JUMPDEST DUP1 ISZERO PUSH2 0x1001 JUMPI DUP1 PUSH1 0x1F LT PUSH2 0xFD6 JUMPI PUSH2 0x100 DUP1 DUP4 SLOAD DIV MUL DUP4 MSTORE SWAP2 PUSH1 0x20 ADD SWAP2 PUSH2 0x1001 JUMP JUMPDEST DUP3 ADD SWAP2 SWAP1 PUSH1 0x0 MSTORE PUSH1 0x20 PUSH1 0x0 KECCAK256 SWAP1 JUMPDEST DUP2 SLOAD DUP2 MSTORE SWAP1 PUSH1 0x1 ADD SWAP1 PUSH1 0x20 ADD DUP1 DUP4 GT PUSH2 0xFE4 JUMPI DUP3 SWAP1 SUB PUSH1 0x1F AND DUP3 ADD SWAP2 JUMPDEST POP POP POP POP POP DUP2 MSTORE PUSH1 0x20 ADD PUSH1 0x1 DUP3 ADD SLOAD DUP2 MSTORE PUSH1 0x20 ADD PUSH1 0x2 DUP3 ADD PUSH1 0x0 SWAP1 SLOAD SWAP1 PUSH2 0x100 EXP SWAP1 DIV PUSH20 0xFFFFFFFFFFFFFFFFFFFFFFFFFFFFFFFFFFFFFFFF AND PUSH20 0xFFFFFFFFFFFFFFFFFFFFFFFFFFFFFFFFFFFFFFFF AND PUSH20 0xFFFFFFFFFFFFFFFFFFFFFFFFFFFFFFFFFFFFFFFF AND DUP2 MSTORE PUSH1 0x20 ADD PUSH1 0x2 DUP3 ADD PUSH1 0x14 SWAP1 SLOAD SWAP1 PUSH2 0x100 EXP SWAP1 DIV PUSH1 0xFF AND PUSH1 0x6 DUP2 GT ISZERO PUSH2 0x10B5 JUMPI PUSH32 0x4E487B7100000000000000000000000000000000000000000000000000000000 PUSH1 0x0 MSTORE PUSH1 0x21 PUSH1 0x4 MSTORE PUSH1 0x24 PUSH1 0x0 REVERT JUMPDEST PUSH1 0x6 DUP2 GT ISZERO PUSH2 0x10ED JUMPI PUSH32 0x4E487B7100000000000000000000000000000000000000000000000000000000 PUSH1 0x0 MSTORE PUSH1 0x21 PUSH1 0x4 MSTORE PUSH1 0x24 PUSH1 0x0 REVERT JUMPDEST DUP2 MSTORE PUSH1 0x20 ADD PUSH1 0x3 DUP3 ADD SLOAD DUP2 MSTORE POP POP SWAP1 POP SWAP2 SWAP1 POP JUMP JUMPDEST DUP2 CALLER PUSH20 0xFFFFFFFFFFFFFFFFFFFFFFFFFFFFFFFFFFFFFFFF AND PUSH1 0x1 PUSH1 0x0 DUP4 DUP2 MSTORE PUSH1 0x20 ADD SWAP1 DUP2 MSTORE PUSH1 0x20 ADD PUSH1 0x0 KECCAK256 PUSH1 0x2 ADD PUSH1 0x0 SWAP1 SLOAD SWAP1 PUSH2 0x100 EXP SWAP1 DIV PUSH20 0xFFFFFFFFFFFFFFFFFFFFFFFFFFFFFFFFFFFFFFFF AND PUSH20 0xFFFFFFFFFFFFFFFFFFFFFFFFFFFFFFFFFFFFFFFF AND EQ PUSH2 0x11A7 JUMPI PUSH1 0x40 MLOAD PUSH32 0x8C379A000000000000000000000000000000000000000000000000000000000 DUP2 MSTORE PUSH1 0x4 ADD PUSH2 0x119E SWAP1 PUSH2 0x2396 JUMP JUMPDEST PUSH1 0x40 MLOAD DUP1 SWAP2 SUB SWAP1 REVERT JUMPDEST PUSH1 0x3 PUSH1 0x1 PUSH1 0x0 DUP6 DUP2 MSTORE PUSH1 0x20 ADD SWAP1 DUP2 MSTORE PUSH1 0x20 ADD PUSH1 0x0 KECCAK256 PUSH1 0x2 ADD PUSH1 0x14 PUSH2 0x100 EXP DUP2 SLOAD DUP2 PUSH1 0xFF MUL NOT AND SWAP1 DUP4 PUSH1 0x6 DUP2 GT ISZERO PUSH2 0x1207 JUMPI PUSH32 0x4E487B7100000000000000000000000000000000000000000000000000000000 PUSH1 0x0 MSTORE PUSH1 0x21 PUSH1 0x4 MSTORE PUSH1 0x24 PUSH1 0x0 REVERT JUMPDEST MUL OR SWAP1 SSTORE POP PUSH32 0x45AF58AAF003AC2EC2AD90282F8D3D79EDE476B3E19183ACB4ABDEBF6553B6A9 DUP4 DUP4 PUSH1 0x40 MLOAD PUSH2 0x123D SWAP3 SWAP2 SWAP1 PUSH2 0x2415 JUMP JUMPDEST PUSH1 0x40 MLOAD DUP1 SWAP2 SUB SWAP1 LOG1 POP POP POP JUMP JUMPDEST POP POP JUMP JUMPDEST PUSH2 0x1256 PUSH2 0x1B94 JUMP JUMPDEST PUSH1 0x3 PUSH1 0x0 DUP4 DUP2 MSTORE PUSH1 0x20 ADD SWAP1 DUP2 MSTORE PUSH1 0x20 ADD PUSH1 0x0 KECCAK256 PUSH1 0x40 MLOAD DUP1 PUSH1 0xA0 ADD PUSH1 0x40 MSTORE SWAP1 DUP2 PUSH1 0x0 DUP3 ADD DUP1 SLOAD PUSH2 0x1284 SWAP1 PUSH2 0x25F6 JUMP JUMPDEST DUP1 PUSH1 0x1F ADD PUSH1 0x20 DUP1 SWAP2 DIV MUL PUSH1 0x20 ADD PUSH1 0x40 MLOAD SWAP1 DUP2 ADD PUSH1 0x40 MSTORE DUP1 SWAP3 SWAP2 SWAP1 DUP2 DUP2 MSTORE PUSH1 0x20 ADD DUP3 DUP1 SLOAD PUSH2 0x12B0 SWAP1 PUSH2 0x25F6 JUMP JUMPDEST DUP1 ISZERO PUSH2 0x12FD JUMPI DUP1 PUSH1 0x1F LT PUSH2 0x12D2 JUMPI PUSH2 0x100 DUP1 DUP4 SLOAD DIV MUL DUP4 MSTORE SWAP2 PUSH1 0x20 ADD SWAP2 PUSH2 0x12FD JUMP JUMPDEST DUP3 ADD SWAP2 SWAP1 PUSH1 0x0 MSTORE PUSH1 0x20 PUSH1 0x0 KECCAK256 SWAP1 JUMPDEST DUP2 SLOAD DUP2 MSTORE SWAP1 PUSH1 0x1 ADD SWAP1 PUSH1 0x20 ADD DUP1 DUP4 GT PUSH2 0x12E0 JUMPI DUP3 SWAP1 SUB PUSH1 0x1F AND DUP3 ADD SWAP2 JUMPDEST POP POP POP POP POP DUP2 MSTORE PUSH1 0x20 ADD PUSH1 0x1 DUP3 ADD SLOAD DUP2 MSTORE PUSH1 0x20 ADD PUSH1 0x2 DUP3 ADD PUSH1 0x0 SWAP1 SLOAD SWAP1 PUSH2 0x100 EXP SWAP1 DIV PUSH1 0xFF AND PUSH1 0x3 DUP2 GT ISZERO PUSH2 0x135B JUMPI PUSH32 0x4E487B7100000000000000000000000000000000000000000000000000000000 PUSH1 0x0 MSTORE PUSH1 0x21 PUSH1 0x4 MSTORE PUSH1 0x24 PUSH1 0x0 REVERT JUMPDEST PUSH1 0x3 DUP2 GT ISZERO PUSH2 0x1393 JUMPI PUSH32 0x4E487B7100000000000000000000000000000000000000000000000000000000 PUSH1 0x0 MSTORE PUSH1 0x21 PUSH1 0x4 MSTORE PUSH1 0x24 PUSH1 0x0 REVERT JUMPDEST DUP2 MSTORE PUSH1 0x20 ADD PUSH1 0x2 DUP3 ADD PUSH1 0x1 SWAP1 SLOAD SWAP1 PUSH2 0x100 EXP SWAP1 DIV PUSH20 0xFFFFFFFFFFFFFFFFFFFFFFFFFFFFFFFFFFFFFFFF AND PUSH20 0xFFFFFFFFFFFFFFFFFFFFFFFFFFFFFFFFFFFFFFFF AND PUSH20 0xFFFFFFFFFFFFFFFFFFFFFFFFFFFFFFFFFFFFFFFF AND DUP2 MSTORE PUSH1 0x20 ADD PUSH1 0x3 DUP3 ADD SLOAD DUP2 MSTORE POP POP SWAP1 POP SWAP2 SWAP1 POP JUMP JUMPDEST CALLER PUSH1 0x0 PUSH1 0x3 DUP2 GT ISZERO PUSH2 0x1439 JUMPI PUSH32 0x4E487B7100000000000000000000000000000000000000000000000000000000 PUSH1 0x0 MSTORE PUSH1 0x21 PUSH1 0x4 MSTORE PUSH1 0x24 PUSH1 0x0 REVERT JUMPDEST PUSH1 0x4 PUSH1 0x0 DUP4 PUSH20 0xFFFFFFFFFFFFFFFFFFFFFFFFFFFFFFFFFFFFFFFF AND PUSH20 0xFFFFFFFFFFFFFFFFFFFFFFFFFFFFFFFFFFFFFFFF AND DUP2 MSTORE PUSH1 0x20 ADD SWAP1 DUP2 MSTORE PUSH1 0x20 ADD PUSH1 0x0 KECCAK256 PUSH1 0x2 ADD PUSH1 0x0 SWAP1 SLOAD SWAP1 PUSH2 0x100 EXP SWAP1 DIV PUSH1 0xFF AND PUSH1 0x3 DUP2 GT ISZERO PUSH2 0x14C1 JUMPI PUSH32 0x4E487B7100000000000000000000000000000000000000000000000000000000 PUSH1 0x0 MSTORE PUSH1 0x21 PUSH1 0x4 MSTORE PUSH1 0x24 PUSH1 0x0 REVERT JUMPDEST EQ PUSH2 0x1501 JUMPI PUSH1 0x40 MLOAD PUSH32 0x8C379A000000000000000000000000000000000000000000000000000000000 DUP2 MSTORE PUSH1 0x4 ADD PUSH2 0x14F8 SWAP1 PUSH2 0x2356 JUMP JUMPDEST PUSH1 0x40 MLOAD DUP1 SWAP2 SUB SWAP1 REVERT JUMPDEST PUSH2 0x1509 PUSH2 0x1D13 JUMP JUMPDEST DUP4 DUP2 PUSH1 0x0 ADD DUP2 SWAP1 MSTORE POP PUSH1 0x0 SLOAD DUP2 PUSH1 0x20 ADD DUP2 DUP2 MSTORE POP POP CALLER DUP2 PUSH1 0x40 ADD SWAP1 PUSH20 0xFFFFFFFFFFFFFFFFFFFFFFFFFFFFFFFFFFFFFFFF AND SWAP1 DUP2 PUSH20 0xFFFFFFFFFFFFFFFFFFFFFFFFFFFFFFFFFFFFFFFF AND DUP2 MSTORE POP POP PUSH1 0x0 DUP2 PUSH1 0x60 ADD SWAP1 PUSH1 0x6 DUP2 GT ISZERO PUSH2 0x1595 JUMPI PUSH32 0x4E487B7100000000000000000000000000000000000000000000000000000000 PUSH1 0x0 MSTORE PUSH1 0x21 PUSH1 0x4 MSTORE PUSH1 0x24 PUSH1 0x0 REVERT JUMPDEST SWAP1 DUP2 PUSH1 0x6 DUP2 GT ISZERO PUSH2 0x15CF JUMPI PUSH32 0x4E487B7100000000000000000000000000000000000000000000000000000000 PUSH1 0x0 MSTORE PUSH1 0x21 PUSH1 0x4 MSTORE PUSH1 0x24 PUSH1 0x0 REVERT JUMPDEST DUP2 MSTORE POP POP DUP1 PUSH1 0x1 PUSH1 0x0 DUP1 SLOAD DUP2 MSTORE PUSH1 0x20 ADD SWAP1 DUP2 MSTORE PUSH1 0x20 ADD PUSH1 0x0 KECCAK256 PUSH1 0x0 DUP3 ADD MLOAD DUP2 PUSH1 0x0 ADD SWAP1 DUP1 MLOAD SWAP1 PUSH1 0x20 ADD SWAP1 PUSH2 0x1604 SWAP3 SWAP2 SWAP1 PUSH2 0x1C11 JUMP JUMPDEST POP PUSH1 0x20 DUP3 ADD MLOAD DUP2 PUSH1 0x1 ADD SSTORE PUSH1 0x40 DUP3 ADD MLOAD DUP2 PUSH1 0x2 ADD PUSH1 0x0 PUSH2 0x100 EXP DUP2 SLOAD DUP2 PUSH20 0xFFFFFFFFFFFFFFFFFFFFFFFFFFFFFFFFFFFFFFFF MUL NOT AND SWAP1 DUP4 PUSH20 0xFFFFFFFFFFFFFFFFFFFFFFFFFFFFFFFFFFFFFFFF AND MUL OR SWAP1 SSTORE POP PUSH1 0x60 DUP3 ADD MLOAD DUP2 PUSH1 0x2 ADD PUSH1 0x14 PUSH2 0x100 EXP DUP2 SLOAD DUP2 PUSH1 0xFF MUL NOT AND SWAP1 DUP4 PUSH1 0x6 DUP2 GT ISZERO PUSH2 0x16A7 JUMPI PUSH32 0x4E487B7100000000000000000000000000000000000000000000000000000000 PUSH1 0x0 MSTORE PUSH1 0x21 PUSH1 0x4 MSTORE PUSH1 0x24 PUSH1 0x0 REVERT JUMPDEST MUL OR SWAP1 SSTORE POP PUSH1 0x80 DUP3 ADD MLOAD DUP2 PUSH1 0x3 ADD SSTORE SWAP1 POP POP PUSH32 0x4E95503BF2C40739506D6F0AFB0FE6BE42CE748D90F3F516386892FB6096E5BC PUSH1 0x0 SLOAD CALLER PUSH1 0x40 MLOAD PUSH2 0x16EC SWAP3 SWAP2 SWAP1 PUSH2 0x2415 JUMP JUMPDEST PUSH1 0x40 MLOAD DUP1 SWAP2 SUB SWAP1 LOG1 PUSH1 0x1 PUSH1 0x0 SLOAD PUSH2 0x1703 SWAP2 SWAP1 PUSH2 0x24CC JUMP JUMPDEST PUSH1 0x0 DUP2 SWAP1 SSTORE POP POP POP POP POP JUMP JUMPDEST PUSH1 0x7 PUSH1 0x0 SWAP1 SLOAD SWAP1 PUSH2 0x100 EXP SWAP1 DIV PUSH20 0xFFFFFFFFFFFFFFFFFFFFFFFFFFFFFFFFFFFFFFFF AND DUP2 JUMP JUMPDEST PUSH2 0x173D PUSH2 0x1B94 JUMP JUMPDEST DUP2 DUP2 PUSH1 0x0 ADD DUP2 SWAP1 MSTORE POP PUSH1 0x2 SLOAD DUP2 PUSH1 0x20 ADD DUP2 DUP2 MSTORE POP POP PUSH1 0x0 DUP2 PUSH1 0x80 ADD DUP2 DUP2 MSTORE POP POP PUSH1 0x3 DUP2 PUSH1 0x40 ADD SWAP1 PUSH1 0x3 DUP2 GT ISZERO PUSH2 0x179C JUMPI PUSH32 0x4E487B7100000000000000000000000000000000000000000000000000000000 PUSH1 0x0 MSTORE PUSH1 0x21 PUSH1 0x4 MSTORE PUSH1 0x24 PUSH1 0x0 REVERT JUMPDEST SWAP1 DUP2 PUSH1 0x3 DUP2 GT ISZERO PUSH2 0x17D6 JUMPI PUSH32 0x4E487B7100000000000000000000000000000000000000000000000000000000 PUSH1 0x0 MSTORE PUSH1 0x21 PUSH1 0x4 MSTORE PUSH1 0x24 PUSH1 0x0 REVERT JUMPDEST DUP2 MSTORE POP POP CALLER DUP2 PUSH1 0x60 ADD SWAP1 PUSH20 0xFFFFFFFFFFFFFFFFFFFFFFFFFFFFFFFFFFFFFFFF AND SWAP1 DUP2 PUSH20 0xFFFFFFFFFFFFFFFFFFFFFFFFFFFFFFFFFFFFFFFF AND DUP2 MSTORE POP POP DUP1 PUSH1 0x3 PUSH1 0x0 PUSH1 0x2 SLOAD DUP2 MSTORE PUSH1 0x20 ADD SWAP1 DUP2 MSTORE PUSH1 0x20 ADD PUSH1 0x0 KECCAK256 PUSH1 0x0 DUP3 ADD MLOAD DUP2 PUSH1 0x0 ADD SWAP1 DUP1 MLOAD SWAP1 PUSH1 0x20 ADD SWAP1 PUSH2 0x1844 SWAP3 SWAP2 SWAP1 PUSH2 0x1C11 JUMP JUMPDEST POP PUSH1 0x20 DUP3 ADD MLOAD DUP2 PUSH1 0x1 ADD SSTORE PUSH1 0x40 DUP3 ADD MLOAD DUP2 PUSH1 0x2 ADD PUSH1 0x0 PUSH2 0x100 EXP DUP2 SLOAD DUP2 PUSH1 0xFF MUL NOT AND SWAP1 DUP4 PUSH1 0x3 DUP2 GT ISZERO PUSH2 0x18A0 JUMPI PUSH32 0x4E487B7100000000000000000000000000000000000000000000000000000000 PUSH1 0x0 MSTORE PUSH1 0x21 PUSH1 0x4 MSTORE PUSH1 0x24 PUSH1 0x0 REVERT JUMPDEST MUL OR SWAP1 SSTORE POP PUSH1 0x60 DUP3 ADD MLOAD DUP2 PUSH1 0x2 ADD PUSH1 0x1 PUSH2 0x100 EXP DUP2 SLOAD DUP2 PUSH20 0xFFFFFFFFFFFFFFFFFFFFFFFFFFFFFFFFFFFFFFFF MUL NOT AND SWAP1 DUP4 PUSH20 0xFFFFFFFFFFFFFFFFFFFFFFFFFFFFFFFFFFFFFFFF AND MUL OR SWAP1 SSTORE POP PUSH1 0x80 DUP3 ADD MLOAD DUP2 PUSH1 0x3 ADD SSTORE SWAP1 POP POP DUP1 PUSH1 0x4 PUSH1 0x0 CALLER PUSH20 0xFFFFFFFFFFFFFFFFFFFFFFFFFFFFFFFFFFFFFFFF AND PUSH20 0xFFFFFFFFFFFFFFFFFFFFFFFFFFFFFFFFFFFFFFFF AND DUP2 MSTORE PUSH1 0x20 ADD SWAP1 DUP2 MSTORE PUSH1 0x20 ADD PUSH1 0x0 KECCAK256 PUSH1 0x0 DUP3 ADD MLOAD DUP2 PUSH1 0x0 ADD SWAP1 DUP1 MLOAD SWAP1 PUSH1 0x20 ADD SWAP1 PUSH2 0x1955 SWAP3 SWAP2 SWAP1 PUSH2 0x1C11 JUMP JUMPDEST POP PUSH1 0x20 DUP3 ADD MLOAD DUP2 PUSH1 0x1 ADD SSTORE PUSH1 0x40 DUP3 ADD MLOAD DUP2 PUSH1 0x2 ADD PUSH1 0x0 PUSH2 0x100 EXP DUP2 SLOAD DUP2 PUSH1 0xFF MUL NOT AND SWAP1 DUP4 PUSH1 0x3 DUP2 GT ISZERO PUSH2 0x19B1 JUMPI PUSH32 0x4E487B7100000000000000000000000000000000000000000000000000000000 PUSH1 0x0 MSTORE PUSH1 0x21 PUSH1 0x4 MSTORE PUSH1 0x24 PUSH1 0x0 REVERT JUMPDEST MUL OR SWAP1 SSTORE POP PUSH1 0x60 DUP3 ADD MLOAD DUP2 PUSH1 0x2 ADD PUSH1 0x1 PUSH2 0x100 EXP DUP2 SLOAD DUP2 PUSH20 0xFFFFFFFFFFFFFFFFFFFFFFFFFFFFFFFFFFFFFFFF MUL NOT AND SWAP1 DUP4 PUSH20 0xFFFFFFFFFFFFFFFFFFFFFFFFFFFFFFFFFFFFFFFF AND MUL OR SWAP1 SSTORE POP PUSH1 0x80 DUP3 ADD MLOAD DUP2 PUSH1 0x3 ADD SSTORE SWAP1 POP POP PUSH1 0x1 PUSH1 0x2 SLOAD PUSH2 0x1A19 SWAP2 SWAP1 PUSH2 0x24CC JUMP JUMPDEST PUSH1 0x2 DUP2 SWAP1 SSTORE POP POP POP JUMP JUMPDEST PUSH1 0x0 PUSH1 0x1 PUSH1 0x0 DUP4 DUP2 MSTORE PUSH1 0x20 ADD SWAP1 DUP2 MSTORE PUSH1 0x20 ADD PUSH1 0x0 KECCAK256 PUSH1 0x2 ADD PUSH1 0x14 SWAP1 SLOAD SWAP1 PUSH2 0x100 EXP SWAP1 DIV PUSH1 0xFF AND SWAP1 POP SWAP2 SWAP1 POP JUMP JUMPDEST DUP1 CALLER PUSH20 0xFFFFFFFFFFFFFFFFFFFFFFFFFFFFFFFFFFFFFFFF AND PUSH1 0x1 PUSH1 0x0 DUP4 DUP2 MSTORE PUSH1 0x20 ADD SWAP1 DUP2 MSTORE PUSH1 0x20 ADD PUSH1 0x0 KECCAK256 PUSH1 0x2 ADD PUSH1 0x0 SWAP1 SLOAD SWAP1 PUSH2 0x100 EXP SWAP1 DIV PUSH20 0xFFFFFFFFFFFFFFFFFFFFFFFFFFFFFFFFFFFFFFFF AND PUSH20 0xFFFFFFFFFFFFFFFFFFFFFFFFFFFFFFFFFFFFFFFF AND EQ PUSH2 0x1AF5 JUMPI PUSH1 0x40 MLOAD PUSH32 0x8C379A000000000000000000000000000000000000000000000000000000000 DUP2 MSTORE PUSH1 0x4 ADD PUSH2 0x1AEC SWAP1 PUSH2 0x2396 JUMP JUMPDEST PUSH1 0x40 MLOAD DUP1 SWAP2 SUB SWAP1 REVERT JUMPDEST PUSH1 0x1 DUP1 PUSH1 0x0 DUP5 DUP2 MSTORE PUSH1 0x20 ADD SWAP1 DUP2 MSTORE PUSH1 0x20 ADD PUSH1 0x0 KECCAK256 PUSH1 0x2 ADD PUSH1 0x14 PUSH2 0x100 EXP DUP2 SLOAD DUP2 PUSH1 0xFF MUL NOT AND SWAP1 DUP4 PUSH1 0x6 DUP2 GT ISZERO PUSH2 0x1B54 JUMPI PUSH32 0x4E487B7100000000000000000000000000000000000000000000000000000000 PUSH1 0x0 MSTORE PUSH1 0x21 PUSH1 0x4 MSTORE PUSH1 0x24 PUSH1 0x0 REVERT JUMPDEST MUL OR SWAP1 SSTORE POP PUSH32 0x15F51416BF6F180A7F06AB542B87DACC1363E503B8DF75D711F9AAEDC5C48A70 DUP3 PUSH1 0x40 MLOAD PUSH2 0x1B88 SWAP2 SWAP1 PUSH2 0x23FA JUMP JUMPDEST PUSH1 0x40 MLOAD DUP1 SWAP2 SUB SWAP1 LOG1 POP POP JUMP JUMPDEST PUSH1 0x40 MLOAD DUP1 PUSH1 0xA0 ADD PUSH1 0x40 MSTORE DUP1 PUSH1 0x60 DUP2 MSTORE PUSH1 0x20 ADD PUSH1 0x0 DUP2 MSTORE PUSH1 0x20 ADD PUSH1 0x0 PUSH1 0x3 DUP2 GT ISZERO PUSH2 0x1BE7 JUMPI PUSH32 0x4E487B7100000000000000000000000000000000000000000000000000000000 PUSH1 0x0 MSTORE PUSH1 0x21 PUSH1 0x4 MSTORE PUSH1 0x24 PUSH1 0x0 REVERT JUMPDEST DUP2 MSTORE PUSH1 0x20 ADD PUSH1 0x0 PUSH20 0xFFFFFFFFFFFFFFFFFFFFFFFFFFFFFFFFFFFFFFFF AND DUP2 MSTORE PUSH1 0x20 ADD PUSH1 0x0 DUP2 MSTORE POP SWAP1 JUMP JUMPDEST DUP3 DUP1 SLOAD PUSH2 0x1C1D SWAP1 PUSH2 0x25F6 JUMP JUMPDEST SWAP1 PUSH1 0x0 MSTORE PUSH1 0x20 PUSH1 0x0 KECCAK256 SWAP1 PUSH1 0x1F ADD PUSH1 0x20 SWAP1 DIV DUP2 ADD SWAP3 DUP3 PUSH2 0x1C3F JUMPI PUSH1 0x0 DUP6 SSTORE PUSH2 0x1C86 JUMP JUMPDEST DUP3 PUSH1 0x1F LT PUSH2 0x1C58 JUMPI DUP1 MLOAD PUSH1 0xFF NOT AND DUP4 DUP1 ADD OR DUP6 SSTORE PUSH2 0x1C86 JUMP JUMPDEST DUP3 DUP1 ADD PUSH1 0x1 ADD DUP6 SSTORE DUP3 ISZERO PUSH2 0x1C86 JUMPI SWAP2 DUP3 ADD JUMPDEST DUP3 DUP2 GT ISZERO PUSH2 0x1C85 JUMPI DUP3 MLOAD DUP3 SSTORE SWAP2 PUSH1 0x20 ADD SWAP2 SWAP1 PUSH1 0x1 ADD SWAP1 PUSH2 0x1C6A JUMP JUMPDEST JUMPDEST POP SWAP1 POP PUSH2 0x1C93 SWAP2 SWAP1 PUSH2 0x1D90 JUMP JUMPDEST POP SWAP1 JUMP JUMPDEST PUSH1 0x40 MLOAD DUP1 PUSH1 0x80 ADD PUSH1 0x40 MSTORE DUP1 PUSH1 0x0 DUP2 MSTORE PUSH1 0x20 ADD PUSH2 0x1CB1 PUSH2 0x1D13 JUMP JUMPDEST DUP2 MSTORE PUSH1 0x20 ADD PUSH1 0x0 PUSH20 0xFFFFFFFFFFFFFFFFFFFFFFFFFFFFFFFFFFFFFFFF AND DUP2 MSTORE PUSH1 0x20 ADD PUSH1 0x0 PUSH1 0x2 DUP2 GT ISZERO PUSH2 0x1D0D JUMPI PUSH32 0x4E487B7100000000000000000000000000000000000000000000000000000000 PUSH1 0x0 MSTORE PUSH1 0x21 PUSH1 0x4 MSTORE PUSH1 0x24 PUSH1 0x0 REVERT JUMPDEST DUP2 MSTORE POP SWAP1 JUMP JUMPDEST PUSH1 0x40 MLOAD DUP1 PUSH1 0xA0 ADD PUSH1 0x40 MSTORE DUP1 PUSH1 0x60 DUP2 MSTORE PUSH1 0x20 ADD PUSH1 0x0 DUP2 MSTORE PUSH1 0x20 ADD PUSH1 0x0 PUSH20 0xFFFFFFFFFFFFFFFFFFFFFFFFFFFFFFFFFFFFFFFF AND DUP2 MSTORE PUSH1 0x20 ADD PUSH1 0x0 PUSH1 0x6 DUP2 GT ISZERO PUSH2 0x1D83 JUMPI PUSH32 0x4E487B7100000000000000000000000000000000000000000000000000000000 PUSH1 0x0 MSTORE PUSH1 0x21 PUSH1 0x4 MSTORE PUSH1 0x24 PUSH1 0x0 REVERT JUMPDEST DUP2 MSTORE PUSH1 0x20 ADD PUSH1 0x0 DUP2 MSTORE POP SWAP1 JUMP JUMPDEST JUMPDEST DUP1 DUP3 GT ISZERO PUSH2 0x1DA9 JUMPI PUSH1 0x0 DUP2 PUSH1 0x0 SWAP1 SSTORE POP PUSH1 0x1 ADD PUSH2 0x1D91 JUMP JUMPDEST POP SWAP1 JUMP JUMPDEST PUSH1 0x0 PUSH2 0x1DC0 PUSH2 0x1DBB DUP5 PUSH2 0x246F JUMP JUMPDEST PUSH2 0x243E JUMP JUMPDEST SWAP1 POP DUP3 DUP2 MSTORE PUSH1 0x20 DUP2 ADD DUP5 DUP5 DUP5 ADD GT ISZERO PUSH2 0x1DD8 JUMPI PUSH1 0x0 DUP1 REVERT JUMPDEST PUSH2 0x1DE3 DUP5 DUP3 DUP6 PUSH2 0x25B4 JUMP JUMPDEST POP SWAP4 SWAP3 POP POP POP JUMP JUMPDEST PUSH1 0x0 DUP2 CALLDATALOAD SWAP1 POP PUSH2 0x1DFA DUP2 PUSH2 0x271D JUMP JUMPDEST SWAP3 SWAP2 POP POP JUMP JUMPDEST PUSH1 0x0 DUP2 CALLDATALOAD SWAP1 POP PUSH2 0x1E0F DUP2 PUSH2 0x2734 JUMP JUMPDEST SWAP3 SWAP2 POP POP JUMP JUMPDEST PUSH1 0x0 DUP3 PUSH1 0x1F DUP4 ADD SLT PUSH2 0x1E26 JUMPI PUSH1 0x0 DUP1 REVERT JUMPDEST DUP2 CALLDATALOAD PUSH2 0x1E36 DUP5 DUP3 PUSH1 0x20 DUP7 ADD PUSH2 0x1DAD JUMP JUMPDEST SWAP2 POP POP SWAP3 SWAP2 POP POP JUMP JUMPDEST PUSH1 0x0 DUP2 CALLDATALOAD SWAP1 POP PUSH2 0x1E4E DUP2 PUSH2 0x274B JUMP JUMPDEST SWAP3 SWAP2 POP POP JUMP JUMPDEST PUSH1 0x0 PUSH1 0x20 DUP3 DUP5 SUB SLT ISZERO PUSH2 0x1E66 JUMPI PUSH1 0x0 DUP1 REVERT JUMPDEST PUSH1 0x0 DUP3 ADD CALLDATALOAD PUSH8 0xFFFFFFFFFFFFFFFF DUP2 GT ISZERO PUSH2 0x1E80 JUMPI PUSH1 0x0 DUP1 REVERT JUMPDEST PUSH2 0x1E8C DUP5 DUP3 DUP6 ADD PUSH2 0x1E15 JUMP JUMPDEST SWAP2 POP POP SWAP3 SWAP2 POP POP JUMP JUMPDEST PUSH1 0x0 DUP1 PUSH1 0x40 DUP4 DUP6 SUB SLT ISZERO PUSH2 0x1EA8 JUMPI PUSH1 0x0 DUP1 REVERT JUMPDEST PUSH1 0x0 DUP4 ADD CALLDATALOAD PUSH8 0xFFFFFFFFFFFFFFFF DUP2 GT ISZERO PUSH2 0x1EC2 JUMPI PUSH1 0x0 DUP1 REVERT JUMPDEST PUSH2 0x1ECE DUP6 DUP3 DUP7 ADD PUSH2 0x1E15 JUMP JUMPDEST SWAP3 POP POP PUSH1 0x20 PUSH2 0x1EDF DUP6 DUP3 DUP7 ADD PUSH2 0x1E3F JUMP JUMPDEST SWAP2 POP POP SWAP3 POP SWAP3 SWAP1 POP JUMP JUMPDEST PUSH1 0x0 PUSH1 0x20 DUP3 DUP5 SUB SLT ISZERO PUSH2 0x1EFB JUMPI PUSH1 0x0 DUP1 REVERT JUMPDEST PUSH1 0x0 PUSH2 0x1F09 DUP5 DUP3 DUP6 ADD PUSH2 0x1E3F JUMP JUMPDEST SWAP2 POP POP SWAP3 SWAP2 POP POP JUMP JUMPDEST PUSH1 0x0 DUP1 PUSH1 0x40 DUP4 DUP6 SUB SLT ISZERO PUSH2 0x1F25 JUMPI PUSH1 0x0 DUP1 REVERT JUMPDEST PUSH1 0x0 PUSH2 0x1F33 DUP6 DUP3 DUP7 ADD PUSH2 0x1E3F JUMP JUMPDEST SWAP3 POP POP PUSH1 0x20 PUSH2 0x1F44 DUP6 DUP3 DUP7 ADD PUSH2 0x1DEB JUMP JUMPDEST SWAP2 POP POP SWAP3 POP SWAP3 SWAP1 POP JUMP JUMPDEST PUSH1 0x0 DUP1 PUSH1 0x40 DUP4 DUP6 SUB SLT ISZERO PUSH2 0x1F61 JUMPI PUSH1 0x0 DUP1 REVERT JUMPDEST PUSH1 0x0 PUSH2 0x1F6F DUP6 DUP3 DUP7 ADD PUSH2 0x1E3F JUMP JUMPDEST SWAP3 POP POP PUSH1 0x20 PUSH2 0x1F80 DUP6 DUP3 DUP7 ADD PUSH2 0x1E00 JUMP JUMPDEST SWAP2 POP POP SWAP3 POP SWAP3 SWAP1 POP JUMP JUMPDEST PUSH2 0x1F93 DUP2 PUSH2 0x2522 JUMP JUMPDEST DUP3 MSTORE POP POP JUMP JUMPDEST PUSH2 0x1FA2 DUP2 PUSH2 0x2522 JUMP JUMPDEST DUP3 MSTORE POP POP JUMP JUMPDEST PUSH2 0x1FB1 DUP2 PUSH2 0x2590 JUMP JUMPDEST DUP3 MSTORE POP POP JUMP JUMPDEST PUSH2 0x1FC0 DUP2 PUSH2 0x2590 JUMP JUMPDEST DUP3 MSTORE POP POP JUMP JUMPDEST PUSH2 0x1FCF DUP2 PUSH2 0x25A2 JUMP JUMPDEST DUP3 MSTORE POP POP JUMP JUMPDEST PUSH2 0x1FDE DUP2 PUSH2 0x25A2 JUMP JUMPDEST DUP3 MSTORE POP POP JUMP JUMPDEST PUSH1 0x0 PUSH2 0x1FEF DUP3 PUSH2 0x249F JUMP JUMPDEST PUSH2 0x1FF9 DUP2 DUP6 PUSH2 0x24AA JUMP JUMPDEST SWAP4 POP PUSH2 0x2009 DUP2 DUP6 PUSH1 0x20 DUP7 ADD PUSH2 0x25C3 JUMP JUMPDEST PUSH2 0x2012 DUP2 PUSH2 0x26E4 JUMP JUMPDEST DUP5 ADD SWAP2 POP POP SWAP3 SWAP2 POP POP JUMP JUMPDEST PUSH1 0x0 PUSH2 0x2028 DUP3 PUSH2 0x249F JUMP JUMPDEST PUSH2 0x2032 DUP2 DUP6 PUSH2 0x24BB JUMP JUMPDEST SWAP4 POP PUSH2 0x2042 DUP2 DUP6 PUSH1 0x20 DUP7 ADD PUSH2 0x25C3 JUMP JUMPDEST PUSH2 0x204B DUP2 PUSH2 0x26E4 JUMP JUMPDEST DUP5 ADD SWAP2 POP POP SWAP3 SWAP2 POP POP JUMP JUMPDEST PUSH1 0x0 PUSH2 0x2063 PUSH1 0x1A DUP4 PUSH2 0x24BB JUMP JUMPDEST SWAP2 POP PUSH32 0x796F752063616E6E6F7420616464206E65772070726F64756374000000000000 PUSH1 0x0 DUP4 ADD MSTORE PUSH1 0x20 DUP3 ADD SWAP1 POP SWAP2 SWAP1 POP JUMP JUMPDEST PUSH1 0x0 PUSH2 0x20A3 PUSH1 0x2D DUP4 PUSH2 0x24BB JUMP JUMPDEST SWAP2 POP PUSH32 0x796F7520646F6E74206861766520656E6F756768206D6F6E657920746F206275 PUSH1 0x0 DUP4 ADD MSTORE PUSH32 0x79207468652070726F6475637400000000000000000000000000000000000000 PUSH1 0x20 DUP4 ADD MSTORE PUSH1 0x40 DUP3 ADD SWAP1 POP SWAP2 SWAP1 POP JUMP JUMPDEST PUSH1 0x0 PUSH2 0x2109 PUSH1 0x21 DUP4 PUSH2 0x24BB JUMP JUMPDEST SWAP2 POP PUSH32 0x796F7520617265206E6F74206F776E6572206F6620746869732070726F647563 PUSH1 0x0 DUP4 ADD MSTORE PUSH32 0x7400000000000000000000000000000000000000000000000000000000000000 PUSH1 0x20 DUP4 ADD MSTORE PUSH1 0x40 DUP3 ADD SWAP1 POP SWAP2 SWAP1 POP JUMP JUMPDEST PUSH1 0x0 PUSH1 0xA0 DUP4 ADD PUSH1 0x0 DUP4 ADD MLOAD DUP5 DUP3 SUB PUSH1 0x0 DUP7 ADD MSTORE PUSH2 0x217F DUP3 DUP3 PUSH2 0x1FE4 JUMP JUMPDEST SWAP2 POP POP PUSH1 0x20 DUP4 ADD MLOAD PUSH2 0x2194 PUSH1 0x20 DUP7 ADD DUP3 PUSH2 0x224E JUMP JUMPDEST POP PUSH1 0x40 DUP4 ADD MLOAD PUSH2 0x21A7 PUSH1 0x40 DUP7 ADD DUP3 PUSH2 0x1F8A JUMP JUMPDEST POP PUSH1 0x60 DUP4 ADD MLOAD PUSH2 0x21BA PUSH1 0x60 DUP7 ADD DUP3 PUSH2 0x1FA8 JUMP JUMPDEST POP PUSH1 0x80 DUP4 ADD MLOAD PUSH2 0x21CD PUSH1 0x80 DUP7 ADD DUP3 PUSH2 0x224E JUMP JUMPDEST POP DUP1 SWAP2 POP POP SWAP3 SWAP2 POP POP JUMP JUMPDEST PUSH1 0x0 PUSH1 0xA0 DUP4 ADD PUSH1 0x0 DUP4 ADD MLOAD DUP5 DUP3 SUB PUSH1 0x0 DUP7 ADD MSTORE PUSH2 0x21F5 DUP3 DUP3 PUSH2 0x1FE4 JUMP JUMPDEST SWAP2 POP POP PUSH1 0x20 DUP4 ADD MLOAD PUSH2 0x220A PUSH1 0x20 DUP7 ADD DUP3 PUSH2 0x224E JUMP JUMPDEST POP PUSH1 0x40 DUP4 ADD MLOAD PUSH2 0x221D PUSH1 0x40 DUP7 ADD DUP3 PUSH2 0x1FC6 JUMP JUMPDEST POP PUSH1 0x60 DUP4 ADD MLOAD PUSH2 0x2230 PUSH1 0x60 DUP7 ADD DUP3 PUSH2 0x1F8A JUMP JUMPDEST POP PUSH1 0x80 DUP4 ADD MLOAD PUSH2 0x2243 PUSH1 0x80 DUP7 ADD DUP3 PUSH2 0x224E JUMP JUMPDEST POP DUP1 SWAP2 POP POP SWAP3 SWAP2 POP POP JUMP JUMPDEST PUSH2 0x2257 DUP2 PUSH2 0x2586 JUMP JUMPDEST DUP3 MSTORE POP POP JUMP JUMPDEST PUSH2 0x2266 DUP2 PUSH2 0x2586 JUMP JUMPDEST DUP3 MSTORE POP POP JUMP JUMPDEST PUSH1 0x0 PUSH1 0x20 DUP3 ADD SWAP1 POP PUSH2 0x2281 PUSH1 0x0 DUP4 ADD DUP5 PUSH2 0x1F99 JUMP JUMPDEST SWAP3 SWAP2 POP POP JUMP JUMPDEST PUSH1 0x0 PUSH1 0x20 DUP3 ADD SWAP1 POP PUSH2 0x229C PUSH1 0x0 DUP4 ADD DUP5 PUSH2 0x1FB7 JUMP JUMPDEST SWAP3 SWAP2 POP POP JUMP JUMPDEST PUSH1 0x0 PUSH1 0xA0 DUP3 ADD SWAP1 POP DUP2 DUP2 SUB PUSH1 0x0 DUP4 ADD MSTORE PUSH2 0x22BC DUP2 DUP9 PUSH2 0x201D JUMP JUMPDEST SWAP1 POP PUSH2 0x22CB PUSH1 0x20 DUP4 ADD DUP8 PUSH2 0x225D JUMP JUMPDEST PUSH2 0x22D8 PUSH1 0x40 DUP4 ADD DUP7 PUSH2 0x1F99 JUMP JUMPDEST PUSH2 0x22E5 PUSH1 0x60 DUP4 ADD DUP6 PUSH2 0x1FB7 JUMP JUMPDEST PUSH2 0x22F2 PUSH1 0x80 DUP4 ADD DUP5 PUSH2 0x225D JUMP JUMPDEST SWAP7 SWAP6 POP POP POP POP POP POP JUMP JUMPDEST PUSH1 0x0 PUSH1 0xA0 DUP3 ADD SWAP1 POP DUP2 DUP2 SUB PUSH1 0x0 DUP4 ADD MSTORE PUSH2 0x2316 DUP2 DUP9 PUSH2 0x201D JUMP JUMPDEST SWAP1 POP PUSH2 0x2325 PUSH1 0x20 DUP4 ADD DUP8 PUSH2 0x225D JUMP JUMPDEST PUSH2 0x2332 PUSH1 0x40 DUP4 ADD DUP7 PUSH2 0x1FD5 JUMP JUMPDEST PUSH2 0x233F PUSH1 0x60 DUP4 ADD DUP6 PUSH2 0x1F99 JUMP JUMPDEST PUSH2 0x234C PUSH1 0x80 DUP4 ADD DUP5 PUSH2 0x225D JUMP JUMPDEST SWAP7 SWAP6 POP POP POP POP POP POP JUMP JUMPDEST PUSH1 0x0 PUSH1 0x20 DUP3 ADD SWAP1 POP DUP2 DUP2 SUB PUSH1 0x0 DUP4 ADD MSTORE PUSH2 0x236F DUP2 PUSH2 0x2056 JUMP JUMPDEST SWAP1 POP SWAP2 SWAP1 POP JUMP JUMPDEST PUSH1 0x0 PUSH1 0x20 DUP3 ADD SWAP1 POP DUP2 DUP2 SUB PUSH1 0x0 DUP4 ADD MSTORE PUSH2 0x238F DUP2 PUSH2 0x2096 JUMP JUMPDEST SWAP1 POP SWAP2 SWAP1 POP JUMP JUMPDEST PUSH1 0x0 PUSH1 0x20 DUP3 ADD SWAP1 POP DUP2 DUP2 SUB PUSH1 0x0 DUP4 ADD MSTORE PUSH2 0x23AF DUP2 PUSH2 0x20FC JUMP JUMPDEST SWAP1 POP SWAP2 SWAP1 POP JUMP JUMPDEST PUSH1 0x0 PUSH1 0x20 DUP3 ADD SWAP1 POP DUP2 DUP2 SUB PUSH1 0x0 DUP4 ADD MSTORE PUSH2 0x23D0 DUP2 DUP5 PUSH2 0x2162 JUMP JUMPDEST SWAP1 POP SWAP3 SWAP2 POP POP JUMP JUMPDEST PUSH1 0x0 PUSH1 0x20 DUP3 ADD SWAP1 POP DUP2 DUP2 SUB PUSH1 0x0 DUP4 ADD MSTORE PUSH2 0x23F2 DUP2 DUP5 PUSH2 0x21D8 JUMP JUMPDEST SWAP1 POP SWAP3 SWAP2 POP POP JUMP JUMPDEST PUSH1 0x0 PUSH1 0x20 DUP3 ADD SWAP1 POP PUSH2 0x240F PUSH1 0x0 DUP4 ADD DUP5 PUSH2 0x225D JUMP JUMPDEST SWAP3 SWAP2 POP POP JUMP JUMPDEST PUSH1 0x0 PUSH1 0x40 DUP3 ADD SWAP1 POP PUSH2 0x242A PUSH1 0x0 DUP4 ADD DUP6 PUSH2 0x225D JUMP JUMPDEST PUSH2 0x2437 PUSH1 0x20 DUP4 ADD DUP5 PUSH2 0x1F99 JUMP JUMPDEST SWAP4 SWAP3 POP POP POP JUMP JUMPDEST PUSH1 0x0 PUSH1 0x40 MLOAD SWAP1 POP DUP2 DUP2 ADD DUP2 DUP2 LT PUSH8 0xFFFFFFFFFFFFFFFF DUP3 GT OR ISZERO PUSH2 0x2465 JUMPI PUSH2 0x2464 PUSH2 0x26B5 JUMP JUMPDEST JUMPDEST DUP1 PUSH1 0x40 MSTORE POP SWAP2 SWAP1 POP JUMP JUMPDEST PUSH1 0x0 PUSH8 0xFFFFFFFFFFFFFFFF DUP3 GT ISZERO PUSH2 0x248A JUMPI PUSH2 0x2489 PUSH2 0x26B5 JUMP JUMPDEST JUMPDEST PUSH1 0x1F NOT PUSH1 0x1F DUP4 ADD AND SWAP1 POP PUSH1 0x20 DUP2 ADD SWAP1 POP SWAP2 SWAP1 POP JUMP JUMPDEST PUSH1 0x0 DUP2 MLOAD SWAP1 POP SWAP2 SWAP1 POP JUMP JUMPDEST PUSH1 0x0 DUP3 DUP3 MSTORE PUSH1 0x20 DUP3 ADD SWAP1 POP SWAP3 SWAP2 POP POP JUMP JUMPDEST PUSH1 0x0 DUP3 DUP3 MSTORE PUSH1 0x20 DUP3 ADD SWAP1 POP SWAP3 SWAP2 POP POP JUMP JUMPDEST PUSH1 0x0 PUSH2 0x24D7 DUP3 PUSH2 0x2586 JUMP JUMPDEST SWAP2 POP PUSH2 0x24E2 DUP4 PUSH2 0x2586 JUMP JUMPDEST SWAP3 POP DUP3 PUSH32 0xFFFFFFFFFFFFFFFFFFFFFFFFFFFFFFFFFFFFFFFFFFFFFFFFFFFFFFFFFFFFFFFF SUB DUP3 GT ISZERO PUSH2 0x2517 JUMPI PUSH2 0x2516 PUSH2 0x2628 JUMP JUMPDEST JUMPDEST DUP3 DUP3 ADD SWAP1 POP SWAP3 SWAP2 POP POP JUMP JUMPDEST PUSH1 0x0 PUSH2 0x252D DUP3 PUSH2 0x2566 JUMP JUMPDEST SWAP1 POP SWAP2 SWAP1 POP JUMP JUMPDEST PUSH1 0x0 DUP2 ISZERO ISZERO SWAP1 POP SWAP2 SWAP1 POP JUMP JUMPDEST PUSH1 0x0 DUP2 SWAP1 POP PUSH2 0x254E DUP3 PUSH2 0x26F5 JUMP JUMPDEST SWAP2 SWAP1 POP JUMP JUMPDEST PUSH1 0x0 DUP2 SWAP1 POP PUSH2 0x2561 DUP3 PUSH2 0x2709 JUMP JUMPDEST SWAP2 SWAP1 POP JUMP JUMPDEST PUSH1 0x0 PUSH20 0xFFFFFFFFFFFFFFFFFFFFFFFFFFFFFFFFFFFFFFFF DUP3 AND SWAP1 POP SWAP2 SWAP1 POP JUMP JUMPDEST PUSH1 0x0 DUP2 SWAP1 POP SWAP2 SWAP1 POP JUMP JUMPDEST PUSH1 0x0 PUSH2 0x259B DUP3 PUSH2 0x2540 JUMP JUMPDEST SWAP1 POP SWAP2 SWAP1 POP JUMP JUMPDEST PUSH1 0x0 PUSH2 0x25AD DUP3 PUSH2 0x2553 JUMP JUMPDEST SWAP1 POP SWAP2 SWAP1 POP JUMP JUMPDEST DUP3 DUP2 DUP4 CALLDATACOPY PUSH1 0x0 DUP4 DUP4 ADD MSTORE POP POP POP JUMP JUMPDEST PUSH1 0x0 JUMPDEST DUP4 DUP2 LT ISZERO PUSH2 0x25E1 JUMPI DUP1 DUP3 ADD MLOAD DUP2 DUP5 ADD MSTORE PUSH1 0x20 DUP2 ADD SWAP1 POP PUSH2 0x25C6 JUMP JUMPDEST DUP4 DUP2 GT ISZERO PUSH2 0x25F0 JUMPI PUSH1 0x0 DUP5 DUP5 ADD MSTORE JUMPDEST POP POP POP POP JUMP JUMPDEST PUSH1 0x0 PUSH1 0x2 DUP3 DIV SWAP1 POP PUSH1 0x1 DUP3 AND DUP1 PUSH2 0x260E JUMPI PUSH1 0x7F DUP3 AND SWAP2 POP JUMPDEST PUSH1 0x20 DUP3 LT DUP2 EQ ISZERO PUSH2 0x2622 JUMPI PUSH2 0x2621 PUSH2 0x2686 JUMP JUMPDEST JUMPDEST POP SWAP2 SWAP1 POP JUMP JUMPDEST PUSH32 0x4E487B7100000000000000000000000000000000000000000000000000000000 PUSH1 0x0 MSTORE PUSH1 0x11 PUSH1 0x4 MSTORE PUSH1 0x24 PUSH1 0x0 REVERT JUMPDEST PUSH32 0x4E487B7100000000000000000000000000000000000000000000000000000000 PUSH1 0x0 MSTORE PUSH1 0x21 PUSH1 0x4 MSTORE PUSH1 0x24 PUSH1 0x0 REVERT JUMPDEST PUSH32 0x4E487B7100000000000000000000000000000000000000000000000000000000 PUSH1 0x0 MSTORE PUSH1 0x22 PUSH1 0x4 MSTORE PUSH1 0x24 PUSH1 0x0 REVERT JUMPDEST PUSH32 0x4E487B7100000000000000000000000000000000000000000000000000000000 PUSH1 0x0 MSTORE PUSH1 0x41 PUSH1 0x4 MSTORE PUSH1 0x24 PUSH1 0x0 REVERT JUMPDEST PUSH1 0x0 PUSH1 0x1F NOT PUSH1 0x1F DUP4 ADD AND SWAP1 POP SWAP2 SWAP1 POP JUMP JUMPDEST PUSH1 0x7 DUP2 LT PUSH2 0x2706 JUMPI PUSH2 0x2705 PUSH2 0x2657 JUMP JUMPDEST JUMPDEST POP JUMP JUMPDEST PUSH1 0x4 DUP2 LT PUSH2 0x271A JUMPI PUSH2 0x2719 PUSH2 0x2657 JUMP JUMPDEST JUMPDEST POP JUMP JUMPDEST PUSH2 0x2726 DUP2 PUSH2 0x2522 JUMP JUMPDEST DUP2 EQ PUSH2 0x2731 JUMPI PUSH1 0x0 DUP1 REVERT JUMPDEST POP JUMP JUMPDEST PUSH2 0x273D DUP2 PUSH2 0x2534 JUMP JUMPDEST DUP2 EQ PUSH2 0x2748 JUMPI PUSH1 0x0 DUP1 REVERT JUMPDEST POP JUMP JUMPDEST PUSH2 0x2754 DUP2 PUSH2 0x2586 JUMP JUMPDEST DUP2 EQ PUSH2 0x275F JUMPI PUSH1 0x0 DUP1 REVERT JUMPDEST POP JUMP INVALID LOG2 PUSH5 0x6970667358 0x22 SLT KECCAK256 0xEF SLOAD 0xF6 0xAD EXTCODECOPY DUP5 BYTE 0xBB REVERT 0xC7 0x21 SWAP5 0xDA 0xB8 CALL DUP7 0xC8 0xDD 0xD4 PUSH18 0x72348C69AF9CE4299638D01664736F6C6343 STOP ADDMOD STOP STOP CALLER "
				},
				"gasEstimates": {
					"creation": {
						"codeDepositCost": "2027200",
						"executionCost": "38033",
						"totalCost": "2065233"
					},
					"external": {
						"Items(uint256)": "infinite",
						"addItem(string,uint256)": "infinite",
						"addManufacturer(string)": "infinite",
						"addSupplier(string)": "infinite",
						"addtransporter(string)": "infinite",
						"avaliableforsale(uint256)": "infinite",
						"currentState(uint256)": "1733",
						"order(uint256)": "infinite",
						"owner()": "1236",
						"participants(uint256)": "infinite",
						"personDetail(uint256)": "infinite",
						"productDetail(uint256)": "infinite",
						"qualityCheck(uint256,bool)": "608",
						"ship_product(uint256,address)": "infinite"
					}
				},
				"methodIdentifiers": {
					"Items(uint256)": "17b47cc4",
					"addItem(string,uint256)": "62d6bbdf",
					"addManufacturer(string)": "8f5ae799",
					"addSupplier(string)": "15533a27",
					"addtransporter(string)": "2fa5ad1a",
					"avaliableforsale(uint256)": "d3de074c",
					"currentState(uint256)": "b57c7609",
					"order(uint256)": "21603f43",
					"owner()": "8da5cb5b",
					"participants(uint256)": "35c1d349",
					"personDetail(uint256)": "54a153e9",
					"productDetail(uint256)": "42f35885",
					"qualityCheck(uint256,bool)": "47e86516",
					"ship_product(uint256,address)": "43c4c53e"
				}
			},
			"userdoc": {
				"kind": "user",
				"methods": {},
				"version": 1
			}
		}
	}
}