{
	"contracts/order.sol": {
		"order": {
			"abi": [
				{
					"inputs": [
						{
							"internalType": "uint256",
							"name": "",
							"type": "uint256"
						}
					],
					"name": "Items",
					"outputs": [
						{
							"internalType": "string",
							"name": "product_name",
							"type": "string"
						},
						{
							"internalType": "uint256",
							"name": "productId",
							"type": "uint256"
						},
						{
							"internalType": "address",
							"name": "itemOwner",
							"type": "address"
						},
						{
							"internalType": "enum Item.state",
							"name": "productState",
							"type": "uint8"
						},
						{
							"internalType": "uint256",
							"name": "cost",
							"type": "uint256"
						}
					],
					"stateMutability": "view",
					"type": "function"
				},
				{
					"inputs": [
						{
							"internalType": "uint256",
							"name": "",
							"type": "uint256"
						}
					],
					"name": "participants",
					"outputs": [
						{
							"internalType": "string",
							"name": "username",
							"type": "string"
						},
						{
							"internalType": "uint256",
							"name": "userId",
							"type": "uint256"
						},
						{
							"internalType": "enum participant.user_type",
							"name": "utype",
							"type": "uint8"
						},
						{
							"internalType": "address",
							"name": "user_address",
							"type": "address"
						},
						{
							"internalType": "uint256",
							"name": "money",
							"type": "uint256"
						}
					],
					"stateMutability": "view",
					"type": "function"
				}
			],
			"devdoc": {
				"kind": "dev",
				"methods": {},
				"version": 1
			},
			"evm": {
				"assembly": "    /* \"contracts/order.sol\":76:575  contract order is Item,participant{\r... */\n  mstore(0x40, 0x80)\n    /* \"contracts/item.sol\":54:55  0 */\n  0x00\n    /* \"contracts/item.sol\":46:55  uint ic=0 */\n  dup1\n  sstore\n    /* \"contracts/member.sol\":62:63  0 */\n  0x00\n    /* \"contracts/member.sol\":54:63  uint pc=0 */\n  0x02\n  sstore\n    /* \"contracts/order.sol\":126:127  0 */\n  0x00\n    /* \"contracts/order.sol\":117:127  uint on =0 */\n  0x05\n  sstore\n    /* \"contracts/order.sol\":76:575  contract order is Item,participant{\r... */\n  callvalue\n  dup1\n  iszero\n  tag_1\n  jumpi\n  0x00\n  dup1\n  revert\ntag_1:\n  pop\n  dataSize(sub_0)\n  dup1\n  dataOffset(sub_0)\n  0x00\n  codecopy\n  0x00\n  return\nstop\n\nsub_0: assembly {\n        /* \"contracts/order.sol\":76:575  contract order is Item,participant{\r... */\n      mstore(0x40, 0x80)\n      callvalue\n      dup1\n      iszero\n      tag_1\n      jumpi\n      0x00\n      dup1\n      revert\n    tag_1:\n      pop\n      jumpi(tag_2, lt(calldatasize, 0x04))\n      shr(0xe0, calldataload(0x00))\n      dup1\n      0x17b47cc4\n      eq\n      tag_3\n      jumpi\n      dup1\n      0x35c1d349\n      eq\n      tag_4\n      jumpi\n    tag_2:\n      0x00\n      dup1\n      revert\n        /* \"contracts/item.sol\":389:421  mapping(uint=>item) public Items */\n    tag_3:\n      tag_5\n      0x04\n      dup1\n      calldatasize\n      sub\n      dup2\n      add\n      swap1\n      tag_6\n      swap2\n      swap1\n      tag_7\n      jump\t// in\n    tag_6:\n      tag_8\n      jump\t// in\n    tag_5:\n      mload(0x40)\n      tag_9\n      swap6\n      swap5\n      swap4\n      swap3\n      swap2\n      swap1\n      tag_10\n      jump\t// in\n    tag_9:\n      mload(0x40)\n      dup1\n      swap2\n      sub\n      swap1\n      return\n        /* \"contracts/member.sol\":347:393  mapping(uint=>participant) public participants */\n    tag_4:\n      tag_11\n      0x04\n      dup1\n      calldatasize\n      sub\n      dup2\n      add\n      swap1\n      tag_12\n      swap2\n      swap1\n      tag_7\n      jump\t// in\n    tag_12:\n      tag_13\n      jump\t// in\n    tag_11:\n      mload(0x40)\n      tag_14\n      swap6\n      swap5\n      swap4\n      swap3\n      swap2\n      swap1\n      tag_15\n      jump\t// in\n    tag_14:\n      mload(0x40)\n      dup1\n      swap2\n      sub\n      swap1\n      return\n        /* \"contracts/item.sol\":389:421  mapping(uint=>item) public Items */\n    tag_8:\n      mstore(0x20, 0x01)\n      dup1\n      0x00\n      mstore\n      keccak256(0x00, 0x40)\n      0x00\n      swap2\n      pop\n      swap1\n      pop\n      dup1\n      0x00\n      add\n      dup1\n      sload\n      tag_16\n      swap1\n      tag_17\n      jump\t// in\n    tag_16:\n      dup1\n      0x1f\n      add\n      0x20\n      dup1\n      swap2\n      div\n      mul\n      0x20\n      add\n      mload(0x40)\n      swap1\n      dup2\n      add\n      0x40\n      mstore\n      dup1\n      swap3\n      swap2\n      swap1\n      dup2\n      dup2\n      mstore\n      0x20\n      add\n      dup3\n      dup1\n      sload\n      tag_18\n      swap1\n      tag_17\n      jump\t// in\n    tag_18:\n      dup1\n      iszero\n      tag_19\n      jumpi\n      dup1\n      0x1f\n      lt\n      tag_20\n      jumpi\n      0x0100\n      dup1\n      dup4\n      sload\n      div\n      mul\n      dup4\n      mstore\n      swap2\n      0x20\n      add\n      swap2\n      jump(tag_19)\n    tag_20:\n      dup3\n      add\n      swap2\n      swap1\n      0x00\n      mstore\n      keccak256(0x00, 0x20)\n      swap1\n    tag_21:\n      dup2\n      sload\n      dup2\n      mstore\n      swap1\n      0x01\n      add\n      swap1\n      0x20\n      add\n      dup1\n      dup4\n      gt\n      tag_21\n      jumpi\n      dup3\n      swap1\n      sub\n      0x1f\n      and\n      dup3\n      add\n      swap2\n    tag_19:\n      pop\n      pop\n      pop\n      pop\n      pop\n      swap1\n      dup1\n      0x01\n      add\n      sload\n      swap1\n      dup1\n      0x02\n      add\n      0x00\n      swap1\n      sload\n      swap1\n      0x0100\n      exp\n      swap1\n      div\n      0xffffffffffffffffffffffffffffffffffffffff\n      and\n      swap1\n      dup1\n      0x02\n      add\n      0x14\n      swap1\n      sload\n      swap1\n      0x0100\n      exp\n      swap1\n      div\n      0xff\n      and\n      swap1\n      dup1\n      0x03\n      add\n      sload\n      swap1\n      pop\n      dup6\n      jump\t// out\n        /* \"contracts/member.sol\":347:393  mapping(uint=>participant) public participants */\n    tag_13:\n      mstore(0x20, 0x03)\n      dup1\n      0x00\n      mstore\n      keccak256(0x00, 0x40)\n      0x00\n      swap2\n      pop\n      swap1\n      pop\n      dup1\n      0x00\n      add\n      dup1\n      sload\n      tag_22\n      swap1\n      tag_17\n      jump\t// in\n    tag_22:\n      dup1\n      0x1f\n      add\n      0x20\n      dup1\n      swap2\n      div\n      mul\n      0x20\n      add\n      mload(0x40)\n      swap1\n      dup2\n      add\n      0x40\n      mstore\n      dup1\n      swap3\n      swap2\n      swap1\n      dup2\n      dup2\n      mstore\n      0x20\n      add\n      dup3\n      dup1\n      sload\n      tag_23\n      swap1\n      tag_17\n      jump\t// in\n    tag_23:\n      dup1\n      iszero\n      tag_24\n      jumpi\n      dup1\n      0x1f\n      lt\n      tag_25\n      jumpi\n      0x0100\n      dup1\n      dup4\n      sload\n      div\n      mul\n      dup4\n      mstore\n      swap2\n      0x20\n      add\n      swap2\n      jump(tag_24)\n    tag_25:\n      dup3\n      add\n      swap2\n      swap1\n      0x00\n      mstore\n      keccak256(0x00, 0x20)\n      swap1\n    tag_26:\n      dup2\n      sload\n      dup2\n      mstore\n      swap1\n      0x01\n      add\n      swap1\n      0x20\n      add\n      dup1\n      dup4\n      gt\n      tag_26\n      jumpi\n      dup3\n      swap1\n      sub\n      0x1f\n      and\n      dup3\n      add\n      swap2\n    tag_24:\n      pop\n      pop\n      pop\n      pop\n      pop\n      swap1\n      dup1\n      0x01\n      add\n      sload\n      swap1\n      dup1\n      0x02\n      add\n      0x00\n      swap1\n      sload\n      swap1\n      0x0100\n      exp\n      swap1\n      div\n      0xff\n      and\n      swap1\n      dup1\n      0x02\n      add\n      0x01\n      swap1\n      sload\n      swap1\n      0x0100\n      exp\n      swap1\n      div\n      0xffffffffffffffffffffffffffffffffffffffff\n      and\n      swap1\n      dup1\n      0x03\n      add\n      sload\n      swap1\n      pop\n      dup6\n      jump\t// out\n        /* \"#utility.yul\":7:146   */\n    tag_28:\n      0x00\n        /* \"#utility.yul\":91:97   */\n      dup2\n        /* \"#utility.yul\":78:98   */\n      calldataload\n        /* \"#utility.yul\":69:98   */\n      swap1\n      pop\n        /* \"#utility.yul\":107:140   */\n      tag_30\n        /* \"#utility.yul\":134:139   */\n      dup2\n        /* \"#utility.yul\":107:140   */\n      tag_31\n      jump\t// in\n    tag_30:\n        /* \"#utility.yul\":59:146   */\n      swap3\n      swap2\n      pop\n      pop\n      jump\t// out\n        /* \"#utility.yul\":152:414   */\n    tag_7:\n      0x00\n        /* \"#utility.yul\":260:262   */\n      0x20\n        /* \"#utility.yul\":248:257   */\n      dup3\n        /* \"#utility.yul\":239:246   */\n      dup5\n        /* \"#utility.yul\":235:258   */\n      sub\n        /* \"#utility.yul\":231:263   */\n      slt\n        /* \"#utility.yul\":228:230   */\n      iszero\n      tag_33\n      jumpi\n        /* \"#utility.yul\":276:277   */\n      0x00\n        /* \"#utility.yul\":273:274   */\n      dup1\n        /* \"#utility.yul\":266:278   */\n      revert\n        /* \"#utility.yul\":228:230   */\n    tag_33:\n        /* \"#utility.yul\":319:320   */\n      0x00\n        /* \"#utility.yul\":344:397   */\n      tag_34\n        /* \"#utility.yul\":389:396   */\n      dup5\n        /* \"#utility.yul\":380:386   */\n      dup3\n        /* \"#utility.yul\":369:378   */\n      dup6\n        /* \"#utility.yul\":365:387   */\n      add\n        /* \"#utility.yul\":344:397   */\n      tag_28\n      jump\t// in\n    tag_34:\n        /* \"#utility.yul\":334:397   */\n      swap2\n      pop\n        /* \"#utility.yul\":290:407   */\n      pop\n        /* \"#utility.yul\":218:414   */\n      swap3\n      swap2\n      pop\n      pop\n      jump\t// out\n        /* \"#utility.yul\":420:538   */\n    tag_35:\n        /* \"#utility.yul\":507:531   */\n      tag_37\n        /* \"#utility.yul\":525:530   */\n      dup2\n        /* \"#utility.yul\":507:531   */\n      tag_38\n      jump\t// in\n    tag_37:\n        /* \"#utility.yul\":502:505   */\n      dup3\n        /* \"#utility.yul\":495:532   */\n      mstore\n        /* \"#utility.yul\":485:538   */\n      pop\n      pop\n      jump\t// out\n        /* \"#utility.yul\":544:687   */\n    tag_39:\n        /* \"#utility.yul\":637:680   */\n      tag_41\n        /* \"#utility.yul\":674:679   */\n      dup2\n        /* \"#utility.yul\":637:680   */\n      tag_42\n      jump\t// in\n    tag_41:\n        /* \"#utility.yul\":632:635   */\n      dup3\n        /* \"#utility.yul\":625:681   */\n      mstore\n        /* \"#utility.yul\":615:687   */\n      pop\n      pop\n      jump\t// out\n        /* \"#utility.yul\":693:846   */\n    tag_43:\n        /* \"#utility.yul\":791:839   */\n      tag_45\n        /* \"#utility.yul\":833:838   */\n      dup2\n        /* \"#utility.yul\":791:839   */\n      tag_46\n      jump\t// in\n    tag_45:\n        /* \"#utility.yul\":786:789   */\n      dup3\n        /* \"#utility.yul\":779:840   */\n      mstore\n        /* \"#utility.yul\":769:846   */\n      pop\n      pop\n      jump\t// out\n        /* \"#utility.yul\":852:1216   */\n    tag_47:\n      0x00\n        /* \"#utility.yul\":968:1007   */\n      tag_49\n        /* \"#utility.yul\":1001:1006   */\n      dup3\n        /* \"#utility.yul\":968:1007   */\n      tag_50\n      jump\t// in\n    tag_49:\n        /* \"#utility.yul\":1023:1094   */\n      tag_51\n        /* \"#utility.yul\":1087:1093   */\n      dup2\n        /* \"#utility.yul\":1082:1085   */\n      dup6\n        /* \"#utility.yul\":1023:1094   */\n      tag_52\n      jump\t// in\n    tag_51:\n        /* \"#utility.yul\":1016:1094   */\n      swap4\n      pop\n        /* \"#utility.yul\":1103:1155   */\n      tag_53\n        /* \"#utility.yul\":1148:1154   */\n      dup2\n        /* \"#utility.yul\":1143:1146   */\n      dup6\n        /* \"#utility.yul\":1136:1140   */\n      0x20\n        /* \"#utility.yul\":1129:1134   */\n      dup7\n        /* \"#utility.yul\":1125:1141   */\n      add\n        /* \"#utility.yul\":1103:1155   */\n      tag_54\n      jump\t// in\n    tag_53:\n        /* \"#utility.yul\":1180:1209   */\n      tag_55\n        /* \"#utility.yul\":1202:1208   */\n      dup2\n        /* \"#utility.yul\":1180:1209   */\n      tag_56\n      jump\t// in\n    tag_55:\n        /* \"#utility.yul\":1175:1178   */\n      dup5\n        /* \"#utility.yul\":1171:1210   */\n      add\n        /* \"#utility.yul\":1164:1210   */\n      swap2\n      pop\n        /* \"#utility.yul\":944:1216   */\n      pop\n      swap3\n      swap2\n      pop\n      pop\n      jump\t// out\n        /* \"#utility.yul\":1222:1340   */\n    tag_57:\n        /* \"#utility.yul\":1309:1333   */\n      tag_59\n        /* \"#utility.yul\":1327:1332   */\n      dup2\n        /* \"#utility.yul\":1309:1333   */\n      tag_60\n      jump\t// in\n    tag_59:\n        /* \"#utility.yul\":1304:1307   */\n      dup3\n        /* \"#utility.yul\":1297:1334   */\n      mstore\n        /* \"#utility.yul\":1287:1340   */\n      pop\n      pop\n      jump\t// out\n        /* \"#utility.yul\":1346:2113   */\n    tag_10:\n      0x00\n        /* \"#utility.yul\":1615:1618   */\n      0xa0\n        /* \"#utility.yul\":1604:1613   */\n      dup3\n        /* \"#utility.yul\":1600:1619   */\n      add\n        /* \"#utility.yul\":1592:1619   */\n      swap1\n      pop\n        /* \"#utility.yul\":1665:1674   */\n      dup2\n        /* \"#utility.yul\":1659:1663   */\n      dup2\n        /* \"#utility.yul\":1655:1675   */\n      sub\n        /* \"#utility.yul\":1651:1652   */\n      0x00\n        /* \"#utility.yul\":1640:1649   */\n      dup4\n        /* \"#utility.yul\":1636:1653   */\n      add\n        /* \"#utility.yul\":1629:1676   */\n      mstore\n        /* \"#utility.yul\":1693:1771   */\n      tag_62\n        /* \"#utility.yul\":1766:1770   */\n      dup2\n        /* \"#utility.yul\":1757:1763   */\n      dup9\n        /* \"#utility.yul\":1693:1771   */\n      tag_47\n      jump\t// in\n    tag_62:\n        /* \"#utility.yul\":1685:1771   */\n      swap1\n      pop\n        /* \"#utility.yul\":1781:1853   */\n      tag_63\n        /* \"#utility.yul\":1849:1851   */\n      0x20\n        /* \"#utility.yul\":1838:1847   */\n      dup4\n        /* \"#utility.yul\":1834:1852   */\n      add\n        /* \"#utility.yul\":1825:1831   */\n      dup8\n        /* \"#utility.yul\":1781:1853   */\n      tag_57\n      jump\t// in\n    tag_63:\n        /* \"#utility.yul\":1863:1935   */\n      tag_64\n        /* \"#utility.yul\":1931:1933   */\n      0x40\n        /* \"#utility.yul\":1920:1929   */\n      dup4\n        /* \"#utility.yul\":1916:1934   */\n      add\n        /* \"#utility.yul\":1907:1913   */\n      dup7\n        /* \"#utility.yul\":1863:1935   */\n      tag_35\n      jump\t// in\n    tag_64:\n        /* \"#utility.yul\":1945:2023   */\n      tag_65\n        /* \"#utility.yul\":2019:2021   */\n      0x60\n        /* \"#utility.yul\":2008:2017   */\n      dup4\n        /* \"#utility.yul\":2004:2022   */\n      add\n        /* \"#utility.yul\":1995:2001   */\n      dup6\n        /* \"#utility.yul\":1945:2023   */\n      tag_39\n      jump\t// in\n    tag_65:\n        /* \"#utility.yul\":2033:2106   */\n      tag_66\n        /* \"#utility.yul\":2101:2104   */\n      0x80\n        /* \"#utility.yul\":2090:2099   */\n      dup4\n        /* \"#utility.yul\":2086:2105   */\n      add\n        /* \"#utility.yul\":2077:2083   */\n      dup5\n        /* \"#utility.yul\":2033:2106   */\n      tag_57\n      jump\t// in\n    tag_66:\n        /* \"#utility.yul\":1582:2113   */\n      swap7\n      swap6\n      pop\n      pop\n      pop\n      pop\n      pop\n      pop\n      jump\t// out\n        /* \"#utility.yul\":2119:2896   */\n    tag_15:\n      0x00\n        /* \"#utility.yul\":2393:2396   */\n      0xa0\n        /* \"#utility.yul\":2382:2391   */\n      dup3\n        /* \"#utility.yul\":2378:2397   */\n      add\n        /* \"#utility.yul\":2370:2397   */\n      swap1\n      pop\n        /* \"#utility.yul\":2443:2452   */\n      dup2\n        /* \"#utility.yul\":2437:2441   */\n      dup2\n        /* \"#utility.yul\":2433:2453   */\n      sub\n        /* \"#utility.yul\":2429:2430   */\n      0x00\n        /* \"#utility.yul\":2418:2427   */\n      dup4\n        /* \"#utility.yul\":2414:2431   */\n      add\n        /* \"#utility.yul\":2407:2454   */\n      mstore\n        /* \"#utility.yul\":2471:2549   */\n      tag_68\n        /* \"#utility.yul\":2544:2548   */\n      dup2\n        /* \"#utility.yul\":2535:2541   */\n      dup9\n        /* \"#utility.yul\":2471:2549   */\n      tag_47\n      jump\t// in\n    tag_68:\n        /* \"#utility.yul\":2463:2549   */\n      swap1\n      pop\n        /* \"#utility.yul\":2559:2631   */\n      tag_69\n        /* \"#utility.yul\":2627:2629   */\n      0x20\n        /* \"#utility.yul\":2616:2625   */\n      dup4\n        /* \"#utility.yul\":2612:2630   */\n      add\n        /* \"#utility.yul\":2603:2609   */\n      dup8\n        /* \"#utility.yul\":2559:2631   */\n      tag_57\n      jump\t// in\n    tag_69:\n        /* \"#utility.yul\":2641:2724   */\n      tag_70\n        /* \"#utility.yul\":2720:2722   */\n      0x40\n        /* \"#utility.yul\":2709:2718   */\n      dup4\n        /* \"#utility.yul\":2705:2723   */\n      add\n        /* \"#utility.yul\":2696:2702   */\n      dup7\n        /* \"#utility.yul\":2641:2724   */\n      tag_43\n      jump\t// in\n    tag_70:\n        /* \"#utility.yul\":2734:2806   */\n      tag_71\n        /* \"#utility.yul\":2802:2804   */\n      0x60\n        /* \"#utility.yul\":2791:2800   */\n      dup4\n        /* \"#utility.yul\":2787:2805   */\n      add\n        /* \"#utility.yul\":2778:2784   */\n      dup6\n        /* \"#utility.yul\":2734:2806   */\n      tag_35\n      jump\t// in\n    tag_71:\n        /* \"#utility.yul\":2816:2889   */\n      tag_72\n        /* \"#utility.yul\":2884:2887   */\n      0x80\n        /* \"#utility.yul\":2873:2882   */\n      dup4\n        /* \"#utility.yul\":2869:2888   */\n      add\n        /* \"#utility.yul\":2860:2866   */\n      dup5\n        /* \"#utility.yul\":2816:2889   */\n      tag_57\n      jump\t// in\n    tag_72:\n        /* \"#utility.yul\":2360:2896   */\n      swap7\n      swap6\n      pop\n      pop\n      pop\n      pop\n      pop\n      pop\n      jump\t// out\n        /* \"#utility.yul\":2902:3001   */\n    tag_50:\n      0x00\n        /* \"#utility.yul\":2988:2993   */\n      dup2\n        /* \"#utility.yul\":2982:2994   */\n      mload\n        /* \"#utility.yul\":2972:2994   */\n      swap1\n      pop\n        /* \"#utility.yul\":2961:3001   */\n      swap2\n      swap1\n      pop\n      jump\t// out\n        /* \"#utility.yul\":3007:3176   */\n    tag_52:\n      0x00\n        /* \"#utility.yul\":3125:3131   */\n      dup3\n        /* \"#utility.yul\":3120:3123   */\n      dup3\n        /* \"#utility.yul\":3113:3132   */\n      mstore\n        /* \"#utility.yul\":3165:3169   */\n      0x20\n        /* \"#utility.yul\":3160:3163   */\n      dup3\n        /* \"#utility.yul\":3156:3170   */\n      add\n        /* \"#utility.yul\":3141:3170   */\n      swap1\n      pop\n        /* \"#utility.yul\":3103:3176   */\n      swap3\n      swap2\n      pop\n      pop\n      jump\t// out\n        /* \"#utility.yul\":3182:3278   */\n    tag_38:\n      0x00\n        /* \"#utility.yul\":3248:3272   */\n      tag_76\n        /* \"#utility.yul\":3266:3271   */\n      dup3\n        /* \"#utility.yul\":3248:3272   */\n      tag_77\n      jump\t// in\n    tag_76:\n        /* \"#utility.yul\":3237:3272   */\n      swap1\n      pop\n        /* \"#utility.yul\":3227:3278   */\n      swap2\n      swap1\n      pop\n      jump\t// out\n        /* \"#utility.yul\":3284:3411   */\n    tag_78:\n      0x00\n        /* \"#utility.yul\":3358:3363   */\n      dup2\n        /* \"#utility.yul\":3347:3363   */\n      swap1\n      pop\n        /* \"#utility.yul\":3364:3405   */\n      tag_80\n        /* \"#utility.yul\":3399:3404   */\n      dup3\n        /* \"#utility.yul\":3364:3405   */\n      tag_81\n      jump\t// in\n    tag_80:\n        /* \"#utility.yul\":3337:3411   */\n      swap2\n      swap1\n      pop\n      jump\t// out\n        /* \"#utility.yul\":3417:3554   */\n    tag_82:\n      0x00\n        /* \"#utility.yul\":3496:3501   */\n      dup2\n        /* \"#utility.yul\":3485:3501   */\n      swap1\n      pop\n        /* \"#utility.yul\":3502:3548   */\n      tag_84\n        /* \"#utility.yul\":3542:3547   */\n      dup3\n        /* \"#utility.yul\":3502:3548   */\n      tag_85\n      jump\t// in\n    tag_84:\n        /* \"#utility.yul\":3475:3554   */\n      swap2\n      swap1\n      pop\n      jump\t// out\n        /* \"#utility.yul\":3560:3686   */\n    tag_77:\n      0x00\n        /* \"#utility.yul\":3637:3679   */\n      0xffffffffffffffffffffffffffffffffffffffff\n        /* \"#utility.yul\":3630:3635   */\n      dup3\n        /* \"#utility.yul\":3626:3680   */\n      and\n        /* \"#utility.yul\":3615:3680   */\n      swap1\n      pop\n        /* \"#utility.yul\":3605:3686   */\n      swap2\n      swap1\n      pop\n      jump\t// out\n        /* \"#utility.yul\":3692:3769   */\n    tag_60:\n      0x00\n        /* \"#utility.yul\":3758:3763   */\n      dup2\n        /* \"#utility.yul\":3747:3763   */\n      swap1\n      pop\n        /* \"#utility.yul\":3737:3769   */\n      swap2\n      swap1\n      pop\n      jump\t// out\n        /* \"#utility.yul\":3775:3902   */\n    tag_42:\n      0x00\n        /* \"#utility.yul\":3864:3896   */\n      tag_89\n        /* \"#utility.yul\":3890:3895   */\n      dup3\n        /* \"#utility.yul\":3864:3896   */\n      tag_78\n      jump\t// in\n    tag_89:\n        /* \"#utility.yul\":3851:3896   */\n      swap1\n      pop\n        /* \"#utility.yul\":3841:3902   */\n      swap2\n      swap1\n      pop\n      jump\t// out\n        /* \"#utility.yul\":3908:4045   */\n    tag_46:\n      0x00\n        /* \"#utility.yul\":4002:4039   */\n      tag_91\n        /* \"#utility.yul\":4033:4038   */\n      dup3\n        /* \"#utility.yul\":4002:4039   */\n      tag_82\n      jump\t// in\n    tag_91:\n        /* \"#utility.yul\":3989:4039   */\n      swap1\n      pop\n        /* \"#utility.yul\":3979:4045   */\n      swap2\n      swap1\n      pop\n      jump\t// out\n        /* \"#utility.yul\":4051:4358   */\n    tag_54:\n        /* \"#utility.yul\":4119:4120   */\n      0x00\n        /* \"#utility.yul\":4129:4242   */\n    tag_93:\n        /* \"#utility.yul\":4143:4149   */\n      dup4\n        /* \"#utility.yul\":4140:4141   */\n      dup2\n        /* \"#utility.yul\":4137:4150   */\n      lt\n        /* \"#utility.yul\":4129:4242   */\n      iszero\n      tag_95\n      jumpi\n        /* \"#utility.yul\":4228:4229   */\n      dup1\n        /* \"#utility.yul\":4223:4226   */\n      dup3\n        /* \"#utility.yul\":4219:4230   */\n      add\n        /* \"#utility.yul\":4213:4231   */\n      mload\n        /* \"#utility.yul\":4209:4210   */\n      dup2\n        /* \"#utility.yul\":4204:4207   */\n      dup5\n        /* \"#utility.yul\":4200:4211   */\n      add\n        /* \"#utility.yul\":4193:4232   */\n      mstore\n        /* \"#utility.yul\":4165:4167   */\n      0x20\n        /* \"#utility.yul\":4162:4163   */\n      dup2\n        /* \"#utility.yul\":4158:4168   */\n      add\n        /* \"#utility.yul\":4153:4168   */\n      swap1\n      pop\n        /* \"#utility.yul\":4129:4242   */\n      jump(tag_93)\n    tag_95:\n        /* \"#utility.yul\":4260:4266   */\n      dup4\n        /* \"#utility.yul\":4257:4258   */\n      dup2\n        /* \"#utility.yul\":4254:4267   */\n      gt\n        /* \"#utility.yul\":4251:4253   */\n      iszero\n      tag_96\n      jumpi\n        /* \"#utility.yul\":4340:4341   */\n      0x00\n        /* \"#utility.yul\":4331:4337   */\n      dup5\n        /* \"#utility.yul\":4326:4329   */\n      dup5\n        /* \"#utility.yul\":4322:4338   */\n      add\n        /* \"#utility.yul\":4315:4342   */\n      mstore\n        /* \"#utility.yul\":4251:4253   */\n    tag_96:\n        /* \"#utility.yul\":4100:4358   */\n      pop\n      pop\n      pop\n      pop\n      jump\t// out\n        /* \"#utility.yul\":4364:4684   */\n    tag_17:\n      0x00\n        /* \"#utility.yul\":4445:4446   */\n      0x02\n        /* \"#utility.yul\":4439:4443   */\n      dup3\n        /* \"#utility.yul\":4435:4447   */\n      div\n        /* \"#utility.yul\":4425:4447   */\n      swap1\n      pop\n        /* \"#utility.yul\":4492:4493   */\n      0x01\n        /* \"#utility.yul\":4486:4490   */\n      dup3\n        /* \"#utility.yul\":4482:4494   */\n      and\n        /* \"#utility.yul\":4513:4531   */\n      dup1\n        /* \"#utility.yul\":4503:4505   */\n      tag_98\n      jumpi\n        /* \"#utility.yul\":4569:4573   */\n      0x7f\n        /* \"#utility.yul\":4561:4567   */\n      dup3\n        /* \"#utility.yul\":4557:4574   */\n      and\n        /* \"#utility.yul\":4547:4574   */\n      swap2\n      pop\n        /* \"#utility.yul\":4503:4505   */\n    tag_98:\n        /* \"#utility.yul\":4631:4633   */\n      0x20\n        /* \"#utility.yul\":4623:4629   */\n      dup3\n        /* \"#utility.yul\":4620:4634   */\n      lt\n        /* \"#utility.yul\":4600:4618   */\n      dup2\n        /* \"#utility.yul\":4597:4635   */\n      eq\n        /* \"#utility.yul\":4594:4596   */\n      iszero\n      tag_99\n      jumpi\n        /* \"#utility.yul\":4650:4668   */\n      tag_100\n      tag_101\n      jump\t// in\n    tag_100:\n        /* \"#utility.yul\":4594:4596   */\n    tag_99:\n        /* \"#utility.yul\":4415:4684   */\n      pop\n      swap2\n      swap1\n      pop\n      jump\t// out\n        /* \"#utility.yul\":4690:4870   */\n    tag_102:\n        /* \"#utility.yul\":4738:4815   */\n      0x4e487b7100000000000000000000000000000000000000000000000000000000\n        /* \"#utility.yul\":4735:4736   */\n      0x00\n        /* \"#utility.yul\":4728:4816   */\n      mstore\n        /* \"#utility.yul\":4835:4839   */\n      0x21\n        /* \"#utility.yul\":4832:4833   */\n      0x04\n        /* \"#utility.yul\":4825:4840   */\n      mstore\n        /* \"#utility.yul\":4859:4863   */\n      0x24\n        /* \"#utility.yul\":4856:4857   */\n      0x00\n        /* \"#utility.yul\":4849:4864   */\n      revert\n        /* \"#utility.yul\":4876:5056   */\n    tag_101:\n        /* \"#utility.yul\":4924:5001   */\n      0x4e487b7100000000000000000000000000000000000000000000000000000000\n        /* \"#utility.yul\":4921:4922   */\n      0x00\n        /* \"#utility.yul\":4914:5002   */\n      mstore\n        /* \"#utility.yul\":5021:5025   */\n      0x22\n        /* \"#utility.yul\":5018:5019   */\n      0x04\n        /* \"#utility.yul\":5011:5026   */\n      mstore\n        /* \"#utility.yul\":5045:5049   */\n      0x24\n        /* \"#utility.yul\":5042:5043   */\n      0x00\n        /* \"#utility.yul\":5035:5050   */\n      revert\n        /* \"#utility.yul\":5062:5164   */\n    tag_56:\n      0x00\n        /* \"#utility.yul\":5154:5156   */\n      0x1f\n        /* \"#utility.yul\":5150:5157   */\n      not\n        /* \"#utility.yul\":5145:5147   */\n      0x1f\n        /* \"#utility.yul\":5138:5143   */\n      dup4\n        /* \"#utility.yul\":5134:5148   */\n      add\n        /* \"#utility.yul\":5130:5158   */\n      and\n        /* \"#utility.yul\":5120:5158   */\n      swap1\n      pop\n        /* \"#utility.yul\":5110:5164   */\n      swap2\n      swap1\n      pop\n      jump\t// out\n        /* \"#utility.yul\":5170:5283   */\n    tag_81:\n        /* \"#utility.yul\":5251:5252   */\n      0x07\n        /* \"#utility.yul\":5244:5249   */\n      dup2\n        /* \"#utility.yul\":5241:5253   */\n      lt\n        /* \"#utility.yul\":5231:5233   */\n      tag_107\n      jumpi\n        /* \"#utility.yul\":5257:5275   */\n      tag_108\n      tag_102\n      jump\t// in\n    tag_108:\n        /* \"#utility.yul\":5231:5233   */\n    tag_107:\n        /* \"#utility.yul\":5221:5283   */\n      pop\n      jump\t// out\n        /* \"#utility.yul\":5289:5407   */\n    tag_85:\n        /* \"#utility.yul\":5375:5376   */\n      0x04\n        /* \"#utility.yul\":5368:5373   */\n      dup2\n        /* \"#utility.yul\":5365:5377   */\n      lt\n        /* \"#utility.yul\":5355:5357   */\n      tag_110\n      jumpi\n        /* \"#utility.yul\":5381:5399   */\n      tag_111\n      tag_102\n      jump\t// in\n    tag_111:\n        /* \"#utility.yul\":5355:5357   */\n    tag_110:\n        /* \"#utility.yul\":5345:5407   */\n      pop\n      jump\t// out\n        /* \"#utility.yul\":5413:5535   */\n    tag_31:\n        /* \"#utility.yul\":5486:5510   */\n      tag_113\n        /* \"#utility.yul\":5504:5509   */\n      dup2\n        /* \"#utility.yul\":5486:5510   */\n      tag_60\n      jump\t// in\n    tag_113:\n        /* \"#utility.yul\":5479:5484   */\n      dup2\n        /* \"#utility.yul\":5476:5511   */\n      eq\n        /* \"#utility.yul\":5466:5468   */\n      tag_114\n      jumpi\n        /* \"#utility.yul\":5525:5526   */\n      0x00\n        /* \"#utility.yul\":5522:5523   */\n      dup1\n        /* \"#utility.yul\":5515:5527   */\n      revert\n        /* \"#utility.yul\":5466:5468   */\n    tag_114:\n        /* \"#utility.yul\":5456:5535   */\n      pop\n      jump\t// out\n\n    auxdata: 0xa2646970667358221220f1947053575c5e710c3c0fc100ffc83692657c3931c9153b1bfc197d3fda05a764736f6c63430008000033\n}\n",
				"bytecode": {
					"linkReferences": {},
					"object": "6080604052600080556000600255600060055534801561001e57600080fd5b506105cb8061002e6000396000f3fe608060405234801561001057600080fd5b50600436106100365760003560e01c806317b47cc41461003b57806335c1d3491461006f575b600080fd5b6100556004803603810190610050919061028e565b6100a3565b60405161006695949392919061032c565b60405180910390f35b6100896004803603810190610084919061028e565b61018e565b60405161009a959493929190610386565b60405180910390f35b60016020528060005260406000206000915090508060000180546100c6906104b5565b80601f01602080910402602001604051908101604052809291908181526020018280546100f2906104b5565b801561013f5780601f106101145761010080835404028352916020019161013f565b820191906000526020600020905b81548152906001019060200180831161012257829003601f168201915b5050505050908060010154908060020160009054906101000a900473ffffffffffffffffffffffffffffffffffffffff16908060020160149054906101000a900460ff16908060030154905085565b60036020528060005260406000206000915090508060000180546101b1906104b5565b80601f01602080910402602001604051908101604052809291908181526020018280546101dd906104b5565b801561022a5780601f106101ff5761010080835404028352916020019161022a565b820191906000526020600020905b81548152906001019060200180831161020d57829003601f168201915b5050505050908060010154908060020160009054906101000a900460ff16908060020160019054906101000a900473ffffffffffffffffffffffffffffffffffffffff16908060030154905085565b6000813590506102888161057e565b92915050565b6000602082840312156102a057600080fd5b60006102ae84828501610279565b91505092915050565b6102c0816103fc565b82525050565b6102cf8161045e565b82525050565b6102de81610470565b82525050565b60006102ef826103e0565b6102f981856103eb565b9350610309818560208601610482565b61031281610545565b840191505092915050565b61032681610454565b82525050565b600060a082019050818103600083015261034681886102e4565b9050610355602083018761031d565b61036260408301866102b7565b61036f60608301856102c6565b61037c608083018461031d565b9695505050505050565b600060a08201905081810360008301526103a081886102e4565b90506103af602083018761031d565b6103bc60408301866102d5565b6103c960608301856102b7565b6103d6608083018461031d565b9695505050505050565b600081519050919050565b600082825260208201905092915050565b600061040782610434565b9050919050565b600081905061041c82610556565b919050565b600081905061042f8261056a565b919050565b600073ffffffffffffffffffffffffffffffffffffffff82169050919050565b6000819050919050565b60006104698261040e565b9050919050565b600061047b82610421565b9050919050565b60005b838110156104a0578082015181840152602081019050610485565b838111156104af576000848401525b50505050565b600060028204905060018216806104cd57607f821691505b602082108114156104e1576104e0610516565b5b50919050565b7f4e487b7100000000000000000000000000000000000000000000000000000000600052602160045260246000fd5b7f4e487b7100000000000000000000000000000000000000000000000000000000600052602260045260246000fd5b6000601f19601f8301169050919050565b60078110610567576105666104e7565b5b50565b6004811061057b5761057a6104e7565b5b50565b61058781610454565b811461059257600080fd5b5056fea2646970667358221220f1947053575c5e710c3c0fc100ffc83692657c3931c9153b1bfc197d3fda05a764736f6c63430008000033",
					"opcodes": "PUSH1 0x80 PUSH1 0x40 MSTORE PUSH1 0x0 DUP1 SSTORE PUSH1 0x0 PUSH1 0x2 SSTORE PUSH1 0x0 PUSH1 0x5 SSTORE CALLVALUE DUP1 ISZERO PUSH2 0x1E JUMPI PUSH1 0x0 DUP1 REVERT JUMPDEST POP PUSH2 0x5CB DUP1 PUSH2 0x2E PUSH1 0x0 CODECOPY PUSH1 0x0 RETURN INVALID PUSH1 0x80 PUSH1 0x40 MSTORE CALLVALUE DUP1 ISZERO PUSH2 0x10 JUMPI PUSH1 0x0 DUP1 REVERT JUMPDEST POP PUSH1 0x4 CALLDATASIZE LT PUSH2 0x36 JUMPI PUSH1 0x0 CALLDATALOAD PUSH1 0xE0 SHR DUP1 PUSH4 0x17B47CC4 EQ PUSH2 0x3B JUMPI DUP1 PUSH4 0x35C1D349 EQ PUSH2 0x6F JUMPI JUMPDEST PUSH1 0x0 DUP1 REVERT JUMPDEST PUSH2 0x55 PUSH1 0x4 DUP1 CALLDATASIZE SUB DUP2 ADD SWAP1 PUSH2 0x50 SWAP2 SWAP1 PUSH2 0x28E JUMP JUMPDEST PUSH2 0xA3 JUMP JUMPDEST PUSH1 0x40 MLOAD PUSH2 0x66 SWAP6 SWAP5 SWAP4 SWAP3 SWAP2 SWAP1 PUSH2 0x32C JUMP JUMPDEST PUSH1 0x40 MLOAD DUP1 SWAP2 SUB SWAP1 RETURN JUMPDEST PUSH2 0x89 PUSH1 0x4 DUP1 CALLDATASIZE SUB DUP2 ADD SWAP1 PUSH2 0x84 SWAP2 SWAP1 PUSH2 0x28E JUMP JUMPDEST PUSH2 0x18E JUMP JUMPDEST PUSH1 0x40 MLOAD PUSH2 0x9A SWAP6 SWAP5 SWAP4 SWAP3 SWAP2 SWAP1 PUSH2 0x386 JUMP JUMPDEST PUSH1 0x40 MLOAD DUP1 SWAP2 SUB SWAP1 RETURN JUMPDEST PUSH1 0x1 PUSH1 0x20 MSTORE DUP1 PUSH1 0x0 MSTORE PUSH1 0x40 PUSH1 0x0 KECCAK256 PUSH1 0x0 SWAP2 POP SWAP1 POP DUP1 PUSH1 0x0 ADD DUP1 SLOAD PUSH2 0xC6 SWAP1 PUSH2 0x4B5 JUMP JUMPDEST DUP1 PUSH1 0x1F ADD PUSH1 0x20 DUP1 SWAP2 DIV MUL PUSH1 0x20 ADD PUSH1 0x40 MLOAD SWAP1 DUP2 ADD PUSH1 0x40 MSTORE DUP1 SWAP3 SWAP2 SWAP1 DUP2 DUP2 MSTORE PUSH1 0x20 ADD DUP3 DUP1 SLOAD PUSH2 0xF2 SWAP1 PUSH2 0x4B5 JUMP JUMPDEST DUP1 ISZERO PUSH2 0x13F JUMPI DUP1 PUSH1 0x1F LT PUSH2 0x114 JUMPI PUSH2 0x100 DUP1 DUP4 SLOAD DIV MUL DUP4 MSTORE SWAP2 PUSH1 0x20 ADD SWAP2 PUSH2 0x13F JUMP JUMPDEST DUP3 ADD SWAP2 SWAP1 PUSH1 0x0 MSTORE PUSH1 0x20 PUSH1 0x0 KECCAK256 SWAP1 JUMPDEST DUP2 SLOAD DUP2 MSTORE SWAP1 PUSH1 0x1 ADD SWAP1 PUSH1 0x20 ADD DUP1 DUP4 GT PUSH2 0x122 JUMPI DUP3 SWAP1 SUB PUSH1 0x1F AND DUP3 ADD SWAP2 JUMPDEST POP POP POP POP POP SWAP1 DUP1 PUSH1 0x1 ADD SLOAD SWAP1 DUP1 PUSH1 0x2 ADD PUSH1 0x0 SWAP1 SLOAD SWAP1 PUSH2 0x100 EXP SWAP1 DIV PUSH20 0xFFFFFFFFFFFFFFFFFFFFFFFFFFFFFFFFFFFFFFFF AND SWAP1 DUP1 PUSH1 0x2 ADD PUSH1 0x14 SWAP1 SLOAD SWAP1 PUSH2 0x100 EXP SWAP1 DIV PUSH1 0xFF AND SWAP1 DUP1 PUSH1 0x3 ADD SLOAD SWAP1 POP DUP6 JUMP JUMPDEST PUSH1 0x3 PUSH1 0x20 MSTORE DUP1 PUSH1 0x0 MSTORE PUSH1 0x40 PUSH1 0x0 KECCAK256 PUSH1 0x0 SWAP2 POP SWAP1 POP DUP1 PUSH1 0x0 ADD DUP1 SLOAD PUSH2 0x1B1 SWAP1 PUSH2 0x4B5 JUMP JUMPDEST DUP1 PUSH1 0x1F ADD PUSH1 0x20 DUP1 SWAP2 DIV MUL PUSH1 0x20 ADD PUSH1 0x40 MLOAD SWAP1 DUP2 ADD PUSH1 0x40 MSTORE DUP1 SWAP3 SWAP2 SWAP1 DUP2 DUP2 MSTORE PUSH1 0x20 ADD DUP3 DUP1 SLOAD PUSH2 0x1DD SWAP1 PUSH2 0x4B5 JUMP JUMPDEST DUP1 ISZERO PUSH2 0x22A JUMPI DUP1 PUSH1 0x1F LT PUSH2 0x1FF JUMPI PUSH2 0x100 DUP1 DUP4 SLOAD DIV MUL DUP4 MSTORE SWAP2 PUSH1 0x20 ADD SWAP2 PUSH2 0x22A JUMP JUMPDEST DUP3 ADD SWAP2 SWAP1 PUSH1 0x0 MSTORE PUSH1 0x20 PUSH1 0x0 KECCAK256 SWAP1 JUMPDEST DUP2 SLOAD DUP2 MSTORE SWAP1 PUSH1 0x1 ADD SWAP1 PUSH1 0x20 ADD DUP1 DUP4 GT PUSH2 0x20D JUMPI DUP3 SWAP1 SUB PUSH1 0x1F AND DUP3 ADD SWAP2 JUMPDEST POP POP POP POP POP SWAP1 DUP1 PUSH1 0x1 ADD SLOAD SWAP1 DUP1 PUSH1 0x2 ADD PUSH1 0x0 SWAP1 SLOAD SWAP1 PUSH2 0x100 EXP SWAP1 DIV PUSH1 0xFF AND SWAP1 DUP1 PUSH1 0x2 ADD PUSH1 0x1 SWAP1 SLOAD SWAP1 PUSH2 0x100 EXP SWAP1 DIV PUSH20 0xFFFFFFFFFFFFFFFFFFFFFFFFFFFFFFFFFFFFFFFF AND SWAP1 DUP1 PUSH1 0x3 ADD SLOAD SWAP1 POP DUP6 JUMP JUMPDEST PUSH1 0x0 DUP2 CALLDATALOAD SWAP1 POP PUSH2 0x288 DUP2 PUSH2 0x57E JUMP JUMPDEST SWAP3 SWAP2 POP POP JUMP JUMPDEST PUSH1 0x0 PUSH1 0x20 DUP3 DUP5 SUB SLT ISZERO PUSH2 0x2A0 JUMPI PUSH1 0x0 DUP1 REVERT JUMPDEST PUSH1 0x0 PUSH2 0x2AE DUP5 DUP3 DUP6 ADD PUSH2 0x279 JUMP JUMPDEST SWAP2 POP POP SWAP3 SWAP2 POP POP JUMP JUMPDEST PUSH2 0x2C0 DUP2 PUSH2 0x3FC JUMP JUMPDEST DUP3 MSTORE POP POP JUMP JUMPDEST PUSH2 0x2CF DUP2 PUSH2 0x45E JUMP JUMPDEST DUP3 MSTORE POP POP JUMP JUMPDEST PUSH2 0x2DE DUP2 PUSH2 0x470 JUMP JUMPDEST DUP3 MSTORE POP POP JUMP JUMPDEST PUSH1 0x0 PUSH2 0x2EF DUP3 PUSH2 0x3E0 JUMP JUMPDEST PUSH2 0x2F9 DUP2 DUP6 PUSH2 0x3EB JUMP JUMPDEST SWAP4 POP PUSH2 0x309 DUP2 DUP6 PUSH1 0x20 DUP7 ADD PUSH2 0x482 JUMP JUMPDEST PUSH2 0x312 DUP2 PUSH2 0x545 JUMP JUMPDEST DUP5 ADD SWAP2 POP POP SWAP3 SWAP2 POP POP JUMP JUMPDEST PUSH2 0x326 DUP2 PUSH2 0x454 JUMP JUMPDEST DUP3 MSTORE POP POP JUMP JUMPDEST PUSH1 0x0 PUSH1 0xA0 DUP3 ADD SWAP1 POP DUP2 DUP2 SUB PUSH1 0x0 DUP4 ADD MSTORE PUSH2 0x346 DUP2 DUP9 PUSH2 0x2E4 JUMP JUMPDEST SWAP1 POP PUSH2 0x355 PUSH1 0x20 DUP4 ADD DUP8 PUSH2 0x31D JUMP JUMPDEST PUSH2 0x362 PUSH1 0x40 DUP4 ADD DUP7 PUSH2 0x2B7 JUMP JUMPDEST PUSH2 0x36F PUSH1 0x60 DUP4 ADD DUP6 PUSH2 0x2C6 JUMP JUMPDEST PUSH2 0x37C PUSH1 0x80 DUP4 ADD DUP5 PUSH2 0x31D JUMP JUMPDEST SWAP7 SWAP6 POP POP POP POP POP POP JUMP JUMPDEST PUSH1 0x0 PUSH1 0xA0 DUP3 ADD SWAP1 POP DUP2 DUP2 SUB PUSH1 0x0 DUP4 ADD MSTORE PUSH2 0x3A0 DUP2 DUP9 PUSH2 0x2E4 JUMP JUMPDEST SWAP1 POP PUSH2 0x3AF PUSH1 0x20 DUP4 ADD DUP8 PUSH2 0x31D JUMP JUMPDEST PUSH2 0x3BC PUSH1 0x40 DUP4 ADD DUP7 PUSH2 0x2D5 JUMP JUMPDEST PUSH2 0x3C9 PUSH1 0x60 DUP4 ADD DUP6 PUSH2 0x2B7 JUMP JUMPDEST PUSH2 0x3D6 PUSH1 0x80 DUP4 ADD DUP5 PUSH2 0x31D JUMP JUMPDEST SWAP7 SWAP6 POP POP POP POP POP POP JUMP JUMPDEST PUSH1 0x0 DUP2 MLOAD SWAP1 POP SWAP2 SWAP1 POP JUMP JUMPDEST PUSH1 0x0 DUP3 DUP3 MSTORE PUSH1 0x20 DUP3 ADD SWAP1 POP SWAP3 SWAP2 POP POP JUMP JUMPDEST PUSH1 0x0 PUSH2 0x407 DUP3 PUSH2 0x434 JUMP JUMPDEST SWAP1 POP SWAP2 SWAP1 POP JUMP JUMPDEST PUSH1 0x0 DUP2 SWAP1 POP PUSH2 0x41C DUP3 PUSH2 0x556 JUMP JUMPDEST SWAP2 SWAP1 POP JUMP JUMPDEST PUSH1 0x0 DUP2 SWAP1 POP PUSH2 0x42F DUP3 PUSH2 0x56A JUMP JUMPDEST SWAP2 SWAP1 POP JUMP JUMPDEST PUSH1 0x0 PUSH20 0xFFFFFFFFFFFFFFFFFFFFFFFFFFFFFFFFFFFFFFFF DUP3 AND SWAP1 POP SWAP2 SWAP1 POP JUMP JUMPDEST PUSH1 0x0 DUP2 SWAP1 POP SWAP2 SWAP1 POP JUMP JUMPDEST PUSH1 0x0 PUSH2 0x469 DUP3 PUSH2 0x40E JUMP JUMPDEST SWAP1 POP SWAP2 SWAP1 POP JUMP JUMPDEST PUSH1 0x0 PUSH2 0x47B DUP3 PUSH2 0x421 JUMP JUMPDEST SWAP1 POP SWAP2 SWAP1 POP JUMP JUMPDEST PUSH1 0x0 JUMPDEST DUP4 DUP2 LT ISZERO PUSH2 0x4A0 JUMPI DUP1 DUP3 ADD MLOAD DUP2 DUP5 ADD MSTORE PUSH1 0x20 DUP2 ADD SWAP1 POP PUSH2 0x485 JUMP JUMPDEST DUP4 DUP2 GT ISZERO PUSH2 0x4AF JUMPI PUSH1 0x0 DUP5 DUP5 ADD MSTORE JUMPDEST POP POP POP POP JUMP JUMPDEST PUSH1 0x0 PUSH1 0x2 DUP3 DIV SWAP1 POP PUSH1 0x1 DUP3 AND DUP1 PUSH2 0x4CD JUMPI PUSH1 0x7F DUP3 AND SWAP2 POP JUMPDEST PUSH1 0x20 DUP3 LT DUP2 EQ ISZERO PUSH2 0x4E1 JUMPI PUSH2 0x4E0 PUSH2 0x516 JUMP JUMPDEST JUMPDEST POP SWAP2 SWAP1 POP JUMP JUMPDEST PUSH32 0x4E487B7100000000000000000000000000000000000000000000000000000000 PUSH1 0x0 MSTORE PUSH1 0x21 PUSH1 0x4 MSTORE PUSH1 0x24 PUSH1 0x0 REVERT JUMPDEST PUSH32 0x4E487B7100000000000000000000000000000000000000000000000000000000 PUSH1 0x0 MSTORE PUSH1 0x22 PUSH1 0x4 MSTORE PUSH1 0x24 PUSH1 0x0 REVERT JUMPDEST PUSH1 0x0 PUSH1 0x1F NOT PUSH1 0x1F DUP4 ADD AND SWAP1 POP SWAP2 SWAP1 POP JUMP JUMPDEST PUSH1 0x7 DUP2 LT PUSH2 0x567 JUMPI PUSH2 0x566 PUSH2 0x4E7 JUMP JUMPDEST JUMPDEST POP JUMP JUMPDEST PUSH1 0x4 DUP2 LT PUSH2 0x57B JUMPI PUSH2 0x57A PUSH2 0x4E7 JUMP JUMPDEST JUMPDEST POP JUMP JUMPDEST PUSH2 0x587 DUP2 PUSH2 0x454 JUMP JUMPDEST DUP2 EQ PUSH2 0x592 JUMPI PUSH1 0x0 DUP1 REVERT JUMPDEST POP JUMP INVALID LOG2 PUSH5 0x6970667358 0x22 SLT KECCAK256 CALL SWAP5 PUSH17 0x53575C5E710C3C0FC100FFC83692657C39 BALANCE 0xC9 ISZERO EXTCODESIZE SHL 0xFC NOT PUSH30 0x3FDA05A764736F6C63430008000033000000000000000000000000000000 "
				},
				"gasEstimates": {
					"creation": {
						"codeDepositCost": "296600",
						"executionCost": "15355",
						"totalCost": "311955"
					},
					"external": {
						"Items(uint256)": "infinite",
						"participants(uint256)": "infinite"
					}
				},
				"methodIdentifiers": {
					"Items(uint256)": "17b47cc4",
					"participants(uint256)": "35c1d349"
				}
			},
			"userdoc": {
				"kind": "user",
				"methods": {},
				"version": 1
			}
		}
	}
}