{
	"contracts/modifier.sol": {
		"Modifier": {
			"abi": [
				{
					"inputs": [],
					"stateMutability": "nonpayable",
					"type": "constructor"
				},
				{
					"inputs": [
						{
							"internalType": "uint256",
							"name": "",
							"type": "uint256"
						}
					],
					"name": "Items",
					"outputs": [
						{
							"internalType": "string",
							"name": "product_name",
							"type": "string"
						},
						{
							"internalType": "uint256",
							"name": "productId",
							"type": "uint256"
						},
						{
							"internalType": "address",
							"name": "itemOwner",
							"type": "address"
						},
						{
							"internalType": "enum Item.state",
							"name": "productState",
							"type": "uint8"
						},
						{
							"internalType": "uint256",
							"name": "cost",
							"type": "uint256"
						}
					],
					"stateMutability": "view",
					"type": "function"
				},
				{
					"inputs": [],
					"name": "owner",
					"outputs": [
						{
							"internalType": "address",
							"name": "",
							"type": "address"
						}
					],
					"stateMutability": "view",
					"type": "function"
				},
				{
					"inputs": [
						{
							"internalType": "uint256",
							"name": "",
							"type": "uint256"
						}
					],
					"name": "participants",
					"outputs": [
						{
							"internalType": "string",
							"name": "username",
							"type": "string"
						},
						{
							"internalType": "uint256",
							"name": "userId",
							"type": "uint256"
						},
						{
							"internalType": "enum participant.user_type",
							"name": "utype",
							"type": "uint8"
						},
						{
							"internalType": "address",
							"name": "user_address",
							"type": "address"
						},
						{
							"internalType": "uint256",
							"name": "money",
							"type": "uint256"
						}
					],
					"stateMutability": "view",
					"type": "function"
				}
			],
			"devdoc": {
				"kind": "dev",
				"methods": {},
				"version": 1
			},
			"evm": {
				"assembly": "    /* \"contracts/modifier.sol\":74:1487  contract Modifier is Item,participant {\r... */\n  mstore(0x40, 0x80)\n    /* \"contracts/item.sol\":54:55  0 */\n  0x00\n    /* \"contracts/item.sol\":46:55  uint ic=0 */\n  dup1\n  sstore\n    /* \"contracts/member.sol\":62:63  0 */\n  0x00\n    /* \"contracts/member.sol\":54:63  uint pc=0 */\n  0x02\n  sstore\n    /* \"contracts/modifier.sol\":150:207  constructor() public{\r... */\n  callvalue\n  dup1\n  iszero\n  tag_1\n  jumpi\n  0x00\n  dup1\n  revert\ntag_1:\n  pop\n    /* \"contracts/modifier.sol\":189:199  msg.sender */\n  caller\n    /* \"contracts/modifier.sol\":181:186  owner */\n  0x05\n  0x00\n    /* \"contracts/modifier.sol\":181:199  owner = msg.sender */\n  0x0100\n  exp\n  dup2\n  sload\n  dup2\n  0xffffffffffffffffffffffffffffffffffffffff\n  mul\n  not\n  and\n  swap1\n  dup4\n  0xffffffffffffffffffffffffffffffffffffffff\n  and\n  mul\n  or\n  swap1\n  sstore\n  pop\n    /* \"contracts/modifier.sol\":74:1487  contract Modifier is Item,participant {\r... */\n  dataSize(sub_0)\n  dup1\n  dataOffset(sub_0)\n  0x00\n  codecopy\n  0x00\n  return\nstop\n\nsub_0: assembly {\n        /* \"contracts/modifier.sol\":74:1487  contract Modifier is Item,participant {\r... */\n      mstore(0x40, 0x80)\n      callvalue\n      dup1\n      iszero\n      tag_1\n      jumpi\n      0x00\n      dup1\n      revert\n    tag_1:\n      pop\n      jumpi(tag_2, lt(calldatasize, 0x04))\n      shr(0xe0, calldataload(0x00))\n      dup1\n      0x17b47cc4\n      eq\n      tag_3\n      jumpi\n      dup1\n      0x35c1d349\n      eq\n      tag_4\n      jumpi\n      dup1\n      0x8da5cb5b\n      eq\n      tag_5\n      jumpi\n    tag_2:\n      0x00\n      dup1\n      revert\n        /* \"contracts/item.sol\":389:421  mapping(uint=>item) public Items */\n    tag_3:\n      tag_6\n      0x04\n      dup1\n      calldatasize\n      sub\n      dup2\n      add\n      swap1\n      tag_7\n      swap2\n      swap1\n      tag_8\n      jump\t// in\n    tag_7:\n      tag_9\n      jump\t// in\n    tag_6:\n      mload(0x40)\n      tag_10\n      swap6\n      swap5\n      swap4\n      swap3\n      swap2\n      swap1\n      tag_11\n      jump\t// in\n    tag_10:\n      mload(0x40)\n      dup1\n      swap2\n      sub\n      swap1\n      return\n        /* \"contracts/member.sol\":347:393  mapping(uint=>participant) public participants */\n    tag_4:\n      tag_12\n      0x04\n      dup1\n      calldatasize\n      sub\n      dup2\n      add\n      swap1\n      tag_13\n      swap2\n      swap1\n      tag_8\n      jump\t// in\n    tag_13:\n      tag_14\n      jump\t// in\n    tag_12:\n      mload(0x40)\n      tag_15\n      swap6\n      swap5\n      swap4\n      swap3\n      swap2\n      swap1\n      tag_16\n      jump\t// in\n    tag_15:\n      mload(0x40)\n      dup1\n      swap2\n      sub\n      swap1\n      return\n        /* \"contracts/modifier.sol\":121:141  address public owner */\n    tag_5:\n      tag_17\n      tag_18\n      jump\t// in\n    tag_17:\n      mload(0x40)\n      tag_19\n      swap2\n      swap1\n      tag_20\n      jump\t// in\n    tag_19:\n      mload(0x40)\n      dup1\n      swap2\n      sub\n      swap1\n      return\n        /* \"contracts/item.sol\":389:421  mapping(uint=>item) public Items */\n    tag_9:\n      mstore(0x20, 0x01)\n      dup1\n      0x00\n      mstore\n      keccak256(0x00, 0x40)\n      0x00\n      swap2\n      pop\n      swap1\n      pop\n      dup1\n      0x00\n      add\n      dup1\n      sload\n      tag_21\n      swap1\n      tag_22\n      jump\t// in\n    tag_21:\n      dup1\n      0x1f\n      add\n      0x20\n      dup1\n      swap2\n      div\n      mul\n      0x20\n      add\n      mload(0x40)\n      swap1\n      dup2\n      add\n      0x40\n      mstore\n      dup1\n      swap3\n      swap2\n      swap1\n      dup2\n      dup2\n      mstore\n      0x20\n      add\n      dup3\n      dup1\n      sload\n      tag_23\n      swap1\n      tag_22\n      jump\t// in\n    tag_23:\n      dup1\n      iszero\n      tag_24\n      jumpi\n      dup1\n      0x1f\n      lt\n      tag_25\n      jumpi\n      0x0100\n      dup1\n      dup4\n      sload\n      div\n      mul\n      dup4\n      mstore\n      swap2\n      0x20\n      add\n      swap2\n      jump(tag_24)\n    tag_25:\n      dup3\n      add\n      swap2\n      swap1\n      0x00\n      mstore\n      keccak256(0x00, 0x20)\n      swap1\n    tag_26:\n      dup2\n      sload\n      dup2\n      mstore\n      swap1\n      0x01\n      add\n      swap1\n      0x20\n      add\n      dup1\n      dup4\n      gt\n      tag_26\n      jumpi\n      dup3\n      swap1\n      sub\n      0x1f\n      and\n      dup3\n      add\n      swap2\n    tag_24:\n      pop\n      pop\n      pop\n      pop\n      pop\n      swap1\n      dup1\n      0x01\n      add\n      sload\n      swap1\n      dup1\n      0x02\n      add\n      0x00\n      swap1\n      sload\n      swap1\n      0x0100\n      exp\n      swap1\n      div\n      0xffffffffffffffffffffffffffffffffffffffff\n      and\n      swap1\n      dup1\n      0x02\n      add\n      0x14\n      swap1\n      sload\n      swap1\n      0x0100\n      exp\n      swap1\n      div\n      0xff\n      and\n      swap1\n      dup1\n      0x03\n      add\n      sload\n      swap1\n      pop\n      dup6\n      jump\t// out\n        /* \"contracts/member.sol\":347:393  mapping(uint=>participant) public participants */\n    tag_14:\n      mstore(0x20, 0x03)\n      dup1\n      0x00\n      mstore\n      keccak256(0x00, 0x40)\n      0x00\n      swap2\n      pop\n      swap1\n      pop\n      dup1\n      0x00\n      add\n      dup1\n      sload\n      tag_27\n      swap1\n      tag_22\n      jump\t// in\n    tag_27:\n      dup1\n      0x1f\n      add\n      0x20\n      dup1\n      swap2\n      div\n      mul\n      0x20\n      add\n      mload(0x40)\n      swap1\n      dup2\n      add\n      0x40\n      mstore\n      dup1\n      swap3\n      swap2\n      swap1\n      dup2\n      dup2\n      mstore\n      0x20\n      add\n      dup3\n      dup1\n      sload\n      tag_28\n      swap1\n      tag_22\n      jump\t// in\n    tag_28:\n      dup1\n      iszero\n      tag_29\n      jumpi\n      dup1\n      0x1f\n      lt\n      tag_30\n      jumpi\n      0x0100\n      dup1\n      dup4\n      sload\n      div\n      mul\n      dup4\n      mstore\n      swap2\n      0x20\n      add\n      swap2\n      jump(tag_29)\n    tag_30:\n      dup3\n      add\n      swap2\n      swap1\n      0x00\n      mstore\n      keccak256(0x00, 0x20)\n      swap1\n    tag_31:\n      dup2\n      sload\n      dup2\n      mstore\n      swap1\n      0x01\n      add\n      swap1\n      0x20\n      add\n      dup1\n      dup4\n      gt\n      tag_31\n      jumpi\n      dup3\n      swap1\n      sub\n      0x1f\n      and\n      dup3\n      add\n      swap2\n    tag_29:\n      pop\n      pop\n      pop\n      pop\n      pop\n      swap1\n      dup1\n      0x01\n      add\n      sload\n      swap1\n      dup1\n      0x02\n      add\n      0x00\n      swap1\n      sload\n      swap1\n      0x0100\n      exp\n      swap1\n      div\n      0xff\n      and\n      swap1\n      dup1\n      0x02\n      add\n      0x01\n      swap1\n      sload\n      swap1\n      0x0100\n      exp\n      swap1\n      div\n      0xffffffffffffffffffffffffffffffffffffffff\n      and\n      swap1\n      dup1\n      0x03\n      add\n      sload\n      swap1\n      pop\n      dup6\n      jump\t// out\n        /* \"contracts/modifier.sol\":121:141  address public owner */\n    tag_18:\n      0x05\n      0x00\n      swap1\n      sload\n      swap1\n      0x0100\n      exp\n      swap1\n      div\n      0xffffffffffffffffffffffffffffffffffffffff\n      and\n      dup2\n      jump\t// out\n        /* \"#utility.yul\":7:146   */\n    tag_33:\n      0x00\n        /* \"#utility.yul\":91:97   */\n      dup2\n        /* \"#utility.yul\":78:98   */\n      calldataload\n        /* \"#utility.yul\":69:98   */\n      swap1\n      pop\n        /* \"#utility.yul\":107:140   */\n      tag_35\n        /* \"#utility.yul\":134:139   */\n      dup2\n        /* \"#utility.yul\":107:140   */\n      tag_36\n      jump\t// in\n    tag_35:\n        /* \"#utility.yul\":59:146   */\n      swap3\n      swap2\n      pop\n      pop\n      jump\t// out\n        /* \"#utility.yul\":152:414   */\n    tag_8:\n      0x00\n        /* \"#utility.yul\":260:262   */\n      0x20\n        /* \"#utility.yul\":248:257   */\n      dup3\n        /* \"#utility.yul\":239:246   */\n      dup5\n        /* \"#utility.yul\":235:258   */\n      sub\n        /* \"#utility.yul\":231:263   */\n      slt\n        /* \"#utility.yul\":228:230   */\n      iszero\n      tag_38\n      jumpi\n        /* \"#utility.yul\":276:277   */\n      0x00\n        /* \"#utility.yul\":273:274   */\n      dup1\n        /* \"#utility.yul\":266:278   */\n      revert\n        /* \"#utility.yul\":228:230   */\n    tag_38:\n        /* \"#utility.yul\":319:320   */\n      0x00\n        /* \"#utility.yul\":344:397   */\n      tag_39\n        /* \"#utility.yul\":389:396   */\n      dup5\n        /* \"#utility.yul\":380:386   */\n      dup3\n        /* \"#utility.yul\":369:378   */\n      dup6\n        /* \"#utility.yul\":365:387   */\n      add\n        /* \"#utility.yul\":344:397   */\n      tag_33\n      jump\t// in\n    tag_39:\n        /* \"#utility.yul\":334:397   */\n      swap2\n      pop\n        /* \"#utility.yul\":290:407   */\n      pop\n        /* \"#utility.yul\":218:414   */\n      swap3\n      swap2\n      pop\n      pop\n      jump\t// out\n        /* \"#utility.yul\":420:538   */\n    tag_40:\n        /* \"#utility.yul\":507:531   */\n      tag_42\n        /* \"#utility.yul\":525:530   */\n      dup2\n        /* \"#utility.yul\":507:531   */\n      tag_43\n      jump\t// in\n    tag_42:\n        /* \"#utility.yul\":502:505   */\n      dup3\n        /* \"#utility.yul\":495:532   */\n      mstore\n        /* \"#utility.yul\":485:538   */\n      pop\n      pop\n      jump\t// out\n        /* \"#utility.yul\":544:687   */\n    tag_44:\n        /* \"#utility.yul\":637:680   */\n      tag_46\n        /* \"#utility.yul\":674:679   */\n      dup2\n        /* \"#utility.yul\":637:680   */\n      tag_47\n      jump\t// in\n    tag_46:\n        /* \"#utility.yul\":632:635   */\n      dup3\n        /* \"#utility.yul\":625:681   */\n      mstore\n        /* \"#utility.yul\":615:687   */\n      pop\n      pop\n      jump\t// out\n        /* \"#utility.yul\":693:846   */\n    tag_48:\n        /* \"#utility.yul\":791:839   */\n      tag_50\n        /* \"#utility.yul\":833:838   */\n      dup2\n        /* \"#utility.yul\":791:839   */\n      tag_51\n      jump\t// in\n    tag_50:\n        /* \"#utility.yul\":786:789   */\n      dup3\n        /* \"#utility.yul\":779:840   */\n      mstore\n        /* \"#utility.yul\":769:846   */\n      pop\n      pop\n      jump\t// out\n        /* \"#utility.yul\":852:1216   */\n    tag_52:\n      0x00\n        /* \"#utility.yul\":968:1007   */\n      tag_54\n        /* \"#utility.yul\":1001:1006   */\n      dup3\n        /* \"#utility.yul\":968:1007   */\n      tag_55\n      jump\t// in\n    tag_54:\n        /* \"#utility.yul\":1023:1094   */\n      tag_56\n        /* \"#utility.yul\":1087:1093   */\n      dup2\n        /* \"#utility.yul\":1082:1085   */\n      dup6\n        /* \"#utility.yul\":1023:1094   */\n      tag_57\n      jump\t// in\n    tag_56:\n        /* \"#utility.yul\":1016:1094   */\n      swap4\n      pop\n        /* \"#utility.yul\":1103:1155   */\n      tag_58\n        /* \"#utility.yul\":1148:1154   */\n      dup2\n        /* \"#utility.yul\":1143:1146   */\n      dup6\n        /* \"#utility.yul\":1136:1140   */\n      0x20\n        /* \"#utility.yul\":1129:1134   */\n      dup7\n        /* \"#utility.yul\":1125:1141   */\n      add\n        /* \"#utility.yul\":1103:1155   */\n      tag_59\n      jump\t// in\n    tag_58:\n        /* \"#utility.yul\":1180:1209   */\n      tag_60\n        /* \"#utility.yul\":1202:1208   */\n      dup2\n        /* \"#utility.yul\":1180:1209   */\n      tag_61\n      jump\t// in\n    tag_60:\n        /* \"#utility.yul\":1175:1178   */\n      dup5\n        /* \"#utility.yul\":1171:1210   */\n      add\n        /* \"#utility.yul\":1164:1210   */\n      swap2\n      pop\n        /* \"#utility.yul\":944:1216   */\n      pop\n      swap3\n      swap2\n      pop\n      pop\n      jump\t// out\n        /* \"#utility.yul\":1222:1340   */\n    tag_62:\n        /* \"#utility.yul\":1309:1333   */\n      tag_64\n        /* \"#utility.yul\":1327:1332   */\n      dup2\n        /* \"#utility.yul\":1309:1333   */\n      tag_65\n      jump\t// in\n    tag_64:\n        /* \"#utility.yul\":1304:1307   */\n      dup3\n        /* \"#utility.yul\":1297:1334   */\n      mstore\n        /* \"#utility.yul\":1287:1340   */\n      pop\n      pop\n      jump\t// out\n        /* \"#utility.yul\":1346:1568   */\n    tag_20:\n      0x00\n        /* \"#utility.yul\":1477:1479   */\n      0x20\n        /* \"#utility.yul\":1466:1475   */\n      dup3\n        /* \"#utility.yul\":1462:1480   */\n      add\n        /* \"#utility.yul\":1454:1480   */\n      swap1\n      pop\n        /* \"#utility.yul\":1490:1561   */\n      tag_67\n        /* \"#utility.yul\":1558:1559   */\n      0x00\n        /* \"#utility.yul\":1547:1556   */\n      dup4\n        /* \"#utility.yul\":1543:1560   */\n      add\n        /* \"#utility.yul\":1534:1540   */\n      dup5\n        /* \"#utility.yul\":1490:1561   */\n      tag_40\n      jump\t// in\n    tag_67:\n        /* \"#utility.yul\":1444:1568   */\n      swap3\n      swap2\n      pop\n      pop\n      jump\t// out\n        /* \"#utility.yul\":1574:2341   */\n    tag_11:\n      0x00\n        /* \"#utility.yul\":1843:1846   */\n      0xa0\n        /* \"#utility.yul\":1832:1841   */\n      dup3\n        /* \"#utility.yul\":1828:1847   */\n      add\n        /* \"#utility.yul\":1820:1847   */\n      swap1\n      pop\n        /* \"#utility.yul\":1893:1902   */\n      dup2\n        /* \"#utility.yul\":1887:1891   */\n      dup2\n        /* \"#utility.yul\":1883:1903   */\n      sub\n        /* \"#utility.yul\":1879:1880   */\n      0x00\n        /* \"#utility.yul\":1868:1877   */\n      dup4\n        /* \"#utility.yul\":1864:1881   */\n      add\n        /* \"#utility.yul\":1857:1904   */\n      mstore\n        /* \"#utility.yul\":1921:1999   */\n      tag_69\n        /* \"#utility.yul\":1994:1998   */\n      dup2\n        /* \"#utility.yul\":1985:1991   */\n      dup9\n        /* \"#utility.yul\":1921:1999   */\n      tag_52\n      jump\t// in\n    tag_69:\n        /* \"#utility.yul\":1913:1999   */\n      swap1\n      pop\n        /* \"#utility.yul\":2009:2081   */\n      tag_70\n        /* \"#utility.yul\":2077:2079   */\n      0x20\n        /* \"#utility.yul\":2066:2075   */\n      dup4\n        /* \"#utility.yul\":2062:2080   */\n      add\n        /* \"#utility.yul\":2053:2059   */\n      dup8\n        /* \"#utility.yul\":2009:2081   */\n      tag_62\n      jump\t// in\n    tag_70:\n        /* \"#utility.yul\":2091:2163   */\n      tag_71\n        /* \"#utility.yul\":2159:2161   */\n      0x40\n        /* \"#utility.yul\":2148:2157   */\n      dup4\n        /* \"#utility.yul\":2144:2162   */\n      add\n        /* \"#utility.yul\":2135:2141   */\n      dup7\n        /* \"#utility.yul\":2091:2163   */\n      tag_40\n      jump\t// in\n    tag_71:\n        /* \"#utility.yul\":2173:2251   */\n      tag_72\n        /* \"#utility.yul\":2247:2249   */\n      0x60\n        /* \"#utility.yul\":2236:2245   */\n      dup4\n        /* \"#utility.yul\":2232:2250   */\n      add\n        /* \"#utility.yul\":2223:2229   */\n      dup6\n        /* \"#utility.yul\":2173:2251   */\n      tag_44\n      jump\t// in\n    tag_72:\n        /* \"#utility.yul\":2261:2334   */\n      tag_73\n        /* \"#utility.yul\":2329:2332   */\n      0x80\n        /* \"#utility.yul\":2318:2327   */\n      dup4\n        /* \"#utility.yul\":2314:2333   */\n      add\n        /* \"#utility.yul\":2305:2311   */\n      dup5\n        /* \"#utility.yul\":2261:2334   */\n      tag_62\n      jump\t// in\n    tag_73:\n        /* \"#utility.yul\":1810:2341   */\n      swap7\n      swap6\n      pop\n      pop\n      pop\n      pop\n      pop\n      pop\n      jump\t// out\n        /* \"#utility.yul\":2347:3124   */\n    tag_16:\n      0x00\n        /* \"#utility.yul\":2621:2624   */\n      0xa0\n        /* \"#utility.yul\":2610:2619   */\n      dup3\n        /* \"#utility.yul\":2606:2625   */\n      add\n        /* \"#utility.yul\":2598:2625   */\n      swap1\n      pop\n        /* \"#utility.yul\":2671:2680   */\n      dup2\n        /* \"#utility.yul\":2665:2669   */\n      dup2\n        /* \"#utility.yul\":2661:2681   */\n      sub\n        /* \"#utility.yul\":2657:2658   */\n      0x00\n        /* \"#utility.yul\":2646:2655   */\n      dup4\n        /* \"#utility.yul\":2642:2659   */\n      add\n        /* \"#utility.yul\":2635:2682   */\n      mstore\n        /* \"#utility.yul\":2699:2777   */\n      tag_75\n        /* \"#utility.yul\":2772:2776   */\n      dup2\n        /* \"#utility.yul\":2763:2769   */\n      dup9\n        /* \"#utility.yul\":2699:2777   */\n      tag_52\n      jump\t// in\n    tag_75:\n        /* \"#utility.yul\":2691:2777   */\n      swap1\n      pop\n        /* \"#utility.yul\":2787:2859   */\n      tag_76\n        /* \"#utility.yul\":2855:2857   */\n      0x20\n        /* \"#utility.yul\":2844:2853   */\n      dup4\n        /* \"#utility.yul\":2840:2858   */\n      add\n        /* \"#utility.yul\":2831:2837   */\n      dup8\n        /* \"#utility.yul\":2787:2859   */\n      tag_62\n      jump\t// in\n    tag_76:\n        /* \"#utility.yul\":2869:2952   */\n      tag_77\n        /* \"#utility.yul\":2948:2950   */\n      0x40\n        /* \"#utility.yul\":2937:2946   */\n      dup4\n        /* \"#utility.yul\":2933:2951   */\n      add\n        /* \"#utility.yul\":2924:2930   */\n      dup7\n        /* \"#utility.yul\":2869:2952   */\n      tag_48\n      jump\t// in\n    tag_77:\n        /* \"#utility.yul\":2962:3034   */\n      tag_78\n        /* \"#utility.yul\":3030:3032   */\n      0x60\n        /* \"#utility.yul\":3019:3028   */\n      dup4\n        /* \"#utility.yul\":3015:3033   */\n      add\n        /* \"#utility.yul\":3006:3012   */\n      dup6\n        /* \"#utility.yul\":2962:3034   */\n      tag_40\n      jump\t// in\n    tag_78:\n        /* \"#utility.yul\":3044:3117   */\n      tag_79\n        /* \"#utility.yul\":3112:3115   */\n      0x80\n        /* \"#utility.yul\":3101:3110   */\n      dup4\n        /* \"#utility.yul\":3097:3116   */\n      add\n        /* \"#utility.yul\":3088:3094   */\n      dup5\n        /* \"#utility.yul\":3044:3117   */\n      tag_62\n      jump\t// in\n    tag_79:\n        /* \"#utility.yul\":2588:3124   */\n      swap7\n      swap6\n      pop\n      pop\n      pop\n      pop\n      pop\n      pop\n      jump\t// out\n        /* \"#utility.yul\":3130:3229   */\n    tag_55:\n      0x00\n        /* \"#utility.yul\":3216:3221   */\n      dup2\n        /* \"#utility.yul\":3210:3222   */\n      mload\n        /* \"#utility.yul\":3200:3222   */\n      swap1\n      pop\n        /* \"#utility.yul\":3189:3229   */\n      swap2\n      swap1\n      pop\n      jump\t// out\n        /* \"#utility.yul\":3235:3404   */\n    tag_57:\n      0x00\n        /* \"#utility.yul\":3353:3359   */\n      dup3\n        /* \"#utility.yul\":3348:3351   */\n      dup3\n        /* \"#utility.yul\":3341:3360   */\n      mstore\n        /* \"#utility.yul\":3393:3397   */\n      0x20\n        /* \"#utility.yul\":3388:3391   */\n      dup3\n        /* \"#utility.yul\":3384:3398   */\n      add\n        /* \"#utility.yul\":3369:3398   */\n      swap1\n      pop\n        /* \"#utility.yul\":3331:3404   */\n      swap3\n      swap2\n      pop\n      pop\n      jump\t// out\n        /* \"#utility.yul\":3410:3506   */\n    tag_43:\n      0x00\n        /* \"#utility.yul\":3476:3500   */\n      tag_83\n        /* \"#utility.yul\":3494:3499   */\n      dup3\n        /* \"#utility.yul\":3476:3500   */\n      tag_84\n      jump\t// in\n    tag_83:\n        /* \"#utility.yul\":3465:3500   */\n      swap1\n      pop\n        /* \"#utility.yul\":3455:3506   */\n      swap2\n      swap1\n      pop\n      jump\t// out\n        /* \"#utility.yul\":3512:3639   */\n    tag_85:\n      0x00\n        /* \"#utility.yul\":3586:3591   */\n      dup2\n        /* \"#utility.yul\":3575:3591   */\n      swap1\n      pop\n        /* \"#utility.yul\":3592:3633   */\n      tag_87\n        /* \"#utility.yul\":3627:3632   */\n      dup3\n        /* \"#utility.yul\":3592:3633   */\n      tag_88\n      jump\t// in\n    tag_87:\n        /* \"#utility.yul\":3565:3639   */\n      swap2\n      swap1\n      pop\n      jump\t// out\n        /* \"#utility.yul\":3645:3782   */\n    tag_89:\n      0x00\n        /* \"#utility.yul\":3724:3729   */\n      dup2\n        /* \"#utility.yul\":3713:3729   */\n      swap1\n      pop\n        /* \"#utility.yul\":3730:3776   */\n      tag_91\n        /* \"#utility.yul\":3770:3775   */\n      dup3\n        /* \"#utility.yul\":3730:3776   */\n      tag_92\n      jump\t// in\n    tag_91:\n        /* \"#utility.yul\":3703:3782   */\n      swap2\n      swap1\n      pop\n      jump\t// out\n        /* \"#utility.yul\":3788:3914   */\n    tag_84:\n      0x00\n        /* \"#utility.yul\":3865:3907   */\n      0xffffffffffffffffffffffffffffffffffffffff\n        /* \"#utility.yul\":3858:3863   */\n      dup3\n        /* \"#utility.yul\":3854:3908   */\n      and\n        /* \"#utility.yul\":3843:3908   */\n      swap1\n      pop\n        /* \"#utility.yul\":3833:3914   */\n      swap2\n      swap1\n      pop\n      jump\t// out\n        /* \"#utility.yul\":3920:3997   */\n    tag_65:\n      0x00\n        /* \"#utility.yul\":3986:3991   */\n      dup2\n        /* \"#utility.yul\":3975:3991   */\n      swap1\n      pop\n        /* \"#utility.yul\":3965:3997   */\n      swap2\n      swap1\n      pop\n      jump\t// out\n        /* \"#utility.yul\":4003:4130   */\n    tag_47:\n      0x00\n        /* \"#utility.yul\":4092:4124   */\n      tag_96\n        /* \"#utility.yul\":4118:4123   */\n      dup3\n        /* \"#utility.yul\":4092:4124   */\n      tag_85\n      jump\t// in\n    tag_96:\n        /* \"#utility.yul\":4079:4124   */\n      swap1\n      pop\n        /* \"#utility.yul\":4069:4130   */\n      swap2\n      swap1\n      pop\n      jump\t// out\n        /* \"#utility.yul\":4136:4273   */\n    tag_51:\n      0x00\n        /* \"#utility.yul\":4230:4267   */\n      tag_98\n        /* \"#utility.yul\":4261:4266   */\n      dup3\n        /* \"#utility.yul\":4230:4267   */\n      tag_89\n      jump\t// in\n    tag_98:\n        /* \"#utility.yul\":4217:4267   */\n      swap1\n      pop\n        /* \"#utility.yul\":4207:4273   */\n      swap2\n      swap1\n      pop\n      jump\t// out\n        /* \"#utility.yul\":4279:4586   */\n    tag_59:\n        /* \"#utility.yul\":4347:4348   */\n      0x00\n        /* \"#utility.yul\":4357:4470   */\n    tag_100:\n        /* \"#utility.yul\":4371:4377   */\n      dup4\n        /* \"#utility.yul\":4368:4369   */\n      dup2\n        /* \"#utility.yul\":4365:4378   */\n      lt\n        /* \"#utility.yul\":4357:4470   */\n      iszero\n      tag_102\n      jumpi\n        /* \"#utility.yul\":4456:4457   */\n      dup1\n        /* \"#utility.yul\":4451:4454   */\n      dup3\n        /* \"#utility.yul\":4447:4458   */\n      add\n        /* \"#utility.yul\":4441:4459   */\n      mload\n        /* \"#utility.yul\":4437:4438   */\n      dup2\n        /* \"#utility.yul\":4432:4435   */\n      dup5\n        /* \"#utility.yul\":4428:4439   */\n      add\n        /* \"#utility.yul\":4421:4460   */\n      mstore\n        /* \"#utility.yul\":4393:4395   */\n      0x20\n        /* \"#utility.yul\":4390:4391   */\n      dup2\n        /* \"#utility.yul\":4386:4396   */\n      add\n        /* \"#utility.yul\":4381:4396   */\n      swap1\n      pop\n        /* \"#utility.yul\":4357:4470   */\n      jump(tag_100)\n    tag_102:\n        /* \"#utility.yul\":4488:4494   */\n      dup4\n        /* \"#utility.yul\":4485:4486   */\n      dup2\n        /* \"#utility.yul\":4482:4495   */\n      gt\n        /* \"#utility.yul\":4479:4481   */\n      iszero\n      tag_103\n      jumpi\n        /* \"#utility.yul\":4568:4569   */\n      0x00\n        /* \"#utility.yul\":4559:4565   */\n      dup5\n        /* \"#utility.yul\":4554:4557   */\n      dup5\n        /* \"#utility.yul\":4550:4566   */\n      add\n        /* \"#utility.yul\":4543:4570   */\n      mstore\n        /* \"#utility.yul\":4479:4481   */\n    tag_103:\n        /* \"#utility.yul\":4328:4586   */\n      pop\n      pop\n      pop\n      pop\n      jump\t// out\n        /* \"#utility.yul\":4592:4912   */\n    tag_22:\n      0x00\n        /* \"#utility.yul\":4673:4674   */\n      0x02\n        /* \"#utility.yul\":4667:4671   */\n      dup3\n        /* \"#utility.yul\":4663:4675   */\n      div\n        /* \"#utility.yul\":4653:4675   */\n      swap1\n      pop\n        /* \"#utility.yul\":4720:4721   */\n      0x01\n        /* \"#utility.yul\":4714:4718   */\n      dup3\n        /* \"#utility.yul\":4710:4722   */\n      and\n        /* \"#utility.yul\":4741:4759   */\n      dup1\n        /* \"#utility.yul\":4731:4733   */\n      tag_105\n      jumpi\n        /* \"#utility.yul\":4797:4801   */\n      0x7f\n        /* \"#utility.yul\":4789:4795   */\n      dup3\n        /* \"#utility.yul\":4785:4802   */\n      and\n        /* \"#utility.yul\":4775:4802   */\n      swap2\n      pop\n        /* \"#utility.yul\":4731:4733   */\n    tag_105:\n        /* \"#utility.yul\":4859:4861   */\n      0x20\n        /* \"#utility.yul\":4851:4857   */\n      dup3\n        /* \"#utility.yul\":4848:4862   */\n      lt\n        /* \"#utility.yul\":4828:4846   */\n      dup2\n        /* \"#utility.yul\":4825:4863   */\n      eq\n        /* \"#utility.yul\":4822:4824   */\n      iszero\n      tag_106\n      jumpi\n        /* \"#utility.yul\":4878:4896   */\n      tag_107\n      tag_108\n      jump\t// in\n    tag_107:\n        /* \"#utility.yul\":4822:4824   */\n    tag_106:\n        /* \"#utility.yul\":4643:4912   */\n      pop\n      swap2\n      swap1\n      pop\n      jump\t// out\n        /* \"#utility.yul\":4918:5098   */\n    tag_109:\n        /* \"#utility.yul\":4966:5043   */\n      0x4e487b7100000000000000000000000000000000000000000000000000000000\n        /* \"#utility.yul\":4963:4964   */\n      0x00\n        /* \"#utility.yul\":4956:5044   */\n      mstore\n        /* \"#utility.yul\":5063:5067   */\n      0x21\n        /* \"#utility.yul\":5060:5061   */\n      0x04\n        /* \"#utility.yul\":5053:5068   */\n      mstore\n        /* \"#utility.yul\":5087:5091   */\n      0x24\n        /* \"#utility.yul\":5084:5085   */\n      0x00\n        /* \"#utility.yul\":5077:5092   */\n      revert\n        /* \"#utility.yul\":5104:5284   */\n    tag_108:\n        /* \"#utility.yul\":5152:5229   */\n      0x4e487b7100000000000000000000000000000000000000000000000000000000\n        /* \"#utility.yul\":5149:5150   */\n      0x00\n        /* \"#utility.yul\":5142:5230   */\n      mstore\n        /* \"#utility.yul\":5249:5253   */\n      0x22\n        /* \"#utility.yul\":5246:5247   */\n      0x04\n        /* \"#utility.yul\":5239:5254   */\n      mstore\n        /* \"#utility.yul\":5273:5277   */\n      0x24\n        /* \"#utility.yul\":5270:5271   */\n      0x00\n        /* \"#utility.yul\":5263:5278   */\n      revert\n        /* \"#utility.yul\":5290:5392   */\n    tag_61:\n      0x00\n        /* \"#utility.yul\":5382:5384   */\n      0x1f\n        /* \"#utility.yul\":5378:5385   */\n      not\n        /* \"#utility.yul\":5373:5375   */\n      0x1f\n        /* \"#utility.yul\":5366:5371   */\n      dup4\n        /* \"#utility.yul\":5362:5376   */\n      add\n        /* \"#utility.yul\":5358:5386   */\n      and\n        /* \"#utility.yul\":5348:5386   */\n      swap1\n      pop\n        /* \"#utility.yul\":5338:5392   */\n      swap2\n      swap1\n      pop\n      jump\t// out\n        /* \"#utility.yul\":5398:5511   */\n    tag_88:\n        /* \"#utility.yul\":5479:5480   */\n      0x07\n        /* \"#utility.yul\":5472:5477   */\n      dup2\n        /* \"#utility.yul\":5469:5481   */\n      lt\n        /* \"#utility.yul\":5459:5461   */\n      tag_114\n      jumpi\n        /* \"#utility.yul\":5485:5503   */\n      tag_115\n      tag_109\n      jump\t// in\n    tag_115:\n        /* \"#utility.yul\":5459:5461   */\n    tag_114:\n        /* \"#utility.yul\":5449:5511   */\n      pop\n      jump\t// out\n        /* \"#utility.yul\":5517:5635   */\n    tag_92:\n        /* \"#utility.yul\":5603:5604   */\n      0x04\n        /* \"#utility.yul\":5596:5601   */\n      dup2\n        /* \"#utility.yul\":5593:5605   */\n      lt\n        /* \"#utility.yul\":5583:5585   */\n      tag_117\n      jumpi\n        /* \"#utility.yul\":5609:5627   */\n      tag_118\n      tag_109\n      jump\t// in\n    tag_118:\n        /* \"#utility.yul\":5583:5585   */\n    tag_117:\n        /* \"#utility.yul\":5573:5635   */\n      pop\n      jump\t// out\n        /* \"#utility.yul\":5641:5763   */\n    tag_36:\n        /* \"#utility.yul\":5714:5738   */\n      tag_120\n        /* \"#utility.yul\":5732:5737   */\n      dup2\n        /* \"#utility.yul\":5714:5738   */\n      tag_65\n      jump\t// in\n    tag_120:\n        /* \"#utility.yul\":5707:5712   */\n      dup2\n        /* \"#utility.yul\":5704:5739   */\n      eq\n        /* \"#utility.yul\":5694:5696   */\n      tag_121\n      jumpi\n        /* \"#utility.yul\":5753:5754   */\n      0x00\n        /* \"#utility.yul\":5750:5751   */\n      dup1\n        /* \"#utility.yul\":5743:5755   */\n      revert\n        /* \"#utility.yul\":5694:5696   */\n    tag_121:\n        /* \"#utility.yul\":5684:5763   */\n      pop\n      jump\t// out\n\n    auxdata: 0xa26469706673582212200f6d392cb5a604c432108e4bccd5689bd2c4dce073644c1ce2934070e046deb464736f6c63430008000033\n}\n",
				"bytecode": {
					"linkReferences": {},
					"object": "608060405260008055600060025534801561001957600080fd5b5033600560006101000a81548173ffffffffffffffffffffffffffffffffffffffff021916908373ffffffffffffffffffffffffffffffffffffffff1602179055506106358061006a6000396000f3fe608060405234801561001057600080fd5b50600436106100415760003560e01c806317b47cc41461004657806335c1d3491461007a5780638da5cb5b146100ae575b600080fd5b610060600480360381019061005b91906102dd565b6100cc565b604051610071959493929190610396565b60405180910390f35b610094600480360381019061008f91906102dd565b6101b7565b6040516100a59594939291906103f0565b60405180910390f35b6100b66102a2565b6040516100c3919061037b565b60405180910390f35b60016020528060005260406000206000915090508060000180546100ef9061051f565b80601f016020809104026020016040519081016040528092919081815260200182805461011b9061051f565b80156101685780601f1061013d57610100808354040283529160200191610168565b820191906000526020600020905b81548152906001019060200180831161014b57829003601f168201915b5050505050908060010154908060020160009054906101000a900473ffffffffffffffffffffffffffffffffffffffff16908060020160149054906101000a900460ff16908060030154905085565b60036020528060005260406000206000915090508060000180546101da9061051f565b80601f01602080910402602001604051908101604052809291908181526020018280546102069061051f565b80156102535780601f1061022857610100808354040283529160200191610253565b820191906000526020600020905b81548152906001019060200180831161023657829003601f168201915b5050505050908060010154908060020160009054906101000a900460ff16908060020160019054906101000a900473ffffffffffffffffffffffffffffffffffffffff16908060030154905085565b600560009054906101000a900473ffffffffffffffffffffffffffffffffffffffff1681565b6000813590506102d7816105e8565b92915050565b6000602082840312156102ef57600080fd5b60006102fd848285016102c8565b91505092915050565b61030f81610466565b82525050565b61031e816104c8565b82525050565b61032d816104da565b82525050565b600061033e8261044a565b6103488185610455565b93506103588185602086016104ec565b610361816105af565b840191505092915050565b610375816104be565b82525050565b60006020820190506103906000830184610306565b92915050565b600060a08201905081810360008301526103b08188610333565b90506103bf602083018761036c565b6103cc6040830186610306565b6103d96060830185610315565b6103e6608083018461036c565b9695505050505050565b600060a082019050818103600083015261040a8188610333565b9050610419602083018761036c565b6104266040830186610324565b6104336060830185610306565b610440608083018461036c565b9695505050505050565b600081519050919050565b600082825260208201905092915050565b60006104718261049e565b9050919050565b6000819050610486826105c0565b919050565b6000819050610499826105d4565b919050565b600073ffffffffffffffffffffffffffffffffffffffff82169050919050565b6000819050919050565b60006104d382610478565b9050919050565b60006104e58261048b565b9050919050565b60005b8381101561050a5780820151818401526020810190506104ef565b83811115610519576000848401525b50505050565b6000600282049050600182168061053757607f821691505b6020821081141561054b5761054a610580565b5b50919050565b7f4e487b7100000000000000000000000000000000000000000000000000000000600052602160045260246000fd5b7f4e487b7100000000000000000000000000000000000000000000000000000000600052602260045260246000fd5b6000601f19601f8301169050919050565b600781106105d1576105d0610551565b5b50565b600481106105e5576105e4610551565b5b50565b6105f1816104be565b81146105fc57600080fd5b5056fea26469706673582212200f6d392cb5a604c432108e4bccd5689bd2c4dce073644c1ce2934070e046deb464736f6c63430008000033",
					"opcodes": "PUSH1 0x80 PUSH1 0x40 MSTORE PUSH1 0x0 DUP1 SSTORE PUSH1 0x0 PUSH1 0x2 SSTORE CALLVALUE DUP1 ISZERO PUSH2 0x19 JUMPI PUSH1 0x0 DUP1 REVERT JUMPDEST POP CALLER PUSH1 0x5 PUSH1 0x0 PUSH2 0x100 EXP DUP2 SLOAD DUP2 PUSH20 0xFFFFFFFFFFFFFFFFFFFFFFFFFFFFFFFFFFFFFFFF MUL NOT AND SWAP1 DUP4 PUSH20 0xFFFFFFFFFFFFFFFFFFFFFFFFFFFFFFFFFFFFFFFF AND MUL OR SWAP1 SSTORE POP PUSH2 0x635 DUP1 PUSH2 0x6A PUSH1 0x0 CODECOPY PUSH1 0x0 RETURN INVALID PUSH1 0x80 PUSH1 0x40 MSTORE CALLVALUE DUP1 ISZERO PUSH2 0x10 JUMPI PUSH1 0x0 DUP1 REVERT JUMPDEST POP PUSH1 0x4 CALLDATASIZE LT PUSH2 0x41 JUMPI PUSH1 0x0 CALLDATALOAD PUSH1 0xE0 SHR DUP1 PUSH4 0x17B47CC4 EQ PUSH2 0x46 JUMPI DUP1 PUSH4 0x35C1D349 EQ PUSH2 0x7A JUMPI DUP1 PUSH4 0x8DA5CB5B EQ PUSH2 0xAE JUMPI JUMPDEST PUSH1 0x0 DUP1 REVERT JUMPDEST PUSH2 0x60 PUSH1 0x4 DUP1 CALLDATASIZE SUB DUP2 ADD SWAP1 PUSH2 0x5B SWAP2 SWAP1 PUSH2 0x2DD JUMP JUMPDEST PUSH2 0xCC JUMP JUMPDEST PUSH1 0x40 MLOAD PUSH2 0x71 SWAP6 SWAP5 SWAP4 SWAP3 SWAP2 SWAP1 PUSH2 0x396 JUMP JUMPDEST PUSH1 0x40 MLOAD DUP1 SWAP2 SUB SWAP1 RETURN JUMPDEST PUSH2 0x94 PUSH1 0x4 DUP1 CALLDATASIZE SUB DUP2 ADD SWAP1 PUSH2 0x8F SWAP2 SWAP1 PUSH2 0x2DD JUMP JUMPDEST PUSH2 0x1B7 JUMP JUMPDEST PUSH1 0x40 MLOAD PUSH2 0xA5 SWAP6 SWAP5 SWAP4 SWAP3 SWAP2 SWAP1 PUSH2 0x3F0 JUMP JUMPDEST PUSH1 0x40 MLOAD DUP1 SWAP2 SUB SWAP1 RETURN JUMPDEST PUSH2 0xB6 PUSH2 0x2A2 JUMP JUMPDEST PUSH1 0x40 MLOAD PUSH2 0xC3 SWAP2 SWAP1 PUSH2 0x37B JUMP JUMPDEST PUSH1 0x40 MLOAD DUP1 SWAP2 SUB SWAP1 RETURN JUMPDEST PUSH1 0x1 PUSH1 0x20 MSTORE DUP1 PUSH1 0x0 MSTORE PUSH1 0x40 PUSH1 0x0 KECCAK256 PUSH1 0x0 SWAP2 POP SWAP1 POP DUP1 PUSH1 0x0 ADD DUP1 SLOAD PUSH2 0xEF SWAP1 PUSH2 0x51F JUMP JUMPDEST DUP1 PUSH1 0x1F ADD PUSH1 0x20 DUP1 SWAP2 DIV MUL PUSH1 0x20 ADD PUSH1 0x40 MLOAD SWAP1 DUP2 ADD PUSH1 0x40 MSTORE DUP1 SWAP3 SWAP2 SWAP1 DUP2 DUP2 MSTORE PUSH1 0x20 ADD DUP3 DUP1 SLOAD PUSH2 0x11B SWAP1 PUSH2 0x51F JUMP JUMPDEST DUP1 ISZERO PUSH2 0x168 JUMPI DUP1 PUSH1 0x1F LT PUSH2 0x13D JUMPI PUSH2 0x100 DUP1 DUP4 SLOAD DIV MUL DUP4 MSTORE SWAP2 PUSH1 0x20 ADD SWAP2 PUSH2 0x168 JUMP JUMPDEST DUP3 ADD SWAP2 SWAP1 PUSH1 0x0 MSTORE PUSH1 0x20 PUSH1 0x0 KECCAK256 SWAP1 JUMPDEST DUP2 SLOAD DUP2 MSTORE SWAP1 PUSH1 0x1 ADD SWAP1 PUSH1 0x20 ADD DUP1 DUP4 GT PUSH2 0x14B JUMPI DUP3 SWAP1 SUB PUSH1 0x1F AND DUP3 ADD SWAP2 JUMPDEST POP POP POP POP POP SWAP1 DUP1 PUSH1 0x1 ADD SLOAD SWAP1 DUP1 PUSH1 0x2 ADD PUSH1 0x0 SWAP1 SLOAD SWAP1 PUSH2 0x100 EXP SWAP1 DIV PUSH20 0xFFFFFFFFFFFFFFFFFFFFFFFFFFFFFFFFFFFFFFFF AND SWAP1 DUP1 PUSH1 0x2 ADD PUSH1 0x14 SWAP1 SLOAD SWAP1 PUSH2 0x100 EXP SWAP1 DIV PUSH1 0xFF AND SWAP1 DUP1 PUSH1 0x3 ADD SLOAD SWAP1 POP DUP6 JUMP JUMPDEST PUSH1 0x3 PUSH1 0x20 MSTORE DUP1 PUSH1 0x0 MSTORE PUSH1 0x40 PUSH1 0x0 KECCAK256 PUSH1 0x0 SWAP2 POP SWAP1 POP DUP1 PUSH1 0x0 ADD DUP1 SLOAD PUSH2 0x1DA SWAP1 PUSH2 0x51F JUMP JUMPDEST DUP1 PUSH1 0x1F ADD PUSH1 0x20 DUP1 SWAP2 DIV MUL PUSH1 0x20 ADD PUSH1 0x40 MLOAD SWAP1 DUP2 ADD PUSH1 0x40 MSTORE DUP1 SWAP3 SWAP2 SWAP1 DUP2 DUP2 MSTORE PUSH1 0x20 ADD DUP3 DUP1 SLOAD PUSH2 0x206 SWAP1 PUSH2 0x51F JUMP JUMPDEST DUP1 ISZERO PUSH2 0x253 JUMPI DUP1 PUSH1 0x1F LT PUSH2 0x228 JUMPI PUSH2 0x100 DUP1 DUP4 SLOAD DIV MUL DUP4 MSTORE SWAP2 PUSH1 0x20 ADD SWAP2 PUSH2 0x253 JUMP JUMPDEST DUP3 ADD SWAP2 SWAP1 PUSH1 0x0 MSTORE PUSH1 0x20 PUSH1 0x0 KECCAK256 SWAP1 JUMPDEST DUP2 SLOAD DUP2 MSTORE SWAP1 PUSH1 0x1 ADD SWAP1 PUSH1 0x20 ADD DUP1 DUP4 GT PUSH2 0x236 JUMPI DUP3 SWAP1 SUB PUSH1 0x1F AND DUP3 ADD SWAP2 JUMPDEST POP POP POP POP POP SWAP1 DUP1 PUSH1 0x1 ADD SLOAD SWAP1 DUP1 PUSH1 0x2 ADD PUSH1 0x0 SWAP1 SLOAD SWAP1 PUSH2 0x100 EXP SWAP1 DIV PUSH1 0xFF AND SWAP1 DUP1 PUSH1 0x2 ADD PUSH1 0x1 SWAP1 SLOAD SWAP1 PUSH2 0x100 EXP SWAP1 DIV PUSH20 0xFFFFFFFFFFFFFFFFFFFFFFFFFFFFFFFFFFFFFFFF AND SWAP1 DUP1 PUSH1 0x3 ADD SLOAD SWAP1 POP DUP6 JUMP JUMPDEST PUSH1 0x5 PUSH1 0x0 SWAP1 SLOAD SWAP1 PUSH2 0x100 EXP SWAP1 DIV PUSH20 0xFFFFFFFFFFFFFFFFFFFFFFFFFFFFFFFFFFFFFFFF AND DUP2 JUMP JUMPDEST PUSH1 0x0 DUP2 CALLDATALOAD SWAP1 POP PUSH2 0x2D7 DUP2 PUSH2 0x5E8 JUMP JUMPDEST SWAP3 SWAP2 POP POP JUMP JUMPDEST PUSH1 0x0 PUSH1 0x20 DUP3 DUP5 SUB SLT ISZERO PUSH2 0x2EF JUMPI PUSH1 0x0 DUP1 REVERT JUMPDEST PUSH1 0x0 PUSH2 0x2FD DUP5 DUP3 DUP6 ADD PUSH2 0x2C8 JUMP JUMPDEST SWAP2 POP POP SWAP3 SWAP2 POP POP JUMP JUMPDEST PUSH2 0x30F DUP2 PUSH2 0x466 JUMP JUMPDEST DUP3 MSTORE POP POP JUMP JUMPDEST PUSH2 0x31E DUP2 PUSH2 0x4C8 JUMP JUMPDEST DUP3 MSTORE POP POP JUMP JUMPDEST PUSH2 0x32D DUP2 PUSH2 0x4DA JUMP JUMPDEST DUP3 MSTORE POP POP JUMP JUMPDEST PUSH1 0x0 PUSH2 0x33E DUP3 PUSH2 0x44A JUMP JUMPDEST PUSH2 0x348 DUP2 DUP6 PUSH2 0x455 JUMP JUMPDEST SWAP4 POP PUSH2 0x358 DUP2 DUP6 PUSH1 0x20 DUP7 ADD PUSH2 0x4EC JUMP JUMPDEST PUSH2 0x361 DUP2 PUSH2 0x5AF JUMP JUMPDEST DUP5 ADD SWAP2 POP POP SWAP3 SWAP2 POP POP JUMP JUMPDEST PUSH2 0x375 DUP2 PUSH2 0x4BE JUMP JUMPDEST DUP3 MSTORE POP POP JUMP JUMPDEST PUSH1 0x0 PUSH1 0x20 DUP3 ADD SWAP1 POP PUSH2 0x390 PUSH1 0x0 DUP4 ADD DUP5 PUSH2 0x306 JUMP JUMPDEST SWAP3 SWAP2 POP POP JUMP JUMPDEST PUSH1 0x0 PUSH1 0xA0 DUP3 ADD SWAP1 POP DUP2 DUP2 SUB PUSH1 0x0 DUP4 ADD MSTORE PUSH2 0x3B0 DUP2 DUP9 PUSH2 0x333 JUMP JUMPDEST SWAP1 POP PUSH2 0x3BF PUSH1 0x20 DUP4 ADD DUP8 PUSH2 0x36C JUMP JUMPDEST PUSH2 0x3CC PUSH1 0x40 DUP4 ADD DUP7 PUSH2 0x306 JUMP JUMPDEST PUSH2 0x3D9 PUSH1 0x60 DUP4 ADD DUP6 PUSH2 0x315 JUMP JUMPDEST PUSH2 0x3E6 PUSH1 0x80 DUP4 ADD DUP5 PUSH2 0x36C JUMP JUMPDEST SWAP7 SWAP6 POP POP POP POP POP POP JUMP JUMPDEST PUSH1 0x0 PUSH1 0xA0 DUP3 ADD SWAP1 POP DUP2 DUP2 SUB PUSH1 0x0 DUP4 ADD MSTORE PUSH2 0x40A DUP2 DUP9 PUSH2 0x333 JUMP JUMPDEST SWAP1 POP PUSH2 0x419 PUSH1 0x20 DUP4 ADD DUP8 PUSH2 0x36C JUMP JUMPDEST PUSH2 0x426 PUSH1 0x40 DUP4 ADD DUP7 PUSH2 0x324 JUMP JUMPDEST PUSH2 0x433 PUSH1 0x60 DUP4 ADD DUP6 PUSH2 0x306 JUMP JUMPDEST PUSH2 0x440 PUSH1 0x80 DUP4 ADD DUP5 PUSH2 0x36C JUMP JUMPDEST SWAP7 SWAP6 POP POP POP POP POP POP JUMP JUMPDEST PUSH1 0x0 DUP2 MLOAD SWAP1 POP SWAP2 SWAP1 POP JUMP JUMPDEST PUSH1 0x0 DUP3 DUP3 MSTORE PUSH1 0x20 DUP3 ADD SWAP1 POP SWAP3 SWAP2 POP POP JUMP JUMPDEST PUSH1 0x0 PUSH2 0x471 DUP3 PUSH2 0x49E JUMP JUMPDEST SWAP1 POP SWAP2 SWAP1 POP JUMP JUMPDEST PUSH1 0x0 DUP2 SWAP1 POP PUSH2 0x486 DUP3 PUSH2 0x5C0 JUMP JUMPDEST SWAP2 SWAP1 POP JUMP JUMPDEST PUSH1 0x0 DUP2 SWAP1 POP PUSH2 0x499 DUP3 PUSH2 0x5D4 JUMP JUMPDEST SWAP2 SWAP1 POP JUMP JUMPDEST PUSH1 0x0 PUSH20 0xFFFFFFFFFFFFFFFFFFFFFFFFFFFFFFFFFFFFFFFF DUP3 AND SWAP1 POP SWAP2 SWAP1 POP JUMP JUMPDEST PUSH1 0x0 DUP2 SWAP1 POP SWAP2 SWAP1 POP JUMP JUMPDEST PUSH1 0x0 PUSH2 0x4D3 DUP3 PUSH2 0x478 JUMP JUMPDEST SWAP1 POP SWAP2 SWAP1 POP JUMP JUMPDEST PUSH1 0x0 PUSH2 0x4E5 DUP3 PUSH2 0x48B JUMP JUMPDEST SWAP1 POP SWAP2 SWAP1 POP JUMP JUMPDEST PUSH1 0x0 JUMPDEST DUP4 DUP2 LT ISZERO PUSH2 0x50A JUMPI DUP1 DUP3 ADD MLOAD DUP2 DUP5 ADD MSTORE PUSH1 0x20 DUP2 ADD SWAP1 POP PUSH2 0x4EF JUMP JUMPDEST DUP4 DUP2 GT ISZERO PUSH2 0x519 JUMPI PUSH1 0x0 DUP5 DUP5 ADD MSTORE JUMPDEST POP POP POP POP JUMP JUMPDEST PUSH1 0x0 PUSH1 0x2 DUP3 DIV SWAP1 POP PUSH1 0x1 DUP3 AND DUP1 PUSH2 0x537 JUMPI PUSH1 0x7F DUP3 AND SWAP2 POP JUMPDEST PUSH1 0x20 DUP3 LT DUP2 EQ ISZERO PUSH2 0x54B JUMPI PUSH2 0x54A PUSH2 0x580 JUMP JUMPDEST JUMPDEST POP SWAP2 SWAP1 POP JUMP JUMPDEST PUSH32 0x4E487B7100000000000000000000000000000000000000000000000000000000 PUSH1 0x0 MSTORE PUSH1 0x21 PUSH1 0x4 MSTORE PUSH1 0x24 PUSH1 0x0 REVERT JUMPDEST PUSH32 0x4E487B7100000000000000000000000000000000000000000000000000000000 PUSH1 0x0 MSTORE PUSH1 0x22 PUSH1 0x4 MSTORE PUSH1 0x24 PUSH1 0x0 REVERT JUMPDEST PUSH1 0x0 PUSH1 0x1F NOT PUSH1 0x1F DUP4 ADD AND SWAP1 POP SWAP2 SWAP1 POP JUMP JUMPDEST PUSH1 0x7 DUP2 LT PUSH2 0x5D1 JUMPI PUSH2 0x5D0 PUSH2 0x551 JUMP JUMPDEST JUMPDEST POP JUMP JUMPDEST PUSH1 0x4 DUP2 LT PUSH2 0x5E5 JUMPI PUSH2 0x5E4 PUSH2 0x551 JUMP JUMPDEST JUMPDEST POP JUMP JUMPDEST PUSH2 0x5F1 DUP2 PUSH2 0x4BE JUMP JUMPDEST DUP2 EQ PUSH2 0x5FC JUMPI PUSH1 0x0 DUP1 REVERT JUMPDEST POP JUMP INVALID LOG2 PUSH5 0x6970667358 0x22 SLT KECCAK256 0xF PUSH14 0x392CB5A604C432108E4BCCD5689B 0xD2 0xC4 0xDC 0xE0 PUSH20 0x644C1CE2934070E046DEB464736F6C6343000800 STOP CALLER "
				},
				"gasEstimates": {
					"creation": {
						"codeDepositCost": "317800",
						"executionCost": "31233",
						"totalCost": "349033"
					},
					"external": {
						"Items(uint256)": "infinite",
						"owner()": "1236",
						"participants(uint256)": "infinite"
					}
				},
				"methodIdentifiers": {
					"Items(uint256)": "17b47cc4",
					"owner()": "8da5cb5b",
					"participants(uint256)": "35c1d349"
				}
			},
			"userdoc": {
				"kind": "user",
				"methods": {},
				"version": 1
			}
		}
	}
}