{
	"contracts/main.sol": {
		"Supplychain": {
			"abi": [
				{
					"anonymous": false,
					"inputs": [
						{
							"indexed": false,
							"internalType": "uint256",
							"name": "upc",
							"type": "uint256"
						}
					],
					"name": "checked",
					"type": "event"
				},
				{
					"anonymous": false,
					"inputs": [
						{
							"indexed": false,
							"internalType": "uint256",
							"name": "upc",
							"type": "uint256"
						},
						{
							"indexed": false,
							"internalType": "address",
							"name": "_address",
							"type": "address"
						}
					],
					"name": "itemcreated",
					"type": "event"
				},
				{
					"anonymous": false,
					"inputs": [
						{
							"indexed": false,
							"internalType": "uint256",
							"name": "upc",
							"type": "uint256"
						}
					],
					"name": "openForSale",
					"type": "event"
				},
				{
					"anonymous": false,
					"inputs": [
						{
							"indexed": false,
							"internalType": "uint256",
							"name": "upc",
							"type": "uint256"
						},
						{
							"indexed": false,
							"internalType": "address",
							"name": "_address",
							"type": "address"
						}
					],
					"name": "orderPlaced",
					"type": "event"
				},
				{
					"anonymous": false,
					"inputs": [
						{
							"indexed": false,
							"internalType": "uint256",
							"name": "upc",
							"type": "uint256"
						},
						{
							"indexed": false,
							"internalType": "address",
							"name": "_address",
							"type": "address"
						}
					],
					"name": "received",
					"type": "event"
				},
				{
					"anonymous": false,
					"inputs": [
						{
							"indexed": false,
							"internalType": "uint256",
							"name": "upc",
							"type": "uint256"
						},
						{
							"indexed": false,
							"internalType": "address",
							"name": "_address",
							"type": "address"
						}
					],
					"name": "shipped",
					"type": "event"
				},
				{
					"inputs": [
						{
							"internalType": "uint256",
							"name": "",
							"type": "uint256"
						}
					],
					"name": "Items",
					"outputs": [
						{
							"internalType": "string",
							"name": "product_name",
							"type": "string"
						},
						{
							"internalType": "uint256",
							"name": "productId",
							"type": "uint256"
						},
						{
							"internalType": "address",
							"name": "itemOwner",
							"type": "address"
						},
						{
							"internalType": "enum Item.state",
							"name": "productState",
							"type": "uint8"
						},
						{
							"internalType": "uint256",
							"name": "cost",
							"type": "uint256"
						}
					],
					"stateMutability": "view",
					"type": "function"
				},
				{
					"inputs": [
						{
							"internalType": "string",
							"name": "_uname",
							"type": "string"
						}
					],
					"name": "addManufacturer",
					"outputs": [],
					"stateMutability": "nonpayable",
					"type": "function"
				},
				{
					"inputs": [
						{
							"internalType": "string",
							"name": "_uname",
							"type": "string"
						}
					],
					"name": "addSupplier",
					"outputs": [],
					"stateMutability": "nonpayable",
					"type": "function"
				},
				{
					"inputs": [
						{
							"internalType": "string",
							"name": "_uname",
							"type": "string"
						}
					],
					"name": "addtransporter",
					"outputs": [],
					"stateMutability": "nonpayable",
					"type": "function"
				},
				{
					"inputs": [],
					"name": "owner",
					"outputs": [
						{
							"internalType": "address",
							"name": "",
							"type": "address"
						}
					],
					"stateMutability": "view",
					"type": "function"
				},
				{
					"inputs": [
						{
							"internalType": "uint256",
							"name": "",
							"type": "uint256"
						}
					],
					"name": "participants",
					"outputs": [
						{
							"internalType": "string",
							"name": "username",
							"type": "string"
						},
						{
							"internalType": "uint256",
							"name": "userId",
							"type": "uint256"
						},
						{
							"internalType": "enum participant.user_type",
							"name": "utype",
							"type": "uint8"
						},
						{
							"internalType": "address",
							"name": "user_address",
							"type": "address"
						},
						{
							"internalType": "uint256",
							"name": "money",
							"type": "uint256"
						}
					],
					"stateMutability": "view",
					"type": "function"
				}
			],
			"devdoc": {
				"kind": "dev",
				"methods": {},
				"version": 1
			},
			"evm": {
				"assembly": "    /* \"contracts/main.sol\":103:2222  contract Supplychain is  Modifier{\r... */\n  mstore(0x40, 0x80)\n    /* \"contracts/item.sol\":54:55  0 */\n  0x00\n    /* \"contracts/item.sol\":46:55  uint ic=0 */\n  dup1\n  sstore\n    /* \"contracts/member.sol\":62:63  0 */\n  0x00\n    /* \"contracts/member.sol\":54:63  uint pc=0 */\n  0x02\n  sstore\n    /* \"contracts/main.sol\":103:2222  contract Supplychain is  Modifier{\r... */\n  callvalue\n  dup1\n  iszero\n  tag_1\n  jumpi\n  0x00\n  dup1\n  revert\ntag_1:\n  pop\n    /* \"contracts/modifier.sol\":189:199  msg.sender */\n  caller\n    /* \"contracts/modifier.sol\":181:186  owner */\n  0x05\n  0x00\n    /* \"contracts/modifier.sol\":181:199  owner = msg.sender */\n  0x0100\n  exp\n  dup2\n  sload\n  dup2\n  0xffffffffffffffffffffffffffffffffffffffff\n  mul\n  not\n  and\n  swap1\n  dup4\n  0xffffffffffffffffffffffffffffffffffffffff\n  and\n  mul\n  or\n  swap1\n  sstore\n  pop\n    /* \"contracts/main.sol\":103:2222  contract Supplychain is  Modifier{\r... */\n  dataSize(sub_0)\n  dup1\n  dataOffset(sub_0)\n  0x00\n  codecopy\n  0x00\n  return\nstop\n\nsub_0: assembly {\n        /* \"contracts/main.sol\":103:2222  contract Supplychain is  Modifier{\r... */\n      mstore(0x40, 0x80)\n      callvalue\n      dup1\n      iszero\n      tag_1\n      jumpi\n      0x00\n      dup1\n      revert\n    tag_1:\n      pop\n      jumpi(tag_2, lt(calldatasize, 0x04))\n      shr(0xe0, calldataload(0x00))\n      dup1\n      0x15533a27\n      eq\n      tag_3\n      jumpi\n      dup1\n      0x17b47cc4\n      eq\n      tag_4\n      jumpi\n      dup1\n      0x2fa5ad1a\n      eq\n      tag_5\n      jumpi\n      dup1\n      0x35c1d349\n      eq\n      tag_6\n      jumpi\n      dup1\n      0x8da5cb5b\n      eq\n      tag_7\n      jumpi\n      dup1\n      0x8f5ae799\n      eq\n      tag_8\n      jumpi\n    tag_2:\n      0x00\n      dup1\n      revert\n        /* \"contracts/main.sol\":414:836  function addSupplier(string memory _uname) public{\r... */\n    tag_3:\n      tag_9\n      0x04\n      dup1\n      calldatasize\n      sub\n      dup2\n      add\n      swap1\n      tag_10\n      swap2\n      swap1\n      tag_11\n      jump\t// in\n    tag_10:\n      tag_12\n      jump\t// in\n    tag_9:\n      stop\n        /* \"contracts/item.sol\":389:421  mapping(uint=>item) public Items */\n    tag_4:\n      tag_13\n      0x04\n      dup1\n      calldatasize\n      sub\n      dup2\n      add\n      swap1\n      tag_14\n      swap2\n      swap1\n      tag_15\n      jump\t// in\n    tag_14:\n      tag_16\n      jump\t// in\n    tag_13:\n      mload(0x40)\n      tag_17\n      swap6\n      swap5\n      swap4\n      swap3\n      swap2\n      swap1\n      tag_18\n      jump\t// in\n    tag_17:\n      mload(0x40)\n      dup1\n      swap2\n      sub\n      swap1\n      return\n        /* \"contracts/main.sol\":841:1280  function addtransporter(string memory _uname) public {\r... */\n    tag_5:\n      tag_19\n      0x04\n      dup1\n      calldatasize\n      sub\n      dup2\n      add\n      swap1\n      tag_20\n      swap2\n      swap1\n      tag_11\n      jump\t// in\n    tag_20:\n      tag_21\n      jump\t// in\n    tag_19:\n      stop\n        /* \"contracts/member.sol\":347:393  mapping(uint=>participant) public participants */\n    tag_6:\n      tag_22\n      0x04\n      dup1\n      calldatasize\n      sub\n      dup2\n      add\n      swap1\n      tag_23\n      swap2\n      swap1\n      tag_15\n      jump\t// in\n    tag_23:\n      tag_24\n      jump\t// in\n    tag_22:\n      mload(0x40)\n      tag_25\n      swap6\n      swap5\n      swap4\n      swap3\n      swap2\n      swap1\n      tag_26\n      jump\t// in\n    tag_25:\n      mload(0x40)\n      dup1\n      swap2\n      sub\n      swap1\n      return\n        /* \"contracts/modifier.sol\":121:141  address public owner */\n    tag_7:\n      tag_27\n      tag_28\n      jump\t// in\n    tag_27:\n      mload(0x40)\n      tag_29\n      swap2\n      swap1\n      tag_30\n      jump\t// in\n    tag_29:\n      mload(0x40)\n      dup1\n      swap2\n      sub\n      swap1\n      return\n        /* \"contracts/main.sol\":1286:1727  function addManufacturer(string memory _uname) public {\r... */\n    tag_8:\n      tag_31\n      0x04\n      dup1\n      calldatasize\n      sub\n      dup2\n      add\n      swap1\n      tag_32\n      swap2\n      swap1\n      tag_11\n      jump\t// in\n    tag_32:\n      tag_33\n      jump\t// in\n    tag_31:\n      stop\n        /* \"contracts/main.sol\":414:836  function addSupplier(string memory _uname) public{\r... */\n    tag_12:\n        /* \"contracts/main.sol\":473:507  participant memory  newParticipant */\n      tag_35\n      tag_36\n      jump\t// in\n    tag_35:\n        /* \"contracts/main.sol\":542:548  _uname */\n      dup2\n        /* \"contracts/main.sol\":517:531  newParticipant */\n      dup2\n        /* \"contracts/main.sol\":517:540  newParticipant.username */\n      0x00\n      add\n        /* \"contracts/main.sol\":517:548  newParticipant.username =_uname */\n      dup2\n      swap1\n      mstore\n      pop\n        /* \"contracts/main.sol\":582:584  pc */\n      sload(0x02)\n        /* \"contracts/main.sol\":558:572  newParticipant */\n      dup2\n        /* \"contracts/main.sol\":558:579  newParticipant.userId */\n      0x20\n      add\n        /* \"contracts/main.sol\":558:584  newParticipant.userId = pc */\n      dup2\n      dup2\n      mstore\n      pop\n      pop\n        /* \"contracts/main.sol\":617:635  user_type.supplier */\n      0x00\n        /* \"contracts/main.sol\":594:608  newParticipant */\n      dup2\n        /* \"contracts/main.sol\":594:614  newParticipant.utype */\n      0x40\n      add\n        /* \"contracts/main.sol\":594:635  newParticipant.utype = user_type.supplier */\n      swap1\n      0x03\n      dup2\n      gt\n      iszero\n      tag_37\n      jumpi\n      mstore(0x00, 0x4e487b7100000000000000000000000000000000000000000000000000000000)\n      mstore(0x04, 0x21)\n      revert(0x00, 0x24)\n    tag_37:\n      swap1\n      dup2\n      0x03\n      dup2\n      gt\n      iszero\n      tag_38\n      jumpi\n      mstore(0x00, 0x4e487b7100000000000000000000000000000000000000000000000000000000)\n      mstore(0x04, 0x21)\n      revert(0x00, 0x24)\n    tag_38:\n      dup2\n      mstore\n      pop\n      pop\n        /* \"contracts/main.sol\":674:684  msg.sender */\n      caller\n        /* \"contracts/main.sol\":645:659  newParticipant */\n      dup2\n        /* \"contracts/main.sol\":645:672  newParticipant.user_address */\n      0x60\n      add\n        /* \"contracts/main.sol\":645:684  newParticipant.user_address =msg.sender */\n      swap1\n      0xffffffffffffffffffffffffffffffffffffffff\n      and\n      swap1\n      dup2\n      0xffffffffffffffffffffffffffffffffffffffff\n      and\n      dup2\n      mstore\n      pop\n      pop\n        /* \"contracts/main.sol\":717:718  0 */\n      0x00\n        /* \"contracts/main.sol\":694:708  newParticipant */\n      dup2\n        /* \"contracts/main.sol\":694:714  newParticipant.money */\n      0x80\n      add\n        /* \"contracts/main.sol\":694:718  newParticipant.money = 0 */\n      dup2\n      dup2\n      mstore\n      pop\n      pop\n        /* \"contracts/main.sol\":745:759  newParticipant */\n      dup1\n        /* \"contracts/main.sol\":728:740  participants */\n      0x03\n        /* \"contracts/main.sol\":728:744  participants[pc] */\n      0x00\n        /* \"contracts/main.sol\":741:743  pc */\n      sload(0x02)\n        /* \"contracts/main.sol\":728:744  participants[pc] */\n      dup2\n      mstore\n      0x20\n      add\n      swap1\n      dup2\n      mstore\n      0x20\n      add\n      0x00\n      keccak256\n        /* \"contracts/main.sol\":728:759  participants[pc]=newParticipant */\n      0x00\n      dup3\n      add\n      mload\n      dup2\n      0x00\n      add\n      swap1\n      dup1\n      mload\n      swap1\n      0x20\n      add\n      swap1\n      tag_39\n      swap3\n      swap2\n      swap1\n      tag_40\n      jump\t// in\n    tag_39:\n      pop\n      0x20\n      dup3\n      add\n      mload\n      dup2\n      0x01\n      add\n      sstore\n      0x40\n      dup3\n      add\n      mload\n      dup2\n      0x02\n      add\n      exp(0x0100, 0x00)\n      dup2\n      sload\n      dup2\n      0xff\n      mul\n      not\n      and\n      swap1\n      dup4\n      0x03\n      dup2\n      gt\n      iszero\n      tag_41\n      jumpi\n      mstore(0x00, 0x4e487b7100000000000000000000000000000000000000000000000000000000)\n      mstore(0x04, 0x21)\n      revert(0x00, 0x24)\n    tag_41:\n      mul\n      or\n      swap1\n      sstore\n      pop\n      0x60\n      dup3\n      add\n      mload\n      dup2\n      0x02\n      add\n      exp(0x0100, 0x01)\n      dup2\n      sload\n      dup2\n      0xffffffffffffffffffffffffffffffffffffffff\n      mul\n      not\n      and\n      swap1\n      dup4\n      0xffffffffffffffffffffffffffffffffffffffff\n      and\n      mul\n      or\n      swap1\n      sstore\n      pop\n      0x80\n      dup3\n      add\n      mload\n      dup2\n      0x03\n      add\n      sstore\n      swap1\n      pop\n      pop\n        /* \"contracts/main.sol\":796:810  newParticipant */\n      dup1\n        /* \"contracts/main.sol\":769:783  participantsId */\n      0x04\n        /* \"contracts/main.sol\":769:795  participantsId[msg.sender] */\n      0x00\n        /* \"contracts/main.sol\":784:794  msg.sender */\n      caller\n        /* \"contracts/main.sol\":769:795  participantsId[msg.sender] */\n      0xffffffffffffffffffffffffffffffffffffffff\n      and\n      0xffffffffffffffffffffffffffffffffffffffff\n      and\n      dup2\n      mstore\n      0x20\n      add\n      swap1\n      dup2\n      mstore\n      0x20\n      add\n      0x00\n      keccak256\n        /* \"contracts/main.sol\":769:810  participantsId[msg.sender]=newParticipant */\n      0x00\n      dup3\n      add\n      mload\n      dup2\n      0x00\n      add\n      swap1\n      dup1\n      mload\n      swap1\n      0x20\n      add\n      swap1\n      tag_42\n      swap3\n      swap2\n      swap1\n      tag_40\n      jump\t// in\n    tag_42:\n      pop\n      0x20\n      dup3\n      add\n      mload\n      dup2\n      0x01\n      add\n      sstore\n      0x40\n      dup3\n      add\n      mload\n      dup2\n      0x02\n      add\n      exp(0x0100, 0x00)\n      dup2\n      sload\n      dup2\n      0xff\n      mul\n      not\n      and\n      swap1\n      dup4\n      0x03\n      dup2\n      gt\n      iszero\n      tag_43\n      jumpi\n      mstore(0x00, 0x4e487b7100000000000000000000000000000000000000000000000000000000)\n      mstore(0x04, 0x21)\n      revert(0x00, 0x24)\n    tag_43:\n      mul\n      or\n      swap1\n      sstore\n      pop\n      0x60\n      dup3\n      add\n      mload\n      dup2\n      0x02\n      add\n      exp(0x0100, 0x01)\n      dup2\n      sload\n      dup2\n      0xffffffffffffffffffffffffffffffffffffffff\n      mul\n      not\n      and\n      swap1\n      dup4\n      0xffffffffffffffffffffffffffffffffffffffff\n      and\n      mul\n      or\n      swap1\n      sstore\n      pop\n      0x80\n      dup3\n      add\n      mload\n      dup2\n      0x03\n      add\n      sstore\n      swap1\n      pop\n      pop\n        /* \"contracts/main.sol\":826:827  1 */\n      0x01\n        /* \"contracts/main.sol\":823:825  pc */\n      sload(0x02)\n        /* \"contracts/main.sol\":823:827  pc+1 */\n      tag_44\n      swap2\n      swap1\n      tag_45\n      jump\t// in\n    tag_44:\n        /* \"contracts/main.sol\":820:822  pc */\n      0x02\n        /* \"contracts/main.sol\":820:827  pc=pc+1 */\n      dup2\n      swap1\n      sstore\n      pop\n        /* \"contracts/main.sol\":414:836  function addSupplier(string memory _uname) public{\r... */\n      pop\n      pop\n      jump\t// out\n        /* \"contracts/item.sol\":389:421  mapping(uint=>item) public Items */\n    tag_16:\n      mstore(0x20, 0x01)\n      dup1\n      0x00\n      mstore\n      keccak256(0x00, 0x40)\n      0x00\n      swap2\n      pop\n      swap1\n      pop\n      dup1\n      0x00\n      add\n      dup1\n      sload\n      tag_46\n      swap1\n      tag_47\n      jump\t// in\n    tag_46:\n      dup1\n      0x1f\n      add\n      0x20\n      dup1\n      swap2\n      div\n      mul\n      0x20\n      add\n      mload(0x40)\n      swap1\n      dup2\n      add\n      0x40\n      mstore\n      dup1\n      swap3\n      swap2\n      swap1\n      dup2\n      dup2\n      mstore\n      0x20\n      add\n      dup3\n      dup1\n      sload\n      tag_48\n      swap1\n      tag_47\n      jump\t// in\n    tag_48:\n      dup1\n      iszero\n      tag_49\n      jumpi\n      dup1\n      0x1f\n      lt\n      tag_50\n      jumpi\n      0x0100\n      dup1\n      dup4\n      sload\n      div\n      mul\n      dup4\n      mstore\n      swap2\n      0x20\n      add\n      swap2\n      jump(tag_49)\n    tag_50:\n      dup3\n      add\n      swap2\n      swap1\n      0x00\n      mstore\n      keccak256(0x00, 0x20)\n      swap1\n    tag_51:\n      dup2\n      sload\n      dup2\n      mstore\n      swap1\n      0x01\n      add\n      swap1\n      0x20\n      add\n      dup1\n      dup4\n      gt\n      tag_51\n      jumpi\n      dup3\n      swap1\n      sub\n      0x1f\n      and\n      dup3\n      add\n      swap2\n    tag_49:\n      pop\n      pop\n      pop\n      pop\n      pop\n      swap1\n      dup1\n      0x01\n      add\n      sload\n      swap1\n      dup1\n      0x02\n      add\n      0x00\n      swap1\n      sload\n      swap1\n      0x0100\n      exp\n      swap1\n      div\n      0xffffffffffffffffffffffffffffffffffffffff\n      and\n      swap1\n      dup1\n      0x02\n      add\n      0x14\n      swap1\n      sload\n      swap1\n      0x0100\n      exp\n      swap1\n      div\n      0xff\n      and\n      swap1\n      dup1\n      0x03\n      add\n      sload\n      swap1\n      pop\n      dup6\n      jump\t// out\n        /* \"contracts/main.sol\":841:1280  function addtransporter(string memory _uname) public {\r... */\n    tag_21:\n        /* \"contracts/main.sol\":905:938  participant memory newParticipant */\n      tag_53\n      tag_36\n      jump\t// in\n    tag_53:\n        /* \"contracts/main.sol\":975:981  _uname */\n      dup2\n        /* \"contracts/main.sol\":950:964  newParticipant */\n      dup2\n        /* \"contracts/main.sol\":950:973  newParticipant.username */\n      0x00\n      add\n        /* \"contracts/main.sol\":950:981  newParticipant.username =_uname */\n      dup2\n      swap1\n      mstore\n      pop\n        /* \"contracts/main.sol\":1016:1018  pc */\n      sload(0x02)\n        /* \"contracts/main.sol\":992:1006  newParticipant */\n      dup2\n        /* \"contracts/main.sol\":992:1013  newParticipant.userId */\n      0x20\n      add\n        /* \"contracts/main.sol\":992:1018  newParticipant.userId = pc */\n      dup2\n      dup2\n      mstore\n      pop\n      pop\n        /* \"contracts/main.sol\":1052:1053  0 */\n      0x00\n        /* \"contracts/main.sol\":1029:1043  newParticipant */\n      dup2\n        /* \"contracts/main.sol\":1029:1049  newParticipant.money */\n      0x80\n      add\n        /* \"contracts/main.sol\":1029:1053  newParticipant.money = 0 */\n      dup2\n      dup2\n      mstore\n      pop\n      pop\n        /* \"contracts/main.sol\":1086:1107  user_type.transporter */\n      0x01\n        /* \"contracts/main.sol\":1064:1078  newParticipant */\n      dup2\n        /* \"contracts/main.sol\":1064:1084  newParticipant.utype */\n      0x40\n      add\n        /* \"contracts/main.sol\":1064:1107  newParticipant.utype= user_type.transporter */\n      swap1\n      0x03\n      dup2\n      gt\n      iszero\n      tag_54\n      jumpi\n      mstore(0x00, 0x4e487b7100000000000000000000000000000000000000000000000000000000)\n      mstore(0x04, 0x21)\n      revert(0x00, 0x24)\n    tag_54:\n      swap1\n      dup2\n      0x03\n      dup2\n      gt\n      iszero\n      tag_55\n      jumpi\n      mstore(0x00, 0x4e487b7100000000000000000000000000000000000000000000000000000000)\n      mstore(0x04, 0x21)\n      revert(0x00, 0x24)\n    tag_55:\n      dup2\n      mstore\n      pop\n      pop\n        /* \"contracts/main.sol\":1148:1158  msg.sender */\n      caller\n        /* \"contracts/main.sol\":1118:1132  newParticipant */\n      dup2\n        /* \"contracts/main.sol\":1118:1145  newParticipant.user_address */\n      0x60\n      add\n        /* \"contracts/main.sol\":1118:1158  newParticipant.user_address = msg.sender */\n      swap1\n      0xffffffffffffffffffffffffffffffffffffffff\n      and\n      swap1\n      dup2\n      0xffffffffffffffffffffffffffffffffffffffff\n      and\n      dup2\n      mstore\n      pop\n      pop\n        /* \"contracts/main.sol\":1186:1200  newParticipant */\n      dup1\n        /* \"contracts/main.sol\":1169:1181  participants */\n      0x03\n        /* \"contracts/main.sol\":1169:1185  participants[pc] */\n      0x00\n        /* \"contracts/main.sol\":1182:1184  pc */\n      sload(0x02)\n        /* \"contracts/main.sol\":1169:1185  participants[pc] */\n      dup2\n      mstore\n      0x20\n      add\n      swap1\n      dup2\n      mstore\n      0x20\n      add\n      0x00\n      keccak256\n        /* \"contracts/main.sol\":1169:1200  participants[pc]=newParticipant */\n      0x00\n      dup3\n      add\n      mload\n      dup2\n      0x00\n      add\n      swap1\n      dup1\n      mload\n      swap1\n      0x20\n      add\n      swap1\n      tag_56\n      swap3\n      swap2\n      swap1\n      tag_40\n      jump\t// in\n    tag_56:\n      pop\n      0x20\n      dup3\n      add\n      mload\n      dup2\n      0x01\n      add\n      sstore\n      0x40\n      dup3\n      add\n      mload\n      dup2\n      0x02\n      add\n      exp(0x0100, 0x00)\n      dup2\n      sload\n      dup2\n      0xff\n      mul\n      not\n      and\n      swap1\n      dup4\n      0x03\n      dup2\n      gt\n      iszero\n      tag_57\n      jumpi\n      mstore(0x00, 0x4e487b7100000000000000000000000000000000000000000000000000000000)\n      mstore(0x04, 0x21)\n      revert(0x00, 0x24)\n    tag_57:\n      mul\n      or\n      swap1\n      sstore\n      pop\n      0x60\n      dup3\n      add\n      mload\n      dup2\n      0x02\n      add\n      exp(0x0100, 0x01)\n      dup2\n      sload\n      dup2\n      0xffffffffffffffffffffffffffffffffffffffff\n      mul\n      not\n      and\n      swap1\n      dup4\n      0xffffffffffffffffffffffffffffffffffffffff\n      and\n      mul\n      or\n      swap1\n      sstore\n      pop\n      0x80\n      dup3\n      add\n      mload\n      dup2\n      0x03\n      add\n      sstore\n      swap1\n      pop\n      pop\n        /* \"contracts/main.sol\":1238:1252  newParticipant */\n      dup1\n        /* \"contracts/main.sol\":1211:1225  participantsId */\n      0x04\n        /* \"contracts/main.sol\":1211:1237  participantsId[msg.sender] */\n      0x00\n        /* \"contracts/main.sol\":1226:1236  msg.sender */\n      caller\n        /* \"contracts/main.sol\":1211:1237  participantsId[msg.sender] */\n      0xffffffffffffffffffffffffffffffffffffffff\n      and\n      0xffffffffffffffffffffffffffffffffffffffff\n      and\n      dup2\n      mstore\n      0x20\n      add\n      swap1\n      dup2\n      mstore\n      0x20\n      add\n      0x00\n      keccak256\n        /* \"contracts/main.sol\":1211:1252  participantsId[msg.sender]=newParticipant */\n      0x00\n      dup3\n      add\n      mload\n      dup2\n      0x00\n      add\n      swap1\n      dup1\n      mload\n      swap1\n      0x20\n      add\n      swap1\n      tag_58\n      swap3\n      swap2\n      swap1\n      tag_40\n      jump\t// in\n    tag_58:\n      pop\n      0x20\n      dup3\n      add\n      mload\n      dup2\n      0x01\n      add\n      sstore\n      0x40\n      dup3\n      add\n      mload\n      dup2\n      0x02\n      add\n      exp(0x0100, 0x00)\n      dup2\n      sload\n      dup2\n      0xff\n      mul\n      not\n      and\n      swap1\n      dup4\n      0x03\n      dup2\n      gt\n      iszero\n      tag_59\n      jumpi\n      mstore(0x00, 0x4e487b7100000000000000000000000000000000000000000000000000000000)\n      mstore(0x04, 0x21)\n      revert(0x00, 0x24)\n    tag_59:\n      mul\n      or\n      swap1\n      sstore\n      pop\n      0x60\n      dup3\n      add\n      mload\n      dup2\n      0x02\n      add\n      exp(0x0100, 0x01)\n      dup2\n      sload\n      dup2\n      0xffffffffffffffffffffffffffffffffffffffff\n      mul\n      not\n      and\n      swap1\n      dup4\n      0xffffffffffffffffffffffffffffffffffffffff\n      and\n      mul\n      or\n      swap1\n      sstore\n      pop\n      0x80\n      dup3\n      add\n      mload\n      dup2\n      0x03\n      add\n      sstore\n      swap1\n      pop\n      pop\n        /* \"contracts/main.sol\":1269:1270  1 */\n      0x01\n        /* \"contracts/main.sol\":1266:1268  pc */\n      sload(0x02)\n        /* \"contracts/main.sol\":1266:1270  pc+1 */\n      tag_60\n      swap2\n      swap1\n      tag_45\n      jump\t// in\n    tag_60:\n        /* \"contracts/main.sol\":1263:1265  pc */\n      0x02\n        /* \"contracts/main.sol\":1263:1270  pc=pc+1 */\n      dup2\n      swap1\n      sstore\n      pop\n        /* \"contracts/main.sol\":841:1280  function addtransporter(string memory _uname) public {\r... */\n      pop\n      pop\n      jump\t// out\n        /* \"contracts/member.sol\":347:393  mapping(uint=>participant) public participants */\n    tag_24:\n      mstore(0x20, 0x03)\n      dup1\n      0x00\n      mstore\n      keccak256(0x00, 0x40)\n      0x00\n      swap2\n      pop\n      swap1\n      pop\n      dup1\n      0x00\n      add\n      dup1\n      sload\n      tag_61\n      swap1\n      tag_47\n      jump\t// in\n    tag_61:\n      dup1\n      0x1f\n      add\n      0x20\n      dup1\n      swap2\n      div\n      mul\n      0x20\n      add\n      mload(0x40)\n      swap1\n      dup2\n      add\n      0x40\n      mstore\n      dup1\n      swap3\n      swap2\n      swap1\n      dup2\n      dup2\n      mstore\n      0x20\n      add\n      dup3\n      dup1\n      sload\n      tag_62\n      swap1\n      tag_47\n      jump\t// in\n    tag_62:\n      dup1\n      iszero\n      tag_63\n      jumpi\n      dup1\n      0x1f\n      lt\n      tag_64\n      jumpi\n      0x0100\n      dup1\n      dup4\n      sload\n      div\n      mul\n      dup4\n      mstore\n      swap2\n      0x20\n      add\n      swap2\n      jump(tag_63)\n    tag_64:\n      dup3\n      add\n      swap2\n      swap1\n      0x00\n      mstore\n      keccak256(0x00, 0x20)\n      swap1\n    tag_65:\n      dup2\n      sload\n      dup2\n      mstore\n      swap1\n      0x01\n      add\n      swap1\n      0x20\n      add\n      dup1\n      dup4\n      gt\n      tag_65\n      jumpi\n      dup3\n      swap1\n      sub\n      0x1f\n      and\n      dup3\n      add\n      swap2\n    tag_63:\n      pop\n      pop\n      pop\n      pop\n      pop\n      swap1\n      dup1\n      0x01\n      add\n      sload\n      swap1\n      dup1\n      0x02\n      add\n      0x00\n      swap1\n      sload\n      swap1\n      0x0100\n      exp\n      swap1\n      div\n      0xff\n      and\n      swap1\n      dup1\n      0x02\n      add\n      0x01\n      swap1\n      sload\n      swap1\n      0x0100\n      exp\n      swap1\n      div\n      0xffffffffffffffffffffffffffffffffffffffff\n      and\n      swap1\n      dup1\n      0x03\n      add\n      sload\n      swap1\n      pop\n      dup6\n      jump\t// out\n        /* \"contracts/modifier.sol\":121:141  address public owner */\n    tag_28:\n      0x05\n      0x00\n      swap1\n      sload\n      swap1\n      0x0100\n      exp\n      swap1\n      div\n      0xffffffffffffffffffffffffffffffffffffffff\n      and\n      dup2\n      jump\t// out\n        /* \"contracts/main.sol\":1286:1727  function addManufacturer(string memory _uname) public {\r... */\n    tag_33:\n        /* \"contracts/main.sol\":1351:1384  participant memory newParticipant */\n      tag_67\n      tag_36\n      jump\t// in\n    tag_67:\n        /* \"contracts/main.sol\":1421:1427  _uname */\n      dup2\n        /* \"contracts/main.sol\":1396:1410  newParticipant */\n      dup2\n        /* \"contracts/main.sol\":1396:1419  newParticipant.username */\n      0x00\n      add\n        /* \"contracts/main.sol\":1396:1427  newParticipant.username =_uname */\n      dup2\n      swap1\n      mstore\n      pop\n        /* \"contracts/main.sol\":1462:1464  pc */\n      sload(0x02)\n        /* \"contracts/main.sol\":1438:1452  newParticipant */\n      dup2\n        /* \"contracts/main.sol\":1438:1459  newParticipant.userId */\n      0x20\n      add\n        /* \"contracts/main.sol\":1438:1464  newParticipant.userId = pc */\n      dup2\n      dup2\n      mstore\n      pop\n      pop\n        /* \"contracts/main.sol\":1498:1499  0 */\n      0x00\n        /* \"contracts/main.sol\":1475:1489  newParticipant */\n      dup2\n        /* \"contracts/main.sol\":1475:1495  newParticipant.money */\n      0x80\n      add\n        /* \"contracts/main.sol\":1475:1499  newParticipant.money = 0 */\n      dup2\n      dup2\n      mstore\n      pop\n      pop\n        /* \"contracts/main.sol\":1532:1554  user_type.manufacturer */\n      0x03\n        /* \"contracts/main.sol\":1510:1524  newParticipant */\n      dup2\n        /* \"contracts/main.sol\":1510:1530  newParticipant.utype */\n      0x40\n      add\n        /* \"contracts/main.sol\":1510:1554  newParticipant.utype= user_type.manufacturer */\n      swap1\n      0x03\n      dup2\n      gt\n      iszero\n      tag_68\n      jumpi\n      mstore(0x00, 0x4e487b7100000000000000000000000000000000000000000000000000000000)\n      mstore(0x04, 0x21)\n      revert(0x00, 0x24)\n    tag_68:\n      swap1\n      dup2\n      0x03\n      dup2\n      gt\n      iszero\n      tag_69\n      jumpi\n      mstore(0x00, 0x4e487b7100000000000000000000000000000000000000000000000000000000)\n      mstore(0x04, 0x21)\n      revert(0x00, 0x24)\n    tag_69:\n      dup2\n      mstore\n      pop\n      pop\n        /* \"contracts/main.sol\":1595:1605  msg.sender */\n      caller\n        /* \"contracts/main.sol\":1565:1579  newParticipant */\n      dup2\n        /* \"contracts/main.sol\":1565:1592  newParticipant.user_address */\n      0x60\n      add\n        /* \"contracts/main.sol\":1565:1605  newParticipant.user_address = msg.sender */\n      swap1\n      0xffffffffffffffffffffffffffffffffffffffff\n      and\n      swap1\n      dup2\n      0xffffffffffffffffffffffffffffffffffffffff\n      and\n      dup2\n      mstore\n      pop\n      pop\n        /* \"contracts/main.sol\":1633:1647  newParticipant */\n      dup1\n        /* \"contracts/main.sol\":1616:1628  participants */\n      0x03\n        /* \"contracts/main.sol\":1616:1632  participants[pc] */\n      0x00\n        /* \"contracts/main.sol\":1629:1631  pc */\n      sload(0x02)\n        /* \"contracts/main.sol\":1616:1632  participants[pc] */\n      dup2\n      mstore\n      0x20\n      add\n      swap1\n      dup2\n      mstore\n      0x20\n      add\n      0x00\n      keccak256\n        /* \"contracts/main.sol\":1616:1647  participants[pc]=newParticipant */\n      0x00\n      dup3\n      add\n      mload\n      dup2\n      0x00\n      add\n      swap1\n      dup1\n      mload\n      swap1\n      0x20\n      add\n      swap1\n      tag_70\n      swap3\n      swap2\n      swap1\n      tag_40\n      jump\t// in\n    tag_70:\n      pop\n      0x20\n      dup3\n      add\n      mload\n      dup2\n      0x01\n      add\n      sstore\n      0x40\n      dup3\n      add\n      mload\n      dup2\n      0x02\n      add\n      exp(0x0100, 0x00)\n      dup2\n      sload\n      dup2\n      0xff\n      mul\n      not\n      and\n      swap1\n      dup4\n      0x03\n      dup2\n      gt\n      iszero\n      tag_71\n      jumpi\n      mstore(0x00, 0x4e487b7100000000000000000000000000000000000000000000000000000000)\n      mstore(0x04, 0x21)\n      revert(0x00, 0x24)\n    tag_71:\n      mul\n      or\n      swap1\n      sstore\n      pop\n      0x60\n      dup3\n      add\n      mload\n      dup2\n      0x02\n      add\n      exp(0x0100, 0x01)\n      dup2\n      sload\n      dup2\n      0xffffffffffffffffffffffffffffffffffffffff\n      mul\n      not\n      and\n      swap1\n      dup4\n      0xffffffffffffffffffffffffffffffffffffffff\n      and\n      mul\n      or\n      swap1\n      sstore\n      pop\n      0x80\n      dup3\n      add\n      mload\n      dup2\n      0x03\n      add\n      sstore\n      swap1\n      pop\n      pop\n        /* \"contracts/main.sol\":1685:1699  newParticipant */\n      dup1\n        /* \"contracts/main.sol\":1658:1672  participantsId */\n      0x04\n        /* \"contracts/main.sol\":1658:1684  participantsId[msg.sender] */\n      0x00\n        /* \"contracts/main.sol\":1673:1683  msg.sender */\n      caller\n        /* \"contracts/main.sol\":1658:1684  participantsId[msg.sender] */\n      0xffffffffffffffffffffffffffffffffffffffff\n      and\n      0xffffffffffffffffffffffffffffffffffffffff\n      and\n      dup2\n      mstore\n      0x20\n      add\n      swap1\n      dup2\n      mstore\n      0x20\n      add\n      0x00\n      keccak256\n        /* \"contracts/main.sol\":1658:1699  participantsId[msg.sender]=newParticipant */\n      0x00\n      dup3\n      add\n      mload\n      dup2\n      0x00\n      add\n      swap1\n      dup1\n      mload\n      swap1\n      0x20\n      add\n      swap1\n      tag_72\n      swap3\n      swap2\n      swap1\n      tag_40\n      jump\t// in\n    tag_72:\n      pop\n      0x20\n      dup3\n      add\n      mload\n      dup2\n      0x01\n      add\n      sstore\n      0x40\n      dup3\n      add\n      mload\n      dup2\n      0x02\n      add\n      exp(0x0100, 0x00)\n      dup2\n      sload\n      dup2\n      0xff\n      mul\n      not\n      and\n      swap1\n      dup4\n      0x03\n      dup2\n      gt\n      iszero\n      tag_73\n      jumpi\n      mstore(0x00, 0x4e487b7100000000000000000000000000000000000000000000000000000000)\n      mstore(0x04, 0x21)\n      revert(0x00, 0x24)\n    tag_73:\n      mul\n      or\n      swap1\n      sstore\n      pop\n      0x60\n      dup3\n      add\n      mload\n      dup2\n      0x02\n      add\n      exp(0x0100, 0x01)\n      dup2\n      sload\n      dup2\n      0xffffffffffffffffffffffffffffffffffffffff\n      mul\n      not\n      and\n      swap1\n      dup4\n      0xffffffffffffffffffffffffffffffffffffffff\n      and\n      mul\n      or\n      swap1\n      sstore\n      pop\n      0x80\n      dup3\n      add\n      mload\n      dup2\n      0x03\n      add\n      sstore\n      swap1\n      pop\n      pop\n        /* \"contracts/main.sol\":1716:1717  1 */\n      0x01\n        /* \"contracts/main.sol\":1713:1715  pc */\n      sload(0x02)\n        /* \"contracts/main.sol\":1713:1717  pc+1 */\n      tag_74\n      swap2\n      swap1\n      tag_45\n      jump\t// in\n    tag_74:\n        /* \"contracts/main.sol\":1710:1712  pc */\n      0x02\n        /* \"contracts/main.sol\":1710:1717  pc=pc+1 */\n      dup2\n      swap1\n      sstore\n      pop\n        /* \"contracts/main.sol\":1286:1727  function addManufacturer(string memory _uname) public {\r... */\n      pop\n      pop\n      jump\t// out\n    tag_36:\n      mload(0x40)\n      dup1\n      0xa0\n      add\n      0x40\n      mstore\n      dup1\n      0x60\n      dup2\n      mstore\n      0x20\n      add\n      0x00\n      dup2\n      mstore\n      0x20\n      add\n      0x00\n      0x03\n      dup2\n      gt\n      iszero\n      tag_75\n      jumpi\n      mstore(0x00, 0x4e487b7100000000000000000000000000000000000000000000000000000000)\n      mstore(0x04, 0x21)\n      revert(0x00, 0x24)\n    tag_75:\n      dup2\n      mstore\n      0x20\n      add\n      and(0xffffffffffffffffffffffffffffffffffffffff, 0x00)\n      dup2\n      mstore\n      0x20\n      add\n      0x00\n      dup2\n      mstore\n      pop\n      swap1\n      jump\t// out\n    tag_40:\n      dup3\n      dup1\n      sload\n      tag_76\n      swap1\n      tag_47\n      jump\t// in\n    tag_76:\n      swap1\n      0x00\n      mstore\n      keccak256(0x00, 0x20)\n      swap1\n      0x1f\n      add\n      0x20\n      swap1\n      div\n      dup2\n      add\n      swap3\n      dup3\n      tag_78\n      jumpi\n      0x00\n      dup6\n      sstore\n      jump(tag_77)\n    tag_78:\n      dup3\n      0x1f\n      lt\n      tag_79\n      jumpi\n      dup1\n      mload\n      not(0xff)\n      and\n      dup4\n      dup1\n      add\n      or\n      dup6\n      sstore\n      jump(tag_77)\n    tag_79:\n      dup3\n      dup1\n      add\n      0x01\n      add\n      dup6\n      sstore\n      dup3\n      iszero\n      tag_77\n      jumpi\n      swap2\n      dup3\n      add\n    tag_80:\n      dup3\n      dup2\n      gt\n      iszero\n      tag_81\n      jumpi\n      dup3\n      mload\n      dup3\n      sstore\n      swap2\n      0x20\n      add\n      swap2\n      swap1\n      0x01\n      add\n      swap1\n      jump(tag_80)\n    tag_81:\n    tag_77:\n      pop\n      swap1\n      pop\n      tag_82\n      swap2\n      swap1\n      tag_83\n      jump\t// in\n    tag_82:\n      pop\n      swap1\n      jump\t// out\n    tag_83:\n    tag_84:\n      dup1\n      dup3\n      gt\n      iszero\n      tag_85\n      jumpi\n      0x00\n      dup2\n      0x00\n      swap1\n      sstore\n      pop\n      0x01\n      add\n      jump(tag_84)\n    tag_85:\n      pop\n      swap1\n      jump\t// out\n        /* \"#utility.yul\":7:351   */\n    tag_87:\n      0x00\n        /* \"#utility.yul\":110:175   */\n      tag_89\n        /* \"#utility.yul\":125:174   */\n      tag_90\n        /* \"#utility.yul\":167:173   */\n      dup5\n        /* \"#utility.yul\":125:174   */\n      tag_91\n      jump\t// in\n    tag_90:\n        /* \"#utility.yul\":110:175   */\n      tag_92\n      jump\t// in\n    tag_89:\n        /* \"#utility.yul\":101:175   */\n      swap1\n      pop\n        /* \"#utility.yul\":198:204   */\n      dup3\n        /* \"#utility.yul\":191:196   */\n      dup2\n        /* \"#utility.yul\":184:205   */\n      mstore\n        /* \"#utility.yul\":236:240   */\n      0x20\n        /* \"#utility.yul\":229:234   */\n      dup2\n        /* \"#utility.yul\":225:241   */\n      add\n        /* \"#utility.yul\":274:277   */\n      dup5\n        /* \"#utility.yul\":265:271   */\n      dup5\n        /* \"#utility.yul\":260:263   */\n      dup5\n        /* \"#utility.yul\":256:272   */\n      add\n        /* \"#utility.yul\":253:278   */\n      gt\n        /* \"#utility.yul\":250:252   */\n      iszero\n      tag_93\n      jumpi\n        /* \"#utility.yul\":291:292   */\n      0x00\n        /* \"#utility.yul\":288:289   */\n      dup1\n        /* \"#utility.yul\":281:293   */\n      revert\n        /* \"#utility.yul\":250:252   */\n    tag_93:\n        /* \"#utility.yul\":304:345   */\n      tag_94\n        /* \"#utility.yul\":338:344   */\n      dup5\n        /* \"#utility.yul\":333:336   */\n      dup3\n        /* \"#utility.yul\":328:331   */\n      dup6\n        /* \"#utility.yul\":304:345   */\n      tag_95\n      jump\t// in\n    tag_94:\n        /* \"#utility.yul\":91:351   */\n      pop\n      swap4\n      swap3\n      pop\n      pop\n      pop\n      jump\t// out\n        /* \"#utility.yul\":371:644   */\n    tag_96:\n      0x00\n        /* \"#utility.yul\":476:479   */\n      dup3\n        /* \"#utility.yul\":469:473   */\n      0x1f\n        /* \"#utility.yul\":461:467   */\n      dup4\n        /* \"#utility.yul\":457:474   */\n      add\n        /* \"#utility.yul\":453:480   */\n      slt\n        /* \"#utility.yul\":443:445   */\n      tag_98\n      jumpi\n        /* \"#utility.yul\":494:495   */\n      0x00\n        /* \"#utility.yul\":491:492   */\n      dup1\n        /* \"#utility.yul\":484:496   */\n      revert\n        /* \"#utility.yul\":443:445   */\n    tag_98:\n        /* \"#utility.yul\":534:540   */\n      dup2\n        /* \"#utility.yul\":521:541   */\n      calldataload\n        /* \"#utility.yul\":559:638   */\n      tag_99\n        /* \"#utility.yul\":634:637   */\n      dup5\n        /* \"#utility.yul\":626:632   */\n      dup3\n        /* \"#utility.yul\":619:623   */\n      0x20\n        /* \"#utility.yul\":611:617   */\n      dup7\n        /* \"#utility.yul\":607:624   */\n      add\n        /* \"#utility.yul\":559:638   */\n      tag_87\n      jump\t// in\n    tag_99:\n        /* \"#utility.yul\":550:638   */\n      swap2\n      pop\n        /* \"#utility.yul\":433:644   */\n      pop\n      swap3\n      swap2\n      pop\n      pop\n      jump\t// out\n        /* \"#utility.yul\":650:789   */\n    tag_100:\n      0x00\n        /* \"#utility.yul\":734:740   */\n      dup2\n        /* \"#utility.yul\":721:741   */\n      calldataload\n        /* \"#utility.yul\":712:741   */\n      swap1\n      pop\n        /* \"#utility.yul\":750:783   */\n      tag_102\n        /* \"#utility.yul\":777:782   */\n      dup2\n        /* \"#utility.yul\":750:783   */\n      tag_103\n      jump\t// in\n    tag_102:\n        /* \"#utility.yul\":702:789   */\n      swap3\n      swap2\n      pop\n      pop\n      jump\t// out\n        /* \"#utility.yul\":795:1170   */\n    tag_11:\n      0x00\n        /* \"#utility.yul\":913:915   */\n      0x20\n        /* \"#utility.yul\":901:910   */\n      dup3\n        /* \"#utility.yul\":892:899   */\n      dup5\n        /* \"#utility.yul\":888:911   */\n      sub\n        /* \"#utility.yul\":884:916   */\n      slt\n        /* \"#utility.yul\":881:883   */\n      iszero\n      tag_105\n      jumpi\n        /* \"#utility.yul\":929:930   */\n      0x00\n        /* \"#utility.yul\":926:927   */\n      dup1\n        /* \"#utility.yul\":919:931   */\n      revert\n        /* \"#utility.yul\":881:883   */\n    tag_105:\n        /* \"#utility.yul\":1000:1001   */\n      0x00\n        /* \"#utility.yul\":989:998   */\n      dup3\n        /* \"#utility.yul\":985:1002   */\n      add\n        /* \"#utility.yul\":972:1003   */\n      calldataload\n        /* \"#utility.yul\":1030:1048   */\n      0xffffffffffffffff\n        /* \"#utility.yul\":1022:1028   */\n      dup2\n        /* \"#utility.yul\":1019:1049   */\n      gt\n        /* \"#utility.yul\":1016:1018   */\n      iszero\n      tag_106\n      jumpi\n        /* \"#utility.yul\":1062:1063   */\n      0x00\n        /* \"#utility.yul\":1059:1060   */\n      dup1\n        /* \"#utility.yul\":1052:1064   */\n      revert\n        /* \"#utility.yul\":1016:1018   */\n    tag_106:\n        /* \"#utility.yul\":1090:1153   */\n      tag_107\n        /* \"#utility.yul\":1145:1152   */\n      dup5\n        /* \"#utility.yul\":1136:1142   */\n      dup3\n        /* \"#utility.yul\":1125:1134   */\n      dup6\n        /* \"#utility.yul\":1121:1143   */\n      add\n        /* \"#utility.yul\":1090:1153   */\n      tag_96\n      jump\t// in\n    tag_107:\n        /* \"#utility.yul\":1080:1153   */\n      swap2\n      pop\n        /* \"#utility.yul\":943:1163   */\n      pop\n        /* \"#utility.yul\":871:1170   */\n      swap3\n      swap2\n      pop\n      pop\n      jump\t// out\n        /* \"#utility.yul\":1176:1438   */\n    tag_15:\n      0x00\n        /* \"#utility.yul\":1284:1286   */\n      0x20\n        /* \"#utility.yul\":1272:1281   */\n      dup3\n        /* \"#utility.yul\":1263:1270   */\n      dup5\n        /* \"#utility.yul\":1259:1282   */\n      sub\n        /* \"#utility.yul\":1255:1287   */\n      slt\n        /* \"#utility.yul\":1252:1254   */\n      iszero\n      tag_109\n      jumpi\n        /* \"#utility.yul\":1300:1301   */\n      0x00\n        /* \"#utility.yul\":1297:1298   */\n      dup1\n        /* \"#utility.yul\":1290:1302   */\n      revert\n        /* \"#utility.yul\":1252:1254   */\n    tag_109:\n        /* \"#utility.yul\":1343:1344   */\n      0x00\n        /* \"#utility.yul\":1368:1421   */\n      tag_110\n        /* \"#utility.yul\":1413:1420   */\n      dup5\n        /* \"#utility.yul\":1404:1410   */\n      dup3\n        /* \"#utility.yul\":1393:1402   */\n      dup6\n        /* \"#utility.yul\":1389:1411   */\n      add\n        /* \"#utility.yul\":1368:1421   */\n      tag_100\n      jump\t// in\n    tag_110:\n        /* \"#utility.yul\":1358:1421   */\n      swap2\n      pop\n        /* \"#utility.yul\":1314:1431   */\n      pop\n        /* \"#utility.yul\":1242:1438   */\n      swap3\n      swap2\n      pop\n      pop\n      jump\t// out\n        /* \"#utility.yul\":1444:1562   */\n    tag_111:\n        /* \"#utility.yul\":1531:1555   */\n      tag_113\n        /* \"#utility.yul\":1549:1554   */\n      dup2\n        /* \"#utility.yul\":1531:1555   */\n      tag_114\n      jump\t// in\n    tag_113:\n        /* \"#utility.yul\":1526:1529   */\n      dup3\n        /* \"#utility.yul\":1519:1556   */\n      mstore\n        /* \"#utility.yul\":1509:1562   */\n      pop\n      pop\n      jump\t// out\n        /* \"#utility.yul\":1568:1711   */\n    tag_115:\n        /* \"#utility.yul\":1661:1704   */\n      tag_117\n        /* \"#utility.yul\":1698:1703   */\n      dup2\n        /* \"#utility.yul\":1661:1704   */\n      tag_118\n      jump\t// in\n    tag_117:\n        /* \"#utility.yul\":1656:1659   */\n      dup3\n        /* \"#utility.yul\":1649:1705   */\n      mstore\n        /* \"#utility.yul\":1639:1711   */\n      pop\n      pop\n      jump\t// out\n        /* \"#utility.yul\":1717:1870   */\n    tag_119:\n        /* \"#utility.yul\":1815:1863   */\n      tag_121\n        /* \"#utility.yul\":1857:1862   */\n      dup2\n        /* \"#utility.yul\":1815:1863   */\n      tag_122\n      jump\t// in\n    tag_121:\n        /* \"#utility.yul\":1810:1813   */\n      dup3\n        /* \"#utility.yul\":1803:1864   */\n      mstore\n        /* \"#utility.yul\":1793:1870   */\n      pop\n      pop\n      jump\t// out\n        /* \"#utility.yul\":1876:2240   */\n    tag_123:\n      0x00\n        /* \"#utility.yul\":1992:2031   */\n      tag_125\n        /* \"#utility.yul\":2025:2030   */\n      dup3\n        /* \"#utility.yul\":1992:2031   */\n      tag_126\n      jump\t// in\n    tag_125:\n        /* \"#utility.yul\":2047:2118   */\n      tag_127\n        /* \"#utility.yul\":2111:2117   */\n      dup2\n        /* \"#utility.yul\":2106:2109   */\n      dup6\n        /* \"#utility.yul\":2047:2118   */\n      tag_128\n      jump\t// in\n    tag_127:\n        /* \"#utility.yul\":2040:2118   */\n      swap4\n      pop\n        /* \"#utility.yul\":2127:2179   */\n      tag_129\n        /* \"#utility.yul\":2172:2178   */\n      dup2\n        /* \"#utility.yul\":2167:2170   */\n      dup6\n        /* \"#utility.yul\":2160:2164   */\n      0x20\n        /* \"#utility.yul\":2153:2158   */\n      dup7\n        /* \"#utility.yul\":2149:2165   */\n      add\n        /* \"#utility.yul\":2127:2179   */\n      tag_130\n      jump\t// in\n    tag_129:\n        /* \"#utility.yul\":2204:2233   */\n      tag_131\n        /* \"#utility.yul\":2226:2232   */\n      dup2\n        /* \"#utility.yul\":2204:2233   */\n      tag_132\n      jump\t// in\n    tag_131:\n        /* \"#utility.yul\":2199:2202   */\n      dup5\n        /* \"#utility.yul\":2195:2234   */\n      add\n        /* \"#utility.yul\":2188:2234   */\n      swap2\n      pop\n        /* \"#utility.yul\":1968:2240   */\n      pop\n      swap3\n      swap2\n      pop\n      pop\n      jump\t// out\n        /* \"#utility.yul\":2246:2364   */\n    tag_133:\n        /* \"#utility.yul\":2333:2357   */\n      tag_135\n        /* \"#utility.yul\":2351:2356   */\n      dup2\n        /* \"#utility.yul\":2333:2357   */\n      tag_136\n      jump\t// in\n    tag_135:\n        /* \"#utility.yul\":2328:2331   */\n      dup3\n        /* \"#utility.yul\":2321:2358   */\n      mstore\n        /* \"#utility.yul\":2311:2364   */\n      pop\n      pop\n      jump\t// out\n        /* \"#utility.yul\":2370:2592   */\n    tag_30:\n      0x00\n        /* \"#utility.yul\":2501:2503   */\n      0x20\n        /* \"#utility.yul\":2490:2499   */\n      dup3\n        /* \"#utility.yul\":2486:2504   */\n      add\n        /* \"#utility.yul\":2478:2504   */\n      swap1\n      pop\n        /* \"#utility.yul\":2514:2585   */\n      tag_138\n        /* \"#utility.yul\":2582:2583   */\n      0x00\n        /* \"#utility.yul\":2571:2580   */\n      dup4\n        /* \"#utility.yul\":2567:2584   */\n      add\n        /* \"#utility.yul\":2558:2564   */\n      dup5\n        /* \"#utility.yul\":2514:2585   */\n      tag_111\n      jump\t// in\n    tag_138:\n        /* \"#utility.yul\":2468:2592   */\n      swap3\n      swap2\n      pop\n      pop\n      jump\t// out\n        /* \"#utility.yul\":2598:3365   */\n    tag_18:\n      0x00\n        /* \"#utility.yul\":2867:2870   */\n      0xa0\n        /* \"#utility.yul\":2856:2865   */\n      dup3\n        /* \"#utility.yul\":2852:2871   */\n      add\n        /* \"#utility.yul\":2844:2871   */\n      swap1\n      pop\n        /* \"#utility.yul\":2917:2926   */\n      dup2\n        /* \"#utility.yul\":2911:2915   */\n      dup2\n        /* \"#utility.yul\":2907:2927   */\n      sub\n        /* \"#utility.yul\":2903:2904   */\n      0x00\n        /* \"#utility.yul\":2892:2901   */\n      dup4\n        /* \"#utility.yul\":2888:2905   */\n      add\n        /* \"#utility.yul\":2881:2928   */\n      mstore\n        /* \"#utility.yul\":2945:3023   */\n      tag_140\n        /* \"#utility.yul\":3018:3022   */\n      dup2\n        /* \"#utility.yul\":3009:3015   */\n      dup9\n        /* \"#utility.yul\":2945:3023   */\n      tag_123\n      jump\t// in\n    tag_140:\n        /* \"#utility.yul\":2937:3023   */\n      swap1\n      pop\n        /* \"#utility.yul\":3033:3105   */\n      tag_141\n        /* \"#utility.yul\":3101:3103   */\n      0x20\n        /* \"#utility.yul\":3090:3099   */\n      dup4\n        /* \"#utility.yul\":3086:3104   */\n      add\n        /* \"#utility.yul\":3077:3083   */\n      dup8\n        /* \"#utility.yul\":3033:3105   */\n      tag_133\n      jump\t// in\n    tag_141:\n        /* \"#utility.yul\":3115:3187   */\n      tag_142\n        /* \"#utility.yul\":3183:3185   */\n      0x40\n        /* \"#utility.yul\":3172:3181   */\n      dup4\n        /* \"#utility.yul\":3168:3186   */\n      add\n        /* \"#utility.yul\":3159:3165   */\n      dup7\n        /* \"#utility.yul\":3115:3187   */\n      tag_111\n      jump\t// in\n    tag_142:\n        /* \"#utility.yul\":3197:3275   */\n      tag_143\n        /* \"#utility.yul\":3271:3273   */\n      0x60\n        /* \"#utility.yul\":3260:3269   */\n      dup4\n        /* \"#utility.yul\":3256:3274   */\n      add\n        /* \"#utility.yul\":3247:3253   */\n      dup6\n        /* \"#utility.yul\":3197:3275   */\n      tag_115\n      jump\t// in\n    tag_143:\n        /* \"#utility.yul\":3285:3358   */\n      tag_144\n        /* \"#utility.yul\":3353:3356   */\n      0x80\n        /* \"#utility.yul\":3342:3351   */\n      dup4\n        /* \"#utility.yul\":3338:3357   */\n      add\n        /* \"#utility.yul\":3329:3335   */\n      dup5\n        /* \"#utility.yul\":3285:3358   */\n      tag_133\n      jump\t// in\n    tag_144:\n        /* \"#utility.yul\":2834:3365   */\n      swap7\n      swap6\n      pop\n      pop\n      pop\n      pop\n      pop\n      pop\n      jump\t// out\n        /* \"#utility.yul\":3371:4148   */\n    tag_26:\n      0x00\n        /* \"#utility.yul\":3645:3648   */\n      0xa0\n        /* \"#utility.yul\":3634:3643   */\n      dup3\n        /* \"#utility.yul\":3630:3649   */\n      add\n        /* \"#utility.yul\":3622:3649   */\n      swap1\n      pop\n        /* \"#utility.yul\":3695:3704   */\n      dup2\n        /* \"#utility.yul\":3689:3693   */\n      dup2\n        /* \"#utility.yul\":3685:3705   */\n      sub\n        /* \"#utility.yul\":3681:3682   */\n      0x00\n        /* \"#utility.yul\":3670:3679   */\n      dup4\n        /* \"#utility.yul\":3666:3683   */\n      add\n        /* \"#utility.yul\":3659:3706   */\n      mstore\n        /* \"#utility.yul\":3723:3801   */\n      tag_146\n        /* \"#utility.yul\":3796:3800   */\n      dup2\n        /* \"#utility.yul\":3787:3793   */\n      dup9\n        /* \"#utility.yul\":3723:3801   */\n      tag_123\n      jump\t// in\n    tag_146:\n        /* \"#utility.yul\":3715:3801   */\n      swap1\n      pop\n        /* \"#utility.yul\":3811:3883   */\n      tag_147\n        /* \"#utility.yul\":3879:3881   */\n      0x20\n        /* \"#utility.yul\":3868:3877   */\n      dup4\n        /* \"#utility.yul\":3864:3882   */\n      add\n        /* \"#utility.yul\":3855:3861   */\n      dup8\n        /* \"#utility.yul\":3811:3883   */\n      tag_133\n      jump\t// in\n    tag_147:\n        /* \"#utility.yul\":3893:3976   */\n      tag_148\n        /* \"#utility.yul\":3972:3974   */\n      0x40\n        /* \"#utility.yul\":3961:3970   */\n      dup4\n        /* \"#utility.yul\":3957:3975   */\n      add\n        /* \"#utility.yul\":3948:3954   */\n      dup7\n        /* \"#utility.yul\":3893:3976   */\n      tag_119\n      jump\t// in\n    tag_148:\n        /* \"#utility.yul\":3986:4058   */\n      tag_149\n        /* \"#utility.yul\":4054:4056   */\n      0x60\n        /* \"#utility.yul\":4043:4052   */\n      dup4\n        /* \"#utility.yul\":4039:4057   */\n      add\n        /* \"#utility.yul\":4030:4036   */\n      dup6\n        /* \"#utility.yul\":3986:4058   */\n      tag_111\n      jump\t// in\n    tag_149:\n        /* \"#utility.yul\":4068:4141   */\n      tag_150\n        /* \"#utility.yul\":4136:4139   */\n      0x80\n        /* \"#utility.yul\":4125:4134   */\n      dup4\n        /* \"#utility.yul\":4121:4140   */\n      add\n        /* \"#utility.yul\":4112:4118   */\n      dup5\n        /* \"#utility.yul\":4068:4141   */\n      tag_133\n      jump\t// in\n    tag_150:\n        /* \"#utility.yul\":3612:4148   */\n      swap7\n      swap6\n      pop\n      pop\n      pop\n      pop\n      pop\n      pop\n      jump\t// out\n        /* \"#utility.yul\":4154:4437   */\n    tag_92:\n      0x00\n        /* \"#utility.yul\":4220:4222   */\n      0x40\n        /* \"#utility.yul\":4214:4223   */\n      mload\n        /* \"#utility.yul\":4204:4223   */\n      swap1\n      pop\n        /* \"#utility.yul\":4262:4266   */\n      dup2\n        /* \"#utility.yul\":4254:4260   */\n      dup2\n        /* \"#utility.yul\":4250:4267   */\n      add\n        /* \"#utility.yul\":4369:4375   */\n      dup2\n        /* \"#utility.yul\":4357:4367   */\n      dup2\n        /* \"#utility.yul\":4354:4376   */\n      lt\n        /* \"#utility.yul\":4333:4351   */\n      0xffffffffffffffff\n        /* \"#utility.yul\":4321:4331   */\n      dup3\n        /* \"#utility.yul\":4318:4352   */\n      gt\n        /* \"#utility.yul\":4315:4377   */\n      or\n        /* \"#utility.yul\":4312:4314   */\n      iszero\n      tag_152\n      jumpi\n        /* \"#utility.yul\":4380:4398   */\n      tag_153\n      tag_154\n      jump\t// in\n    tag_153:\n        /* \"#utility.yul\":4312:4314   */\n    tag_152:\n        /* \"#utility.yul\":4420:4430   */\n      dup1\n        /* \"#utility.yul\":4416:4418   */\n      0x40\n        /* \"#utility.yul\":4409:4431   */\n      mstore\n        /* \"#utility.yul\":4194:4437   */\n      pop\n      swap2\n      swap1\n      pop\n      jump\t// out\n        /* \"#utility.yul\":4443:4775   */\n    tag_91:\n      0x00\n        /* \"#utility.yul\":4595:4613   */\n      0xffffffffffffffff\n        /* \"#utility.yul\":4587:4593   */\n      dup3\n        /* \"#utility.yul\":4584:4614   */\n      gt\n        /* \"#utility.yul\":4581:4583   */\n      iszero\n      tag_156\n      jumpi\n        /* \"#utility.yul\":4617:4635   */\n      tag_157\n      tag_154\n      jump\t// in\n    tag_157:\n        /* \"#utility.yul\":4581:4583   */\n    tag_156:\n        /* \"#utility.yul\":4702:4706   */\n      0x1f\n        /* \"#utility.yul\":4698:4707   */\n      not\n        /* \"#utility.yul\":4691:4695   */\n      0x1f\n        /* \"#utility.yul\":4683:4689   */\n      dup4\n        /* \"#utility.yul\":4679:4696   */\n      add\n        /* \"#utility.yul\":4675:4708   */\n      and\n        /* \"#utility.yul\":4667:4708   */\n      swap1\n      pop\n        /* \"#utility.yul\":4763:4767   */\n      0x20\n        /* \"#utility.yul\":4757:4761   */\n      dup2\n        /* \"#utility.yul\":4753:4768   */\n      add\n        /* \"#utility.yul\":4745:4768   */\n      swap1\n      pop\n        /* \"#utility.yul\":4510:4775   */\n      swap2\n      swap1\n      pop\n      jump\t// out\n        /* \"#utility.yul\":4781:4880   */\n    tag_126:\n      0x00\n        /* \"#utility.yul\":4867:4872   */\n      dup2\n        /* \"#utility.yul\":4861:4873   */\n      mload\n        /* \"#utility.yul\":4851:4873   */\n      swap1\n      pop\n        /* \"#utility.yul\":4840:4880   */\n      swap2\n      swap1\n      pop\n      jump\t// out\n        /* \"#utility.yul\":4886:5055   */\n    tag_128:\n      0x00\n        /* \"#utility.yul\":5004:5010   */\n      dup3\n        /* \"#utility.yul\":4999:5002   */\n      dup3\n        /* \"#utility.yul\":4992:5011   */\n      mstore\n        /* \"#utility.yul\":5044:5048   */\n      0x20\n        /* \"#utility.yul\":5039:5042   */\n      dup3\n        /* \"#utility.yul\":5035:5049   */\n      add\n        /* \"#utility.yul\":5020:5049   */\n      swap1\n      pop\n        /* \"#utility.yul\":4982:5055   */\n      swap3\n      swap2\n      pop\n      pop\n      jump\t// out\n        /* \"#utility.yul\":5061:5366   */\n    tag_45:\n      0x00\n        /* \"#utility.yul\":5120:5140   */\n      tag_161\n        /* \"#utility.yul\":5138:5139   */\n      dup3\n        /* \"#utility.yul\":5120:5140   */\n      tag_136\n      jump\t// in\n    tag_161:\n        /* \"#utility.yul\":5115:5140   */\n      swap2\n      pop\n        /* \"#utility.yul\":5154:5174   */\n      tag_162\n        /* \"#utility.yul\":5172:5173   */\n      dup4\n        /* \"#utility.yul\":5154:5174   */\n      tag_136\n      jump\t// in\n    tag_162:\n        /* \"#utility.yul\":5149:5174   */\n      swap3\n      pop\n        /* \"#utility.yul\":5308:5309   */\n      dup3\n        /* \"#utility.yul\":5240:5306   */\n      0xffffffffffffffffffffffffffffffffffffffffffffffffffffffffffffffff\n        /* \"#utility.yul\":5236:5310   */\n      sub\n        /* \"#utility.yul\":5233:5234   */\n      dup3\n        /* \"#utility.yul\":5230:5311   */\n      gt\n        /* \"#utility.yul\":5227:5229   */\n      iszero\n      tag_163\n      jumpi\n        /* \"#utility.yul\":5314:5332   */\n      tag_164\n      tag_165\n      jump\t// in\n    tag_164:\n        /* \"#utility.yul\":5227:5229   */\n    tag_163:\n        /* \"#utility.yul\":5358:5359   */\n      dup3\n        /* \"#utility.yul\":5355:5356   */\n      dup3\n        /* \"#utility.yul\":5351:5360   */\n      add\n        /* \"#utility.yul\":5344:5360   */\n      swap1\n      pop\n        /* \"#utility.yul\":5105:5366   */\n      swap3\n      swap2\n      pop\n      pop\n      jump\t// out\n        /* \"#utility.yul\":5372:5468   */\n    tag_114:\n      0x00\n        /* \"#utility.yul\":5438:5462   */\n      tag_167\n        /* \"#utility.yul\":5456:5461   */\n      dup3\n        /* \"#utility.yul\":5438:5462   */\n      tag_168\n      jump\t// in\n    tag_167:\n        /* \"#utility.yul\":5427:5462   */\n      swap1\n      pop\n        /* \"#utility.yul\":5417:5468   */\n      swap2\n      swap1\n      pop\n      jump\t// out\n        /* \"#utility.yul\":5474:5601   */\n    tag_169:\n      0x00\n        /* \"#utility.yul\":5548:5553   */\n      dup2\n        /* \"#utility.yul\":5537:5553   */\n      swap1\n      pop\n        /* \"#utility.yul\":5554:5595   */\n      tag_171\n        /* \"#utility.yul\":5589:5594   */\n      dup3\n        /* \"#utility.yul\":5554:5595   */\n      tag_172\n      jump\t// in\n    tag_171:\n        /* \"#utility.yul\":5527:5601   */\n      swap2\n      swap1\n      pop\n      jump\t// out\n        /* \"#utility.yul\":5607:5744   */\n    tag_173:\n      0x00\n        /* \"#utility.yul\":5686:5691   */\n      dup2\n        /* \"#utility.yul\":5675:5691   */\n      swap1\n      pop\n        /* \"#utility.yul\":5692:5738   */\n      tag_175\n        /* \"#utility.yul\":5732:5737   */\n      dup3\n        /* \"#utility.yul\":5692:5738   */\n      tag_176\n      jump\t// in\n    tag_175:\n        /* \"#utility.yul\":5665:5744   */\n      swap2\n      swap1\n      pop\n      jump\t// out\n        /* \"#utility.yul\":5750:5876   */\n    tag_168:\n      0x00\n        /* \"#utility.yul\":5827:5869   */\n      0xffffffffffffffffffffffffffffffffffffffff\n        /* \"#utility.yul\":5820:5825   */\n      dup3\n        /* \"#utility.yul\":5816:5870   */\n      and\n        /* \"#utility.yul\":5805:5870   */\n      swap1\n      pop\n        /* \"#utility.yul\":5795:5876   */\n      swap2\n      swap1\n      pop\n      jump\t// out\n        /* \"#utility.yul\":5882:5959   */\n    tag_136:\n      0x00\n        /* \"#utility.yul\":5948:5953   */\n      dup2\n        /* \"#utility.yul\":5937:5953   */\n      swap1\n      pop\n        /* \"#utility.yul\":5927:5959   */\n      swap2\n      swap1\n      pop\n      jump\t// out\n        /* \"#utility.yul\":5965:6092   */\n    tag_118:\n      0x00\n        /* \"#utility.yul\":6054:6086   */\n      tag_180\n        /* \"#utility.yul\":6080:6085   */\n      dup3\n        /* \"#utility.yul\":6054:6086   */\n      tag_169\n      jump\t// in\n    tag_180:\n        /* \"#utility.yul\":6041:6086   */\n      swap1\n      pop\n        /* \"#utility.yul\":6031:6092   */\n      swap2\n      swap1\n      pop\n      jump\t// out\n        /* \"#utility.yul\":6098:6235   */\n    tag_122:\n      0x00\n        /* \"#utility.yul\":6192:6229   */\n      tag_182\n        /* \"#utility.yul\":6223:6228   */\n      dup3\n        /* \"#utility.yul\":6192:6229   */\n      tag_173\n      jump\t// in\n    tag_182:\n        /* \"#utility.yul\":6179:6229   */\n      swap1\n      pop\n        /* \"#utility.yul\":6169:6235   */\n      swap2\n      swap1\n      pop\n      jump\t// out\n        /* \"#utility.yul\":6241:6395   */\n    tag_95:\n        /* \"#utility.yul\":6325:6331   */\n      dup3\n        /* \"#utility.yul\":6320:6323   */\n      dup2\n        /* \"#utility.yul\":6315:6318   */\n      dup4\n        /* \"#utility.yul\":6302:6332   */\n      calldatacopy\n        /* \"#utility.yul\":6387:6388   */\n      0x00\n        /* \"#utility.yul\":6378:6384   */\n      dup4\n        /* \"#utility.yul\":6373:6376   */\n      dup4\n        /* \"#utility.yul\":6369:6385   */\n      add\n        /* \"#utility.yul\":6362:6389   */\n      mstore\n        /* \"#utility.yul\":6292:6395   */\n      pop\n      pop\n      pop\n      jump\t// out\n        /* \"#utility.yul\":6401:6708   */\n    tag_130:\n        /* \"#utility.yul\":6469:6470   */\n      0x00\n        /* \"#utility.yul\":6479:6592   */\n    tag_185:\n        /* \"#utility.yul\":6493:6499   */\n      dup4\n        /* \"#utility.yul\":6490:6491   */\n      dup2\n        /* \"#utility.yul\":6487:6500   */\n      lt\n        /* \"#utility.yul\":6479:6592   */\n      iszero\n      tag_187\n      jumpi\n        /* \"#utility.yul\":6578:6579   */\n      dup1\n        /* \"#utility.yul\":6573:6576   */\n      dup3\n        /* \"#utility.yul\":6569:6580   */\n      add\n        /* \"#utility.yul\":6563:6581   */\n      mload\n        /* \"#utility.yul\":6559:6560   */\n      dup2\n        /* \"#utility.yul\":6554:6557   */\n      dup5\n        /* \"#utility.yul\":6550:6561   */\n      add\n        /* \"#utility.yul\":6543:6582   */\n      mstore\n        /* \"#utility.yul\":6515:6517   */\n      0x20\n        /* \"#utility.yul\":6512:6513   */\n      dup2\n        /* \"#utility.yul\":6508:6518   */\n      add\n        /* \"#utility.yul\":6503:6518   */\n      swap1\n      pop\n        /* \"#utility.yul\":6479:6592   */\n      jump(tag_185)\n    tag_187:\n        /* \"#utility.yul\":6610:6616   */\n      dup4\n        /* \"#utility.yul\":6607:6608   */\n      dup2\n        /* \"#utility.yul\":6604:6617   */\n      gt\n        /* \"#utility.yul\":6601:6603   */\n      iszero\n      tag_188\n      jumpi\n        /* \"#utility.yul\":6690:6691   */\n      0x00\n        /* \"#utility.yul\":6681:6687   */\n      dup5\n        /* \"#utility.yul\":6676:6679   */\n      dup5\n        /* \"#utility.yul\":6672:6688   */\n      add\n        /* \"#utility.yul\":6665:6692   */\n      mstore\n        /* \"#utility.yul\":6601:6603   */\n    tag_188:\n        /* \"#utility.yul\":6450:6708   */\n      pop\n      pop\n      pop\n      pop\n      jump\t// out\n        /* \"#utility.yul\":6714:7034   */\n    tag_47:\n      0x00\n        /* \"#utility.yul\":6795:6796   */\n      0x02\n        /* \"#utility.yul\":6789:6793   */\n      dup3\n        /* \"#utility.yul\":6785:6797   */\n      div\n        /* \"#utility.yul\":6775:6797   */\n      swap1\n      pop\n        /* \"#utility.yul\":6842:6843   */\n      0x01\n        /* \"#utility.yul\":6836:6840   */\n      dup3\n        /* \"#utility.yul\":6832:6844   */\n      and\n        /* \"#utility.yul\":6863:6881   */\n      dup1\n        /* \"#utility.yul\":6853:6855   */\n      tag_190\n      jumpi\n        /* \"#utility.yul\":6919:6923   */\n      0x7f\n        /* \"#utility.yul\":6911:6917   */\n      dup3\n        /* \"#utility.yul\":6907:6924   */\n      and\n        /* \"#utility.yul\":6897:6924   */\n      swap2\n      pop\n        /* \"#utility.yul\":6853:6855   */\n    tag_190:\n        /* \"#utility.yul\":6981:6983   */\n      0x20\n        /* \"#utility.yul\":6973:6979   */\n      dup3\n        /* \"#utility.yul\":6970:6984   */\n      lt\n        /* \"#utility.yul\":6950:6968   */\n      dup2\n        /* \"#utility.yul\":6947:6985   */\n      eq\n        /* \"#utility.yul\":6944:6946   */\n      iszero\n      tag_191\n      jumpi\n        /* \"#utility.yul\":7000:7018   */\n      tag_192\n      tag_193\n      jump\t// in\n    tag_192:\n        /* \"#utility.yul\":6944:6946   */\n    tag_191:\n        /* \"#utility.yul\":6765:7034   */\n      pop\n      swap2\n      swap1\n      pop\n      jump\t// out\n        /* \"#utility.yul\":7040:7220   */\n    tag_165:\n        /* \"#utility.yul\":7088:7165   */\n      0x4e487b7100000000000000000000000000000000000000000000000000000000\n        /* \"#utility.yul\":7085:7086   */\n      0x00\n        /* \"#utility.yul\":7078:7166   */\n      mstore\n        /* \"#utility.yul\":7185:7189   */\n      0x11\n        /* \"#utility.yul\":7182:7183   */\n      0x04\n        /* \"#utility.yul\":7175:7190   */\n      mstore\n        /* \"#utility.yul\":7209:7213   */\n      0x24\n        /* \"#utility.yul\":7206:7207   */\n      0x00\n        /* \"#utility.yul\":7199:7214   */\n      revert\n        /* \"#utility.yul\":7226:7406   */\n    tag_195:\n        /* \"#utility.yul\":7274:7351   */\n      0x4e487b7100000000000000000000000000000000000000000000000000000000\n        /* \"#utility.yul\":7271:7272   */\n      0x00\n        /* \"#utility.yul\":7264:7352   */\n      mstore\n        /* \"#utility.yul\":7371:7375   */\n      0x21\n        /* \"#utility.yul\":7368:7369   */\n      0x04\n        /* \"#utility.yul\":7361:7376   */\n      mstore\n        /* \"#utility.yul\":7395:7399   */\n      0x24\n        /* \"#utility.yul\":7392:7393   */\n      0x00\n        /* \"#utility.yul\":7385:7400   */\n      revert\n        /* \"#utility.yul\":7412:7592   */\n    tag_193:\n        /* \"#utility.yul\":7460:7537   */\n      0x4e487b7100000000000000000000000000000000000000000000000000000000\n        /* \"#utility.yul\":7457:7458   */\n      0x00\n        /* \"#utility.yul\":7450:7538   */\n      mstore\n        /* \"#utility.yul\":7557:7561   */\n      0x22\n        /* \"#utility.yul\":7554:7555   */\n      0x04\n        /* \"#utility.yul\":7547:7562   */\n      mstore\n        /* \"#utility.yul\":7581:7585   */\n      0x24\n        /* \"#utility.yul\":7578:7579   */\n      0x00\n        /* \"#utility.yul\":7571:7586   */\n      revert\n        /* \"#utility.yul\":7598:7778   */\n    tag_154:\n        /* \"#utility.yul\":7646:7723   */\n      0x4e487b7100000000000000000000000000000000000000000000000000000000\n        /* \"#utility.yul\":7643:7644   */\n      0x00\n        /* \"#utility.yul\":7636:7724   */\n      mstore\n        /* \"#utility.yul\":7743:7747   */\n      0x41\n        /* \"#utility.yul\":7740:7741   */\n      0x04\n        /* \"#utility.yul\":7733:7748   */\n      mstore\n        /* \"#utility.yul\":7767:7771   */\n      0x24\n        /* \"#utility.yul\":7764:7765   */\n      0x00\n        /* \"#utility.yul\":7757:7772   */\n      revert\n        /* \"#utility.yul\":7784:7886   */\n    tag_132:\n      0x00\n        /* \"#utility.yul\":7876:7878   */\n      0x1f\n        /* \"#utility.yul\":7872:7879   */\n      not\n        /* \"#utility.yul\":7867:7869   */\n      0x1f\n        /* \"#utility.yul\":7860:7865   */\n      dup4\n        /* \"#utility.yul\":7856:7870   */\n      add\n        /* \"#utility.yul\":7852:7880   */\n      and\n        /* \"#utility.yul\":7842:7880   */\n      swap1\n      pop\n        /* \"#utility.yul\":7832:7886   */\n      swap2\n      swap1\n      pop\n      jump\t// out\n        /* \"#utility.yul\":7892:8005   */\n    tag_172:\n        /* \"#utility.yul\":7973:7974   */\n      0x07\n        /* \"#utility.yul\":7966:7971   */\n      dup2\n        /* \"#utility.yul\":7963:7975   */\n      lt\n        /* \"#utility.yul\":7953:7955   */\n      tag_201\n      jumpi\n        /* \"#utility.yul\":7979:7997   */\n      tag_202\n      tag_195\n      jump\t// in\n    tag_202:\n        /* \"#utility.yul\":7953:7955   */\n    tag_201:\n        /* \"#utility.yul\":7943:8005   */\n      pop\n      jump\t// out\n        /* \"#utility.yul\":8011:8129   */\n    tag_176:\n        /* \"#utility.yul\":8097:8098   */\n      0x04\n        /* \"#utility.yul\":8090:8095   */\n      dup2\n        /* \"#utility.yul\":8087:8099   */\n      lt\n        /* \"#utility.yul\":8077:8079   */\n      tag_204\n      jumpi\n        /* \"#utility.yul\":8103:8121   */\n      tag_205\n      tag_195\n      jump\t// in\n    tag_205:\n        /* \"#utility.yul\":8077:8079   */\n    tag_204:\n        /* \"#utility.yul\":8067:8129   */\n      pop\n      jump\t// out\n        /* \"#utility.yul\":8135:8257   */\n    tag_103:\n        /* \"#utility.yul\":8208:8232   */\n      tag_207\n        /* \"#utility.yul\":8226:8231   */\n      dup2\n        /* \"#utility.yul\":8208:8232   */\n      tag_136\n      jump\t// in\n    tag_207:\n        /* \"#utility.yul\":8201:8206   */\n      dup2\n        /* \"#utility.yul\":8198:8233   */\n      eq\n        /* \"#utility.yul\":8188:8190   */\n      tag_208\n      jumpi\n        /* \"#utility.yul\":8247:8248   */\n      0x00\n        /* \"#utility.yul\":8244:8245   */\n      dup1\n        /* \"#utility.yul\":8237:8249   */\n      revert\n        /* \"#utility.yul\":8188:8190   */\n    tag_208:\n        /* \"#utility.yul\":8178:8257   */\n      pop\n      jump\t// out\n\n    auxdata: 0xa2646970667358221220a873157964f2b5acafb7dde80ce60d23b6597e2a901c6e52c3e74aae55a37c3864736f6c63430008000033\n}\n",
				"bytecode": {
					"linkReferences": {},
					"object": "608060405260008055600060025534801561001957600080fd5b5033600560006101000a81548173ffffffffffffffffffffffffffffffffffffffff021916908373ffffffffffffffffffffffffffffffffffffffff1602179055506112618061006a6000396000f3fe608060405234801561001057600080fd5b50600436106100625760003560e01c806315533a271461006757806317b47cc4146100835780632fa5ad1a146100b757806335c1d349146100d35780638da5cb5b146101075780638f5ae79914610125575b600080fd5b610081600480360381019061007c9190610da4565b610141565b005b61009d60048036038101906100989190610de5565b61042f565b6040516100ae959493929190610e9e565b60405180910390f35b6100d160048036038101906100cc9190610da4565b61051a565b005b6100ed60048036038101906100e89190610de5565b610808565b6040516100fe959493929190610ef8565b60405180910390f35b61010f6108f3565b60405161011c9190610e83565b60405180910390f35b61013f600480360381019061013a9190610da4565b610919565b005b610149610c07565b81816000018190525060025481602001818152505060008160400190600381111561019d577f4e487b7100000000000000000000000000000000000000000000000000000000600052602160045260246000fd5b908160038111156101d7577f4e487b7100000000000000000000000000000000000000000000000000000000600052602160045260246000fd5b8152505033816060019073ffffffffffffffffffffffffffffffffffffffff16908173ffffffffffffffffffffffffffffffffffffffff16815250506000816080018181525050806003600060025481526020019081526020016000206000820151816000019080519060200190610250929190610c84565b506020820151816001015560408201518160020160006101000a81548160ff021916908360038111156102ac577f4e487b7100000000000000000000000000000000000000000000000000000000600052602160045260246000fd5b021790555060608201518160020160016101000a81548173ffffffffffffffffffffffffffffffffffffffff021916908373ffffffffffffffffffffffffffffffffffffffff1602179055506080820151816003015590505080600460003373ffffffffffffffffffffffffffffffffffffffff1673ffffffffffffffffffffffffffffffffffffffff1681526020019081526020016000206000820151816000019080519060200190610361929190610c84565b506020820151816001015560408201518160020160006101000a81548160ff021916908360038111156103bd577f4e487b7100000000000000000000000000000000000000000000000000000000600052602160045260246000fd5b021790555060608201518160020160016101000a81548173ffffffffffffffffffffffffffffffffffffffff021916908373ffffffffffffffffffffffffffffffffffffffff1602179055506080820151816003015590505060016002546104259190610fcf565b6002819055505050565b6001602052806000526040600020600091509050806000018054610452906110ed565b80601f016020809104026020016040519081016040528092919081815260200182805461047e906110ed565b80156104cb5780601f106104a0576101008083540402835291602001916104cb565b820191906000526020600020905b8154815290600101906020018083116104ae57829003601f168201915b5050505050908060010154908060020160009054906101000a900473ffffffffffffffffffffffffffffffffffffffff16908060020160149054906101000a900460ff16908060030154905085565b610522610c07565b8181600001819052506002548160200181815250506000816080018181525050600181604001906003811115610581577f4e487b7100000000000000000000000000000000000000000000000000000000600052602160045260246000fd5b908160038111156105bb577f4e487b7100000000000000000000000000000000000000000000000000000000600052602160045260246000fd5b8152505033816060019073ffffffffffffffffffffffffffffffffffffffff16908173ffffffffffffffffffffffffffffffffffffffff1681525050806003600060025481526020019081526020016000206000820151816000019080519060200190610629929190610c84565b506020820151816001015560408201518160020160006101000a81548160ff02191690836003811115610685577f4e487b7100000000000000000000000000000000000000000000000000000000600052602160045260246000fd5b021790555060608201518160020160016101000a81548173ffffffffffffffffffffffffffffffffffffffff021916908373ffffffffffffffffffffffffffffffffffffffff1602179055506080820151816003015590505080600460003373ffffffffffffffffffffffffffffffffffffffff1673ffffffffffffffffffffffffffffffffffffffff168152602001908152602001600020600082015181600001908051906020019061073a929190610c84565b506020820151816001015560408201518160020160006101000a81548160ff02191690836003811115610796577f4e487b7100000000000000000000000000000000000000000000000000000000600052602160045260246000fd5b021790555060608201518160020160016101000a81548173ffffffffffffffffffffffffffffffffffffffff021916908373ffffffffffffffffffffffffffffffffffffffff1602179055506080820151816003015590505060016002546107fe9190610fcf565b6002819055505050565b600360205280600052604060002060009150905080600001805461082b906110ed565b80601f0160208091040260200160405190810160405280929190818152602001828054610857906110ed565b80156108a45780601f10610879576101008083540402835291602001916108a4565b820191906000526020600020905b81548152906001019060200180831161088757829003601f168201915b5050505050908060010154908060020160009054906101000a900460ff16908060020160019054906101000a900473ffffffffffffffffffffffffffffffffffffffff16908060030154905085565b600560009054906101000a900473ffffffffffffffffffffffffffffffffffffffff1681565b610921610c07565b8181600001819052506002548160200181815250506000816080018181525050600381604001906003811115610980577f4e487b7100000000000000000000000000000000000000000000000000000000600052602160045260246000fd5b908160038111156109ba577f4e487b7100000000000000000000000000000000000000000000000000000000600052602160045260246000fd5b8152505033816060019073ffffffffffffffffffffffffffffffffffffffff16908173ffffffffffffffffffffffffffffffffffffffff1681525050806003600060025481526020019081526020016000206000820151816000019080519060200190610a28929190610c84565b506020820151816001015560408201518160020160006101000a81548160ff02191690836003811115610a84577f4e487b7100000000000000000000000000000000000000000000000000000000600052602160045260246000fd5b021790555060608201518160020160016101000a81548173ffffffffffffffffffffffffffffffffffffffff021916908373ffffffffffffffffffffffffffffffffffffffff1602179055506080820151816003015590505080600460003373ffffffffffffffffffffffffffffffffffffffff1673ffffffffffffffffffffffffffffffffffffffff1681526020019081526020016000206000820151816000019080519060200190610b39929190610c84565b506020820151816001015560408201518160020160006101000a81548160ff02191690836003811115610b95577f4e487b7100000000000000000000000000000000000000000000000000000000600052602160045260246000fd5b021790555060608201518160020160016101000a81548173ffffffffffffffffffffffffffffffffffffffff021916908373ffffffffffffffffffffffffffffffffffffffff160217905550608082015181600301559050506001600254610bfd9190610fcf565b6002819055505050565b6040518060a00160405280606081526020016000815260200160006003811115610c5a577f4e487b7100000000000000000000000000000000000000000000000000000000600052602160045260246000fd5b8152602001600073ffffffffffffffffffffffffffffffffffffffff168152602001600081525090565b828054610c90906110ed565b90600052602060002090601f016020900481019282610cb25760008555610cf9565b82601f10610ccb57805160ff1916838001178555610cf9565b82800160010185558215610cf9579182015b82811115610cf8578251825591602001919060010190610cdd565b5b509050610d069190610d0a565b5090565b5b80821115610d23576000816000905550600101610d0b565b5090565b6000610d3a610d3584610f83565b610f52565b905082815260208101848484011115610d5257600080fd5b610d5d8482856110ab565b509392505050565b600082601f830112610d7657600080fd5b8135610d86848260208601610d27565b91505092915050565b600081359050610d9e81611214565b92915050565b600060208284031215610db657600080fd5b600082013567ffffffffffffffff811115610dd057600080fd5b610ddc84828501610d65565b91505092915050565b600060208284031215610df757600080fd5b6000610e0584828501610d8f565b91505092915050565b610e1781611025565b82525050565b610e2681611087565b82525050565b610e3581611099565b82525050565b6000610e4682610fb3565b610e508185610fbe565b9350610e608185602086016110ba565b610e69816111db565b840191505092915050565b610e7d8161107d565b82525050565b6000602082019050610e986000830184610e0e565b92915050565b600060a0820190508181036000830152610eb88188610e3b565b9050610ec76020830187610e74565b610ed46040830186610e0e565b610ee16060830185610e1d565b610eee6080830184610e74565b9695505050505050565b600060a0820190508181036000830152610f128188610e3b565b9050610f216020830187610e74565b610f2e6040830186610e2c565b610f3b6060830185610e0e565b610f486080830184610e74565b9695505050505050565b6000604051905081810181811067ffffffffffffffff82111715610f7957610f786111ac565b5b8060405250919050565b600067ffffffffffffffff821115610f9e57610f9d6111ac565b5b601f19601f8301169050602081019050919050565b600081519050919050565b600082825260208201905092915050565b6000610fda8261107d565b9150610fe58361107d565b9250827fffffffffffffffffffffffffffffffffffffffffffffffffffffffffffffffff0382111561101a5761101961111f565b5b828201905092915050565b60006110308261105d565b9050919050565b6000819050611045826111ec565b919050565b600081905061105882611200565b919050565b600073ffffffffffffffffffffffffffffffffffffffff82169050919050565b6000819050919050565b600061109282611037565b9050919050565b60006110a48261104a565b9050919050565b82818337600083830152505050565b60005b838110156110d85780820151818401526020810190506110bd565b838111156110e7576000848401525b50505050565b6000600282049050600182168061110557607f821691505b602082108114156111195761111861117d565b5b50919050565b7f4e487b7100000000000000000000000000000000000000000000000000000000600052601160045260246000fd5b7f4e487b7100000000000000000000000000000000000000000000000000000000600052602160045260246000fd5b7f4e487b7100000000000000000000000000000000000000000000000000000000600052602260045260246000fd5b7f4e487b7100000000000000000000000000000000000000000000000000000000600052604160045260246000fd5b6000601f19601f8301169050919050565b600781106111fd576111fc61114e565b5b50565b600481106112115761121061114e565b5b50565b61121d8161107d565b811461122857600080fd5b5056fea2646970667358221220a873157964f2b5acafb7dde80ce60d23b6597e2a901c6e52c3e74aae55a37c3864736f6c63430008000033",
					"opcodes": "PUSH1 0x80 PUSH1 0x40 MSTORE PUSH1 0x0 DUP1 SSTORE PUSH1 0x0 PUSH1 0x2 SSTORE CALLVALUE DUP1 ISZERO PUSH2 0x19 JUMPI PUSH1 0x0 DUP1 REVERT JUMPDEST POP CALLER PUSH1 0x5 PUSH1 0x0 PUSH2 0x100 EXP DUP2 SLOAD DUP2 PUSH20 0xFFFFFFFFFFFFFFFFFFFFFFFFFFFFFFFFFFFFFFFF MUL NOT AND SWAP1 DUP4 PUSH20 0xFFFFFFFFFFFFFFFFFFFFFFFFFFFFFFFFFFFFFFFF AND MUL OR SWAP1 SSTORE POP PUSH2 0x1261 DUP1 PUSH2 0x6A PUSH1 0x0 CODECOPY PUSH1 0x0 RETURN INVALID PUSH1 0x80 PUSH1 0x40 MSTORE CALLVALUE DUP1 ISZERO PUSH2 0x10 JUMPI PUSH1 0x0 DUP1 REVERT JUMPDEST POP PUSH1 0x4 CALLDATASIZE LT PUSH2 0x62 JUMPI PUSH1 0x0 CALLDATALOAD PUSH1 0xE0 SHR DUP1 PUSH4 0x15533A27 EQ PUSH2 0x67 JUMPI DUP1 PUSH4 0x17B47CC4 EQ PUSH2 0x83 JUMPI DUP1 PUSH4 0x2FA5AD1A EQ PUSH2 0xB7 JUMPI DUP1 PUSH4 0x35C1D349 EQ PUSH2 0xD3 JUMPI DUP1 PUSH4 0x8DA5CB5B EQ PUSH2 0x107 JUMPI DUP1 PUSH4 0x8F5AE799 EQ PUSH2 0x125 JUMPI JUMPDEST PUSH1 0x0 DUP1 REVERT JUMPDEST PUSH2 0x81 PUSH1 0x4 DUP1 CALLDATASIZE SUB DUP2 ADD SWAP1 PUSH2 0x7C SWAP2 SWAP1 PUSH2 0xDA4 JUMP JUMPDEST PUSH2 0x141 JUMP JUMPDEST STOP JUMPDEST PUSH2 0x9D PUSH1 0x4 DUP1 CALLDATASIZE SUB DUP2 ADD SWAP1 PUSH2 0x98 SWAP2 SWAP1 PUSH2 0xDE5 JUMP JUMPDEST PUSH2 0x42F JUMP JUMPDEST PUSH1 0x40 MLOAD PUSH2 0xAE SWAP6 SWAP5 SWAP4 SWAP3 SWAP2 SWAP1 PUSH2 0xE9E JUMP JUMPDEST PUSH1 0x40 MLOAD DUP1 SWAP2 SUB SWAP1 RETURN JUMPDEST PUSH2 0xD1 PUSH1 0x4 DUP1 CALLDATASIZE SUB DUP2 ADD SWAP1 PUSH2 0xCC SWAP2 SWAP1 PUSH2 0xDA4 JUMP JUMPDEST PUSH2 0x51A JUMP JUMPDEST STOP JUMPDEST PUSH2 0xED PUSH1 0x4 DUP1 CALLDATASIZE SUB DUP2 ADD SWAP1 PUSH2 0xE8 SWAP2 SWAP1 PUSH2 0xDE5 JUMP JUMPDEST PUSH2 0x808 JUMP JUMPDEST PUSH1 0x40 MLOAD PUSH2 0xFE SWAP6 SWAP5 SWAP4 SWAP3 SWAP2 SWAP1 PUSH2 0xEF8 JUMP JUMPDEST PUSH1 0x40 MLOAD DUP1 SWAP2 SUB SWAP1 RETURN JUMPDEST PUSH2 0x10F PUSH2 0x8F3 JUMP JUMPDEST PUSH1 0x40 MLOAD PUSH2 0x11C SWAP2 SWAP1 PUSH2 0xE83 JUMP JUMPDEST PUSH1 0x40 MLOAD DUP1 SWAP2 SUB SWAP1 RETURN JUMPDEST PUSH2 0x13F PUSH1 0x4 DUP1 CALLDATASIZE SUB DUP2 ADD SWAP1 PUSH2 0x13A SWAP2 SWAP1 PUSH2 0xDA4 JUMP JUMPDEST PUSH2 0x919 JUMP JUMPDEST STOP JUMPDEST PUSH2 0x149 PUSH2 0xC07 JUMP JUMPDEST DUP2 DUP2 PUSH1 0x0 ADD DUP2 SWAP1 MSTORE POP PUSH1 0x2 SLOAD DUP2 PUSH1 0x20 ADD DUP2 DUP2 MSTORE POP POP PUSH1 0x0 DUP2 PUSH1 0x40 ADD SWAP1 PUSH1 0x3 DUP2 GT ISZERO PUSH2 0x19D JUMPI PUSH32 0x4E487B7100000000000000000000000000000000000000000000000000000000 PUSH1 0x0 MSTORE PUSH1 0x21 PUSH1 0x4 MSTORE PUSH1 0x24 PUSH1 0x0 REVERT JUMPDEST SWAP1 DUP2 PUSH1 0x3 DUP2 GT ISZERO PUSH2 0x1D7 JUMPI PUSH32 0x4E487B7100000000000000000000000000000000000000000000000000000000 PUSH1 0x0 MSTORE PUSH1 0x21 PUSH1 0x4 MSTORE PUSH1 0x24 PUSH1 0x0 REVERT JUMPDEST DUP2 MSTORE POP POP CALLER DUP2 PUSH1 0x60 ADD SWAP1 PUSH20 0xFFFFFFFFFFFFFFFFFFFFFFFFFFFFFFFFFFFFFFFF AND SWAP1 DUP2 PUSH20 0xFFFFFFFFFFFFFFFFFFFFFFFFFFFFFFFFFFFFFFFF AND DUP2 MSTORE POP POP PUSH1 0x0 DUP2 PUSH1 0x80 ADD DUP2 DUP2 MSTORE POP POP DUP1 PUSH1 0x3 PUSH1 0x0 PUSH1 0x2 SLOAD DUP2 MSTORE PUSH1 0x20 ADD SWAP1 DUP2 MSTORE PUSH1 0x20 ADD PUSH1 0x0 KECCAK256 PUSH1 0x0 DUP3 ADD MLOAD DUP2 PUSH1 0x0 ADD SWAP1 DUP1 MLOAD SWAP1 PUSH1 0x20 ADD SWAP1 PUSH2 0x250 SWAP3 SWAP2 SWAP1 PUSH2 0xC84 JUMP JUMPDEST POP PUSH1 0x20 DUP3 ADD MLOAD DUP2 PUSH1 0x1 ADD SSTORE PUSH1 0x40 DUP3 ADD MLOAD DUP2 PUSH1 0x2 ADD PUSH1 0x0 PUSH2 0x100 EXP DUP2 SLOAD DUP2 PUSH1 0xFF MUL NOT AND SWAP1 DUP4 PUSH1 0x3 DUP2 GT ISZERO PUSH2 0x2AC JUMPI PUSH32 0x4E487B7100000000000000000000000000000000000000000000000000000000 PUSH1 0x0 MSTORE PUSH1 0x21 PUSH1 0x4 MSTORE PUSH1 0x24 PUSH1 0x0 REVERT JUMPDEST MUL OR SWAP1 SSTORE POP PUSH1 0x60 DUP3 ADD MLOAD DUP2 PUSH1 0x2 ADD PUSH1 0x1 PUSH2 0x100 EXP DUP2 SLOAD DUP2 PUSH20 0xFFFFFFFFFFFFFFFFFFFFFFFFFFFFFFFFFFFFFFFF MUL NOT AND SWAP1 DUP4 PUSH20 0xFFFFFFFFFFFFFFFFFFFFFFFFFFFFFFFFFFFFFFFF AND MUL OR SWAP1 SSTORE POP PUSH1 0x80 DUP3 ADD MLOAD DUP2 PUSH1 0x3 ADD SSTORE SWAP1 POP POP DUP1 PUSH1 0x4 PUSH1 0x0 CALLER PUSH20 0xFFFFFFFFFFFFFFFFFFFFFFFFFFFFFFFFFFFFFFFF AND PUSH20 0xFFFFFFFFFFFFFFFFFFFFFFFFFFFFFFFFFFFFFFFF AND DUP2 MSTORE PUSH1 0x20 ADD SWAP1 DUP2 MSTORE PUSH1 0x20 ADD PUSH1 0x0 KECCAK256 PUSH1 0x0 DUP3 ADD MLOAD DUP2 PUSH1 0x0 ADD SWAP1 DUP1 MLOAD SWAP1 PUSH1 0x20 ADD SWAP1 PUSH2 0x361 SWAP3 SWAP2 SWAP1 PUSH2 0xC84 JUMP JUMPDEST POP PUSH1 0x20 DUP3 ADD MLOAD DUP2 PUSH1 0x1 ADD SSTORE PUSH1 0x40 DUP3 ADD MLOAD DUP2 PUSH1 0x2 ADD PUSH1 0x0 PUSH2 0x100 EXP DUP2 SLOAD DUP2 PUSH1 0xFF MUL NOT AND SWAP1 DUP4 PUSH1 0x3 DUP2 GT ISZERO PUSH2 0x3BD JUMPI PUSH32 0x4E487B7100000000000000000000000000000000000000000000000000000000 PUSH1 0x0 MSTORE PUSH1 0x21 PUSH1 0x4 MSTORE PUSH1 0x24 PUSH1 0x0 REVERT JUMPDEST MUL OR SWAP1 SSTORE POP PUSH1 0x60 DUP3 ADD MLOAD DUP2 PUSH1 0x2 ADD PUSH1 0x1 PUSH2 0x100 EXP DUP2 SLOAD DUP2 PUSH20 0xFFFFFFFFFFFFFFFFFFFFFFFFFFFFFFFFFFFFFFFF MUL NOT AND SWAP1 DUP4 PUSH20 0xFFFFFFFFFFFFFFFFFFFFFFFFFFFFFFFFFFFFFFFF AND MUL OR SWAP1 SSTORE POP PUSH1 0x80 DUP3 ADD MLOAD DUP2 PUSH1 0x3 ADD SSTORE SWAP1 POP POP PUSH1 0x1 PUSH1 0x2 SLOAD PUSH2 0x425 SWAP2 SWAP1 PUSH2 0xFCF JUMP JUMPDEST PUSH1 0x2 DUP2 SWAP1 SSTORE POP POP POP JUMP JUMPDEST PUSH1 0x1 PUSH1 0x20 MSTORE DUP1 PUSH1 0x0 MSTORE PUSH1 0x40 PUSH1 0x0 KECCAK256 PUSH1 0x0 SWAP2 POP SWAP1 POP DUP1 PUSH1 0x0 ADD DUP1 SLOAD PUSH2 0x452 SWAP1 PUSH2 0x10ED JUMP JUMPDEST DUP1 PUSH1 0x1F ADD PUSH1 0x20 DUP1 SWAP2 DIV MUL PUSH1 0x20 ADD PUSH1 0x40 MLOAD SWAP1 DUP2 ADD PUSH1 0x40 MSTORE DUP1 SWAP3 SWAP2 SWAP1 DUP2 DUP2 MSTORE PUSH1 0x20 ADD DUP3 DUP1 SLOAD PUSH2 0x47E SWAP1 PUSH2 0x10ED JUMP JUMPDEST DUP1 ISZERO PUSH2 0x4CB JUMPI DUP1 PUSH1 0x1F LT PUSH2 0x4A0 JUMPI PUSH2 0x100 DUP1 DUP4 SLOAD DIV MUL DUP4 MSTORE SWAP2 PUSH1 0x20 ADD SWAP2 PUSH2 0x4CB JUMP JUMPDEST DUP3 ADD SWAP2 SWAP1 PUSH1 0x0 MSTORE PUSH1 0x20 PUSH1 0x0 KECCAK256 SWAP1 JUMPDEST DUP2 SLOAD DUP2 MSTORE SWAP1 PUSH1 0x1 ADD SWAP1 PUSH1 0x20 ADD DUP1 DUP4 GT PUSH2 0x4AE JUMPI DUP3 SWAP1 SUB PUSH1 0x1F AND DUP3 ADD SWAP2 JUMPDEST POP POP POP POP POP SWAP1 DUP1 PUSH1 0x1 ADD SLOAD SWAP1 DUP1 PUSH1 0x2 ADD PUSH1 0x0 SWAP1 SLOAD SWAP1 PUSH2 0x100 EXP SWAP1 DIV PUSH20 0xFFFFFFFFFFFFFFFFFFFFFFFFFFFFFFFFFFFFFFFF AND SWAP1 DUP1 PUSH1 0x2 ADD PUSH1 0x14 SWAP1 SLOAD SWAP1 PUSH2 0x100 EXP SWAP1 DIV PUSH1 0xFF AND SWAP1 DUP1 PUSH1 0x3 ADD SLOAD SWAP1 POP DUP6 JUMP JUMPDEST PUSH2 0x522 PUSH2 0xC07 JUMP JUMPDEST DUP2 DUP2 PUSH1 0x0 ADD DUP2 SWAP1 MSTORE POP PUSH1 0x2 SLOAD DUP2 PUSH1 0x20 ADD DUP2 DUP2 MSTORE POP POP PUSH1 0x0 DUP2 PUSH1 0x80 ADD DUP2 DUP2 MSTORE POP POP PUSH1 0x1 DUP2 PUSH1 0x40 ADD SWAP1 PUSH1 0x3 DUP2 GT ISZERO PUSH2 0x581 JUMPI PUSH32 0x4E487B7100000000000000000000000000000000000000000000000000000000 PUSH1 0x0 MSTORE PUSH1 0x21 PUSH1 0x4 MSTORE PUSH1 0x24 PUSH1 0x0 REVERT JUMPDEST SWAP1 DUP2 PUSH1 0x3 DUP2 GT ISZERO PUSH2 0x5BB JUMPI PUSH32 0x4E487B7100000000000000000000000000000000000000000000000000000000 PUSH1 0x0 MSTORE PUSH1 0x21 PUSH1 0x4 MSTORE PUSH1 0x24 PUSH1 0x0 REVERT JUMPDEST DUP2 MSTORE POP POP CALLER DUP2 PUSH1 0x60 ADD SWAP1 PUSH20 0xFFFFFFFFFFFFFFFFFFFFFFFFFFFFFFFFFFFFFFFF AND SWAP1 DUP2 PUSH20 0xFFFFFFFFFFFFFFFFFFFFFFFFFFFFFFFFFFFFFFFF AND DUP2 MSTORE POP POP DUP1 PUSH1 0x3 PUSH1 0x0 PUSH1 0x2 SLOAD DUP2 MSTORE PUSH1 0x20 ADD SWAP1 DUP2 MSTORE PUSH1 0x20 ADD PUSH1 0x0 KECCAK256 PUSH1 0x0 DUP3 ADD MLOAD DUP2 PUSH1 0x0 ADD SWAP1 DUP1 MLOAD SWAP1 PUSH1 0x20 ADD SWAP1 PUSH2 0x629 SWAP3 SWAP2 SWAP1 PUSH2 0xC84 JUMP JUMPDEST POP PUSH1 0x20 DUP3 ADD MLOAD DUP2 PUSH1 0x1 ADD SSTORE PUSH1 0x40 DUP3 ADD MLOAD DUP2 PUSH1 0x2 ADD PUSH1 0x0 PUSH2 0x100 EXP DUP2 SLOAD DUP2 PUSH1 0xFF MUL NOT AND SWAP1 DUP4 PUSH1 0x3 DUP2 GT ISZERO PUSH2 0x685 JUMPI PUSH32 0x4E487B7100000000000000000000000000000000000000000000000000000000 PUSH1 0x0 MSTORE PUSH1 0x21 PUSH1 0x4 MSTORE PUSH1 0x24 PUSH1 0x0 REVERT JUMPDEST MUL OR SWAP1 SSTORE POP PUSH1 0x60 DUP3 ADD MLOAD DUP2 PUSH1 0x2 ADD PUSH1 0x1 PUSH2 0x100 EXP DUP2 SLOAD DUP2 PUSH20 0xFFFFFFFFFFFFFFFFFFFFFFFFFFFFFFFFFFFFFFFF MUL NOT AND SWAP1 DUP4 PUSH20 0xFFFFFFFFFFFFFFFFFFFFFFFFFFFFFFFFFFFFFFFF AND MUL OR SWAP1 SSTORE POP PUSH1 0x80 DUP3 ADD MLOAD DUP2 PUSH1 0x3 ADD SSTORE SWAP1 POP POP DUP1 PUSH1 0x4 PUSH1 0x0 CALLER PUSH20 0xFFFFFFFFFFFFFFFFFFFFFFFFFFFFFFFFFFFFFFFF AND PUSH20 0xFFFFFFFFFFFFFFFFFFFFFFFFFFFFFFFFFFFFFFFF AND DUP2 MSTORE PUSH1 0x20 ADD SWAP1 DUP2 MSTORE PUSH1 0x20 ADD PUSH1 0x0 KECCAK256 PUSH1 0x0 DUP3 ADD MLOAD DUP2 PUSH1 0x0 ADD SWAP1 DUP1 MLOAD SWAP1 PUSH1 0x20 ADD SWAP1 PUSH2 0x73A SWAP3 SWAP2 SWAP1 PUSH2 0xC84 JUMP JUMPDEST POP PUSH1 0x20 DUP3 ADD MLOAD DUP2 PUSH1 0x1 ADD SSTORE PUSH1 0x40 DUP3 ADD MLOAD DUP2 PUSH1 0x2 ADD PUSH1 0x0 PUSH2 0x100 EXP DUP2 SLOAD DUP2 PUSH1 0xFF MUL NOT AND SWAP1 DUP4 PUSH1 0x3 DUP2 GT ISZERO PUSH2 0x796 JUMPI PUSH32 0x4E487B7100000000000000000000000000000000000000000000000000000000 PUSH1 0x0 MSTORE PUSH1 0x21 PUSH1 0x4 MSTORE PUSH1 0x24 PUSH1 0x0 REVERT JUMPDEST MUL OR SWAP1 SSTORE POP PUSH1 0x60 DUP3 ADD MLOAD DUP2 PUSH1 0x2 ADD PUSH1 0x1 PUSH2 0x100 EXP DUP2 SLOAD DUP2 PUSH20 0xFFFFFFFFFFFFFFFFFFFFFFFFFFFFFFFFFFFFFFFF MUL NOT AND SWAP1 DUP4 PUSH20 0xFFFFFFFFFFFFFFFFFFFFFFFFFFFFFFFFFFFFFFFF AND MUL OR SWAP1 SSTORE POP PUSH1 0x80 DUP3 ADD MLOAD DUP2 PUSH1 0x3 ADD SSTORE SWAP1 POP POP PUSH1 0x1 PUSH1 0x2 SLOAD PUSH2 0x7FE SWAP2 SWAP1 PUSH2 0xFCF JUMP JUMPDEST PUSH1 0x2 DUP2 SWAP1 SSTORE POP POP POP JUMP JUMPDEST PUSH1 0x3 PUSH1 0x20 MSTORE DUP1 PUSH1 0x0 MSTORE PUSH1 0x40 PUSH1 0x0 KECCAK256 PUSH1 0x0 SWAP2 POP SWAP1 POP DUP1 PUSH1 0x0 ADD DUP1 SLOAD PUSH2 0x82B SWAP1 PUSH2 0x10ED JUMP JUMPDEST DUP1 PUSH1 0x1F ADD PUSH1 0x20 DUP1 SWAP2 DIV MUL PUSH1 0x20 ADD PUSH1 0x40 MLOAD SWAP1 DUP2 ADD PUSH1 0x40 MSTORE DUP1 SWAP3 SWAP2 SWAP1 DUP2 DUP2 MSTORE PUSH1 0x20 ADD DUP3 DUP1 SLOAD PUSH2 0x857 SWAP1 PUSH2 0x10ED JUMP JUMPDEST DUP1 ISZERO PUSH2 0x8A4 JUMPI DUP1 PUSH1 0x1F LT PUSH2 0x879 JUMPI PUSH2 0x100 DUP1 DUP4 SLOAD DIV MUL DUP4 MSTORE SWAP2 PUSH1 0x20 ADD SWAP2 PUSH2 0x8A4 JUMP JUMPDEST DUP3 ADD SWAP2 SWAP1 PUSH1 0x0 MSTORE PUSH1 0x20 PUSH1 0x0 KECCAK256 SWAP1 JUMPDEST DUP2 SLOAD DUP2 MSTORE SWAP1 PUSH1 0x1 ADD SWAP1 PUSH1 0x20 ADD DUP1 DUP4 GT PUSH2 0x887 JUMPI DUP3 SWAP1 SUB PUSH1 0x1F AND DUP3 ADD SWAP2 JUMPDEST POP POP POP POP POP SWAP1 DUP1 PUSH1 0x1 ADD SLOAD SWAP1 DUP1 PUSH1 0x2 ADD PUSH1 0x0 SWAP1 SLOAD SWAP1 PUSH2 0x100 EXP SWAP1 DIV PUSH1 0xFF AND SWAP1 DUP1 PUSH1 0x2 ADD PUSH1 0x1 SWAP1 SLOAD SWAP1 PUSH2 0x100 EXP SWAP1 DIV PUSH20 0xFFFFFFFFFFFFFFFFFFFFFFFFFFFFFFFFFFFFFFFF AND SWAP1 DUP1 PUSH1 0x3 ADD SLOAD SWAP1 POP DUP6 JUMP JUMPDEST PUSH1 0x5 PUSH1 0x0 SWAP1 SLOAD SWAP1 PUSH2 0x100 EXP SWAP1 DIV PUSH20 0xFFFFFFFFFFFFFFFFFFFFFFFFFFFFFFFFFFFFFFFF AND DUP2 JUMP JUMPDEST PUSH2 0x921 PUSH2 0xC07 JUMP JUMPDEST DUP2 DUP2 PUSH1 0x0 ADD DUP2 SWAP1 MSTORE POP PUSH1 0x2 SLOAD DUP2 PUSH1 0x20 ADD DUP2 DUP2 MSTORE POP POP PUSH1 0x0 DUP2 PUSH1 0x80 ADD DUP2 DUP2 MSTORE POP POP PUSH1 0x3 DUP2 PUSH1 0x40 ADD SWAP1 PUSH1 0x3 DUP2 GT ISZERO PUSH2 0x980 JUMPI PUSH32 0x4E487B7100000000000000000000000000000000000000000000000000000000 PUSH1 0x0 MSTORE PUSH1 0x21 PUSH1 0x4 MSTORE PUSH1 0x24 PUSH1 0x0 REVERT JUMPDEST SWAP1 DUP2 PUSH1 0x3 DUP2 GT ISZERO PUSH2 0x9BA JUMPI PUSH32 0x4E487B7100000000000000000000000000000000000000000000000000000000 PUSH1 0x0 MSTORE PUSH1 0x21 PUSH1 0x4 MSTORE PUSH1 0x24 PUSH1 0x0 REVERT JUMPDEST DUP2 MSTORE POP POP CALLER DUP2 PUSH1 0x60 ADD SWAP1 PUSH20 0xFFFFFFFFFFFFFFFFFFFFFFFFFFFFFFFFFFFFFFFF AND SWAP1 DUP2 PUSH20 0xFFFFFFFFFFFFFFFFFFFFFFFFFFFFFFFFFFFFFFFF AND DUP2 MSTORE POP POP DUP1 PUSH1 0x3 PUSH1 0x0 PUSH1 0x2 SLOAD DUP2 MSTORE PUSH1 0x20 ADD SWAP1 DUP2 MSTORE PUSH1 0x20 ADD PUSH1 0x0 KECCAK256 PUSH1 0x0 DUP3 ADD MLOAD DUP2 PUSH1 0x0 ADD SWAP1 DUP1 MLOAD SWAP1 PUSH1 0x20 ADD SWAP1 PUSH2 0xA28 SWAP3 SWAP2 SWAP1 PUSH2 0xC84 JUMP JUMPDEST POP PUSH1 0x20 DUP3 ADD MLOAD DUP2 PUSH1 0x1 ADD SSTORE PUSH1 0x40 DUP3 ADD MLOAD DUP2 PUSH1 0x2 ADD PUSH1 0x0 PUSH2 0x100 EXP DUP2 SLOAD DUP2 PUSH1 0xFF MUL NOT AND SWAP1 DUP4 PUSH1 0x3 DUP2 GT ISZERO PUSH2 0xA84 JUMPI PUSH32 0x4E487B7100000000000000000000000000000000000000000000000000000000 PUSH1 0x0 MSTORE PUSH1 0x21 PUSH1 0x4 MSTORE PUSH1 0x24 PUSH1 0x0 REVERT JUMPDEST MUL OR SWAP1 SSTORE POP PUSH1 0x60 DUP3 ADD MLOAD DUP2 PUSH1 0x2 ADD PUSH1 0x1 PUSH2 0x100 EXP DUP2 SLOAD DUP2 PUSH20 0xFFFFFFFFFFFFFFFFFFFFFFFFFFFFFFFFFFFFFFFF MUL NOT AND SWAP1 DUP4 PUSH20 0xFFFFFFFFFFFFFFFFFFFFFFFFFFFFFFFFFFFFFFFF AND MUL OR SWAP1 SSTORE POP PUSH1 0x80 DUP3 ADD MLOAD DUP2 PUSH1 0x3 ADD SSTORE SWAP1 POP POP DUP1 PUSH1 0x4 PUSH1 0x0 CALLER PUSH20 0xFFFFFFFFFFFFFFFFFFFFFFFFFFFFFFFFFFFFFFFF AND PUSH20 0xFFFFFFFFFFFFFFFFFFFFFFFFFFFFFFFFFFFFFFFF AND DUP2 MSTORE PUSH1 0x20 ADD SWAP1 DUP2 MSTORE PUSH1 0x20 ADD PUSH1 0x0 KECCAK256 PUSH1 0x0 DUP3 ADD MLOAD DUP2 PUSH1 0x0 ADD SWAP1 DUP1 MLOAD SWAP1 PUSH1 0x20 ADD SWAP1 PUSH2 0xB39 SWAP3 SWAP2 SWAP1 PUSH2 0xC84 JUMP JUMPDEST POP PUSH1 0x20 DUP3 ADD MLOAD DUP2 PUSH1 0x1 ADD SSTORE PUSH1 0x40 DUP3 ADD MLOAD DUP2 PUSH1 0x2 ADD PUSH1 0x0 PUSH2 0x100 EXP DUP2 SLOAD DUP2 PUSH1 0xFF MUL NOT AND SWAP1 DUP4 PUSH1 0x3 DUP2 GT ISZERO PUSH2 0xB95 JUMPI PUSH32 0x4E487B7100000000000000000000000000000000000000000000000000000000 PUSH1 0x0 MSTORE PUSH1 0x21 PUSH1 0x4 MSTORE PUSH1 0x24 PUSH1 0x0 REVERT JUMPDEST MUL OR SWAP1 SSTORE POP PUSH1 0x60 DUP3 ADD MLOAD DUP2 PUSH1 0x2 ADD PUSH1 0x1 PUSH2 0x100 EXP DUP2 SLOAD DUP2 PUSH20 0xFFFFFFFFFFFFFFFFFFFFFFFFFFFFFFFFFFFFFFFF MUL NOT AND SWAP1 DUP4 PUSH20 0xFFFFFFFFFFFFFFFFFFFFFFFFFFFFFFFFFFFFFFFF AND MUL OR SWAP1 SSTORE POP PUSH1 0x80 DUP3 ADD MLOAD DUP2 PUSH1 0x3 ADD SSTORE SWAP1 POP POP PUSH1 0x1 PUSH1 0x2 SLOAD PUSH2 0xBFD SWAP2 SWAP1 PUSH2 0xFCF JUMP JUMPDEST PUSH1 0x2 DUP2 SWAP1 SSTORE POP POP POP JUMP JUMPDEST PUSH1 0x40 MLOAD DUP1 PUSH1 0xA0 ADD PUSH1 0x40 MSTORE DUP1 PUSH1 0x60 DUP2 MSTORE PUSH1 0x20 ADD PUSH1 0x0 DUP2 MSTORE PUSH1 0x20 ADD PUSH1 0x0 PUSH1 0x3 DUP2 GT ISZERO PUSH2 0xC5A JUMPI PUSH32 0x4E487B7100000000000000000000000000000000000000000000000000000000 PUSH1 0x0 MSTORE PUSH1 0x21 PUSH1 0x4 MSTORE PUSH1 0x24 PUSH1 0x0 REVERT JUMPDEST DUP2 MSTORE PUSH1 0x20 ADD PUSH1 0x0 PUSH20 0xFFFFFFFFFFFFFFFFFFFFFFFFFFFFFFFFFFFFFFFF AND DUP2 MSTORE PUSH1 0x20 ADD PUSH1 0x0 DUP2 MSTORE POP SWAP1 JUMP JUMPDEST DUP3 DUP1 SLOAD PUSH2 0xC90 SWAP1 PUSH2 0x10ED JUMP JUMPDEST SWAP1 PUSH1 0x0 MSTORE PUSH1 0x20 PUSH1 0x0 KECCAK256 SWAP1 PUSH1 0x1F ADD PUSH1 0x20 SWAP1 DIV DUP2 ADD SWAP3 DUP3 PUSH2 0xCB2 JUMPI PUSH1 0x0 DUP6 SSTORE PUSH2 0xCF9 JUMP JUMPDEST DUP3 PUSH1 0x1F LT PUSH2 0xCCB JUMPI DUP1 MLOAD PUSH1 0xFF NOT AND DUP4 DUP1 ADD OR DUP6 SSTORE PUSH2 0xCF9 JUMP JUMPDEST DUP3 DUP1 ADD PUSH1 0x1 ADD DUP6 SSTORE DUP3 ISZERO PUSH2 0xCF9 JUMPI SWAP2 DUP3 ADD JUMPDEST DUP3 DUP2 GT ISZERO PUSH2 0xCF8 JUMPI DUP3 MLOAD DUP3 SSTORE SWAP2 PUSH1 0x20 ADD SWAP2 SWAP1 PUSH1 0x1 ADD SWAP1 PUSH2 0xCDD JUMP JUMPDEST JUMPDEST POP SWAP1 POP PUSH2 0xD06 SWAP2 SWAP1 PUSH2 0xD0A JUMP JUMPDEST POP SWAP1 JUMP JUMPDEST JUMPDEST DUP1 DUP3 GT ISZERO PUSH2 0xD23 JUMPI PUSH1 0x0 DUP2 PUSH1 0x0 SWAP1 SSTORE POP PUSH1 0x1 ADD PUSH2 0xD0B JUMP JUMPDEST POP SWAP1 JUMP JUMPDEST PUSH1 0x0 PUSH2 0xD3A PUSH2 0xD35 DUP5 PUSH2 0xF83 JUMP JUMPDEST PUSH2 0xF52 JUMP JUMPDEST SWAP1 POP DUP3 DUP2 MSTORE PUSH1 0x20 DUP2 ADD DUP5 DUP5 DUP5 ADD GT ISZERO PUSH2 0xD52 JUMPI PUSH1 0x0 DUP1 REVERT JUMPDEST PUSH2 0xD5D DUP5 DUP3 DUP6 PUSH2 0x10AB JUMP JUMPDEST POP SWAP4 SWAP3 POP POP POP JUMP JUMPDEST PUSH1 0x0 DUP3 PUSH1 0x1F DUP4 ADD SLT PUSH2 0xD76 JUMPI PUSH1 0x0 DUP1 REVERT JUMPDEST DUP2 CALLDATALOAD PUSH2 0xD86 DUP5 DUP3 PUSH1 0x20 DUP7 ADD PUSH2 0xD27 JUMP JUMPDEST SWAP2 POP POP SWAP3 SWAP2 POP POP JUMP JUMPDEST PUSH1 0x0 DUP2 CALLDATALOAD SWAP1 POP PUSH2 0xD9E DUP2 PUSH2 0x1214 JUMP JUMPDEST SWAP3 SWAP2 POP POP JUMP JUMPDEST PUSH1 0x0 PUSH1 0x20 DUP3 DUP5 SUB SLT ISZERO PUSH2 0xDB6 JUMPI PUSH1 0x0 DUP1 REVERT JUMPDEST PUSH1 0x0 DUP3 ADD CALLDATALOAD PUSH8 0xFFFFFFFFFFFFFFFF DUP2 GT ISZERO PUSH2 0xDD0 JUMPI PUSH1 0x0 DUP1 REVERT JUMPDEST PUSH2 0xDDC DUP5 DUP3 DUP6 ADD PUSH2 0xD65 JUMP JUMPDEST SWAP2 POP POP SWAP3 SWAP2 POP POP JUMP JUMPDEST PUSH1 0x0 PUSH1 0x20 DUP3 DUP5 SUB SLT ISZERO PUSH2 0xDF7 JUMPI PUSH1 0x0 DUP1 REVERT JUMPDEST PUSH1 0x0 PUSH2 0xE05 DUP5 DUP3 DUP6 ADD PUSH2 0xD8F JUMP JUMPDEST SWAP2 POP POP SWAP3 SWAP2 POP POP JUMP JUMPDEST PUSH2 0xE17 DUP2 PUSH2 0x1025 JUMP JUMPDEST DUP3 MSTORE POP POP JUMP JUMPDEST PUSH2 0xE26 DUP2 PUSH2 0x1087 JUMP JUMPDEST DUP3 MSTORE POP POP JUMP JUMPDEST PUSH2 0xE35 DUP2 PUSH2 0x1099 JUMP JUMPDEST DUP3 MSTORE POP POP JUMP JUMPDEST PUSH1 0x0 PUSH2 0xE46 DUP3 PUSH2 0xFB3 JUMP JUMPDEST PUSH2 0xE50 DUP2 DUP6 PUSH2 0xFBE JUMP JUMPDEST SWAP4 POP PUSH2 0xE60 DUP2 DUP6 PUSH1 0x20 DUP7 ADD PUSH2 0x10BA JUMP JUMPDEST PUSH2 0xE69 DUP2 PUSH2 0x11DB JUMP JUMPDEST DUP5 ADD SWAP2 POP POP SWAP3 SWAP2 POP POP JUMP JUMPDEST PUSH2 0xE7D DUP2 PUSH2 0x107D JUMP JUMPDEST DUP3 MSTORE POP POP JUMP JUMPDEST PUSH1 0x0 PUSH1 0x20 DUP3 ADD SWAP1 POP PUSH2 0xE98 PUSH1 0x0 DUP4 ADD DUP5 PUSH2 0xE0E JUMP JUMPDEST SWAP3 SWAP2 POP POP JUMP JUMPDEST PUSH1 0x0 PUSH1 0xA0 DUP3 ADD SWAP1 POP DUP2 DUP2 SUB PUSH1 0x0 DUP4 ADD MSTORE PUSH2 0xEB8 DUP2 DUP9 PUSH2 0xE3B JUMP JUMPDEST SWAP1 POP PUSH2 0xEC7 PUSH1 0x20 DUP4 ADD DUP8 PUSH2 0xE74 JUMP JUMPDEST PUSH2 0xED4 PUSH1 0x40 DUP4 ADD DUP7 PUSH2 0xE0E JUMP JUMPDEST PUSH2 0xEE1 PUSH1 0x60 DUP4 ADD DUP6 PUSH2 0xE1D JUMP JUMPDEST PUSH2 0xEEE PUSH1 0x80 DUP4 ADD DUP5 PUSH2 0xE74 JUMP JUMPDEST SWAP7 SWAP6 POP POP POP POP POP POP JUMP JUMPDEST PUSH1 0x0 PUSH1 0xA0 DUP3 ADD SWAP1 POP DUP2 DUP2 SUB PUSH1 0x0 DUP4 ADD MSTORE PUSH2 0xF12 DUP2 DUP9 PUSH2 0xE3B JUMP JUMPDEST SWAP1 POP PUSH2 0xF21 PUSH1 0x20 DUP4 ADD DUP8 PUSH2 0xE74 JUMP JUMPDEST PUSH2 0xF2E PUSH1 0x40 DUP4 ADD DUP7 PUSH2 0xE2C JUMP JUMPDEST PUSH2 0xF3B PUSH1 0x60 DUP4 ADD DUP6 PUSH2 0xE0E JUMP JUMPDEST PUSH2 0xF48 PUSH1 0x80 DUP4 ADD DUP5 PUSH2 0xE74 JUMP JUMPDEST SWAP7 SWAP6 POP POP POP POP POP POP JUMP JUMPDEST PUSH1 0x0 PUSH1 0x40 MLOAD SWAP1 POP DUP2 DUP2 ADD DUP2 DUP2 LT PUSH8 0xFFFFFFFFFFFFFFFF DUP3 GT OR ISZERO PUSH2 0xF79 JUMPI PUSH2 0xF78 PUSH2 0x11AC JUMP JUMPDEST JUMPDEST DUP1 PUSH1 0x40 MSTORE POP SWAP2 SWAP1 POP JUMP JUMPDEST PUSH1 0x0 PUSH8 0xFFFFFFFFFFFFFFFF DUP3 GT ISZERO PUSH2 0xF9E JUMPI PUSH2 0xF9D PUSH2 0x11AC JUMP JUMPDEST JUMPDEST PUSH1 0x1F NOT PUSH1 0x1F DUP4 ADD AND SWAP1 POP PUSH1 0x20 DUP2 ADD SWAP1 POP SWAP2 SWAP1 POP JUMP JUMPDEST PUSH1 0x0 DUP2 MLOAD SWAP1 POP SWAP2 SWAP1 POP JUMP JUMPDEST PUSH1 0x0 DUP3 DUP3 MSTORE PUSH1 0x20 DUP3 ADD SWAP1 POP SWAP3 SWAP2 POP POP JUMP JUMPDEST PUSH1 0x0 PUSH2 0xFDA DUP3 PUSH2 0x107D JUMP JUMPDEST SWAP2 POP PUSH2 0xFE5 DUP4 PUSH2 0x107D JUMP JUMPDEST SWAP3 POP DUP3 PUSH32 0xFFFFFFFFFFFFFFFFFFFFFFFFFFFFFFFFFFFFFFFFFFFFFFFFFFFFFFFFFFFFFFFF SUB DUP3 GT ISZERO PUSH2 0x101A JUMPI PUSH2 0x1019 PUSH2 0x111F JUMP JUMPDEST JUMPDEST DUP3 DUP3 ADD SWAP1 POP SWAP3 SWAP2 POP POP JUMP JUMPDEST PUSH1 0x0 PUSH2 0x1030 DUP3 PUSH2 0x105D JUMP JUMPDEST SWAP1 POP SWAP2 SWAP1 POP JUMP JUMPDEST PUSH1 0x0 DUP2 SWAP1 POP PUSH2 0x1045 DUP3 PUSH2 0x11EC JUMP JUMPDEST SWAP2 SWAP1 POP JUMP JUMPDEST PUSH1 0x0 DUP2 SWAP1 POP PUSH2 0x1058 DUP3 PUSH2 0x1200 JUMP JUMPDEST SWAP2 SWAP1 POP JUMP JUMPDEST PUSH1 0x0 PUSH20 0xFFFFFFFFFFFFFFFFFFFFFFFFFFFFFFFFFFFFFFFF DUP3 AND SWAP1 POP SWAP2 SWAP1 POP JUMP JUMPDEST PUSH1 0x0 DUP2 SWAP1 POP SWAP2 SWAP1 POP JUMP JUMPDEST PUSH1 0x0 PUSH2 0x1092 DUP3 PUSH2 0x1037 JUMP JUMPDEST SWAP1 POP SWAP2 SWAP1 POP JUMP JUMPDEST PUSH1 0x0 PUSH2 0x10A4 DUP3 PUSH2 0x104A JUMP JUMPDEST SWAP1 POP SWAP2 SWAP1 POP JUMP JUMPDEST DUP3 DUP2 DUP4 CALLDATACOPY PUSH1 0x0 DUP4 DUP4 ADD MSTORE POP POP POP JUMP JUMPDEST PUSH1 0x0 JUMPDEST DUP4 DUP2 LT ISZERO PUSH2 0x10D8 JUMPI DUP1 DUP3 ADD MLOAD DUP2 DUP5 ADD MSTORE PUSH1 0x20 DUP2 ADD SWAP1 POP PUSH2 0x10BD JUMP JUMPDEST DUP4 DUP2 GT ISZERO PUSH2 0x10E7 JUMPI PUSH1 0x0 DUP5 DUP5 ADD MSTORE JUMPDEST POP POP POP POP JUMP JUMPDEST PUSH1 0x0 PUSH1 0x2 DUP3 DIV SWAP1 POP PUSH1 0x1 DUP3 AND DUP1 PUSH2 0x1105 JUMPI PUSH1 0x7F DUP3 AND SWAP2 POP JUMPDEST PUSH1 0x20 DUP3 LT DUP2 EQ ISZERO PUSH2 0x1119 JUMPI PUSH2 0x1118 PUSH2 0x117D JUMP JUMPDEST JUMPDEST POP SWAP2 SWAP1 POP JUMP JUMPDEST PUSH32 0x4E487B7100000000000000000000000000000000000000000000000000000000 PUSH1 0x0 MSTORE PUSH1 0x11 PUSH1 0x4 MSTORE PUSH1 0x24 PUSH1 0x0 REVERT JUMPDEST PUSH32 0x4E487B7100000000000000000000000000000000000000000000000000000000 PUSH1 0x0 MSTORE PUSH1 0x21 PUSH1 0x4 MSTORE PUSH1 0x24 PUSH1 0x0 REVERT JUMPDEST PUSH32 0x4E487B7100000000000000000000000000000000000000000000000000000000 PUSH1 0x0 MSTORE PUSH1 0x22 PUSH1 0x4 MSTORE PUSH1 0x24 PUSH1 0x0 REVERT JUMPDEST PUSH32 0x4E487B7100000000000000000000000000000000000000000000000000000000 PUSH1 0x0 MSTORE PUSH1 0x41 PUSH1 0x4 MSTORE PUSH1 0x24 PUSH1 0x0 REVERT JUMPDEST PUSH1 0x0 PUSH1 0x1F NOT PUSH1 0x1F DUP4 ADD AND SWAP1 POP SWAP2 SWAP1 POP JUMP JUMPDEST PUSH1 0x7 DUP2 LT PUSH2 0x11FD JUMPI PUSH2 0x11FC PUSH2 0x114E JUMP JUMPDEST JUMPDEST POP JUMP JUMPDEST PUSH1 0x4 DUP2 LT PUSH2 0x1211 JUMPI PUSH2 0x1210 PUSH2 0x114E JUMP JUMPDEST JUMPDEST POP JUMP JUMPDEST PUSH2 0x121D DUP2 PUSH2 0x107D JUMP JUMPDEST DUP2 EQ PUSH2 0x1228 JUMPI PUSH1 0x0 DUP1 REVERT JUMPDEST POP JUMP INVALID LOG2 PUSH5 0x6970667358 0x22 SLT KECCAK256 0xA8 PUSH20 0x157964F2B5ACAFB7DDE80CE60D23B6597E2A901C PUSH15 0x52C3E74AAE55A37C3864736F6C6343 STOP ADDMOD STOP STOP CALLER "
				},
				"gasEstimates": {
					"creation": {
						"codeDepositCost": "941000",
						"executionCost": "31859",
						"totalCost": "972859"
					},
					"external": {
						"Items(uint256)": "infinite",
						"addManufacturer(string)": "infinite",
						"addSupplier(string)": "infinite",
						"addtransporter(string)": "infinite",
						"owner()": "1280",
						"participants(uint256)": "infinite"
					}
				},
				"methodIdentifiers": {
					"Items(uint256)": "17b47cc4",
					"addManufacturer(string)": "8f5ae799",
					"addSupplier(string)": "15533a27",
					"addtransporter(string)": "2fa5ad1a",
					"owner()": "8da5cb5b",
					"participants(uint256)": "35c1d349"
				}
			},
			"userdoc": {
				"kind": "user",
				"methods": {},
				"version": 1
			}
		}
	}
}